:020000040800F2
:1000000048C8002069020008516600082D3E00081B
:100010004B640008ED12000881D0000800000000C9
:1000200000000000000000000000000025BA0008E9
:100030004538000800000000E7040008BDBC0008C7
:10004000830200088302000883020008830200087C
:10005000830200088302000883020008830200086C
:10006000830200088302000883020008830200085C
:1000700083020008830200082322000833220008BC
:10008000830200088302000883020008830200083C
:10009000830200088302000883020008830200082C
:1000A000830200088302000883020008FDC20008E2
:1000B000830200088302000883020008830200080C
:1000C00083020008830200088302000883020008FC
:1000D000830200088302000883020008A1CB000805
:1000E00049380008830200088302000883020008E0
:1000F00083020008830200088302000845220008EA
:1001000083020008830200088302000883020008BB
:1001100081CB000891CB000883020008830200080D
:10012000830200088302000883020008830200089B
:10013000830200088302000883020008830200088B
:10014000830200088302000883020008830200087B
:10015000830200088522000883020008B1CB000852
:10016000830200088302000883020008830200085B
:10017000830200088302000883020008830200084B
:10018000830200088302000800F002F800F05CF827
:100190000AA090E8000C82448344AAF10107DA45E2
:1001A00001D100F051F8AFF2090EBAE80F0013F0D8
:1001B000010F18BFFB1A43F0010318476414010034
:1001C000841401000A444FF0000C10F8013B13F0B6
:1001D000070408BF10F8014B1D1108BF10F8015BA0
:1001E000641E05D010F8016B641E01F8016BF9D193
:1001F00013F0080F1EBF10F8014BAD1C0C1B09D1EA
:100200006D1E58BF01F801CBFAD505E014F8016B5B
:1002100001F8016B6D1EF9D59142D6D370470000ED
:100220000023002400250026103A28BF78C1FBD8FF
:10023000520728BF30C148BF0B6070471FB510F090
:100240007EFF1FBD10B510BD00F0FDF81146FFF791
:10025000F5FF0FF0D5F900F01BF903B4FFF7F2FF3B
:1002600003BC00F01FF90000094880470948004717
:10027000FEE7FEE7FEE7FEE7FEE7FEE7FEE7FEE756
:10028000FEE7FEE704480549054A064B70470000B3
:10029000D9BC00088901000848BC002048C80020DB
:1002A00048C0002048C0002072B6704762B6704750
:1002B000EFF3108072B6704780F31088704730BF3C
:1002C000704720BF7047B0FA80F0704790FAA0F0F6
:1002D000B0FA80F0704790FAA0F07047032A40F21D
:1002E000308010F0030C00F0158011F8013BBCF1D8
:1002F000020F624498BF11F801CB00F8013B38BFF0
:1003000011F8013BA2F1040298BF00F801CB38BFFD
:1003100000F8013B11F0030300F02580083AC0F01B
:10032000088051F8043B083A51F804CBA0E80810C3
:10033000F5E7121D5CBF51F8043B40F8043BAFF3F6
:100340000080D20724BF11F8013B11F801CB48BF50
:1003500011F8012B24BF00F8013B00F801CB48BF86
:1003600000F8012B704710B5203AC0F00B80B1E8BF
:100370001850203AA0E81850B1E81850A0E81850DA
:10038000BFF4F5AF5FEA027C24BFB1E81850A0E8E3
:10039000185044BF18C918C0BDE810405FEA827CFD
:1003A00024BF51F8043B40F8043B08BF7047D20714
:1003B00028BF31F8023B48BF11F8012B28BF20F8B5
:1003C000023B48BF00F8012B70474FF0000200B518
:1003D000134694469646203922BFA0E80C50A0E868
:1003E0000C50B1F12001BFF4F7AF090728BFA0E816
:1003F0000C5048BF0CC05DF804EB890028BF40F8E2
:10040000042B08BF704748BF20F8022B11F0804F23
:1004100018BF00F8012B704770477047704710B540
:1004200000F00CF8006810BD10B5044600F006F8A6
:10043000046010BD00487047E8BB002000487047CA
:10044000E8BB002070477546FFF7F4FFAE46050095
:100450006946534620F00700854618B020B5FFF7DF
:1004600011FFBDE820404FF000064FF000074FF0AD
:1004700000084FF0000B21F00701AC46ACE8C009C2
:10048000ACE8C009ACE8C009ACE8C0098D467047CB
:1004900010B50446AFF300802046BDE81040FFF7DA
:1004A000DCBE000001491820ABBEFEE726000200BA
:1004B00022484FF6FF710170002080F30988204820
:1004C000016881F308881F484FF08051016062B6CF
:1004D000FEE71C484FF080510160704719484FF00B
:1004E00080510160704772B6EFF3098050B11EF081
:1004F000100F08BF20ED108A203880E8F00F124955
:100500000968086000B5114880475DF804EB1048A1
:1005100010490A7802700C480F490A680260106896
:1005200090E8F00F20301EF0100F08BFB0EC108ADA
:1005300080F309884EF0040E62B6704722ED00E0A9
:10054000D400002004ED00E0CC000020F179000888
:100550005A0000205B000020D000002021B18268FA
:1005600042F00102826003E0826822F001028260B0
:10057000704700000021084A1168084A1140D0E97C
:1005800000231A4383681A43C3681A431143044A79
:10059000C2F804137047000004230140E030FCFF60
:1005A0000020014021B1826842F48072826003E041
:1005B000826822F480728260704721B1826842F4BE
:1005C0000072826003E0826822F4007282607047E9
:1005D00030B50246002000235068104C20400D79B1
:1005E0000C6844EA05242043506090680C4C20407D
:1005F000D1E903542C438D682C434D7944EA4504DA
:1006000020439060D06A20F470000C7D641EE4B238
:10061000234340EA0350D06230BD0000FFFEFFFCE0
:10062000FDF7FFC0F0B504460D4600200021092D5E
:1006300011DDE068A5F10A0606EB4607072606FA73
:1006400007F18843A5F10A0606EB460603FA06F110
:100650000843E0600CE0206905EB4507072606FA31
:1006600007F1884305EB450603FA06F108432061CC
:10067000072A0FDA606B561E06EB86071F2606FA5E
:1006800007F18843561E06EB860605FA06F1084375
:10069000606322E00D2A0FDA206BD61F06EB860777
:1006A0001F2606FA07F18843D61F06EB860605FAD1
:1006B00006F10843206310E0E06AA2F10D0606EBA4
:1006C00086071F2606FA07F18843A2F10D0606EBFE
:1006D000860605FA06F10843E062F0BD816841F044
:1006E000804181607047000000B59BB001213D480A
:1006F0000AF046FF012108020AF062FF01200A9079
:1007000003208DF82C0000208DF82F000AA9364810
:1007100003F0FCFA012108020AF062FF00214FF405
:1007200080700AF05DFF002006904FF47060099021
:10073000002008904FF48030079006A8FFF71AFFBA
:10074000002000908DF8040001208DF805000020A5
:100750000290049001208DF8140069462348FFF7A9
:1007600037FF0723012208212048FFF75BFF012103
:100770001E48FFF722FF01211C48FFF713FF01214C
:100780001A48FFF7EBFE1A4801F0C4FD052010904F
:1007900000200C900F90179016480E900020199092
:1007A0004FF400501490C0101290801015900F4814
:1007B0004C300D9000201A904FF4006013900020F0
:1007C00011904FF4003016900CA9094801F0A2FED8
:1007D0000121074801F092FD0448FFF77FFF1BB09D
:1007E00000BD000002004000000402400020014063
:1007F0001064024014AA002010B52DED0C8BF0EE11
:1008000040AAB0EE60BA9FEDFE0AB0EE408A9FEDBE
:10081000FD0AF0EE408AFC4890ED060AFB48D0ED58
:10082000030A30EE600AC0EE080AB0EE609AF6489D
:1008300090ED070AF548D0ED040A30EE600AC0EEEC
:10084000080AF0EE609AF04890ED080AEF48D0ED03
:10085000050A30EE600AC0EE080AB0EE60AA9FED0D
:10086000EC0A38EE000AC8EE000A90ED060A39EEEE
:10087000401A90ED060A00EE810AB0EE409A9FED14
:10088000E40A38EE000AC8EE000A90ED070A39EED5
:10089000C01A90ED070A00EE810AF0EE409A9FED33
:1008A000DC0A38EE000AC8EE000A90ED080A3AEEBB
:1008B000401A90ED080A00EE810AB0EE40AAD24834
:1008C00090ED060AD14880ED030ACF4890ED070A63
:1008D000CE4880ED040ACC4890ED080ACB4880ED64
:1008E000050A80ED069AC0ED079A80ED08AAC64871
:1008F00090ED000AC748D0ED000A30EE600A30EEF5
:100900006A0AC548D0ED000A30EEC00AB0EE40CA0F
:10091000C24890ED000A20EE0C0AC14880ED070A9B
:10092000C0484078012851D0B74890ED061AF0EE43
:10093000410ABB4890ED071AB0EE410ADFEDBA1A42
:100940009FEDAF1AB949B548243009F013F8DFED2F
:10095000AC0A20EE200AF0EE40CABFEE001AF7EE15
:10096000000A04F0D9FAB0EE40DAA748D0ED070A41
:1009700090ED081ADFEDAE1A21EE211A60EE810A21
:1009800090ED071ADFED9E1A21EE211AD0ED081A1C
:1009900041EE610AB0EE600A9FEDA61ADFEDA60AED
:1009A00004F0BAFA7DEE00CADFED950A69EE200A7E
:1009B000B0EE600A9FED9F1ADFED9F0A04F0ACFADB
:1009C0003CEE800A9D4880ED000A54E08E4890ED90
:1009D000061AF0EE410A904890ED041ADFED981ADD
:1009E00021EE211AB0EE410ADFED8F1A9FED841A35
:1009F0008E498A48243008F0BDFFDFED810A20EEE1
:100A0000200AF0EE40CABFEE001AF7EE000A04F02A
:100A100083FAB0EE40DA7C48D0ED070A90ED081A70
:100A2000DFED831A21EE211A60EE810A90ED071A9C
:100A3000DFED731A21EE211AD0ED081A41EE610A9A
:100A4000B0EE600A9FED7B1ADFED7B0A04F064FADA
:100A50007DEE00CADFED6A0A69EE200AB0EE600A98
:100A60009FED741ADFED740A04F056FA3CEE800A2A
:100A7000724880ED000A7148D0ED000AB0EE600ABD
:100A80009FED701ADFED700A04F046FA6B4880EDB6
:100A9000000A5D4890ED010A5E48D0ED010A30EE93
:100AA000600A30EE4B0A5C48D0ED010A70EEC0BA25
:100AB0005A4890ED030A20EE2B0A644880ED070A9D
:100AC00058484078022851D04F4890ED071AF0EE70
:100AD000410A5E4890ED071AB0EE410ADFED521A66
:100AE0009FED471A5A494D48303008F043FFDFED7B
:100AF000440A20EE200AF0EE40CABFEE001AF7EEDC
:100B0000000A04F009FAB0EE40DA3F48D0ED060AD8
:100B100090ED081ADFED461A21EE211A60EE810AE7
:100B200090ED061ADFED361A21EE211AD0ED081AE3
:100B300051EE210AB0EE600A9FED3E1ADFED3E0A4B
:100B400004F0EAF97DEE00CADFED2D0A69EEA00A95
:100B5000B0EE600A9FED371ADFED370A04F0DCF9DA
:100B60003CEE800A354880ED010A80E0264890ED91
:100B7000071AF0EE410A284890ED031ADFED301A0B
:100B800021EE211AB0EE410ADFED271A9FED1C1A63
:100B90002F492248303008F0EDFEDFED190A20EE33
:100BA000200AF0EE40CABFEE001AF7EE000A04F089
:100BB000B3F9B0EE40DA1448D0ED060A90ED081A09
:100BC000DFED1B1A21EE211A60EE810A90ED061A64
:100BD000DFED0B1A21EE211AD0ED081A51EE210A91
:100BE000B0EE600A9FED131ADFED130A04F094F9DA
:100BF0007DEE00CADFED020A69EEA00A2AE00000DD
:100C00006F12033B00000000B496002018B60020CD
:100C10000361023CD80000209C970020989B002094
:100C200078990020A49600200000C843389A00203C
:100C30006F12833BCDCCCCBDCDCCCC3D30990020C8
:100C400017B751399A9999BF9A99993F9899002065
:100C5000589A0020B0EE600A1FED0A1A5FED0A0AEA
:100C600004F05AF93CEE800A9E4880ED010A9D4846
:100C7000D0ED010AB0EE600A1FED0E1A5FED0E0A0C
:100C800004F04AF9974880ED010A97480078042853
:100C900005D1964890ED200AF0EE408A08E092488F
:100CA0000078032804D1914890ED020AF0EE408AC2
:100CB0008F4890ED030AB5EEC00AF1EE10FA7BD131
:100CC0008C480078012805D18B48C0ED028A0020AD
:100CD00088490870884890ED020A30EE680ADFED16
:100CE000870AB4EEE00AF1EE10FA0BDB90ED020A8F
:100CF00030EE680ADFED820A30EE600A814880ED4E
:100D0000000A1FE07C4890ED020A30EE680ADFED31
:100D10007E0AB4EEE00AF1EE10FA0BD290ED020A70
:100D200030EE680ADFED760A30EE200A754880ED75
:100D3000000A07E0704890ED020A30EE680A714838
:100D400080ED000A714890ED060A6E48D0ED000A69
:100D500020EE200A6E4880ED070A644890ED081ADC
:100D6000F0EE410A6A4890ED071AB0EE410ADFED55
:100D7000691A1FED5D1A684964483C3008F0FAFDB5
:100D80005FED550A20EE200AF0EE40CA1FED571A1B
:100D90005FED570A04F0C0F8B0EE40DA5348D0EDEA
:100DA000060A90ED071A5FED6A1A21EE211A60EE2D
:100DB000810A90ED061A00E023E05FED6F1A21EE44
:100DC000211AD0ED071A41EE610AB0EE600A9FEDDC
:100DD000531ADFED530A04F09FF87DEE00CA5FED71
:100DE0006C0A6AEE200AB0EE600A9FED4C1ADFED45
:100DF0004C0A04F091F83CEE800A3A4880ED020A71
:100E00005AE03B4890ED030ADFED460A80EE201AD7
:100E1000F0EE41CA354890ED080AF0EE400ADFEDE9
:100E20003D1A1FED891AB0EE6C0A3B4937483C3039
:100E300008F0A0FD5FED820A20EE200AB0EE40DA55
:100E40001FED841A5FED840A04F066F8F0EE40DAD4
:100E50002648D0ED060A90ED071A5FED971A21EEAD
:100E6000211A60EE810A90ED061A5FED9B1A21EEC1
:100E7000211AD0ED071A41EE610AB0EE600A9FED2B
:100E8000271ADFED270A04F047F83DEE80DA5FED20
:100E9000980A6AEE200AB0EE600A9FED201ADFED94
:100EA000200A04F039F83DEE000A0E4880ED020AEF
:100EB00001201049087000BF0A48D0ED020AB0EEC8
:100EC000600A1FEDA41A5FEDA40A04F025F8054896
:100ED00080ED020A9FED140A00F05CFABDEC0C8B69
:100EE00010BD000030990020E0000020B4960020E2
:100EF00004980020880100209C97002000003443C3
:100F00000000B4438C010020000034C3989B0020F3
:100F1000B89900200000C842789A00200AD7A3BCE4
:100F20000AD7A33C00004842C3F5283E2DED028BB2
:100F300084B000BF002500249FED8B0AB0EE408AEC
:100F40009FED890AF0EE408A012600208749487308
:100F500009E100BF00BFFFF7ABF9054600BF00BFC6
:100F60008248007801286BD1814890ED0D0ADFEDB1
:100F7000810AB4EEE00AF1EE10FA07DA7E4890ED4D
:100F80001D0AB5EEC00AF1EE10FA59D07748407844
:100F900005284ED1B4F5FA7F1FD2641C764890ED37
:100FA000000A7648D0ED000A30EE600A30EE080AFA
:100FB000B0EE408A704890ED010A7048D0ED010A09
:100FC00030EE600A30EE280AF0EE408A96231A4688
:100FD0001946184609F044FBB5E0EEB19FED680AEA
:100FE000C8EE000AB0EE608A9FED650AC8EE800A7E
:100FF000F0EE608A00269FED5C0A624880ED020AEE
:101000009FED590A5C4880ED100A9FED570A80ED6C
:10101000110A0120554948735448407B0028DBD011
:10102000F0EE680AB0EE480AFFF7E6FB0AF0FCFCB7
:1010300089E0DFED4D0A9FED4C0AFFF7DDFB82E012
:1010400001269FED490AB0EE408A9FED470AF0EE77
:10105000408A00249FED440A4B4880ED050A9FED2D
:10106000420A4A4880ED050A9FED3F0A484880ED54
:10107000050A9FED3D0A474880ED050A9FED3A0AB3
:10108000454880ED050A9FED380A444880ED050A81
:101090009FED350A424880ED050A9FED330A41482D
:1010A00080ED050A9FED300A3F4880ED050A9FED6F
:1010B0002E0A3A4880ED050A9FED2B0A384880ED4C
:1010C000050AB7EE000A2F4880ED060A9FED260AB2
:1010D00080ED000A9FED240A80ED010A9FED220AAF
:1010E00080ED020A9FED200A80ED100A9FED1E0A96
:1010F00080ED110AB7EE000A80ED120A9FED1A0A80
:1011000080ED160A9FED180A80ED170A00201A4993
:10111000C1F8C8000120154908730020164981F85C
:10112000C0000720214908700420214908700020D0
:101130000E49886048738873C87300231A4619469D
:10114000184609F08DFA00BF00BF2846FFF7B4F833
:1011500000BF00BF03A8002102230A46CDE900100A
:10116000084606F0EBFCF4E600000000A496002020
:10117000D49800200AD7233CB4960020D800002041
:101180000000FA439C970020389A0020589A0020CB
:10119000B8990020D89A0020789B0020989A0020C7
:1011A000B89A0020389B0020589B002014980020FB
:1011B000E0000020F0EE400A02469FED161AB0EE65
:1011C000410A002009E0431C01EB830393ED001A60
:1011D00001EB800383ED001A401C531E8342F2DCB6
:1011E00001EB8303C3ED000A002008E001EB80035C
:1011F00093ED001A31EE001AB0EE410A401C904205
:10120000F4DB01EE102AB8EE411AC0EE011AB0EE7E
:10121000610A7047000000001FB568460AF0F0F947
:10122000019804B010BD00002DED028B88B000BF06
:1012300048E002F0E3FDB0EE408A02A90520FFF786
:10124000B9FF214880ED250A90ED250ADFED1F0A40
:10125000B4EEE00AF1EE10FA1AD21D480078012827
:1012600016D001201849C1F8BC0007A80021C823E6
:101270000A46CDE90010084606F060FC07A80021E8
:10128000C8230A46CDE90010084606F057FC10E0D6
:101290000D4890ED250ADFED0F0AB4EEE00AF1EEFD
:1012A00010FA02D201200A49886000200649C1F8DC
:1012B000BC0007A80021C8230A46CDE90010084653
:1012C00006F03CFCB5E70000B49600209A99314145
:1012D000A49600209A99294110B54FF4E1300BF003
:1012E0002BFF4FF4FA600EF043F810BD00BFFEE78D
:1012F00010B500F01FF800F019F810BD10B500246B
:1013000000BF00BFFEF7D4FF044600BF00BF10219E
:10131000054805F09CF800BF00BF2046FEF7CCFF53
:1013200000BF00BF10BD0000F801002010B5FFF79E
:10133000E5FF10BD10B500200249086000F00AF872
:1013400010BD000014000020014908607047000033
:101350001400002010B5FFF75FFF0446084800683E
:1013600040F0807006490860002006494860084641
:10137000006840F0010008602046FFF7E5FF10BD5F
:10138000FCED00E0001000E00149486870470000F3
:10139000001000E000B5B0EE403AB94840780528AA
:1013A0007DD1B1EE000A63EE000A9FEDB61A81EE20
:1013B000200AB548D0ED000A20EE200AF1EE000A1E
:1013C00023EE201ADFEDB11AC1EE810A90ED011A69
:1013D00000EEC10AD0ED020A9FEDAD1A01EE600ADF
:1013E000D0ED030AB7EE041A60EE810AB1EE001ADE
:1013F000C0EE811A30EE210A80ED050AB1EE000A36
:1014000063EE000A9FEDA11A81EE200AD0ED000ADA
:1014100020EE200AF1EE000A23EE201ADFED9B1ADF
:10142000C1EE810A90ED011A00EEC10AD0ED020A68
:101430009FED971A01EE200AD0ED030AB7EE041AC9
:1014400060EE810AB1EE001AC0EE811A30EE210A78
:1014500080ED060AB1EE000A23EE000A9FED8B1A1A
:10146000C1EE000A90ED000A20EE800AF1EE000ABB
:1014700023EE201ADFED851AC1EE810A90ED011AE4
:1014800000EE810AD0ED020A9FED811A01EE600A9A
:10149000D0ED030AB7EE041A60EE810A00E034E0F2
:1014A000B1EE001AC0EE811A30EE210A80ED070A73
:1014B000B1EE000A23EE000A9FED721AC1EE000A97
:1014C00090ED000A20EE800AF1EE000A23EE201AC9
:1014D000DFED6E1AC1EE810A90ED011A00EE810A6D
:1014E000D0ED020A9FED6A1A01EE200AD0ED030A40
:1014F000B7EE041A60EE810AB1EE001AC0EE811A4E
:1015000030EE210A80ED080A92E05D484078032819
:1015100003D05B484078012841D1B1EE000A23EEA8
:10152000000A9FED581AC1EE000A574890ED001AC4
:101530009FED580A00EE810A80ED050AB1EE000A1F
:1015400023EE000A9FED511AC1EE000A90ED001A39
:101550009FED500A00EE810A80ED060AB1EE000A06
:1015600023EE000A9FED491AC1EE000A90ED001A21
:101570009FED480A00EE810A80ED070AB1EE000AED
:1015800023EE000A9FED3F1AC1EE000A90ED001A0B
:101590009FED400A00EE810A80ED080A48E03848D5
:1015A0004078042803D036484078022840D1B1EE74
:1015B000000A23EE000A9FED331AC1EE000A3248FA
:1015C00090ED011A9FED330A00EE810A80ED050AC5
:1015D000B1EE000A23EE000A9FED2A1AC1EE000ABE
:1015E00090ED011A9FED2B0A00EE810A80ED060AAC
:1015F000B1EE000A23EE000A9FED241AC1EE000AA4
:1016000090ED011A9FED230A00EE810A80ED070A92
:10161000B1EE000A23EE000A9FED1C1AC1EE000A8B
:1016200090ED011A9FED1B0A00EE810A80ED080A79
:10163000B7EE000A144880ED0D0A90ED082AD0EDAF
:101640000D2A22EE222AF0EE421A90ED072AD0ED62
:101650000D2A22EE222AB0EE421A90ED062AD0ED93
:101660000D2A22EE222AF0EE420A90ED052AD0ED54
:101670000D2A22EE222AB0EE420A04F01BFF00BD22
:10168000A4960020F4FDB4BF30990020F4FDB43FCF
:10169000FFFF79410000444070B503460C461546F3
:1016A000002049E0411C44E000EB400604EBC60684
:1016B00006EB8106D6ED000A00EB400604EBC606F9
:1016C00006EB800696ED001A80EE810AB5EEC00AA0
:1016D000F1EE10FA2CD003EB8106D6ED000A03EBF5
:1016E000800696ED001A40EE410A03EB8106C6ED36
:1016F000000A0A461AE002EB420604EBC60606EBB5
:101700008106D6ED000A02EB420604EBC60606EBA4
:10171000800696ED001A40EE410A02EB420604EB09
:10172000C60606EB8106C6ED000A521C062AE2DB5D
:10173000491C0629B8DB401C0628B3DB052043E022
:1017400000EB400604EBC60606EB8006D6ED000A69
:1017500003EB800696ED001AC1EE201A03EB80061B
:10176000C6ED001AF7EE000A00EB400604EBC606D1
:1017700006EB8006C6ED000A002122E000EB4006E1
:1017800004EBC60606EB8106D6ED000AB0EE600A51
:1017900003EB8106D6ED000A03EB800696ED001AF6
:1017A00040EE410A03EB8106C6ED000ADFED0E0AAA
:1017B00000EB400604EBC60606EB8106C6ED000A08
:1017C000491C8142DADB401E0028B9DA002008E01B
:1017D00003EB8006D6ED000A05EB8006C6ED000A95
:1017E000401C0628F4DB70BD0000000010B5024666
:1017F0000B46002015E09FED0C0A02EB800484EDFF
:10180000000A00210AE09FED080A00EB400403EB08
:10181000C40404EB810484ED000A491C0629F2DBB0
:10182000401C0628E7DB10BD00000000F0B586B0C4
:1018300004460D46F7EE001AB0EE611A002034E0BF
:10184000C61C02EB8606D6ED000A03EB8006D6ED39
:10185000001A02EB800696ED002A31EEC20A60EE15
:10186000A01A21EE802AF0EE411A42EE401AB0EEA4
:10187000611AF0EE001A60EEA11A61EEA01A61EE94
:10188000801A6E4606EB8006C6ED001AF8EE001AC6
:1018900060EEA11A61EE801A61EE801AC61C6F46D6
:1018A00007EB8606C6ED001A401C0328C8DB0020A3
:1018B00030E004EB8006D6ED001A6E4606EB80069B
:1018C00096ED002A42EE011A04EB8006C6ED001ADE
:1018D00000211CE000EB400605EBC60606EB810686
:1018E000D6ED001A6E4606EB800696ED002A6E468F
:1018F00006EB8106D6ED002A42EE221A00EB4006E6
:1019000005EBC60606EB8106C6ED001A491C062942
:10191000E0DB401C0628CCDB06B0F0BD2DE9F0432F
:101920002DED028BB9B007460E4614464FF0000865
:101930009FED9D0AB0EE408A9FED9C0AF0EE408A32
:101940000020369037903890182130A8FEF73DFDE2
:1019500018212AA8FEF739FD182124A8FEF735FD25
:1019600090216846FEF731FD4FF001099FED900A86
:101970008DED320A8DED310A8DED300A9FED8D0A25
:101980008DED350A8DED340A8DED330A7BE008F1DB
:101990000108694624A8FFF729FF00251EE005EB92
:1019A000450007EB800090ED000A8DED360A05EB4F
:1019B000450007EB800090ED010A8DED370A05EB3D
:1019C000450007EB800090ED020A8DED380A36AB3A
:1019D00030AA694624A8FFF729FF6D1C062DDEDB1F
:1019E0002AAA694624A8FFF757FE9DED2D0A20EE8E
:1019F000000ADDED330A20EEA01AC0EE010A9DEDCB
:101A00002A0A20EE000A30EE000A9DED2B1ADDEDC9
:101A10002B1A01EE210A9DED2C1ADDED2C1A01EE98
:101A2000210A30EE800ADDED2E0A60EEA00A9DED5F
:101A3000341A21EE011AC0EE811A30EE210ADDEDD2
:101A40002F0A60EEA00A9DED351A21EE011AC0EEB4
:101A5000811A30EE210AF0EE408A002511E030A80C
:101A600000EB850090ED000A2AA800EB8500D0ED80
:101A7000000A30EE600A30A800EB850080ED000A15
:101A80006D1C062DEBDBB8F1140F05DAF4EEC88AF5
:101A9000F1EE10FA3FF77BAF9DED330ADFED460A1A
:101AA00020EE200A84ED000A9DED340ADFED420AA3
:101AB00020EE200A84ED010A9DED350ADFED3E0A95
:101AC00020EE200A84ED020A9DED300AD4ED000AD2
:101AD00020EE200A86ED000A9DED310AD4ED010AC0
:101AE00020EE200A86ED010A9DED320AD4ED020AAD
:101AF00020EE200A86ED020A94ED000AF7EE000AB5
:101B000030EE600AB0EEC00AF6EE000AB4EEE00A6B
:101B1000F1EE10FA1DDC94ED010AF7EE000A30EE4A
:101B2000600AB0EEC00AF6EE000AB4EEE00AF1EE8A
:101B300010FA0EDC94ED020AF7EE000A30EE600AAD
:101B4000B0EEC00AF6EE000AB4EEE00AF1EE10FACA
:101B500001DD4FF0000996ED000AB0EEC00AF1EE8B
:101B6000040AB4EEE00AF1EE10FA15DC96ED010A73
:101B7000B0EEC00AF1EE040AB4EEE00AF1EE10FA9B
:101B80000ADC96ED020AB0EEC00AF1EE040AB4EEE9
:101B9000E00AF1EE10FA01DD4FF00009484639B0D5
:101BA000BDEC028BBDE8F0835F7089300000C84255
:101BB000000000004618D13DAEB61C412DED028B51
:101BC00084B000BF9DE04F480078022840D14E48C5
:101BD00090ED020ADFED4D0A80EE201AB0EE418A48
:101BE0004B4890ED260AF0EE400AB0EE480A49480C
:101BF00007F02EFF474890ED050A454880ED140A8E
:101C0000444890ED060A424880ED160A3E4890EDA1
:101C1000030ADFED3E0A80EE201AB0EE418A3C480E
:101C200090ED270AB1EE400AF0EE400AB0EE480A05
:101C3000394807F00DFF384890ED050A344880ED2B
:101C4000150A354890ED060A314880ED170A00E084
:101C500000BF2F4890ED0B1AF0EE410A2A4890ED94
:101C60000D1AB0EE410A2D4807F0F2FE2B4890ED18
:101C7000050A274880ED0C0A284890ED060A2448FA
:101C800080ED0D0A90ED261AB1EE411AF0EE410AF0
:101C90001D4890ED091AB0EE410A1E4807F0D8FE23
:101CA0001C4890ED050A1A4880ED100A194890ED7D
:101CB000060A174880ED120A90ED271AB1EE411A74
:101CC000F0EE410A104890ED0A1AB1EE411AB0EE5A
:101CD000410A114807F0BCFE0F4890ED050A0C4878
:101CE00080ED110A0C4890ED060A094880ED130AB0
:101CF00003A8002105230A46CDE90010084605F097
:101D00001DFF60E7E0000020D49800200000C842DA
:101D1000B4960020649C0020FC9C0020949D002030
:101D200010B52DED040B2DED0C8BAAB0B0EE618A31
:101D3000B0EE480A0CF00CFB8DED210AB0EE480A1B
:101D40000CF01EFCB1EE400A8DED220A9FEDE70A71
:101D50008DED230AB0EE480A0CF012FC8DED240A3A
:101D6000B0EE480A0CF0F4FA8DED250A9FEDDF0A7B
:101D70008DED260A9FEDDD0A8DED270A9FEDDB0A2A
:101D80008DED280AB7EE000A8DED290AD84A07CA58
:101D90001EAB07C3D64A0C3207CA1BAB07C318AA2F
:101DA0001EA921A804F014FB15AA1BA921A804F060
:101DB0000FFB9DED360A20EE000ADDED370A9DEDA2
:101DC000371A00EE810ADDED380A30EE200ADDED2B
:101DD000380A30EE200AB0EE409AB0EE490A0DF013
:101DE00089FA10B39FEDC30AB0EE409AB0EE490AEB
:101DF0000CF0CBFCDDED360A80EE801A8DED121A68
:101E0000B0EE490A0CF0C1FCDDED370A80EE801A15
:101E10008DED131AB0EE490A0CF0B7FCDDED380A6F
:101E200080EE801A8DED141A1DE0B0EE490A0CF018
:101E3000ACFCDDED360A80EE801A8DED121AB0EEA4
:101E4000490A0CF0A2FCDDED370A80EE801A8DED18
:101E5000131AB0EE490A0CF098FCDDED380A80EE5A
:101E6000801A8DED141A9DED160ADDED140A20EE90
:101E7000200ADDED170A9DED131A00EEC10A8DED63
:101E80000F0A9DED170ADDED120A20EE200ADDEDA6
:101E9000150A9DED141A00EEC10A8DED100A9DED94
:101EA000150ADDED130A20EE200ADDED160A9DED80
:101EB000121A00EEC10A8DED110A9DED174ADDEDF3
:101EC000163A9DED153ADDED1A2A9DED192ADDED44
:101ED000181A9DED111ADDED100A9DED0F0A00F0A4
:101EE00013F98DED0C0ACDED0D0A8DED0E1A9DED59
:101EF000130ADDED0E0A20EE200ADDED140A9DED39
:101F00000D1A00EEC10A8DED090A9DED140ADDEDF2
:101F10000C0A20EE200ADDED120A9DED0E1A00EEED
:101F2000C10A8DED0A0A9DED120ADDED0D0A20EEC3
:101F3000200ADDED130A9DED0C1A00EEC10A8DEDAD
:101F40000B0A9DED090A20EE000ADDED0A0A9DED5F
:101F50000A1A00EE810ADDED0B0A9DED0B1A00EE68
:101F6000810AF0EE408AB0EE680A0CF00EFCDDED5E
:101F7000090A80EE801A8DED091AB0EE680A0CF09D
:101F800004FCDDED0A0A80EE801A8DED0A1AB0EE2F
:101F9000680A0CF0FAFBDDED0B0A80EE801A8DED7D
:101FA0000B1A9DED0C0A8DED000A9DED090A8DEDD1
:101FB000010A9DED120A8DED020A9DED0D0A8DEDCF
:101FC000030A9DED0A0A8DED040A9DED130A8DEDBD
:101FD000050A9DED0E0A8DED060A9DED0B0A8DEDAD
:101FE000070A9DED140A8DED080A9DED080A10EE12
:101FF000101A08460FF032F841EC1B0B9DED070A52
:1020000010EE101A08460FF029F841EC1C0BB0EE48
:102010004B1AF0EE6B1AB0EE4C0AF0EE6C0A0CF0B4
:102020003BF8B0EE40AAF0EE60AA51EC1A0B0EF0AD
:102030004BFA09EE900A9FED301ADFED300AB0EE50
:10204000690A00F0CAF8DFED2E0A20EE200A2D48BA
:1020500080ED010ADDED070A60EEA00A9DED081A89
:10206000DDED081A41EE210AB0EE600A0CF08DFB9E
:1020700010EE104A20460EF0F1FF41EC1C0B9DEDD6
:10208000060A10EE101A08460EF0E8FF41EC1D0B90
:10209000B0EE4C1AF0EE6C1AB0EE4D0AF0EE6D0A8E
:1020A0000BF0FAFFB0EE40BAF0EE60BA51EC1B0B49
:1020B0000EF0FEF941EC1A0B0EF006FA09EE900A4A
:1020C0009FED0D1ADFED0D0AB0EE690A00F085F8FC
:1020D000B1EE400ADFED0A0A20EE200A094880ED41
:1020E000000A2AB0BDEC0C8B1FBD000000000000F0
:1020F00064130108CDCC4C3DCDCC4C3ECDCC4CBE78
:10210000333365429C97002000B52DED0A0B2DED71
:10211000028B83B005A807C88DE807009DED000A73
:1021200020EE000ADDED010A9DED011A00EE810AA4
:10213000DDED020A9DED021A00EE810AB0EE408A42
:10214000B0EE480A0DF0D6F8F0B1B0EE480A0CF047
:102150001CFBDDED000A80EE801A8DED001AB0EE5A
:10216000480A0CF012FBDDED010A80EE801A8DEDBD
:10217000011AB0EE480A0CF008FBDDED020A80EE11
:10218000801A8DED021A1DE0B0EE480A0CF0FDFA3F
:10219000DDED000A80EE801A8DED001AB0EE480ADF
:1021A0000CF0F3FADDED010A80EE801A8DED011AD4
:1021B000B0EE480A0CF0E9FADDED020A80EE801A72
:1021C0008DED021A9DED000ADDED010A9DED021A6A
:1021D00003B0BDEC028B0AB000BDF0EE401A11EE68
:1021E000900A20F00041C1F1FF41C90F31B130EE3A
:1021F000810AB6EE002A20EE020A7047F4EEE01AD9
:10220000F1EE10FA02D2B0EE600AF6E7F4EEC11A6F
:10221000F1EE10FA02DDB0EE410AEEE7B0EE610A2F
:10222000EBE710B504F03CFB0AF0ACFD04F04EFB0C
:1022300010BD10B504F034FB0AF0DEFD04F046FBDF
:1022400010BD000010B504F02BFB0B490B4800F04B
:1022500011F970B14FF02051084800F035F8002115
:10226000064800F04BF8012240F2266104480AF0CB
:10227000FAFC04F02BFB10BD00800028B86002407F
:102280000050004010B504F00BFB0B490B4800F068
:10229000F1F868B10A49094800F016F8002107482A
:1022A00000F02CF8012240F2266106480AF0DBFC1F
:1022B00004F00CFB10BD000000802020A064024050
:1022C00000002020001401400246094B9A4201D22E
:1022D000084801E00648103801F000531BB1064BD6
:1022E0000B40C36002E0044B0B408360704700006A
:1022F00010640240006002407D0F7D0F21B1026832
:1023000042F00102026003E0026822F00102026072
:1023100070470000016821F00101016000210160A7
:1023200041608160C1600161212141614A49884267
:1023300004D13D21484A103A91608CE04649183159
:10234000884205D14FF47461434A103A916082E0AB
:1023500041493031884205D14FF474113E4A103A58
:10236000916078E03C494831884205D14FF0746172
:10237000394A103A91606EE037496031884204D1A1
:102380003649354A103AD16065E0334978318842A0
:1023900004D13349304A103AD1605CE02E49903183
:1023A000884204D12F492C4A103AD16053E02A497F
:1023B000A831884205D14FF03D51274A103AD160EB
:1023C00049E02949884204D13D21274A083A116051
:1023D00041E025491831884205D14FF47461224A01
:1023E000083A116037E020493031884205D14FF476
:1023F00074111D4A083A11602DE01B49483188428A
:1024000005D14FF07461184A083A116023E016496B
:102410006031884204D11149134A121F11601AE039
:1024200011497831884204D10D490F4A121F1160B9
:1024300011E00D499031884204D10A490A4A121F1D
:10244000116008E00849A831884204D14FF03D519D
:10245000054A121F11607047106002403D000020C5
:10246000400F002000003D201064024001464868F3
:1024700080B2704770B50246002000240025124E3D
:10248000B24201D2114B01E00F4B103B104E0E40F7
:1024900036B11E2606EAD124166806EA040502E0D3
:1024A000566906F0800501F000560EB15C6800E048
:1024B0001C68084E344004EA010616B10DB1012033
:1024C00000E0002070BD0000106402400060024087
:1024D0003C0F3C0F7D0F7D0F10B501F080034BB119
:1024E00022B1436943F08003436103E0436923F071
:1024F0008003436180290BD02AB1036801F01E04D8
:102500002343036004E0036801F01E04A343036057
:1025100010BD000010B500220268134B1A40CC68B1
:102520000B6823434C6923438C692343CC692343C1
:102530000C6A23434C6A23438C6A23434C6B23432A
:102540008C6B23431A430260426922F00702D1E9EF
:102550000B3423431A4342610B6943604B68836029
:102560008B68C36010BD00003F801CF04160704765
:102570000FB47FB50898102841F08A809DF8240098
:102580005528F9D108A84079AA28F5D108A880795A
:10259000FF2874D1F748D0F8BC0000286FD108A8F4
:1025A000C079002857D1F44908709FEDF40AF44827
:1025B00080ED050A9FEDF10AF24880ED050A9FEDD6
:1025C000EF0AF14880ED050A9FEDEC0AEF4880ED37
:1025D000050A9FEDEA0AEE4880ED050A9FEDE70A3D
:1025E000EC4880ED050A9FEDE50AEB4880ED050A11
:1025F0009FEDE20AE94880ED050A9FEDE00AE84810
:1026000080ED050AB7EE000AE64880ED060A9FED68
:10261000DB0A80ED000A9FEDD90A80ED010A9FEDEB
:10262000D70A80ED020A9FEDD50A80ED100A9FEDD2
:10263000D30A80ED110A012008710720DA490870D9
:1026400009F052F80020CB49C1F8C40005200CF075
:102650008FFE01F01DB808A8C079012806D1052019
:10266000C549487001200870C870F2E708A8C07911
:102670000228EED10120C0498860EAE7FFE708A8F8
:10268000807901283BD1BC484078052837D0002408
:1026900006E0E01C09A9085C03A90855601CC4B247
:1026A000042CF6DB042103A801F0C2FBBD4880ED39
:1026B000000A002406E0E01D09A9085C03A90855EA
:1026C000601CC4B2042CF6DB042103A801F0B0FBAB
:1026D000B44880ED010A002407E004F10B0009A9C9
:1026E000085C03A90855601CC4B2042CF5DB042166
:1026F00003A801F09DFBAB4880ED020AA9E708A8FA
:102700008079022822D108A8C07906281CD2DFE8E7
:1027100000F003070B0F131700209749487014E0CF
:1027200001209549487010E00220934948700CE060
:1027300003209149487008E004208F49487004E064
:1027400005208D49487000E000BF82E708A8807925
:10275000032803D10120884988707AE708A8807986
:1027600004282CD1002406E0E01C09A9085C03A978
:102770000855601CC4B2042CF6DB042103A801F048
:1027800057FBF0EE000A80EE201A864880ED041A0E
:10279000002406E0E01D09A9085C03A90855601C97
:1027A000C4B2042CF6DB042103A801F041FBF0EED7
:1027B000000A80EE201A7B4880ED031A49E708A83A
:1027C0008079052838D108A8C179007A01EB00206A
:1027D00000B200EE100AB8EEC00AB1EE400A73482B
:1027E00080ED000A08A8417A807A01EB002000B24F
:1027F00000EE100AB8EEC00AB1EE400A6B4880ED58
:10280000010A08A8C17A007B01EB002000B200EEAB
:10281000100AB8EEC00A654880ED030A08A8417B9B
:10282000807B01EB002000B200EE100AB8EEC00A77
:102830005E4880ED020A0CE708A88079062884D05B
:1028400008A8807907282ED1002417E0002508E089
:10285000E81C00EB840109A8405C03A94855681CEA
:10286000C5B2042DF4DB042103A801F0E1FA6846A7
:1028700000EB840080ED000A601CC4B2032CE5DB91
:102880009DED000A4A4880ED000A9DED010A80EDA9
:10289000010A9DED020A80ED020A0AF0BBFF012049
:1028A00035498870D5E608A8807908282ED10024FB
:1028B00017E0002508E0E81C00EB840109A8405C53
:1028C00003A94855681CC5B2042DF4DB042103A8F4
:1028D00001F0AEFA684600EB840080ED000A601C4F
:1028E000C4B2032CE5DB9DED000A314880ED030AFC
:1028F0009DED010A80ED040A9DED020A80ED050AB6
:102900000AF088FF01201C498870A2E608A8807997
:1029100009284FD1002417E0002508E0E81C00EB4F
:10292000840109A8405C03A94855681CC5B2042D60
:10293000F4DB042103A801F07BFA684600EB840075
:1029400080ED000A601CC4B2032CE5DB9DED000A9B
:10295000174880ED060A9DED010A80ED070A9DEDFE
:10296000020A80ED080A0AF055FF0120024988702A
:102970006FE60000B4960020A4960020000000003E
:10298000389A0020589A0020B8990020D89A002040
:10299000789B0020989A0020B89A0020389B00204D
:1029A000589B00209C970020149800200498002039
:1029B000989B002008A880790A282ED1002417E0CF
:1029C000002508E0E81C00EB840109A8405C03A98D
:1029D0004855681CC5B2042DF4DB042103A801F09E
:1029E00027FA684600EB840080ED000A601CC4B240
:1029F000032CE5DB9DED000AFE4880ED180A9DEDF5
:102A0000010A80ED190A9DED020A80ED1A0A0AF00A
:102A100001FF0120F84988701BE608A880790B287F
:102A20002ED1002417E0002508E0E81C00EB84010B
:102A300009A8405C03A94855681CC5B2042DF4DB05
:102A4000042103A801F0F4F9684600EB840080ED4E
:102A5000000A601CC4B2032CE5DB9DED000AE548CA
:102A600080ED090A9DED010A80ED0A0A9DED020A3A
:102A700080ED0B0A0AF0CEFE0120DF498870E8E500
:102A800008A880790C282ED1002417E0002508E042
:102A9000E81C00EB840109A8405C03A94855681CA8
:102AA000C5B2042DF4DB042103A801F0C1F9684686
:102AB00000EB840080ED000A601CC4B2032CE5DB4F
:102AC0009DED000ACB4880ED0C0A9DED010A80EDDA
:102AD0000D0A9DED020A80ED0E0A0AF09BFE012010
:102AE000C5498870B5E508A880790D282ED1002445
:102AF00017E0002508E0E81C00EB840109A8405C11
:102B000003A94855681CC5B2042DF4DB042103A8B1
:102B100001F08EF9684600EB840080ED000A601C2D
:102B2000C4B2032CE5DB9DED000AB24880ED0F0A2C
:102B30009DED010A80ED100A9DED020A80ED110A5B
:102B40000AF068FE0120AC49887082E508A8807907
:102B50000E282ED1002417E0002508E0E81C00EB29
:102B6000840109A8405C03A94855681CC5B2042D1E
:102B7000F4DB042103A801F05BF9684600EB840054
:102B800080ED000A601CC4B2032CE5DB9DED000A59
:102B9000984880ED210A9DED010A80ED220A9DED05
:102BA000020A80ED230A0AF035FE0120924988705E
:102BB0004FE508A880790F282ED1002417E00025C2
:102BC00008E0E81C00EB840109A8405C03A9485513
:102BD000681CC5B2042DF4DB042103A801F028F918
:102BE000684600EB840080ED000A601CC4B2032C30
:102BF000E5DB9DED000A7F4880ED240A9DED010A8A
:102C000080ED250A9DED020A80ED260A0AF002FEFB
:102C10000120794988701CE508A8807912282ED1F6
:102C2000002417E0002508E0E81C00EB840109A857
:102C3000405C03A94855681CC5B2042DF4DB04218F
:102C400003A801F0F5F8684600EB840080ED000A67
:102C5000601CC4B2032CE5DB9DED000A654880EDE5
:102C6000120A9DED010A80ED130A9DED020A80ED26
:102C7000140A0AF0CFFD01205F498870E9E408A832
:102C8000807913282ED1002417E0002508E0E81CE5
:102C900000EB840109A8405C03A94855681CC5B233
:102CA000042DF4DB042103A801F0C2F8684600EB10
:102CB000840080ED000A601CC4B2032CE5DB9DEDAE
:102CC000000A4C4880ED150A9DED010A80ED160AB8
:102CD0009DED020A80ED170A0AF09CFD012046498D
:102CE0008870FAE308A8807914282ED1002417E010
:102CF000002508E0E81C00EB840109A8405C03A95A
:102D00004855681CC5B2042DF4DB042103A801F06A
:102D10008FF8684600EB840080ED000A601CC4B2A6
:102D2000032CE5DB9DED000A324880ED1B0A9DED8A
:102D3000010A80ED1C0A9DED020A80ED1D0A0AF0D1
:102D400069FD01202C498870C7E308A880791528FF
:102D50002ED1002417E0002508E0E81C00EB8401D8
:102D600009A8405C03A94855681CC5B2042DF4DBD2
:102D7000042103A801F05CF8684600EB840080EDB4
:102D8000000A601CC4B2032CE5DB9DED000A194863
:102D900080ED1E0A9DED010A80ED1F0A9DED020ADD
:102DA00080ED200A0AF036FD01201349887094E373
:102DB00008A88079162834D1002417E0002508E0FF
:102DC000E81C00EB840109A8405C03A94855681C75
:102DD000C5B2042DF4DB042103A801F029F86846EC
:102DE00000EB840080ED000A601CC4B2032CE5DB1C
:102DF00004E00000989B0020A49600209DED000AAE
:102E0000FE4880ED270A9DED010A80ED280A9DED20
:102E1000020A80ED290A0AF0FDFC0120F8498870B9
:102E20005BE308A8807917282ED1002417E000253D
:102E300008E0E81C00EB840109A8405C03A94855A0
:102E4000681CC5B2042DF4DB042103A800F0F0FFD8
:102E5000684600EB840080ED000A601CC4B2032CBD
:102E6000E5DB9DED000AE54880ED2D0A9DED010AA8
:102E700080ED2E0A9DED020A80ED2F0A0AF0CAFCB1
:102E80000120DF49887028E308A8807918282ED10E
:102E9000002417E0002508E0E81C00EB840109A8E5
:102EA000405C03A94855681CC5B2042DF4DB04211D
:102EB00003A800F0BDFF684600EB840080ED000A27
:102EC000601CC4B2032CE5DB9DED000ACB4880ED0D
:102ED0002A0A9DED010A80ED2B0A9DED020A80ED84
:102EE0002C0A0AF097FC0120C5498870D0E308A895
:102EF000807919282ED1002417E0002508E0E81C6D
:102F000000EB840109A8405C03A94855681CC5B2C0
:102F1000042DF4DB042103A800F08AFF684600EBCF
:102F2000840080ED000A601CC4B2032CE5DB9DED3B
:102F3000000AB24880ED300A9DED010A80ED310AA9
:102F40009DED020A80ED320A0AF064FC0120AC49D2
:102F500088709DE308A88079302814D1A94890EDA5
:102F6000290AA94880ED020AA64890ED2A0AA64837
:102F700080ED030AA34890ED2B0AA34880ED040AD4
:102F80000AF048FC84E308A88079322811D19D48D2
:102F900090ED000A9D4880ED000A9A4890ED010AE4
:102FA0009A4880ED010A0AF035FC012094498870A6
:102FB0006EE308A8807931287CD1002608A8C07962
:102FC000012879D13EE0701CC6B29149881D02F0FB
:102FD000B3FC8F48B0F9000000EE100AF8EEC00A0A
:102FE0009FED8C1A80EE810A8B48D0ED000A30EEFE
:102FF000200A80ED000A8648B0F9020000EE100AAF
:10300000F8EEC00A9FED831A80EE810A8348D0ED66
:10301000000A30EE200A80ED000A7D48B0F9040075
:1030200000EE100AF8EEC00A9FED7A1A80EE810ACF
:103030007B48D0ED000A30EE200A80ED000A042023
:103040000CF096F9642EBEDB7348D0ED000A9FEDBC
:10305000751A80EE810ADFED740A20EE200A7348AB
:1030600080ED000A6D48D0ED000A9FED6E1A80EEEB
:10307000810ADFED6D0A20EE200A6C4880ED010A1E
:103080006748D0ED000A9FED671A80EE810ADFEDF8
:10309000660A20EE200A654880ED020A9FED640A68
:1030A0005F4880ED000A5D4880ED000A5A4880EDD7
:1030B000000AD4E2D4E2FFE708A8C079022878D158
:1030C0003EE0701CC6B25249881D02F035FC5048E3
:1030D000B0F9000000EE100AF8EEC00A9FED4D1A9C
:1030E00080EE810A4C48D0ED000A30EE200A80EDD7
:1030F000000A4748B0F9020000EE100AF8EEC00AD4
:103100009FED441A80EE810A4448D0ED000A30EE6B
:10311000200A80ED000A3E48B0F9040000EE100AD3
:10312000F8EEC00A9FED3B1A80EE810A3C48D0EDD4
:10313000000A30EE200A80ED000A04200CF018F995
:10314000642EBEDB3448D0ED000A9FED361A80EEC7
:10315000810ADFED350A20EE200A344880ED0F0A9F
:103160002E48D0ED000A9FED2F1A80EE810ADFED88
:103170002E0A20EE200A2D4880ED100A2848D0EDB6
:10318000000A9FED281A80EE810ADFED270A20EE63
:10319000200A264880ED110A9FED250A204880ED7F
:1031A000000A1E4880ED000A1B4880ED000A56E226
:1031B000FFE708A8C07903287ED15BE0701CC6B287
:1031C0001349881D02F0B8FB1148B0F9000000EE69
:1031D000100AF8EEC00A9FED0F1A80EE810A0E4821
:1031E000D0ED000A30EE200A80ED000A0848B0F960
:1031F000020000EE100AF8EEC00A1BE0989B0020C7
:10320000A4960020B4960020A8980020D8000020A2
:10321000DCB8002000008045B8010020BC0100207F
:10322000C00100200000C842AEB61C4154B60020C8
:10323000000000001FED091A80EE810AFE48D0ED63
:10324000000A30EE200A80ED000AFC48B0F90400C4
:1032500000EE100AF8EEC00A1FED121A80EE810A85
:10326000F748D0ED000A30EE200A80ED000A042075
:103270000CF07EF8642EA1DBF248D0ED000A1FEDC1
:10328000171A80EE810A5FED180A20EE200AEE4838
:1032900080ED060AE848D0ED000A1FED1E1A80EE08
:1032A000810A5FED1F0A20EE200AE74880ED070A39
:1032B000E348D0ED000A00E016E01FED261A80EE8C
:1032C000810A5FED270A20EE200ADF4880ED080A18
:1032D0001FED290ADA4880ED000AD74880ED000A80
:1032E000D84880ED000ABAE108A8C079042878D14E
:1032F0003EE0701CC6B2D149881D02F01DFBCF48CC
:10330000B0F9000000EE100AF8EEC00A1FED3F1AF7
:1033100080EE810ACB48D0ED000A30EE200A80ED25
:10332000000AC648B0F9020000EE100AF8EEC00A22
:103330001FED481A80EE810ABF48D0ED000A30EE3A
:10334000200A80ED000ABD48B0F9040000EE100A22
:10335000F8EEC00A1FED511A80EE810AB848D0ED90
:10336000000A30EE200A80ED000A04200CF000F87C
:10337000642EBEDBB348D0ED000A1FED561A80EE76
:10338000810A5FED570A20EE200AAF4880ED030A5C
:10339000A94890ED000A5FED5D0A80EE201A1FED4E
:1033A0005E0A21EE000AA84880ED040AA448D0ED88
:1033B000000A1FED641A80EE810A5FED650A20EEB7
:1033C000200AA14880ED050A1FED670A9C4880EDA0
:1033D000000A994880ED000A9A4880ED000A3EE113
:1033E000FFE708A8C079052879D13EE0701CC6B275
:1033F0009249881D02F0A0FA9048B0F9000000EE52
:10340000100AF8EEC00A1FED7D1A80EE810A8D4881
:10341000D0ED000A30EE200A80ED000A8748B0F9AE
:10342000020000EE100AF8EEC00A1FED861A80EEC8
:10343000810A8148D0ED000A30EE200A80ED000AB2
:103440007E48B0F9040000EE100AF8EEC00A1FED45
:103450008F1A80EE810A7A48D0ED000A30EE200AF9
:1034600080ED000A04200BF083FF642EBEDB75485C
:10347000D0ED000A1FED951A80EE810A5FED960AE5
:1034800020EE200A704880ED090A6B48D0ED000A52
:103490001FED9C1A80EE810A5FED9D0A20EE200A46
:1034A000694880ED0A0A6648D0ED000A1FEDA31AAC
:1034B00080EE810A5FEDA40A20EE200A624880EDCA
:1034C0000B0A1FEDA50A5E4880ED000A5A4880ED00
:1034D000000A5C4880ED000AC1E0CDE0FFE708A8E3
:1034E000C079062878D13EE0701CC6B25349881DC9
:1034F00002F022FA5148B0F9000000EE100AF8EE8E
:10350000C00A1FEDBC1A80EE810A4E48D0ED000AB9
:1035100030EE200A80ED000A4848B0F9020000EEC3
:10352000100AF8EEC00A1FEDC51A80EE810A424863
:10353000D0ED000A30EE200A80ED000A3F48B0F9D5
:10354000040000EE100AF8EEC00A1FEDCE1A80EE5D
:10355000810A3B48D0ED000A30EE200A80ED000AD7
:1035600004200BF005FF642EBEDB3648D0ED000AC8
:103570001FEDD41A80EE810A5FEDD50A20EE200AF5
:10358000314880ED0C0A2C48D0ED000A1FEDDB1A03
:1035900080EE810A5FEDDC0A20EE200A2A4880EDE9
:1035A0000D0A2748D0ED000A1FEDE21A80EE810ACD
:1035B0005FEDE30A20EE200A234880ED0E0A1FED9E
:1035C000E40A1F4880ED000A1B4880ED000A1D48F0
:1035D00080ED000A43E0FFE708A8C079FF283ED14C
:1035E0001A4A1B491848FEF799F9194890ED000A44
:1035F000184880ED050A164890ED010A154880ED3F
:10360000060A134890ED020A124880ED070A0F4897
:1036100090ED000A0F4880ED080A0C4890ED010A71
:103620000C4880ED090A094890ED020A094880ED2E
:103630000A0A0AF0EFF80FE0BC010020DCB8002015
:10364000C0010020B801002054B60020A8010020CD
:10365000BCB60020A898002004200BF089FE17E0DB
:1036600008A88079332813D108A8C079012804D18B
:103670000949087001F0B2FA0AE008A8C0790228E6
:1036800006D100200449087001F060FA0AF0C2F87F
:103690007FBC5DF814FB0000A8980020FEB000BFBE
:1036A0007DAB012212A1164803F084FA1EE07DA82A
:1036B00000231A4619460090114803F0BBFA4FF454
:1036C000007210491048FCF74EFE0E48001F0068BB
:1036D0000D49091F08604FF4FA7210316846FCF773
:1036E00042FE0948001F0FC800F010F8DFE7000095
:1036F000446174614465616C5F70726F63000000C7
:103700003C9F0020FCAC0020DCA100200FB410B5D1
:10371000FEB08098102844D043480078012840D15A
:103720009DF8040255283CD080A84079AA2838D0BA
:103730004FF4007281A93D48FCF715FE3C48007823
:103740003C4908700FE03B48007839490978401A35
:103750003649085C3849374A127888543548007829
:10376000401C34490870324909788098084431492E
:1037700009788842E7D810203049086000202A499B
:1037800008702E482C4C1ECC001D1EC04FF4FA723F
:10379000011F6846FCF7E7FD28480FC8FEF7E8FE62
:1037A0003EE08098102826D89DF80402552822D1A2
:1037B0004FF4007281A92248FCF7D5FD00201D4975
:1037C00008700CE01E481B490978405C1A49194AE8
:1037D0001278885417480078401C1649087015491B
:1037E000097880988842EDD81149809808700120A6
:1037F0000D49087014E08098102811D19DF804023A
:1038000055280DD180A84079AA2809D14FF4FA7221
:1038100084A96846FCF7A7FD80A80FC8FEF7A8FE9C
:103820007EB010BC5DF814FBB6010020ACB60020E1
:10383000B5010020B4010020CCB80020C8B600209B
:103840009CB600207047000010B54FF48051154819
:1038500000F0C7FA80B901201349C1F8D400002054
:10386000C1F8D80005201149487001200870C870BF
:10387000000300F01DF814E04FF40051094800F077
:10388000B0FA70B900200849C1F8D4000120C1F88D
:10389000D80005200549487001200870400300F059
:1038A00007F810BD00040240B4960020A496002042
:1038B0000149086070470000143C014030B10749DD
:1038C000096841F48061054A116005E0034909680F
:1038D00021F48061014A116070470000003C024001
:1038E00070B504460A460026092502B909E0012AF6
:1038F00001D1160205E0022A01D1160201E04FF4BF
:10390000407600F09FF80546092D28D1154800683B
:1039100020F440701349086008460068304308608E
:103920000846006820F0F80008600846006844F087
:10393000020108430B4908600846006840F48030E3
:10394000086000F07FF805460648006820F0020095
:10395000044908600846006820F0F800086028461E
:1039600070BD0000103C024009201349096801F4B1
:103970008031B1F5803F01D101201CE00E4909687A
:1039800001F0100109B1062015E00B49096801F4A6
:10399000807109B102200EE00749096801F0EF01CA
:1039A00009B1072007E00449096801F0020109B1E3
:1039B000082000E0092070470C3C024003480068E2
:1039C00040F000400149086070470000103C024090
:1039D00030B502460C46092500F034F80546092D9D
:1039E00019D10E48006820F440700C490860084660
:1039F000006840F4007008600846006840F001006C
:103A00000860146000F01EF805460448006820F0C5
:103A1000010002490860284630BD0000103C024009
:103A20000548006800F0004028B1044802490C39FC
:103A30000860034808607047103C02402301674556
:103A4000AB89EFCD08B509200090FFF78DFF0090FE
:103A500002E0FFF789FF00909DF800000128F8D0F0
:103A60009DF8000008BD01B52DED020B6A4600214E
:103A700004E013780370521C401C491C0429F8D33D
:103A80000EBD00000FB410B52DED068B0024B7EE6F
:103A9000000AB0EE409A9FED700AF0EE409A9FED5A
:103AA0006F0AB0EE40AA9FED6D0AB0EE408A9DF815
:103AB0002400FE287ED108A840790A28FAD108A857
:103AC000407C5528F6D108A8807BF52873D108A83A
:103AD0008179C07901EB002000B26149088008A813
:103AE000017A407A01EB002000B25E49088008A804
:103AF000C07A000201B208A8807A084400EE100AD9
:103B0000B8EEC00ADFED580A80EE201AB0EE418A06
:103B1000564890ED0C0AB0EE409A55495548514A26
:103B2000B2F9002000EE102AB8EEC00A00F088FFBB
:103B3000514880ED070A51495148494AB2F90020DD
:103B400000EE102AB8EEC00A00F07AFFB1EE400A8B
:103B5000494880ED080A4548D0ED290AB0EE600AD0
:103B60004849494800F06CFFDFED480A20EE200A82
:103B7000DFED470A80EE201AF0EE41AAB8EE081AEF
:103B8000F0EE080AB0EE6A0A01F0C6F960EE298A82
:103B90003648D0ED2A0AB0EE600A3E493E4800F0B1
:103BA0004FFFDFED3A0A20EE200ADFED390A80EE02
:103BB000201A01E04AE040E0F0EE41AAB8EE081A0F
:103BC000F0EE080AB0EE6A0A01F0A6F920EE290A22
:103BD000B0EE40AA2548C0ED338A80ED34AA2648CD
:103BE00090ED070A30EE680A9FED2C1AC0EE010A2C
:103BF00080EE880A20EE090A80ED0B0A90ED080A93
:103C000070EE4A0A9FED251A80EE810AC0EE080A7E
:103C100020EE890A80ED0C0A90ED090AD0ED0B0A1E
:103C200000EE880A80ED090A90ED0A0AD0ED0C0A30
:103C300000EE880A80ED0A0A08E09FED080A0E48A7
:103C400080ED0B0A9FED050A80ED0C0ABDEC068B9A
:103C500010BC5DF814FB000000006643000000008B
:103C6000D0010020D201002000247449B496002025
:103C700068BA002080BA0020D4980020C8BA00207A
:103C8000E0BA002028BB002040BB0020DB0F4940E9
:103C90000000344388BB0020A0BB002000401C462D
:103CA000FEB000BF7DAB012212A1154802F082FFD9
:103CB0001EE07DA800231A4619460090104802F025
:103CC000B9FF4FF400720F490F48FCF74CFB0D4849
:103CD000001F00680C49091F08604FF4FA72103188
:103CE0006846FCF740FB0848001F0FC8FFF7CAFEF4
:103CF000DFE70000464C4F575F70726F63000000B3
:103D0000EC9E002018B40020909F0020F0B50A46D9
:103D100000210023002400BF3DE0012505FA01F346
:103D2000156805EA03049C4234D105684F00032658
:103D3000BE40B543056015794E00B5400668354371
:103D400005601579012D02D01579022D16D18568EF
:103D50004F000326BE40B543856055794E00B540FF
:103D6000866835438560456801268E40B5434560C9
:103D7000456896798E40B6B235434560C5684F00B8
:103D80000326BE40B543C560D5794E00B540C66830
:103D90003543C560491C1029BFD3F0BDF0B50023E1
:103DA00000244D07ED0E02FA05F3CE1000F12005B8
:103DB00055F826504E07F70E0F26BE40B543CF10DC
:103DC00000F1200646F82750CE1000F1200555F8E6
:103DD000265045EA0304CE1000F1200545F82640A0
:103DE000F0BD0246002013690B400BB1012000E03A
:103DF000002070474183704701837047084800885E
:103E000000EE900AF8EE600ADFED061A80EEA11AC5
:103E1000DFED050A61EE200AB0EE600A704700008F
:103E200014AA0020000080456CE7694100BFFEE74E
:103E300018B50246002003E0135C0DF80030401C6A
:103E40008842F9DB9DED000A18BD000010B500F0B6
:103E50003DFE64200BF08CFA01F02CFD64200BF089
:103E600087FA01F0E9FC64200BF082FA0A48F3EECD
:103E7000040A9FED0A0A07F0A3FE64200BF078FA0B
:103E80000748DFED080A9FED050A07F099FE642058
:103E90000BF06EFA10BD00007CA600200000FA4373
:103EA00094A600200000244210B52DED0A8BFE4898
:103EB00000F0F2FBFC4890ED050ADFEDFC0A20EE75
:103EC000200ADFEDFB0A80EE201AB0EE418A90ED69
:103ED000040ADFEDF60A20EE200ADFEDF50A80EE97
:103EE000201AF0EE418A90ED030ADFEDF00A20EE91
:103EF000200ADFEDEF0A80EE201AB0EE419A90ED35
:103F0000020AF0EE402A90ED010AB0EE402A90ED50
:103F1000000AF0EE401A9FEDE74ADFEDE63A9FED2A
:103F2000E53AB0EE481AF0EE680AB0EE490A01F040
:103F300099FDE14890ED000AE04880ED000AE04874
:103F400090ED000ADD4880ED010ADE4890ED000AA0
:103F5000DA4880ED020ADC4890ED000AD74880ED8F
:103F6000030A90ED000A20EE000AD84880ED000A0E
:103F7000D24890ED000AD0ED010A20EE200AD44884
:103F800080ED000ACD4890ED000AD0ED020A20EE47
:103F9000200AD04880ED000AC84890ED000AD0ED14
:103FA000030A20EE200ACC4880ED000AC34890EDB9
:103FB000010A20EE000AC94880ED000ABF4890EDD2
:103FC000010AD0ED020A20EE200AC54880ED000A61
:103FD000BA4890ED010AD0ED030A20EE200AC1484C
:103FE00080ED000AB54890ED020A20EE000ABE48B6
:103FF00080ED000AB14890ED020AD0ED030A20EEF0
:10400000200ABA4880ED000AAC4890ED030A20EE81
:10401000000AB74880ED000AAC4890ED000AAF48AE
:10402000D0ED000A30EE200AAF48D0ED000A30EEA5
:10403000600AAF48D0ED000A30EE600AAD4880ED6E
:10404000000AA74890ED000AA348D0ED000A30EE20
:10405000200AF0EE000A20EE200AA64880ED010AB0
:10406000A04890ED000A9B48D0ED000A30EE600AAF
:10407000F0EE000A20EE200A9E4880ED020A9848E1
:1040800090ED000A9448D0ED000A30EE600AF0EEA0
:10409000000A20EE200A974880ED030A8B4890ED35
:1040A000000A8E48D0ED000A30EE600A8E48D0ED4E
:1040B000000A30EE200A8E48D0ED000A30EE600A89
:1040C0008C4880ED040A894890ED000A8048D0EDC4
:1040D000000A30EE200AF0EE000A20EE200A8548A1
:1040E00080ED050A7F4890ED000A7A48D0ED000A7D
:1040F00030EE200AF0EE000A20EE200A7D4880ED26
:10410000060A7A4890ED000A7148D0ED000A30EEB8
:10411000600AF0EE000A20EE200A764880ED070AD9
:104120006A4890ED000A6D48D0ED000A30EE600A52
:104130006D48D0ED000A30EE600A6D48D0ED000AFF
:1041400030EE200A6B4880ED080A604890ED000AC6
:104150006248D0ED000A30EE200A6348D0ED000A34
:1041600030EE600A6248D0ED000A30EE600A4E4838
:10417000D0ED000A20EE200A5948D0ED000A56483A
:1041800090ED001A70EEC10AB0EE001A60EE810ADE
:10419000454890ED011A00EE810A5248D0ED000A20
:1041A0004C4890ED001A70EE810AB0EE001A60EEF5
:1041B000810A3D4890ED021A00EE810A4E4880EDDA
:1041C000090A474890ED000A4348D0ED000A30EE56
:1041D000200AF0EE000A20EE200A3348D0ED000A53
:1041E00020EE200A3948D0ED000A3C4890ED001A34
:1041F00070EEC10A3C4890ED001A70EE810A3C480E
:1042000090ED001A70EEC10A274890ED011A00EEF9
:10421000810A3648D0ED000A2D4890ED001A70EE64
:10422000C10AB0EE001A60EE810A1F4890ED021A32
:1042300000EE810A304880ED0A0A2A4890ED000A13
:104240002448D0ED000A30EE600AF0EE000A20EEBD
:10425000200A1548D0ED000A20EE200A2348D0EDB0
:10426000000A1B4890ED001A70EE810AB0EE001AA9
:1042700060EE810A0C4890ED011A00EE810A1348A5
:10428000D0ED000A154890ED001A70EEC10A1648EC
:1042900090ED001A70EEC10A154890ED001A70EE0C
:1042A000810A01482AE00000F4A70020DB0F494002
:1042B0000000344300000000DC010020E4A70020DF
:1042C000E0010020E4010020E801002004010020BA
:1042D000080100200C010020100100201401002022
:1042E000180100201C0100202001002024010020D2
:1042F000280100209CA70020B496002090ED021A0F
:1043000000EE810ADFEDD20A30EE600AD14880ED7E
:104310000B0AD14890ED000AD048D0ED000A30EEEB
:10432000200ACF48D0ED000A30EE600ACD48D0ED2B
:10433000000A30EE600AC748D0ED090A20EE200AD4
:10434000C948D0ED000AC94890ED001A70EE810A04
:10435000B0EE001A60EE810ABE4890ED0A1A00EE37
:10436000810AC348D0ED000AC24890ED001A70EEF1
:10437000C10AB0EE001A60EE810AB64890ED0B1A41
:1043800000EE810A80ED260AB74890ED000AB74892
:10439000D0ED000A30EE600AF0EE000A20EE200AAE
:1043A000AC48D0ED090A20EE200AAB48D0ED000A57
:1043B000AA4890ED001A70EEC10AA94890ED001AC3
:1043C00070EE810AA74890ED001A70EEC10AA1486C
:1043D00090ED0A1A00EE810AA748D0ED000AA7481E
:1043E00090ED001A70EE810AB0EE001A60EE810ABC
:1043F000984890ED0B1A00EE810A80ED270A9C4840
:1044000090ED000A9B48D0ED000A30EE200AF0EE55
:10441000000A20EE200A8F48D0ED090A20EE200A7B
:104420009548D0ED000A954890ED001A70EEC10A4B
:10443000B0EE001A60EE810A864890ED0A1A00EE8E
:10444000810A8548D0ED000A844890ED001A70EE8C
:10445000C10A834890ED001A70EEC10A814890EDC0
:10446000001A70EE810A7B4890ED0B1A00EE810A6B
:1044700080ED280A824890ED030ADFED820A80EE83
:10448000201A744880ED071A7D4890ED040ADFED8C
:104490007D0A80EE201A6F4880ED061A784890ED6C
:1044A000050ADFED780A80EE201A6A4880ED081AC6
:1044B000734890ED060A674880ED2C0A704890ED2D
:1044C000070A644880ED2D0A6D4890ED080A61489E
:1044D00080ED2E0A614890ED000A6148D0ED000A97
:1044E00070EE200AB7EE000AB0EE001A01EE600A84
:1044F00010EE101A08460CF0B1FD41EC1B0B5F48A2
:1045000090ED000A5C48D0ED000A30EE200AF0EE93
:10451000000A20EE200A10EE101A08460CF09EFD4C
:1045200041EC1C0BB0EE4B1AF0EE6B1AB0EE4C0ADD
:10453000F0EE6C0A09F0B0FDB0EE40AAF0EE60AA11
:104540009FED510B53EC102B51EC1A0B0CF090FA21
:1045500041EC190B9FED4E0B53EC102B0CF09AF81D
:1045600041EC180B0BF0B0FF3A4948604148D0EDE0
:10457000000A3F4890ED001A70EEC10AB0EE001A32
:1045800060EE810AB0EE600A0BF00AF9B1EE400A63
:104590005FEDB90A20EE200A5FEDBC0A80EE201A1A
:1045A0002C4880ED001A2E4890ED000AF8EE000A23
:1045B00020EE200A2B48D0ED000AB0EE001A01EEE2
:1045C000600AF7EE000A30EE200A10EE101A0846D4
:1045D0000CF044FD41EC1B0B234890ED000AF0EE7B
:1045E000000A20EE200A2148D0ED000AB0EE001AA1
:1045F00001EE200A10EE101A08460CF02FFD41ECD7
:104600001C0BB0EE4B1AF0EE6B1AB0EE4C0AF0EE4B
:104610006C0A09F041FDB0EE40AAF0EE60AA9FEDF1
:104620001A0B53EC102B51EC1A0B0CF021FA41EC45
:10463000190B9FED170B53EC102B0CF02BF841ECE2
:10464000180B0BF041FF03498860BDEC0A8B10BDCD
:10465000AEB61C41B49600200401002014010020D5
:104660002001002028010020180100201001002056
:104670001C0100200C010020240100200801002062
:10468000F4A700203333654200000000008066403C
:1046900000000060FB21094010B586B0044604A864
:1046A00000F03EFB01A9881D01F046F9BDF90A00A2
:1046B00000EE100AB8EEC00ADFED780A80EE201A8C
:1046C000774880ED001ABDF90C0000EE100AB8EE34
:1046D000C00ADFED720A80EE201A714880ED011ADF
:1046E000BDF90E0000EE100AB8EEC00ADFED6B0A4D
:1046F00080EE201A6A4880ED021A90ED010A69489E
:1047000080ED290A664890ED000A664880ED2A0A85
:10471000634890ED020A634880ED2B0A6048D0EDB3
:10472000000AB0EE600A6049604800F089F984ED43
:10473000030A5B48D0ED010AB0EE600A5A495B48B3
:10474000183000F07DF984ED040A5548D0ED020AD6
:10475000B0EE600A54495548303000F071F984EDEC
:10476000050ABDF9040000EE100AB8EEC00ADFED3C
:10477000500A80EE201A9FED4F0A61EE000A4E4863
:1047800090ED081A90ED050A10EE810A4B4880ED75
:10479000000ABDF9060000EE100AF8EEC00A9FED0F
:1047A000441A80EE810ADFED430A60EE200A424897
:1047B00090ED091A90ED060A10EE810A3F4880ED4F
:1047C000010ABDF9080000EE100AF8EEC00A9FEDDC
:1047D000381A80EE810ADFED370A60EE200A36488B
:1047E00090ED0A1A90ED070A10EE810A334880ED29
:1047F000020AD0ED000AB0EE600A3149314800F0FB
:104800001FF984ED000A2D48D0ED010AB0EE600AD0
:104810002B492C48183000F013F984ED010A274881
:10482000D0ED020AB0EE600A25492648303000F08B
:1048300007F984ED020ABDF9100000EE100AB8EE87
:10484000C00ADFED210A80EE201AB1EE000A21EE47
:10485000000A84ED060ABDF9120000EE100AB8EE57
:10486000C00A9FED191AC0EE010AB1EE000A20EE4F
:10487000800A84ED070ABDF9140000EE100AF8EE74
:10488000C00A9FED111A80EE810AF1EE000A20EEB7
:10489000200A84ED080A06B010BD00006F128341A3
:1048A000D8A70020B496002094A600200CA70020D2
:1048B00000008045AEB61C41A8980020CCA700207F
:1048C0007CA60020C4A60020000000470EB500BF53
:1048D0000AE0FFF7E9FA02A8002102230A46CDE91F
:1048E0000010084603F02AF9F3E7000010B5534C16
:1048F00094ED000A80ED010A94ED010A80ED020AB0
:1049000094ED020A80ED030A94ED030A80ED040A97
:1049100094ED040ABCEEC00A10EE104A80F8344050
:10492000464C94ED050A80ED1D0A94ED050A80EDD4
:10493000210A94ED050A80ED250A94ED060A80ED22
:10494000000A94ED070A81ED010A94ED080A81ED51
:10495000020A94ED090A81ED030A94ED0A0A81ED39
:10496000040A94ED0B0ABCEEC00A10EE104A81F85E
:104970003440324C94ED0C0A81ED1D0A94ED0C0A82
:1049800081ED210A94ED0C0A81ED250A94ED0D0AC2
:1049900081ED000A94ED0E0A82ED010A94ED0F0AF2
:1049A00082ED020A94ED100A82ED030A94ED110AD9
:1049B00082ED040A94ED120ABCEEC00A10EE104A11
:1049C00082F834401D4C94ED130A82ED1D0A94EDDB
:1049D000130A82ED210A94ED130A82ED250A94ED63
:1049E000140A82ED000A94ED150A83ED010A94ED94
:1049F000160A83ED020A94ED170A83ED030A94ED7B
:104A0000180A83ED040A94ED190ABCEEC00A10EEF0
:104A1000104A83F83440094C94ED1A0A83ED1D0ABC
:104A200094ED1A0A83ED210A94ED1A0A83ED250A02
:104A300094ED1B0A83ED000A10BD00007C130108F1
:104A4000F0EE400AC0ED020A91ED030A90ED021A61
:104A500020EE010A91ED041AD0ED011A01EE210AAF
:104A600091ED051AD0ED001A01EE210A91ED011A1F
:104A7000D0ED041A01EE610A91ED021AD0ED031A8D
:104A800001EE610A80ED050A90ED010A80ED000A51
:104A900090ED020A80ED010A90ED040A80ED030A10
:104AA00090ED050A80ED040A90ED050A7047034673
:104AB0000022002103E033F911000244491C0A29B5
:104AC000F9DB0A2092FBF0F210B270471CB500210E
:104AD00021200BF0D9FC002120200BF0D5FC0A206E
:104AE0000AF046FC402121200BF0CEFC972120202B
:104AF0000BF0CAFC742124200BF0C6FC20212520D9
:104B00000BF0C2FC002126200BF0BEFC0A200AF0AC
:104B10002FFC002406E0684600F0A4F8684600F088
:104B2000FFF8641C0A2CF6DB1CBD0000024A127858
:104B300020F812107047000032010020024A12785B
:104B400020F812107047000033010020002018499F
:104B500008701849B1F90010174AB2F900208818F6
:104B600000EBD071491009B2144A5180144A1180E7
:104B70001449B1F90010144AB2F90020881800EB6A
:104B8000D071491009B20D4A9180104A1180104924
:104B9000B1F900100F4AB2F90020881800EBD0716B
:104BA000491009B2054AD1800B4A118070470000B4
:104BB000540100204E01002048010020A898002048
:104BC00034010020500100204A010020360100205D
:104BD000520100204C01002038010020012014491E
:104BE00008704EF2C0001349088013490880134929
:104BF00008804FF4FA50124908801249088012497F
:104C00000880002011490880114908801149088056
:104C1000B7EE000A104880ED000AB7EE000A0F4810
:104C200080ED000AB7EE000A0D4880ED000A7047DB
:104C300054010020480100204A0100204C010020BE
:104C40004E010020500100205201002034010020BC
:104C500036010020380100203C01002040010020E6
:104C6000440100201FB504464FF400412948FFF7D6
:104C7000C1F802AA0621682006F0DAFD4FF40041CF
:104C80002448FFF7B9F89DF808009DF8091040EA9C
:104C90000120404200B2ADF800009DF80A009DF8E6
:104CA0000B1040EA0120404200B2ADF802009DF82E
:104CB0000C009DF80D1040EA012000B2ADF8040090
:104CC000BDF900101448FFF731FFBDF9021012487A
:104CD0001430FFF72BFFBDF904100F482830FFF701
:104CE00025FF0E480078401C0A2190FBF1F201FBE1
:104CF00012000A4908700848FFF7D9FE20800648CC
:104D00001430FFF7D4FE608003482830FFF7CFFE51
:104D1000A0801FBD0004024018A80020320100201E
:104D20001FB504464FF400416848FFF763F802AA34
:104D30000621482006F07CFD4FF400416348FFF750
:104D40005BF89DF808009DF8091040EA01204042F8
:104D500000B2ADF800009DF80A009DF80B1040EA83
:104D60000120404200B2ADF802009DF80C009DF811
:104D70000D1040EA012000B2ADF80400BDF90010AA
:104D80005348FFF7DBFEBDF9021051481430FFF71E
:104D9000D5FEBDF904104E482830FFF7CFFE4D4830
:104DA0000078401C0A2190FBF1F201FB12004949F6
:104DB00008704748FFF77BFE4749B1F90010401AD9
:104DC00000EE100AB8EEC00A4448D0ED000A20EE0A
:104DD000200ABDEEC00A10EE100A00B220803C4846
:104DE0001430FFF764FE3E49B1F90010401A00EE9E
:104DF000100AB8EEC00A3B48D0ED000A20EE200AA7
:104E0000BDEEC00A10EE100A00B2608030482830B3
:104E1000FFF74DFE3449B1F90010401A00EE100AB8
:104E2000B8EEC00A3148D0ED000A20EE200ABDEEEF
:104E3000C00A10EE100A00B2A08020882C49088019
:104E400060882C490880A0882B4908802B4800786E
:104E5000D8B3B4F900002A49B1F90010884202DA47
:104E6000208827490880B4F902002649B1F90010CA
:104E7000884202DA608823490880B4F90400224994
:104E8000B1F90010884202DAA0881F490880B4F9FD
:104E900000001E49B1F90010884202DD20881B493C
:104EA0000880B4F902001A49B1F90010884202DD05
:104EB000608817490880B4F904001649B1F9001058
:104EC000884202DDA088134908801FBD000402400B
:104ED00054A8002033010020340100203C010020B0
:104EE000360100204001002038010020440100204C
:104EF0002C0100202E010020300100205401002050
:104F00004E010020500100205201002048010020E5
:104F10004A0100204C010020B4EEE00AF1EE10FA44
:104F200001DDB0EE600AB4EEC10AF1EE10FA01D272
:104F3000B0EE410A7047000010B5FE4C4FF4C2724B
:104F40002146FD4806F00CFD20460068FB498842DA
:104F50007ED1204690ED010AF94880ED000A2046F6
:104F600090ED020AF64880ED010A204690ED030A12
:104F7000F34880ED020A204690ED040AF04880EDE7
:104F8000030A204690ED050AED4880ED040A20460C
:104F900090ED060AEA4880ED050A204690ED070AE2
:104FA000E74880ED060A204690ED080AE44880EDC7
:104FB000070A204690ED090AE14880ED080A2046DC
:104FC00090ED0A0ADE4880ED090A204690ED0B0AB2
:104FD000DB4880ED0A0A204690ED0C0AD84880EDA7
:104FE0000B0A204690ED0D0AD54880ED0C0A2046AC
:104FF00090ED0E0AD24880ED0D0A204690ED0F0A82
:10500000CF4880ED0E0A204690ED100ACC4880ED86
:105010000F0A204690ED110AC94880ED100A20467B
:1050200090ED120AC64880ED110A204690ED130A51
:10503000C34880ED120A204690ED140AC04880ED66
:10504000130A204690ED150ABD4880ED140A00E0D1
:105050008DE1204690ED160AB94880ED150A2046EC
:1050600090ED170AB64880ED160A204690ED180A12
:10507000B34880ED170A204690ED190AB04880ED3C
:10508000180A204690ED1A0AAD4880ED190A20460C
:1050900090ED1B0AAA4880ED1A0A204690ED1C0AE2
:1050A000A74880ED1B0A204690ED1D0AA44880ED1C
:1050B0001C0A204690ED1E0AA14880ED1D0A2046DC
:1050C00090ED1F0A9E4880ED1E0A204690ED200AB2
:1050D0009B4880ED1F0A204690ED210A984880EDFC
:1050E000200A204690ED220A954880ED210A2046AC
:1050F00090ED230A924880ED220A204690ED240A82
:105100008F4880ED230A204690ED250A8C4880EDDB
:10511000240A204690ED260A894880ED250A20467B
:1051200090ED270A864880ED260A204690ED280A51
:10513000834880ED270A204690ED290A804880EDBB
:10514000280A204690ED2A0A7D4880ED290A20464B
:1051500090ED2B0A7A4880ED2A0A204690ED2C0A21
:10516000774880ED2B0A204690ED2D0A744880ED9B
:105170002C0A204690ED2E0A714880ED2D0A20461B
:1051800090ED2F0A6E4880ED2E0A204690ED300AF1
:105190006B4880ED2F0A204690ED310A684880ED7B
:1051A000300A204690ED320A654880ED310A2046EB
:1051B00090ED330A624880ED320A2046B0F8DA00FA
:1051C000604948802046B0F8DC0088802046B0F86E
:1051D000DE00C880204690ED380A084680ED020ABD
:1051E000204690ED390A084680ED030A204690EDEE
:1051F0003A0A084680ED040A204690ED3B0A08462C
:1052000080ED050A204690ED3C0A084680ED060A2E
:10521000204690ED3D0A084680ED070A204690EDB5
:105220003E0A084680ED080A204690ED3F0A0846EF
:1052300080ED090A204690ED400A084680ED0A0AF2
:105240002046D0F82401404908622046D0F82801C1
:105250004862096A3C4A526A881800EBD0714910CA
:10526000394A91622046D0F830011146C862204682
:10527000D0F834010863C96A126B881800EBD0714A
:105280004910314A51632046D0F83C0111468863E9
:105290002046D0F84001C863896BD26B881800EBB8
:1052A000D0714910284A11642046D0F848011146AF
:1052B00048642046D0F84C018864496C926C881888
:1052C00000EBD0714910204AD1642046D0F8540137
:1052D000114608652046D0F858014865096D526DA1
:1052E000881800EBD0714910174A91652046D0F814
:1052F00060011146C8652046D0F864010866C96D92
:10530000126E881800EBD07149100F4A5166204682
:10531000D0F86C01114688662046D0F87001C86646
:10532000896ED26E881800EBD0714910064A116759
:1053300020460BE090A8002004000E08A55A5AA5AC
:10534000989B0020A898002028980020D0F8780189
:10535000114648672046D0F87C018867496F926FF4
:10536000881800EBD0714910FE4AD16762E2FE480E
:10537000FE4908609FEDFE0A084680ED010AFD48DF
:1053800080ED000A9FEDFC0A084680ED020AF9480C
:1053900080ED010A9FEDF80A084680ED030AF54802
:1053A00080ED020A9FEDF50A084680ED040AF148F7
:1053B00080ED030A9FEDF00A084680ED050AED48EE
:1053C00080ED040A9FEDEC0A084680ED060AE948E4
:1053D00080ED050A9FEDEA0A084680ED070AE548D8
:1053E00080ED060A9FEDE40A084680ED080AE148D0
:1053F00080ED070A9FEDE00A084680ED090ADD48C6
:1054000080ED080A9FEDDF0A084680ED0A0AD948B8
:1054100080ED090AB0EE000A084680ED0B0AD54877
:1054200080ED0A0AB2EE000A084680ED0C0AD14867
:1054300080ED0B0A9FEDD30A084680ED0D0ACD489A
:1054400080ED0C0AB0EE000A084680ED0E0AC9484D
:1054500080ED0D0AB2EE000A084680ED0F0AC5483D
:1054600080ED0E0A9FEDC80A084680ED100AC1487B
:1054700080ED0F0A9FEDC50A084680ED110ABD4870
:1054800080ED100AB0EE000A084680ED120AB94815
:1054900080ED110A9FEDBE0A084680ED130AB5485B
:1054A00080ED120A9FEDB40A084680ED140AB14857
:1054B00080ED130A9FEDB00A084680ED150AAD484D
:1054C00080ED140A9FEDB20A084680ED160AA9483D
:1054D00080ED150A9FEDA80A084680ED170AA54839
:1054E00080ED160A9FEDA40A084680ED180AA1482F
:1054F00080ED170A9FEDA70A084680ED190A9D481E
:1055000080ED180A9FED9C0A084680ED1A0A99481A
:1055100080ED190A9FED980A084680ED1B0A954810
:1055200080ED1A0ABBEE010A084680ED1C0A91487C
:1055300080ED1B0A9FED980A084680ED1D0A8D48F4
:1055400080ED1C0A9FED8C0A084680ED1E0A8948F2
:1055500080ED1D0ABBEE010A084680ED1F0A854852
:1055600080ED1E0A9FED8C0A084680ED200A8148D6
:1055700080ED1F0A9FED800A084680ED210A7D48D4
:1055800080ED200AB1EE080A084680ED220A79482B
:1055900080ED210A9FED810A084680ED230A7548B7
:1055A00080ED220A9FED740A084680ED240A7148B6
:1055B00080ED230AB0EE040A084680ED250A6D4806
:1055C00080ED240A9FED750A084680ED260A694899
:1055D00080ED250A9FED680A084680ED270A654898
:1055E00080ED260A9FED6E0A084680ED280A614884
:1055F00080ED270A9FED600A084680ED290A5D4884
:1056000080ED280A9FED5C0A084680ED2A0A594879
:1056100080ED290A9FED620A084680ED2B0A554865
:1056200080ED2A0A9FED540A084680ED2C0A514865
:1056300080ED2B0A9FED500A084680ED2D0A4D485B
:1056400080ED2C0ABAEE0C0A084680ED2E0A494875
:1056500080ED2D0A9FED530A084680ED2F0A45483C
:1056600080ED2E0A9FED4A0A084680ED300A414837
:1056700080ED2F0ABAEE0C0A084680ED310A3D484B
:1056800080ED300A9FED470A084680ED320A39481E
:1056900080ED310A9FED3E0A084680ED330A354819
:1056A00080ED320A00213148A0F8DA103E484180EE
:1056B0002E48A0F8DC103C4881802C48A0F8DE1071
:1056C0003948C1809FED2C0A284880ED380A3648B9
:1056D00080ED020A9FED280A244880ED390A3248FD
:1056E00080ED030A9FED240A204880ED3A0A2E48F7
:1056F00080ED040A9FED200A1C4880ED3B0A2A48F1
:1057000080ED050A9FED1C0A184880ED3C0A2648EA
:1057100080ED060A9FED180A144880ED3D0A2248E4
:1057200080ED070AB7EE000A104880ED3E0A1E48D9
:1057300080ED080AB7EE000A0C4880ED3F0A1A48CF
:1057400080ED090AB7EE000A084880ED400A1648C5
:1057500080ED0A0A40F292700249086240F24C4021
:10576000486223E028980020A55A5AA590A8002056
:105770008FC275BD989B0020000000008FC2753D50
:105780008FC2F53C000020430000C842CDCC4C3E07
:105790009A9919BF3333733F0AD7A3BCCDCC4C3D84
:1057A000CDCCCCBECDCC4CBDA89800204FF4BE6073
:1057B000886240F29270C86240F24C4008634FF435
:1057C000BE60486340F29270886340F24C40C86308
:1057D0004FF4BE60086440F29270486440F24C405E
:1057E00088644FF4BE60C86440F29270086540F26D
:1057F0004C4048654FF4BE60886540F29270C865C1
:1058000040F24C4008664FF4BE60486640F2927029
:10581000886640F24C40C8664FF4BE60086740F2AC
:105820009270486740F24C4088674FF4BE60C8678A
:1058300007F0F0FF10BD00002DE9FF410024002516
:105840000026002018490880184908801849088057
:10585000002710E0C82009F0C5FD694602A800F045
:105860006BF8BDF908000444BDF90A000544BDF910
:105870000C0006447F1C41F288308742EAD394FB37
:10588000F0F000B20849088041F2883095FBF0F052
:1058900000B20649088041F2883096FBF0F000B271
:1058A00003490880BDE8FF81F0000020F2000020DD
:1058B000F400002010B580216B2000F0BDF814200A
:1058C00009F056FD0721682000F0B6F8142009F011
:1058D0004FFD03216B2000F0AFF8142009F048FDC4
:1058E0000021192000F0A8F8142009F041FD102132
:1058F0001C2000F0A1F8142009F03AFD04211D201D
:1059000000F09AF8142009F033FD18211B2000F054
:1059100093F8142009F02CFD03211A2000F08CF8D4
:10592000142009F025FD00216C2000F085F81420DA
:1059300009F01EFD10BD000070B505460C464FF481
:1059400080713248FEF756FA314A0E213B2005F0AD
:105950006FFF4FF480712D48FEF74EFA2C484078C7
:105960002B49097840EA012000B22A4908802848DA
:10597000C0782749897840EA012000B2264908808A
:10598000234840792249097940EA012000B223499D
:1059900008801F48407A1E49097A40EA012000B277
:1059A0001F4908801A48C07A1949897A40EA0120BB
:1059B00000B21C4908801648407B1549097B40EA23
:1059C000012000B218490880154800881749098845
:1059D000401A00B228801348008815490988401AE7
:1059E00000B268801048008812490988401A00B245
:1059F000A8800848B0F9000020800748B0F90000EE
:105A000060800648B0F90000A08070BD0008024028
:105A10006CA60020FC000020FE00002000010020F9
:105A2000F6000020F8000020FA000020F00000201E
:105A3000F2000020F400002070B505460C464FF43B
:105A400080710748FEF7D6F9284605F0D7FE2046B4
:105A500005F0D4FE4FF480710148FEF7CDF970BD1A
:105A60000008024000B52DED108B99B0B0EE40AAB1
:105A7000F0EE60AAB0EE41BAF0EE61CAF0EE42BAC2
:105A8000B0EE62CAF0EE439AB0EE638AF0EE448A5A
:105A9000F5EEC09AF1EE10FA1BD1B5EEC08AF1EE28
:105AA00010FA16D1F5EEC08AF1EE10FA11D1F0EE2F
:105AB0004C2AB0EE6B2AF0EE6C1AB0EE4B1AF0EEF8
:105AC0006A0AB0EE4A0A00F0DBFA19B0BDEC108B9E
:105AD00000BDF5EEC0CAF1EE10FA09D1F5EEC0BA7C
