:020000040800F2
:10000000000002209D5B0008494F0008514F000886
:10001000594F0008614F0008694F000800000000B8
:1000200000000000000000000000000021D60008D1
:10003000714F00080000000071D8000865B1000889
:10004000ED5B0008ED5B0008ED5B0008ED5B000870
:10005000ED5B0008ED5B0008ED5B0008ED5B000860
:10006000ED5B0008ED5B0008ED5B0008ED5B000850
:10007000ED5B0008ED5B0008ED5B0008ED5B000840
:10008000814F0008954F0008ED5B0008ED5B00080C
:10009000ED5B0008ED5B0008ED5B0008ED5B000820
:1000A000ED5B0008ED5B0008ED5B0008ED5B000810
:1000B000A94F0008BD4F0008D14F0008ED5B0008B4
:1000C000ED5B0008ED5B0008ED5B0008ED5B0008F0
:1000D000ED5B0008E54F0008F94F00080D500008DF
:1000E000ED5B0008ED5B0008ED5B0008ED5B0008D0
:1000F000ED5B000821500008ED5B0008ED5B000897
:10010000ED5B0008ED5B0008ED5B0008ED5B0008AF
:10011000ED5B0008ED5B0008ED5B0008ED5B00089F
:10012000ED5B0008ED5B0008ED5B0008ED5B00088F
:10013000ED5B0008ED5B0008ED5B0008ED5B00087F
:10014000ED5B0008ED5B0008ED5B0008ED5B00086F
:10015000ED5B0008ED5B0008ED5B00083550000822
:10016000ED5B0008ED5B0008ED5B0008ED5B00084F
:10017000ED5B0008ED5B0008ED5B0008000000008F
:08018000ED5B0008ED5B0008D7
:1001900010B5054C237833B9044B13B10448AFF3C1
:1001A00000800123237010BD702800200000000093
:1001B000C011020808B5034B1BB103490348AFF354
:1001C000008008BD0000000074280020C011020853
:1001D00010F8012B11F8013B012A28BF9A42F7D0F1
:1001E000D01A70470000000000000000000000006E
:1001F00001F0FF01102A2BDB10F0070F08D010F8D8
:10020000013B013A8B422DD010F0070F42B3F6D1DB
:10021000F0B441EA012141EA014122F007047FF0F4
:1002200000070023F0E80256083C85EA010586EA4B
:10023000010685FA47F5A3FA87F586FA47F6A5FA87
:1002400087F68EB9EED1F0BC01F0FF0102F0070293
:1002500032B110F8013B013A83EA010313B1F8D13E
:100260000020704701387047002D06BF354603381F
:10027000073815F0010F07D1013015F4807F02BF58
:10028000013015F4C03F0130F0BC0138704700BFA9
:10029000034613F8012B002AFBD1181A01387047C6
:1002A00081F0004102E000BF83F0004330B54FEA27
:1002B00041044FEA430594EA050F08BF90EA020F94
:1002C0001FBF54EA000C55EA020C7FEA645C7FEA27
:1002D000655C00F0E2804FEA5454D4EB5555B8BF4A
:1002E0006D420CDD2C4480EA020281EA030382EABB
:1002F000000083EA010180EA020281EA0303362D4D
:1003000088BF30BD11F0004F4FEA01314FF4801C1F
:100310004CEA113102D0404261EB410113F0004F31
:100320004FEA03334CEA133302D0524263EB4303E8
:1003300094EA050F00F0A780A4F10104D5F1200E86
:100340000DDB02FA0EFC22FA05F2801841F10001E1
:1003500003FA0EF2801843FA05F359410EE0A5F1B5
:1003600020050EF1200E012A03FA0EFC28BF4CF0E6
:10037000020C43FA05F3C01851EBE37101F000459C
:1003800007D54FF0000EDCF1000C7EEB00006EEBA9
:100390000101B1F5801F1BD3B1F5001F0CD3490833
:1003A0005FEA30004FEA3C0C04F101044FEA44528A
:1003B00012F5800F80F09A80BCF1004F08BF5FEA11
:1003C000500C50F1000041EB045141EA050130BDF1
:1003D0005FEA4C0C404141EB0101013C28BFB1F503
:1003E000801FE9D291F0000F04BF01460020B1FA4E
:1003F00081F308BF2033A3F10B03B3F120020CDA21
:100400000C3208DD02F1140CC2F10C0201FA0CF0FE
:1004100021FA02F10CE002F11402D8BFC2F1200C63
:1004200001FA02F120FA0CFCDCBF41EA0C01904019
:10043000E41AA2BF01EB0451294330BD6FEA040462
:100440001F3C1CDA0C340EDC04F11404C4F120024D
:1004500020FA04F001FA02F340EA030021FA04F35F
:1004600045EA030130BDC4F10C04C4F1200220FAB6
:1004700002F001FA04F340EA0300294630BD21FAF4
:1004800004F0294630BD94F0000F83F4801306BFBA
:1004900081F480110134013D4EE77FEA645C18BFAE
:1004A0007FEA655C29D094EA050F08BF90EA020F45
:1004B00005D054EA000C04BF1946104630BD91EA3D
:1004C000030F1EBF0021002030BD5FEA545C05D140
:1004D0004000494128BF41F0004130BD14F580047F
:1004E0003CBF01F5801130BD01F0004545F0FE41F3
:1004F00041F470014FF0000030BD7FEA645C1ABF28
:10050000194610467FEA655C1CBF0B46024650EA5E
:10051000013406BF52EA033591EA030F41F400218A
:1005200030BD00BF90F0000F04BF0021704730B510
:100530004FF4806404F132044FF000054FF00001E5
:1005400050E700BF90F0000F04BF0021704730B5A6
:100550004FF4806404F1320410F0004548BF40427B
:100560004FF000013EE700BF42004FEAE2014FEAD0
:1005700031014FEA02701FBF12F07F4393F07F4FAB
:1005800081F06051704732F07F4208BF704793F0AE
:100590007F4F04BF41F40021704730B54FF46074C1
:1005A00001F0004521F000411CE700BF50EA0102C4
:1005B00008BF704730B54FF000050AE050EA01026D
:1005C00008BF704730B511F0004502D5404261EBDD
:1005D00041014FF4806404F132045FEA915C3FF41E
:1005E000D8AE4FF003025FEADC0C18BF03325FEABB
:1005F000DC0C18BF033202EBDC02C2F1200300FA6C
:1006000003FC20FA02F001FA03FE40EA0E0021FA90
:1006100002F11444BDE600BF70B54FF0FF0C4CF47E
:10062000E06C1CEA11541DBF1CEA135594EA0C0F30
:1006300095EA0C0F00F0DEF82C4481EA030621EA6B
:100640004C5123EA4C5350EA013518BF52EA0335A6
:1006500041F4801143F4801338D0A0FB02CE4FF058
:100660000005E1FB02E506F00042E0FB03E54FF088
:100670000006E1FB03569CF0000F18BF4EF0010E80
:10068000A4F1FF04B6F5007F64F5407404D25FEA7C
:100690004E0E6D4146EB060642EAC62141EA55512F
:1006A0004FEAC52040EA5E504FEACE2EB4F1FD0C71
:1006B00088BFBCF5E06F1ED8BEF1004F08BF5FEAEF
:1006C000500E50F1000041EB045170BD06F00046A1
:1006D00046EA010140EA020081EA0301B4EB5C044E
:1006E000C2BFD4EB0C0541EA045170BD41F4801146
:1006F0004FF0000E013C00F3AB8014F1360FDEBF6B
:10070000002001F0004170BDC4F10004203C35DA46
:100710000C341BDC04F11404C4F1200500FA05F3C9
:1007200020FA04F001FA05F240EA020001F000426A
:1007300021F0004110EBD37021FA04F642EB0601E0
:100740005EEA430E08BF20EAD37070BDC4F10C040A
:10075000C4F1200500FA04F320FA05F001FA04F2CE
:1007600040EA020001F0004110EBD37041F10001BA
:100770005EEA430E08BF20EAD37070BDC4F12005C5
:1007800000FA05F24EEA020E20FA04F301FA05F22D
:1007900043EA020321FA04F001F0004121FA04F2D5
:1007A00020EA020000EBD3705EEA430E08BF20EAA5
:1007B000D37070BD94F0000F0FD101F000464000DF
:1007C00041EB010111F4801F08BF013CF7D041EA61
:1007D000060195F0000F18BF704703F00046520065
:1007E00043EB030313F4801F08BF013DF7D043EA36
:1007F0000603704794EA0C0F0CEA135518BF95EAEC
:100800000C0F0CD050EA410618BF52EA4306D1D172
:1008100081EA030101F000414FF0000070BD50EA91
:10082000410606BF1046194652EA430619D094EA1B
:100830000C0F02D150EA013613D195EA0C0F05D105
:1008400052EA03361CBF104619460AD181EA030159
:1008500001F0004141F0FE4141F470014FF0000011
:1008600070BD41F0FE4141F4780170BD70B54FF0AC
:10087000FF0C4CF4E06C1CEA11541DBF1CEA13552C
:1008800094EA0C0F95EA0C0F00F0A7F8A4EB05040E
:1008900081EA030E52EA03354FEA013100F0888005
:1008A0004FEA03334FF0805545EA131343EA1263CE
:1008B0004FEA022245EA111545EA10654FEA002683
:1008C0000EF000419D4208BF964244F1FD0404F53C
:1008D000407402D25B084FEA3202B61A65EB030598
:1008E0005B084FEA32024FF480104FF4002CB6EB55
:1008F000020E75EB030E22BFB61A754640EA0C00D5
:100900005B084FEA3202B6EB020E75EB030E22BF14
:10091000B61A754640EA5C005B084FEA3202B6EB55
:10092000020E75EB030E22BFB61A754640EA9C0014
:100930005B084FEA3202B6EB020E75EB030E22BFE4
:10094000B61A754640EADC0055EA060E18D04FEAA2
:10095000051545EA16754FEA06164FEAC30343EA42
:1009600052734FEAC2025FEA1C1CC0D111F4801F0F
:100970000BD141EA00014FF000004FF0004CB6E708
:1009800011F4801F04BF01430020B4F1FD0C88BFA7
:10099000BCF5E06F3FF6AFAEB5EB030C04BFB6EBB2
:1009A000020C5FEA500C50F1000041EB045170BDA5
:1009B0000EF0004E4EEA113114EB5C04C2BFD4EBD2
:1009C0000C0541EA045170BD41F480114FF0000E56
:1009D000013C90E645EA060E8DE60CEA135594EAD2
:1009E0000C0F08BF95EA0C0F3FF43BAF94EA0C0FD5
:1009F0000AD150EA01347FF434AF95EA0C0F7FF44A
:100A000025AF104619462CE795EA0C0F06D152EA9D
:100A100003353FF4FDAE1046194622E750EA410681
:100A200018BF52EA43067FF4C5AE50EA41047FF492
:100A30000DAF52EA43057FF4EBAE12E74FF0FF3CF7
:100A400006E000BF4FF0010C02E000BF4FF0010CC8
:100A50004DF804CD4FEA410C7FEA6C5C4FEA430C41
:100A600018BF7FEA6C5C1BD001B050EA410C0CBF90
:100A700052EA430C91EA030F02BF90EA020F0020F2
:100A8000704710F1000F91EA030F58BF994208BF59
:100A900090422CBFD8176FEAE37040F00100704716
:100AA0004FEA410C7FEA6C5C02D150EA013C07D16D
:100AB0004FEA430C7FEA6C5CD6D152EA033CD3D0B8
:100AC0005DF8040B704700BF8446104662468C46B2
:100AD0001946634600E000BF01B5FFF7B7FF0028E5
:100AE00048BF10F1000F01BD4DF808EDFFF7F4FF0E
:100AF0000CBF012000205DF808FB00BF4DF808ED99
:100B0000FFF7EAFF34BF012000205DF808FB00BFBB
:100B10004DF808EDFFF7E0FF94BF012000205DF8DD
:100B200008FB00BF4DF808EDFFF7CEFF94BF012092
:100B300000205DF808FB00BF4DF808EDFFF7C4FF8B
:100B400034BF012000205DF808FB00BF4FEA410CD4
:100B50007FEA6C5C02D150EA013C0AD14FEA430CB7
:100B60007FEA6C5C02D152EA033C02D14FF00000F4
:100B700070474FF0010070474FEA410212F5001232
:100B800015D211D56FF47873B3EB625212D94FEAD4
:100B9000C12343F0004343EA505311F0004F23FABE
:100BA00002F018BF404270474FF00000704750EA13
:100BB000013005D111F0004008BF6FF000407047D0
:100BC0004FF00000704700BF4FEA4102B2F1E0432E
:100BD00024BFB3F5001CDCF1FE5C0DD901F0004C24
:100BE0004FEAC0024CEA5070B2F1004F40EB830074
:100BF00008BF20F00100704711F0804F21D113F1A0
:100C00003872BCBF01F00040704741F480114FEAD8
:100C10005252C2F11802C2F1200C10FA0CF320FA61
:100C200002F018BF40F001004FEAC1234FEAD3237E
:100C300003FA0CFC40EA0C0023FA02F34FEA4303E8
:100C4000CCE77FEA625307D150EA01331EBF4FF071
:100C5000FE4040F44000704701F0004040F0FE408C
:100C600040F40000704700BF7BB972B90029BEBFD5
:100C700000204FF0004106E008BF00281CBF6FF0C5
:100C800000414FF0FF3000F0B5B9ADF1080C6DE94F
:100C900004CE002909DB002B1ADB00F04DF8DDF84B
:100CA00004E0DDE9022304B07047404261EB4101FA
:100CB000002B1BDB00F040F8DDF804E0DDE9022347
:100CC00004B0404261EB4101524263EB4303704781
:100CD000524263EB430300F02FF8DDF804E0DDE956
:100CE000022304B0404261EB41017047524263EB82
:100CF000430300F021F8DDF804E0DDE9022304B04D
:100D0000524263EB4303704753B94AB9002908BF05
:100D100000281CBF4FF0FF314FF0FF3000F06AB9E0
:100D2000ADF1080C6DE904CE00F006F8DDF804E042
:100D3000DDE9022304B070472DE9F047089D0C4619
:100D4000002B4ED194468C458646B2FA82F262D987
:100D50004AB1C2F12003914020FA03F30CFA02FCDD
:100D6000194300FA02FE4FEA1C471FFA8CF6B1FB4A
:100D7000F7F44FEA1E4307FB141143EA014304FB57
:100D800006F199420AD91CEB030304F1FF3080F00D
:100D90001281994240F20F81023C6344591A1FFAB2
:100DA0008EF3B1FBF7F007FB101143EA014300FBA0
:100DB00006F69E420AD91CEB030300F1FF3180F0D6
:100DC000FC809E4240F2F980634402389B1B40EA5B
:100DD000044000211DB1D3400022C5E90032BDE826
:100DE000F0878B4205D90DB1C5E900010021084605
:100DF000F5E7B3FA83F1002946D1A34202D390422A
:100E0000C0F0F080861A64EB03030120002DE6D0C9
:100E1000C5E90063E3E7002A40F09080A1EB0C04F1
:100E20004FEA1C481FFA8CF70121B4FBF8F64FEA91
:100E30001E4308FB164443EA044307FB06F09842AE
:100E400008D91CEB030306F1FF3402D2984200F2EA
:100E5000CD8026461C1A1FFA8EF3B4FBF8F008FB6F
:100E6000104443EA044300FB07F79F4208D91CEBF8
:100E7000030300F1FF3402D29F4200F2B08020460B
:100E8000DB1B40EA0640A5E7C1F120068B4022FAB1
:100E900006F71F4320FA06FC04FA01F343EA0C03A9
:100EA000F44000FA01F8380C4FEA1349B4FBF0FEA5
:100EB0001FFA87FC00FB1E4449EA04440EFB0CF9B0
:100EC000A14502FA01F20AD93C190EF1FF3A80F06D
:100ED0008480A14540F28180AEF1020E3C44A4EB37
:100EE00009041FFA83F9B4FBF0F300FB134449EA49
:100EF000044403FB0CFCA44507D93C1903F1FF3063
:100F000067D2A44565D9023B3C4443EA0E40A0FBAE
:100F10000293A4EB0C049C42CE469C4651D34ED087
:100F200055B1B8EB0E0364EB0C0404FA06F6CB40A3
:100F30001E43CC40C5E90064002150E7C2F1200304
:100F400020FA03F10CFA02FC24FA03F394400C4358
:100F50004FEA1C4800FA02FE1FFA8CF7B3FBF8F0C8
:100F600008FB1031230C43EA014300FB07F19942CF
:100F700008D91CEB030300F1FF362CD299422AD981
:100F8000023863445B1AA4B2B3FBF8F108FB1133D7
:100F900044EA034401FB07F3A34208D91CEB040411
:100FA00001F1FF3613D2A34211D902396444E41A85
:100FB00041EA004139E70446F0E6084606E7C8453D
:100FC000AED2B9EB020E63EB070C0138A8E731464D
:100FD000EDE7034699E73046D4E7D6467FE763441A
:100FE00002384DE70646234608460FE7023E6344B3
:100FF00030E700BF704700BF80B483B000AF7860B7
:101000000A2318460C37BD465DF8047B704780B54F
:1010100084B000AFF8600B4687ED010AC7ED000A07
:10102000FB72FB7A3033DAB2FB681A70FB6801336B
:101030007A681A60FB6805333A681A60F868FFF747
:10104000DBFF03461A46FB685A72FB6818461037E6
:10105000BD4680BD80B582B000AF0346FB711D4B1D
:101060001B785A1CD1B21B4A117019461A4AFB79D7
:101070005354194B1B78552B03D0164B00221A7072
:1010800025E0144B1B780A2B20D9134B5B78532B8C
:1010900012D0532B16DC512B02D0522B06D011E06C
:1010A00008220E490E481CF0E0FA0BE008220B491A
:1010B0000C481CF0DAFA05E0082208490A481CF03E
:1010C000D4FA00BF034B00221A7000E000BF0837BB
:1010D000BD4680BDF8280020FC280020FE28002006
:1010E000BC280020CC280020C428002080B400AFF9
:1010F000534BB3F9003007EE903AB8EEE77ADFEDE4
:10110000516AC7EE267AB3EE007A67EE877A4E4BC5
:10111000C3ED007A4A4BB3F9023007EE903AB8EECD
:10112000E77ADFED486AC7EE267AB3EE007A67EE1B
:10113000877A464BC3ED007A414BB3F9043007EE92
:10114000903AB8EEE77ADFED3F6AC7EE267AB3EE63
:10115000007A67EE877A3E4BC3ED007A3D4BB3F9D8
:10116000003007EE903AB8EEE77ADFED366AC7EE68
:10117000267A9FED397A67EE877A384BC3ED007A8D
:10118000344BB3F9023007EE903AB8EEE77ADFED70
:101190002D6AC7EE267A9FED307A67EE877A304B5C
:1011A000C3ED007A2B4BB3F9043007EE903AB8EE5A
:1011B000E77ADFED246AC7EE267A9FED277A67EE9D
:1011C000877A284BC3ED007A274BB3F9003007EE3E
:1011D000903AB8EEE77ADFED1B6AC7EE267A9FED0C
:1011E000237A67EE877A224BC3ED007A1E4BB3F960
:1011F000023007EE903AB8EEE77ADFED126AC7EEFA
:10120000267A9FED1A7A67EE877A1A4BC3ED007A39
:10121000154BB3F9043007EE903AB8EEE77ADFEDFC
:10122000096AC7EE267A9FED117A67EE877A124B2C
:10123000C3ED007A00BFBD465DF8047B704700BF78
:10124000BC28002000000047E0280020E4280020FF
:10125000E8280020CC2800200000FA44EC280020D8
:10126000F0280020F4280020C42800200000344387
:10127000D4280020D8280020DC28002080B584B0A5
:1012800000AF78607B685B6C03F00803002B0FD025
:101290000023FB607B681B681B68FB607B681B6826
:1012A0005B68FB60FB6801220349044808F07BFC93
:1012B00000BF1037BD4680BDB928002070830020D4
:1012C000B0B590B000AF87ED030AC7ED020A87ED15
:1012D000011A3860F868FFF747F94FF00002994BA0
:1012E000FFF79AF902460B4643EC172BB0EE470A7C
:1012F000F0EE670A1EF058F887ED0E0BF868FFF75E
:1013000033F94FF000028F4BFFF786F902460B4688
:1013100043EC172BB0EE470AF0EE670A1EF098F880
:1013200087ED0C0B7868FFF71FF94FF00002854B33
:10133000FFF772F902460B4643EC172BB0EE470A53
:10134000F0EE670A1EF030F887ED0A0B7868FFF7B9
:101350000BF94FF000027B4BFFF75EF902460B469C
:1013600043EC172BB0EE470AF0EE670A1EF070F858
:1013700087ED080BB868FFF7F7F84FF00002714BE4
:10138000FFF74AF902460B4643EC172BB0EE470A2B
:10139000F0EE670A1EF008F887ED060BB868FFF755
:1013A000E3F84FF00002674BFFF736F902460B46B1
:1013B00043EC172BB0EE470AF0EE670A1EF048F830
:1013C00087ED040BD7E90623D7E90A01FFF724F9D3
:1013D00002460B4610461946D7E90E23FFF71CF9C3
:1013E00002460B4614461D46D7E90423D7E90801F7
:1013F000FFF712F902460B4610461946D7E90C23AF
:10140000FFF70AF902460B4620462946FEF74EFF33
:1014100002460B4610461946FFF7D6FB02463B68CC
:101420001A60D7E90623D7E90A01FFF7F5F8024663
:101430000B4610461946D7E90C23FFF7EDF8024694
:101440000B4614461D46D7E90423D7E90801FFF7E8
:10145000E3F802460B4610461946D7E90E23FFF77C
:10146000DBF802460B4620462946FEF71DFF0246E2
:101470000B4610461946FFF7A7FB02463B685A6029
:10148000D7E90623D7E90801FFF7C6F802460B465D
:1014900010461946D7E90C23FFF7BEF802460B4663
:1014A00014461D46D7E90423D7E90A01FFF7B4F82B
:1014B00002460B4610461946D7E90E23FFF7ACF853
:1014C00002460B4620462946FEF7F0FE02460B4632
:1014D00010461946FFF778FB02463B689A60D7E949
:1014E0000623D7E90801FFF797F802460B46104696
:1014F0001946D7E90E23FFF78FF802460B4614462C
:101500001D46D7E90423D7E90A01FFF785F802460B
:101510000B4610461946D7E90C23FFF77DF8024623
:101520000B4620462946FEF7BFFE02460B461046F4
:101530001946FFF749FB02463B68DA6000BF4037B7
:10154000BD46B0BD0000E03F80B52DED028B82B0FE
:1015500000AF454B7B60454B93ED037A444BD3ED95
:10156000037A37EE277AF0EE006AC7EE267A414B0F
:10157000C3ED007A3E4B93ED037A3C4BD3ED037AF7
:1015800077EE677A17EE900AFEF7EEFF34A3D3E901
:101590000023FFF76BF902460B4610461946FFF78A
:1015A00013FB0346344A1360334B1B68334A136200
:1015B000304B1B68314AD361304B93ED027A2F4B8D
:1015C000D3ED086AD7ED017A66EEA77A77EE277A2F
:1015D0002A4BC3ED027A294BD3ED027AB0EE670AAB
:1015E00000F04EF8F0EE407A244BC3ED027A234B24
:1015F000D3ED077A97ED017A67EE277AC7ED007A87
:101600001E4B93ED008A1D4BD3ED027AB0EE670AB4
:101610001DF072FFB0EE407AD7ED007A67EE277AC0
:1016200078EE277A154BC3ED007A144B93ED018ABF
:10163000124BD3ED027AB0EE670A1DF0A1FFB0EEB7
:10164000407AD7ED007A67EE277A78EE277A0B4B4F
:10165000C3ED017A00BF0837BD46BDEC028B80BDEB
:101660003D0AD7A3703DCA3FCDCC4C3D242A002073
:101670003C2A00201C2A0020202A0020F8290020D3
:1016800080B582B000AF87ED010A7868FEF76CFF85
:1016900002460B469FED1C1B43EC102B1DF055FE24
:1016A00053EC102B10461946FFF78EFA03467B6069
:1016B000D7ED017A9FED167AF4EEC77AF1EE10FAC3
:1016C00008DDD7ED017A9FED137A77EEC77AC7ED83
:1016D000017A10E0D7ED017A9FED0F7AF4EEC77A28
:1016E000F1EE10FA07D5D7ED017A9FED0A7A77EE81
:1016F000877AC7ED017A7B6807EE903AB0EE670A09
:101700000837BD4680BD00BF00000000FA21194027
:10171000D00F4940D00FC940D00F49C080B500AFAD
:10172000074BD3ED027A0748B0EE671ADFED060AE1
:101730009FED050AFFF7C4FD014B184680BD00BFB1
:10174000F8290020042A00200000000080B500AF26
:10175000294806F0F1FF3C21284807F01BFA3C21FC
:10176000274807F017FA254B1B68DA68234B1B68DC
:1017700042F00102DA60224B1B68DA68204B1B68DA
:1017800042F00102DA601D4B1B6842F210725A628D
:101790001B4B1B6842F210725A621A4B00221A60ED
:1017A000184B1B68184A1360164B00225A60154BE1
:1017B0005B68154A5360134B00221A81114BB3F931
:1017C0000820114B1A810F4B4FF00002DA600D4BCD
:1017D000DB680D4AD3600B4B00221A75094B1A7D4A
:1017E000094B1A75074B4FF000021A61054B1B6934
:1017F000054A136100BF80BD08820020508200208E
:10180000988200203C2A0020242A002080B582B043
:1018100000AF78607B68002B04D1174B1B68002257
:101820005A6326E07B68002B0ADD00220121134861
:1018300005F0A0FD01220221104805F09BFD0FE0FC
:101840007B68002B0CDA7B685B427B600122012104
:101850000A4805F08FFD00220221084805F08AFDA4
:101860007B68632B01DD64237B60034B1B687A6814
:101870005A630837BD4680BDC08100200010024079
:1018800080B582B000AF78607B68002B04D1174B25
:101890001B6800229A6326E07B68002B0ADD002289
:1018A0000121134805F066FD01220221104805F0D0
:1018B00061FD0FE07B68002B0CDA7B685B427B608C
:1018C000012201210A4805F055FD002202210848A5
:1018D00005F050FD7B68632B01DD64237B60034BC7
:1018E0001B687A689A630837BD4680BDC0810020B6
:1018F0000008024080B582B000AFC82004F096FE18
:101900000023FB710023FB7108E0FB79074AD35CDD
:10191000184600F00DF8FB790133FB71FB79162BAB
:10192000F3D900BF00BF0837BD4680BD00000020CE
:1019300080B586B004AF0346FB714FF48073029309
:1019400001230193FB1D009301230022782103480A
:1019500005F06EFE00BF0837BD4680BD1C8100202B
:1019600080B586B004AF0346FB714FF480730293D9
:1019700001230193FB1D009301234022782103489A
:1019800005F056FE00BF0837BD4680BD1C81002013
:1019900080B582B000AF0023FB711BE0FB79503BA8
:1019A000DBB21846FFF7C4FF0020FFF7C1FF10208D
:1019B000FFF7BEFF0023BB7105E00020FFF7D0FF5B
:1019C000BB790133BB7197F90630002BF5DAFB794F
:1019D0000133FB71FB79072BE0D900BF00BF08374B
:1019E000BD4680BD80B582B000AF03460A46FB719C
:1019F0001346BB71BB79503BDBB21846FFF798FF2B
:101A0000FB791B09DBB243F01003DBB21846FFF78A
:101A10008FFFFB7903F00F03DBB21846FFF788FF57
:101A200000BF0837BD4680BD80B485B000AF034617
:101A30000A46FB711346BB710123FB6004E0FA798F
:101A4000FB6802FB03F3FB60BB795A1EBA71002BE3
:101A5000F5D1FB6818461437BD465DF8047B704726
:101A600090B585B000AF0446084611461A46234695
:101A7000FB710346BB710B467B7113463B71002320
:101A8000BB730023FB737B79203BBB7397F9073053
:101A9000002B04DA0023FB71BB790233BB713B7965
:101AA000102B54D1BA79FB7911461846FFF79AFFEB
:101AB0000023FB731BE097F82030002B0BD0BB7B7F
:101AC0001A01FB7B13443C4AD35CDB43DBB2184670
:101AD000FFF746FF08E0BB7B1A01FB7B1344364A45
:101AE000D35C1846FFF73CFFFB7B0133FB73FB7BAA
:101AF000072BE0D9BB790133DAB2FB7911461846DE
:101B0000FFF770FF0023FB731DE097F82030002BD8
:101B10000CD0BB7B1A01FB7B13440833264AD35CF1
:101B2000DB43DBB21846FFF71BFF09E0BB7B1A0162
:101B3000FB7B13440833204AD35C1846FFF710FFA1
:101B4000FB7B0133FB73FB7B072BDED92FE0BA79DC
:101B5000FB7911461846FFF745FF0023FB7323E08E
:101B600097F82030002B0FD0BA7BF97B134813462F
:101B70005B0013445B0003440B441B78DB43DBB284
:101B80001846FFF7EDFE0CE0BA7BF97B0B481346D5
:101B90005B0013445B0003440B441B781846FFF7BB
:101BA000DFFEFB7B0133FB73FB7B052BD8D900BF2A
:101BB0001437BD4690BD00BF1C240208F421020862
:101BC00090B587B002AF3A601A460346FB710B46E8
:101BD000BB7113467B710023FB732FE0FB7B3A68DC
:101BE00013441A787C79B979F87997F82030009302
:101BF0002346FFF735FF7B790C2B03D1FB790633A6
:101C0000FB7102E0FB790833FB71FB797A2B07D972
:101C10007B790C2B04D10023FB71BB790133BB71A1
:101C2000FB79782B07D97B79102B04D10023FB712A
:101C3000BB790133BB71FB7B0133FB73FB7B3A68E0
:101C400013441B78002BC9D100BF00BF1437BD4619
:101C500090BD000090B52DED028B89B002AF044617
:101C6000084687ED000A11461A462346FB710346D3
:101C7000BB710B467B7113463B710023BB75D7EDDF
:101C8000007AF5EEC07AF1EE10FA0AD57B790133CD
:101C90007B710123BB75D7ED007AF1EE677AC7ED52
:101CA000007AD7ED007AFDEEE77A17EE903A3B61C5
:101CB0000023FB7555E03C697A79FB7DD31ADBB2D2
:101CC000013BDBB219460A20FFF7AEFE0346B4FB28
:101CD000F3F1674BA3FB0123DA0813469B0013447F
:101CE0005B00CA1A1346FB727B7D002B1FD1FA7D65
:101CF0007B79013B9A421ADAFB7A002B15D197F8CF
:101D000030305B08DBB2FA7D12FB03F3DAB2FB7909
:101D10001344D8B297F83020B97997F8343000934B
:101D200013462022FFF79CFE18E001237B7597F8ED
:101D300030305B08DBB2FA7D12FB03F3DAB2FB79D9
:101D40001344D8B2FB7A3033DAB297F83040B9791D
:101D500097F8343000932346FFF782FEFB7D013372
:101D6000FB75FA7D7B799A42A5D397F830305B08F2
:101D7000DBB27A7912FB03F3DAB2FB791344D8B2FF
:101D800097F83020B97997F83430009313462E2213
:101D9000FFF766FE3B6907EE903AF8EEE77A97EDBB
:101DA000007A37EE678A3B7919460A20FFF73CFE36
:101DB00007EE900AF8EE677A68EE277AFDEEE77A8A
:101DC00017EE903AFB600023FB7537E0FC683A7928
:101DD000FB7DD31ADBB2013BDBB219460A20FFF7C9
:101DE00023FE0346B4FBF3F1214BA3FB0123DA08E6
:101DF00013469B0013445B00CA1A1346FB7297F804
:101E000030305B08DAB2F97D7B790B44DBB212FB30
:101E100003F3DAB2FB791344DBB20533D8B2FB7AB1
:101E20003033DAB297F83040B97997F8343000930C
:101E30002346FFF715FEFB7D0133FB75FA7D3B79E9
:101E40009A42C3D3BB7D012B0CD197F83020B979CE
:101E5000F87997F83430009313462D22FFF700FEEF
:101E60000023BB7500BF1C37BD46BDEC028B90BD87
:101E7000CDCCCCCC80B483B000AF7860034B184697
:101E80000C37BD465DF8047B704700BFCC010020D5
:101E900080B483B000AF7860084B1B7883F00103F7
:101EA000DBB2002B02D0054B01221A70044B1846FE
:101EB0000C37BD465DF8047B704700BF542A0020F4
:101EC000FC29020880B483B000AF7860034B184649
:101ED0000C37BD465DF8047B704700BF202A02081E
:101EE000B0B582B000AF78600D4B1B7883F0010372
:101EF000DBB2002B0FD00020FFF7E4FF0346094AB6
:101F000014461D460FCD0FC40FCD0FC42B682360A0
:101F1000034B01221A70044B18460837BD46B0BD6A
:101F2000552A0020582A0020442A020880B483B091
:101F300000AF78607B68002B01D1002300E0012313
:101F400018460C37BD465DF8047B704780B483B0FB
:101F500000AF78607B68002B0C37BD465DF8047BD2
:101F6000704780B582B000AF78600B46FB70786830
:101F7000FFF7DCFF00BF0837BD4680BD80B582B0EB
:101F800000AF78607868FFF7E1FF00BF0837BD4613
:101F900080BD000080B400AF064B1B68002B03D14E
:101FA000054B1B68034A1360024B1846BD465DF89B
:101FB000047B7047680200208C24002080B483B02A
:101FC00000AF7860034B18460C37BD465DF8047BC4
:101FD000704700BFD803002080B483B000AF7860A2
:101FE000084B1B7883F00103DBB2002B02D0054BBA
:101FF00001221A70044B18460C37BD465DF8047B6D
:10200000704700BF7C2A00206C2A020880B483B08D
:1020100000AF7860034B18460C37BD465DF8047B73
:10202000704700BF902A0208B0B582B000AF786058
:102030000D4B1B7883F00103DBB2002B0FD0002087
:10204000FFF7E4FF0346094A14461D460FCD0FC4AF
:102050000FCD0FC42B682360034B01221A70044B71
:1020600018460837BD46B0BD7D2A0020802A0020D2
:10207000B42A020880B483B000AF78607B68002B7C
:1020800001D1002300E0012318460C37BD465DF85E
:10209000047B704780B483B000AF78607B68002B0E
:1020A0000C37BD465DF8047B704780B582B000AF49
:1020B00078600B46FB707868FFF7DCFF00BF0837DD
:1020C000BD4680BD80B582B000AF78607868FFF70C
:1020D000E1FF00BF0837BD4680BD000080B400AFFF
:1020E000064B1B68002B03D1054B1B68034A13608A
:1020F000024B1846BD465DF8047B7047B0040020D3
:102100008C24002080B483B000AF7860034B184665
:102110000C37BD465DF8047B704700BF6C0600209D
:1021200080B582B000AF7860244B1B7883F0010348
:10213000DBB2002B3DD00020FFF740FF03462122F9
:1021400019461F481BF088F90346002B05D01D4B8C
:102150001D4A65211D4819F0B9FF0020FFF73CFF1B
:1021600002461B4B9B690C330C3207CA83E80700FD
:10217000002000F09FFA03462122194615481BF063
:102180006BF90346002B05D0134B0F4A67210F480C
:1021900019F09CFF002000F09BFA02460C4B9B6953
:1021A00018330C330C3207CA83E80700034B0122B3
:1021B0001A70074B18460837BD4680BDA42A002078
:1021C000DC2A02082C120208242B0208B012020892
:1021D000542B0208002B0208F412020880B483B0CA
:1021E00000AF7860034B18460C37BD465DF8047BA2
:1021F000704700BF782B0208B0B582B000AF78609E
:102200001B4B1B7883F00103DBB2002B2BD000208B
:10221000FFF7E4FF0346174A14461D460FCD0FC4CF
:102220000FCD0FC42B6823600020FFF7EFFE02469E
:10223000104B03F1240415460FCD0FC40FCD0FC46E
:102240002B682360002000F05DFA0246094B03F181
:10225000480415460FCD0FC40FCD0FC42B68236063
:10226000034B01221A70044B18460837BD46B0BD17
:10227000A52A0020A82A00209C2B020880B582B045
:1022800000AF78607B68002B01D100231FE07B68E2
:102290001846FFF7EFFE034683F00103DBB2002B85
:1022A00004D0786800F017F8002310E07B6818333A
:1022B000184600F05BFA034683F00103DBB2002B03
:1022C00004D0786800F007F8002300E001231846E6
:1022D0000837BD4680BD80B582B000AF78607B68AE
:1022E000002B09D07B681846FFF7D4FE7B681833B3
:1022F000184600F069FA00E000BF0837BD4680BD0F
:1023000080B582B000AF78600B46FB707868FFF74D
:10231000B5FF00BF0837BD4680BD80B582B000AFB5
:1023200078607868FFF7D7FF00BF0837BD4680BDEB
:1023300080B500AFFFF7D2FE0346094AD36000F034
:1023400067FA0346064A9364064B1B68002B03D1C9
:10235000054B1B68034A1360024B184680BD00BF43
:1023600090060020080700208C24002080B483B051
:1023700000AF7860034B18460C37BD465DF8047B10
:10238000704700BFD009002080B582B000AF7860F0
:10239000334B1B7883F00103DBB2002B5BD00020B2
:1023A000FFF70CFE0346212219462E481BF054F875
:1023B0000346002B05D02C4B2C4A71212C4819F0D8
:1023C00085FE0020FFF708FE02462A4B9B690C336E
:1023D0000C3207CA83E807000020FFF793FE03468C
:1023E0002122194624481BF037F80346002B05D05C
:1023F000224B1E4A73211E4819F068FE0020FFF789
:102400008FFE02461B4B9B6918330C330C3207CAF4
:1024100083E80700002000F04DF903462122194609
:1024200017481BF019F80346002B05D0154B0F4A2F
:1024300075210F4819F04AFE002000F049F90246C4
:102440000C4B9B6930330C330C3207CA83E807000E
:10245000034B01221A70074B18460837BD4680BD52
:10246000142B0020C42B0208B8130208302C0208D9
:102470003C140208702C0208E82B02089014020891
:102480000C2C02081415020880B483B000AF7860E9
:10249000034B18460C37BD465DF8047B704700BF00
:1024A000942C0208B0B582B000AF7860224B1B7844
:1024B00083F00103DBB2002B39D00020FFF7E4FFEB
:1024C00003461E4A14461D460FCD0FC40FCD0FC440
:1024D0002B6823600020FFF799FD0246174B03F19C
:1024E000240415460FCD0FC40FCD0FC42B682360F5
:1024F0000020FFF773FE0246104B03F14804154617
:102500000FCD0FC40FCD0FC42B682360002000F047
:10251000F9F80246094B03F16C0415460FCD0FC4C0
:102520000FCD0FC42B682360034B01221A70044B9C
:1025300018460837BD46B0BD152B0020182B0020CB
:10254000B82C020880B582B000AF78607B68002BA1
:1025500001D100230FE07B681846FFF78FFE03468A
:1025600083F00103DBB2002B04D0786800F007F899
:10257000002300E0012318460837BD4680BD80B522
:1025800082B000AF78607B68002B04D07B6818466F
:10259000FFF7A1FE00E000BF0837BD4680BD80B553
:1025A00082B000AF78600B46FB707868FFF7CAFF17
:1025B00000BF0837BD4680BD80B582B000AF7860EF
:1025C0007868FFF7DCFF00BF0837BD4680BD80B4E8
:1025D00083B000AF7860242318460C37BD465DF801
:1025E000047B704780B485B000AF786039607B6849
:1025F000FB603B68DB00FA68134418461437BD469D
:102600005DF8047B704780B485B000AF78603960B6
:102610007B68FB603B68DB00FA681344184614379C
:10262000BD465DF8047B704780B586B000AFF860AA
:10263000B9607A60B968F868FFF7D4FF78617B68A1
:102640003B617B69D3E900233969C1E9002300BFFD
:102650001837BD4680BD80B586B000AFF860B96060
:102660007A60B968F868FFF7CEFF78617B683B61F4
:102670003B69D3E900237969C1E9002300BF18371A
:10268000BD4680BD80B500AFFFF752FE0346064A47
:10269000D360064B1B68002B03D1054B1B68034A14
:1026A0001360024B184680BDF40900206C0A00201C
:1026B0008C24002080B483B000AF7860034B1846B0
:1026C0000C37BD465DF8047B704700BF600C0020EE
:1026D00080B483B000AF7860084B1B7883F00103AF
:1026E000DBB2002B02D0054B01221A70044B1846B6
:1026F0000C37BD465DF8047B704700BFA82B002057
:10270000E02C020880B483B000AF7860034B184619
:102710000C37BD465DF8047B704700BF042D0208EE
:10272000B0B582B000AF78600D4B1B7883F0010329
:10273000DBB2002B0FD00020FFF7E4FF0346094A6D
:1027400014461D460FCD0FC40FCD0FC42B68236058
:10275000034B01221A70044B18460837BD46B0BD22
:10276000A92B0020AC2B0020282D020880B483B0B8
:1027700000AF78607B68002B01D100231BE07968F3
:102780004FF000024FF00003C1E9002379684FF0D9
:1027900000024FF00003C1E9022379684FF0000204
:1027A0004FF00003C1E9042379684FF00002054BA4
:1027B000C1E90623012318460C37BD465DF8047BAA
:1027C000704700BF0000F03F80B483B000AF786076
:1027D0007B68002B0C37BD465DF8047B704780B5E5
:1027E00082B000AF78600B46FB707868FFF7BEFFE1
:1027F00000BF0837BD4680BD80B582B000AF7860AD
:102800007868FFF7E1FF00BF0837BD4680BD0000D4
:1028100080B400AF064B1B68002B03D1054B1B682F
:10282000034A1360024B1846BD465DF8047B7047AF
:10283000740D00208C24002080B483B000AF786039
:10284000034B18460C37BD465DF8047B704700BF4C
:10285000F00E002080B582B000AF7860154B1B7879
:1028600083F00103DBB2002B1FD0002000F05CFAE4
:1028700003462122194610481AF0EEFD0346002BAC
:1028800005D00E4B0E4A59210E4819F01FFC0020AE
:1028900000F058FA02460C4B9B690C330C3207CA05
:1028A00083E80700034B01221A70074B18460837CC
:1028B000BD4680BDD02B0020502D02081016020806
:1028C000742D020898160208A42D020880B483B063
:1028D00000AF7860034B18460C37BD465DF8047BAB
:1028E000704700BFC82D0208B0B582B000AF786055
:1028F000144B1B7883F00103DBB2002B1DD00020AA
:10290000FFF7E4FF0346104A14461D460FCD0FC4DF
:102910000FCD0FC42B682360002000F02DFA024673
:10292000094B03F1240415460FCD0FC40FCD0FC47E
:102930002B682360034B01221A70044B184608379A
:10294000BD46B0BDD12B0020D42B0020EC2D0208B9
:1029500080B582B000AF78607B68002B01D1002386
:102960001FE07B68184600F03BFA034683F0010342
:10297000DBB2002B04D0786800F017F8002310E0D9
:102980007B681833184600F02BFA034683F00103E6
:10299000DBB2002B04D0786800F007F8002300E0D9
:1029A000012318460837BD4680BD80B582B000AF10
:1029B00078607B68002B09D07B68184600F020FA0D
:1029C0007B681833184600F01BFA00E000BF083798
:1029D000BD4680BD80B582B000AF78600B46FB700D
:1029E0007868FFF7B5FF00BF0837BD4680BD80B5EA
:1029F00082B000AF78607868FFF7D7FF00BF083774
:102A0000BD4680BD80B500AF00F01EFA0346094AFE
:102A1000D36000F019FA0346064A9364064B1B681C
:102A2000002B03D1054B1B68034A1360024B184669
:102A300080BD00BF140F00208C0F00208C240020CC
:102A400080B483B000AF7860034B18460C37BD46A6
:102A50005DF8047B704700BF2412002080B582B06F
:102A600000AF7860244B1B7883F00103DBB2002BAE
:102A70003DD00020FFF7E0FE0346212219461F4803
:102A80001AF0EAFC0346002B05D01D4B1D4A6521B8
:102A90001D4819F01BFB0020FFF7DCFE02461B4B14
:102AA0009B690C330C3207CA83E80700002000F052
:102AB0003BF903462122194615481AF0CDFC03467E
:102AC000002B05D0134B0F4A67210F4819F0FEFA6F
:102AD000002000F037F902460C4B9B6918330C3389
:102AE0000C3207CA83E80700034B01221A70074B18
:102AF00018460837BD4680BD1C2C0020142E020845
:102B0000081702085C2E02088C1702089C2E020887
:102B1000382E0208E017020880B483B000AF786056
:102B2000034B18460C37BD465DF8047B704700BF69
:102B3000C02E0208B0B582B000AF78601B4B1B7886
:102B400083F00103DBB2002B2BD00020FFF7E4FF62
:102B50000346174A14461D460FCD0FC40FCD0FC4B0
:102B60002B6823600020FFF7B1FE0246104B03F1F3
:102B7000240415460FCD0FC40FCD0FC42B6823605E
:102B8000002000F0F9F80246094B03F1480415460D
:102B90000FCD0FC40FCD0FC42B682360034B012250
:102BA0001A70044B18460837BD46B0BD1D2C0020D6
:102BB000202C0020E42E020880B582B000AF78609F
:102BC0007B68002B01D100230FE07B681846FFF7DC
:102BD000BFFE034683F00103DBB2002B04D078680C
:102BE00000F007F8002300E0012318460837BD462F
:102BF00080BD80B582B000AF78607B68002B04D0C8
:102C00007B681846FFF7D1FE00E000BF0837BD46DD
:102C100080BD80B582B000AF78600B46FB707868ED
:102C2000FFF7CAFF00BF0837BD4680BD80B582B040
:102C300000AF78607868FFF7DCFF00BF0837BD465B
:102C400080BD80B483B000AF7860242318460C3771
:102C5000BD465DF8047B704780B485B000AF7860F6
:102C600039607B68FB603B68DB00FA6813441846F8
:102C70001437BD465DF8047B704780B485B000AF63
:102C8000786039607B68FB603B68DB00FA6813445E
:102C900018461437BD465DF8047B704780B586B092
:102CA00000AFF860B9607A60B968F868FFF7D4FFE0
:102CB00078617B683B617B69D3E900233969C1E9AD
:102CC000002300BF1837BD4680BD80B586B000AF79
:102CD000F860B9607A60B968F868FFF7CEFF78618C
:102CE0007B683B613B69D3E900237969C1E9002333
:102CF00000BF1837BD4680BD80B500AFFFF782FE2C
:102D00000346064AD360064B1B68002B03D1054BD4
:102D10001B68034A1360024B184680BD481200200E
:102D2000C01200208C24002080B483B000AF7860F3
:102D3000034B18460C37BD465DF8047B704700BF57
:102D4000D814002080B483B000AF7860084B1B78A3
:102D500083F00103DBB2002B02D0054B01221A7075
:102D6000044B18460C37BD465DF8047B704700BF26
:102D70008C2C00200C2F020880B483B000AF786048
:102D8000034B18460C37BD465DF8047B704700BF07
:102D9000302F0208B0B582B000AF78600D4B1B78C1
:102DA00083F00103DBB2002B0FD00020FFF7E4FF1C
:102DB0000346094A14461D460FCD0FC40FCD0FC45C
:102DC0002B682360034B01221A70044B1846083706
:102DD000BD46B0BD8D2C0020902C0020542F020841
:102DE00080B483B000AF78607B68002B01D10023F2
:102DF00000E0012318460C37BD465DF8047B7047A0
:102E000080B483B000AF78607B68002B0C37BD4680
:102E10005DF8047B704780B582B000AF78600B46E8
:102E2000FB707868FFF7DCFF00BF0837BD4680BD48
:102E300080B582B000AF78607868FFF7E1FF00BF2F
:102E40000837BD4680BD000080B400AF064B1B684C
:102E5000002B03D1054B1B68034A1360024B184635
:102E6000BD465DF8047B7047B01500208C2400201F
:102E700080B483B000AF7860034B18460C37BD4672
:102E80005DF8047B704700BF941B002080B582B0C2
:102E900000AF78608E4B1B7883F00103DBB2002B10
:102EA00000F010810020FEF7E5FF034621221946BD
:102EB00088481AF0D1FA0346002B05D0864B874A82
:102EC000CF21874819F002F90020FEF7E1FF024602
:102ED000844B9B690C330C3207CA83E8070000203F
:102EE000FFF76CF80346212219467F481AF0B4FA1E
:102EF0000346002B05D07D4B784AD121784819F044
:102F0000E5F80020FFF768F80246764B9B69183316
:102F10000C330C3207CA83E807000020FFF7F2F8F1
:102F200003462122194672481AF096FA0346002BEE
:102F300005D0704B694AD321694819F0C7F80020C1
:102F4000FFF7EEF80246674B9B6930330C330C32C7
:102F500007CA83E807000020FFF708FA034621228A
:102F6000194665481AF078FA0346002B05D0634BE2
:102F70005A4AD5215A4819F0A9F80020FFF704FA57
:102F80000246584B9B6948330C330C3207CA83E81E
:102F900007000020FFF78EFB034621221946584800
:102FA0001AF05AFA0346002B05D0564B4B4AD7214C
:102FB0004B4819F08BF80020FFF78AFB0246494B7B
:102FC0009B6960330C330C3207CA83E8070000208A
:102FD000FFF732FC0346212219464B481AF03CFA0F
:102FE0000346002B05D0494B3C4AD9213C4819F0F7
:102FF0006DF80020FFF72EFC02463A4B9B697833B0
:103000000C330C3207CA83E807000020FFF718FDD5
:103010000346212219463E481AF01EFA0346002BA9
:1030200005D03C4B2D4ADB212D4819F04FF80020EC
:10303000FFF714FD02462B4B9B6990330C330C3287
:1030400007CA83E807000020FFF76EFE034621222F
:10305000194631481AF000FA0346002B05D02F4BD1
:103060001E4ADD211E4819F031F80020FFF76AFEE4
:1030700002461C4B9B69A8330C330C3207CA83E809
:103080000700002000F0AEF903462122194624482B
:103090001AF0E2F90346002B05D0224B0F4ADF213C
:1030A0000F4819F013F8002000F0AAF902460D4B62
:1030B0009B69C0330C330C3207CA83E80700044B0A
:1030C00001221A70074B18460837BD4680BD00BF65
:1030D000B42C00207C2F0208CC180208C030020853
:1030E00058190208F0300208A02F02089C190208A3
:1030F000C42F0208201A0208E82F0208A41A0208A6
:103100000C300208441B020830300208D41B0208AD
:1031100054300208581C020878300208F81C0208D3
:103120009C300208801D020880B483B000AF786034
:10313000034B18460C37BD465DF8047B704700BF53
:1031400014310208B0B582B000AF78604D4B1B78E7
:1031500083F00103DBB2002B00F08E800020FFF72C
:10316000E3FF0346484A14461D460FCD0FC40FCD5A
:103170000FC42B6823600020FEF7A4FE0246424BDA
:1031800003F1240415460FCD0FC40FCD0FC42B68D7
:1031900023600020FEF73AFF02463B4B03F1480450
:1031A00015460FCD0FC40FCD0FC42B682360002030
:1031B000FFF714F80246344B03F16C0415460FCDAB
:1031C0000FC40FCD0FC42B6823600020FFF75CF9FC
:1031D00002462D4B03F1900415460FCD0FC40FCDC1
:1031E0000FC42B6823600020FFF78CFA0246264BA1
:1031F00003F1B40415460FCD0FC40FCD0FC42B68D7
:1032000023600020FFF762FB02461F4B03F1D80446
:1032100015460FCD0FC40FCD0FC42B6823600020BF
:10322000FFF77AFC0246184B03F1FC0415460FCD5C
:103230000FC40FCD0FC42B6823600020FFF79CFD47
:103240000246114B03F5907415460FCD0FC40FCDF8
:103250000FC42B682360002000F00EF902460A4BD1
:1032600003F5A27415460FCD0FC40FCD0FC42B6804
:103270002360044B01221A70044B18460837BD46E0
:10328000B0BD00BFB52C0020B82C0020383102089A
:1032900080B582B000AF78607B68002B01D100233D
:1032A00040E07B68184600F029F9034683F00103EB
:1032B000DBB2002B04D0786800F038F8002331E04E
:1032C0007B681433184612F0BBF8034683F0010301
:1032D000DBB2002B04D0786800F028F8002321E04E
:1032E0007B6820331846FFF72DF9034683F001036E
:1032F000DBB2002B04D0786800F018F8002311E04E
:103300007B6803F5BC731846FFF756FC034683F051
:103310000103DBB2002B04D0786800F007F800232B
:1033200000E0012318460837BD4680BD80B582B055
:1033300000AF78607B68002B14D07B68184600F0E3
:103340000AF97B681433184612F090F87B68203332
:103350001846FFF714F97B6803F5BC731846FFF7AE
:1033600048FC00E000BF0837BD4680BD80B582B094
:1033700000AF78600B46FB707868FFF789FF00BFED
:103380000837BD4680BD80B582B000AF78607868F0
:10339000FFF7CCFF00BF0837BD4680BD80B500AF4A
:1033A00000F006F903460C4AD360FFF76BF90346B9
:1033B000094AC2F88430FFF79FFC0346064AC2F868
:1033C000C030064B1B68002B03D1054B1B68034A1A
:1033D0001360024B184680BDB81B0020A81C0020BB
:1033E0008C24002080B483B000AF7860034B184673
:1033F0000C37BD465DF8047B704700BFF81E002007
:1034000080B582B000AF7860154B1B7883F0010364
:10341000DBB2002B1FD00020FEF72CFD034621223B
:10342000194610481AF018F80346002B05D00E4B29
:103430000E4A59210E4818F049FE0020FEF728FDDB
:1034400002460C4B9B690C330C3207CA83E8070019
:10345000034B01221A70074B18460837BD4680BD42
:10346000202E002060310208401E0208843102082C
:10347000CC1E0208B031020880B483B000AF78607F
:10348000034B18460C37BD465DF8047B704700BF00
:10349000D4310208B0B582B000AF7860144B1B780D
:1034A00083F00103DBB2002B1DD00020FFF7E4FF07
:1034B0000346104A14461D460FCD0FC40FCD0FC44E
:1034C0002B6823600020FEF7FDFC0246094B03F148
:1034D000240415460FCD0FC40FCD0FC42B682360F5
:1034E000034B01221A70044B18460837BD46B0BD85
:1034F000212E0020242E0020F831020880B582B051
:1035000000AF78607B68002B01D100231FE07B684F
:103510001846FEF70BFD034683F00103DBB2002BD8
:1035200004D0786800F017F8002310E07B680833B7
:10353000184611F085FF034683F00103DBB2002B30
:1035400004D0786800F007F8002300E00123184653
:103550000837BD4680BD80B582B000AF78607B681B
:10356000002B09D07B681846FEF7F0FC7B68083317
:10357000184611F07BFF00E000BF0837BD4680BD54
:1035800080B582B000AF78600B46FB707868FFF7BB
:10359000B5FF00BF0837BD4680BD80B582B000AF23
:1035A00078607868FFF7D7FF00BF0837BD4680BD59
:1035B00080B500AFFEF7EEFC0346064AD360064B2B
:1035C0001B68002B03D1054B1B68034A1360024B99
:1035D000184680BD1C1F0020941F00208C24002052
:1035E00080B483B000AF7860034B18460C37BD46FB
:1035F0005DF8047B704700BF1C21002080B483B0BD
:1036000000AF7860084B1B7883F00103DBB2002B1E
:1036100002D0054B01221A70044B18460C37BD46E8
:103620005DF8047B704700BF6C2E0020203202083A
:1036300080B483B000AF7860034B18460C37BD46AA
:103640005DF8047B704700BF44320208B0B582B019
:1036500000AF78600D4B1B7883F00103DBB2002BC9
:103660000FD00020FFF7E4FF0346094A14461D4629
:103670000FCD0FC40FCD0FC42B682360034B012265
:103680001A70044B18460837BD46B0BD6D2E002099
:10369000702E00206832020880B483B000AF7860DA
:1036A0007B68002B01D1002300E0012318460C3772
:1036B000BD465DF8047B704780B483B000AF78608E
:1036C0007B68002B0C37BD465DF8047B704780B5E6
:1036D00082B000AF78600B46FB707868FFF7DCFFC4
:1036E00000BF0837BD4680BD80B582B000AF7860AE
:1036F0007868FFF7E1FF00BF0837BD4680BD0000D6
:1037000080B400AF064B1B68002B03D1054B1B6830
:10371000034A1360024B1846BD465DF8047B7047B0
:103720007C2100208C24002080B483B000AF78601E
:10373000034B18460C37BD465DF8047B704700BF4D
:103740000423002080B483B000AF7860084B1B785E
:1037500083F00103DBB2002B02D0054B01221A706B
:10376000044B18460C37BD465DF8047B704700BF1C
:10377000942E00209032020880B483B000AF7860AD
:10378000034B18460C37BD465DF8047B704700BFFD
:10379000B4320208B0B582B000AF78600D4B1B7830
:1037A00083F00103DBB2002B0FD00020FFF7E4FF12
:1037B0000346094A14461D460FCD0FC40FCD0FC452
:1037C0002B682360034B01221A70044B18460837FC
:1037D000BD46B0BD952E0020982E0020D83202089C
:1037E00080B582B000AF78607B68002B01D10023E8
:1037F0000FE07B68184611F023FE034683F00103B7
:10380000DBB2002B04D0786800F007F8002300E05A
:10381000012318460837BD4680BD80B582B000AF91
:1038200078607B68002B04D07B68184611F01EFE80
:1038300000E000BF0837BD4680BD80B582B000AF54
:1038400078600B46FB707868FFF7CAFF00BF083747
:10385000BD4680BD80B582B000AF78607868FFF764
:10386000DCFF00BF0837BD4680BD000080B400AF5C
:10387000064B1B68002B03D1054B1B68034A1360E2
:10388000024B1846BD465DF8047B70476423002058
:103890008C24002080B582B000AF00237B60104BE9
:1038A0001B6B0F4A43F4001313630D4B1B6B03F4A4
:1038B00000137B607B6800220521102002F092FF3C
:1038C000102002F0ABFF00220521112002F08AFF38
:1038D000112002F0A3FF00BF0837BD4680BD00BF26
:1038E0000038024080B400AFBFF34F8F00BF064BDB
:1038F000DB6803F4E0620449044B1343CB60BFF37D
:103900004F8F00BF00BFFDE700ED00E00400FA05A7
:1039100080B485B000AFF86087ED020AC7ED010AF8
:1039200097ED027AD7ED017A77EE677AFB68C3EDFF
:10393000057AFB6893ED087AFB68D3ED006AFB68B3
:1039400093ED056AFB68D3ED047A76EE677A66EE4E
:10395000A76AFB6893ED016AFB68D3ED057A66EE12
:10396000277A76EEA76AFB6893ED026AFB68D3EDCF
:10397000055AFB68D3ED037A75EEA75AFB68D3EDC1
:10398000047A77EEA77A75EEE77A66EE277A76EE16
:10399000A77A77EE277AFB68C3ED087AFB681A6985
:1039A000FB68DA60FB685A69FB681A61FB6893ED93
:1039B000087AFB68D3ED0A7AB4EEE77AF1EE10FAF2
:1039C00003DDFB689A6AFB681A62FB6893ED087A6C
:1039D000FB68D3ED0A7AF1EE677AB4EEE77AF1EE9E
:1039E00010FA07D5FB68D3ED0A7AF1EE677AFB6827
:1039F000C3ED087AFB681B6A07EE903AB0EE670ADF
:103A00001437BD465DF8047B704780B487B000AFC3
:103A1000786187ED040AC7ED030A87ED021AC7ED46
:103A2000011A7B693A691A607B69FA685A607B6996
:103A3000BA689A607B694FF000021A627B691A6A61
:103A40007B69DA617B69DA697B695A617B695A69EA
:103A50007B691A617B691A697B69DA607B697A68BC
:103A60009A627B699A6A7B695A6200BF1C37BD46BD
:103A70005DF8047B7047000080B582B000AF7860CD
:103A8000391D4FF6FF730122034806F001F87B68E9
:103A900018460837BD4680BDE082002080B483B060
:103AA00000AF78600DE000BF0B4B1B6803F04003D4
:103AB000002BF9D07B681A78074B5A607B6801337A
:103AC0007B607B681B78002BEDD100BF00BF0C37FB
:103AD000BD465DF8047B70470014014080B485B09A
:103AE00000AF78607B68FB6000BF1437BD465DF8AF
:103AF000047B704780B485B000AF78607B68FB6062
:103B000000BF1437BD465DF8047B704780B485B0B4
:103B100000AF78607B68FB60044B01221A6000BF35
:103B20001437BD465DF8047B704700BF2835002080
:103B300080B500AF104A0021104807F077FB03461C
:103B40000F4A13600F4A00210F4807F06FFB03462E
:103B50000E4A13600E4A00210E4807F067FB034629
:103B60000D4A13600D4A00210D4807F05FFB034624
:103B70000C4A136000BF80BD00330208A93B000857
:103B80009C350020243302083D3D0008FC750020D0
:103B900048330208D13E00085C7A00206C330208EA
:103BA00001410008BC7E00202DE9F04F9FB010AF0E
:103BB000F86200F0B5FA00F01BFB00F083FB00F0A8
:103BC000A1FB00F005FC4B48FFF768FF4A4B0122C0
:103BD0001A6010F099FE034683F00103DBB2002B5C
:103BE00002D0642010F0B6FE444B1E68444B1B68A4
:103BF0001846FCF7B9FCC7E90801424B1B68184698
:103C0000FCF7B2FCC7E906013F4B1B681846FCF7FE
:103C1000ABFCC7E904013D4B1B681846FCF7A4FC4C
:103C2000C7E902013A4B1B681846FCF79DFCC7E93F
:103C30000001384B1B681846FCF796FC82468B4601
:103C4000354B1B681846FCF78FFC80468946334B82
:103C50001B681846FCF788FC04460D46304B1B6871
:103C60001846FCF781FC02460B46CDE90E23CDE950
:103C70000C45CDE90A89CDE908AB97ED007B8DEDC8
:103C8000067B97ED027B8DED047B97ED047B8DED3C
:103C9000027B97ED067B8DED007BD7E90823214958
:103CA000304619F0A9FA154B1B681846FCF7F0FAD4
:103CB0000346124A5360002210491B480DF002FCD3
:103CC00078637B6B002B05D07A6B40F27911174833
:103CD00019F0EEF900F026FC154A4FF000031548E4
:103CE0000CF0F2FB124A4FF0000313480CF0ECFB0F
:103CF0006FE700BFA41F0208BC2E0020B82F0020D1
:103D0000E0280020E4280020E8280020EC280020FB
:103D1000F0280020F4280020D4280020D8280020F3
:103D2000DC280020F41F0208B42F002028200208FD
:103D300080969800903000209831002080B586B0A1
:103D400000AF78600023BB60FDF7D0F9544B1B78BF
:103D5000002B07D05248FFF7A1FE642200215048F3
:103D600019F0A4FB4F4BD3ED037A9FED4F7A27EE6A
:103D7000877A4E4BD3ED007ADFED4B6A67EEA67A79
:103D800007F10C03F0EE670AB0EE470A002118466F
:103D9000FDF73DF901460A230A22454805F078FE61
:103DA000444BD3ED037A9FED407A27EE877A424B5E
:103DB000D3ED007ADFED3C6A67EEA67A07F10C03DB
:103DC000F0EE670AB0EE470A01211846FDF71FF929
:103DD00001460A230A22364805F05AFE374B1B8853
:103DE000092B59D9364B1B78432B4DD1344B5B797A
:103DF0003B72334B9B797B72314BDB79BB72304B1F
:103E00001B7AFB722E4BDB78002B1CD12C4B5B7882
:103E1000032B12D0032B37DC012B02D0022B06D050
:103E200032E007F108031B68264A13602CE007F113
:103E300008031B68234A536026E007F108031B6848
:103E4000204A936020E01E4BDB78012B1CD11C4BD9
:103E50005B78032B12D0032B16DC012B02D0022B34
:103E600006D011E007F108031B68174A13600BE046
:103E700007F108031B68144A536005E007F10803C3
:103E80001B68114A936000BF282200210C4819F0DA
:103E90000DFB0A4B00221A800A2007F059FA53E75B
:103EA0002C310020242A00200000C8423435002094
:103EB000E08200203C2A002038350020B428002071
:103EC0008C280020443500207035002000000000C0
:103ED00080B584B000AF78600023FB60784B1B682E
:103EE000012B40F0C480774BD3E90A2310461946D2
:103EF000FCF76AFE0346744A1360724BD3E9002351
:103F000010461946FCF760FE0346704A13606F4B7B
:103F100093ED007A6C4BD3ED007AF6EE006A67EE13
:103F2000A66A6B4BD3ED007A66EEA77A37EE677A16
:103F3000684BD3ED007A67EE277A674BC3ED007AC2
:103F4000614BD3ED007AB6EE007A27EE877A604BAC
:103F5000D3ED007A27EE277A5C4BD3ED007A37EE6B
:103F6000277A5C4BD3ED007A67EE277A5B4BC3ED83
:103F7000007A594B1B681846FCF7F6FA4CA3D3E9B4
:103F80000023FCF7D9FD0346002B03D0524B544AC3
:103F90001A600FE0504B1B681846FCF7E5FA46A381
:103FA000D3E90023FCF7AAFD0346002B02D04A4BBD
:103FB0004C4A1A60494B1B681846FCF7D5FA3CA3DB
:103FC000D3E90023FCF7B8FD0346002B03D0434B95
:103FD000434A1A600FE0414B1B681846FCF7C4FACD
:103FE00035A3D3E90023FCF789FD0346002B02D05B
:103FF0003A4B3C4A1A60384BD3ED007A3A4B93ED7A
:10400000037AF0EE470AB0EE670A3848FFF780FC03
:10401000F0EE407A364BC3ED007A304BD3ED007AA8
:10402000344B93ED037AF0EE470AB0EE670A32485C
:10403000FFF76EFCF0EE407A304BC3ED007A2C4B6C
:10404000D3ED007AFDEEE77A17EE900AFDF7DEFB7E
:104050002A4BD3ED007AFDEEE77A17EE900AFDF7D2
:104060000FFC0023FB60164B00221A601BE0FB686C
:104070000133FB60FB68632B15DD184B4FF000022A
:104080001A60164B1B681D4A13601C4B1B68124AB2
:104090001360114B1B68164A13600020FDF7B6FB36
:1040A0000020FDF7EDFB052007F052F916E700BFF1
:1040B000333333333333E33F333333333333E3BFD8
:1040C0002835002028320020303500202C350020F3
:1040D000802300207C230020343500203835002048
:1040E0009A99193F9A9919BF242A00204435002033
:1040F0003C3500203C2A002070350020403500204F
:1041000080B582B000AF7860044B1B68012B01D1F1
:1041100000F08AFA642007F01BF9F5E7BC2E0020B6
:10412000B0B58EB002AF224819F02AF8214B0193A6
:10413000214B0093214B224A224901200FF08AF99A
:1041400007F11C0318460EF05FFD1F4BFB611F4B70
:104150003B621F4B7B621F4BBB6207F11C0318467F
:104160000EF060FD034683F00103DBB2002B04D0A8
:104170004FF40971184818F09BFF184C3B4618463D
:104180000EF06EFD25463C460FCC0FC523682B6014
:10419000124B0022002112480CF0CEF9104B114AAC
:1041A000114912480CF0DEFA00BF3037BD46B0BDF1
:1041B000542002080D640008A56300088563000808
:1041C000596300082883002091600008D56000082A
:1041D0000D6100087961000868200208F82E0020AF
:1041E000C42E002090200208942002080C2F0020EA
:1041F00080B586B002AF11F0AFF90246244B2549D5
:1042000025480CF06FFB254B00221A60244BFB6005
:1042100011F0A2F90246FB681E4922480CF096FBF9
:10422000B860BB68002B07D0BA6840F23F211E4837
:1042300018F03EFFFFF756FB1C4B01221C491D489E
:104240000BF0B2FE78607B68002B08D07A6840F2F1
:104250004521194818F02CFF002008F01DF8002314
:104260000093164B164A0F4912480BF00DFF3860A9
:104270003B68002B08D03A6840F246210E4818F0FF
:1042800017FF002008F008F800BF1037BD4680BDBA
:10429000A02002080C2F0020142F0020182F00202F
:1042A000B42002081C2F0020C0200208F82E002095
:1042B000C42E0020202F0020F0200208DD3A000844
:1042C000B02F002080B500AF094B0A4A1A60084B96
:1042D00000225A60064BC8229A6011F055F9024636
:1042E000054B064906480CF0FDFA00BF80BD00BF33
:1042F000B82F0020C42F00201C2102080C2F002002
:10430000B42F002080B586B002AF264B264A1A6033
:10431000244B00225A60234B64229A60234BFB609B
:1043200011F032F90246FB68214922480CF00EFBDD
:10433000B860BB68002B09D0BA6840F261211E4802
:1043400018F0B6FEC82007F003F8FBE71B4B01226C
:104350001B491C480BF028FE78607B68002B08D0B6
:104360007A6840F26621184818F0A2FE002007F093
:1043700093FF00230093154B0A4A0E4911480BF096
:1043800083FE38603B68002B08D03A6840F2672112
:104390000D4818F08DFE002007F07EFF00BF10379B
:1043A000BD4680BD203100202C3100202C21020888
:1043B0000C2F00208C30002038210208F82E00201D
:1043C000C42E002090300020F0200208F53A0008AA
:1043D00090B58BB002AF404C38463F4B3F4A0092FD
:1043E00008330ECB0BF094F904F108033A4607CAE0
:1043F00083E80700384C3846374B394A009214336B
:104400000ECB0BF085F904F114033A4607CA83E892
:1044100007000BF0A3F903461A46304B31493248E6
:104420000CF060FA314BFB6109F0D6FC0246FB69E7
:104430002C492F480CF08AFAB861BB69002B09D0CF
:10444000BA694FF41F712B4818F032FEC82006F0ED
:104450007FFFFBE7284B0122284929480BF0A4FDE8
:1044600078617B69002B08D07A6940F28121254868
:1044700018F01EFE002007F00FFF00230093224BD0
:10448000224A1B491E480BF0FFFD38613B69002B97
:1044900008D03A6940F282211A4818F009FE00203B
:1044A00007F0FAFEDFED1A1A9FED1A1AF3EE0F0A63
:1044B0009FED190A1948FFF7A8FADFED151A9FEDCD
:1044C000151AF3EE0F0A9FED140A1548FFF79DFA2F
:1044D00000BF2437BD4690BD603200206421020831
:1044E0006C2102080C2F002058320020782102088D
:1044F0009031002038210208F82E0020C42E002020
:1045000098310020F02002080D3B000828320020DE
:104510000000C84200000000000044424435002072
:1045200070350020B0B58CB000AF10F0F7F9C7E9D6
:104530000A01FDF7F3F803463C1D1D460FCD0FC4DD
:104540000FCD0FC42B682360D7E90A014FF47A72AC
:104550004FF00003FCF788FB02460B462F4B1A6016
:10456000D7E90A014FF47A724FF00003FCF77CFBA5
:104570002B4B02FB03F3294A53607B681846FBF779
:10458000F3FF02460B462549C1E90823BB681846DC
:10459000FBF7EAFF02460B462049C1E90A233B69C3
:1045A0001846FBF7E1FF02460B461C49C1E91423FC
:1045B0007B691846FBF7D8FF02460B461749C1E94D
:1045C0000E23BB691846FBF7CFFF02460B46134983
:1045D000C1E91023FB691846FBF7C6FF02460B46EC
:1045E0000E49C1E912237B6A1846FBF7BDFF02465C
:1045F0000B460A49C1E968233B6A1846FBF7B4FF3A
:1046000002460B460549C1E95E23002203490548DD
:104610000CF058FF00BF3037BD46B0BD60320020FF
:1046200040420F005832002080B582B002AF524B9A
:104630001B68002B42D10023009310234F4A002116
:104640000020FDF7BDFA0023009310234C4A0221FD
:104650000020FDF7B5FA002300931023494A0421F6
:104660000020FDF7ADFA002300931023464A0621EF
:104670000020FDF7A5FA002300931023434A0021F0
:104680004620FDF79DFA0023009310233C4A0221A7
:104690004620FDF795FA002300931023394A0421A0
:1046A0004620FDF78DFA002300931023364A062199
:1046B0004620FDF785FA304B01221A60344BD3EDCA
:1046C000007A002301931023009301230322B0EE0C
:1046D000670A02211420FDF7BDFA2D4BD3ED017AB4
:1046E000002301931023009301230322B0EE670AF5
:1046F00004211420FDF7AEFA254BD3ED027A0023F6
:1047000001931023009301230322B0EE670A0621D0
:104710001420FDF79FFA1F4BD3ED007A002301937D
:104720001023009301230322B0EE670A02215A20CE
:10473000FDF790FA174BD3ED017A00230193102374
:10474000009301230322B0EE670A04215A20FDF7EB
:1047500081FA104BD3ED027A0023019310230093CA
:1047600001230322B0EE670A06215A20FDF772FAF0
:1047700000BFBD4680BD00BFC02E002080210208C2
:10478000882102088C210208902102089421020845
:10479000443500207035002080B58CB000AF07F1A3
:1047A0001C0300221A605A609A60DA601A610023C2
:1047B000BB613E4B1B6B3D4A43F0800313633B4B95
:1047C0001B6B03F08003BB61BB6900237B61374B2C
:1047D0001B6B364A43F004031363344B1B6B03F02B
:1047E00004037B617B6900233B61304B1B6B2F4AC9
:1047F00043F0010313632D4B1B6B03F001033B617B
:104800003B690023FB60294B1B6B284A43F01003D4
:104810001363264B1B6B03F01003FB60FB68002344
:10482000BB60224B1B6B214A43F0020313631F4BF7
:104830001B6B03F00203BB60BB6800237B601B4B58
:104840001B6B1A4A43F008031363184B1B6B03F0EE
:1048500008037B607B6800220321154802F08AFD73
:1048600000220321134802F085FD0323FB6101238D
:104870003B6200237B620023BB6207F11C031946E5
:104880000B4802F0DBFB0323FB6101233B620023A7
:104890007B620023BB6207F11C031946054802F046
:1048A000CDFB00BF3037BD4680BD00BF00380240A1
:1048B000000802400010024080B500AF124B134ABE
:1048C0001A60114B124A5A600F4B00229A600E4B2D
:1048D0000022DA600C4B4FF480421A610A4B00222E
:1048E0005A61094B00229A61074B0022DA61064B9C
:1048F00000221A62044802F057FD0346002B01D043
:1049000000F074FA00BF80BD1C81002000540040FC
:10491000A086010080B58AB000AF786007F114036B
:1049200000221A605A609A60DA601A617B681B681C
:10493000194A93422BD100233B61184B1B6B174A3A
:1049400043F002031363154B1B6B03F002033B613F
:104950003B69C0237B611223BB610023FB610323FE
:104960003B6204237B6207F1140319460C4802F0F2
:1049700065FB0023FB60094B1B6C084A43F40013E2
:104980001364064B1B6C03F40013FB60FB6800BF51
:104990002837BD4680BD00BF0054004000380240AB
:1049A0000004024080B500AF01F0FEFD00F040F8C9
:1049B000FFF7F2FEFEF76EFF00F000FF00F0D4FEFE
:1049C00000F01AFCFFF778FF00F022FF00F0F2FC85
:1049D00000F044FD00F0A0FC00F044FF01220F496C
:1049E0000F4805F0E0F801220E490F4805F0DBF80A
:1049F00000210E4803F060FF04210C4803F05CFF27
:104A0000FCF7A4FEFCF776FFFCF7C2FF06F0C4FB40
:104A1000FFF78EF806F0E4FB00BFFDE7B8280020A2
:104A2000E0820020B928002070830020C08100208F
:104A300080B594B000AF07F1200330220021184662
:104A400018F034FD07F10C0300221A605A609A60D6
:104A5000DA601A610023BB60284B1B6C274A43F0C5
:104A600080531364254B1B6C03F08053BB60BB6801
:104A700000237B60224B1B68214A43F48043136070
:104A80001F4B1B6803F480437B607B6801233B6200
:104A90004FF480337B620223BB634FF48003FB63DC
:104AA00008233B644FF4A8737B640223BB64042394
:104AB000FB6407F12003184603F024F90346002B9A
:104AC00001D000F093F90F23FB6002233B61002328
:104AD0007B614FF4A053BB614FF48053FB6107F13E
:104AE0000C030521184603F085FB0346002B01D07B
:104AF00000F07CF900BF5037BD4680BD0038024051
:104B0000007000400000000080B584B000AF786005
:104B10007B681B68A04A934202D101F067FD5BE10C
:104B20007B681A689D4B1B689A4226D19B4B1B6879
:104B30005B6A42F20F72934209D8994BB3F908307D
:104B40009BB201339BB21AB2954B1A810FE0934B83
:104B50001B685B6A42F20F72934208D9904BB3F91B
:104B600008309BB2013B9BB21AB28D4B1A818B4B22
:104B70001B6842F210725A622EE17B681A68894BF8
:104B80001B689A422AD1874B1B685B6AFB60854B86
:104B90001B685B6A42F20F72934209D8824BB3F9E9
:104BA00008309BB201339BB21AB27F4B1A810FE0DF
:104BB0007C4B1B685B6A42F20F72934208D97A4BB6
:104BC000B3F908309BB2013B9BB21AB2764B1A8103
:104BD000744B1B6842F210725A62FDE07B681A68DF
:104BE000724B1B689A4240F0F7806C4B1B681B6845
:104BF00003F01003102B0CBF01230023DBB21A4675
:104C0000674B1A75674B1B681B6803F01003102B6A
:104C10000CBF01230023DBB21A46634B1A755F4BAE
:104C20001B685A6A5E4BB3F9083019465B4B1B6828
:104C3000DB6A01FB03F313441A46594B5A60594B84
:104C40001B685A6A584BB3F908301946554B1B6814
:104C5000DB6A01FB03F313441A46534B5A60504B73
:104C60005A684F4B1B68D31A07EE903AF8EEE77A72
:104C7000F1EE677A17EE903A1846FBF775FC42A3FF
:104C8000D3E90023FBF7C8FC02460B461046194641
:104C90003FA3D3E90023FBF7BFFC02460B461046B7
:104CA00019464FF00002424BFBF7E0FD02460B466F
:104CB00010461946FBF788FF0346394AD3603A4B42
:104CC0005A68394B1B68D31A07EE903AF8EEE77A28
:104CD00017EE900AFBF748FC2BA3D3E90023FBF760
:104CE0009BFC02460B461046194629A3D3E9002334
:104CF000FBF792FC02460B46104619464FF00002A5
:104D00002B4BFBF7B3FD02460B4610461946FBF74B
:104D10005BFF0346244AD360214BD3ED037AB7EE01
:104D2000007AF4EEC77AF1EE10FA09DA1C4BD3EDF3
:104D3000037ABFEE007AF4EEC77AF1EE10FA04D8E7
:104D4000174B1B69164AD36003E0154BDB68144A06
:104D50001361154BD3ED037AB7EE007AF4EEC77A00
:104D6000F1EE10FA09DA104BD3ED037ABFEE007AB8
:104D7000F4EEC77AF1EE10FA1CD80B4B1B690A4A05
:104D8000D3601BE0AFF300806E861BF0F921094071
:104D900048E17A14AE47E13F0020004050820020F5
:104DA000242A0020988200203C2A0020088200202B
:104DB00000A094400A4BDB68094A1361094B5B6809
:104DC000084A1360064B5B68054A1360064B1B6874
:104DD000002B01D0FCF7B8FB00BF1037BD4680BDEB
:104DE0003C2A0020242A0020BC2E002080B400AFE2
:104DF00072B600BF00BFFDE780B582B000AF0023F0
:104E00007B60124B5B6C114A43F4804353640F4B3D
:104E10005B6C03F480437B607B6800233B600B4B3F
:104E20001B6C0A4A43F080531364084B1B6C03F05D
:104E300080533B603B6800220F216FF0010001F0BE
:104E4000D1FC00BF0837BD4680BD00BF003802401E
:104E500080B58EB000AF78600023FB620023BB6298
:104E60000023FB60334B1B6C324A43F480731364A2
:104E7000304B1B6C03F48073FB60FB6807F110027E
:104E800007F114031146184603F0D4FB3B6AFB629A
:104E9000FB6A002B03D103F0A5FB786304E003F069
:104EA000A1FB03465B007B637B6B234AA2FB0323CE
:104EB0009B0C013BBB62214B214A1A601F4B40F205
:104EC000E732DA601D4ABB6A53601C4B00221A614C
:104ED0001A4B00229A60194B00229A61174803F07E
:104EE000DBFB034687F8333097F83330002B1BD1B8
:104EF000124803F021FC034687F8333097F833302B
:104F0000002B11D12D2001F089FC7B680F2B08D8D4
:104F1000002279682D2001F065FC0A4A7B68136045
:104F200002E0012387F8333097F8333018463837DA
:104F3000BD4680BD0038024083DE1B4370810020E7
:104F4000002000408C23002080B400AF00BFFDE7AC
:104F500080B400AF00BFFDE780B400AF00BFFDE745
:104F600080B400AF00BFFDE780B400AF00BFFDE735
:104F700080B400AF00BFBD465DF8047B7047000001
:104F800080B500AF024801F0EFFD00BF80BD00BF5B
:104F90000084002080B500AF024801F0E5FD00BFAD
:104FA00080BD00BF6084002080B500AF024803F0E0
:104FB0007FFE00BF80BD00BF0882002080B500AF2B
:104FC000024803F075FE00BF80BD00BF5082002084
:104FD00080B500AF024803F06BFE00BF80BD00BF8C
:104FE0009882002080B500AF024804F015FF00BF92
:104FF00080BD00BFE082002080B500AF024804F011
:105000000BFF00BF80BD00BF2883002080B500AF2C
:10501000024804F001FF00BF80BD00BF7083002084
:1050200080B500AF024803F043FE00BF80BD00BF63
:105030007081002080B500AF024804F0EDFE00BF93
:1050400080BD00BFB883002080B400AF01231846A4
:10505000BD465DF8047B704780B582B000AF7860D4
:10506000396018F0CDFA034616221A604FF0FF336C
:1050700018460837BD4680BD80B582B000AF786065
:105080004FF0FF317868FFF7E7FF00BFFDE780B51D
:1050900086B000AFF860B9607A6000237B610AE0F7
:1050A000AFF300800146BB685A1CBA60CAB21A70DE
:1050B0007B6901337B617A697B689A42F0DB7B68AC
:1050C00018461837BD4680BD80B586B000AFF86081
:1050D000B9607A6000237B6109E0BB685A1CBA6042
:1050E0001B781846FEF7C8FC7B6901337B617A693F
:1050F0007B689A42F1DB7B6818461837BD4680BD55
:1051000080B483B000AF78604FF0FF3318460C379F
:10511000BD465DF8047B704780B483B000AF786013
:1051200039603B684FF400525A60002318460C3730
:10513000BD465DF8047B704780B483B000AF7860F3
:10514000012318460C37BD465DF8047B704780B4D8
:1051500085B000AFF860B9607A6000231846143754
:10516000BD465DF8047B704780B586B000AF7860BF
:10517000144A154BD31A7B617B693B61134B1B6847
:10518000002B02D1114B124A1A60104B1A687B682F
:1051900013443A699A4207D218F032FA03460C22B5
:1051A0001A604FF0FF3309E0084B1B68FB60074BA8
:1051B0001A687B681344054A1360FB681846183761
:1051C000BD4680BD0000022000040000BC8100201C
:1051D0006083012080B400AF064BD3F88830054AC5
:1051E00043F47003C2F8883000BFBD465DF8047B0D
:1051F000704700BF00ED00E080B592B000AF07F14E
:10520000400300221A605A6007F1240300221A604A
:105210005A609A60DA601A615A619A613B1D2022D5
:105220000021184618F042F9394B3A4A1A60384BB7
:1052300044F29F125A60364B00229A60344B63222C
:10524000DA60334B00221A61314B00225A61304B35
:1052500000229A612E4803F0DFFA0346002B01D0AA
:10526000FFF7C4FD00233B6400237B6407F1400388
:105270001946274804F0DAFA0346002B01D0FFF75D
:10528000B5FD60237B620023BB620023FB62002329
:105290003B6300237B630023BB630023FB6307F1B5
:1052A0002403002219461A4803F0F2FD0346002B9E
:1052B00001D0FFF79BFD07F124030422194614488F
:1052C00003F0E6FD0346002B01D0FFF78FFD00231E
:1052D0007B600023BB600023FB6000233B61002355
:1052E0007B614FF40053BB6100233B623B1D1946B9
:1052F000074804F017FB0346002B01D0FFF776FDAB
:10530000034800F0D5F900BF4837BD4680BD00BF57
:10531000C08100200000014080B586B000AF07F1D9
:10532000080300221A605A609A60DA603B46002245
:105330001A605A601E4B4FF080421A601C4B40F2BC
:105340008F625A601A4B00229A60194B41F28732E1
:10535000DA60174B00221A61154B00229A6114483B
:1053600003F09AF90346002B01D0FFF73FFD4FF4FD
:105370008053BB6007F1080319460D4803F04AFE4D
:105380000346002B01D0FFF731FD00233B600023D3
:105390007B603B461946064804F048FA0346002B5A
:1053A00001D0FFF723FD00BF1837BD4680BD00BF09
:1053B0000882002080B58CB000AF07F10C032422D6
:1053C0000021184618F072F83B1D00221A605A603E
:1053D000204B214A1A601F4B00225A601D4B0022AD
:1053E0009A601C4B44F62062DA601A4B00221A6164
:1053F000184B00229A610323FB6000233B610123C9
:105400007B610023BB610023FB6100233B6201231E
:105410007B620023BB620023FB6207F10C03194689
:105420000C4803F011FB0346002B01D0FFF7DEFC14
:1054300000237B600023BB603B1D1946054804F038
:10544000F5F90346002B01D0FFF7D0FC00BF303741
:10545000BD4680BD508200200004004080B58CB065
:1054600000AF07F10C0324220021184618F01EF8A3
:105470003B1D00221A605A60204B214A1A601F4BC4
:1054800000225A601D4B00229A601C4B44F6206299
:10549000DA601A4B00221A61184B00229A6103232A
:1054A000FB6000233B6101237B610023BB61002380
:1054B000FB6100233B6201237B620023BB6200236C
:1054C000FB6207F10C0319460C4803F0BDFA0346D2
:1054D000002B01D0FFF78AFC00237B600023BB6018
:1054E0003B1D1946054804F0A1F90346002B01D0E5
:1054F000FFF77CFC00BF3037BD4680BD988200209E
:105500000008004080B485B000AF78607B681B68FD
:105510000B4A93420DD10023FB600A4B5B6C094A96
:1055200043F001035364074B5B6C03F00103FB6022
:10553000FB6800BF1437BD465DF8047B704700BFB1
:10554000000001400038024080B584B000AF7860B0
:105550007B681B68B3F1804F15D10023FB600C4BB7
:105560001B6C0B4A43F001031364094B1B6C03F0E3
:105570000103FB60FB68002206211C2001F032F9C8
:105580001C2001F04BF900BF1037BD4680BD00BFA5
:105590000038024080B58CB000AF786007F11C0382
:1055A00000221A605A609A60DA601A617B681B6890
:1055B0003A4A934234D10023BB61394B1B6C384AC1
:1055C00043F002031364364B1B6C03F00203BB6110
:1055D000BB6900237B61324B1B6B314A43F00103F3
:1055E00013632F4B1B6B03F001037B617B69C023AB
:1055F000FB6102233B6201237B620023BB62022327
:10560000FB6207F11C031946264801F017FD002232
:1056100005211D2001F0E6F81D2001F0FFF839E01A
:105620007B681B68204A934234D100233B611C4BAA
:105630001B6C1B4A43F004031364194B1B6C03F0EF
:1056400004033B613B690023FB60154B1B6B144A51
:1056500043F008031363124B1B6B03F00803FB605A
:10566000FB684FF44053FB6102233B6201237B62E2
:105670000023BB620223FB6207F11C0319460B489F
:1056800001F0DCFC002205211E2001F0ABF81E20F9
:1056900001F0C4F800BF3037BD4680BD00040040B3
:1056A000003802400000024000080040000C0240A8
:1056B00080B58AB000AF786007F1140300221A6049
:1056C0005A609A60DA601A617B681B68224A9342CA
:1056D0003DD100233B61214B1B6B204A43F010035B
:1056E00013631E4B1B6B03F010033B613B690023EC
:1056F000FB601A4B1B6B194A43F001031363174BF2
:105700001B6B03F00103FB60FB684FF400637B61DC
:105710000223BB610023FB6100233B6201237B6208
:1057200007F1140319460E4801F088FC4FF480730A
:105730007B610223BB610023FB6100233B620123E9
:105740007B6207F114031946064801F077FC00BF9D
:105750002837BD4680BD00BF000001400038024030
:10576000001002400000024080B500AF114B124A09
:105770001A60104B4FF4E1325A600E4B00229A60CF
:105780000C4B0022DA600B4B00221A61094B0C22F1
:105790005A61084B00229A61064B0022DA610548E3
:1057A00004F026F90346002B01D0FFF71FFB00BFD2
:1057B00080BD00BFE08200200010014080B500AF36
:1057C000114B124A1A60104B4FF461225A600E4B73
:1057D00000229A600C4B0022DA600B4B00221A6107
:1057E000094B0C225A61084B00229A61064B002299
:1057F000DA61054804F0FCF80346002B01D0FFF7FE
:10580000F5FA00BF80BD00BF28830020004400409F
:1058100080B500AF114B124A1A60104B4FF416526C
:105820005A600E4B00229A600C4B0022DA600B4B40
:1058300000221A61094B0C225A61084B00229A611E
:10584000064B0022DA61054804F0D2F80346002B2B
:1058500001D0FFF7CBFA00BF80BD00BF70830020EE
:105860000048004080B500AF114B124A1A60104B3F
:105870004FF4E1325A600E4B00229A600C4B00222A
:10588000DA600B4B00221A61094B0C225A61084B5B
:1058900000229A61064B0022DA61054804F0A8F85C
:1058A0000346002B01D0FFF7A1FA00BF80BD00BF67
:1058B000B88300200014014080B590B000AF78603C
:1058C00007F12C0300221A605A609A60DA601A61AC
:1058D0007B681B68A54A934235D10023BB62A44B69
:1058E0005B6CA34A43F010035364A14B5B6C03F061
:1058F0001003BB62BB6A00237B629D4B1B6B9C4AFF
:1059000043F0010313639A4B1B6B03F001037B62AB
:105910007B6A4FF4C063FB6202233B6300237B631B
:105920000323BB630723FB6307F12C03194691484C
:1059300001F084FB00220521252000F053FF2520E3
:1059400000F06CFF0DE17B681B688B4A934240F0CE
:10595000948000233B62864B1B6C854A43F40033E2
:105960001364834B1B6C03F400333B623B6A0023DC
:10597000FB617F4B1B6B7E4A43F0010313637C4B3F
:105980001B6B03F00103FB61FB690C23FB62022329
:105990003B6300237B630323BB630723FB6307F1A4
:1059A0002C031946734801F049FB744B744A1A6082
:1059B000724B4FF000625A60704B00229A606F4B3E
:1059C0000022DA606D4B4FF480621A616B4B00224B
:1059D0005A616A4B00229A61684B4FF48072DA6117
:1059E000664B4FF440321A62644B00225A6263489D
:1059F00000F022FF0346002B01D0FFF7F7F97B6888
:105A00005E4ADA635D4A7B6893635E4B5E4A1A6066
:105A10005C4B4FF000625A605A4B40229A60594BDF
:105A20000022DA60574B4FF480621A61554B002216
:105A30005A61544B00229A61524B0022DA61514B59
:105A40004FF440321A624F4B00225A624D4800F028
:105A5000F3FE0346002B01D0FFF7C8F97B68494AE3
:105A60009A63484A7B68936300220521262000F050
:105A7000B9FE262000F0D2FE73E07B681B68434A23
:105A8000934235D10023BB61394B1B6C384A43F438
:105A900080231364364B1B6C03F48023BB61BB690A
:105AA00000237B61324B1B6B314A43F002031363CB
:105AB0002F4B1B6B03F002037B617B694FF4406348
:105AC000FB6202233B6300237B630323BB63072347
:105AD000FB6307F12C0319462D4801F0AFFA0022B1
