:020000040800F2
:10000000900B00204D020008D91700087D1700084A
:10001000D5170008610300084D2700080000000004
:10002000000000000000000000000000B91F0008F0
:10003000EB03000800000000E31B00083521000866
:1000400067020008670200086702000867020008EC
:1000500067020008670200086702000867020008DC
:1000600067020008670200086702000867020008CC
:1000700067020008670200086702000867020008BC
:1000800067020008670200086702000867020008AC
:10009000670200086702000867020008670200089C
:1000A000670200086702000867020008670200088C
:1000B00067020008A1210008670200086702000823
:1000C000670200086702000867020008670200086C
:1000D000670200082D260008BD26000867020008F8
:1000E000670200086702000867020008670200084C
:1000F000670200086702000867020008670200083C
:10010000670200086702000867020008670200082B
:10011000670200086702000867020008670200081B
:10012000670200086702000867020008670200080B
:1001300067020008670200086702000867020008FB
:1001400067020008670200086702000867020008EB
:1001500067020008670200086702000867020008DB
:1001600067020008670200086702000867020008CB
:10017000670200086702000867020008000000002C
:1001800067020008670200086702000867020008AB
:10019000670200086702000867020008670200089B
:1001A00067020008670200086702000800F002F812
:1001B00000F03CF80AA090E8000C82448344AAF1C5
:1001C0000107DA4501D100F031F8AFF2090EBAE8C3
:1001D0000F0013F0010F18BFFB1A43F0010318477B
:1001E0006845000088450000103A24BF78C878C1EF
:1001F000FAD8520724BF30C830C144BF04680C602D
:10020000704700000023002400250026103A28BF74
:1002100078C1FBD8520728BF30C148BF0B60704778
:100220001FB504F0BCF91FBD10B510BD00F06AF891
:100230001146FFF7F5FF03F0FFF900F088F803B46B
:10024000FFF7F2FF03BC03F0AFF900000948804755
:1002500009480047FEE7FEE7FEE7FEE7FEE7FEE7A8
:10026000FEE7FEE7FEE7FEE704480549054A064BC0
:10027000704700003D210008AD01000890050020F6
:10028000900B00209007002090070020704740EA64
:100290000103024630B59B0710D14FF0013400E056
:1002A00008C208C91D1B9D4315EAC41FF8D013F0EE
:1002B000FF0102F8011B0DD01B0AF8E711F8013B02
:1002C000002B02F8013B05D011F8013B002B02F88E
:1002D000013BF3D130BD704770477047704710B590
:1002E00000F008F8006810BD10B5044600F002F8F0
:1002F000046010BD0048704730050020004870477A
:10030000300500207546FFF7F9FFAE460500694647
:10031000534620F00700854618B020B5FFF7A4FF2C
:10032000BDE820404FF000064FF000074FF00008F6
:100330004FF0000B21F00701AC46ACE8C009ACE877
:10034000C009ACE8C009ACE8C0098D46704710B5DB
:100350000446AFF300802046BDE81040FFF76FBFB2
:1003600000BFFEE72DE9F041074688461546042107
:10037000052000F02DF80021012002F0E9F980218C
:100380000A2001F01AFE002405E0395D092002F080
:10039000DFF9601CC4B24445F7DB0321012002F001
:1003A000D7F9FF2400BF052001F040FD0646601E7E
:1003B000C4B21CB106F004000028F4D0222001F0E1
:1003C00035FD2870212001F031FD6870BDE8F08115
:1003D00070B505460C46284601F028FD064626EA7B
:1003E0000401284602F0B4F970BD7047F8B5024622
:1003F0000B460025002400200021E6E0012606FA35
:1004000001F51E6806EA0504AC4273D15E68022E4F
:1004100002D05E68122E13D1CF0802F1200656F8E2
:1004200027004E07F70E0F26BE40B0434F07FF0EC2
:100430001E69BE403043CF0802F1200646F827006F
:1004400010684F000326BE40B0431E7906F0030635
:100450004F00BE40304310605E68012E08D05E68D9
:10046000022E05D05E68112E02D05E68122E13D1C6
:1004700090684F000326BE40B0434F00DE68BE4088
:1004800030439060506801268E40B0431E79C6F319
:1004900000168E4030435060D0684F000326BE40A7
:1004A000B0434F009E68BE403043D0605E6806F0A7
:1004B0008056B6F1805FA8D100BF00260096454E59
:1004C000366846F48046434F3E603E46366806F442
:1004D0008046009600BF00BF3F4E8F0856F82700A9
:1004E0008E07370F0F26BE40B0433C4EB24202D1BA
:1004F00000262EE068E03A4EB24201D1012628E003
:10050000384EB24201D1022623E0374EB24201D129
:1005100003261EE0354EB24201D1042619E0344EC6
:10052000B24201D1052614E0324EB24201D1062674
:100530000FE0314EB24201D107260AE02F4EB242FF
:1005400001D1082605E02E4EB24201D1092600E075
:100550000A268F073F0FBE4030431F4E8F0846F8D4
:100560002700284E3068A0435E6806F48036B6F552
:10057000803F00D12043234E3060361D3068A043B9
:100580005E6806F40036B6F5003F00D120431D4EEC
:10059000361D3060361D3068A0435E6806F4801654
:1005A000B6F5801F00D12043164E08363060361D48
:1005B0003068A0435E6806F40016B6F5001F00D14F
:1005C0002043104E0C363060491C1029FFF416AF42
:1005D000F8BD0000443802400838014000000240E5
:1005E0000004024000080240000C024000100240DB
:1005F0000014024000180240001C0240002002408B
:1006000000240240003C0140024613690B400BB13C
:10061000012000E0002070470AB1816101E00B0475
:10062000836170470148006870470000980000200F
:1006300002480068401C014908607047980000208B
:1006400010B50D48006840F400700B49086008467A
:10065000006840F4806008600846006840F48070DC
:100660000860052000F06CF80F2000F007F800F09B
:1006700017F8002010BD0000003C024070B5044691
:1006800000F01CFA4FF47A71B0FBF1F5284600F047
:10069000CFFC00222146501E00F014F8002070BD4F
:1006A00008B50020009000BF08BD00BF00F01F0289
:1006B000012191404209920002F1E022C2F80011AA
:1006C00000BF70472DE9F05F80460D4616460027B3
:1006D00001F084F8074639462A46334601F0070000
:1006E000C0F1070ABAF1040F02D94FF0040A01E081
:1006F000C0F1070AD14600F1040ABAF1070F02D28D
:100700004FF0000A01E0A0F1030AD4464FF0010ABD
:100710000AFA09FAAAF1010A0AEA020A0AFA0CFA22
:100720004FF0010B0BFA0CFBABF1010B0BEA030BC7
:100730004AEA0B042146404601F058F8BDE8F09F14
:1007400000BF00F00702064B19684FF6FF0319407F
:10075000044B0B4343EA0221014B196000BF704771
:100760000CED00E00000FA0538B5002400BF0020C1
:1007700000902348006840F08050214908600846F6
:10078000006800F08050009000BF00BF012001040D
:1007900091FAA1F1B1FA81F11A4A42F82100FFF76A
:1007A00041FF044607E0FFF73DFF001BB0F57A7FED
:1007B00001D9032038BD1448406800F48030B0F5FA
:1007C000803FF0D10120410491FAA1F1B1FA81F109
:1007D0000C4A42F82100FFF725FF044607E0FFF727
:1007E00021FF001BB0F57A7F01D90320E2E706481C
:1007F000406800F40030B0F5003FF0D10020D9E7A8
:100800004038024000000E420070004070B50446BF
:100810000E460025A748006800F00F00B0426FD2D6
:10082000A4490E700846006800F00F00B04201D0E5
:10083000012070BD207800F00200022807D19E48F8
:10084000006820F0F000A16808439B490860207808
:1008500000F0010000283ED06068012807D19648CA
:1008600008380068C0F34040B8B90120E1E760688B
:10087000022802D06068032807D18F480838006832
:10088000C0F3406048B90120D3E78B4808380068BE
:10089000C0F3400008B90120CBE78748006820F08A
:1008A00003006168084384490860FFF7BBFE054602
:1008B0006068012810D108E0FFF7B4FE401B41F248
:1008C0008831884201D90320B3E77B48006800F0F3
:1008D0000C000428F0D1CDE06068022811D108E0B6
:1008E000FFF7A0FE401B41F28831884201D9032066
:1008F0009FE77148006800F00C000828F0D1B9E0CB
:1009000024E06068032810D108E0FFF78BFE401B4D
:1009100041F28831884201D903208AE7664800689D
:1009200000F00C000328F0D1A4E008E0FFF77AFE05
:10093000401B41F28831884201D9032079E75E48A3
:10094000006800F00C000028F0D193E0207800F05F
:100950000200022807D15848006820F0F000A16882
:10096000084355490860207800F00100002877D03E
:100970006068012807D1504808380068C0F340403B
:10098000B8B9012055E76068022802D060680328E2
:1009900007D1494808380068C0F3406048B90120D1
:1009A00047E7454808380068C0F3400008B901200F
:1009B0003FE74148006820F00300616808433E4972
:1009C0000860FFF72FFE05466068012810D108E097
:1009D000FFF728FE401B41F28831884201D90320ED
:1009E00027E73548006800F00C000428F0D137E014
:1009F0006068022810D108E0FFF714FE401B41F2A6
:100A00008831884201D9032013E72B48006800F0A1
:100A10000C000828F0D123E06068032810D108E01A
:100A2000FFF700FE401B41F28831884201D90320C4
:100A3000FFE62148006800F00C000328F0D10FE029
:100A400008E0FFF7EFFD401B41F28831884201D9F1
:100A50000320EEE61848006800F00C000028F0D1F2
:100A600014490E700846006800F00F00B04201D033
:100A70000120DEE6207800F00400042807D10E48AB
:100A8000006820F4E050E16808430B4908602078D2
:100A900000F00800082808D10748006820F46040EA
:100AA000216940EAC100044908600F20FFF7E6FD14
:100AB0000020BEE6003C02400838024010B500F0BD
:100AC00045F80949096801F0F001F02292FAA2F212
:100AD000B2FA82F2D140054A515CC840044908602C
:100AE0000846006810BD000008380240A246000811
:100AF0008400002010B5FFF7E1FF0749096801F401
:100B0000E0514FF4E05292FAA2F2B2FA82F2D140EE
:100B1000024A515CC84010BD08380240A246000895
:100B200010B5FFF7CBFF0749096801F460414FF4A6
:100B3000604292FAA2F2B2FA82F2D140024A515CC9
:100B4000C84010BD08380240A246000870B5002118
:100B5000002200230020274C246804F00C0424B158
:100B6000042C04D0082C41D103E0234840E0234862
:100B70003EE0204C241F246804F03F011D4C241F3C
:100B8000246804F4800484B11C4CB4FBF1F5194CC6
:100B9000241F246847F6C076344096FAA6F6B6FAC3
:100BA00086F6F44005FB04F20FE0134CB4FBF1F5BC
:100BB000104C241F246847F6C076344096FAA6F6F7
:100BC000B6FA86F6F44005FB04F20A4C241F2468AA
:100BD00004F440344FF4403595FAA5F5B5FA85F59F
:100BE000EC40641C6300B2FBF3F001E0024800BF7C
:100BF00000BF70BD083802400024F40040787D0139
:100C000038B504460025207800F00100002866D0A1
:100C1000F748006800F00C0004280DD0F448006884
:100C200000F00C00082813D1F148001F006800F400
:100C30008000B0F5800F0BD1ED4808380068C0F394
:100C4000404000284BD06068002848D1012038BDC2
:100C50000020E749891F0870FFF7E4FC054608E01B
:100C6000FFF7E0FC401B41F28831884201D90320A4
:100C7000EDE7DF4808380068C0F340400028EFD1B6
:100C80002079DB49891F08706068A0B1FFF7CAFCB2
:100C9000054608E0FFF7C6FC401B41F28831884258
:100CA00001D90320D3E7D24808380068C0F3404098
:100CB0000028EFD013E0FFF7B5FC054608E0FFF78A
:100CC000B1FC401B41F28831884201D90320BEE7C4
:100CD000C74808380068C0F340400028EFD12078AA
:100CE00000F00200022869D1C148006800F00C0041
:100CF00058B1BF48006800F00C00082821D1BC485A
:100D0000001F006800F48000D8B9B94808380068AE
:100D1000C0F3400020B1E068012801D0012096E72F
:100D2000B3480838006820F0F800F82292FAA2F2DE
:100D3000B2FA82F2216991400843AD49083908604E
:100D40003CE0E06828B30120AA490860FFF76AFC8C
:100D5000054606E0FFF766FC401B642801D9032026
:100D600075E7A34808380068C0F340000028F1D0B8
:100D70009F480838006820F0F800F82292FAA2F2A2
:100D8000B2FA82F221699140084399490839086012
:100D900014E0002097490860FFF744FC054606E090
:100DA000FFF740FC401B642801D903204FE790481F
:100DB00008380068C0F340000028F1D1207800F026
:100DC000080008282CD16069A8B101208A49086070
:100DD000FFF728FC054606E0FFF724FC401B6428CB
:100DE00001D9032033E782486C300068C0F340002B
:100DF0000028F1D014E000207F490860FFF712FCC2
:100E0000054606E0FFF70EFC401B642801D90320CD
:100E10001DE777486C300068C0F340000028F1D12E
:100E2000207800F0040004286FD100BF002000905B
:100E30006F483830006840F080506D4938310860A4
:100E40000846006800F08050009000BF00BF6B486B
:100E5000006840F4807069490860FFF7E3FB0546CD
:100E600006E0FFF7DFFB401B642801D90320EEE614
:100E70006248006800F480700028F2D000205C49CD
:100E800068310870FFF7CEFB054608E0FFF7CAFBA4
:100E9000401B41F28831884201D90320D7E65448EB
:100EA00068300068C0F340000028EFD1207A504934
:100EB00068310870A068A0B1FFF7B4FB054608E0F0
:100EC000FFF7B0FB401B41F28831884201D9032073
:100ED000BDE6474868300068C0F340000028EFD006
:100EE00013E0FFF79FFB054608E0FFF79BFB401B65
:100EF00041F28831884201D90320A8E63C48683095
:100F00000068C0F340000028EFD1A069F0B3384872
:100F1000006800F00C00082872D0A069022850D1A7
:100F2000002034490866FFF77DFB054606E0FFF721
:100F300079FB401B642801D9032088E62C48083837
:100F40000068C0F340600028F1D1D4E907010843EC
:100F500047F6C07292FAA2F2B2FA82F2616A914046
:100F600008430122A16AC2EB51014FF4403292FAC8
:100F7000A2F2B2FA82F2914008434FF0706292FA04
:100F8000A2F2B2FA82F2E16A914000E03AE008434C
:100F90001749091F0860012016490866FFF742FB40
:100FA000054606E0FFF73EFB401B642801D90320FD
:100FB0004DE60F4808380068C0F340600028F1D0C3
:100FC00020E000200B490866FFF72CFB054606E0F1
:100FD000FFF728FB401B642801D9032037E60448AB
:100FE00008380068C0F340600028F1D10AE007E04B
:100FF0000838024000004742800E4742007000401F
:10100000012024E6002022E6042808D14FF0E02148
:10101000096941F004014FF0E022116107E04FF04F
:10102000E021096921F004014FF0E02211617047CD
:1010300070B504462546681EB0F1807F01D30120BB
:101040000FE0681E4FF0E02148610F214FF0FF30A4
:1010500000F0CCFB00204FF0E02188610720086100
:10106000002070BD7047704710B5044633480078C3
:1010700000F0800000285FD13048007800F0400088
:10108000D8B12E48007840F080002C4908700C211F
:101090002B4800F04DF92B49086029480068006A88
:1010A0004DF6FF7108402649096808622448006827
:1010B000006A2349096808623EE000201F49087061
:1010C000204908601D48007840F040001B49087026
:1010D00000BF1B480068006A41F21111084068B95E
:1010E00017480068006A8910084038B91448006839
:1010F000006820F0010012490968086000BF002064
:101100000F49096848620E480068006A4DF6FF7191
:1011100008400B490968086209480068006A40F401
:10112000005007490968086205480068006840F0F7
:10113000010003490968086010BD0000F0000020AC
:10114000E4040020F400002010B504462068006983
:10115000C0F34000D8B12068C068C0F34000B0B10F
:101160006FF0020021680861012020762068806904
:1011700000F0030018B12046FFF776FF05E0204697
:1011800000F0ADF8204600F0ABF800202076206893
:101190000069C0F38000D8B12068C068C0F3800047
:1011A000B0B16FF004002168086102202076206849
:1011B000806900F4407018B12046FFF755FF05E044
:1011C000204600F08CF8204600F08AF800202076B7
:1011D00020680069C0F3C000D8B12068C068C0F3BF
:1011E000C000B0B16FF008002168086104202076CB
:1011F0002068C06900F0030018B12046FFF734FFF3
:1012000005E0204600F06BF8204600F069F8002069
:10121000207620680069C0F30010D8B12068C0684B
:10122000C0F30010B0B16FF0100021680861082011
:1012300020762068C06900F4407018B12046FFF79E
:1012400013FF05E0204600F04AF8204600F048F879
:10125000002020762068006900F0010058B1206865
:10126000C06800F0010030B16FF001002168086132
:10127000204600F037F820680069C0F3C01058B16C
:101280002068C068C0F3C01030B16FF080002168E2
:1012900008612046FFF7E6FE20680069C0F3801071
:1012A00058B12068C068C0F3801030B16FF04000C2
:1012B00021680861204600F065F820680069C0F3E5
:1012C000401058B12068C068C0F3401030B16FF0D2
:1012D0002000216808612046FFF7C5FE10BD704759
:1012E000704700001049097801F08001D1B90E491A
:1012F000097801F04001A9B10B49097801F03F01DB
:101300003F290AD10849097841F08001064A117045
:101310004FF0FF31054A116004E003490978491C88
:10132000014A117070470000F0000020F400002016
:101330000246002300BF92F83800012801D10220A4
:101340007047012082F8380000BF31B1042907D06E
:10135000082908D00C290CD108E01068436B09E07B
:101360001068836B06E01068C36B03E01068036CC1
:1013700000E000BF00BF00BF002082F8380000BFBF
:101380001846DDE770477047F8B50446002500268B
:101390002068006800F001052068C06800F48076CD
:1013A0007DB176B100BF00200090206800680090F9
:1013B00020684068009000BF00BFE06B40F0010073
:1013C000E06320680068C0F340052068406900F0D1
:1013D00001067DB176B100BF002000902068006852
:1013E000009020684068009000BF00BFE06B40F0B4
:1013F0000400E06320680068C0F38005206840694D
:1014000000F001067DB176B100BF00200090206899
:101410000068009020684068009000BF00BFE06B4B
:1014200040F00200E06320680068C0F3C005206857
:10143000406900F001067DB176B100BF0020009048
:1014400020680068009020684068009000BF00BFDE
:10145000E06B40F00800E06320680068C0F34015CE
:101460002068C06800F020061DB116B1204600F0CB
:10147000B7FE20680068C0F3C0152068C06800F09F
:1014800080061DB116B1204601F01AF820680068E8
:10149000C0F380152068C06800F040061DB116B189
:1014A000204600F085FEE06B28B1012084F8390069
:1014B0002046FFF768FFF8BD10B504460CB90120BF
:1014C00010BDA06900B100E000BF94F8390028B950
:1014D000002084F83800204600F026F8022084F826
:1014E00039002068C06820F400502168C860204698
:1014F00000F0D4FE2068006920F490402168086163
:101500002068406920F02A00216848612068C0688E
:1015100040F400502168C8600020E063012084F896
:1015200039000020CCE7000010B586B004465049D1
:10153000206888424BD100BF002000904D480068D1
:1015400040F001004B4908600846006800F00100C7
:10155000009000BF00BF00BF00200090454814303D
:10156000006840F0100043491431086008460068E4
:1015700000F01000009000BF00BF4815019002204D
:10158000029001200390022004900720059001A9F9
:101590003948FEF72BFF4FF48060019001A93648CF
:1015A000FEF724FF2068C06820F040002168C86072
:1015B0002068C06840F020002168C8602520FFF73F
:1015C00074F8032211462520FFF77CF84DE02B49E3
:1015D0002068884249D100BF00200090254800685B
:1015E00040F00100234908600846006800F001004F
:1015F000009000BF00BF00BF002000901D481030C9
:10160000006840F400301B4910310860084600684B
:1016100000F40030009000BF00BF042001900220C1
:10162000029001200390022004900720059001A958
:101630001148FEF7DBFE0820019001A90E48FEF7D5
:10164000D5FE2068C06820F040002168C86020688E
:10165000C06840F020002168C8602620FFF725F808
:10166000032211462620FFF72DF806B010BD00001A
:1016700000100140303802400000024000440040A9
:101680002DE9F04704460D46164699464FF00008EE
:1016900094F83980B8F1010F02D0B8F1120F69D176
:1016A00005B116B90120BDE8F08700BF94F83800F5
:1016B000012801D10220F6E7012084F8380000BF9C
:1016C0000020E06394F83900122803D1322084F816
:1016D000390002E0222084F83900A685E68535E04D
:1016E000E08D401EE085A068B0F5805F18D14B46C4
:1016F00000222021204600F01BFF08B10320D2E782
:101700002F46206930B920684068C0F3080038804F
:10171000AD1C1BE020684068C0B238806D1C15E02D
:101720004B4600222021204600F002FF08B1032092
:10173000B9E7206920B92068406805F8010B05E089
:101740002068406800F07F0005F8010BE08D00285C
:10175000C6DC94F83900322803D1122084F839000D
:1017600002E0012084F8390000BF002084F838002E
:1017700000BF98E7022096E77047704700BFFEE77A
:1017800010B50446412C24D108210846FEF720FE5E
:101790003D21112000F0DCFF8621172000F0D8FF4A
:1017A0007F21262000F0D4FF1E212D2000F0D0FF45
:1017B00000212C2000F0CCFF8D212A2000F0C8FF52
:1017C0003E212B2000F0C4FF022001F005FF00F0B5
:1017D00021F810BD00BFFEE7704700000248006816
:1017E000C0F30220704700000CED00E010B50028A7
:1017F00007DA0A07140E054A00F00F031B1FD45422
:1018000003E00A07130E024A135410BD18ED00E05E
:1018100000E400E010B5142000F008FB044604F0DA
:10182000030018B90321142000F0C7FB10BDF0B568
:1018300087B00546002708210846FEF7C9FD0021AC
:101840000D2000F085FF80210E20FEF7C1FD9320C2
:101850008DF8080020208DF8090001A802AB0222B3
:1018600002A900900C2000F051F8064686B9002429
:1018700007E002A8005D285502A8005D4740601CF3
:10188000C4B2042CF5DB02A8005DB84200D00226E9
:1018900080210E2000F091FB304607B0F0BD2DE90D
:1018A000F04387B006460F46904699468DF808608B
:1018B0008DF80970002406E018F8041002AAA01C94
:1018C0001154601CC4B2062CF6DB002407E019F8A2
:1018D000041002AA04F108001154601CC4B2062CC2
:1018E000F5DB01A802AB0C2202A900900E2000F04B
:1018F0000DF805462DB9082000F098FA00F0080010
:1019000000B90225284607B0BDE8F0832DE9FE4F57
:101910000646884691469A46DDF830B0022002908D
:101920000020019000900C2E06D00E2E09D112201E
:1019300001901020009005E0772001903020009069
:1019400000E000BF00BF019840F08001022000F0DD
:10195000FFFE80210420FEF73BFD0021012000F066
:10196000F7FE80210A2000F028FB002505E018F88A
:101970000510092000F0ECFE6D1C4D45F7D33146F3
:10198000012000F0E5FE0C2E03D180210D2000F097
:1019900014FB4FF47A7500BF042000F047FA0446A8
:1019A0006D1E35B104F0010018B9009820400028E0
:1019B000F2D080210D20FEF70BFD95B3062000F03C
:1019C00035FA00F01B0068BB00200290019820400F
:1019D00000F0010008B1012002900C2E24D10A2051
:1019E00000F024FA04460C2000F020FA00F007076B
:1019F0002FB1601E07EBC000CBF8000002E0E00052
:101A0000CBF8000004B90124122C00DD12240025BB
:101A100005E0092000F00AFA0AF805006D1CA5424D
:101A2000F7D301E00220029080210C2000F0C5FADB
:101A30000021012000F08CFE0298BDE8FE8FF0B579
:101A400087B005460E4630208DF808008DF8095005
:101A50000DF10A02022102A8FEF784FC01A802ABE4
:101A6000042202A900900C20FFF750FF074667B937
:101A70000198902809D1002404E002A8005D3055A7
:101A8000601CC4B2102CF8DB00E00227384607B017
:101A9000F0BD70B588B005460C4608210846FEF733
:101AA00097FC07210D2000F053FE0321142000F0C5
:101AB00084FA8DF80C5002A803AB012203A9009010
:101AC0000C20FFF723FF06464EB90298102806D1D6
:101AD0009DF80C0020709DF80D00607000E002265B
:101AE000304608B070BD000010B5012280211F48AB
:101AF000FEF792FD012001F06FFD002280211B48BE
:101B0000FEF78AFD012001F067FD012280211748C0
:101B1000FEF782FD012001F05FFD0F21012000F0A2
:101B200017FE00BF012000F081F900F0100000282E
:101B3000F8D1012001F050FD3D21112000F008FEF8
:101B40001E212D2000F004FE00212C2000F000FEBC
:101B50008D212A2000F0FCFD3E212B2000F0F8FD15
:101B60004021152000F0F4FD10BD000000040240EB
:101B700070B588B0054693208DF80C0070208DF864
:101B80000D0000208DF8120000240BE0295D03AA4F
:101B9000A01C11549DF81200295D48408DF81200D8
:101BA000601CC4B2042CF1DB0DF11302072103A861
:101BB000FEF7D8FB08210846FEF70AFC02A803AB93
:101BC000092203A900900C20FFF7A0FE064626B9C3
:101BD0000298182801D1002600E00226304608B0FD
:101BE00070BD704710B573495220FFF752FF72491C
:101BF00008700846007830B9022008706F48FFF777
:101C000016FE6D4908706C48007800287ED16C493A
:101C1000086011E000206B490860022001F0D0FC50
:101C200001206949C1F8AC02022001F0C9FC6448F6
:101C30000068401C62490860614800686428E9DB6C
:101C400002205D4908705D4800F0C4F95B480078E7
:101C50005E490978884214D1584840785B494978F0
:101C600088420ED15548807858498978884208D1F1
:101C70005248C0785549C978884202D10120544958
:101C800008704E48007853490978884214D14B486F
:101C900040785049497888420ED1484880784D496B
:101CA0008978884208D14548C0784A49C97888422D
:101CB00002D1012048490870404800784749097816
:101CC000884214D13D4840784449497888420ED131
:101CD0003A48807841498978884208D13748C078A5
:101CE0003E49C978884202D101203D4908703348F5
:101CF00000783C490978884216D130484078394903
:101D00004978884210D12D48807800E02CE0354990
:101D10008978884208D12948C0783249C9788842F0
:101D200002D1012030490870244800782F490978F1
:101D3000884214D1214840782C49497888420ED1F4
:101D40001E48807829498978884208D11B48C07884
:101D50002649C978884202D10120254908701748D0
:101D6000FFF706FF144908701348007850B90220A5
:101D700011490870114B1F4A09216020FFF78FFDA0
:101D80000D4908700C48007848B902200A490870CB
:101D900019491A480078FFF752FE074908700648AB
:101DA000007828B9022004490870642001F008FC7A
:101DB00010BD0000B0000020EC000020B2000020A8
:101DC000AC000020AC82414200804142BC000020B7
:101DD000B6000020C0000020B7000020C400002092
:101DE000B8000020C8000020B9000020CC0000206E
:101DF000BA000020D0000020AC040020ED0000203C
:101E000010B500F02FF8012280210748FEF704FCEE
:101E1000012208210448FEF7FFFBFFF765FE412081
:101E2000FFF7AEFC10BD00000004024070B5044690
:101E30007E2000EA440040F0800500220821084886
:101E4000FEF7EAFB284600F089F800F05DF8064648
:101E5000012208210248FEF7DFFB304670BD00007A
:101E60000004024000B587B000BF00200190244864
:101E7000006840F00200224908600846006800F04F
:101E80000200019000BF00BF0820029001200390D3
:101E90000220059002A91B48FEF7A8FA1020029024
:101EA000012003900220059002A91648FEF79EFA31
:101EB0004FF480700290002003900220059002A948
:101EC0001048FEF793FA4020029001200390022070
:101ED000059002A90B48FEF789FA802002900120A4
:101EE0000390022005900120049002A90548FEF706
:101EF0007DFA012280210348FEF78EFB07B000BD6A
:101F0000303802400004024070B500251FE0600632
:101F1000040E002210211048FEF77EFB142001F071
:101F20005BFB4FF480710C48FEF76EFB012801D17A
:101F300044F00104142001F04FFB01221021064857
:101F4000FEF76AFB142001F047FB681CC5B2082DA0
:101F5000DDDB204670BD00000004024070B5044681
:101F6000002524E004F0800028B10122402111481E
:101F7000FEF752FB04E0002240210E48FEF74CFB26
:101F8000142001F029FB002210210A48FEF744FB2F
:101F9000142001F021FB012210210648FEF73CFB32
:101FA000142001F019FB6006040E681CC5B2082D50
:101FB000D8DB70BD00040240704770B505460C4682
:101FC0002846FFF733FF064646EA0401284600F09C
:101FD000BFFB70BD30B50146002046E00A5CD31758
:101FE00002EB13731B11244C04F81030224612F834
:101FF0001020092A07DD224612F810203732234626
:1020000003F8102006E01C4A12F8102030321A4B58
:1020100003F810200A5CD31702EB13731B11A2EB19
:102020000313012404EB4004134D2B55012202EB52
:1020300040022B469A5C092A0ADD012202EB40028B
:102040009A5C3732012303EB40032C46E2540AE04A
:10205000012202EB4002084B9A5C3032012303EB71
:102060004003054CE254421CD0B20428B6DB0022E7
:10207000014B1A7230BD0000CA0100202DE9F04169
:1020800092B00546884616461F46002400BF002031
:1020900000902648006840F08050244908600846B7
:1020A000006800F08050009000BF00BF00BF00201B
:1020B00000901F48006840F440401D4908600846F1
:1020C000006800F44040009000BF00BF012006906F
:1020D000079002200C9041050D91CDF838800F95A6
:1020E0001096119706A8FEF78BFD04460CB100BFB1
:1020F000FEE7FEF739FB04460CB100BFFEE70F20F8
:10210000019002200290002003904FF4A050049010
:102110004FF480500590052101A8FEF777FB044697
:102120000CB100BFFEE712B0BDE8F08140380240BC
:102130000070004010B5FEF77BFA10BD144800682F
:1021400040F47000124908601248006840F0010035
:102150001049086000200F49083108600D480068E8
:102160000D4908400B4908600C48091D0860081F0C
:10217000006820F48020091F0860002005490C3108
:1021800008604FF000600249803908607047000025
:1021900088ED00E000380240FFFFF6FE103000241A
:1021A00010B50248FEF7D0FF10BD0000E404002087
:1021B00010B504462068C06820F040002168C8605F
:1021C00094F83900322803D1222084F8390002E043
:1021D000012084F839002046FFF7CFFA002010BD17
:1021E00070B50446002694F83960222E01D0322EB4
:1021F00052D1A068B0F5805F13D1A56A206940B9BB
:1022000020684068C0F308002880A06A801CA06293
:1022100019E020684068C0B22880A06A401CA06213
:1022200011E0206938B920684068C1B2A26A501C28
:10223000A062117007E02068406800F07F01A26A88
:10224000501CA0621170E08D401E80B2E08508BB7A
:102250002068C06820F020002168C86094F8390028
:10226000322803D1122084F839000EE02068C068BB
:1022700020F480702168C8602068406920F0010067
:1022800021684861012084F839002046FFF774FA7C
:10229000002070BD0020FCE70220FAE72DE9F041A4
:1022A000044600252068056925F44055E06805438B
:1022B000206805612068C56849F20C608543216982
:1022C000A068084361690843E16908430543206841
:1022D000C5602068456925F44075A06905432068FC
:1022E0004561E069B0F5004F72D1734920688842BA
:1022F00003D072492068884234D1FEF711FC00EB0C
:10230000C00101EB001061684900B0FBF1F06421ED
:10231000B0FBF1F6FEF704FC00EBC00101EB00108E
:1023200061684900B0FBF1F7FEF7FAFB00EBC00172
:1023300001EB001061684900B0FBF1F06421B0FBD3
:10234000F1F000EBC00101EB0010A7EB800032219F
:1023500001EB00106421B0FBF1F066F31F1021685F
:102360008860A6E0FEF7C6FB00EBC00101EB0010A1
:1023700061684900B0FBF1F06421B0FBF1F6FEF7B3
:10238000B9FB00EBC00101EB001061684900B0FB34
:10239000F1F7FEF7AFFB00EBC00101EB0010616845
:1023A0004900B0FBF1F06421B0FBF1F000EBC0019B
:1023B00001EB0010A7EB8000322101EB001064213B
:1023C000B0FBF1F066F31F102168886071E0FFE751
:1023D00039492068884203D038492068884234D17E
:1023E000FEF79EFB00EBC00101EB00106168890065
:1023F000B0FBF1F06421B0FBF1F6FEF791FB00EBCE
:10240000C00101EB001061688900B0FBF1F7FEF735
:1024100087FB00EBC00101EB001061688900B0FB95
:10242000F1F06421B0FBF1F000EBC00101EB001012
:10243000A7EB8000322101EB00106421B0FBF1F02A
:1024400066F31F102168886033E0FEF753FB00EB52
:10245000C00101EB001061688900B0FBF1F064215C
:10246000B0FBF1F6FEF746FB00EBC00101EB0010FC
:1024700061688900B0FBF1F7FEF73CFB00EBC0019F
:1024800001EB001061688900B0FBF1F06421B0FB42
:10249000F1F000EBC00101EB0010A7EB800032214E
:1024A00001EB00106421B0FBF1F066F31F1021680E
:1024B0008860BDE8F0810000001001400014014078
:1024C00010B50146002391F83930122B01D0322B80
:1024D0002CD18868B0F5805F0FD10A6A1088C0F3EC
:1024E00008000C686060086918B9086A801C0862F6
:1024F00009E0086A401C086205E00C6A601C08627A
:1025000020780C686060C88C401E80B2C88458B9BE
:102510000868C06820F080000C68E0600868C06847
:1025200040F040000C68E060002010BD0220FCE795
:102530002DE9F04104460E4617461D464FF00008AF
:10254000FEF770F880469FBB2BE0681C48B32DB1A6
:10255000FEF768F8A0EB0800A84222D92068C068FE
:1025600020F080002168C8602068C06820F020004A
:102570002168C8602068C06820F480702168C86045
:102580002068406920F0010021684861012084F83A
:10259000390000BF002084F8380000BF0320BDE8E8
:1025A000F081206800683040B04202D1012001E093
:1025B00003E000200028C8D035E02AE0681C40B3C2
:1025C0002DB1FEF72FF8A0EB0800A84221D9206812
:1025D000C06820F080002168C8602068C06820F0D2
:1025E00020002168C8602068C06820F480702168DD
:1025F000C8602068406920F001002168486101201E
:1026000084F8390000BF002084F8380000BF0320A0
:10261000C5E7206800683040B04201D1012000E0E9
:1026200000200028CAD10020B9E7000008B52048E2
:1026300000680068C0F3401018B34FF47A730122A9
:1026400069461B48FFF71CF81A4800780020C0B9FB
:1026500018480078002060B19DF800000A2803D0D7
:102660000020144908701EE01248007811490870D3
:1026700019E09DF800000D2804D10E4800780D499E
:10268000087010E09DF800100A4800780A4A1154BA
:1026900008480078401C0749087008460078C72899
:1026A00001DD002008700248FEF76EFE08BD000044
:1026B0002C040020A60000209C02002008B5204821
:1026C00000680068C0F3401018B34FF47A73012219
:1026D00069461B48FEF7D4FF1A4800780020C0B9AD
:1026E00018480078002060B19DF800000A2803D047
:1026F0000020144908701EE0124800781149087043
:1027000019E09DF800000D2804D10E4800780D490D
:10271000087010E09DF800100A4800780A4A115429
:1027200008480078401C0749087008460078C72808
:1027300001DD002008700248FEF726FE08BD0000FB
:102740006C040020A70000206403002000BFFEE707
:1027500070B504460D467E2000EA4406002208219A
:102760000748FDF759FF3046FFF7F8FB2846FFF70B
:10277000F5FB012208210248FDF74EFF70BD000065
:102780000004024003B401984100009850EAC120BF
:1027900018BF04204A0D18BF40F0010040F2FF723C
:1027A000B2EB515F08BF40F00200012808BF0520CE
:1027B00002B07047000000002DE9F04D2DED040B34
:1027C0002DED0E8B96B0DDE92550279CDDF890A00D
:1027D00025F0004624F00048BAF1000F14BF012193
:1027E000002101EB4502FC4953184A1093422AD3B9
:1027F000002814BF0123002303EB44030B44F749D3
:102800008B4220D358EA00019FEDF59B76D0DFF88C
:10281000D8B35D4503D1BAF1000F05D188E0BAF114
:10282000000F08BF002100D0012101EB450111F587
:10283000001F08D8002814BF0121002101EB44012A
:1028400011F5001F0BD99DED261B9DED240B16B035
:10285000BDEC0E8B04B0BDE8F04D00F069BE002762
:10286000002DBCBFE149884521DAE1498845A8BF70
:1028700002271CDAC3451ADCDE4901EB2851142972
:1028800008DDC1F1340220FA02F101FA02F28242BB
:102890000DD108E058B9C1F1140228FA02F101FA89
:1028A00002F2424503D101F00101C1F1020756EAEB
:1028B0000A0124D1002C22DA002D18BF022F01D0EA
:1028C000012F0AD00220FDF70FFD16B0BDEC0E8BD4
:1028D00004B0BDE8F04D00F013BE0220FDF704FD8A
:1028E00000F00EFE51EC100B01F04CF841EC100B17
:1028F00016B0BDEC0E8B04B0BDE8F08D18E09FED76
:10290000BEAB9FEDBF8B002871D1B848804522D166
:1029100005F1804010F5801008BFBAF1000F07D014
:10292000B3450ADC002CA8BF9DED260BE0DA0DE0D4
:10293000B0EE490AF0EE690ADAE7002C06DA9DEDFE
:10294000260B51EC100B01F01DF86FE0AE487844F7
:1029500090ED000BCCE7D8454DD1002C48DA2EB1D4
:1029600086423AD1BAF1000F42D126E0BAF1000F07
:1029700013D00220FDF7B8FC00F0F6FD8DED020B40
:102980009DED240B8DED000B10EE900A039961F381
:102990001E0003909DED020BAAE78DED02AB9DEDAD
:1029A000240B1AEE901A10EE900A8DED000B61F3D5
:1029B0001E0003909DED020B9AE78DED028B9DEDBD
:1029C000240B18EE901A10EE900A8DED000B61F3B7
:1029D0001E0003909DED020B8AE709DA9DED240BA2
:1029E00051EC190B53EC102B01F0C6F81EE020E05F
:1029F0009DED240B7CE786421BDAB4F1804F0DD0AD
:102A0000A4F10050B0F1FF5013D1002D11DB9DED6A
:102A1000240B51EC100B00F051FF07E09DED240B4F
:102A200053EC102B51EC100B00F0C2BC41EC100B1E
:102A30005EE79DED240B51EC100B00F0F1FDBAF1B7
:102A4000000FCDE90E0142D19FED710B46B3A6F107
:102A5000E040B0F17F600CD05E4538D1002D00DA47
:102A6000A7B3022F0CBF01204FF0FF3001F0DCF9BB
:102A7000DCE7002D01DD002C0DDA002D01DD002C3E
:102A80001FDB002D16DA002C14DB012F08BF9FED91
:102A9000620B3FF42DAFB0EE4A0AF0EE6A0A27E768
:102AA000022F18BF002D0CD0012F0AD1002DFFF6E8
:102AB0001FAF06E0002DB8BF002C08DA012F3FF44D
:102AC00017AFB0EE480AF0EE680A11E71BE00120EC
:102AD00000EBE57050EA070115D0791EB0EE498A87
:102AE000F0EE698A084308BF9FED4D8B4E480025E4
:102AF000804570DD4D494E48884514DDB0420DDB00
:102B0000002C19DB2FE00120FDF7EEFB16B0BDEC29
:102B10000E8B04B0BDE8F04D00F016BDB34502DCED
:102B2000002C09DC1FE0864202DA002C1BDA03E0ED
:102B30005E452BDD002C16DD0220FDF7D5FB00F0F5
:102B400013FD8DED020B53EC1A2B51EC180B01F019
:102B5000BFF9CDE900010399019861F31E000390CC
:102B60009DED020BC4E60220FDF7BEFB00F00CFD5C
:102B700010EE901A18EE900A8DED020B8DED008B81
:102B800061F31E0003909DED020BB1E69DED0E0B6F
:102B900053EC192B51EC100B01F0A6FB9FED260B0B
:102BA000CDE9080153EC102B9DED080B51EC100BF7
:102BB00001F08EF99FED221B53EC112B01F0BCFAB2
:102BC0009DED081B53EC112B01F082F99FED1E1BAC
:102BD00053EC112B3CE08CE0FFFF1F00FFFF0F00C8
:102BE000000000000000F03F0000F03F0000F07F18
:102BF0000000404301FCFFFF000000000000F07FE8
:102C00000000000000000000EE1D000000000000B9
:102C10000000000000000080000000000000F0FF45
:102C2000000000000000F0BF0000E0410000F043A1
:102C3000FFFFEF3F00000000000000000000D03F59
:102C4000555555555555D53F000000000000E03F53
:102C500001F072FA9DED080B41EC1A0B53EC102BAE
:102C600051EC100B01F034F953EC1A2B01F030F950
:102C700041EC1A0B9FEDFE0B53EC102B9DED080B56
:102C800051EC100B01F024F941EC1B0B9FEDFA0BFA
:102C900051EC1A0B53EC102B01F01AF941EC1A0B02
:102CA0009FEDF70B53EC102B9DED080B51EC100B27
:102CB00001F00EF953EC1A2B01F016FB41EC1A0B44
:102CC00051EC1B0B53EC1A2B00F09AFE0690CDE949
:102CD00006519DED060B53EC1B2B51EC100B01F034
:102CE00003FB53EC1A2B01F027FA41EC100B00F018
:102CF000A1B90020B6F5801F0EDA9FEDE30B53EC6F
:102D0000102B9DED0E0B51EC100B01F0E1F8CDE90D
:102D10000E016FF034000E4600EB2650A0F2FF3794
:102D2000C6F31300DA4940F07F6646F04056884209
:102D3000D8BF002408DDD7498142C8BF012403DC85
:102D40000024A6F580167F1CD348784400EBC4000D
:102D50000F9690ED00CB9DED0E0B53EC1C2B51EC20
:102D6000100B01F0C1FA9DED0E0B41EC1B0B53EC67
:102D70001C2B51EC100B00F043FE41EC100B51ECFE
:102D8000190B53EC102B00F0F7FE41EC1D0B51EC2E
:102D90001B0B53EC1D2B01F09BF841EC1A0BBF48A9
:102DA0008DED10AB7844109590ED000B4FF0005076
:102DB00040EA660000EB84408DED080B00F5002032
:102DC00009909DED080B53EC1C2B51EC100B01F0FE
:102DD0008BFA9DED0E1B53EC112B01F0ADF941EC7C
:102DE000100B53EC102B9DED100B51EC100B01F060
:102DF0006FF89DED080B41EC1C0B53EC102B9DED77
:102E0000100B51EC100B01F063F853EC1B2B01F08D
:102E100093F953EC1C2B01F067FA53EC1D2B01F0D6
:102E200057F841EC1C0B53EC1A2B51EC1A0B01F028
:102E30004FF841EC1B0B9A480621B0EE4B0AF0EE1E
:102E40006B0A784400F0E0FAB0EE401AF0EE601A37
:102E5000B0EE41DAF0EE61DA53EC1B2B51EC1B0BB8
:102E600001F036F853EC1D2B01F032F89DED100BFC
:102E700041EC1B0B53EC1A2B51EC100B00F0C0FD76
:102E800053EC1C2B01F024F853EC1B2B00F0B8FD85
:102E90009DED100B41EC1B0B53EC102B51EC100B68
:102EA00001F016F841EC1D0B9FED7FEB53EC1E2B50
:102EB00000F0A6FD53EC1B2B00F0A2FD0890CDE91D
:102EC00008519DED080B53EC1E2B51EC100B01F03B
:102ED0000BFA53EC1D2B01F007FA53EC1B2B01F0FE
:102EE0002BF99DED080B41EC1D0B53EC102B9DEDC8
:102EF000100B51EC100B00F0EBFF41EC1B0B53ECF3
:102F00001A2B51EC1D0B00F0E3FF9DED080B41EC7B
:102F10001A0B53EC102B51EC1C0B00F0D9FF53ECA7
:102F20001A2B00F06DFD41EC1A0B51EC1B0B53EC0E
:102F30001A2B00F065FD0C90CDE90C519DED0C0BAA
:102F400053EC1B2B51EC100B01F0CEF953EC1A2B68
:102F500001F0F2F841EC1B0B9FED550B53EC102BDD
:102F60009DED0C0B51EC100B00F0B2FF41EC1A0B75
:102F70009FED510B51EC1B0B53EC102B00F0A8FFF5
:102F800041EC1B0B9FED4E0B53EC102B9DED0C0BEE
:102F900051EC100B00F09CFF53EC1B2B00F030FDAC
:102FA00041EC100B4848784400EBC40090ED001B46
:102FB00051EC100B53EC112B00F022FD41EC1B0BDC
:102FC000384600F031FFCDE9080153EC1B2B51ECE2
:102FD0001A0B00F015FD41EC100B3C48784400EB57
:102FE000C40090ED00CB51EC100B53EC1C2B00F007
:102FF00007FD9DED081B53EC112B00F001FD069021
:10300000CDE906519DED080B53EC102B9DED060B01
:1030100051EC100B01F068F953EC1C2B01F064F932
:1030200053EC1A2B01F060F953EC1B2B01F084F8E0
:1030300041EC100B9DED261B53EC102B8DED001B6E
:1030400000959DED260B51EC100B00F041FF9DED1E
:10305000000B41EC1A0B53EC102B9DED260B51ECA1
:10306000100B01F041F99DED061B53EC112B2FE0E5
:10307000000000604715F73FFE822B654715F73FBC
:1030800044DF5DF80BAE543E0000000000004043FA
:103090008E9803007AB60B006A1900009819000098
:1030A000A21800000000000000000000000008401E
:1030B000000000E009C7EE3FFD033ADC09C7EE3F20
:1030C000F5015B14E02F3EBE2E170000E81600004D
:1030D00000F0FEFE53EC1A2B00F092FC9DED060B67
:1030E00041EC1A0B53EC102B9DED000B51EC100B27
:1030F00000F0EEFECDE90C019DED0C0B51EC1A0B2E
:1031000053EC102B00F07CFCCDE902010C46AA49DF
:103110008C422FDB611A084318D19DED0C0B53EC48
:10312000102B9DED020B51EC100B01F0DDF841EC82
:103130001B0B9FEDA30B51EC1A0B53EC102B00F063
:103140005FFC53EC1B2B00F0C1FF2DD20220FDF7DA
:10315000CBF800F009FA10EE901A18EE900A8DEDF7
:10316000020B8DED008B61F31E0003909DED020BB1
:10317000FFF7BEBB944A24F00041914214D3934917
:10318000214408437FF4EFAC9DED0C0B53EC102B66
:103190009DED020B51EC100B01F0A6F853EC1A2B2D
:1031A00000F094FF7FF6DFAC24F000408849894AA4
:1031B000002601EB205182422BDA481C4FF480118B
:1031C00021FA00F02044844AC0F30A517A44A1F263
:1031D000FF3192ED000B814A8DED080BCA4020EAC9
:1031E0000202C0F3130040F48010C1F1140120FA70
:1031F00001F60992002CB8BF76429DED080B53EC06
:10320000102B9DED0C0B51EC100B01F06DF8CDE97E
:103210000C019DED0C0B51EC1A0B53EC102B00F034
:10322000EFFB9FED6F0B0890CDE9085153EC102B8D
:103230009DED080B51EC100B00F04AFE41EC1B0B0E
:103240009FED690B53EC102B9DED080B51EC100B0F
:1032500000F03EFE9DED0C0B41EC1C0B53EC102BD3
:103260009DED080B51EC100B01F03EF853EC1A2BBE
:1032700000F062FF9FED5E1B53EC112B00F028FE67
:1032800053EC1C2B00F0BCFB41EC1A0B51EC1B0B5C
:1032900053EC1A2B00F0B4FBCDE902019DED020BBB
:1032A00053EC1B2B51EC100B01F01EF853EC1A2BB6
:1032B00000F042FF9DED020B41EC1A0B53EC102B7A
:1032C00051EC100B00F004FECDE908014A489DEDD9
:1032D000080B0521784400F097F89DED081B51EC90
:1032E000100B53EC112B00F0F3FD9DED021B53EC82
:1032F000112B00F021FFCDE906019DED020B53ECEF
:103300001A2B51EC100B00F0E3FD53EC1A2B00F0DC
:1033100077FB9FED3B0B41EC1A0B53EC102B9DED13
:10332000060B51EC100B00F0DFFF9DED060B41EC9E
:103330001B0B53EC102B9DED020B51EC100B00F00E
:10334000C7FD53EC1B2B00F017FC53EC1A2B00F0BD
:10335000CBFF9DED021B53EC112B00F0C5FF53EC8E
:10336000192B00F0E9FECDE9020101EB0650011531
:103370000029C8BF039015DC9DED020B324651ECCD
:10338000100B01F048F9FFF7FDF9042808BF00F021
:10339000FBF832469DED020B51EC100B01F03BF9AE
:1033A000CDE902019DED020B51EC180B53EC102BF3
:1033B00000F08EFDFFF73ABB0000904000000000D7
:1033C000FE822B654715973C00CC904000346F3F40
:1033D00001FCFFFF0000E03F70150000FFFF0F0041
:1033E00000000000432EE63F396CA80C615C20BE53
:1033F000EF39FAFE422EE63F4014000000000000C4
:10340000000000000000004070B504462DED028B66
:103410004D1E00EBC500B0EE408AF0EE608A90EDE4
:10342000000B35F0060017D053EC182B51EC100BA5
:1034300000F04EFD41EC100B6D1E04EBC50090ED4D
:10344000001B51EC100B53EC112B00F0D9FA41EC9E
:10345000100B35F00600E7D1022D36D0042D1CD01C
:10346000062D1CBFBDEC028B70BD53EC182B51EC2C
:10347000100B00F02DFD94ED0A1B53EC112B00F006
:10348000BFFA53EC182B00F023FD94ED081B53EC0E
:10349000112B00F0B5FA41EC100B53EC182B51EC4A
:1034A000100B00F015FD94ED061B53EC112B00F0F2
:1034B000A7FA53EC182B00F00BFD94ED040B53EC22
:1034C000102B00F09DFA41EC100B53EC182B51EC33
:1034D000100B00F0FDFC94ED021B53EC112B00F0DF
:1034E0008FFA53EC182B00F0F3FC94ED001B53EC17
:1034F000112B00F085FABDEC028B41EC100B70BD76
:103500009FED070B10B553EC102B9FED070B51EC03
:10351000100B00F031FB41EC100B10BD000000005F
:103520000000000000000000000000000000F03F6C
:1035300010B553EC112B51EC100B00F061FA41EC7B
:10354000100B10BD000000009FED050B10B553ECF3
:10355000102B51EC100B00F00FFB41EC100B10BDC9
:1035600000000000000000009FED050B10B553ECBB
:10357000102B51EC100B00F0ABFC41EC100B10BD0C
:1035800000000000000000709FED050B10B553EC2B
:10359000102B51EC100B00F09BFC41EC100B10BDFC
:1035A000000000000000001000BF704710B5044686
:1035B0000420FDF729FD0148046010BD9C00002097
:1035C00030B50446002504E04FF47A7000F004F8AA
:1035D0006D1CA542F8D330BD70B5034600224FF0F4
:1035E000E02675690D4E366803FB06F44FF0E026C1
:1035F000B16910E04FF0E026B06988420BD08842F4
:1036000002D20E1A324402E02E1A0E44324401460F
:10361000A24200D300E0EDE700BF70BD9C00002097
:1036200082B0CDE9000121F0004001909DED000B3A
:1036300002B051EC100B70472DED0C8B0024FCF701
:10364000FFFF0823022219214FF4B470FEF716FD84
:10365000B420FFF7ABFF4FF4165000F07DF94FF4A4
:10366000E13000F063F9FEF7CBFB06E1FEF7BAFAB2
:1036700082480068401C81490860084600680A28A2
:10368000F3DB002410E07E48005D303800EE100AC5
:10369000B8EEC00A7B48D0ED000AB2EE041A00EE84
:1036A000810A80ED000A641C7548005D302803DB48
:1036B0007348005D3928E6DD7148005D2E284CD145
:1036C000641C37E070480068401C6F4908606C4912
:1036D000095DA1F1300000F0A7FB41EC1B0B6A482B
:1036E000006800F0A1FB41EC1D0BB0EE4D1AF0EEAE
:1036F0006D1A9FED660BFFF75FF8B0EE40CAF0EE73
:1037000060CA53EC1B2B51EC1C0B00F0E1FB41ECAD
:10371000190B6048006800F0D1FE41EC1A0B53EC25
:10372000192B00F06DF941EC180B00F037F95949ED
:103730000860641C5248005D302803DB5048005D7F
:103740003928BFDD4F4890ED000A5248D0ED000AFD
:1037500030EE200A4B4880ED000A002400204A4940
:10376000086010E04C48005D303800EE100AB8EEFA
:10377000C00A4A48D0ED000AB2EE041A00EE810AEF
:1037800080ED000A641C4448005D302803DB424899
:10379000005D3928E6DD4048005D2E284CD1641CD0
:1037A00037E039480068401C374908603A49095DEC
:1037B000A1F1300000F038FB41EC1B0B32480068EF
:1037C00000F032FB41EC1D0BB0EE4D1AF0EE6D1A1D
:1037D0009FED2E0BFEF7F0FFB0EE40CAF0EE60CA90
:1037E00053EC1B2B51EC1C0B00F072FB41EC190B42
:1037F0002B48006800F062FE41EC1A0B53EC192BC9
:1038000000F0FEF841EC180B00F0C8F824490860FD
:10381000641C2148005D302803DB1F48005D392807
:10382000BFDD1E4890ED000A1D48D0ED000A30EEC5
:10383000200A1A4880ED000A00240020124908607E
:1038400018A11B48FCF723FD9FED1A0A0D4880EDD7
:10385000000A9FED180A0F4880ED000A9FED150A37
:103860000E4880ED000A9FED130A0D4880ED000A16
:1038700000200249086010490860F7E6480000206F
:103880000000002028000020400000209A9999990B
:103890009999B93F2C00002014000020300000202E
:1038A0003400002030303030303030300000000044
:1038B000CA010020000000004C00002000B52DEDE2
:1038C000048B83B041EC190B00F042FC41EC180B67
:1038D00018EE100A18EE901A8DED008B002818BF14
:1038E0000120084320F00040C0F17F6000F1E0407B
:1038F000C00F14D019EE101A19EE900A8DED009B2E
:10390000002918BF0121084320F00040C0F17F606A
:1039100000F1E040C00F04BF0120FCF7E5FC51ECD2
:10392000180B03B0BDEC048B00BD000010B50446BD
:103930000748084908600846446000218160C1606A
:10394000016181610C214161FDF7B6FD10BD0000F0
:10395000004400406C04002010B5044607480849A4
:1039600008600846446000218160C1600161816196
:103970000C214161FDF7A0FD10BD000000100140C9
:103980002C04002081F00041704780F00040704717
:1039900021F00041704720F00040704721F00042C4
:1039A000A2F16052B2F5801F01F0004328BFD2F1AE
:1039B0007F6C0BD95FEA001C43EAC20242EB5070F5
:1039C00018BF704728BF20F001007047B2F5801F74
:1039D000BCBF184670474FEA410C1CF5001F02D2CD
:1039E000084600F0E1BD70B500F01CFB0000008946
:1039F000FFF7F6BF4FF00040A0F5800070470000D1
:103A000010B591EA030F48BF83F0004300F17484BE
:103A1000841A71EB030C05D2121943EB0C03001B43
:103A200061EB0C01DFF824E14FEA1154A4EB135CC5
:103A30001EEA430F18BF9EEA445F73D023EA0E03C9
:103A4000DCF1200E21EA045143F4801332D322FA30
:103A50000CFE10EB0E0023FA0CFE41EB0E01CCF134
:103A6000200E03FA0EFE10EB0E0051F10001B1F52D
:103A7000801FCCF1200E32D201EB045112FA0EF26B
:103A8000BDE8104058BF7047401C38BF5FEA420293
:103A900018BF7047002814BF20F0010041F1000159
:103AA0004FEA410313F5001F38BF7047A1F1C04131
:103AB00000F006BB012A43EB0302ACF1200CDCF161
:103AC0001F0E32BF4FF0000E23FA0CF310EB030071
:103AD00041EB0451B4EB115FD0D0A1EB045101F5DF
:103AE000801149085FEA300001EB04510ED350F118
:103AF000000038BF12FA0EFE08D1BDE81040C9E739
:103B0000401C38BF5FEA4202CAD1C3E7BDE810409B
:103B10004FEA410313F5001F38BF7047A1F1C041C0
:103B200000F0CEBA9EEA445F08D011EA5E0FBDE80D
:103B3000104004BF01F0004100207047BDE8104074
:103B400070B500F06FFA00BF64FBBE3E0000E0FFFE
:103B500002494FF0000000F02CBD00BF0000F87FCC
:103B6000491058BFC1F140415B1058BFC3F14043F9
:103B70008B42EFF3008070472DE9C04130B4DFF88D
:103B8000A0C23CEA111418BF3CEA131400F0EC8008
:103B900081EA03051CEA111444EAD57418BF1CEA33
:103BA000131500F0C780A4EB05044FF0004545EA6B
:103BB000C12145EAC32341EA505143EA525304F17B
:103BC0007F74994204F500344FEAC0204FEAC222C4
:103BD00008BF904200F09C804FEA13650FF2401638
:103BE000765D4FEA134506FB05F7C7F1807706FBC4
:103BF00007F74FEAD737A7FB03687642C8F5803846
:103C0000A7FB06CE38BFA8F1010807FB08E64FF076
:103C1000000EA6FB028CE6FB03CEDCF1000CCEF11D
:103C2000004E38BFAEF1010EA6FB0C584FF0000756
:103C30004FF00005E6FB0E87A1FB08C6A0FB07CEF0
:103C400016EB0E0645F10005E1FB076515F1E04EA8
:103C50007EBFA4F580345FEA46066D4116F1800709
:103C600045F100054FEA17274FEA066647EA056760
:103C7000A6F1DE46B6F1805F4FEA15251FD938461A
:103C800024F0010C05EBC471BCF1FE6F01EB0C11CB
:103C900002D8F0BCBDE8008124425CBF01F5801E63
:103CA0009EEAC47F02D4F0BCBDE80081244238D42F
:103CB000F0BCA1F1C041BDE8004100F001BA4FEAFB
:103CC000D22242EA43524FEAD323A7FB02864FEAAD
:103CD000D02040EA415007FB03661EEA0E0F4FEA70
:103CE000D12105FB026658BFA6EB0056B6EB005685
:103CF0004FEA520E4EEAC37E18EB0E0E56EB530EF1
:103D0000BDD518EB02085E417F1C55F10005B6E7F2
:103D10004FF480154FF000074FF000064FF00008F9
:103D2000ADE7F0BC4FF0000001F1C04101F00041EF
:103D3000BDE8008111EA0C1F0CEA131500D00CE05D
:103D400013EA0C1F00F025804FF00000F0BC81EA60
:103D5000030101F00041BDE80081F0BCBDE8004175
:103D600081EA030100F0ACB9F0BCBDE8004170B5D8
:103D700000F058F9097EFC3E00F007B881EA030123
:103D80004FF0000001F00041704781EA030100F0AC
:103D900097B9F0BCBDE800414FF0000021497047E1
:103DA000FFFDFBF9F7F5F4F2F0EEEDEBE9E8E6E400
:103DB000E3E1E0DEDDDBDAD8D7D5D4D3D1D0CFCD87
:103DC000CCCBCAC8C7C6C5C4C2C1C0BFBEBDBCBBC0
:103DD000BAB9B8B7B6B5B4B3B2B1B0AFAEADACABBB
:103DE000AAA9A8A8A7A6A5A4A3A3A2A1A09F9F9E95
:103DF0009D9C9C9B9A999998979796959594939347
:103E0000929191908F8F8E8E8D8C8C8B8B8A8989DD
:103E10008888878786858584848383828281818060
:103E20000000FF070000F87F10F0004248BF40424A
:103E3000B0FA80F310FA03F10AD0C3F11D0303F5C1
:103E400080634FEA415002EB035202EBD1217047ED
:103E50004FF000007047000051EA030C17D41CF526
:103E6000801F58BFBCF5801F00F10680994218BF23
:103E7000704708BF9042704707D711F5801F58BFA1
:103E800013F5801F19D499427047894270471CF579
:103E9000801F08D5BCF5801FF7D58B4218BF70472F
:103EA00008BF824270474FF4001C1CEB410F38BF23
:103EB0001CEB430F01D28B42704770B500F0B2F893
:103EC000922449004FF000514FF08053FFF748BE55
:103ED000DFF848C170B51CEA111E1EBF1CEA13159D
:103EE0009EEA0C0F95EA0C0F00F06F8081EA030444
:103EF00023EA4C134EEAD47E21EA4C1141F480119E
:103F000043F48013AE44A1FB024CA0FB0365AEF169
:103F10007F7E361955EB0C05A1FB034C4CF10003D9
:103F2000A0FB021C16EB0C06654153F1000309428D
:103F300018BF46F0010613F4007F0BD14FEA03319E
:103F40004FEA0530340341EA155140EA16506FF04C
:103F500003020AE04FEAC3214FEAC520F40241EA16
:103F6000555140EA56506FF0020202EB2E4201EB2F
:103F7000025585EACE710AD05FEA440C18BF24F0DE
:103F8000004450F1000041F1000120EAD47040F2F9
:103F9000FE7C624500D270BDA84214BF4FF0804441
:103FA0004FF04044002E08BF0024BEF1806FA8BF30
:103FB000A1F1C041BDE8704080F282804FF0000066
:103FC00001F1C04101F0004170479EEA0C0F0CEA7C
:103FD000131518BF95EA0C0F06D04FF0000081EAC8
:103FE000030E0EF0004170BD00F01CF88900013E88
:103FF00000F007B800F009B84FEA430C5FEA5C5CD8
:1040000008D081EA030100F05BB84FEA410C5FEA97
:104010005C5CF6D14FF00000014970470000FF07DB
:104020000000F87F0EF1020E2EF0030E5EF8046B16
:10403000364205D4012A43EB030515F5001F12D8BB
:10404000012841EB010C1CF5001F0CD80ED14FEAE2
:10405000D17C15F5001F0CEB4C0C0CF1020C08BFC9
:104060004CEBD37C04E04FF0080C01E04FEAD37C2A
:104070000CEB4C0526FA05F606F00706B6F1040C23
:1040800006D20EEB860CBDE870404CF0010C604788
:10409000DFE80CF0090B02024FF000414FF0000086
:1040A000A1F5002170BD19461046012851EB01040D
:1040B00018BFD4F5001484BF002001F0004170BD8A
:1040C0000808A0F500114FEA3101704753EA010CCE
:1040D00017D41CF5801F58BFBCF5801F00F1068067
:1040E0008B4218BF704708BF8242704707D713F54D
:1040F000801F58BF11F5801F19D48B4270479B4217
:1041000070471CF5801F08D5BCF5801FF7D5994274
:1041100018BF704708BF904270474FF4001C1CEB5B
:10412000430F38BF1CEB410F01D2994270470FB4C7
:104130000CBC03BCFFF7C1BE91EA030F10B581F0C0
:1041400000413FF565AC83F0004300F0D5B80000B6
:104150002DE9F04101F5801CBCF5001FC0F2A980DB
:104160004FEA115C21EA0C510CF1FD0C41F4801175
:104170005FEA5C0C0CF5C07C01D34000494130A4DF
:10418000890241EA905187028E0E0A0CA45D04FB5D
:1041900004F602FB06F6C6F14046A4FB0662F60DE5
:1041A00046EA422606FB06F4A4FB01235242C3F171
:1041B000404338BF5B1EA6FB02420024E6FB0324FB
:1041C000D20B42EA4446A6FB0623A1FB02E2A3FB74
:1041D00007E4E3FB61426442C2F1404E38BFAEF1F6
:1041E000010EA6FB04234FF00002E6FB0E32A2FBF9
:1041F00003463400E2FB6264A1FB06E6A4FB07E889
:10420000E4FB61687642C8F1405838BFA8F1010864
:10421000A2FB06E4A3FB08E5E2FB6854A1FB05E66C
:10422000A7FB04E8E1FB648618F1200556F10006BF
:10423000A809A8F11B08B10908F03F08B8F10A0F56
:1042400040EA86601CD901EB0C51BDE8F08100BF4B
:10425000FCF5EEE8E2DDD8D3CFCBC7C3C0BDB9B61D
:10426000B4B1AEACA9A7A5A3A19F9D9B9A98969522
:104270009392908F8D8C8B898887868584838281A9
:10428000A0FB006800FB01F208EB4208B8EB8728AE
:1042900007D5341858EB0104D5D5401C51F1000165
:1042A000D1E7341A78EB0104CDD4401E71F100013E
:1042B000C9E75FEA4C0C5FEA9C5C0DD105D34FF077
:1042C000000001F00041BDE8F081BDE8F04170B5AB
:1042D000FFF7A8FE6DDBFFBEBDE8F0414FF0000028
:1042E000004970470000F87F10B591EA030F48BFFE
:1042F00083F000433FF58CAB841A71EB030C07D2BB
:1043000012198CF0004C43EB0C03001B61EB0C0109
:10431000DFF8A4E14FEA1154A4EB135C1EEA430F4B
:1043200018BF9EEA445F00F0B08023EA6E03524259
:1043300021EA0451C3EB6E0338BF5B1EDCF1200E93
:1043400025D322FA0CFE10EB0E0043FA0CFE41EBD3
:104350000E01CCF1200E03FA0EFE10EB0E0051F10F
:104360000001CCF1200E29D412FA0EF201EB045117
:10437000BDE8104058BF7047401C1CBFB2F1004F51
:10438000704700280CBF491C20F00100704712EB59
:10439000020E43EB030218BF4FF0010E4EEA420239
:1043A000ACF1200CDCF11E0E54D943FA0CFE10EBDC
:1043B0000E0051F1FF31CCF11E0ED5D50EF1010EDC
:1043C00012FA0EFE404141EB010101EB445C5FEA51
:1043D0005C5C10D910EBDE7001EB045138BFBEF10C
:1043E000004FBDE8104018BF704700280CBF491CA3
:1043F00020F00100704730D24FEAD42C11F50011A3
:1044000024F400641BD0B1FA81F20B3AA41AA41E62
:10441000D2F12003914030FA03F31943904001EBAD
:10442000CC71002C01EB0451BDE81040A8BF7047CF
:1044300001F1C0414FF0000001F000417047B0FAB7
:1044400080F310FA03F100D110BDE41A173C4805BF
:10445000C90AE4E701EB045110BD491001EB045116
:10446000BDE810404FEA300002E04FF00001704715
:104470004A0008BF0042F8D0B2F5001F28BF7047BD
:1044800001F000414FF0000070479EEA445F07D002
:1044900011EA5E0FBDE8104004BF00210020704704
:1044A000BDE8104070B5FFF7BDFD00BF40DFF63E30
:1044B00083F00041104670470000E0FF43004FEAE0
:1044C000D30C4FEA3C0C43401FBF40070CF1605136
:1044D00013F0FE4F70471CF0006F03D100200CF06A
:1044E000004170470CF0004343EA507010B540EAB9
:1044F000CC0000F00EF800BF000000924FEA00016F
:10450000FFF7DEBD4FF000414FF00000A1F50021A4
:1045100070470EF1020E2EF0030E5EF8044B24429B
:1045200004D44FEA4102B2F17F4F11D84FEA400361
:10453000B3F17F4F0CD80ED14FEAD07CB2F17F4F50
:104540000CEB4C0C0CF1020C08BF4CEBD17C04E0E2
:104550004FF0080C01E04FEAD17C0CEB4C0324FA3D
:1045600003F404F00704B4F1040C06D20EEB840C3F
:10457000BDE810404CF0010C6047DFE80CF0070884
:1045800002024FF00040A0F5800010BD0846420036
:1045900018BFD2F1807288BF00F0004010BD4FF00C
:1045A0004070E1EE100A7047FF2141EAD050C0058B
:1045B00070470CF00F03092B08BF082000F059804A
:1045C0000A2B0BD0082B18BF704708BF1CF0400FF8
:1045D0000AD04FF000004FF0000170471CF0400F70
:1045E00018BF4FF0004070471CF0100F08D020F0AB
:1045F000704300F07F4242EAD3014FEA43707047B4
:1046000000F0604021F07F4242EA000201F07F406A
:1046100040EA727070474FF0FF0C4CF4E06C1CEAFB
:1046200011531CBF9CEA030C9445C2BFDA4201EB54
:1046300002517047002B0DD0BCF1000F0FD0002AA3
:1046400001F00041A4BF41F0E04141F07F614FF033
:104650000000704701F000414FF00000704750EA41
:1046600001334FF09B0C18BF4CF0806C7FF470AAA4
:1046700070471CF4801F11D01CF4E02F03D06FEAA8
:10468000CC31490070474FF04050EFF3008222F0E8
:10469000704242EA000282F3008870474FF0000047
:1046A0007047000000000102030401020304060732
:1046B0000809000000000000000000000000F03FBA
:1046C000000000000000F83F0000000000000000B3
:1046D0000000004003B8E23F0000000000000000BE
:1046E00006D0CF43EBFD4C3E033333333333E33F4C
:1046F000FFAB6FDBB66DDB3F4D268F515555D53F78
:1047000001411DA96074D13F65DBC9934A86CD3F45
:10471000EF4E454A287ECA3F3E5555555555C53F33
:1047200093BDBE166CC166BF2CDE25AF6A56113F25
:10473000F16BD2C541BDBBBED0A4BE726937663E27
:104740000000000000000000684700080000002092
:10475000F8000000E801000860480008F8000020A8
:10476000980A00000402000833312E3637383938F1
:104770003031000000000000000000003131392E0F
:1047800039353232323237000000000000000000BC
:104790000000000000000000000000000000000019
:1047A0000000000000000000000000000000000009
:1047B00000000000000000000000000000000000F9
:1047C00000000000000000000000000000000000E9
:1047D00000000000000000000000000000000000D9
:1047E0000000000000000000000000000024F400B1
:1047F0000000000000000000010203040607080991
:1048000000000000000000000000000000000000A8
:104810000000000000000000000000000000000098
:1048200000000000C43A68D9536A0B01D0791F39DF
:10483000B0B18FA5059E0A88FFFFFFFFFFFFAA0703
:10484000020009BC000000000000FF078029FFFFF4
:10485000FFFFFFFF00080000000000000000000054
:04000005080001AD41
:00000001FF
