:020000040800F2
:1000000028080020890100081905000811050008CA
:1000100015050008250300088F0B000800000000EC
:10002000000000000000000000000000B906000809
:100030002903000800000000A1050008A50700082A
:10004000A3010008A3010008A3010008A301000800
:10005000A3010008A3010008A3010008A3010008F0
:10006000A3010008A3010008A3010008A3010008E0
:10007000A3010008A3010008A3010008A3010008D0
:10008000A3010008A3010008A3010008A3010008C0
:10009000A3010008A3010008A3010008A3010008B0
:1000A000A3010008A3010008A3010008A3010008A0
:1000B000A3010008A301000809080008A301000823
:1000C000A3010008A3010008A3010008A301000880
:1000D000A3010008BD090008A3010008A30100084E
:1000E000A3010008A3010008A301000800F002F822
:1000F00000F03AF80AA090E8000C82448344AAF188
:100100000107DA4501D100F02FF8AFF2090EBAE885
:100110000F0013F0010F18BFFB1A43F0010318473B
:10012000DC0B0000FC0B0000103A24BF78C878C13B
:10013000FAD8520724BF30C830C144BF04680C60ED
:10014000704700000023002400250026103A28BF35
:1001500078C1FBD8520728BF30C148BF0B60704739
:100160001FB51FBD10B510BD00F0AAF81146FFF76E
:10017000F7FF00F010FD00F0C8F803B4FFF7F2FF3E
:1001800003BC00F006FD000009488047094800470D
:10019000FEE7FEE7FEE7FEE7FEE7FEE7FEE7FEE737
:1001A000FEE7FEE704480549054A064B7047000094
:1001B000A9070008ED0000082802002028080020F8
:1001C0002804002028040020704753EA020C00F0A5
:1001D00069802DE9F04B4FF00006002B1FBFB3FAEA
:1001E00083F503FA05F424FA05F65E4012BF1643C0
:1001F000B2FA82F502FA05F4C5F120051EBF22FA13
:1002000005FC44EA0C04203556EA044C4FEA144439
:1002100018BF641C4FF000084FF00009904271EBCA
:10022000030C39D3002919BFB1FA81F701FA07F697
:10023000B0FA80F700FA07F6C7F120071EBF20FAD0
:1002400007FC46EA0C062037B6FBF4FCA7EB0507D3
:10025000103F07F01F0BCBF120060CFA0BFB2CFA1A
:1002600006F644BFB3460026202FA4BF5E464FF0DB
:10027000000B5BEA060C08BF4FF0010B19EB0B09F2
:10028000ABFB027C48EB0608C01B06FB02CC0BFB59
:1002900003CC71EB0C01C1E70B46024641464846D0
:1002A000BDE8F08B13B54FF000004FF00001AFF345
:1002B0000080BDE81C40704770477047704770472A
:1002C000754600F02BF8AE4605006946534620F00F
:1002D0000700854618B020B5FFF764FFBDE8204051
:1002E0004FF000064FF000074FF000084FF0000BF2
:1002F00021F00701AC46ACE8C009ACE8C009ACE8A5
:10030000C009ACE8C0098D46704710B50446AFF38C
:1003100000802046BDE81040FFF72FBF004870471F
:10032000C801002000BFFEE7704700B5034603E0A8
:100330004FF47A7000F005F8181EA3F10103F7D10D
:1003400000BD00EBC001C9004FF0E0225161002167
:1003500091610521116100BF4FF0E021096901F4AD
:1003600080310029F8D004214FF0E022116170475C
:100370002DE9F0410246002500260020002300243C
:10038000002791F803C00CF00F0591F803C00CF0A2
:10039000100CBCF1000F03D091F802C04CEA050527
:1003A00091F800C0BCF1000F31D0146800202BE0A0
:1003B0004FF0010C0CFA00F3B1F800C00CEA030690
:1003C0009E4220D183004FF00F0C0CFA03F7BC4380
:1003D00005FA03FC4CEA040491F803C0BCF1280FB1
:1003E00006D14FF0010C0CFA00FCC2F814C00AE070
:1003F00091F803C0BCF1480F05D14FF0010C0CFA85
:1004000000FCC2F810C0401C0828D1D31460B1F819
:1004100000C0BCF1FF0F34DD546800202EE000F175
:10042000080C4FF0010808FA0CF3B1F800C00CEA10
:1004300003069E4221D183004FF00F0C0CFA03F704
:10044000BC4305FA03FC4CEA040491F803C0BCF178
:10045000280F05D100F1080C08FA0CF8C2F8148036
:1004600091F803C0BCF1480F07D100F1080C4FF020
:10047000010808FA0CF8C2F81080401C0828CED3F6
:100480005460BDE8F0810246002093680B400BB138
:10049000012000E0002070470AB1016100E04161E5
:1004A0007047000010B500F087FB034908604FF467
:1004B000FA70FFF73AFF10BD3400002008B50121A3
:1004C000082000F07FF810208DF80300C001ADF87F
:1004D000000003208DF8020069460C48FFF748FF32
:1004E00028208DF803004FF48060ADF800006946C5
:1004F0000648FFF73DFF00224FF400610348FFF775
:10050000CBFF0F20FFF71DFF08BD0000000C0140CE
:1005100000BFFEE700BFFEE77047000070B5002196
:1005200000230F22C47804B3154C246804F4E0645B
:10053000C4F5E064210AC1F10403CA40447804FA16
:1005400003F184781440214309010E4C0678A1552B
:10055000047804F01F050124AC4005786D11AD004E
:1005600005F1E025C5F8004109E0047804F01F0515
:100570000124AC40044D0678761145F8264070BD44
:100580000CED00E000E400E080E100E002490143FE
:10059000024A1160704700000000FA050CED00E00F
:1005A0007047000029B1064AD2690243044BDA6160
:1005B00004E0034AD2698243014BDA6170470000CC
:1005C0000010024029B1064A92690243044B9A6125
:1005D00004E0034A92698243014B9A61704700002C
:1005E0000010024030B500210022002400232D4DD0
:1005F0006D6805F00C0121B1042905D0082923D12B
:1006000005E0294D056022E0274D05601FE0254DDE
:100610006D6805F47012234D6D6805F48034022571
:1006200005EB92421CB9214D554305600BE01D4D71
:100630006D6805F400351DB11C4D5543056002E0A1
:10064000194D5543056002E0174D056000BF00BF1E
:10065000144D6D6805F0F0010909154D6B5C0568D6
:10066000DD4045600F4D6D6805F4E061090A104DED
:100670006B5C4568DD4085600A4D6D6805F460512E
:10068000C90A0B4D6B5C4568DD40C560054D6D6862
:1006900005F44041890B074D6B5CC568B5FBF3F56C
:1006A000056130BD0010024000127A0000093D00D3
:1006B0000000002010000020704710B500F002F884
:1006C00010BD00000CB50020019000903348006878
:1006D00040F480303149086000BF3048006800F4C1
:1006E000003000900198401C0190009818B90198C2
:1006F000B0F5A06FF1D12948006800F4003010B1C6
:100700000120009001E0002000900098012843D1D2
:100710002348006840F0100021490860084600683E
:1007200020F0030008600846006840F002000860FE
:100730001A484068194948600846406848600846B9
:10074000406840F4806048600846406820F47C10AF
:1007500048600846406840F4E81048600846006871
:1007600040F08070086000BF0C48006800F0007026
:100770000028F9D00948406820F003000749486084
:100780000846406840F00200486000BF03484068E7
:1007900000F00C000828F9D10CBD00000010024048
:1007A000002002407047000010B51348006840F078
:1007B00001001149086008464068104908400E4988
:1007C0004860084600680E4908400B490860084622
:1007D000006820F4802008600846406820F4FE008D
:1007E00048604FF41F008860FFF767FF4FF000601C
:1007F0000449086010BD0000001002400000FFF82E
:10080000FFFFF6FE08ED00E010B50121094800F0F9
:1008100027F801280CD10848D0E90020521C40F1EB
:1008200000000549C1E900200121024800F009F853
:1008300010BD00000008004020000020CA430282D2
:100840007047CA430282704721B1028842F0010218
:10085000028004E002884FF6FE731A40028070475F
:1008600030B50246002000230024158A05EA010362
:10087000958905EA010413B10CB1012000E00020C4
:1008800030BD1AB183890B43838102E083898B4396
:100890008381704701894FF6F872114001817047DA
:1008A000002202881D4B98420ED01D4B98420BD05F
:1008B000B0F1804F08D01B4B984205D01A4B98429C
:1008C00002D01A4B984204D14FF68F731A404B88CE
:1008D0001A43174B984207D0164B984204D04FF654
:1008E000FF431A40CB881A4302808B8883850B888C
:1008F00003850A4B98420BD0094B984208D00E4B07
:10090000984205D00D4B984202D00D4B984201D130
:100910000B7A03860123838270470000002C01407C
:10092000003401400004004000080040000C00407A
:10093000001000400014004000400140004401400D
:10094000004801401FB501210420FFF72BFE1A4883
:10095000FFF7A0FF0020ADF80A00ADF8060009205F
:10096000ADF808004720ADF8040000208DF80C0019
:1009700001A91148FFF794FF01210F48FFF75EFF1F
:10098000012211460C48FFF77CFF4FF4A060FFF7EF
:10099000FDFD1E208DF8000001208DF803000220CF
:1009A0008DF801008DF802006846FFF7B7FD0121C0
:1009B0000148FFF749FF1FBD0008004010B508219E
:1009C000184800F041F858B3164800F0DBF8C4B2FC
:1009D00015480078002018BB13480078002048B163
:1009E0000A2C02D0104908701AE00F4800780E490E
:1009F000087015E00D2C04D10B4800780A490870E6
:100A00000EE00948007809490C5407480078401C5A
:100A10000549087008460078C72801DD00200870E5
:100A200010BD000000380140180000200001002027
:100A300021B1828942F40052828104E082894DF61C
:100A4000FF731A408281704702460020B1F5007F93
:100A500000D100BF13880B400BB1012000E0002043
:100A60007047F0B50346002400260025002040F61C
:100A70006A17B94200D100BF1846C1F3421401F011
:100A80001F06012707FA06F5012C01D10C3004E0FE
:100A9000022C01D1103000E014301AB107682F4346
:100AA000076002E00768AF430760F0BD2DE9F0473B
:100AB00086B005460E460024A24600BFA146002788
:100AC000B08900B100BF2F462C8A4CF6FF7004405D
:100AD000F08804432C82AC894EF6F3100440B088B1
:100AE00031890843718908430443AC81AC8A4FF6CD
:100AF000FF400440B0890443AC8201A8FFF772FDB7
:100B00001F48874202D1DDF810A001E0DDF80CA0FB
:100B1000A88900F4004040B10AEBCA0000EB0A10BB
:100B200031684900B0FBF1F807E00AEBCA0000EBBE
:100B30000A1031688900B0FBF1F86420B8FBF0F0CE
:100B400004012009642101FB1089A88900F40040F8
:100B500040B1322000EBC900B0FBF1F000F007001B
:100B6000044308E0322000EB09106421B0FBF1F0EF
:100B700000F00F0004432C8106B0BDE8F0870000B0
:100B80000038014001468888C0F30800704700BF64
:100B9000FEE700BF70474FF4A060FFF7F7FC4FF48B
:100BA000165000F05BF8FFF7CDFEFFF787FC01E081
:100BB000FFF778FCFCE700002DE9F0410025012259
:100BC000D1022348FFF768FC0F20FFF7BAFB002291
:100BD0004FF400611E48FFF75FFC00BF4FF48061D7
:100BE0001B48FFF750FC0028F8D00021194A11607B
:100BF000516000BF4FF480611548FFF744FC0128A5
:100C0000F8D01448D0E90010134AC2E90010642259
:100C10000023114903C9FFF7D8FA263871F1000102
:100C200013D20D484FF4AD7306C80020A1FB036832
:100C300002FB038201FB0021022203463046FFF73C
:100C4000C4FA04466420B4FBF0F528B2BDE8F08194
:100C5000000C0140200000202800002010B586B0C4
:100C60000446012144F20400FFF7ACFC4FF400708D
:100C7000ADF8140003208DF8160018208DF8170029
:100C800005A91C48FFF774FB4FF48060ADF8140011
:100C900004208DF8170005A91648FFF769FB2520E9
:100CA0008DF8000003208DF801008DF8020001206E
:100CB0008DF803006846FFF731FC01940020ADF881
:100CC0000800ADF80A00ADF80C00ADF810000C20DB
:100CD000ADF80E0001A90848FFF7E8FE012240F236
:100CE00025510548FFF7BDFE01210348FFF7A0FE8F
:100CF00006B010BD00080140003801401C0D00087E
:100D0000000000203800000028010008540D0008F1
:100D100038000020F0070000440100080000000037
:100D2000010203040102030406070809020406087D
:100D300000000000000000000000000000000000B3
:100D4000000000000000000000000000003C000067
:040D5000000000009F
:04000005080000ED02
:00000001FF
