:020000040800F2
:10000000E00D00206D2700083108000833080008C3
:10001000370800083B0800083F08000800000000FF
:10002000000000000000000000000000430800087D
:1000300045080008000000004708000849080008BB
:1000400087270008872700088727000887270008D8
:1000500087270008872700088727000887270008C8
:1000600087270008872700088727000887270008B8
:1000700087270008872700088727000887270008A8
:100080008727000887270008872700088727000898
:100090008727000887270008872700088727000888
:1000A0008727000887270008872700088727000878
:1000B0008727000887270008872700088727000868
:1000C0008727000887270008872700088727000858
:1000D0008727000845260008BF2600088727000854
:1000E0008727000887270008872700088727000838
:1000F0008727000887270008872700088727000828
:100100008727000887270008872700088727000817
:100110008727000887270008872700088727000807
:1001200087270008872700088727000887270008F7
:1001300000F002F800F03FF80AA090E8000C8244BA
:100140008344AAF10107DA4501D100F034F8AFF297
:10015000090EBAE80F0013F0010F18BFFB1A43F0A5
:1001600001031847147A0000347A0000103A24BFC3
:1001700078C878C1FAD8520724BF30C830C144BF0C
:1001800004680C607047000000230024002500264E
:10019000103A28BF78C1FBD8520728BF30C148BFEA
:1001A0000B607047642903F03D83002070471FB542
:1001B0001FBD10B510BD03F0A3FD1146FFF7F7FFFB
:1001C00000F00FFB03F0C1FD03B4FFF7F2FF03BC27
:1001D00002F08EF92DE9FF5F1421012000F089FC67
:1001E000FE4908600846006804F0FCFE0646FC4A2A
:1001F000FC4B04F047FF0446FB4AFC4B05F068F952
:10020000FB4A03C21421052000F073FCF949086081
:100210000846006804F0E6FE8046F74AF74B04F013
:1002200031FF064632460B46F548F64903F00EFF0D
:1002300004460022F44B04F025FF82468B46ED482D
:10024000006804F0CFFE0646F04AF14B04F01AFFB6
:10025000044622460B46EA48EA4903F0F7FE804688
:100260000022EC4B04F00EFF52465B46CDE9000144
:1002700004F030FCCDE9020104F0FAFBE649086025
:10028000E649E548006805F09BFB05D24FF4007194
:10029000E34802F030FE04E04FF40071E04802F061
:1002A00028FE14210B2000F024FCDE4908600846DB
:1002B000006805F071FB804605F0F4F90646DA4A5D
:1002C000DA4B04F0DFFE044604F0D2FBD8490860A4
:1002D000D849D748006805F0A7FBD5490860002138
:1002E000D348006805F06CFC01D8012400E000242C
:1002F000D149CF48006805F063FB01D2012000E03E
:10030000002004401CB10020CC490860F2E0CA493A
:10031000C748006805F054FC01D8012400E000241F
:10032000C749C348006805F04BFB01D2012000E03B
:10033000002004401CB10120C0490860DAE0C04937
:10034000BB48006805F03CFC01D8012400E0002413
:10035000BC49B748006805F033FB01D2012000E03A
:10036000002004401CB10220B4490860C2E0B54935
:10037000AF48006805F024FC01D8012400E0002407
:10038000B149AB48006805F01BFB01D2012000E039
:10039000002004401CB10320A8490860AAE0AA4933
:1003A000A348006805F00CFC01D8012400E00024FB
:1003B000A6499F48006805F003FB01D2012000E038
:1003C000002004401CB104209C49086092E09F4931
:1003D0009748006805F0F4FB01D8012400E00024F0
:1003E0009B499348006805F0EBFA01D2012000E038
:1003F000002004401CB10520904908607AE094492F
:100400008B48006805F0DCFB01D8012400E00024E3
:1004100090498748006805F0D3FA01D2012000E036
:10042000002004401CB106208449086062E089492C
:100430007F48006805F0C4FB01D8012400E00024D7
:1004400085497B48006805F0BBFA01D2012000E035
:10045000002004401CB10720784908604AE07E492A
:100460007348006805F0ACFB01D8012400E00024CB
:100470007A496F48006805F0A3FA01D2012000E034
:10048000002004401CB108206C49086032E0734928
:100490006748006805F094FB01D8012400E00024BF
:1004A0006F496348006805F08BFA01D2012000E033
:1004B000002004401CB10920604908601AE0684926
:1004C0005B48006805F07CFB01D8012400E00024B3
:1004D00064495748006805F073FA01D2012000E032
:1004E000002004401CB10A205449086002E00B209F
:1004F000524908605C495D4801F0F5F85CA1644828
:1005000003F07CF9624802F00FF95848027861A1C3
:100510005F4803F073F95E4802F006F9524802782A
:1005200060A15B4803F06AF9594802F0FDF861A147
:10053000574803F063F9564802F0F6F80022654B7D
:100540002B4903C904F09CFE04D28021624802F0CA
:10055000D2FC03E08021604802F0CBFC14210A2089
:1005600000F0C7FA5D4908800846008805F014FAD3
:10057000804605F097F806462B4A2C4B04F082FD86
:10058000044604F0EBFC554908800846008804F056
:1005900029FD0646524A534B04F058FB044604F02A
:1005A00067FA514908600846006803F075FC044684
:1005B0004E4905F039FA4E49086000F06EFD4D4B8A
:1005C0004DA20121084601F04FFA4A480321CDE926
:1005D0000010074801210CC832208FE018000020CD
:1005E000C3F5285C8FC2C53F9A9999999999B93FEB
:1005F000280000201C000020D2544FE61F7D63BF5E
:1006000090F7AA9509BF05400016AB40B4AB90F235
:10061000936A8FBF4070E340000000200000A040BC
:100620000010014020000020144001144001543FFC
:100630000400002000007A4400004842100000201E
:100640000000634300009F430000CC430080FB4355
:100650000080174400002E4400C0464400405C4423
:100660000000744400E086441700002016000020BB
:100670002D2D2D44485454313120CAFDBEDDCAE42D
:10068000B3F6202D2D2D2D2D2D2D200D0A0000002F
:10069000E400002054656D703A2020256420430951
:1006A0000D0A000048756D693A2020256420252533
:1006B000090D0A002D2D2D2D2D2D2D2D2D2D2D2DFE
:1006C0002D2D2D2D2D2D2D2D2D2D2D2D2D2D200D87
:1006D0000A00000000004940000C01401400002006
:1006E00039B4C876BE9FF63F0C0000200000A04140
:1006F00008000020BA000020504D000001F016FC58
:10070000404B41A20F21012001F0AEF93F480068A3
:1007100004F051FC04460B463A4801212246CDE93B
:1007200000100F21322001F001FC364B38A21D21B0
:10073000012001F099F93848007804F053FC044690
:100740000B46304802212246CDE900101D213220FF
:1007500001F0ECFB2B4B31A22B21012001F084F99D
:100760002F48007804F03EFC04460B462548022141
:100770002246CDE900102B21322001F0D7FBBDE845
:10078000FF9F08B50121102002F0C2FD4FF4007058
:10079000ADF8000010208DF8030003208DF8020052
:1007A0006946204802F0F8FA4FF400711D4802F043
:1007B000A0FB08BD08B50121082002F0A9FD80209A
:1007C000ADF8000010208DF8030003208DF8020022
:1007D0006946154802F0E0FA8021134802F089FBCF
:1007E00008BD4FF4A06001F0E1FF4FF4E13001F0EB
:1007F0008DFE4FF4E13001F0D5FE02E00BA002F0D7
:10080000F1FFFBE7BA000020555649001000002018
:1008100074656D70000000001600002068756D00A2
:100820001700002000100140000C014031000000C2
:10083000704700BFFEE700BFFEE700BFFEE700BF56
:10084000FEE7704770477047704700000CB5002006
:10085000019000906C48006840F480306A4908605C
:1008600000BF6948006800F4003000900198401C07
:100870000190009818B90198B0F5A06FF1D16248C5
:10088000006800F4003010B10120009001E0002069
:1008900000900098012843D15C48006840F01000A7
:1008A0005A4908600846006820F0030008600846BE
:1008B000006840F0020008605348406852494860B0
:1008C0000846406848600846406840F480604860D8
:1008D0000846406820F47C1048600846406840F4B0
:1008E000E81048600846006840F08070086000BF6B
:1008F0004548006800F000700028F9D04248406880
:1009000020F00300404948600846406840F002007B
:10091000486000BF3C48406800F00C000828F9D14E
:100920000CBD10B5FFF792FF10BD10B5364800683A
:1009300040F00100344908600846406834490840E6
:100940003149486008460068324908402E4908602D
:100950000846006820F4802008600846406820F4BB
:10096000FE0048604FF41F008860FFF7DAFF4FF089
:1009700000602949086010BD10B500210020002248
:10098000214B5B6803F00C0121B1042906D0082932
:1009900028D107E0214B224C236027E01F4B204C3D
:1009A000236023E0184B5B6803F47010164B5B6800
:1009B00003F48032022303EB904022B9194B4343E6
:1009C000174C23600DE0104B5B6803F4003323B138
:1009D000144B4343124C236003E0104B4343104C31
:1009E000236003E00D4B0E4C236000BF00BF064B9D
:1009F0005B68C3F303130C4CE15C094B1B68CB40F1
:100A0000074C236010BD000000100240002002408F
:100A10000000FFF8FFFFF6FE08ED00E000127A008C
:100A20006000002000093D006400002000B587B090
:100A300001214FF4057002F06BFC4FF4004002F00E
:100A4000CBFB2220ADF8040000208DF8070001A99F
:100A5000334802F0A1F90320ADF8040000208DF81E
:100A6000070001A92F4802F097F92F4801F00CFF69
:100A7000002002908DF80C008DF80D004FF46020DE
:100A800004900020059001208DF8180002A9264846
:100A900001F021FF0121244801F049FF224801F023
:100AA00068FF00BF204801F069FF0028FAD11E4806
:100AB00001F06EFF00BF1C4801F06FFF0028FAD163
:100AC00007B000BD10B50446072301222146164891
:100AD00001F099FF0121144801F069FF00BF0221D4
:100AE000114802F0D5F80028F9D00F4801F0F2FFC4
:100AF00010BD2DE9F04107460C460025002608E010
:100B00003846FFF7DFFF0544052001F0C4FC701CE8
:100B1000C6B2A642F4DBB5FBF4F080B2BDE8F081CA
:100B200000080140001001400024014070B5044657
:100B3000002524E004F0800028B14FF40061FA4859
:100B400002F0D7F904E04FF40061F74802F0D3F95E
:100B5000142001F07CFC4FF48071F34802F0CBF9D3
:100B6000142001F074FC4FF48071EF4802F0C1F9D9
:100B7000142001F06CFC6006040E681CC5B2082D40
:100B8000D8DB70BD70B504460D467E2000EA4406F1
:100B90008021E54802F0AFF93046FFF7C7FF28464D
:100BA000FFF7C4FF8021E04802F0A3F970BD70B5E3
:100BB00000251FE06006040E4FF48071DA4802F051
:100BC0009AF9142001F043FC4FF48051D64802F00A
:100BD00076F9012801D144F00104142001F037FC1A
:100BE0004FF48071D04802F084F9142001F02FFCFA
:100BF000681CC5B2082DDDDB204670BD70B504460B
:100C00007E2000EA440040F080058021C64802F0C2
:100C100072F92846FFF78AFFFFF7C9FF06468021D1
:100C2000C14802F066F9304670BD70B505460C4605
:100C30002846FFF7E3FF064646EA04012846FFF789
:100C4000A1FF70BD70B505460C462846FFF7D6FFDC
:100C5000064626EA04012846FFF794FF70BD2DE9F9
:100C6000FE4F0646884691469A46DDF830B002208F
:100C700002900020019000900C2E06D00E2E09D17B
:100C8000122001901020009005E077200190302084
:100C9000009000E000BF00BF019840F080010220FA
:100CA000FFF770FF80210420FFF7CCFF0021012017
:100CB000FFF768FF80210A20FFF7B7FF002505E056
:100CC00018F805100920FFF75DFF6D1C4D45F7D39F
:100CD00031460120FFF756FF0C2E03D180210D2055
:100CE000FFF7A3FF4FF47A7500BF0420FFF786FFDC
:100CF00004466D1E35B104F0010018B9009820407B
:100D00000028F2D080210D20FFF79CFF95B306202C
:100D1000FFF774FF00F01B0068BB002002900198F1
:100D2000204000F0010008B1012002900C2E24D1D7
:100D30000A20FFF763FF04460C20FFF75FFF00F077
:100D400007072FB1601E07EBC000CBF8000002E0E0
:100D5000E000CBF8000004B90124122C00DD1224BD
:100D6000002505E00920FFF749FF0AF805006D1C82
:100D7000A542F7D301E00220029080210C20FFF76A
:100D800054FF00210120FFF7FDFE0298BDE8FE8F11
:100D90002DE9F04107468846154604210520FFF756
:100DA00051FF00210120FFF7EDFE80210A20FFF70F
:100DB0003CFF002405E0395D0920FFF7E3FE601CDD
:100DC000C4B24445F7DB03210120FFF7DBFEFF241B
:100DD00000BF0520FFF712FF0646601EC4B21CB11B
:100DE00006F004000028F4D02220FFF707FF287047
:100DF0002120FFF703FF6870BDE8F081F0B587B0F0
:100E000005460E4630208DF808008DF809500DF18A
:100E10000A02022102A8FFF7BBFF01A802AB0422CD
:100E200002A900900C20FFF71AFF074667B9019846
:100E3000902809D1002404E002A8005D3055601C10
:100E4000C4B2102CF8DB00E00227384607B0F0BD32
:100E50002DE9F04387B006460F46904699468DF837
:100E600008608DF80970002406E018F8041002AA42
:100E7000A01C1154601CC4B2062CF6DB002407E051
:100E800019F8041002AA04F108001154601CC4B23D
:100E9000062CF5DB01A802AB0C2202A900900E2063
:100EA000FFF7DDFE05462DB90820FFF7A7FE00F08D
:100EB000080000B90225284607B0BDE8F08370B5E8
:100EC00088B0054693208DF80C0070208DF80D0039
:100ED00000208DF8120000240BE0295D03AAA01C5D
:100EE00011549DF81200295D48408DF81200601CD5
:100EF000C4B2042CF1DB0DF11302072103A8FFF7A4
:100F000047FF08210846FFF79DFE02A803AB092210
:100F100003A900900C20FFF7A2FE064636B90298FE
:100F2000182803D1002602E00008014002263046BE
:100F300008B070BD30B50146002046E00A5CD3170A
:100F400002EB13731B11FE4C04F81030224612F80A
:100F50001020092A07DD224612F8102037322346D6
:100F600003F8102006E0F64A12F810203032F44B55
:100F700003F810200A5CD31702EB13731B11A2EBCA
:100F80000313012404EB4004ED4D2B55012202EB29
:100F900040022B469A5C092A0ADD012202EB40023C
:100FA0009A5C3732012303EB40032C46E2540AE0FB
:100FB000012202EB4002E24B9A5C3032012303EB48
:100FC0004003DF4CE254421CD0B20428B6DB0022BE
:100FD000DB4B1A7230BDF0B587B0054600270821FB
:100FE0000846FFF72FFE00210D20FFF7CBFD8021E3
:100FF0000E20FFF727FE93208DF8080020208DF8A3
:10100000090001A802AB022202A900900C20FFF700
:1010100026FE064686B9002407E002A8005D285592
:1010200002A8005D4740601CC4B2042CF5DB02A896
:10103000005DB84200D0022680210E20FFF7F5FDAA
:10104000304607B0F0BD70B588B005460C460821A3
:101050000846FFF7F7FD07210D20FFF793FD032159
:101060001420FFF7E2FD8DF80C5002A803AB01221B
:1010700003A900900C20FFF7F2FD06464EB9029836
:10108000102806D19DF80C0020709DF80D006070AE
:1010900000E00226304608B070BD10B5A9495220C4
:1010A000FFF7D1FFA84908700846007830B9022040
:1010B0000870A648FFF78FFFA3490870A248007880
:1010C00000287BD10220A0490870A048FFF732FF1A
:1010D0009E4800789E490978884217D19B484078FD
:1010E0009B494978884211D19848807898498978F5
:1010F00088420BD19548C0789549C978884205D176
:1011000001209449087094A002F06CFB8F4800788D
:1011100097490978884217D18C4840789449497892
:10112000884211D1894880789149897888420BD1C9
:101130008648C0788E49C978884205D101208D49FA
:1011400008708DA002F04EFB804800789049097825
:10115000884217D17D4840788D494978884211D11D
:101160007A4880788A49897888420BD17748C07854
:101170008749C978884205D101208649087086A030
:1011800002F030FB7148007889490978884219D10A
:101190006E48407886494978884213D16B488078F8
:1011A0008349897888420DD16848C0788049C978D8
:1011B000884207D101207F49087000E025E07EA029
:1011C00002F010FB6148007881490978884217D104
:1011D0005E4840787E494978884211D15B488078E2
:1011E0007B49897888420BD15848C0787849C978BA
:1011F000884205D101207749087077A002F0F2FA01
:101200005248FFF75CFE504908704F48007850B9CB
:1012100002204D4908704D4B754A09216020FFF7A7
:1012200017FE494908704848007848B902204649E5
:101230000870704970480078FFF7E0FD4249087077
:101240004148007828B902203F490870642001F025
:1012500022F910BD10B51420FFF7D0FC044604F0AD
:10126000030018B903211420FFF7DFFC10BD10B5EF
:101270000446412C24D108210846FFF7E3FC3D2118
:101280001120FFF77FFC86211720FFF77BFC7F21D1
:101290002620FFF777FC1E212D20FFF773FC00218D
:1012A0002C20FFF76FFC8D212A20FFF76BFC3E21DD
:1012B0002B20FFF767FC022001F0C9F8FFF7CAFFF7
:1012C00010BD10B54FF480514C4801F012FE0120C2
:1012D00001F0BDF84FF48051484801F00CFE0120A8
:1012E00001F0B5F84FF48051444801F002FE0120AE
:1012F00001F0ADF80F210120FFF744FC00BF0120F1
:10130000FFF77CFC00F010000028F8D1012001F06C
:101310009EF83D211120FFF735FC1E212D20FFF7FF
:1013200031FC00212C20FFF72DFC8D212A20FFF716
:1013300029FC3E212B20FFF725FC402115205FE0F2
:101340000201002074000020B00000207600002080
:10135000800000207A0000200D0A54686520557333
:1013600065722069733A636172645F300D0A000030
:10137000840000207B0000200D0A5468652055730E
:1013800065722069733A636172645F310D0A00000F
:10139000880000207C0000200D0A546865205573E9
:1013A00065722069733A636172645F320D0A0000EE
:1013B0008C0000207D0000200D0A546865205573C4
:1013C00065722069733A636172645F330D0A0000CD
:1013D000900000207E0000200D0A5468652055739F
:1013E00065722069733A636172645F340D0A0000AC
:1013F00094000020DD010020B1000020000C01401D
:10140000FFF7C0FB10BD08B501210C2001F080FFE3
:101410008020ADF8000010208DF8030003208DF827
:10142000020069466F4801F0B7FC4FF48070ADF8D8
:10143000000010208DF8030003208DF8020069469B
:10144000684801F0A9FC4FF48050ADF8000004207A
:101450008DF8030003208DF802006946614801F011
:101460009BFC4FF40060ADF8000010208DF80300E5
:1014700003208DF8020069465A4801F08DFC4FF4B4
:101480008050ADF8000010208DF8030003208DF887
:1014900002006946544801F07FFC08BD10B5FFF713
:1014A000B2FF4FF48051504801F023FD80214D4898
:1014B00001F01FFDFFF705FF4120FFF7D8FE10BD2B
:1014C00010B503211420FFF7BDFB10BDF0B587B0A8
:1014D00006460F46A0208DF808008DF809600DF132
:1014E0000A02022102A8FFF753FC01A802AB042262
:1014F00002A900900C20FFF7B2FB054645B9019800
:10150000042805D19DF8080000F00F000A2800D03B
:10151000022535BB1022394602A802F083FA0024C6
:1015200004E0385D02A90855601CC4B2102CF8DB39
:1015300006AA102102A8FFF72BFC01A802AB122279
:1015400002A900900C20FFF78AFB054645B90198D7
:10155000042805D19DF8080000F00F000A2800D0EB
:101560000225284607B0F0BD00B587B050208DF8A1
:10157000080000208DF809000DF10A02022102A8DE
:10158000FFF706FC01A802AB042202A900900C2080
:10159000FFF765FB002007B000BDF8B504460D4617
:1015A00017461E460020009069465220FFF74BFD6B
:1015B0006846FFF710FD2046FFF781FC23462A46C8
:1015C00010216020FFF744FC27B131461020FFF7BF
:1015D00015FC03E031461020FFF778FFFFF7C4FF4A
:1015E000F8BD000000080140000C014010B5624841
:1015F000C06820F040606049C8600846C06840F09C
:101600008060C86000205D490860142000F043FF3E
:1016100001205B49C1F8B4011E2000F018FF10BD85
:1016200010B500245448C06820F040605249C8609A
:101630000846C068C86004E0601CC4B2012000F025
:1016400006FF4E488038006808B1642CF4DB642C37
:1016500001DB012010BD002404E0601CC4B20120A5
:1016600000F0F5FE45488038006808B9642CF4DBCA
:10167000642C01DB0120EDE70020EBE710B500242E
:1016800004E0601CC4B2012000F0E1FE3B48803859
:10169000006808B1642CF4DB002404E0601CC4B2D0
:1016A000012000F0D4FE35488038006808B9642C69
:1016B000F4DB282000F0CBFE30488038006808B109
:1016C000012010BD0020FCE770B50024002506E0D5
:1016D0006006040EFFF7D2FF0443681CC5B2082D54
:1016E000F6DB204670BD7CB505460E46FFF77EFF53
:1016F000FFF796FFF8B9002405E0FFF7E5FF0DF8C6
:101700000400601CC4B2052CF7DB9DF800009DF8B6
:10171000011008449DF8021008449DF80310084485
:101720009DF80410884208D19DF8000030709DF8A3
:101730000200287001E001207CBD0020FCE708B514
:101740000121102001F0E4FD4FF40050ADF800003D
:1017500010208DF8030003208DF802004FF4005193
:10176000054801F0C6FB6946034801F015FBFFF789
:101770003DFFFFF755FF08BD00100140B4012242B4
:101780000000224200E0401E0028FCD1704770B5E6
:1017900004460D462DB1224640213C2000F08AFD32
:1017A00004E0224600213C2000F084FD70BD70B5AD
:1017B00000241CE004F1B001C8B20021FFF7E7FFEC
:1017C00000210846FFF7E3FF00211020FFF7DFFFAD
:1017D000002508E0FE4901EBC411485D0121FFF737
:1017E000D6FF681CC5B2802DF4DB601CC4B2082C87
:1017F000E0DB70BD10B500F039FC10BD10B5FFF78F
:10180000F9FF4FF6FF70FFF7BDFF0021AE20FFF795
:10181000BEFF00210846FFF7BAFF00211020FFF7A6
:10182000B6FF00214020FFF7B2FF0021B020FFF7F4
:10183000AEFF00218120FFF7AAFF0021FF20FFF764
:10184000A6FF0021A120FFF7A2FF0021A620FFF79D
:101850009EFF0021A820FFF79AFF00213F20FFF7FD
:1018600096FF0021C820FFF792FF0021D320FFF749
:101870008EFF00210846FFF78AFF0021D520FFF7E1
:1018800086FF00218020FFF782FF0021D820FFF78C
:101890007EFF0021F120FFF77AFF0021DA20FFF719
:1018A00076FF00211220FFF772FF0021DB20FFF7F7
:1018B0006EFF00214020FFF76AFF00218D20FFF717
:1018C00066FF00211420FFF762FF0021AF20FFF721
:1018D0005EFF10BD70B500241CE004F1B001C8B279
:1018E0000021FFF754FF00210846FFF750FF0021B9
:1018F0001020FFF74CFF002508E0B54901EBC411AB
:10190000485D0121FFF743FF681CC5B2802DF4DB61
:10191000601CC4B2082CE0DB70BD70B50646002424
:101920000BE0002505E0AA4800EBC4104655681CF2
:10193000C5B2802DF7DB601CC4B2082CF1DBA548D2
:101940000078012801D1FFF7C5FF70BD10B5FFF782
:1019500055FF0020FFF7E1FF00209F49088001208C
:10196000488000208880C88001209C4908804880E9
:10197000002088800120C88010BD10B500218D2076
:10198000FFF705FF00211420FFF701FF0021AF2022
:10199000FFF7FDFE10BD10B500218D20FFF7F7FE0B
:1019A00000211020FFF7F3FE0021AE20FFF7EFFE2D
:1019B00010BD002087490870704710B50120854987
:1019C0000870FFF787FF10BD2DE9FF4780460C46E2
:1019D000914683A103C9CDE9020183A103C9CDE9E1
:1019E00000012046E11704EB5171C1F3C70708F06D
:1019F000FF06774800EBC710855DB9F1000F0AD1EB
:101A00002046E11704EB5171C910A4EBC1011DF888
:101A100001100D4009E02046E11704EB5171C91097
:101A2000A4EBC10102AA515C0D43694800EBC71049
:101A3000855568480078012814D107F1B001C8B273
:101A40000021FFF7A4FE06F00F000021FFF79FFE24
:101A5000102101EB16100021FFF799FE0121284605
:101A6000FFF795FEBDE8FF872DE9FF4F9BB090463D
:101A70009946B9F80000012807D10C2005900C27E1
:101A800018245B4802905B4E06E01020059010275A
:101A9000202459480290594E93E098F800001A907B
:101AA0001A98802816DA019404EBD4704FEA600C7F
:101AB00000941A9B029803FB0C0104EBD4704210B3
:101AC00007A801F0AFFF384607EBD071C1F347011B
:101AD000069131E008F101008046007819901998CC
:101AE00000B973E04FF0000A23E0A01C0AFB00F5E8
:101AF0000AF1010000F0FF0A715D1A9881420BD1D2
:101B0000681C315C1998814206D1AD1C71192246BE
:101B100007A801F087FF0DE0705DFF2809D1681C60
:101B2000305CFF2805D1FF22214607A801F0F1FF14
:101B300000E0DAE700BF06971C9803904FF0000A18
:101B400032E01B9804904FF0000B22E00698400012
:101B500090FBF7F000FB0AF000EBDB0007A9085C44
:101B60000BF0070280211141084030B199F80220A2
:101B7000DDE90310FFF728FF05E099F80420DDE90F
:101B80000310FFF721FF0498401C80B204900BF172
:101B9000010B06988345D9D30398401C80B203906B
:101BA0000AF1010000F0FF0A05988245C9DBB9F887
:101BB0000610069801441B98084480B21B9008F157
:101BC000010898F8000000287FF467AF00BF17E015
:101BD000ED010020C2000020BA000020B200002069
:101BE0000102040810204080FEFDFBF7EFDFBF7FFD
:101BF0004A5E00083E7400083E6400084475000810
:101C00001FB0BDE8F08F70B502460846CE1701EB55
:101C10005676C6F3C704D5B2FC4800EBC410435D4A
:101C2000CE1701EB5676F610A1EBC6061E400EB19C
:101C3000012070BD0020FCE72DE9F04F87B004467D
:101C40000D4616461F4629462046109AFFF7BCFE51
:101C5000B44204D1BD4202D107B0BDE8F08F0020EC
:101C60000290A64202DBA6EB040801E0A4EB060802
:101C7000AF4202DBA7EB050901E0A5EB0709C84568
:101C80000CDA0121029120462C46054630463E469C
:101C900007461FFA88F0C846814600BFA64201DD0C
:101CA000012001E04FF0FF300690AF4201DD01203E
:101CB00001E04FF0FF300590A24601954FEA490040
:101CC0000490A9EB0800400003900498A0EB080BD7
:101CD0001EE0BBF1000F02DA0498834405E0059989
:101CE00001980844019003988344029838B11FFA80
:101CF0008AF1019A90B2109AFFF766FE06E0019A07
:101D000091B21FFA8AF0109AFFF75EFE069882449D
:101D1000B245DED100BF9FE72DE9F84305460E46E8
:101D20001746984600240FE004F1010CCDF800801E
:101D300036F81C3035F81C2036F8141035F814002D
:101D4000FFF77AFF601C84B2781EA042ECDCBDE88D
:101D5000F8832DE9F84304460D4616461F46DDF884
:101D60002080E019401E82B22B4629462046CDF83D
:101D70000080FFF761FFA819401E83B2E019401EE2
:101D800082B2A819401E81B22046CDF80080FFF72C
:101D900053FFA819401E83B2224629462046CDF89B
:101DA0000080FFF749FFA9198BB2E119491E8AB2D9
:101DB000E119491E88B22946CDF80080FFF73CFFA3
:101DC000BDE8F8832DE9F04706460F4690469A464F
:101DD0000320A0EB48090024454646E07A1991B259
:101DE000321990B25246FFF7EFFD7A1B91B23219C9
:101DF00090B25246FFF7E8FD7A1991B2321B90B2C9
:101E00005246FFF7E1FD7A1B91B2321B90B2524667
:101E1000FFF7DAFD3A1991B2721990B25246FFF704
:101E2000D3FD3A1B91B2721990B25246FFF7CCFD26
:101E30003A1991B2721B90B25246FFF7C5FD3A1B98
:101E400091B2721B90B25246FFF7BEFDB9F1000F7E
:101E500004DA062000EB8400814405E0601B0A21BF
:101E600001EB800081446D1E641CAC42B6D9BDE814
:101E7000F0872DE9F04706460F4690469946DDF873
:101E800020A000240FE0002509E09AF800207B192B
:101E900099B2331998B2FFF797FD681C85B2454592
:101EA000F3DB601C84B24C45EDDBBDE8F0872DE927
:101EB000FE4F8046894616469A4609273546002039
:101EC0008DF80A000A2410E00A20B5FBF0F100FBAF
:101ED00011503030611E0DF801000A20B5FBF0F5FD
:101EE0000DB1781EC7B2601EC4B2BC4201DD012034
:101EF00000E00020002C01DD012100E0002108406D
:101F00000028E1D10DEB0402534649464046FFF755
:101F1000ABFDBDE8FE8F10B50246012000E0504346
:101F20000B1EA1F10104E1B2F9D110BD2DE9FF5F53
:101F30008AB015461E46DDF860A04FF0090B284612
:101F4000314603F00BF8099051460A20FFF7E3FFF2
:101F5000074603F047F8CDE90201099803F02BF892
:101F600007462A46334603F0C1F9CDE90001DDE911
:101F7000022303F087F8CDE9040102F0BFFF814698
:101F800000208DF82200002406E03020C4F1090171
:101F900006AA5054601CC4B25445F6DB0A2415E06E
:101FA0000A2099FBF0F100FB11903030C1B2601EA5
:101FB00006AA11540A2099FBF0F9B9F1000F03D0D9
:101FC000ABF1010000F0FF0B601EC4B25C4501DD07
:101FD000012000E00020002C01DD012100E00021B3
:101FE00008400028DCD12E20CAF1090106AA50546D
:101FF000CAF10900C4B2CAF1080000F0FF0B28467C
:10200000314602F0ABFF814618E00000ED010020F0
:102010000A2099FBF0F100FB11903030C1B2601E34
:1020200006AA11540A2099FBF0F9B9F1000F03D068
:10203000ABF1010000F0FF0B601EC4B25C4501DD96
:10204000012000E00020002C01DD012100E0002142
:1020500008400028DCD106A80219199BDDE90A0115
:10206000FFF702FD0EB0BDE8F09F000008B500F0DC
:10207000D5F90121102001F04BF98420ADF80000C2
:1020800010208DF8030003208DF802006946E04817
:1020900000F082FE0120DF490860DF49C1F89C01A1
:1020A00008BD10B5DA48C06820F44040D849C8607F
:1020B0000846C06840F48040C8600120D54914310A
:1020C0000860D549C1F88801042000F0C0F900205B
:1020D000D04914310860042000F0B9F90020CE493D
:1020E000C1F8880110BD10B5C948C06820F440404F
:1020F000C749C8600846C06840F48040C8600020F6
:10210000C4490860C449C1F89C01042000F09FF94B
:102110000120C0490860C049C1F89C01042000F0BA
:1021200096F910BD10B50024B948C06820F44040AD
:10213000B749C8600846C068C8600120B549143175
:10214000086000F084F90120B349C1F8880100F06B
:102150007EF907E0601CC4B2FA2C03DDFFF7C3FF71
:10216000012010BDAB486C3800680028F2D1A949A5
:10217000086000BFF5E710B50020A6490860A44834
:10218000C06820F44040A249C8600846C06840F4D6
:102190008040C8600020A049C1F89C01022000F0E6
:1021A00056F901209B490860022000F050F90020F8
:1021B0009949C1F8880110BD10B500209549086003
:1021C0009348C06820F440409149C8600846C06800
:1021D00040F48040C86001208F49C1F89C01022072
:1021E00000F035F901208B490860022000F02FF93A
:1021F00000208949C1F8880110BD70B504468448A3
:10220000C06820F440408249C8600846C06840F475
:102210008040C86000207F490860002517E0E00981
:102220007C49143108606006040E022000F00FF9AA
:1022300001207949C1F88801022000F008F9002046
:1022400074490860022000F002F9681CC5B2082D2C
:10225000E5DB70BD70B50546002600246C48C068FB
:1022600020F440406A49C8600846C068C86000BFA2
:1022700016E0002067490860022000F0E8F801201D
:102280006549C1F888016006040E62486C38006830
:1022900008B1601CC4B2012000F0D9F8701CC6B2AD
:1022A000082EE6DB15B9FFF787FF01E0FFF763FFB4
:1022B000204670BD70B504460D461646FFF7F1FE88
:1022C000002141EA4401C8B2FFF797FFFFF72AFF58
:1022D00018B1FFF708FF012070BD2846FFF78DFFFA
:1022E000FFF720FF3046FFF788FFFFF71BFFFFF7E0
:1022F000FAFE0020F0E770B504460D46FFF7D1FE68
:10230000002141EA4401C8B2FFF777FF2846FFF7F2
:1023100074FFFFF707FFFFF7C4FE012101EB440143
:10232000C8B2FFF76AFFFFF7FDFE0020FFF792FF3C
:102330000646FFF7D8FE304670BD2DE9F041054650
:102340000E4617469846FFF7ACFE002141EA4501CC
:10235000C8B2FFF752FFFFF7E5FE20B1FFF7C3FE5B
:102360000120BDE8F0813046FFF747FFFFF7DAFEB6
:1023700000240CE018F80400FFF73FFFFFF7D2FE3F
:1023800018B1FFF7B0FE0120EBE7601CC4B2BC42FD
:10239000F0DBFFF7A8FE0020E3E72DE9F041064659
:1023A0000F4614461D46FFF77CFE002141EA460118
:1023B000C8B2FFF722FFFFF7B5FE20B1FFF793FE8B
:1023C0000120BDE8F0813846FFF717FFFFF7AAFEAE
:1023D000FFF767FE012101EB4601C8B2FFF70DFFD1
:1023E000FFF7A0FE0DE0012C04D10020FFF732FF23
:1023F000287003E00120FFF72DFF2870601EC4B293
:102400006D1C002CEFD1FFF76EFE0020D9E7000015
:1024100000100140880122420000224210B56FF0F6
:10242000040000F012FA2E4800682E49B0FBF1F0CB
:102430002D4908700846007800EB4001C1EBC01040
:102440004FF6FF7101EAC0002849088010BD01461F
:10245000254A12784A434FF0E0235A6100229A61DC
:102460001A46126942F001021A6100BF4FF0E022E1
:10247000106900F001021AB100F48032002AF5D090
:102480004FF0E022126922F001024FF0E0231A61BE
:1024900000229A6170470146144A12884A434FF05D
:1024A000E0235A6100229A611A46126942F0010241
:1024B0001A6100BF4FF0E022106900F001021AB16A
:1024C00000F48032002AF5D04FF0E022126922F0A9
:1024D00001024FF0E0231A6100229A617047000068
:1024E0006000002000127A00C4000020C600002016
:1024F00000BF704700BF964A128802F04002002ACF
:10250000F9D0C2B2924B1B1D1A80704710B586B02D
:102510000446012144F2040000F0FAFE4FF400707A
:10252000ADF8140003208DF8160018208DF8170060
:1025300005A9884800F030FC4FF48060ADF8140025
:1025400004208DF8170005A9824800F025FC2520FD
:102550008DF8000003208DF801008DF802000120A5
:102560008DF80300684600F026F901940020ADF8CC
:102570000800ADF80A00ADF80C00ADF810000C2012
:10258000ADF80E0001A9724800F069FF012240F287
:1025900025516F4800F0FBFF01216D4800F0EBFF73
:1025A00006B010BD10B586B004460121042000F02D
:1025B000AFFE0121480400F0B8FE674800F00CFFB0
:1025C00018208DF817000420ADF8140003208DF8B2
:1025D000160005A95F4800F0DFFB04208DF8170006
:1025E0000820ADF8140005A95A4800F0D5FB019465
:1025F0000020ADF810000C20ADF80E000020ADF862
:102600000C00ADF80A00ADF8080001A9524800F02E
:1026100026FF0121504800F0AEFF012240F2255173
:102620004D4800F0B4FF26208DF8000001208DF801
:1026300003008DF801008DF80200684600F0BBF839
:1026400006B010BD10B540F22551414801F084F8A4
:1026500010B33F4801F000F8C4B24048008800F4CD
:102660000040C8B93D48008800F4804060B10A2CA1
:1026700003D000203949088020E03848008840F421
:1026800000403649088019E00D2C06D133480088F7
:1026900040F480403149088010E030480088C0F3A1
:1026A0000D002F490C542D480088401C2B490880F0
:1026B00008460088C72801DD0020088010BD10B53D
:1026C00040F22551244801F047F880B1224800F03B
:1026D000C3FFC4B2234801780078401C214A10701F
:1026E0002148445440F225511B4801F05FF810BDC9
:1026F00070B504460D4600260CE000BF8021164848
:1027000001F014F80028F9D014F8011B124800F069
:102710009FFF761CAE42F0D300BF40210E4801F06F
:1027200005F80028F9D070BD10B504460BE014F888
:10273000011B074800F08CFF00BF8021044800F017
:10274000F5FF0028F9D020780028F0D110BD000056
:10275000003801400008014000440040CC00002047
:10276000ED050020CE000020B50600200948804776
:1027700009480047FEE7FEE7FEE7FEE7FEE7FEE763
:10278000FEE7FEE7FEE7FEE704480549054A064B7B
:10279000704700002B09000831010008E007002005
:1027A000E00D0020E0090020E0090020314901434C
:1027B000314A1160704770B5002100230F22C478A0
:1027C00004B32D4C246804F4E064C4F5E064210AE9
:1027D000C1F10403CA40447804FA03F18478144038
:1027E00021430901254C0678A155047804F01F0502
:1027F0000124AC4005786D11AD0005F1E025C5F868
:10280000004109E0047804F01F050124AC401C4D90
:102810000678761145F8264070BD1A4A0A400243F0
:10282000154B1B1F1A60704739B1134A121D1268ED
:102830000243114B1B1D1A6006E00F4A121D12685D
:1028400082430D4B1B1D1A607047042808D14FF0BE
:10285000E021096941F004014FF0E022116107E035
:102860004FF0E021096921F004014FF0E0221161ED
:10287000704700000000FA050CED00E000E400E005
:1028800080E100E080FFFF1F10B50446FA48844253
:1028900008D10121401500F055FD0021601500F020
:1028A00051FD17E0F548844208D10121001500F0E0
:1028B00049FD0021201500F045FD0BE0F048844261
:1028C00008D10121C80300F03DFD00214FF4004074
:1028D00000F038FD10BD30B50246002000235068DE
:1028E000E84C20400D790C6844EA052420435060F0
:1028F0009068E54C2040D1E902542C434D7944EADC
:10290000450420439060D06A20F470000C7C641E63
:10291000E4B2234340EA0350D06230BD002101609D
:10292000017141718160C16001210174704721B161
:10293000826842F00102826003E0826822F00102B4
:102940008260704721B1826842F48072826003E045
:10295000826822F480728260704710B50023CBB287
:102960001AB144681C43446002E044689C434460DC
:1029700010BD816841F00801816070470146002068
:102980008A6802F008020AB1012000E000207047C6
:10299000816841F0040181607047014600208A6827
:1029A00002F004020AB1012000E00020704721B1CA
:1029B000826842F4A002826003E0826822F4A002EE
:1029C00082607047014600208A6802F480020AB1E2
:1029D000012000E00020704710B50A4600210023C6
:1029E000416821F46041531E41EA4331416010BD0A
:1029F00021B1426842F40062426003E0426822F47E
:102A0000006242607047F0B504460D460020002188
:102A1000092D11DDE068A5F10A0606EB4607072639
:102A200006FA07F18843A5F10A0606EB460603FA03
:102A300006F10843E0600CE0206905EB4507072636
:102A400006FA07F1884305EB450603FA06F1084349
:102A50002061072A0FDA606B561E06EB86071F26D9
:102A600006FA07F18843561E06EB860605FA06F1BC
:102A70000843606322E00D2A0FDA206BD61F06EBB5
:102A800086071F2606FA07F18843D61F06EB86063F
:102A900005FA06F10843206310E0E06AA2F10D0692
:102AA00006EB86071F2606FA07F18843A2F10D06FA
:102AB00006EB860605FA06F10843E062F0BD21B197
:102AC000826842F48012826003E0826822F48012FD
:102AD000826070470146C86C80B2704766484C30CF
:102AE0000068704721B1426842F48062426003E0AE
:102AF000426822F480624260704721B1426842F429
:102B00008052426003E0426822F480524260704783
:102B10000A460021816821F4E04111438160704739
:102B200021B1826842F40042826003E0826822F4AC
:102B300000428260704721B1826842F402128260D2
:102B400003E0826822F4021282607047014600208E
:102B50008A6802F400120AB1012000E000207047E8
:102B6000F0B504461546002000220026092911DD93
:102B7000E068A1F10A0707EB470C072707FA0CF2F8
:102B80009043A1F10A0707EB470703FA07F2104346
:102B9000E0600CE0206901EB410C072707FA0CF21A
:102BA000904301EB410703FA07F210432061A06B49
:102BB000C0F30156EF1C06F1010CA7EB0C0707EB65
:102BC000870C1F2707FA0CF29043EF1C06F1010C4B
:102BD000A7EB0C0707EB870701FA07F21043A06386
:102BE000F0BD10B50A4600210023816B21F440118D
:102BF000531E41EA0351816310BD08B500230093C1
:102C00000090009B0B440093009B1A6008BD08B520
:102C1000024600200090009201F12800009B184419
:102C200000900098006880B208BD0A460021416803
:102C3000164B1940114341607047416282627047F0
:102C40000A460021416821F01F011143416070478D
:102C500040B109490831096841F40001064A0832C7
:102C6000116007E004490831096821F40001024AB3
:102C70000832116070470000002401400028014024
:102C8000003C0140FFFEF0FFFDF7F1FFFFFD3FFFBD
:102C90000246002013680B400BB1012000E0002029
:102CA0007047CA430260704770B502460020002397
:102CB00000240B125568CEB205EA060415681D40C3
:102CC00015B10CB1012000E0002070BD00220A12F5
:102CD000D34303607047000010B50446CC488442DB
:102CE00008D10121042000F02DFB0021042000F078
:102CF00029FB46E0C748844208D10121082000F0A2
:102D000021FB0021082000F01DFB3AE0C24884426C
:102D100008D10121102000F015FB0021102000F047
:102D200011FB2EE0BD48844208D10121202000F093
:102D300009FB0021202000F005FB22E0B848844276
:102D400008D10121402000F0FDFA0021402000F0D0
:102D5000F9FA16E0B348844208D10121802000F03E
:102D6000F1FA0021802000F0EDFA0AE0AE4884423A
:102D700007D10121801500F0E5FA0021A01500F02F
:102D8000E1FA10BD10B50121084600F0DBFA002180
:102D9000012000F0D7FA10BD2DE9F04102460025D0
:102DA0000026002000230024002791F803C00CF027
:102DB0000F0591F803C00CF0100CBCF1000F03D00C
:102DC00091F802C04CEA050591F800C0BCF1000F73
:102DD00031D0146800202BE04FF0010C0CFA00F306
:102DE000B1F800C00CEA03069E4220D183004FF0E8
:102DF0000F0C0CFA03F7BC4305FA03FC4CEA04047D
:102E000091F803C0BCF1280F06D14FF0010C0CFA69
:102E100000FCC2F814C00AE091F803C0BCF1480FEE
:102E200005D14FF0010C0CFA00FCC2F810C0401C98
:102E30000828D1D31460B1F800C0BCF1FF0F34DD15
:102E4000546800202EE000F1080C4FF0010808FA49
:102E50000CF3B1F800C00CEA03069E4221D18300B6
:102E60004FF00F0C0CFA03F7BC4305FA03FC4CEAD5
:102E7000040491F803C0BCF1280F05D100F1080C3F
:102E800008FA0CF8C2F8148091F803C0BCF1480F9E
:102E900007D100F1080C4FF0010808FA0CF8C2F84D
:102EA0001080401C0828CED35460BDE8F0814FF656
:102EB000FF710180022181700421C17070470246B8
:102EC000002093680B400BB1012000E00020704708
:102ED0000146886880B2704702460020D3680B40E4
:102EE0000BB1012000E0002070470146C86880B2A5
:102EF000704701617047416170470AB1016100E0AC
:102F000041617047C16070474FF480320A4382616B
:102F10008161826182698269704702460020434B69
:102F200018684FF68073184040EA021008433F4B80
:102F3000186070473E49C8617047F0B50A460023E3
:102F400000240021002500F00046B6F1004F02D118
:102F5000364EF16901E0354E7168C0F3034583B226
:102F600000F44016B6F5401F08D121F070612F4ED5
:102F7000766826F070662D4F7E6012E000F48016B1
:102F8000B6F5801F06D1032606FA05F4A14341F0E9
:102F9000706106E0460D360103FA06F6B14341F0D2
:102FA000706122B1460D360103FA06F6314300F096
:102FB0000046B6F1004F02D11C4EF16101E01B4EFC
:102FC0007160F0BD30B500228B071C0F0F2303FA90
:102FD00004F2164B08338C1053F824309343134CEF
:102FE00008348D1044F8253023468C1053F82430D3
:102FF0008C07240F00FA04F423430C4C08348D1082
:1030000044F8253030BD0A49DC31086070470000C3
:1030100000080140000C0140001001400014014074
:1030200000180140001C0140002001400000014048
:1030300000002042DF48006840F00100DD490860E0
:1030400008464068DC490840DA494860084600689C
:10305000DA490840D74908600846006820F4802013
:1030600008600846406820F4FE0048604FF41F00E6
:1030700088607047CF49096821F48031CD4A1160DA
:103080001146096821F480211160B0F5803F03D01A
:10309000B0F5802F0ED106E0C649096841F48031B1
:1030A000C44A116007E0C349096841F4A021C14A3C
:1030B000116000E000BF00BF704710B5014600225C
:1030C000002300204A11012A02D1BA4C236806E0ED
:1030D000022A02D1B74C236A01E0B64C636A01F0C0
:1030E0001F02012494401C400CB1012000E000208C
:1030F00010BD38B5002000900024002500BF31200D
:10310000FFF7DBFF05460098401C00900098B0F5E3
:10311000A06F01D0002DF2D03120FFF7CEFF08B113
:10312000012400E00024204638BD01460020A14AC9
:10313000106820F0F80040EAC10010607047A04914
:1031400008607047024600209A4B586820F47C10B3
:1031500042EA01031843974B586070479849086644
:10316000704701460020934A506820F0030008434E
:10317000506070478F48406800F00C00704701466F
:1031800000208C4A506820F0F000084350607047DF
:1031900001460020874A506820F4E06008435060F0
:1031A000704701460020834A506820F4605040EA8E
:1031B000C1005060704729B17E4A527A02437D4B6C
:1031C0005A7204E07B4A527A82437A4B5A727047B1
:1031D0007B49D8310860704701460020754A506825
:1031E00020F440400843506070470021714A20326B
:1031F0001170704A82F82010012802D004280AD1E8
:1032000004E001216B4A2032117005E00521694A72
:103210002032117000E000BF00BF704769490860AC
:1032200070476449096A0143624A116270476549FF
:1032300044390860704730B5002100220024002383
:103240005C4D6D6805F00C0121B1042905D00829F9
:1032500023D105E05C4D056022E05B4D05601FE079
:10326000544D6D6805F47012524D6D6805F480344C
:10327000022505EB92421CB9544D554305600BE005
:103280004C4D6D6805F400351DB1504D554305603A
:1032900002E04D4D5543056002E04B4D056000BF17
:1032A00000BF444D6D6805F0F0010909484D6B5CA5
:1032B0000568DD4045603F4D6D6805F4E061090A31
:1032C000434D6B5C4568DD4085603A4D6D6805F4A3
:1032D0006051C90A3E4D6B5C4568DD40C560354DA7
:1032E0006D6805F44041890B3A4D6B5CC568B5FBD0
:1032F000F3F5056130BD29B12E4A526902432D4BC9
:103300005A6104E02B4A526982432A4B5A61704742
:1033100029B1284A92690243264B9A6104E0254A62
:1033200092698243234B9A61704729B1214AD2693D
:103330000243204BDA6104E01E4AD26982431D4BEE
:10334000DA61704729B11B4AD2680243194BDA602F
:1033500004E0184AD2688243164BDA60704729B1FC
:10336000144A12690243134B1A6104E0114A1269AC
:103370008243104B1A617047124940390860704708
:103380000F49C86470470B49C87170470948406AC3
:1033900040F0807007494862704701460020054AA6
:1033A00092680A400AB1012000E0002070470149FC
:1033B00088727047001002400000FFF8FFFFF6FE21
:1033C000000042428004424200127A0000093D009F
:1033D000CF000020DF00002010B50446FB488442E7
:1033E00009D101218803FFF7ADFF00214FF4804090
:1033F000FFF7A8FF32E0F648844209D101214804D2
:10340000FFF7ADFF00214FF40030FFF7A8FF25E0E4
:10341000F048844209D101218804FFF7A0FF002170
:103420004FF48020FFF79BFF18E0EB48844209D15E
:103430000121C804FFF793FF00214FF40020FFF79C
:103440008EFF0BE0E548844208D101210805FFF713
:1034500086FF00214FF48010FFF781FF10BD2DE99A
:10346000F04786B005460E460024A24600BFA1469E
:103470000027B08900B100BF2F462C8A4CF6FF70A0
:103480000440F08804432C82AC894EF6F3100440CB
:10349000B08831890843718908430443AC81AC8A00
:1034A0004FF6FF400440B0890443AC8201A8FFF707
:1034B000C2FEC648874202D1DDF810A001E0DDF867
:1034C0000CA0A88900F4004040B10AEBCA0000EB50
:1034D0000A1031684900B0FBF1F807E00AEBCA00B6
:1034E00000EB0A1031688900B0FBF1F86420B8FBEA
:1034F000F0F004012009642101FB1089A88900F47F
:10350000004040B1322000EBC900B0FBF1F000F008
:103510000700044308E0322000EB09106421B0FBEF
:10352000F1F000F00F0004432C8106B0BDE8F087F5
:103530004FF41651016000218180C18001810C216E
:10354000418100218181704710B502460020108A18
:103550004FF2FF0318400B884C8823438C88234389
:10356000CC8823431843108210BD00210180418084
:103570008180C180704721B1828942F400528281EA
:1035800004E082894DF6FF731A4082817047F0B5DE
:103590000346002400260025002040F66A17B942A1
:1035A00000D100BF1846C1F3421401F01F060127E5
:1035B00007FA06F5012C01D10C3004E0022C01D1F0
:1035C000103000E014301AB107682F43076002E0A2
:1035D0000768AF430760F0BD1AB1838A0B4383824B
:1035E00002E0838A8B4383827047028A4FF6F0732E
:1035F0001A400282028A0A430282704782894FF28D
:10360000FF731A40828182890A438281704721B107
:10361000828942F00202828104E082894FF6FD73C2
:103620001A4082817047028A4FF6DF731A40028285
:10363000028A0A430282704721B1028A42F4804220
:10364000028204E0028A4BF6FF731A40028270473E
:10365000C1F308028280704701468888C0F30800E1
:103660007047818941F0010181817047028BD2B29C
:103670000283028B42EA012202837047028B02F42A
:103680007F420283028B0A430283704721B1828A00
:1036900042F02002828204E0828A4FF6DF731A40F1
:1036A0008282704721B1828A42F01002828204E055
:1036B000828A4FF6EF731A408282704721B1828A64
:1036C00042F00802828204E0828A4FF6F7731A40C1
:1036D0008282704721B1828942F40042828103E0F4
:1036E0008289C2F30E028281704721B1828A42F43C
:1036F0000062828204E0828A4FF2FF731A40828263
:103700007047828A4FF6FB731A408282828A0A438C
:103710008282704721B1828A42F00202828204E0F2
:10372000828A4FF6FD731A4082827047024600205B
:10373000B1F5007F00D100BF13880B400BB1012011
:1037400000E00020704701F40072B2F5007F00D164
:1037500000BFCA430280704770B5024600240023B0
:103760000025002040F66A16B14200D100BFC1F327
:10377000421501F01F03012606FA03F3012D02D1C1
:103780009689334006E0022D02D1168A334001E0CB
:10379000968A33400C12012606FA04F41688344047
:1037A00013B10CB1012000E0002070BD10B5002263
:1037B000002340F66A14A14200D100BF0A1201247E
:1037C0009440A3B2DC43048010BD000000380140E7
:1037D0000044004000480040004C004000500040C1
:1037E000704700000FB4044910B503AA029800F016
:1037F0001FFA10BC5DF814FBC80000200FB41CB504
:10380000074B06AA7B4469460090059800F0F7F93B
:103810000020694600F006FA1CBC5DF814FB0000AD
:103820001D0400002DE9F0410646002410687529AA
:10383000314616A510D0AFF30080002802DA4042CE
:1038400013A507E031688A0701D512A502E04907F0
:1038500004D511A5012401E0AFF3008000210A2264
:1038600006F1240709E0B0FBF2FCB0FBF2F302FB27
:103870001C00303078541846491C0028F3D12346E8
:103880002A463046BDE8F04100F05AB90000000079
:103890002D0000002B000000200000002DE9F05F4B
:1038A000894604464FF0000ADFF874B1FB44C0F8C3
:1038B00020A02046E1688847002874D0252806D03B
:1038C000D4E901219047206A401C2062F1E70026DC
:1038D0005F462046E16888472028054607DB312DF2
:1038E00005D2781910F8200C08B10643F1E7B007AB
:1038F00001D526F00406C4F81CA00027C4F818A0BF
:103900002A2D09D0284600F0BFFA38B304EB870807
:10391000303DC8F8185019E059F8041B204604EB54
:1039200087029161E1688847012F054618D1E06957
:10393000002820DA26F020061DE0D8F8180000EB59
:10394000800005EB40003038C8F818002046E168D8
:103950008847054600F098FA0028EED1012F0AD0DA
:103960002E2D08D12046E16888477F1C0546022F8E
:1039700046F02006C4DBA069002803DA404246F086
:103980000106A061F00701D026F010066C2D0BD0C7
:10399000682D09D04C2D39D06A2D35D0742D35D0F5
:1039A0007A2D33D016E038E0E1682F46204688476C
:1039B000B842054609D16C2F26D04FF48060E168EB
:1039C000064320468847054604E06C2F1AD04FF482
:1039D000807006430DB3A5F14100192802D82035A7
:1039E00046F400664A462946204626604E46FCF7C5
:1039F000D9FB80B101280BD0F61D26F0070000F19D
:103A0000080956E74020E4E78020D8E70020D6E701
:103A100006F104094DE7284652E7206ABDE8F09F09
:103A2000E6410000032A40F2308010F0030C00F061
:103A3000158011F8013BBCF1020F624498BF11F8E8
:103A400001CB00F8013B38BF11F8013BA2F10402A1
:103A500098BF00F801CB38BF00F8013B11F0030319
:103A600000F02580083AC0F0088051F8043B083A7D
:103A700051F804CBA0E80810F5E7121D5CBF51F81F
:103A8000043B40F8043BAFF30080D20724BF11F899
:103A9000013B11F801CB48BF11F8012B24BF00F8FE
:103AA000013B00F801CB48BF00F8012B704710B56F
:103AB000203AC0F00B80B1E81850203AA0E8185026
:103AC000B1E81850A0E81850BFF4F5AF5FEA027CE7
:103AD00024BFB1E81850A0E8185044BF18C918C056
:103AE000BDE810405FEA827C24BF51F8043B40F8F7
:103AF000043B08BF7047D20728BF31F8023B48BFDC
:103B000011F8012B28BF20F8023B48BF00F8012B19
:103B1000704702F0FF0343EA032242EA024200F048
:103B20009BB8704770477047704710B500F0B4F805
:103B3000006810BD10B5044600F0AEF8046010BD7A
:103B40002DE9F0470D4699469246044600F12408B7
:103B50000168880604D5E06921F01001216000E0C9
:103B60000120A84201DD471B00E00027A1697A1966
:103B700002EB0900081AA0612078C00602D4204692
:103B8000AFF30080002608E0D4E901211AF806000E
:103B90009047206A401C761C20624E45F4DB20785A
:103BA000C0060AD52046AFF3008006E0D4E9012123
:103BB00030209047206A401C2062381EA7F1010780
:103BC000F4DC07E0D4E9012118F805009047206AE9
:103BD000401C2062281EA5F10105F3DC2046AFF34E
:103BE00000802078000602D50220BDE8F087012081
:103BF000FBE7000001694A1C02610878704700B5C4
:103C00008FB0CDE901310021059105497944CDE915
:103C1000031011466846FFF741FE0FB000BD0000DB
:103C2000E5FFFFFF0A6802F8010B0A607047000019
:103C3000074B70B50D467B44FFF7E1FF044628466D
:103C400000F02EF810B14FF0FF3070BD204670BD6F
:103C5000BBE8FFFF4FF000020429C0F0128010F013
:103C6000030C00F02380CCF1040CBCF1020F18BF50
:103C700000F8012BA8BF20F8022BA1EB0C0100F0EB
:103C800015B85FEAC17C24BF00F8012B00F8012BB6
:103C900048BF00F8012B704700487047800700209C
:103CA000007B00F0800070474FF0000200B5134623
:103CB00094469646203922BFA0E80C50A0E80C504C
:103CC000B1F12001BFF4F7AF090728BFA0E80C50FD
:103CD00048BF0CC05DF804EB890028BF40F8042BF6
:103CE00008BF704748BF20F8022B11F0804F18BF63
:103CF00000F8012B70470000004870478007002043
:103D00007546FFF7F9FFAE4605006946534620F0B9
:103D10000700854618B020B5FEF736FDBDE8204007
:103D20004FF000064FF000074FF000084FF0000B77
:103D300021F00701AC46ACE8C009ACE8C009ACE82A
:103D4000C009ACE8C0098D46704710B50446AFF312
:103D500000802046BDE81040FCF736BA490050EA22
:103D6000C12018BF04204A0D18BF40F0010040F2E6
:103D7000FF72B2EB515F08BF40F00200012808BF9C
:103D8000052070472DE9F0414F1E00EBC7010446A6
:103D9000D1E9000115461E4637F006020DD02A462D
:103DA000334601F06FF97F1E04EBC703D3E900230C
:103DB00000F090FE37F00602F1D1022F25D0042F3B
:103DC00013D0062F18BFBDE8F0812A46334601F014
:103DD00059F9D4E90A2300F07DFE2A46334601F062
:103DE00051F9D4E9082300F075FE2A46334601F064
:103DF00049F9D4E9062300F06DFE2A46334601F066
:103E000041F9D4E9042300F065FE2A46334601F067
:103E100039F9D4E9022300F05DFE2A46334601F069
:103E200031F9D4E90023BDE8F04100F053BE0000B1
:103E3000002213461046014900F008BF0000F03F81
:103E400000F048BE002213461046114600F0FEBEA8
:103E500040F2013200204FF0E04101F08ABF000043
:103E6000024A0020110701F084BF000001FDFFFF9E
:103E700000214FF07E5001F0B5BC012101F0A7BF39
:103E80000021084601F0AEBC30380A2801D20120DA
:103E900070470020704700002DE9F0410026A0F592
:103EA0000001B1F1FE4F7DD200F500226FF07E01DE
:103EB00001EBE251C2F3025477184FF07E52A0EBAF
:103EC000C15602EB045557EA040047D02946304654
:103ED00001F014FC80462946304601F0A3FE41461D
:103EE00001F080FC0546014601F09EFD80464A49EE
:103EF00001F09AFD494901F001FC06464146284679
:103F000001F092FD314601F08FFD0646384601F082
:103F10002BFD0746424901F087FD4249794451F89B
:103F2000241001F0EBFB314601F0E8FB06463E4968
:103F3000284601F079FD314601F0E0FB05463846A0
:103F40003A4901F071FD3A49794451F8241001F0E1
:103F5000D5FB2946BDE8F04101F0D0BB4FF07E51C2
:103F6000304601F05FFE0546324901F05DFD324901
:103F700001F0C4FB294601F057FD304901F0BEFBBA
:103F8000294601F051FD2E4901F0B8FB04462946AF
:103F9000084601F049FD214601F046FD0446294945
:103FA000284600E00EE001F03FFD214601F0A6FBAF
:103FB00004462549284601F037FD2146BDE8F04179
:103FC00001F09CBB4FF07F42B2EB400F03D2BDE843
:103FD000F041FFF752BFB0F1FF4F08BFBDE8F081DD
:103FE000B0F1004F06D90120FFF7A4FDBDE8F04174
:103FF000FFF746BF30F0004105D06FF016061721DD
:1040000001F0E5FE50E70220FFF794FDFFF730FFD7
:1040100080F00040BDE8F081DE02323E3B3D943E40
:10402000FC849A36A83B0000D95B5E3F00209A3E94
:104030005C3B0000924FA93D7279DEBD2D3E143EDF
:10404000D85B5EBE157B4B3C0000D83E2DE9F04DA1
:104050001D460C4698B0174621F0004123F000435E
:10406000002814BF4FF0010C4FF0000C0CEB440C77
:10407000FE4A0CEB02064FEA620C66452BD33E006B
:1040800018BF012606EB45061644F94A964222D38C
:10409000F84A53EA070C02D0944205D148B918B047
:1040A00000201146BDE8F08D002808BF4FF0000C3D
:1040B00001D04FF0010C0CEB440212F5001F0AD89E
:1040C000002F14BF4FF0010C4FF0000C0CEB450219
:1040D00012F5001F07D918B03A462B462146BDE815
:1040E000F04DFFF7ADBE0022DFF88CA3002CB8BF67
:1040F000534526DADFF884C36345A8BF022220DADD
:10410000DFF870C39C451CDCDFF874C30CEB235C48
:10411000BCF1140F08DDCCF1340627FA06FC0CFACA
:1041200006F6BE420DD108E05FB9CCF1140623FAC1
:1041300006FC0CFA06F69E4203D10CF00102C2F115
:10414000020251EA000C19D1002D17DA002C18BF19
:10415000022A01D0012A07D00220FFF7EBFC18B099
:10416000BDE8F04DFFF764BE0220FFF7E3FCFFF768
:104170005FFE18B081F00041BDE8F08DB7F1000C92
:104180006CD1534525D104F1804212F5801201BF54
:1041900000280020B74918B008BFBDE8F08DB54829
:1041A000884207DC002DA1BF6046294618B0BDE853
:1041B000F08D07E0281E05DA80F0004118B0604657
:1041C000BDE8F08DAF497944D1E9000118B0BDE8F0
:1041D000F08DDFF8A0C2634525D1002D1FDA19B19B
:1041E000514512D1D8B909E0002840F0EC82A24A2A
:1041F000214618B062F31E01BDE8F08D0020214673
:1042000018B060F31E01BDE8F08D08DA18B023463F
:10421000BDE8F04D02460020614600F017BD18B021
:104220002146BDE8F08D514518DAB5F1804F0DD02B
:10423000A5F1005CBCF1FF5C10D1B4F1000C0DDB0A
:1042400018B06146BDE8F04D00F0ECBB234618B055
:104250000246BDE8F04D194600F014BF060024F0F8
:10426000004C3BD1D9B1514533D1002C06DD002D96
:10427000A1BF0020514618B0BDE8F08D002C01DD33
:10428000002D1BDB002C13DA002D11DB012A4FF06F
:10429000000014BF78497C4918B0BDE8F08D022AAF
:1042A00018BF002C0AD0012A08D1002C06DA0AE037
:1042B000002CB8BF002D11DA012A04D0002018B05C
:1042C0000146BDE8F08D18B000204FF00041BDE878
:1042D000F08DA1F14050B0F17F601AD0012000EBC9
:1042E000E47050EA020421D0624C521E4FF0000BE1
:1042F000104304BF4FF0000B644C654883427CDDE3
:10430000644A654893421FDD884217DB002D25DB98
:1043100037E0002C00DA4AB1022A0CBF01204FF02E
:10432000FF3018B0BDE8F04D00F045BE0120FFF7AA
:1043300001FC18B0BDE8F04DFFF784BD4D4A8A423C
:1043400002DC002D0ADC1CE0814202DA002D18DAC2
:1043500004E0484B994220DD002D12DD0220FFF7DA
:10436000E9FBFFF775FD05460E4600225346584609
:10437000214600F087FE18B066F31E012846BDE80E
:10438000F08D0220FFF7D6FBFFF76AFD0A462146B3
:1043900018B062F31E01BDE8F08D00223046614680
:1043A00001F096F880460E466FF0010201F0E1FC44
:1043B0004FF05532394B00F099FF4246334600F03A
:1043C00061FE0022364B00F091FF824642463346A2
:1043D00004911046194600F055FE5246049B00F029
:1043E00051FE8A4600904FF0C0422E4B4046314667
:1043F00000F048FE2C4A2B4B00E027E0CDE90601F7
:104400005146009800F03EFE82460191274A284B13
:104410004046314600F036FE5246019B01F058F806
:1044200082460B4602460591DDE9060100F052FB8B
:10443000DDE9062300268846304601F049F8524659
:10444000059B00F053FF024600F07EB90020B1F555
:10445000801F07DA35223046614601F08AFC0646A5
:104460006FF0340000EB215024E00000FFFF1F003C
:10447000FFFF0F000000F03F0000F07F000040430E
:1044800001FCFFFFA63900000000F0FF0000F0BFB4
:104490000000E0410000F043FFFFEF3F5555D53FDE
:1044A0000000E03F4715F73FFE822B6544DF5DF8D3
:1044B0000BAE543EA0F2FF300190C1F3130040F068
:1044C0007F6141F040510291FE498842D8BF0020EF
:1044D00004DDFD498142C8BF012001DD0D9008E0E7
:1044E00000200D900198401C01900298A0F58010CA
:1044F00002900299F54878440B910D9900EBC100A8
:10450000D0E900230F9330460A920B9900F0E0FFA8
:10451000CDE90601DDE90A2130460F9B00F0DAFA09
:1045200002460B460020EA4900F090FB0591024646
:104530000B460090DDE9060100F0A4FD1490E5486B
:104540008A464FF0000878440299006812904FF0B4
:10455000005040EA61010D980F9B01EB804000F58F
:10456000002109910A9A129800F0B2FF32460B9B83
:1045700000F0BCFE4246534600F084FD0646029120
:1045800040465146099B129A00F07CFDDDE9062366
:1045900000F0ACFE3246029B00F09AFF059B009AA9
:1045A00000F070FD0091149A04905346104619468D
:1045B00000F068FD06460246C7480B4602910621F8
:1045C0007844FFF7DFFBCDE90510029B3246104629
:1045D000194600F057FDDDE9053200F053FD059165
:1045E0000646534640461946149A00F073FA009B5B
:1045F000049A00F047FD3246059B00F06BFACDE9C6
:104600000510424653461046194600F03BFD002275
:10461000B24B02910A9000F05DFADDE9053200F03C
:1046200059FA0E464246AD4B404600F051FF029B00
:104630000A9A00F04DFFDDE9053200F057FE4246D0
:1046400002910A9033461046514600F01BFDCDE919
:1046500006015346149A02990A9800F013FD8A46FF
:104660000290334642460099049800F00BFD5346F1
:10467000029A00F02FFA82460B4602460591DDE9C8
:10468000060100F027FADDE90623002088460646E9
:1046900000F01EFF5246059B00F028FE824609915D
:1046A0004FF060428E4B3046414600F0EBFC0490E8
:1046B00006918C4A8A4B5046099900F0E3FC8246E9
:1046C0000291894A894B3046414600F0DBFC524654
:1046D000029B00F0FFF9864B7B440D9A03EBC2036B
:1046E000D3E9002300F0F6F90E900791019800F04D
:1046F00062FC0591DDE9061382460E9A049800F0EB
:10470000E9F97C4A7A440D9B02EBC303D3E9002309
:104710000093029200F0DEF95246059B00F0DAF9B0
:104720000026884652463046059B00F0D1FE009B8D
:10473000029A00F0CDFE069B049A00F0C9FE079B8A
:104740000E9A00F0D3FD024600200B460290384638
:10475000294600F097FC824601912B4638461946BF
:10476000029A00F0B5FE3246434600F08BFC5246FA
:10477000019B00F0AFF907468A4632464346294678
:10478000029800F07FFC05460E463A46534600F07C
:10479000A1F9594A8846914221DBA8EB020353EA6A
:1047A000000210D12A46334600F092FECDE9040102
:1047B000524A534B3846514600F08CF9DDE9042348
:1047C00000F05EFD21D20220FFF7B4F9FFF740FBB5
:1047D0000A46214618B062F31E01BDE8F08D494B30
:1047E00028F000429A4210D3474A08EB020353EAEA
:1047F00000027FF4C6AD2A46334600F069FE3A4611
:10480000534600F03DFD7FF6BCAD0022019228F03A
:1048100000403E493E4A01EB2051824223DA481CC7
:104820004FF4801121FA00F040443A4AC0F30A5193
:104830007A44394BA1F2FF31CB4020EA0303C0F3A5
:10484000130040F48010C1F11401C84012680190B7
:10485000B8F1000FBCBF404201902846314600F03D
:1048600037FE05460E462A4633463846514600F086
:1048700031F94FF000084246284B4046059100F0C0
:1048800001FCCDE90601264A264B4046059900F079
:10489000F9FB009102902A4633464046059900F004
:1048A00017FE3A46534600F021FD1F4A1F4B00F009
:1048B000E9FB009B029A00F00DF907468846024684
:1048C0000B4635E08E9803007AB60B00EE350000FB
:1048D0000000F03F2636000054350000000008407C
:1048E00009C7EE3FFD033ADCF5015B14E02F3EBE45
:1048F0002C340000F033000000009040FE822B6555
:104900004715973C00CC904000346F3F01FCFFFFFF
:104910000000E03F3C330000FFFF0F00432EE63F66
:10492000396CA80C615C20BEEF39FAFE422EE63FDE
:10493000DDE9060100F0CEF8DDE9062305460E4666
:1049400000F0C6FD3A46434600F0D0FC0F462A462A
:10495000334600901046194600F094FB824602460A
:104960002E4888460B4605217844FFF70BFA52463D
:10497000434600F087FB2A46334600F0B7FC8046EA
:104980008A463B4628463146009A00F07BFB3B4670
:10499000009A00F09FF80691009000224FF08043AB
:1049A0004046514600F094FD0F460C904246534657
:1049B0002846314600F066FB3B460C9A00F046F96B
:1049C000069B009A00F084FD2A46334600F080FDE5
:1049D0000022134B00F08AFC054601980E4601EBBD
:1049E00000510815002810DC28463146019A01F0D4
:1049F000C0F9FFF7B3F9042808BFFFF731FA2846DA
:104A00003146019A01F0B5F905460B4618B02A4621
:104A100058462146BDE8F04D00F034BBDC310000C3
:104A20000000F03F2DE9F04106460F4600F06AFC19
:104A3000041E0D4618BF0120284320F00040C0F19D
:104A40007F6000F1E040C00F0ED0301C18BF012085
:104A5000384320F00040C0F17F6000F1E040C00F1B
:104A600004BF0120FFF766F820462946BDE8F08123
:104A700021F00042A2F16052B2F5801F01F0004324
:104A800028BFD2F17F6C0BD95FEA001C43EAC20257
:104A900042EB507018BF704728BF20F001007047EC
:104AA000B2F5801FBCBF184670474FEA410C1CF599
:104AB000001F02D2084601F07EB870B500F08CFBF2
:104AC00000000089FFF7F6BF4FF00040A0F580001E
:104AD0007047000010B591EA030F48BF83F0004310
:104AE00000F1FE84841A71EB030C05D2121943EB1A
:104AF0000C03001B61EB0C01DFF824E14FEA1154B9
:104B0000A4EB135C1EEA430F18BF9EEA445F73D008
:104B100023EA0E03DCF1200E21EA045143F4801352
:104B200032D322FA0CFE10EB0E0023FA0CFE41EBFE
:104B30000E01CCF1200E03FA0EFE10EB0E0051F127
:104B40000001B1F5801FCCF1200E32D201EB0451EF
:104B500012FA0EF2BDE8104058BF7047401C38BF33
:104B60005FEA420218BF7047002814BF20F001001E
:104B700041F100014FEA410313F5001F38BF7047B0
:104B8000A1F1C04100F076BB012A43EB0302ACF176
:104B9000200CDCF11F0E32BF4FF0000E23FA0CF395
:104BA00010EB030041EB0451B4EB115FD0D0A1EB4B
:104BB000045101F5801149085FEA300001EB04510E
:104BC0000ED350F1000038BF12FA0EFE08D1BDE836
:104BD0001040C9E7401C38BF5FEA4202CAD1C3E7B0
:104BE000BDE810404FEA410313F5001F38BF70477E
:104BF000A1F1C04100F03EBB9EEA445F08D011EA3B
:104C00005E0FBDE8104004BF01F000410020704776
:104C1000BDE8104070B500F0DFFA00BF64FBBE3E97
:104C20000000E0FF02494FF0000001F070B800BF43
:104C30000000F87F491058BFC1F140415B1058BFD8
:104C4000C3F140438B42EFF3008070472DE9C04130
:104C500030B4DFF8A0C23CEA111418BF3CEA1314C8
:104C600000F0EC8081EA03051CEA111444EAD574D3
:104C700018BF1CEA131500F0C780A4EB05044FF021
:104C8000004545EAC12145EAC32341EA505143EAC0
:104C9000525304F17F74994204F500344FEAC02066
:104CA0004FEAC22208BF904200F09C804FEA136591
:104CB0000FF24016765D4FEA134506FB05F7C7F184
:104CC000807706FB07F74FEAD737A7FB03687642E2
:104CD000C8F58038A7FB06CE38BFA8F1010807FB4E
:104CE00008E64FF0000EA6FB028CE6FB03CEDCF1DB
:104CF000000CCEF1004E38BFAEF1010EA6FB0C58F1
:104D00004FF000074FF00005E6FB0E87A1FB08C639
:104D1000A0FB07CE16EB0E0645F10005E1FB07658B
:104D200015F1E04E7EBFA4F580345FEA46066D4182
:104D300016F1800745F100054FEA17274FEA06668E
:104D400047EA0567A6F1DE46B6F1805F4FEA152512
:104D50001FD9384624F0010C05EBC471BCF1FE6F7D
:104D600001EB0C1102D8F0BCBDE8008124425CBF0D
:104D700001F5801E9EEAC47F02D4F0BCBDE800812C
:104D8000244238D4F0BCA1F1C041BDE8004100F09C
:104D900071BA4FEAD22242EA43524FEAD323A7FB29
:104DA00002864FEAD02040EA415007FB03661EEA24
:104DB0000E0F4FEAD12105FB026658BFA6EB005645
:104DC000B6EB00564FEA520E4EEAC37E18EB0E0EBB
:104DD00056EB530EBDD518EB02085E417F1C55F112
:104DE0000005B6E74FF480154FF000074FF00006BE
:104DF0004FF00008ADE7F0BC4FF0000001F1C041FA
:104E000001F00041BDE8008111EA0C1F0CEA131506
:104E100000D00CE013EA0C1F00F025804FF00000DA
:104E2000F0BC81EA030101F00041BDE80081F0BC63
:104E3000BDE8004181EA030100F01CBAF0BCBDE806
:104E4000004170B500F0C8F9097EFC3E00F007B8DB
:104E500081EA03014FF0000001F00041704781EA50
:104E6000030100F007BAF0BCBDE800414FF00000BC
:104E700021497047FFFDFBF9F7F5F4F2F0EEEDEB99
:104E8000E9E8E6E4E3E1E0DEDDDBDAD8D7D5D4D348
:104E9000D1D0CFCDCCCBCAC8C7C6C5C4C2C1C0BF94
:104EA000BEBDBCBBBAB9B8B7B6B5B4B3B2B1B0AF9A
:104EB000AEADACABAAA9A8A8A7A6A5A4A3A3A2A17E
:104EC000A09F9F9E9D9C9C9B9A9999989797969539
:104ED00095949393929191908F8F8E8E8D8C8C8BD5
:104EE0008B8A89898888878786858584848383825D
:104EF000828181800000FF070000F87F4FEA4103B4
:104F00004FEA5353A3F58063D3F11E03C8BFD3F117
:104F1000210C0CDD4FF0004242EAC12242EA50521D
:104F200032FA03FC8CEAE17CACEBE1707047102BA9
:104F3000C4BF0020704703F5787CBCF1FF3F04D06C
:104F40006FF0004282EA2100704770B500F044F92A
:104F50004992248000207047F2E700004FEA115385
:104F6000A3F58063D3F11E03A8BFD3F1200C08DBA7
:104F70004FF0004242EAC12252EA505232FA03F0A4
:104F8000704709420BD4102BC4BF0020704703F5B3
:104F9000787CBCF1FF3F05D04FF0FF3070474FF0F9
:104FA0000000704770B500F017F900BF49922480E7
:104FB00000207047F0E710F0004248BF4042B0FACE
:104FC00080F310FA03F10AD0C3F11D0303F58063E7
:104FD0004FEA415002EB035202EBD12170474FF0F0
:104FE00000007047B0FA80F310FA03F10AD0C3F161
:104FF0001D0303F580634FEA41504FEA035202EB71
:10500000D12170474FF000007047000051EA030CB7
:1050100017D41CF5801F58BFBCF5801F00F1068017
:10502000994218BF704708BF9042704707D711F5E3
:10503000801F58BF13F5801F19D4994270478942C9
:1050400070471CF5801F08D5BCF5801FF7D58B4233
:1050500018BF704708BF824270474FF4001C1CEB1A
:10506000410F38BF1CEB430F01D28B42704770B524
:1050700000F0B2F8922449004FF000514FF08053F5
:10508000FFF7D8BDDFF848C170B51CEA111E1EBF7E
:105090001CEA13159EEA0C0F95EA0C0F00F06F80C6
:1050A00081EA030423EA4C134EEAD47E21EA4C1130
:1050B00041F4801143F48013AE44A1FB024CA0FBE9
:1050C0000365AEF17F7E361955EB0C05A1FB034C51
:1050D0004CF10003A0FB021C16EB0C06654153F1DA
:1050E0000003094218BF46F0010613F4007F0BD1FC
:1050F0004FEA03314FEA0530340341EA155140EAE3
:1051000016506FF003020AE04FEAC3214FEAC520B0
:10511000F40241EA555140EA56506FF0020202EBA8
:105120002E4201EB025585EACE710AD05FEA440CAB
:1051300018BF24F0004450F1000041F1000120EAC2
:10514000D47040F2FE7C624500D270BDA84214BF0C
:105150004FF080444FF04044002E08BF0024BEF1C1
:10516000806FA8BFA1F1C041BDE8704080F282808D
:105170004FF0000001F1C04101F0004170479EEA8C
:105180000C0F0CEA131518BF95EA0C0F06D04FF060
:10519000000081EA030E0EF0004170BD00F01CF823
:1051A0008900013E00F007B800F009B84FEA430C4F
:1051B0005FEA5C5C08D081EA030100F05BB84FEA6B
:1051C000410C5FEA5C5CF6D14FF00000014970478A
:1051D0000000FF070000F87F0EF1020E2EF0030E14
:1051E0005EF8046B364205D4012A43EB030515F53E
:1051F000001F12D8012841EB010C1CF5001F0CD830
:105200000ED14FEAD17C15F5001F0CEB4C0C0CF1C4
:10521000020C08BF4CEBD37C04E04FF0080C01E01B
:105220004FEAD37C0CEB4C0526FA05F606F0070690
:10523000B6F1040C06D20EEB860CBDE870404CF0C3
:10524000010C6047DFE80CF0090B02024FF000414F
:105250004FF00000A1F5002170BD1946104601284D
:1052600051EB010418BFD4F5001484BF002001F0F5
:10527000004170BD0808A0F500114FEA31017047E8
:1052800053EA010C17D41CF5801F58BFBCF5801FD2
:1052900000F106808B4218BF704708BF82427047FA
:1052A00007D713F5801F58BF11F5801F19D48B4203
:1052B00070479B4270471CF5801F08D5BCF5801FC6
:1052C000F7D5994218BF704708BF904270474FF416
:1052D000001C1CEB430F38BF1CEB410F01D299425D
:1052E00070470FB40CBC03BCFFF7C1BE91EA030FBB
:1052F00010B581F000413FF5F5AB83F0004300F0BD
:10530000EFB800002DE9F04101F5801CBCF5001F4D
:10531000C0F2C3804FEA115C21EA0C510CF1FD0C84
:1053200041F480115FEA5C0C0CF5C07C01D34000B5
:1053300049413DA4890241EA905187028E0E0A0C30
:10534000A45D04FB04F602FB06F6C6F14046A4FB8E
:105350000662F60D46EA422606FB06F4A4FB01238C
:105360005242C3F1404338BF5B1EA6FB02420024F9
:10537000E6FB0324D20B42EA4446A6FB0623A1FB2C
:1053800002E2A3FB07E4A4184FF0000252F100026E
:10539000E3FB01426442C2F1404E38BFAEF1010E60
:1053A000A6FB04234FF00002E6FB0E32A2FB0346ED
:1053B0004FF00004B61954F10004E2FB0264A1FBB3
:1053C00006E6A4FB07E816EB08064FF0000858F1C4
:1053D0000008E4FB01687642C8F1405838BFA8F1E4
:1053E0000108A2FB06E4A3FB08E52D194FF0000419
:1053F00054F10004E2FB0854A1FB05E6A7FB04E816
:1054000018EB06084FF0000656F10006E1FB048693
:1054100018F1200556F10006A809A8F11B08B109EA
:1054200008F03F08B8F10A0F40EA86601CD901EB8A
:105430000C51BDE8F08100BFFCF5EEE8E2DDD8D309
:10544000CFCBC7C3C0BDB9B6B4B1AEACA9A7A5A3F5
:10545000A19F9D9B9A9896959392908F8D8C8B8906
:105460008887868584838281A0FB006800FB01F227
:1054700008EB4208B8EB872807D5341858EB01042D
:10548000D5D5401C51F10001D1E7341A78EB010465
:10549000CDD4401E71F10001C9E75FEA4C0C5FEA10
:1054A0009C5C0DD105D34FF0000001F00041BDE838
:1054B000F081BDE8F04170B5FFF78EFE6DDBFFBEF9
:1054C000BDE8F0414FF00000004970470000F87F50
:1054D00010B591EA030F48BF83F000433FF502ABDC
:1054E000841A71EB030C07D212198CF0004C43EBB9
:1054F0000C03001B61EB0C01DFF8A4E14FEA11542F
:10550000A4EB135C1EEA430F18BF9EEA445F00F051
:10551000B08023EA6E03524221EA0451C3EB6E03CA
:1055200038BF5B1EDCF1200E25D322FA0CFE10EBF7
:105530000E0043FA0CFE41EB0E01CCF1200E03FAF3
:105540000EFE10EB0E0051F10001CCF1200E29D41B
:1055500012FA0EF201EB0451BDE8104058BF70473B
:10556000401C1CBFB2F1004F704700280CBF491C03
:1055700020F00100704712EB020E43EB030218BF4C
:105580004FF0010E4EEA4202ACF1200CDCF11E0E8F
:1055900054D943FA0CFE10EB0E0051F1FF31CCF15F
:1055A0001E0ED5D50EF1010E12FA0EFE404141EB52
:1055B000010101EB445C5FEA5C5C10D910EBDE702A
:1055C00001EB045138BFBEF1004FBDE8104018BFD9
:1055D000704700280CBF491C20F00100704730D2F2
:1055E0004FEAD42C11F5001124F400641BD0B1FA59
:1055F00081F20B3AA41AA41ED2F12003914030FA92
:1056000003F31943904001EBCC71002C01EB0451E2
:10561000BDE81040A8BF704701F1C0414FF0000045
:1056200001F000417047B0FA80F310FA03F100D1A5
:1056300010BDE41A173C4805C90AE4E701EB045120
:1056400010BD491001EB0451BDE810404FEA300095
:1056500002E04FF0000170474A0008BF0042F8D056
:10566000B2F5001F28BF704701F000414FF0000065
:1056700070479EEA445F07D011EA5E0FBDE8104014
:1056800004BF002100207047BDE8104070B5FFF74F
:10569000A3FD00BF40DFF63E83F000411046704797
:1056A0000000E0FF43004FEAD30C4FEA3C0C4340BC
:1056B0001FBF40070CF1605113F0FE4F70471CF004
:1056C000006F03D100200CF0004170470CF0004344
:1056D00043EA507010B540EACC0000F026FA00BF53
:1056E000000000924FEA0001FFF7C4BD4FF00041F7
:1056F0004FF00000A1F500217047000090EA010F73
:1057000048BF81F0004100F19482421A3CBF801AE8
:1057100089184FEAD0524FF07F4C1CEA410FA2EBA0
:10572000D15318BF9CEA026F00F03B804FF0004C51
:105730004CEA00204CEA012121FA03FC10EB0C0C8E
:105740001ED202F1FF325FEA1C2040EBC25038BF8C
:1057500070471CF07F0F4FEA400C18BFBCF17F4F21
:1057600038BF7047C3F12003994008BF20F0010003
:10577000BCF17F4F38BF7047A0F1C04000F01BBAAA
:105780004FEA3C00000A40EBC25028BF1CF0FF0F5C
:105790004FEA400CE6D018BFBCF17F4F38BF7047CE
:1057A000EAE79CEA026F05D010EA5C0F08BF00F040
:1057B0000040704710B500F0B8F900BF64FBBE3E72
:1057C000014800F0A4BA00BF0000C07F401058BFDD
:1057D000C0F14040491058BFC1F140418142EFF350
:1057E000008070474FF47F0C1CEAD0121EBF1CEAE9
:1057F000D11392EA0C0F93EA0C0F00F0858090EA27
:10580000010F48BF42F4807240F4000C41F40000E4
:105810002CF07F4120F07F4000B58142A2EB0302D3
:105820000FF2081CACEB504EC0F100009EF800E0F7
:105830004FEA4E0E00FB0EFC38BF49004FEA2C1C0D
:1058400002F5FA020CFB0EF34FEACE1E4FEA112CC2
:105850004FEAC1210EEB635E42EB22420EFB0CFCD1
:105860004FEA1C5300FB03114FEA112C4FEA0131A0
:105870000EFB0CFC4FEADC4C00FB0C11C14228BFB4
:1058800009184CEB03335DF804EB10EB410143EBDB
:10589000C250B2F57C0F38BF704729D512F0F00F17
:1058A0001CBF00F1C04000F00040704700818283BF
:1058B0008485868788898B8C8D8E8F91929395961F
:1058C00097999A9C9D9FA0A2A3A5A7A8AAACAEB0A9
:1058D000B2B3B5B7B9BCBEC0C2C5C7C9CCCED1D4AE
:1058E000D7D9DCDFE2E6E9ECF0F3F7FAFE000000DE
:1058F0004FEA400C0CF1807CBCF17E4F28BF704712
:10590000B0F1C04000F057B990EA010F0CEAD11392
:1059100048BF42F48072624538BF634507D213F432
:105920007F0F16D080EA010000F00040704710B5EC
:1059300000F0FBF8097EFC3E00F005B880EA0100AB
:1059400000F00040704780EA010000F0004000F0E5
:1059500032B912F47F0F04BF0248704780EA010099
:1059600000F029B90000C07F10F0004148BF40425C
:10597000B0FA80F310FA03F2C3F19D030BD051EAA1
:10598000C35101EB1220530638BF704700F10100EC
:1059900008BF20F001007047B0FA80F310FA03F25C
:1059A000C3F19D030AD0D90501EB1220530638BF7D
:1059B000704700F1010008BF20F0010070470000AF
:1059C00050EA010C00F113801CF5000F58BFBCF524
:1059D000000F01D48842704707D710F5000F58BF59
:1059E00011F5000F15D488427047894270471CF5A5
:1059F000000F04D5BCF5000FF7D5814270474FF07A
:105A0000807C1CEB400F38BF1CEB410F01D2814260
:105A1000704710B500F089F8922449004FF000500B
:105A20004FF08051FFF7D2BE4FF47F0C1CEAD0122A
:105A30001EBF1CEAD11392EA0C0F93EA0C0F00F080
:105A4000478090EA010F48BF42F480724FF0004C4B
:105A50004CEA00204CEA012102EB0302A0FB0113F7
:105A6000A2F50002002918BF43F001035B0028BF24
:105A70004FEA330342EB22425FEA132C4CEBC25055
:105A80002EBFBCEB436FB2F57C0F70474FEA036C3F
:105A9000BCF1004F08BF20F00100B2F57C0F38BF09
:105AA00070470BD582F0FF0212F5803FC8BF7047E8
:105AB00000F1C040D8BF00F00040704700F5000C76
:105AC0005FEA4C0C48BF7047B0F1C04000F073B8BB
:105AD00090EA010F0CEAD11348BF42F4807262458C
