:020000040800F2
:10000000000002203D5C0008894F0008914F000865
:10001000994F0008A14F0008A94F000800000000F8
:10002000000000000000000000000000C1D6000831
:10003000B14F00080000000011D9000805B2000807
:100040008D5C00088D5C00088D5C00088D5C0008EC
:100050008D5C00088D5C00088D5C00088D5C0008DC
:100060008D5C00088D5C00088D5C00088D5C0008CC
:100070008D5C00088D5C00088D5C00088D5C0008BC
:10008000C14F0008D54F00088D5C00088D5C00084A
:100090008D5C00088D5C00088D5C00088D5C00089C
:1000A0008D5C00088D5C00088D5C00088D5C00088C
:1000B000E94F0008FD4F0008115000088D5C000852
:1000C0008D5C00088D5C00088D5C00088D5C00086C
:1000D0008D5C00088D5C0008255000083950000830
:1000E0008D5C00088D5C00088D5C00088D5C00084C
:1000F0008D5C00084D5000088D5C00088D5C000888
:100100008D5C00088D5C00088D5C00088D5C00082B
:100110008D5C0008615000088D5C00088D5C000853
:100120008D5C00088D5C00088D5C00088D5C00080B
:100130008D5C00088D5C00088D5C00088D5C0008FB
:100140008D5C00088D5C00088D5C00088D5C0008EB
:100150008D5C00088D5C00088D5C000875500008FF
:100160008D5C00088D5C00088D5C00088D5C0008CB
:100170008D5C00088D5C00088D5C000800000000AC
:080180008D5C00088D5C000895
:1001900010B5054C237833B9044B13B10448AFF3C1
:1001A00000800123237010BD702800200000000093
:1001B0006012020808B5034B1BB103490348AFF3B3
:1001C000008008BD000000007428002060120208B2
:1001D00010F8012B11F8013B012A28BF9A42F7D0F1
:1001E000D01A70470000000000000000000000006E
:1001F00001F0FF01102A2BDB10F0070F08D010F8D8
:10020000013B013A8B422DD010F0070F42B3F6D1DB
:10021000F0B441EA012141EA014122F007047FF0F4
:1002200000070023F0E80256083C85EA010586EA4B
:10023000010685FA47F5A3FA87F586FA47F6A5FA87
:1002400087F68EB9EED1F0BC01F0FF0102F0070293
:1002500032B110F8013B013A83EA010313B1F8D13E
:100260000020704701387047002D06BF354603381F
:10027000073815F0010F07D1013015F4807F02BF58
:10028000013015F4C03F0130F0BC0138704700BFA9
:10029000034613F8012B002AFBD1181A01387047C6
:1002A00081F0004102E000BF83F0004330B54FEA27
:1002B00041044FEA430594EA050F08BF90EA020F94
:1002C0001FBF54EA000C55EA020C7FEA645C7FEA27
:1002D000655C00F0E2804FEA5454D4EB5555B8BF4A
:1002E0006D420CDD2C4480EA020281EA030382EABB
:1002F000000083EA010180EA020281EA0303362D4D
:1003000088BF30BD11F0004F4FEA01314FF4801C1F
:100310004CEA113102D0404261EB410113F0004F31
:100320004FEA03334CEA133302D0524263EB4303E8
:1003300094EA050F00F0A780A4F10104D5F1200E86
:100340000DDB02FA0EFC22FA05F2801841F10001E1
:1003500003FA0EF2801843FA05F359410EE0A5F1B5
:1003600020050EF1200E012A03FA0EFC28BF4CF0E6
:10037000020C43FA05F3C01851EBE37101F000459C
:1003800007D54FF0000EDCF1000C7EEB00006EEBA9
:100390000101B1F5801F1BD3B1F5001F0CD3490833
:1003A0005FEA30004FEA3C0C04F101044FEA44528A
:1003B00012F5800F80F09A80BCF1004F08BF5FEA11
:1003C000500C50F1000041EB045141EA050130BDF1
:1003D0005FEA4C0C404141EB0101013C28BFB1F503
:1003E000801FE9D291F0000F04BF01460020B1FA4E
:1003F00081F308BF2033A3F10B03B3F120020CDA21
:100400000C3208DD02F1140CC2F10C0201FA0CF0FE
:1004100021FA02F10CE002F11402D8BFC2F1200C63
:1004200001FA02F120FA0CFCDCBF41EA0C01904019
:10043000E41AA2BF01EB0451294330BD6FEA040462
:100440001F3C1CDA0C340EDC04F11404C4F120024D
:1004500020FA04F001FA02F340EA030021FA04F35F
:1004600045EA030130BDC4F10C04C4F1200220FAB6
:1004700002F001FA04F340EA0300294630BD21FAF4
:1004800004F0294630BD94F0000F83F4801306BFBA
:1004900081F480110134013D4EE77FEA645C18BFAE
:1004A0007FEA655C29D094EA050F08BF90EA020F45
:1004B00005D054EA000C04BF1946104630BD91EA3D
:1004C000030F1EBF0021002030BD5FEA545C05D140
:1004D0004000494128BF41F0004130BD14F580047F
:1004E0003CBF01F5801130BD01F0004545F0FE41F3
:1004F00041F470014FF0000030BD7FEA645C1ABF28
:10050000194610467FEA655C1CBF0B46024650EA5E
:10051000013406BF52EA033591EA030F41F400218A
:1005200030BD00BF90F0000F04BF0021704730B510
:100530004FF4806404F132044FF000054FF00001E5
:1005400050E700BF90F0000F04BF0021704730B5A6
:100550004FF4806404F1320410F0004548BF40427B
:100560004FF000013EE700BF42004FEAE2014FEAD0
:1005700031014FEA02701FBF12F07F4393F07F4FAB
:1005800081F06051704732F07F4208BF704793F0AE
:100590007F4F04BF41F40021704730B54FF46074C1
:1005A00001F0004521F000411CE700BF50EA0102C4
:1005B00008BF704730B54FF000050AE050EA01026D
:1005C00008BF704730B511F0004502D5404261EBDD
:1005D00041014FF4806404F132045FEA915C3FF41E
:1005E000D8AE4FF003025FEADC0C18BF03325FEABB
:1005F000DC0C18BF033202EBDC02C2F1200300FA6C
:1006000003FC20FA02F001FA03FE40EA0E0021FA90
:1006100002F11444BDE600BF70B54FF0FF0C4CF47E
:10062000E06C1CEA11541DBF1CEA135594EA0C0F30
:1006300095EA0C0F00F0DEF82C4481EA030621EA6B
:100640004C5123EA4C5350EA013518BF52EA0335A6
:1006500041F4801143F4801338D0A0FB02CE4FF058
:100660000005E1FB02E506F00042E0FB03E54FF088
:100670000006E1FB03569CF0000F18BF4EF0010E80
:10068000A4F1FF04B6F5007F64F5407404D25FEA7C
:100690004E0E6D4146EB060642EAC62141EA55512F
:1006A0004FEAC52040EA5E504FEACE2EB4F1FD0C71
:1006B00088BFBCF5E06F1ED8BEF1004F08BF5FEAEF
:1006C000500E50F1000041EB045170BD06F00046A1
:1006D00046EA010140EA020081EA0301B4EB5C044E
:1006E000C2BFD4EB0C0541EA045170BD41F4801146
:1006F0004FF0000E013C00F3AB8014F1360FDEBF6B
:10070000002001F0004170BDC4F10004203C35DA46
:100710000C341BDC04F11404C4F1200500FA05F3C9
:1007200020FA04F001FA05F240EA020001F000426A
:1007300021F0004110EBD37021FA04F642EB0601E0
:100740005EEA430E08BF20EAD37070BDC4F10C040A
:10075000C4F1200500FA04F320FA05F001FA04F2CE
:1007600040EA020001F0004110EBD37041F10001BA
:100770005EEA430E08BF20EAD37070BDC4F12005C5
:1007800000FA05F24EEA020E20FA04F301FA05F22D
:1007900043EA020321FA04F001F0004121FA04F2D5
:1007A00020EA020000EBD3705EEA430E08BF20EAA5
:1007B000D37070BD94F0000F0FD101F000464000DF
:1007C00041EB010111F4801F08BF013CF7D041EA61
:1007D000060195F0000F18BF704703F00046520065
:1007E00043EB030313F4801F08BF013DF7D043EA36
:1007F0000603704794EA0C0F0CEA135518BF95EAEC
:100800000C0F0CD050EA410618BF52EA4306D1D172
:1008100081EA030101F000414FF0000070BD50EA91
:10082000410606BF1046194652EA430619D094EA1B
:100830000C0F02D150EA013613D195EA0C0F05D105
:1008400052EA03361CBF104619460AD181EA030159
:1008500001F0004141F0FE4141F470014FF0000011
:1008600070BD41F0FE4141F4780170BD70B54FF0AC
:10087000FF0C4CF4E06C1CEA11541DBF1CEA13552C
:1008800094EA0C0F95EA0C0F00F0A7F8A4EB05040E
:1008900081EA030E52EA03354FEA013100F0888005
:1008A0004FEA03334FF0805545EA131343EA1263CE
:1008B0004FEA022245EA111545EA10654FEA002683
:1008C0000EF000419D4208BF964244F1FD0404F53C
:1008D000407402D25B084FEA3202B61A65EB030598
:1008E0005B084FEA32024FF480104FF4002CB6EB55
:1008F000020E75EB030E22BFB61A754640EA0C00D5
:100900005B084FEA3202B6EB020E75EB030E22BF14
:10091000B61A754640EA5C005B084FEA3202B6EB55
:10092000020E75EB030E22BFB61A754640EA9C0014
:100930005B084FEA3202B6EB020E75EB030E22BFE4
:10094000B61A754640EADC0055EA060E18D04FEAA2
:10095000051545EA16754FEA06164FEAC30343EA42
:1009600052734FEAC2025FEA1C1CC0D111F4801F0F
:100970000BD141EA00014FF000004FF0004CB6E708
:1009800011F4801F04BF01430020B4F1FD0C88BFA7
:10099000BCF5E06F3FF6AFAEB5EB030C04BFB6EBB2
:1009A000020C5FEA500C50F1000041EB045170BDA5
:1009B0000EF0004E4EEA113114EB5C04C2BFD4EBD2
:1009C0000C0541EA045170BD41F480114FF0000E56
:1009D000013C90E645EA060E8DE60CEA135594EAD2
:1009E0000C0F08BF95EA0C0F3FF43BAF94EA0C0FD5
:1009F0000AD150EA01347FF434AF95EA0C0F7FF44A
:100A000025AF104619462CE795EA0C0F06D152EA9D
:100A100003353FF4FDAE1046194622E750EA410681
:100A200018BF52EA43067FF4C5AE50EA41047FF492
:100A30000DAF52EA43057FF4EBAE12E74FF0FF3CF7
:100A400006E000BF4FF0010C02E000BF4FF0010CC8
:100A50004DF804CD4FEA410C7FEA6C5C4FEA430C41
:100A600018BF7FEA6C5C1BD001B050EA410C0CBF90
:100A700052EA430C91EA030F02BF90EA020F0020F2
:100A8000704710F1000F91EA030F58BF994208BF59
:100A900090422CBFD8176FEAE37040F00100704716
:100AA0004FEA410C7FEA6C5C02D150EA013C07D16D
:100AB0004FEA430C7FEA6C5CD6D152EA033CD3D0B8
:100AC0005DF8040B704700BF8446104662468C46B2
:100AD0001946634600E000BF01B5FFF7B7FF0028E5
:100AE00048BF10F1000F01BD4DF808EDFFF7F4FF0E
:100AF0000CBF012000205DF808FB00BF4DF808ED99
:100B0000FFF7EAFF34BF012000205DF808FB00BFBB
:100B10004DF808EDFFF7E0FF94BF012000205DF8DD
:100B200008FB00BF4DF808EDFFF7CEFF94BF012092
:100B300000205DF808FB00BF4DF808EDFFF7C4FF8B
:100B400034BF012000205DF808FB00BF4FEA410CD4
:100B50007FEA6C5C02D150EA013C0AD14FEA430CB7
:100B60007FEA6C5C02D152EA033C02D14FF00000F4
:100B700070474FF0010070474FEA410212F5001232
:100B800015D211D56FF47873B3EB625212D94FEAD4
:100B9000C12343F0004343EA505311F0004F23FABE
:100BA00002F018BF404270474FF00000704750EA13
:100BB000013005D111F0004008BF6FF000407047D0
:100BC0004FF00000704700BF4FEA4102B2F1E0432E
:100BD00024BFB3F5001CDCF1FE5C0DD901F0004C24
:100BE0004FEAC0024CEA5070B2F1004F40EB830074
:100BF00008BF20F00100704711F0804F21D113F1A0
:100C00003872BCBF01F00040704741F480114FEAD8
:100C10005252C2F11802C2F1200C10FA0CF320FA61
:100C200002F018BF40F001004FEAC1234FEAD3237E
:100C300003FA0CFC40EA0C0023FA02F34FEA4303E8
:100C4000CCE77FEA625307D150EA01331EBF4FF071
:100C5000FE4040F44000704701F0004040F0FE408C
:100C600040F40000704700BF7BB972B90029BEBFD5
:100C700000204FF0004106E008BF00281CBF6FF0C5
:100C800000414FF0FF3000F0B5B9ADF1080C6DE94F
:100C900004CE002909DB002B1ADB00F04DF8DDF84B
:100CA00004E0DDE9022304B07047404261EB4101FA
:100CB000002B1BDB00F040F8DDF804E0DDE9022347
:100CC00004B0404261EB4101524263EB4303704781
:100CD000524263EB430300F02FF8DDF804E0DDE956
:100CE000022304B0404261EB41017047524263EB82
:100CF000430300F021F8DDF804E0DDE9022304B04D
:100D0000524263EB4303704753B94AB9002908BF05
:100D100000281CBF4FF0FF314FF0FF3000F06AB9E0
:100D2000ADF1080C6DE904CE00F006F8DDF804E042
:100D3000DDE9022304B070472DE9F047089D0C4619
:100D4000002B4ED194468C458646B2FA82F262D987
:100D50004AB1C2F12003914020FA03F30CFA02FCDD
:100D6000194300FA02FE4FEA1C471FFA8CF6B1FB4A
:100D7000F7F44FEA1E4307FB141143EA014304FB57
:100D800006F199420AD91CEB030304F1FF3080F00D
:100D90001281994240F20F81023C6344591A1FFAB2
:100DA0008EF3B1FBF7F007FB101143EA014300FBA0
:100DB00006F69E420AD91CEB030300F1FF3180F0D6
:100DC000FC809E4240F2F980634402389B1B40EA5B
:100DD000044000211DB1D3400022C5E90032BDE826
:100DE000F0878B4205D90DB1C5E900010021084605
:100DF000F5E7B3FA83F1002946D1A34202D390422A
:100E0000C0F0F080861A64EB03030120002DE6D0C9
:100E1000C5E90063E3E7002A40F09080A1EB0C04F1
:100E20004FEA1C481FFA8CF70121B4FBF8F64FEA91
:100E30001E4308FB164443EA044307FB06F09842AE
:100E400008D91CEB030306F1FF3402D2984200F2EA
:100E5000CD8026461C1A1FFA8EF3B4FBF8F008FB6F
:100E6000104443EA044300FB07F79F4208D91CEBF8
:100E7000030300F1FF3402D29F4200F2B08020460B
:100E8000DB1B40EA0640A5E7C1F120068B4022FAB1
:100E900006F71F4320FA06FC04FA01F343EA0C03A9
:100EA000F44000FA01F8380C4FEA1349B4FBF0FEA5
:100EB0001FFA87FC00FB1E4449EA04440EFB0CF9B0
:100EC000A14502FA01F20AD93C190EF1FF3A80F06D
:100ED0008480A14540F28180AEF1020E3C44A4EB37
:100EE00009041FFA83F9B4FBF0F300FB134449EA49
:100EF000044403FB0CFCA44507D93C1903F1FF3063
:100F000067D2A44565D9023B3C4443EA0E40A0FBAE
:100F10000293A4EB0C049C42CE469C4651D34ED087
:100F200055B1B8EB0E0364EB0C0404FA06F6CB40A3
:100F30001E43CC40C5E90064002150E7C2F1200304
:100F400020FA03F10CFA02FC24FA03F394400C4358
:100F50004FEA1C4800FA02FE1FFA8CF7B3FBF8F0C8
:100F600008FB1031230C43EA014300FB07F19942CF
:100F700008D91CEB030300F1FF362CD299422AD981
:100F8000023863445B1AA4B2B3FBF8F108FB1133D7
:100F900044EA034401FB07F3A34208D91CEB040411
:100FA00001F1FF3613D2A34211D902396444E41A85
:100FB00041EA004139E70446F0E6084606E7C8453D
:100FC000AED2B9EB020E63EB070C0138A8E731464D
:100FD000EDE7034699E73046D4E7D6467FE763441A
:100FE00002384DE70646234608460FE7023E6344B3
:100FF00030E700BF704700BF80B483B000AF7860B7
:101000000A2318460C37BD465DF8047B704780B54F
:1010100084B000AFF8600B4687ED010AC7ED000A07
:10102000FB72FB7A3033DAB2FB681A70FB6801336B
:101030007A681A60FB6805333A681A60F868FFF747
:10104000DBFF03461A46FB685A72FB6818461037E6
:10105000BD4680BD80B582B000AF0346FB711D4B1D
:101060001B785A1CD1B21B4A117019461A4AFB79D7
:101070005354194B1B78552B03D0164B00221A7072
:1010800025E0144B1B780A2B20D9134B5B78532B8C
:1010900012D0532B16DC512B02D0522B06D011E06C
:1010A00008220E490E481CF030FB0BE008220B49C9
:1010B0000C481CF02AFB05E0082208490A481CF0ED
:1010C00024FB00BF034B00221A7000E000BF08376A
:1010D000BD4680BDF8280020FC280020FE28002006
:1010E000BC280020CC280020C428002080B400AFF9
:1010F000534BB3F9003007EE903AB8EEE77ADFEDE4
:10110000516AC7EE267AB3EE007A67EE877A4E4BC5
:10111000C3ED007A4A4BB3F9023007EE903AB8EECD
:10112000E77ADFED486AC7EE267AB3EE007A67EE1B
:10113000877A464BC3ED007A414BB3F9043007EE92
:10114000903AB8EEE77ADFED3F6AC7EE267AB3EE63
:10115000007A67EE877A3E4BC3ED007A3D4BB3F9D8
:10116000003007EE903AB8EEE77ADFED366AC7EE68
:10117000267A9FED397A67EE877A384BC3ED007A8D
:10118000344BB3F9023007EE903AB8EEE77ADFED70
:101190002D6AC7EE267A9FED307A67EE877A304B5C
:1011A000C3ED007A2B4BB3F9043007EE903AB8EE5A
:1011B000E77ADFED246AC7EE267A9FED277A67EE9D
:1011C000877A284BC3ED007A274BB3F9003007EE3E
:1011D000903AB8EEE77ADFED1B6AC7EE267A9FED0C
:1011E000237A67EE877A224BC3ED007A1E4BB3F960
:1011F000023007EE903AB8EEE77ADFED126AC7EEFA
:10120000267A9FED1A7A67EE877A1A4BC3ED007A39
:10121000154BB3F9043007EE903AB8EEE77ADFEDFC
:10122000096AC7EE267A9FED117A67EE877A124B2C
:10123000C3ED007A00BFBD465DF8047B704700BF78
:10124000BC28002000000047E0280020E4280020FF
:10125000E8280020CC2800200000FA44EC280020D8
:10126000F0280020F4280020C42800200000344387
:10127000D4280020D8280020DC28002080B584B0A5
:1012800000AF78607B685B6C03F00803002B0FD025
:101290000023FB607B681B681B68FB607B681B6826
:1012A0005B68FB60FB6801220349044808F0CBFC43
:1012B00000BF1037BD4680BDB928002080830020C4
:1012C000B0B590B000AF87ED030AC7ED020A87ED15
:1012D000011A3860F868FFF747F94FF00002994BA0
:1012E000FFF79AF902460B4643EC172BB0EE470A7C
:1012F000F0EE670A1EF0A8F887ED0E0BF868FFF70E
:1013000033F94FF000028F4BFFF786F902460B4688
:1013100043EC172BB0EE470AF0EE670A1EF0E8F830
:1013200087ED0C0B7868FFF71FF94FF00002854B33
:10133000FFF772F902460B4643EC172BB0EE470A53
:10134000F0EE670A1EF080F887ED0A0B7868FFF769
:101350000BF94FF000027B4BFFF75EF902460B469C
:1013600043EC172BB0EE470AF0EE670A1EF0C0F808
:1013700087ED080BB868FFF7F7F84FF00002714BE4
:10138000FFF74AF902460B4643EC172BB0EE470A2B
:10139000F0EE670A1EF058F887ED060BB868FFF705
:1013A000E3F84FF00002674BFFF736F902460B46B1
:1013B00043EC172BB0EE470AF0EE670A1EF098F8E0
:1013C00087ED040BD7E90623D7E90A01FFF724F9D3
:1013D00002460B4610461946D7E90E23FFF71CF9C3
:1013E00002460B4614461D46D7E90423D7E90801F7
:1013F000FFF712F902460B4610461946D7E90C23AF
:10140000FFF70AF902460B4620462946FEF74EFF33
:1014100002460B4610461946FFF7D6FB02463B68CC
:101420001A60D7E90623D7E90A01FFF7F5F8024663
:101430000B4610461946D7E90C23FFF7EDF8024694
:101440000B4614461D46D7E90423D7E90801FFF7E8
:10145000E3F802460B4610461946D7E90E23FFF77C
:10146000DBF802460B4620462946FEF71DFF0246E2
:101470000B4610461946FFF7A7FB02463B685A6029
:10148000D7E90623D7E90801FFF7C6F802460B465D
:1014900010461946D7E90C23FFF7BEF802460B4663
:1014A00014461D46D7E90423D7E90A01FFF7B4F82B
:1014B00002460B4610461946D7E90E23FFF7ACF853
:1014C00002460B4620462946FEF7F0FE02460B4632
:1014D00010461946FFF778FB02463B689A60D7E949
:1014E0000623D7E90801FFF797F802460B46104696
:1014F0001946D7E90E23FFF78FF802460B4614462C
:101500001D46D7E90423D7E90A01FFF785F802460B
:101510000B4610461946D7E90C23FFF77DF8024623
:101520000B4620462946FEF7BFFE02460B461046F4
:101530001946FFF749FB02463B68DA6000BF4037B7
:10154000BD46B0BD0000E03F80B52DED028B82B0FE
:1015500000AF454B7B60454B93ED037A444BD3ED95
:10156000037A37EE277AF0EE006AC7EE267A414B0F
:10157000C3ED007A3E4B93ED037A3C4BD3ED037AF7
:1015800077EE677A17EE900AFEF7EEFF34A3D3E901
:101590000023FFF76BF902460B4610461946FFF78A
:1015A00013FB0346344A1360334B1B68334A136200
:1015B000304B1B68314AD361304B93ED027A2F4B8D
:1015C000D3ED086AD7ED017A66EEA77A77EE277A2F
:1015D0002A4BC3ED027A294BD3ED027AB0EE670AAB
:1015E00000F04EF8F0EE407A244BC3ED027A234B24
:1015F000D3ED077A97ED017A67EE277AC7ED007A87
:101600001E4B93ED008A1D4BD3ED027AB0EE670AB4
:101610001DF0C2FFB0EE407AD7ED007A67EE277A70
:1016200078EE277A154BC3ED007A144B93ED018ABF
:10163000124BD3ED027AB0EE670A1DF0F1FFB0EE67
:10164000407AD7ED007A67EE277A78EE277A0B4B4F
:10165000C3ED017A00BF0837BD46BDEC028B80BDEB
:101660003D0AD7A3703DCA3FCDCC4C3D242A002073
:101670003C2A00201C2A0020202A0020F8290020D3
:1016800080B582B000AF87ED010A7868FEF76CFF85
:1016900002460B469FED1C1B43EC102B1DF0A5FED4
:1016A00053EC102B10461946FFF78EFA03467B6069
:1016B000D7ED017A9FED167AF4EEC77AF1EE10FAC3
:1016C00008DDD7ED017A9FED137A77EEC77AC7ED83
:1016D000017A10E0D7ED017A9FED0F7AF4EEC77A28
:1016E000F1EE10FA07D5D7ED017A9FED0A7A77EE81
:1016F000877AC7ED017A7B6807EE903AB0EE670A09
:101700000837BD4680BD00BF00000000FA21194027
:10171000D00F4940D00FC940D00F49C080B500AFAD
:10172000074BD3ED027A0748B0EE671ADFED060AE1
:101730009FED050AFFF7C4FD014B184680BD00BFB1
:10174000F8290020042A00200000000080B500AF26
:10175000294807F041F83C21284807F06BFA3C2162
:10176000274807F067FA254B1B68DA68234B1B688C
:1017700042F00102DA60224B1B68DA68204B1B68DA
:1017800042F00102DA601D4B1B6842F210725A628D
:101790001B4B1B6842F210725A621A4B00221A60ED
:1017A000184B1B68184A1360164B00225A60154BE1
:1017B0005B68154A5360134B00221A81114BB3F931
:1017C0000820114B1A810F4B4FF00002DA600D4BCD
:1017D000DB680D4AD3600B4B00221A75094B1A7D4A
:1017E000094B1A75074B4FF000021A61054B1B6934
:1017F000054A136100BF80BD18820020608200206E
:10180000A88200203C2A0020242A002080B582B033
:1018100000AF78607B68002B04D1174B1B68002257
:101820005A6326E07B68002B0ADD00220121134861
:1018300005F0F0FD01220221104805F0EBFD0FE05C
:101840007B68002B0CDA7B685B427B600122012104
:101850000A4805F0DFFD00220221084805F0DAFD04
:101860007B68632B01DD64237B60034B1B687A6814
:101870005A630837BD4680BDD08100200010024069
:1018800080B582B000AF78607B68002B04D1174B25
:101890001B6800229A6326E07B68002B0ADD002289
:1018A0000121134805F0B6FD01220221104805F080
:1018B000B1FD0FE07B68002B0CDA7B685B427B603C
:1018C000012201210A4805F0A5FD00220221084855
:1018D00005F0A0FD7B68632B01DD64237B60034B77
:1018E0001B687A689A630837BD4680BDD0810020A6
:1018F0000008024080B582B000AFC82004F0E6FEC8
:101900000023FB710023FB7108E0FB79074AD35CDD
:10191000184600F00DF8FB790133FB71FB79162BAB
:10192000F3D900BF00BF0837BD4680BD00000020CE
:1019300080B586B004AF0346FB714FF48073029309
:1019400001230193FB1D009301230022782103480A
:1019500005F0BEFE00BF0837BD4680BD2C810020CB
:1019600080B586B004AF0346FB714FF480730293D9
:1019700001230193FB1D009301234022782103489A
:1019800005F0A6FE00BF0837BD4680BD2C810020B3
:1019900080B582B000AF0023FB711BE0FB79503BA8
:1019A000DBB21846FFF7C4FF0020FFF7C1FF10208D
:1019B000FFF7BEFF0023BB7105E00020FFF7D0FF5B
:1019C000BB790133BB7197F90630002BF5DAFB794F
:1019D0000133FB71FB79072BE0D900BF00BF08374B
:1019E000BD4680BD80B582B000AF03460A46FB719C
:1019F0001346BB71BB79503BDBB21846FFF798FF2B
:101A0000FB791B09DBB243F01003DBB21846FFF78A
:101A10008FFFFB7903F00F03DBB21846FFF788FF57
:101A200000BF0837BD4680BD80B485B000AF034617
:101A30000A46FB711346BB710123FB6004E0FA798F
:101A4000FB6802FB03F3FB60BB795A1EBA71002BE3
:101A5000F5D1FB6818461437BD465DF8047B704726
:101A600090B585B000AF0446084611461A46234695
:101A7000FB710346BB710B467B7113463B71002320
:101A8000BB730023FB737B79203BBB7397F9073053
:101A9000002B04DA0023FB71BB790233BB713B7965
:101AA000102B54D1BA79FB7911461846FFF79AFFEB
:101AB0000023FB731BE097F82030002B0BD0BB7B7F
:101AC0001A01FB7B13443C4AD35CDB43DBB2184670
:101AD000FFF746FF08E0BB7B1A01FB7B1344364A45
:101AE000D35C1846FFF73CFFFB7B0133FB73FB7BAA
:101AF000072BE0D9BB790133DAB2FB7911461846DE
:101B0000FFF770FF0023FB731DE097F82030002BD8
:101B10000CD0BB7B1A01FB7B13440833264AD35CF1
:101B2000DB43DBB21846FFF71BFF09E0BB7B1A0162
:101B3000FB7B13440833204AD35C1846FFF710FFA1
:101B4000FB7B0133FB73FB7B072BDED92FE0BA79DC
:101B5000FB7911461846FFF745FF0023FB7323E08E
:101B600097F82030002B0FD0BA7BF97B134813462F
:101B70005B0013445B0003440B441B78DB43DBB284
:101B80001846FFF7EDFE0CE0BA7BF97B0B481346D5
:101B90005B0013445B0003440B441B781846FFF7BB
:101BA000DFFEFB7B0133FB73FB7B052BD8D900BF2A
:101BB0001437BD4690BD00BFBC2402089422020821
:101BC00090B587B002AF3A601A460346FB710B46E8
:101BD000BB7113467B710023FB732FE0FB7B3A68DC
:101BE00013441A787C79B979F87997F82030009302
:101BF0002346FFF735FF7B790C2B03D1FB790633A6
:101C0000FB7102E0FB790833FB71FB797A2B07D972
:101C10007B790C2B04D10023FB71BB790133BB71A1
:101C2000FB79782B07D97B79102B04D10023FB712A
:101C3000BB790133BB71FB7B0133FB73FB7B3A68E0
:101C400013441B78002BC9D100BF00BF1437BD4619
:101C500090BD000090B52DED028B89B002AF044617
:101C6000084687ED000A11461A462346FB710346D3
:101C7000BB710B467B7113463B710023BB75D7EDDF
:101C8000007AF5EEC07AF1EE10FA0AD57B790133CD
:101C90007B710123BB75D7ED007AF1EE677AC7ED52
:101CA000007AD7ED007AFDEEE77A17EE903A3B61C5
:101CB0000023FB7555E03C697A79FB7DD31ADBB2D2
:101CC000013BDBB219460A20FFF7AEFE0346B4FB28
:101CD000F3F1674BA3FB0123DA0813469B0013447F
:101CE0005B00CA1A1346FB727B7D002B1FD1FA7D65
:101CF0007B79013B9A421ADAFB7A002B15D197F8CF
:101D000030305B08DBB2FA7D12FB03F3DAB2FB7909
:101D10001344D8B297F83020B97997F8343000934B
:101D200013462022FFF79CFE18E001237B7597F8ED
:101D300030305B08DBB2FA7D12FB03F3DAB2FB79D9
:101D40001344D8B2FB7A3033DAB297F83040B9791D
:101D500097F8343000932346FFF782FEFB7D013372
:101D6000FB75FA7D7B799A42A5D397F830305B08F2
:101D7000DBB27A7912FB03F3DAB2FB791344D8B2FF
:101D800097F83020B97997F83430009313462E2213
:101D9000FFF766FE3B6907EE903AF8EEE77A97EDBB
:101DA000007A37EE678A3B7919460A20FFF73CFE36
:101DB00007EE900AF8EE677A68EE277AFDEEE77A8A
:101DC00017EE903AFB600023FB7537E0FC683A7928
:101DD000FB7DD31ADBB2013BDBB219460A20FFF7C9
:101DE00023FE0346B4FBF3F1214BA3FB0123DA08E6
:101DF00013469B0013445B00CA1A1346FB7297F804
:101E000030305B08DAB2F97D7B790B44DBB212FB30
:101E100003F3DAB2FB791344DBB20533D8B2FB7AB1
:101E20003033DAB297F83040B97997F8343000930C
:101E30002346FFF715FEFB7D0133FB75FA7D3B79E9
:101E40009A42C3D3BB7D012B0CD197F83020B979CE
:101E5000F87997F83430009313462D22FFF700FEEF
:101E60000023BB7500BF1C37BD46BDEC028B90BD87
:101E7000CDCCCCCC80B483B000AF7860034B184697
:101E80000C37BD465DF8047B704700BFCC010020D5
:101E900080B483B000AF7860084B1B7883F00103F7
:101EA000DBB2002B02D0054B01221A70044B1846FE
:101EB0000C37BD465DF8047B704700BF542A0020F4
:101EC0009C2A020880B483B000AF7860034B1846A8
:101ED0000C37BD465DF8047B704700BFC02A02087E
:101EE000B0B582B000AF78600D4B1B7883F0010372
:101EF000DBB2002B0FD00020FFF7E4FF0346094AB6
:101F000014461D460FCD0FC40FCD0FC42B682360A0
:101F1000034B01221A70044B18460837BD46B0BD6A
:101F2000552A0020582A0020E42A020880B483B0F1
:101F300000AF78607B68002B01D1002300E0012313
:101F400018460C37BD465DF8047B704780B483B0FB
:101F500000AF78607B68002B0C37BD465DF8047BD2
:101F6000704780B582B000AF78600B46FB70786830
:101F7000FFF7DCFF00BF0837BD4680BD80B582B0EB
:101F800000AF78607868FFF7E1FF00BF0837BD4613
:101F900080BD000080B400AF064B1B68002B03D14E
:101FA000054B1B68034A1360024B1846BD465DF89B
:101FB000047B7047680200208C24002080B483B02A
:101FC00000AF7860034B18460C37BD465DF8047BC4
:101FD000704700BFD803002080B483B000AF7860A2
:101FE000084B1B7883F00103DBB2002B02D0054BBA
:101FF00001221A70044B18460C37BD465DF8047B6D
:10200000704700BF7C2A00200C2B020880B483B0EC
:1020100000AF7860034B18460C37BD465DF8047B73
:10202000704700BF302B0208B0B582B000AF7860B7
:102030000D4B1B7883F00103DBB2002B0FD0002087
:10204000FFF7E4FF0346094A14461D460FCD0FC4AF
:102050000FCD0FC42B682360034B01221A70044B71
:1020600018460837BD46B0BD7D2A0020802A0020D2
:10207000542B020880B483B000AF78607B68002BDB
:1020800001D1002300E0012318460C37BD465DF85E
:10209000047B704780B483B000AF78607B68002B0E
:1020A0000C37BD465DF8047B704780B582B000AF49
:1020B00078600B46FB707868FFF7DCFF00BF0837DD
:1020C000BD4680BD80B582B000AF78607868FFF70C
:1020D000E1FF00BF0837BD4680BD000080B400AFFF
:1020E000064B1B68002B03D1054B1B68034A13608A
:1020F000024B1846BD465DF8047B7047B0040020D3
:102100008C24002080B483B000AF7860034B184665
:102110000C37BD465DF8047B704700BF6C0600209D
:1021200080B582B000AF7860244B1B7883F0010348
:10213000DBB2002B3DD00020FFF740FF03462122F9
:1021400019461F481BF0D8F90346002B05D01D4B3C
:102150001D4A65211D481AF009F80020FFF73CFFD1
:1021600002461B4B9B690C330C3207CA83E80700FD
:10217000002000F09FFA03462122194615481BF063
:10218000BBF90346002B05D0134B0F4A67210F48BC
:1021900019F0ECFF002000F09BFA02460C4B9B6903
:1021A00018330C330C3207CA83E80700034B0122B3
:1021B0001A70074B18460837BD4680BDA42A002078
:1021C0007C2B0208CC120208C42B02085013020810
:1021D000F42B0208A02B02089413020880B483B0E9
:1021E00000AF7860034B18460C37BD465DF8047BA2
:1021F000704700BF182C0208B0B582B000AF7860FD
:102200001B4B1B7883F00103DBB2002B2BD000208B
:10221000FFF7E4FF0346174A14461D460FCD0FC4CF
:102220000FCD0FC42B6823600020FFF7EFFE02469E
:10223000104B03F1240415460FCD0FC40FCD0FC46E
:102240002B682360002000F05DFA0246094B03F181
:10225000480415460FCD0FC40FCD0FC42B68236063
:10226000034B01221A70044B18460837BD46B0BD17
:10227000A52A0020A82A00203C2C020880B582B0A4
:1022800000AF78607B68002B01D100231FE07B68E2
:102290001846FFF7EFFE034683F00103DBB2002B85
:1022A00004D0786800F017F8002310E07B6818333A
:1022B000184600F05BFA034683F00103DBB2002B03
:1022C00004D0786800F007F8002300E001231846E6
:1022D0000837BD4680BD80B582B000AF78607B68AE
:1022E000002B09D07B681846FFF7D4FE7B681833B3
:1022F000184600F069FA00E000BF0837BD4680BD0F
:1023000080B582B000AF78600B46FB707868FFF74D
:10231000B5FF00BF0837BD4680BD80B582B000AFB5
:1023200078607868FFF7D7FF00BF0837BD4680BDEB
:1023300080B500AFFFF7D2FE0346094AD36000F034
:1023400067FA0346064A9364064B1B68002B03D1C9
:10235000054B1B68034A1360024B184680BD00BF43
:1023600090060020080700208C24002080B483B051
:1023700000AF7860034B18460C37BD465DF8047B10
:10238000704700BFD009002080B582B000AF7860F0
:10239000334B1B7883F00103DBB2002B5BD00020B2
:1023A000FFF70CFE0346212219462E481BF0A4F825
:1023B0000346002B05D02C4B2C4A71212C4819F0D8
:1023C000D5FE0020FFF708FE02462A4B9B690C331E
:1023D0000C3207CA83E807000020FFF793FE03468C
:1023E0002122194624481BF087F80346002B05D00C
:1023F000224B1E4A73211E4819F0B8FE0020FFF739
:102400008FFE02461B4B9B6918330C330C3207CAF4
:1024100083E80700002000F04DF903462122194609
:1024200017481BF069F80346002B05D0154B0F4ADF
:1024300075210F4819F09AFE002000F049F9024674
:102440000C4B9B6930330C330C3207CA83E807000E
:10245000034B01221A70074B18460837BD4680BD52
:10246000142B0020642C020858140208D02C0208F7
:10247000DC140208102D0208882C0208301502080E
:10248000AC2C0208B415020880B483B000AF7860A9
:10249000034B18460C37BD465DF8047B704700BF00
:1024A000342D0208B0B582B000AF7860224B1B78A3
:1024B00083F00103DBB2002B39D00020FFF7E4FFEB
:1024C00003461E4A14461D460FCD0FC40FCD0FC440
:1024D0002B6823600020FFF799FD0246174B03F19C
:1024E000240415460FCD0FC40FCD0FC42B682360F5
:1024F0000020FFF773FE0246104B03F14804154617
:102500000FCD0FC40FCD0FC42B682360002000F047
:10251000F9F80246094B03F16C0415460FCD0FC4C0
:102520000FCD0FC42B682360034B01221A70044B9C
:1025300018460837BD46B0BD152B0020182B0020CB
:10254000582D020880B582B000AF78607B68002B00
:1025500001D100230FE07B681846FFF78FFE03468A
:1025600083F00103DBB2002B04D0786800F007F899
:10257000002300E0012318460837BD4680BD80B522
:1025800082B000AF78607B68002B04D07B6818466F
:10259000FFF7A1FE00E000BF0837BD4680BD80B553
:1025A00082B000AF78600B46FB707868FFF7CAFF17
:1025B00000BF0837BD4680BD80B582B000AF7860EF
:1025C0007868FFF7DCFF00BF0837BD4680BD80B4E8
:1025D00083B000AF7860242318460C37BD465DF801
:1025E000047B704780B485B000AF786039607B6849
:1025F000FB603B68DB00FA68134418461437BD469D
:102600005DF8047B704780B485B000AF78603960B6
:102610007B68FB603B68DB00FA681344184614379C
:10262000BD465DF8047B704780B586B000AFF860AA
:10263000B9607A60B968F868FFF7D4FF78617B68A1
:102640003B617B69D3E900233969C1E9002300BFFD
:102650001837BD4680BD80B586B000AFF860B96060
:102660007A60B968F868FFF7CEFF78617B683B61F4
:102670003B69D3E900237969C1E9002300BF18371A
:10268000BD4680BD80B500AFFFF752FE0346064A47
:10269000D360064B1B68002B03D1054B1B68034A14
:1026A0001360024B184680BDF40900206C0A00201C
:1026B0008C24002080B483B000AF7860034B1846B0
:1026C0000C37BD465DF8047B704700BF600C0020EE
:1026D00080B483B000AF7860084B1B7883F00103AF
:1026E000DBB2002B02D0054B01221A70044B1846B6
:1026F0000C37BD465DF8047B704700BFA82B002057
:10270000802D020880B483B000AF7860034B184678
:102710000C37BD465DF8047B704700BFA42D02084E
:10272000B0B582B000AF78600D4B1B7883F0010329
:10273000DBB2002B0FD00020FFF7E4FF0346094A6D
:1027400014461D460FCD0FC40FCD0FC42B68236058
:10275000034B01221A70044B18460837BD46B0BD22
:10276000A92B0020AC2B0020C82D020880B483B018
:1027700000AF78607B68002B01D100231BE07968F3
:102780004FF000024FF00003C1E9002379684FF0D9
:1027900000024FF00003C1E9022379684FF0000204
:1027A0004FF00003C1E9042379684FF00002054BA4
:1027B000C1E90623012318460C37BD465DF8047BAA
:1027C000704700BF0000F03F80B483B000AF786076
:1027D0007B68002B0C37BD465DF8047B704780B5E5
:1027E00082B000AF78600B46FB707868FFF7BEFFE1
:1027F00000BF0837BD4680BD80B582B000AF7860AD
:102800007868FFF7E1FF00BF0837BD4680BD0000D4
:1028100080B400AF064B1B68002B03D1054B1B682F
:10282000034A1360024B1846BD465DF8047B7047AF
:10283000740D00208C24002080B483B000AF786039
:10284000034B18460C37BD465DF8047B704700BF4C
:10285000F00E002080B582B000AF7860154B1B7879
:1028600083F00103DBB2002B1FD0002000F05CFAE4
:1028700003462122194610481AF03EFE0346002B5B
:1028800005D00E4B0E4A59210E4819F06FFC00205E
:1028900000F058FA02460C4B9B690C330C3207CA05
:1028A00083E80700034B01221A70074B18460837CC
:1028B000BD4680BDD02B0020F02D0208B0160208C6
:1028C000142E020838170208442E020880B483B080
:1028D00000AF7860034B18460C37BD465DF8047BAB
:1028E000704700BF682E0208B0B582B000AF7860B4
:1028F000144B1B7883F00103DBB2002B1DD00020AA
:10290000FFF7E4FF0346104A14461D460FCD0FC4DF
:102910000FCD0FC42B682360002000F02DFA024673
:10292000094B03F1240415460FCD0FC40FCD0FC47E
:102930002B682360034B01221A70044B184608379A
:10294000BD46B0BDD12B0020D42B00208C2E020818
:1029500080B582B000AF78607B68002B01D1002386
:102960001FE07B68184600F03BFA034683F0010342
:10297000DBB2002B04D0786800F017F8002310E0D9
:102980007B681833184600F02BFA034683F00103E6
:10299000DBB2002B04D0786800F007F8002300E0D9
:1029A000012318460837BD4680BD80B582B000AF10
:1029B00078607B68002B09D07B68184600F020FA0D
:1029C0007B681833184600F01BFA00E000BF083798
:1029D000BD4680BD80B582B000AF78600B46FB700D
:1029E0007868FFF7B5FF00BF0837BD4680BD80B5EA
:1029F00082B000AF78607868FFF7D7FF00BF083774
:102A0000BD4680BD80B500AF00F01EFA0346094AFE
:102A1000D36000F019FA0346064A9364064B1B681C
:102A2000002B03D1054B1B68034A1360024B184669
:102A300080BD00BF140F00208C0F00208C240020CC
:102A400080B483B000AF7860034B18460C37BD46A6
:102A50005DF8047B704700BF2412002080B582B06F
:102A600000AF7860244B1B7883F00103DBB2002BAE
:102A70003DD00020FFF7E0FE0346212219461F4803
:102A80001AF03AFD0346002B05D01D4B1D4A652167
:102A90001D4819F06BFB0020FFF7DCFE02461B4BC4
:102AA0009B690C330C3207CA83E80700002000F052
:102AB0003BF903462122194615481AF01DFD03462D
:102AC000002B05D0134B0F4A67210F4819F04EFB1E
:102AD000002000F037F902460C4B9B6918330C3389
:102AE0000C3207CA83E80700034B01221A70074B18
:102AF00018460837BD4680BD1C2C0020B42E0208A5
:102B0000A8170208FC2E02082C1802083C2F020805
:102B1000D82E02088018020880B483B000AF786015
:102B2000034B18460C37BD465DF8047B704700BF69
:102B3000602F0208B0B582B000AF78601B4B1B78E5
:102B400083F00103DBB2002B2BD00020FFF7E4FF62
:102B50000346174A14461D460FCD0FC40FCD0FC4B0
:102B60002B6823600020FFF7B1FE0246104B03F1F3
:102B7000240415460FCD0FC40FCD0FC42B6823605E
:102B8000002000F0F9F80246094B03F1480415460D
:102B90000FCD0FC40FCD0FC42B682360034B012250
:102BA0001A70044B18460837BD46B0BD1D2C0020D6
:102BB000202C0020842F020880B582B000AF7860FE
:102BC0007B68002B01D100230FE07B681846FFF7DC
:102BD000BFFE034683F00103DBB2002B04D078680C
:102BE00000F007F8002300E0012318460837BD462F
:102BF00080BD80B582B000AF78607B68002B04D0C8
:102C00007B681846FFF7D1FE00E000BF0837BD46DD
:102C100080BD80B582B000AF78600B46FB707868ED
:102C2000FFF7CAFF00BF0837BD4680BD80B582B040
:102C300000AF78607868FFF7DCFF00BF0837BD465B
:102C400080BD80B483B000AF7860242318460C3771
:102C5000BD465DF8047B704780B485B000AF7860F6
:102C600039607B68FB603B68DB00FA6813441846F8
:102C70001437BD465DF8047B704780B485B000AF63
:102C8000786039607B68FB603B68DB00FA6813445E
:102C900018461437BD465DF8047B704780B586B092
:102CA00000AFF860B9607A60B968F868FFF7D4FFE0
:102CB00078617B683B617B69D3E900233969C1E9AD
:102CC000002300BF1837BD4680BD80B586B000AF79
:102CD000F860B9607A60B968F868FFF7CEFF78618C
:102CE0007B683B613B69D3E900237969C1E9002333
:102CF00000BF1837BD4680BD80B500AFFFF782FE2C
:102D00000346064AD360064B1B68002B03D1054BD4
:102D10001B68034A1360024B184680BD481200200E
:102D2000C01200208C24002080B483B000AF7860F3
:102D3000034B18460C37BD465DF8047B704700BF57
:102D4000D814002080B483B000AF7860084B1B78A3
:102D500083F00103DBB2002B02D0054B01221A7075
:102D6000044B18460C37BD465DF8047B704700BF26
:102D70008C2C0020AC2F020880B483B000AF7860A8
:102D8000034B18460C37BD465DF8047B704700BF07
:102D9000D02F0208B0B582B000AF78600D4B1B7821
:102DA00083F00103DBB2002B0FD00020FFF7E4FF1C
:102DB0000346094A14461D460FCD0FC40FCD0FC45C
:102DC0002B682360034B01221A70044B1846083706
:102DD000BD46B0BD8D2C0020902C0020F42F0208A1
:102DE00080B483B000AF78607B68002B01D10023F2
:102DF00000E0012318460C37BD465DF8047B7047A0
:102E000080B483B000AF78607B68002B0C37BD4680
:102E10005DF8047B704780B582B000AF78600B46E8
:102E2000FB707868FFF7DCFF00BF0837BD4680BD48
:102E300080B582B000AF78607868FFF7E1FF00BF2F
:102E40000837BD4680BD000080B400AF064B1B684C
:102E5000002B03D1054B1B68034A1360024B184635
:102E6000BD465DF8047B7047B01500208C2400201F
:102E700080B483B000AF7860034B18460C37BD4672
:102E80005DF8047B704700BF941B002080B582B0C2
:102E900000AF78608E4B1B7883F00103DBB2002B10
:102EA00000F010810020FEF7E5FF034621221946BD
:102EB00088481AF021FB0346002B05D0864B874A31
:102EC000CF21874819F052F90020FEF7E1FF0246B2
:102ED000844B9B690C330C3207CA83E8070000203F
:102EE000FFF76CF80346212219467F481AF004FBCD
:102EF0000346002B05D07D4B784AD121784819F044
:102F000035F90020FFF768F80246764B9B691833C5
:102F10000C330C3207CA83E807000020FFF7F2F8F1
:102F200003462122194672481AF0E6FA0346002B9E
:102F300005D0704B694AD321694819F017F9002070
:102F4000FFF7EEF80246674B9B6930330C330C32C7
:102F500007CA83E807000020FFF708FA034621228A
:102F6000194665481AF0C8FA0346002B05D0634B92
:102F70005A4AD5215A4819F0F9F80020FFF704FA07
:102F80000246584B9B6948330C330C3207CA83E81E
:102F900007000020FFF78EFB034621221946584800
:102FA0001AF0AAFA0346002B05D0564B4B4AD721FC
:102FB0004B4819F0DBF80020FFF78AFB0246494B2B
:102FC0009B6960330C330C3207CA83E8070000208A
:102FD000FFF732FC0346212219464B481AF08CFABF
:102FE0000346002B05D0494B3C4AD9213C4819F0F7
:102FF000BDF80020FFF72EFC02463A4B9B69783360
:103000000C330C3207CA83E807000020FFF718FDD5
:103010000346212219463E481AF06EFA0346002B59
:1030200005D03C4B2D4ADB212D4819F09FF800209C
:10303000FFF714FD02462B4B9B6990330C330C3287
:1030400007CA83E807000020FFF76EFE034621222F
:10305000194631481AF050FA0346002B05D02F4B81
:103060001E4ADD211E4819F081F80020FFF76AFE94
:1030700002461C4B9B69A8330C330C3207CA83E809
:103080000700002000F0AEF903462122194624482B
:103090001AF032FA0346002B05D0224B0F4ADF21EB
:1030A0000F4819F063F8002000F0AAF902460D4B12
:1030B0009B69C0330C330C3207CA83E80700044B0A
:1030C00001221A70074B18460837BD4680BD00BF65
:1030D000B42C00201C3002086C1902086031020870
:1030E000F819020890310208403002083C1A020820
:1030F00064300208C01A020888300208441B020823
:10310000AC300208E41B0208D0300208741C02082C
:10311000F4300208F81C020818310208981D020851
:103120003C310208201E020880B483B000AF7860F2
:10313000034B18460C37BD465DF8047B704700BF53
:10314000B4310208B0B582B000AF78604D4B1B7847
:1031500083F00103DBB2002B00F08E800020FFF72C
:10316000E3FF0346484A14461D460FCD0FC40FCD5A
:103170000FC42B6823600020FEF7A4FE0246424BDA
:1031800003F1240415460FCD0FC40FCD0FC42B68D7
:1031900023600020FEF73AFF02463B4B03F1480450
:1031A00015460FCD0FC40FCD0FC42B682360002030
:1031B000FFF714F80246344B03F16C0415460FCDAB
:1031C0000FC40FCD0FC42B6823600020FFF75CF9FC
:1031D00002462D4B03F1900415460FCD0FC40FCDC1
:1031E0000FC42B6823600020FFF78CFA0246264BA1
:1031F00003F1B40415460FCD0FC40FCD0FC42B68D7
:1032000023600020FFF762FB02461F4B03F1D80446
:1032100015460FCD0FC40FCD0FC42B6823600020BF
:10322000FFF77AFC0246184B03F1FC0415460FCD5C
:103230000FC40FCD0FC42B6823600020FFF79CFD47
:103240000246114B03F5907415460FCD0FC40FCDF8
:103250000FC42B682360002000F00EF902460A4BD1
:1032600003F5A27415460FCD0FC40FCD0FC42B6804
:103270002360044B01221A70044B18460837BD46E0
:10328000B0BD00BFB52C0020B82C0020D8310208FA
:1032900080B582B000AF78607B68002B01D100233D
:1032A00040E07B68184600F029F9034683F00103EB
:1032B000DBB2002B04D0786800F038F8002331E04E
:1032C0007B681433184612F00BF9034683F00103B0
:1032D000DBB2002B04D0786800F028F8002321E04E
:1032E0007B6820331846FFF72DF9034683F001036E
:1032F000DBB2002B04D0786800F018F8002311E04E
:103300007B6803F5BC731846FFF756FC034683F051
:103310000103DBB2002B04D0786800F007F800232B
:1033200000E0012318460837BD4680BD80B582B055
:1033300000AF78607B68002B14D07B68184600F0E3
:103340000AF97B681433184612F0E0F87B682033E2
:103350001846FFF714F97B6803F5BC731846FFF7AE
:1033600048FC00E000BF0837BD4680BD80B582B094
:1033700000AF78600B46FB707868FFF789FF00BFED
:103380000837BD4680BD80B582B000AF78607868F0
:10339000FFF7CCFF00BF0837BD4680BD80B500AF4A
:1033A00000F006F903460C4AD360FFF76BF90346B9
:1033B000094AC2F88430FFF79FFC0346064AC2F868
:1033C000C030064B1B68002B03D1054B1B68034A1A
:1033D0001360024B184680BDB81B0020A81C0020BB
:1033E0008C24002080B483B000AF7860034B184673
:1033F0000C37BD465DF8047B704700BFF81E002007
:1034000080B582B000AF7860154B1B7883F0010364
:10341000DBB2002B1FD00020FEF72CFD034621223B
:10342000194610481AF068F80346002B05D00E4BD9
:103430000E4A59210E4818F099FE0020FEF728FD8B
:1034400002460C4B9B690C330C3207CA83E8070019
:10345000034B01221A70074B18460837BD4680BD42
:10346000202E002000320208E01E0208243202084A
:103470006C1F02085032020880B483B000AF78603D
:10348000034B18460C37BD465DF8047B704700BF00
:1034900074320208B0B582B000AF7860144B1B786C
:1034A00083F00103DBB2002B1DD00020FFF7E4FF07
:1034B0000346104A14461D460FCD0FC40FCD0FC44E
:1034C0002B6823600020FEF7FDFC0246094B03F148
:1034D000240415460FCD0FC40FCD0FC42B682360F5
:1034E000034B01221A70044B18460837BD46B0BD85
:1034F000212E0020242E00209832020880B582B0B0
:1035000000AF78607B68002B01D100231FE07B684F
:103510001846FEF70BFD034683F00103DBB2002BD8
:1035200004D0786800F017F8002310E07B680833B7
:10353000184611F0D5FF034683F00103DBB2002BE0
:1035400004D0786800F007F8002300E00123184653
:103550000837BD4680BD80B582B000AF78607B681B
:10356000002B09D07B681846FEF7F0FC7B68083317
:10357000184611F0CBFF00E000BF0837BD4680BD04
:1035800080B582B000AF78600B46FB707868FFF7BB
:10359000B5FF00BF0837BD4680BD80B582B000AF23
:1035A00078607868FFF7D7FF00BF0837BD4680BD59
:1035B00080B500AFFEF7EEFC0346064AD360064B2B
:1035C0001B68002B03D1054B1B68034A1360024B99
:1035D000184680BD1C1F0020941F00208C24002052
:1035E00080B483B000AF7860034B18460C37BD46FB
:1035F0005DF8047B704700BF1C21002080B483B0BD
:1036000000AF7860084B1B7883F00103DBB2002B1E
:1036100002D0054B01221A70044B18460C37BD46E8
:103620005DF8047B704700BF6C2E0020C03202089A
:1036300080B483B000AF7860034B18460C37BD46AA
:103640005DF8047B704700BFE4320208B0B582B079
:1036500000AF78600D4B1B7883F00103DBB2002BC9
:103660000FD00020FFF7E4FF0346094A14461D4629
:103670000FCD0FC40FCD0FC42B682360034B012265
:103680001A70044B18460837BD46B0BD6D2E002099
:10369000702E00200833020880B483B000AF786039
:1036A0007B68002B01D1002300E0012318460C3772
:1036B000BD465DF8047B704780B483B000AF78608E
:1036C0007B68002B0C37BD465DF8047B704780B5E6
:1036D00082B000AF78600B46FB707868FFF7DCFFC4
:1036E00000BF0837BD4680BD80B582B000AF7860AE
:1036F0007868FFF7E1FF00BF0837BD4680BD0000D6
:1037000080B400AF064B1B68002B03D1054B1B6830
:10371000034A1360024B1846BD465DF8047B7047B0
:103720007C2100208C24002080B483B000AF78601E
:10373000034B18460C37BD465DF8047B704700BF4D
:103740000423002080B483B000AF7860084B1B785E
:1037500083F00103DBB2002B02D0054B01221A706B
:10376000044B18460C37BD465DF8047B704700BF1C
:10377000942E00203033020880B483B000AF78600C
:10378000034B18460C37BD465DF8047B704700BFFD
:1037900054330208B0B582B000AF78600D4B1B788F
:1037A00083F00103DBB2002B0FD00020FFF7E4FF12
:1037B0000346094A14461D460FCD0FC40FCD0FC452
:1037C0002B682360034B01221A70044B18460837FC
:1037D000BD46B0BD952E0020982E002078330208FB
:1037E00080B582B000AF78607B68002B01D10023E8
:1037F0000FE07B68184611F073FE034683F0010367
:10380000DBB2002B04D0786800F007F8002300E05A
:10381000012318460837BD4680BD80B582B000AF91
:1038200078607B68002B04D07B68184611F06EFE30
:1038300000E000BF0837BD4680BD80B582B000AF54
:1038400078600B46FB707868FFF7CAFF00BF083747
:10385000BD4680BD80B582B000AF78607868FFF764
:10386000DCFF00BF0837BD4680BD000080B400AF5C
:10387000064B1B68002B03D1054B1B68034A1360E2
:10388000024B1846BD465DF8047B70476423002058
:103890008C24002080B582B000AF00237B60104BE9
:1038A0001B6B0F4A43F4001313630D4B1B6B03F4A4
:1038B00000137B607B6800220521102002F0E2FFEC
:1038C000102002F0FBFF00220521112002F0DAFF98
:1038D000112002F0F3FF00BF0837BD4680BD00BFD6
:1038E0000038024080B485B000AFF86087ED020A6E
:1038F000C7ED010A97ED027AD7ED017A77EE677A84
:10390000FB68C3ED057AFB6893ED087AFB68D3ED9D
:10391000006AFB6893ED056AFB68D3ED047A76EEE6
:10392000677A66EEA76AFB6893ED016AFB68D3EDE0
:10393000057A66EE277A76EEA76AFB6893ED026A4F
:10394000FB68D3ED055AFB68D3ED037A75EEA75AF1
:10395000FB68D3ED047A77EEA77A75EEE77A66EE28
:10396000277A76EEA77A77EE277AFB68C3ED087A96
:10397000FB681A69FB68DA60FB685A69FB681A61C0
:10398000FB6893ED087AFB68D3ED0A7AB4EEE77A28
:10399000F1EE10FA03DDFB689A6AFB681A62FB68B5
:1039A00093ED087AFB68D3ED0A7AF1EE677AB4EE0C
:1039B000E77AF1EE10FA07D5FB68D3ED0A7AF1EE5B
:1039C000677AFB68C3ED087AFB681B6A07EE903ADA
:1039D000B0EE670A1437BD465DF8047B704780B4CB
:1039E00087B000AF786187ED040AC7ED030A87ED61
:1039F000021AC7ED011A7B693A691A607B69FA6895
:103A00005A607B69BA689A607B694FF000021A625B
:103A10007B691A6A7B69DA617B69DA697B695A6159
:103A20007B695A697B691A617B691A697B69DA600B
:103A30007B697A689A627B699A6A7B695A6200BF7D
:103A40001C37BD465DF8047B7047000080B582B02E
:103A500000AF7860391D4FF6FF730122034806F06E
:103A600067F87B6818460837BD4680BDF0820020A5
:103A700080B483B000AF78600DE000BF0B4B1B68D3
:103A800003F04003002BF9D07B681A78074B5A608B
:103A90007B6801337B607B681B78002BEDD100BF16
:103AA00000BF0C37BD465DF8047B70470014014031
:103AB00080B485B000AF78607B68FB6000BF1437CE
:103AC000BD465DF8047B704780B485B000AF786078
:103AD0007B68FB6000BF1437BD465DF8047B704710
:103AE00080B485B000AF78607B68FB60044B012236
:103AF0001A6000BF1437BD465DF8047B704700BFF5
:103B00002835002080B500AF104A0021104807F08A
:103B1000DDFB03460F4A13600F4A00210F4807F0F0
:103B2000D5FB03460E4A13600E4A00210E4807F0EB
:103B3000CDFB03460D4A13600D4A00210D4807F0E6
:103B4000C5FB03460C4A136000BF80BDA0330208CA
:103B50007D3B00089C350020C4330208113D00085D
:103B6000FC750020E8330208A13D00085C7A0020C3
:103B70000C340208D13F0008BC7E00202DE9F04F34
:103B80009FB010AFF8625048FFF772FF00F030FAB4
:103B900000F096FA00F000FB00F01EFB00F082FB44
:103BA0004A4B01221A6010F0FFFE034683F0010326
:103BB000DBB2002B02D0642010F01CFF444B1E68C7
:103BC000444B1B681846FCF7CFFCC7E90801424B81
:103BD0001B681846FCF7C8FCC7E906013F4B1B6889
:103BE0001846FCF7C1FCC7E904013D4B1B681846A9
:103BF000FCF7BAFCC7E902013A4B1B681846FCF710
:103C0000B3FCC7E90001384B1B681846FCF7ACFC55
:103C100082468B46354B1B681846FCF7A5FC804650
:103C20008946334B1B681846FCF79EFC04460D463C
:103C3000304B1B681846FCF797FC02460B46CDE953
:103C40000E23CDE90C45CDE90A89CDE908AB97ED06
:103C5000007B8DED067B97ED027B8DED047B97ED70
:103C6000047B8DED027B97ED067B8DED007BD7E924
:103C700008232149304619F00FFB154B1B681846E5
:103C8000FCF706FB0346124A5360002210491B480A
:103C90000DF068FC78637B6B002B05D07A6B4FF4DA
:103CA000BD71174819F054FA00F0A6FB154A4FF001
:103CB000000315480CF058FC124A4FF0000313485B
:103CC0000CF052FC6FE700BF44200208BC2E00201D
:103CD000B82F0020E0280020E4280020E828002059
:103CE000EC280020F0280020F4280020D428002010
:103CF000D8280020DC28002094200208B42F0020BF
:103D0000C82002088096980090300020983100204A
:103D100080B584B000AF78600023FB60FDF7E6F962
:103D20001C4B1B78002B2DD01A4B1B783F2B21D11D
:103D3000184BDB783F2B1DD1164B5B78A3F130027B
:103D400013469B0013445B001A46124B9B78303B92
:103D50001344FB60FB68112B02DD1223FB6004E0BF
:103D6000FB680A2B01DC0A23FB600B4B1B68FA681B
:103D7000DA6302E00748FFF77BFE64220021054872
:103D800019F0E4FB0023FB6000F0B8FB0A2007F009
:103D90002FFBC3E72C310020D08100200000000061
:103DA00080B584B000AF78600023FB60784B1B685F
:103DB000012B40F0C480774BD3E90A231046194603
:103DC000FCF702FF0346744A1360724BD3E90023E9
:103DD00010461946FCF7F8FE0346704A13606F4B15
:103DE00093ED007A6C4BD3ED007AF6EE006A67EE45
:103DF000A66A6B4BD3ED007A66EEA77A37EE677A48
:103E0000684BD3ED007A67EE277A674BC3ED007AF3
:103E1000614BD3ED007AB6EE007A27EE877A604BDD
:103E2000D3ED007A27EE277A5C4BD3ED007A37EE9C
:103E3000277A5C4BD3ED007A67EE277A5B4BC3EDB4
:103E4000007A594B1B681846FCF78EFB4CA3D3E94C
:103E50000023FCF771FE0346002B03D0524B544A5B
:103E60001A600FE0504B1B681846FCF77DFB46A319
:103E7000D3E90023FCF742FE0346002B02D04A4B55
:103E80004C4A1A60494B1B681846FCF76DFB3CA373
:103E9000D3E90023FCF750FE0346002B03D0434B2D
:103EA000434A1A600FE0414B1B681846FCF75CFB65
:103EB00035A3D3E90023FCF721FE0346002B02D0F3
:103EC0003A4B3C4A1A60384BD3ED007A3A4B93EDAB
:103ED000037AF0EE470AB0EE670A3848FFF702FDB2
:103EE000F0EE407A364BC3ED007A304BD3ED007ADA
:103EF000344B93ED037AF0EE470AB0EE670A32488E
:103F0000FFF7F0FCF0EE407A304BC3ED007A2C4B1B
:103F1000D3ED007AFDEEE77A17EE900AFDF776FC16
:103F20002A4BD3ED007AFDEEE77A17EE900AFDF703
:103F3000A7FC0023FB60164B00221A601BE0FB6805
:103F40000133FB60FB68632B15DD184B4FF000025B
:103F50001A60164B1B681D4A13601C4B1B68124AE3
:103F60001360114B1B68164A13600020FDF74EFCCE
:103F70000020FDF785FC052007F03AFA16E700BFA0
:103F8000333333333333E33F333333333333E3BF09
:103F90002835002028320020303500202C35002024
:103FA000802300207C230020343500203835002079
:103FB0009A99193F9A9919BF242A00204435002064
:103FC0003C3500203C2A0020703500204035002080
:103FD00080B582B000AF7860044B1B68012B01D123
:103FE00000F03CFB642007F003FAF5E7BC2E00204C
:103FF000B0B58EB002AF224819F012F9214B0193EF
:10400000214B0093214B224A224901200FF072FAE2
:1040100007F11C0318460EF047FE1F4BFB611F4BB8
:104020003B621F4B7B621F4BBB6207F11C031846B0
:104030000EF048FE034683F00103DBB2002B04D0F0
:1040400040F20221184819F083F8184C3B461846F4
:104050000EF056FE25463C460FCC0FC523682B605C
:10406000124B0022002112480CF0B6FA104B114AF4
:10407000114912480CF0C6FB00BF3037BD46B0BD39
:10408000F4200208AD6400084564000825640008B7
:10409000F963000838830020316100087561000869
:1040A000AD6100081962000808210208F82E0020FE
:1040B000C42E002030210208342102080C2F0020D9
:1040C00080B586B002AF11F097FA0246254B26491B
:1040D00026480CF057FC264B00221A60254BFB604B
:1040E00011F08AFA0246FB681F4923480CF07EFC57
:1040F000B860BB68002B09D0BA6840F21D211F4888
:1041000019F026F8C82007F073F9FBE71C4B0122D1
:104110001C491D480BF098FF78607B68002B08D085
:104120007A6840F22321194819F012F8002008F0AB
:1041300003F900230093164B164A0F4912480BF05F
:10414000F3FF38603B68002B08D03A684FF40971E0
:104150000E4818F0FDFF002008F0EEF800BF103701
:10416000BD4680BD402102080C2F0020142F0020E6
:10417000182F0020542102081C2F00206021020863
:10418000F82E0020C42E0020202F002090210208AD
:10419000B13A0008B02F002080B500AF094B0A4AA1
:1041A0001A60084B00225A60064BC8229A6011F030
:1041B0003BFA0246054B064906480CF0E3FB00BFFC
:1041C00080BD00BFB82F0020C42F0020BC210208F2
:1041D0000C2F0020B42F002080B586B002AF264BF4
:1041E000264A1A60244B00225A60234B64229A60AC
:1041F000234BFB6011F018FA0246FB682149224864
:104200000CF0F4FBB860BB68002B09D0BA6840F230
:104210003F211E4818F09CFFC82007F0E9F8FBE793
:104220001B4B01221B491C480BF00EFF78607B687A
:10423000002B08D07A684FF41171184818F088FFE5
:10424000002008F079F800230093154B0A4A0E4924
:1042500011480BF069FF38603B68002B08D03A68C2
:1042600040F245210D4818F073FF002008F064F873
:1042700000BF1037BD4680BD203100202C3100200A
:10428000CC2102080C2F00208C300020D8210208FD
:10429000F82E0020C42E002090300020902102082B
:1042A000C93A000890B58BB002AF404C38463F4B3E
:1042B0003F4A009208330ECB0BF07AFA04F1080360
:1042C0003A4607CA83E80700384C3846374B394A24
:1042D000009214330ECB0BF06BFA04F114033A4640
:1042E00007CA83E807000BF089FA03461A46304BE9
:1042F000314932480CF046FB314BFB6109F0BCFD03
:104300000246FB692C492F480CF070FBB861BB6971
:10431000002B09D0BA6940F25A212B4818F018FF37
:10432000C82007F065F8FBE7284B012228492948F7
:104330000BF08AFE78617B69002B08D07A6940F225
:104340005F21254818F004FF002007F0F5FF002347
:104350000093224B224A1B491E480BF0E5FE3861B0
:104360003B69002B08D03A694FF418711A4818F0CD
:10437000EFFE002007F0E0FFDFED1A1A9FED1A1A9A
:10438000F3EE0F0A9FED190A1948FFF728FBDFED3E
:10439000151A9FED151AF3EE0F0A9FED140A154832
:1043A000FFF71DFB00BF2437BD4690BD60320020E3
:1043B000042202080C2202080C2F00205832002090
:1043C0001822020890310020D8210208F82E00207F
:1043D000C42E00209831002090210208E13A000804
:1043E000283200200000C8420000000000004442C3
:1043F0004435002070350020B0B58CB000AF10F00F
:10440000DDFAC7E90A01FDF789F903463C1D1D469F
:104410000FCD0FC40FCD0FC42B682360D7E90A015D
:104420004FF47A724FF00003FCF71EFC02460B4675
:104430002F4B1A60D7E90A014FF47A724FF000034C
:10444000FCF712FC2B4B02FB03F3294A53607B68F9
:104450001846FCF789F802460B462549C1E90823AE
:10446000BB681846FCF780F802460B462049C1E9B4
:104470000A233B691846FCF777F802460B461C49AD
:10448000C1E914237B691846FCF76EF802460B4617
:104490001749C1E90E23BB691846FCF765F80246C7
:1044A0000B461349C1E91023FB691846FCF75CF879
:1044B00002460B460E49C1E912237B6A1846FCF7F7
:1044C00053F802460B460A49C1E968233B6A18467D
:1044D000FCF74AF802460B460549C1E95E23002273
:1044E000034905480DF03EF800BF3037BD46B0BD6A
:1044F0006032002040420F005832002080B500AFEB
:104500004A4BD3ED037A9FED4A7A27EE877A494BDF
:10451000D3ED007ADFED466A67EEA67AF0EE670A21
:10452000B0EE470A00214448FCF771FD01460A231A
:104530000A22424805F0FCFA414BD3ED037A9FED85
:104540003C7A27EE877A3F4BD3ED007ADFED386A6D
:1045500067EEA67AF0EE670AB0EE470A0121364808
:10456000FCF755FD01460A230A22344805F0E0FA1B
:10457000354B1B88092B57D9344B1B78432B4BD118
:10458000324B5A79324B1A70304B9A79304B5A7001
:104590002E4BDA792E4B9A702C4B1A7A2C4BDA7000
:1045A0002A4BDB78002B19D1284B5B78032B10D0DA
:1045B000032B31DC012B02D0022B05D02CE0244B45
:1045C0001B68244A136027E0214B1B68214A536073
:1045D00022E01F4B1B681F4A93601DE01B4BDB78DA
:1045E000012B19D1194B5B78032B10D0032B13DC53
:1045F000012B02D0022B05D00EE0154B1B68164A8A
:10460000136009E0124B1B68134A536004E0104B1F
:104610001B68114A936000BF282200210B4818F044
:1046200095FF094B00221A8000BF80BD242A00207C
:104630000000C842343500201C810020F082002098
:104640003C2A002038350020B42800208C28002087
:1046500028810020443500207035002080B582B0CC
:1046600002AF524B1B68002B42D100230093102352
:104670004F4A00210020FDF7A3FA002300931023E6
:104680004C4A02210020FDF79BFA002300931023DF
:10469000494A04210020FDF793FA002300931023D8
:1046A000464A06210020FDF78BFA002300931023D1
:1046B000434A00214620FDF783FA0023009310238C
:1046C0003C4A02214620FDF77BFA00230093102389
:1046D000394A04214620FDF773FA00230093102382
:1046E000364A06214620FDF76BFA304B01221A604C
:1046F000344BD3ED007A0023019310230093012360
:104700000322B0EE670A02211420FDF7A3FA2D4B15
:10471000D3ED017A00230193102300930123032298
:10472000B0EE670A04211420FDF794FA254BD3ED6F
:10473000027A002301931023009301230322B0EE99
:10474000670A06211420FDF785FA1F4BD3ED007A86
:10475000002301931023009301230322B0EE670A84
:1047600002215A20FDF776FA174BD3ED017A002388
:1047700001931023009301230322B0EE670A042162
:104780005A20FDF767FA104BD3ED027A002301930C
:104790001023009301230322B0EE670A06215A205A
:1047A000FDF758FA00BFBD4680BD00BFC02E0020F7
:1047B00020220208282202082C22020830220208A5
:1047C00034220208443500207035002080B58CB0BA
:1047D00000AF07F11C0300221A605A609A60DA6089
:1047E0001A610023BB613E4B1B6B3D4A43F08003C3
:1047F00013633B4B1B6B03F08003BB61BB6900235E
:104800007B61374B1B6B364A43F004031363344B15
:104810001B6B03F004037B617B6900233B61304B1E
:104820001B6B2F4A43F0010313632D4B1B6B03F0EB
:1048300001033B613B690023FB60294B1B6B284A4A
:1048400043F010031363264B1B6B03F01003FB6054
:10485000FB680023BB60224B1B6B214A43F0020321
:1048600013631F4B1B6B03F00203BB60BB68002389
:104870007B601B4B1B6B1A4A43F008031363184BF6
:104880001B6B03F008037B607B6800220321154843
:1048900002F0C0FD00220321134802F0BBFD0323F8
:1048A000FB6101233B6200237B620023BB6207F1B3
:1048B0001C0319460B4802F011FC0323FB61012382
:1048C0003B6200237B620023BB6207F11C03194695
:1048D000054802F003FC00BF3037BD4680BD00BF75
:1048E00000380240000802400010024080B500AFCE
:1048F000124B134A1A60114B124A5A600F4B002296
:104900009A600E4B0022DA600C4B4FF480421A6121
:104910000A4B00225A61094B00229A61074B002280
:10492000DA61064B00221A62044802F08DFD03464C
:10493000002B01D000F07AFA00BF80BD2C8100204E
:1049400000540040A086010080B58AB000AF7860B6
:1049500007F1140300221A605A609A60DA601A6143
:104960007B681B68194A93422BD100233B61184B8B
:104970001B6B174A43F002031363154B1B6B03F0C9
:1049800002033B613B69C0237B611223BB610023AF
:10499000FB6103233B6204237B6207F11403194686
:1049A0000C4802F09BFB0023FB60094B1B6C084A80
:1049B00043F400131364064B1B6C03F40013FB60F9
:1049C000FB6800BF2837BD4680BD00BF00540040D3
:1049D000003802400004024080B500AF01F034FE10
:1049E00000F048F8FFF7F2FEFEF754FF00F012FF68
:1049F00000F022FCFFF77AFF00F036FF00F006FD22
:104A000000F058FD00F0B4FC00F058FF00F0D8FEB4
:104A100001221349134805F016F9012212491348DF
:104A200005F011F90021124803F096FF0421104807
:104A300003F092FF08210E4803F08EFF0C4B1B6819
:104A40000A22DA63FCF782FEFCF754FFFCF7A0FFB2
:104A500006F0F2FBFFF756F806F012FC00BFFDE788
:104A6000B8280020F0820020B92800208083002090
:104A7000D081002080B594B000AF07F12003302230
:104A80000021184618F062FD07F10C0300221A609D
:104A90005A609A60DA601A610023BB60284B1B6C75
:104AA000274A43F080531364254B1B6C03F080535B
:104AB000BB60BB6800237B60224B1B68214A43F428
:104AC000804313601F4B1B6803F480437B607B684B
:104AD00001233B624FF480337B620223BB634FF4BC
:104AE0008003FB6308233B644FF4A8737B640223B9
:104AF000BB640423FB6407F12003184603F052F95A
:104B00000346002B01D000F091F90F23FB60022334
:104B10003B6100237B614FF4A053BB614FF4805392
:104B2000FB6107F10C030521184603F0B3FB0346B4
:104B3000002B01D000F07AF900BF5037BD4680BD90
:104B4000003802400070004080B584B000AF78604B
:104B50007B681B68A04A934202D101F097FD5BE19C
:104B60007B681A689D4B1B689A4226D19B4B1B6839
:104B70005B6A42F20F72934209D8994BB3F908303D
:104B80009BB201339BB21AB2954B1A810FE0934B43
:104B90001B685B6A42F20F72934208D9904BB3F9DB
:104BA00008309BB2013B9BB21AB28D4B1A818B4BE2
:104BB0001B6842F210725A622EE17B681A68894BB8
:104BC0001B689A422AD1874B1B685B6AFB60854B46
:104BD0001B685B6A42F20F72934209D8824BB3F9A9
:104BE00008309BB201339BB21AB27F4B1A810FE09F
:104BF0007C4B1B685B6A42F20F72934208D97A4B76
:104C0000B3F908309BB2013B9BB21AB2764B1A81C2
:104C1000744B1B6842F210725A62FDE07B681A689E
:104C2000724B1B689A4240F0F7806C4B1B681B6804
:104C300003F01003102B0CBF01230023DBB21A4634
:104C4000674B1A75674B1B681B6803F01003102B2A
:104C50000CBF01230023DBB21A46634B1A755F4B6E
:104C60001B685A6A5E4BB3F9083019465B4B1B68E8
:104C7000DB6A01FB03F313441A46594B5A60594B44
:104C80001B685A6A584BB3F908301946554B1B68D4
:104C9000DB6A01FB03F313441A46534B5A60504B33
:104CA0005A684F4B1B68D31A07EE903AF8EEE77A32
:104CB000F1EE677A17EE903A1846FBF755FC42A3DF
:104CC000D3E90023FBF7A8FC02460B461046194621
:104CD0003FA3D3E90023FBF79FFC02460B46104697
:104CE00019464FF00002424BFBF7C0FD02460B464F
:104CF00010461946FBF768FF0346394AD3603A4B22
:104D00005A68394B1B68D31A07EE903AF8EEE77AE7
:104D100017EE900AFBF728FC2BA3D3E90023FBF73F
:104D20007BFC02460B461046194629A3D3E9002313
:104D3000FBF772FC02460B46104619464FF0000284
:104D40002B4BFBF793FD02460B4610461946FBF72B
:104D50003BFF0346244AD360214BD3ED037AB7EEE1
:104D6000007AF4EEC77AF1EE10FA09DA1C4BD3EDB3
:104D7000037ABFEE007AF4EEC77AF1EE10FA04D8A7
:104D8000174B1B69164AD36003E0154BDB68144AC6
:104D90001361154BD3ED037AB7EE007AF4EEC77AC0
:104DA000F1EE10FA09DA104BD3ED037ABFEE007A78
:104DB000F4EEC77AF1EE10FA1CD80B4B1B690A4AC5
:104DC000D3601BE0AFF300806E861BF0F921094031
:104DD00048E17A14AE47E13F0020004060820020A5
:104DE000242A0020A88200203C2A002018820020CB
:104DF00000A094400A4BDB68094A1361094B5B68C9
:104E0000084A1360064B5B68054A1360064B1B6833
:104E1000002B01D0FCF798FB00BF1037BD4680BDCA
:104E20003C2A0020242A0020BC2E002080B400AFA1
:104E300072B600BF00BFFDE780B582B000AF0023AF
:104E40007B60124B5B6C114A43F4804353640F4BFD
:104E50005B6C03F480437B607B6800233B600B4BFF
:104E60001B6C0A4A43F080531364084B1B6C03F01D
:104E700080533B603B6800220F216FF0010001F07E
:104E800001FD00BF0837BD4680BD00BF00380240AD
:104E900080B58EB000AF78600023FB620023BB6258
:104EA0000023FB60334B1B6C324A43F48073136462
:104EB000304B1B6C03F48073FB60FB6807F110023E
:104EC00007F114031146184603F004FC3B6AFB6229
:104ED000FB6A002B03D103F0D5FB786304E003F0F9
:104EE000D1FB03465B007B637B6B234AA2FB03235E
:104EF0009B0C013BBB62214B214A1A601F4B40F2C5
:104F0000E732DA601D4ABB6A53601C4B00221A610B
:104F10001A4B00229A60194B00229A61174803F03D
:104F20000BFC034687F8333097F83330002B1BD146
:104F3000124803F051FC034687F8333097F83330BA
:104F4000002B11D12D2001F0B9FC7B680F2B08D864
:104F5000002279682D2001F095FC0A4A7B681360D5
:104F600002E0012387F8333097F83330184638379A
:104F7000BD4680BD0038024083DE1B438081002097
:104F8000002000408C23002080B400AF00BFFDE76C
:104F900080B400AF00BFFDE780B400AF00BFFDE705
:104FA00080B400AF00BFFDE780B400AF00BFFDE7F5
:104FB00080B400AF00BFBD465DF8047B70470000C1
:104FC00080B500AF024801F01FFE00BF80BD00BFEA
:104FD0001084002080B500AF024801F015FE00BF2C
:104FE00080BD00BF7084002080B500AF024803F090
:104FF000AFFE00BF80BD00BF1882002080B500AFAB
:10500000024803F0A5FE00BF80BD00BF6082002003
:1050100080B500AF024803F09BFE00BF80BD00BF1B
:10502000A882002080B500AF024804F045FF00BF11
:1050300080BD00BF3883002080B500AF024804F077
:105040003BFF00BF80BD00BF8083002080B500AF64
:10505000024803F07DFE00BF80BD00BF80810020BC
:1050600080B500AF024804F027FF00BF80BD00BF3D
:10507000F082002080B500AF024804F01DFF00BFA1
:1050800080BD00BFC883002080B400AF0123184654
:10509000BD465DF8047B704780B582B000AF786094
:1050A000396018F0FDFA034616221A604FF0FF33FC
:1050B00018460837BD4680BD80B582B000AF786025
:1050C0004FF0FF317868FFF7E7FF00BFFDE780B5DD
:1050D00086B000AFF860B9607A6000237B610AE0B7
:1050E000AFF300800146BB685A1CBA60CAB21A709E
:1050F0007B6901337B617A697B689A42F0DB7B686C
:1051000018461837BD4680BD80B586B000AFF86040
:10511000B9607A6000237B6109E0BB685A1CBA6001
:105120001B781846FEF792FC7B6901337B617A6934
:105130007B689A42F1DB7B6818461837BD4680BD14
:1051400080B483B000AF78604FF0FF3318460C375F
:10515000BD465DF8047B704780B483B000AF7860D3
:1051600039603B684FF400525A60002318460C37F0
:10517000BD465DF8047B704780B483B000AF7860B3
:10518000012318460C37BD465DF8047B704780B498
:1051900085B000AFF860B9607A6000231846143714
:1051A000BD465DF8047B704780B586B000AF78607F
:1051B000144A154BD31A7B617B693B61134B1B6807
:1051C000002B02D1114B124A1A60104B1A687B68EF
:1051D00013443A699A4207D218F062FA03460C2245
:1051E0001A604FF0FF3309E0084B1B68FB60074B68
:1051F0001A687B681344054A1360FB681846183721
:10520000BD4680BD0000022000040000CC810020CB
:105210007083012080B400AF064BD3F88830054A74
:1052200043F47003C2F8883000BFBD465DF8047BCC
:10523000704700BF00ED00E080B592B000AF07F10D
:10524000400300221A605A6007F1240300221A600A
:105250005A609A60DA601A615A619A613B1D202295
:105260000021184618F072F93F4B404A1A603E4B35
:1052700044F29F125A603C4B00229A603A4B6322E0
:10528000DA60394B00221A61374B00225A61364BE3
:1052900000229A61344803F00FFB0346002B01D033
:1052A000FFF7C4FD00233B6400237B6407F1400348
:1052B00019462D4804F00AFB0346002B01D0FFF7E6
:1052C000B5FD60237B620023BB620023FB620023E9
:1052D0003B6300237B630023BB630023FB6307F175
:1052E000240300221946204803F022FE0346002B27
:1052F00001D0FFF79BFD07F12403042219461A4849
:1053000003F016FE0346002B01D0FFF78FFD07F1D7
:10531000240308221946144803F00AFE0346002B12
:1053200001D0FFF783FD00237B600023BB600023D7
:10533000FB6000233B6100237B614FF40053BB61A2
:1053400000233B623B1D1946074804F03BFB034624
:10535000002B01D0FFF76AFD034800F0D5F900BF2C
:105360004837BD4680BD00BFD0810020000001400D
:1053700080B586B000AF07F1080300221A605A60BA
:105380009A60DA603B4600221A605A601E4B4FF06A
:1053900080421A601C4B40F28F625A601A4B002206
:1053A0009A60194B41F28732DA60174B00221A617A
:1053B000154B00229A61144803F0BEF90346002BF6
:1053C00001D0FFF733FD4FF48053BB6007F10803B2
:1053D00019460D4803F06EFE0346002B01D0FFF77F
:1053E00025FD00233B6000237B603B4619460648B1
:1053F00004F06CFA0346002B01D0FFF717FD00BF45
:105400001837BD4680BD00BF1882002080B58CB023
:1054100000AF07F10C0324220021184618F096F87B
:105420003B1D00221A605A60204B214A1A601F4B14
:1054300000225A601D4B00229A601C4B44F62062E9
:10544000DA601A4B00221A61184B00229A6103237A
:10545000FB6000233B6101237B610023BB610023D0
:10546000FB6100233B6201237B620023BB620023BC
:10547000FB6207F10C0319460C4803F035FB0346A9
:10548000002B01D0FFF7D2FC00237B600023BB6020
:105490003B1D1946054804F019FA0346002B01D0BC
:1054A000FFF7C4FC00BF3037BD4680BD60820020DE
:1054B0000004004080B58CB000AF07F10C0324223B
:1054C0000021184618F042F83B1D00221A605A606D
:1054D000204B214A1A601F4B00225A601D4B0022AC
:1054E0009A601C4B44F62062DA601A4B00221A6163
:1054F000184B00229A610323FB6000233B610123C8
:105500007B610023BB610023FB6100233B6201231D
:105510007B620023BB620023FB6207F10C03194688
:105520000C4803F0E1FA0346002B01D0FFF77EFCA4
:1055300000237B600023BB603B1D1946054804F037
:10554000C5F90346002B01D0FFF770FC00BF3037D0
:10555000BD4680BDA88200200008004080B485B010
:1055600000AF78607B681B680B4A93420DD1002323
:10557000FB600A4B5B6C094A43F001035364074B21
:105580005B6C03F00103FB60FB6800BF1437BD4692
:105590005DF8047B704700BF000001400038024006
:1055A00080B584B000AF78607B681B68B3F1804F32
:1055B00015D10023FB600C4B1B6C0B4A43F001031D
:1055C0001364094B1B6C03F00103FB60FB680022B2
:1055D00006211C2001F056F91C2001F06FF900BFD4
:1055E0001037BD4680BD00BF0038024080B58CB08A
:1055F00000AF786007F11C0300221A605A609A60BD
:10560000DA601A617B681B683A4A934234D10023FE
:10561000BB61394B1B6C384A43F002031364364BB1
:105620001B6C03F00203BB61BB6900237B61324B3F
:105630001B6B314A43F0010313632F4B1B6B03F0C9
:1056400001037B617B69C023FB6102233B62012371
:105650007B620023BB620223FB6207F11C03194635
:10566000264801F03BFD002205211D2001F00AF92A
:105670001D2001F023F939E07B681B68204A934222
:1056800034D100233B611C4B1B6C1B4A43F00403C9
:105690001364194B1B6C03F004033B613B6900234B
:1056A000FB60154B1B6B144A43F008031363124B4A
:1056B0001B6B03F00803FB60FB684FF44053FB6176
:1056C00002233B6201237B620023BB620223FB6255
:1056D00007F11C0319460B4801F000FD00220521CB
:1056E0001E2001F0CFF81E2001F0E8F800BF30378F
:1056F000BD4680BD0004004000380240000002406A
:1057000000080040000C024080B58AB000AF78600D
:1057100007F1140300221A605A609A60DA601A6175
:105720007B681B68224A93423DD100233B61214B99
:105730001B6B204A43F0100313631E4B1B6B03F0DB
:1057400010033B613B690023FB601A4B1B6B194A3A
:1057500043F001031363174B1B6B03F00103FB6062
:10576000FB684FF420537B610223BB610023FB6184
:1057700000233B6201237B6207F1140319460E48A4
:1057800001F0ACFC4FF480737B610223BB6100230A
:10579000FB6100233B6201237B6207F1140319467E
:1057A000064801F09BFC00BF2837BD4680BD00BF06
:1057B000000001400038024000100240000002409A
:1057C00080B500AF114B124A1A60104B4FF4E13212
:1057D0005A600E4B00229A600C4B0022DA600B4B91
:1057E00000221A61094B0C225A61084B00229A616F
:1057F000064B0022DA61054804F04AF90346002B03
:1058000001D0FFF713FB00BF80BD00BFF082002076
:105810000050004080B500AF114B124A1A60104B87
:105820004FF461225A600E4B00229A600C4B00220A
:10583000DA600B4B00221A61094B0C225A61084BAB
:1058400000229A61064B0022DA61054804F020F933
:105850000346002B01D0FFF7E9FA00BF80BD00BF6F
:10586000388300200044004080B500AF114B124A3D
:105870001A60104B4FF416525A600E4B00229A6079
:105880000C4B0022DA600B4B00221A61094B0C22F0
:105890005A61084B00229A61064B0022DA610548E2
:1058A00004F0F6F80346002B01D0FFF7BFFA00BF63
:1058B00080BD00BF808300200048004080B500AF5D
:1058C000114B124A1A60104B4FF4E1325A600E4BE2
:1058D00000229A600C4B0022DA600B4B00221A6106
:1058E000094B0C225A61084B00229A61064B002298
:1058F000DA61054804F0CCF80346002B01D0FFF72D
:1059000095FA00BF80BD00BFC8830020001401408D
:1059100080B590B000AF786007F12C0300221A60C8
:105920005A609A60DA601A617B681B68954A9342F4
:1059300053D10023BB62944B1B6C934A43F48013F6
:105940001364914B1B6C03F48013BB62BB6A00238E
:105950007B628D4B1B6B8C4A43F0040313638A4BB1
:105960001B6B03F004037B627B6A00233B62864B64
:105970001B6B854A43F008031363834B1B6B03F0D7
:1059800008033B623B6A4FF48053FB6202233B6394
:1059900000237B630323BB630823FB6307F12C0312
:1059A00019467A4801F09AFB0423FB6202233B6309
:1059B00000237B630323BB630823FB6307F12C03F2
:1059C0001946734801F08AFB00220521352000F0BA
:1059D00059FF352000F072FF25E17B681B686D4A96
:1059E000934240F094800023FB61674B1B6C664A36
:1059F00043F400331364644B1B6C03F40033FB610A
:105A0000FB690023BB61604B1B6B5F4A43F00103E2
:105A100013635D4B1B6B03F00103BB61BB690C237C
:105A2000FB6202233B6300237B630323BB630723E7
:105A3000FB6307F12C031946574801F04FFB574B06
:105A4000574A1A60554B4FF000625A60534B002280
:105A50009A60524B0022DA60504B4FF480621A6118
:105A60004E4B00225A614D4B00229A614B4B4FF432
:105A70008072DA61494B4FF440321A62474B002280
:105A80005A62464800F028FF0346002B01D0FFF77A
:105A9000CDF97B68414ADA63404A7B689363414BA6
:105AA000414A1A603F4B4FF000625A603D4B402222
:105AB0009A603C4B0022DA603A4B4FF480621A61E4
:105AC000384B00225A61374B00229A61354B002235
:105AD000DA61344B4FF440321A62324B00225A6280
