:100000006F20A05613000000130000001300000032
:100010001300000013000000130000001300000094
:100020001300000013000000130000001300000084
:08003000130000007300100032
:100038000000000000000000EE120000F2120000B4
:1000480000000000B02400000000000000000000D4
:10005800B2240000B42400000000000000000000EA
:10006800B624000000000000B824000000000000D2
:10007800BA240000BC240000BE240000C0240000F4
:10008800C2240000C4240000C6240000C8240000C4
:10009800CA240000CC240000CE240000D024000094
:1000A800D2240000D4240000D6240000D824000064
:1000B800DA240000DC240000DE240000E024000034
:1000C800E2240000E4240000E6240000E824000004
:1000D800EA240000EC240000EE240000F0240000D4
:1000E800F2240000F4240000F6240000F8240000A4
:1000F800FA240000FC240000FE2400000025000073
:1001080002250000C0230000902200008623000082
:100118000A2500000C2500000E250000102500000F
:1001280012250000142500001625000018250000DF
:100138001A2500001C2500001E25000020250000AF
:10014800222500002425000026250000282500007F
:100158002A2500002C2500002E250000302500004F
:10016800322500003425000036250000382500001F
:100178003A2500003C2500003E25000040250000EF
:1001880042250000442500004625000048250000BF
:100198004A2500004C2500004E250000502500008F
:1001A800522500005425000056250000582500005F
:1001B8005A2500005C2500005E250000602500002F
:1001C80062250000642500006625000068250000FF
:1001D8000000000000000000000000000000000017
:1001E8000000000000000000000000000000000007
:0801F8000000000000000000FF
:10020000397101436EC619A0397141536AC866CA73
:1002100062CC5ECE19A0397101535AD056D252D455
:100220004ED64AD826DA22DC06DE330161408282CD
:1002300041114AC026C222C406C68282B24D410183
:10024000024D924C224CB24B4101024B924A224A3F
:10025000B2494101024992442244B24041018280A4
:100260003D432A876373C3029377F700BDEFADE583
:10027000937606FF3D8ABA960CC34CC30CC74CC795
:100280004107E36BD7FE11E28280B306C3408A06C2
:100290009702000096966780A6002307B700A30682
:1002A000B7002306B700A305B7002305B700A304D2
:1002B000B7002304B700A303B7002303B700A302CA
:1002C000B7002302B700A301B7002301B700A300C2
:1002D000B7002300B700828093F5F50F9396850051
:1002E000D58D93960501D58D61B79396270097021A
:1002F000000096968682E78086FA9680C1171D8F49
:100300003E96E374C3F8A5B7EFF2FFF00111AA8A95
:100310002E8A21458545EF209038854537054000D8
:10032000EF20D039B714014013040040F1490D49C2
:100330004C00138504C060824EC64AC4EF20805C26
:100340008567938707804C00138504C07C824EC666
:100350004AC4EF20205BB7070040E08537640040C7
:100360003ECA0C08916713050480FC8656C8231CFE
:100370004101EF20A073130504808545EF20300272
:10038000854513050480EF20500605617DBDEFF221
:10039000BFE7B76400402A84AE8913850480854591
:1003A000328AB68AEF207004138504808545B7042D
:1003B000030037690040EF2010008504130B09800B
:1003C000A6855A85EF20F00565DD06041305098032
:1003D00001469375E40F37090700B7640040EF202A
:1003E000300313092908138B0480CA855A85EF202E
:1003F000500365DDCE8513850480EF20B0001385A2
:1004000004808545B704030037690040EF20A07AD7
:10041000850493090980A6854E85EF20900065DD4F
:1004200093651400054693F5F50F13050980B7048D
:10043000030037640040EF20A07D8904130404808A
:10044000A6852285EF20E07D65DDB7640040370991
:10045000001093840480014413090904930BEAFFFC
:10046000A689631B44013765004085451305058057
:10047000EF2000760145E9B3CA852685EF20C07BD1
:100480006DD1338B8A006316740181454E85EF2050
:10049000C0754E85EF2040772300AB000504D1B72F
:1004A000EFF21FD941112A89AE84328434001946F3
:1004B0009305300413058006D93D0DE11C84988412
:1004C000A207D98F2310F9001C859885A207D98F20
:1004D0009EA01C869886A207D98F1EA041019DBBB5
:1004E000EFF27FD337640040AA892E891305048078
:1004F0008545EF20806F1305048085453704030090
:10050000B7640040EF20206B0504138A0480A285A5
:100510005285EF20007165DD138504800146930547
:10052000000DB704070037640040EF20606E93842D
:10053000240813040480A6852285EF20806E65DDE3
:1005400037040010B764004013040408138A0480C1
:10055000A2855285EF20406E65DD13850480CE852F
:10056000B704070037640040EF20C0699384440853
:1005700013040480A6852285EF20A06A65DDB704F8
:100580000010376400409384040893090480A68512
:100590004E85EF20606A65DDCA8513050480EF2073
:1005A0006066130504808545EF208062014571B9BE
:1005B000EFF27FC63764004085452A891305048021
:1005C000EF20A06213050480854537040300B7645B
:1005D0000040EF20405E050493890480A2854E858B
:1005E000EF20206465DD1385048001469305000D2E
:1005F00037040700B7640040EF208061130424082B
:1006000093890480A2854E85EF20A06165DDCA85AF
:100610001385048037040700B7640040EF20805E34
:100620001304440813890480A2854A85EF20605F83
:1006300065DD13850480854537040300B7640040F9
:10064000EF206057050413890480A2854A85EF20B6
:10065000405D65DD1385048005469305100DB704E4
:10066000030037640040EF20A05A8904130404807B
:10067000A6852285EF20E05A65DDB70400103764B7
:1006800000409384040413090480A6854A85EF2062
:10069000A05A65DD13050480EF200057AA84854524
:1006A00013050480EF20C052268545B6EFF25FB8EF
:1006B000616589451305056A8139930500081305AD
:1006C000B006393D1305800CEF20D0268145130577
:1006D000B00639359D45654521359945694509354A
:1006E00085457145F53BE1456D45DD3B814513058C
:1006F0008003FD3381451305A006DD3381451305D5
:100700003002F93B9305000813057003D13B130534
:100710005007793D130780068547631EE500854530
:100720001305B006753B81451305C006553B9D4535
:1007300065457D3381473E8531BEEFF27FAF37148B
:1007400001402A89A144130404C093178901E18759
:100750009165228563DD0702EF2060275145EF2078
:10076000B01C89652285EF20C0265145EF20D01BA3
:1007700089652285EF20A025FD145145060993F4D3
:10078000F40FEF20701A1379F90FE1F0E1B4EF20C4
:100790004024E9B7EFF23FA837190140A1440144D2
:1007A000130909C0854989654A85EF208022514592
:1007B000EF2090170604A1654A851374F40FEF200B
:1007C000602063143501136414005145EF20D015E7
:1007D00089654A85EF20A01FFD14514593F4F40F5D
:1007E000EF209014E9F022858DB4EFF27FA4B714C6
:1007F000014085652A84138504C0EF20801D1315F0
:1008000014001375E50713650508053F61372A8451
:100810008565138504C0EF20801B228525BCEFF27F
:100820003FA1B71401402A842E89138504C0856531
:10083000EF20201A131514001375E507FD3D4A85B6
:10084000ED3D8565138504C0EF20601821B4EFF2FB
:100850003F9E41112A842EC6493FB245C98D93F56A
:10086000F50F22856D3F4101F5B2EFF27F9C4111FA
:100870002A842EC69D3FB24593C5F5FFE98D93F5B9
:10088000F50F2285693F41016FF0DF9CEFF25F9A1F
:100890005145A13F0D8901E58D4551454D3F6FF013
:1008A0007F9BEFF2FF98A1452145C1379305D00307
:1008B0004545B537930560085D4595379305F007C5
:1008C00013056002A93FF9451305D002893F814510
:1008D0001305C002A9379305D0081305A00281377C
:1008E0009305E0031305B0021D3F0945EF20D00337
:1008F000713F6FF03F96EFF2BF933714014085458B
:1009000013050480EF20A00C0545EF20F00185457C
:1009100013050480EF20E00B0545EF20F00085452E
:1009200013050480EF20A00A0545EF20E07FBD45B8
:100930000545F5350545553D41896DFD0545EF20DA
:10094000A07E9305D0034545D93DF9451305D00256
:10095000F93581451305C002D9359305D008130533
:10096000A002753D9305E0031305B0024D3D9305CC
:10097000000455456D356FF0FF8DEFF27F8BEF0072
:10098000E07637140140130504808545EF202004EC
:100990008565130504C0EF208003B13F19376FF060
:1009A0007F8BEFF27F86B147AA84AE8B328BB689FC
:1009B0003A8A630BF50CB947630DF50C0149014404
:1009C000936504080945A13D930500081145713D53
:1009D00081450545A9359305000829458D3D814A86
:1009E00063EC6A0BA68505451D3DB1476396F4008F
:1009F000930500083545A13D930A803E136919000F
:100A00001145E533FD1A2A8B63850A00B37725016A
:100A1000E5DB930500083545893D63860A081945DD
:100A2000E9336D8949E133746401B1470588639303
:100A3000F40429455D3B2A893145453B1D899317BF
:100A4000390009C59307F9FF8E07AA972320FA00FA
:100A5000854463080900C9479374F90F63F32701BC
:100A6000C944014925455133B387290188A30509A4
:100A7000E36A99FE930500083145D13B8145054560
:100A8000793B22856FF0CFFB130900031304700735
:100A900005BF414949442DB7B3875B018C232545E8
:100AA000850AB53B35BF0944F1B7EFF26FF8011184
:100AB000AA842E842145A1454D3B9D45354585336E
:100AC0008D4551456933740038000546B68531457A
:100AD0004486C13D01ED2247C1476319F7001C86DA
:100AE0001CA09C861CB005616FF0CFF60945E5BFE0
:100AF000EFF20FF40111A145AA842145BD338145D0
:100B00003545313B930500083945853374008967C5
:100B10009387370938000946B68531457C865135BB
:100B20002A841DE18147014711467400BE96942234
:100B3000B385F400850794A1358FE398C7FE8347FA
:100B400001016383E7000944930500083945013337
:100B5000228505616FF00FF0EFF28FED2A84AE84ED
:100B60001545914532891133814505454D39930528
:100B700000082945E939A294631B94028D45054577
:100B800079391304F00F7D1415451374F40FB1393E
:100B900019C011896DD91305200281392300A900DC
:100BA000130510029931A300A9006FF0AFEA0C20E1
:100BB00025450504AD31C9B7EFF28FE701119D67F7
:100BC0009387370978007C86230901008147BA861C
:100BD00091453306F50010228507050710B3034839
:100BE0002101334606012309C100E394B7FE36858F
:100BF000130631019D458D37A1452145BD31740056
:100C000038002546B6853145693B01E92247E14771
:100C10006315F70005616FF0EFE30945E5BFEFF2FB
:100C20002FE101117C0036884886CC860147BE85BD
:100C3000BE861945B308E60083C808000507850588
:100C4000A3801501E318A7FE01471946B305E80084
:100C50008C2105078507ECB3E31AC7FE380031463F
:100C6000B68539453D3B2A8411E52145EFF0FFB7B4
:100C7000218911E10944228505616FF0AFDDEFF2B2
:100C80002FDB0111930700FAC8861306E100680004
:100C90002E8489455C86C935740038001146B685B6
:100CA0003145013331ED22479147631BF7041C8620
:100CB0002947BD8B6396E7044146A2856800EF3063
:100CC000E06D814741473306F40010227400BE9660
:100CD00090A28507E399E7FE7008C1456800AD3D25
:100CE000740038004946B6853145653911E9224717
:100CF00091476317F7001C862947BD8B6383E70084
:100D0000094505616FF00FD5EFF28FD201119307FE
:100D10000003C8861306E10068002E8489455C86BE
:100D2000253D740038001146B68531459D3905E5ED
:100D30002247930700096310F7028147414770007B
:100D40003E961022B306F400850790A2E399E7FED1
:100D500005616FF02FD00945E5BFEFF26FCD41116E
:100D600058008146BA851303F009254E9148B30710
:100D7000D5009C2313D84700130608036374F300BF
:100D80001306780310A3BD8B138607036374FE005C
:100D90001386770310B385060907E39A16FD3755C6
:100DA00000001305857F23060100EF30406A4101F2
:100DB0006FF04FCAEFF22FC693858183130520058C
:100DC000ED311375F50F13845184631A05168947A5
:100DD0001385C1831CA0293B1375F50F08A063156B
:100DE000052CB72901409304800C9389098085451F
:100DF0004E85EF10D03D0545EF20A03685454E8548
:100E0000EF10303DFD14054593F4F40FEF206035ED
:100E1000F9FC89471385C1831CA081379384C18362
:100E200093870181942098239384C1836397E6027A
:100E3000943098336393E602B420B823639FE600AE
:100E4000B830BC33631BF700375500000547130566
:100E500005652380E184EF30C07093874181942041
:100E600098236397E602943098336393E602B420A4
:100E7000B823639FE600B830BC33631BF7003755D7
:100E80000000054713058566A380E184EF30606D9F
:100E900093878181942098236397E6029430983356
:100EA0006393E602B420B823639FE600B830BC33F6
:100EB000631BF700375500000547130505682381BC
:100EC000E184EF30006A9387C1819420982363976F
:100ED000E602943098336393E602B420B823639F0C
:100EE000E600B830BC33631BF700375500000547F8
:100EF00013058569A381E184EF30A06693870182A1
:100F0000942098236397E602943098336393E60223
:100F1000B420B823639FE600B830BC33631BF700EE
:100F20003755000005471305056B2382E184EF3038
:100F300040631385C18349311375F50F19C108A0AA
:100F4000A5A23706002089479386C18313060608A9
:100F5000AD45130500061CA0D9311375F50F08A087
:100F600063160514375500001305856CEF30605F7C
:100F70009386C18313868180AD45130510064531E4
:100F80001375F50F08A063180512375500001305F7
:100F9000C56FEF30005D1C206398071003C5E1802A
:100FA0008947938541891CA085331375F50F08A0E7
:100FB0001389E1806316051037550000130505738A
:100FC000EF30E0488149138B4189B75A0000414A0C
:100FD000B3073B018C2313858A738509EF302047C3
:100FE000E39849FF3755000013054566EF30605719
:100FF0003755000013050574EF30A0561C20CDE7CF
:10100000375500008947130585761CA0EF306055E1
:101010001305803EEF20001203450900B7050020AC
:1010200093850500A9391375F50F08A059ED3755BB
:1010300000001305057AEF30C0521C20B5E70345C8
:1010400009008947938541891CA07D391375F50FE7
:1010500008A041E93755000013050573EF30203F24
:10106000014993844189375A0000C149B38724015B
:101070008C2313058A730509EF30603DE31839FFAF
:101080003755000013054566EF30A04D1C2089EF51
:101090003755000089471305857C1CA0EF30604C54
:1010A0001305803EEF2000096FF02F9A375500009E
:1010B0001305456E65BD3755000013058571D1BD1B
:1010C000375500001305457505BF3755000013055A
:1010D000457BEF3000490565130585BBEF20800592
:1010E000A9BF375500001305457579BFEFF24F943E
:1010F000011185453145EF10905A85451165EF1076
:10110000F05B371401408D44414985678A8513059A
:1011100004C07C804AC426C2EF10C07E89678A85DD
:10112000130504C07C804AC426C2EF10A07D9167DD
:101130008A85130504C07C804AC426C2EF10807CD7
:10114000E1777C808A859147130504C03EC426C29E
:10115000EF10407B85478A85130504807C804AC454
:1011600026C2EF10207AB70704013EC6B707020077
:101170003EC8B70700028507374400403ECA9307C0
:1011800080033ECC6C009D4713050480FC86EF1065
:10119000B056854513050480EF10F05905616FF0D6
:1011A0006F8BEFF2EF887971130600028145080812
:1011B000EFF00F8B8545114502C202C402C6EF1045
:1011C000104E854513050020EF10704D3165EF106E
:1011D000903437150140C1474C0013050580372472
:1011E00001407C8202C6EF10E07113050440EF104D
:1011F0006040B7070E003ECE0C088547130504403B
:101200002302F10202C802CA02CC02D0EF10E0426F
:101210009D460546914513050440EF10204C854539
:1012200013050440EF108057854513050440EF1067
:101230002046814513050440EF1000581305044073
:10124000EF100046930404402685EF1000466DFD24
:101250001305044037240140EF10A04593040440D7
:101260002685EF10A0456DFD13050440EF10405694
:101270002393A184854513050440EF10E053456195
:101280006FE05FFDEFE2DFFA37250140854513058A
:10129000054037240140EF10E042930404408945A3
:1012A0002685EF10C05065DD13050440EF10804E19
:1012B0006FE05FFAEFE2DFF74111854513050004A7
:1012C000EF10F03D8547372401407C82C1473EC680
:1012D0004C008D47130504803EC4EF10A062854585
:1012E00013050480EF10E06E41016FE0BFF673005C
:1012F000203001A0EFE2DFF3B714014013045006E1
:1013000093840440930500402685EF10A06B09C527
:101310007D141374F40F01E8B71401401304500650
:101320009384044001A80545EF10305DE1BF0545F9
:10133000EF10B05C930500402685EF10A06809E52A
:101340007D141374F40F65F413058002EF10F05A46
:10135000371501409305004013050540EF108066E6
:101360003335A0006FE01FEFEFE29FECA144014591
:1013700006051374F50FFD14B53F418D93F4F40F7A
:101380001375F50FF5F46FE0FFECEFE27FEA411122
:10139000854513050002EF10903093070040371584
:1013A00001407C824C009147130505403EC6EF107A
:1013B000605541016FE01FEAEFE29FE7B71401407B
:1013C000E937014493840440130940069305004023
:1013D0002685EF10205F09CD6315240105456FE0D8
:1013E0007FE7050405451374F40FEF101051F9BFA2
:1013F00093074006E304F4FEB714014001449384CC
:10140000044013094006930500402685EF10805BD9
:1014100011E9E30524FD050405451374F40FEF10ED
:10142000D04DD5B71305C4F9133515004DBFEFE204
:101430003FE04111854513050002EF105026930748
:1014400000407C8237150140C1473EC64C008D47A5
:10145000130505403EC4EF10E04A41016FE09FDFF5
:10146000EFE21FDDE9373714014093050040130513
:101470000440EF1000565145EF10B04E9305004068
:1014800013050440EF10A0547945EF1010476FE0AA
:101490007FDCEFE25FD841112A89AE89D137293F3D
:1014A00085440DE9AA840144154A7D3D3C00A2977C
:1014B00088A30504E31B44FF14849C84188590854D
:1014C000B697BA97B29710866396C7002380D90063
:1014D0002300E900268541016FE03FD7EFE25FD5A9
:1014E0004111854513050002EF10701B9307004062
:1014F0007C8237150140C1474C003EC613050540AC
:101500008D473EC4EF100040A13F7D3541016FE0A3
:101510007FD4EFE25FD0011185451305C002EF10C3
:1015200010188545216537140140EF1030199307D5
:10153000800341498D448A85130504407C804AC458
:1015400026C2EF10203C13050440A145EF102048AF
:1015500013050440C145EF1080471305044093056F
:101560000002EF10C046E1778A85130504807C8075
:101570004AC426C2EF10003913050480A165EF109C
:101580000045A147E1498A85130504C07C804EC40B
:1015900026C2EF1020378A85130504C023102101CD
:1015A0004AC4EF102036930700028A85130504C051
:1015B0007C804EC426C2EF10E034B70704013EC65B
:1015C000B7070002374400403ECAA1473ECC6C003A
:1015D0009D47130504C0FC8602C8EF10F011854535
:1015E000130504C0EF10301505616FE01FC6EFE270
:1015F0009FC2B74400402A891304900C938904C009
:1016000089454E85EF10501505C9CA85138504C05C
:10161000B7440040EF10D0131304900C138904C09A
:1016200085454A85EF10501319CD138504C0EF107E
:1016300070121375F50F31A07D141374F40F69F057
:1016400001456FE09FC07D141374F40F71F8CDBF96
:10165000EFE21FBE37140140AA84C14513050440C0
:10166000EF102037A14513050440EF1040362685C2
:10167000BD3FC14513050440EF1060356FE09FBDCD
:10168000EFE21FBB37140140AA84C1451305044093
:10169000EF102034A14513050440EF10403313D55B
:1016A0008400B13713F5F40F9937C1451305044091
:1016B000EF10E0316FE01FBAEFE29FB7371401403F
:1016C000AA84C14513050440EF10A030A1451305BD
:1016D0000440EF1000302685193FC1451305044032
:1016E000EF10E02E6FE01FB7EFE29FB441112A84A4
:1016F0001305A00236C22EC632C47D3F1305240056
:1017000042054181B53F2246090613150601418174
:10171000853F1305B0024D37B2458D051395050180
:101720004181B93F92468D06139506014181893F5B
:101730001305C002513741016FE0DFB1EFE25FAF47
:10174000EFF03FDD37140140C145130504C0EF1031
:10175000402813054006EF10F01DC145130504C0D5
:10176000EF10E02613054006EF10D01C9305000291
:1017700013050440EF10A02513054006EF10901B41
:101780004545EFF07FF313058007EF10B01A1305FE
:10179000100BEFF07FF21545EFF09FEB1305C00340
:1017A000EFF01FEB1305C003EFF09FEA1305200BCA
:1017B000EFF09FF01545EFF0BFE91305C003EFF020
:1017C0003FE91305C003EFF0BFE81305300BEFF05E
:1017D000BFEE1545EFF0DFE71305C003EFF05FE75D
:1017E0001305C003EFF0DFE61545EFF07FE61305C4
:1017F000C003EFF0FFE51305C003EFF07FE513052D
:10180000400BEFF07FEB0D45EFF09FE41305A003D5
:10181000EFF09FEA1545EFF0BFE31305000CEFF082
:10182000BFE91305200AEFF0BFE20945EFF05FE2E0
:1018300013054008EFF0DFE11305100CEFF0DFE7D0
:101840001305500CEFF0DFE01305200CEFF0DFE69E
:101850003545EFF0FFDF0145EFF09FDF1305300C5A
:10186000EFF09FE51305D008EFF09FDE1305A0020F
:10187000EFF01FDE1305400CEFF01FE41305D00856
:10188000EFF01FDD1305E00EEFF09FDC1305500CA9
:10189000EFF09FE22945EFF0BFDB13056003EFF0A7
:1018A000BFE11305800CEFF0BFDA1305000EEFF077
:1018B000BFE04945EFF0DFD97145EFF07FD94145F1
:1018C000EFF01FD96145EFF0BFD813053003EFF0FB
:1018D0003FD81305C002EFF0BFD713055002EFF059
:1018E0003FD713058002EFF0BFD613058002EFF05B
:1018F0003FD613057002EFF0BFD51305F002EFF0ED
:101900003FD51305C003EFF0BFD40145EFF05FD41E
:101910000D45EFF0FFD30D45EFF09FD34145EFF0BC
:101920003FD31305100EEFF03FD94945EFF05FD2DA
:101930007145EFF0FFD14145EFF09FD16145EFF0E8
:101940003FD11305D002EFF0BFD013058002EFF0B6
:101950003FD013053002EFF0BFCF13058002EFF048
:101960003FCF13058002EFF0BFCE13056002EFF00A
:101970003FCE1305F002EFF0BFCD1305B003EFF03B
:101980003FCD0145EFF0DFCC0D45EFF07FCC0D45AD
:10199000EFF01FCC4145EFF0BFCB13050002EFF095
:1019A000BFD14D45EFF05FD11305A002EFF0DFD0BE
:1019B0000145EFF0FFC90145EFF09FC90145EFF088
:1019C0003FC91305F007EFF0BFC81305B002EFF0F1
:1019D000BFCE0145EFF0DFC70145EFF07FC70145FE
:1019E000EFF01FC71305F007EFF09FC61305900235
:1019F000EFF09FCC6FE01F86EFE2FF81B28936895E
:101A00007D16FD16C2064206C18241822A8A2E84B4
:101A1000BA8AEFF07FCD636024036FE01F838504F3
:101A20005685C204EFF0DFC5C180E3EA34FF050448
:101A300042044180CDB7D284CDBFEFE26FFF328444
:101A4000AE862A86EFF05FCA2285EFF07FC36FE093
:101A50007F80EFE2EFFA0111368B939607013ACCC3
:101A6000C18213D7470093DA17003E8DB387E60291
:101A700032891387F5FF1306F5FFBA965696C2060C
:101A800042064182C182AA843ECA2E8442CEEFF031
:101A9000BFC5130609FE1376F60F931766003EC600
:101AA000996993174600196A3EC8A68C014C938920
:101AB00049DF130A4A80A14DD24713160C01418217
:101AC0006365F60005616FE06FF7C1476317FD02BC
:101AD000C247338687015296834B06000149F2477D
:101AE00033D62B41058A9DE35A8511E26245EFF01A
:101AF0003FB90509E315B9FF35A893070002E313C1
:101B0000FDFCB247338687014E96F9B711C65A8657
:101B1000A2856685EFF07FF213871C00931C0701F6
:101B200093DC0C0133869C40E31556FD050442040A
:101B30004180A68C050C49B7EFE20FED2A842E8A6E
:101B4000B284B68A3A8BC28B3E8993D91700902013
:101B500019E26FE0EFEE22854E945E88CA875A87BD
:101B6000D686D2854204EFF0DFEE41808504C5B70A
:101B7000EFE20FE941113E8A938AF6FF935718006E
:101B80002A8D2E89328CBA89C28B3EC693FCFA0FFD
:101B9000814D81441304F00F294B63958C00410162
:101BA0006FE0CFE9668785477D171377F70F6310DE
:101BB0008704B357FC02B3F7670313F6F70F85ECFE
:101BC00063DB5D0385EB0148DE875287CE86130613
:101BD00000026A85CA85EFF0DFE7B247FD1C850D7C
:101BE0003E9D420D135D0D0193FCFC0F7DB7B38745
:101BF00067035DBF85440148DE875287CE861306A2
:101C00000603C1BFEFE22FE1377400001305445F04
:101C1000EF0010013779000099C06FE00FE3130562
:101C2000445FEF00E07F1305C02BEF108053930556
:101C3000C95F1385C196EF209013AA84F1BFEFE22C
:101C40008FDD2A8A0D45AE8937740000EF00B000A1
:101C500013050460EF00C07C13054006EF106050D0
:101C6000377900009305C95F1385C196EF203010C6
:101C7000AA8A13054006EF10C04E63820A089387B4
:101C8000C196F8339307E0041384C1966300F7020A
:101C900023010A007C3035472300FA001C24A300EE
:101CA000FA001C346384E7002301FA000D45EF00BD
:101CB000807A377A00001305CA60EF00607613055A
:101CC0004006EF10004A9305C95F1385C196EF20C7
:101CD000100A75D178209307E0046300F70223818E
:101CE00009007C2035472380F9007C30A380F9006F
:101CF0001C246384E7002381F9006FE00FD51305EE
:101D00000460EF00E07113054006EF108045930575
:101D1000C95F1385C196EF209005AA8AB9BFEFE28B
:101D2000AFCE1386418693850186938B818613857A
:101D3000C1852388018623800B00EFE06FF61145F3
:101D4000EFF04FD4EF20603023ACA184EF20C03CF3
:101D5000B777000003A6875B83A6C75B1384C187A0
:101D6000EF10E040B77700002A86AE8603A5075C37
:101D700083A5475CEF10300BEF20C044B77700001D
:101D800083A5475B13898186EF10D07D23AAA186A6
:101D9000EF208038B777000003A6875C83A6C75C76
:101DA000938401879389C187EF10603CEF208041C5
:101DB00008C09385918613858187EFF08FEDEFE062
:101DC0007FFF1385818493850185EFF05FE783C7EB
:101DD0000B0003A6C18681451385C186138B8184C0
:101DE0002548A9483307CB0018230506930607FDAD
:101DF00093F6F60F637ED81499C12300F9009C2056
:101E000001468145138401852548A9483307C4004C
:101E100018230506930607FD93F6F60F6373D8148F
:101E200091C19CA04164377600001307F4FF93062C
:101E30000480232005000148C1471306065DA9451B
:101E40002945EFF07FCF03C681879307F4FF13077F
:101E5000048041488D46A9451305C003EFF05FD1CA
:101E6000377600001307F4FF930604800148C1474A
:101E70001306865DF9452945EFF01FCC03C6918610
:101E80009307F4FF1307048041488D46F945130575
:101E9000C003EFF0FFCD377600001307F4FF930681
:101EA00004800148C1471306065E930520032945B7
:101EB000EFF09FC803A50900EF20C013131605011A
:101EC0009307F4FF1307048041488D464182930530
:101ED00020031305C003EFF0BFC9377600001307D6
:101EE000F4FF930604800148C1471306865E9305FC
:101EF00060042945EFF05FC4034609009307F4FF2F
:101F00001307048041488D46930560041305C00300
:101F1000EFF01FC6377600001307F4FF9306048026
:101F20000148C1471306C65E9305A0052945EFF099
:101F3000BFC0902041489307F4FF130704808D46EB
:101F40009305A0051305C003EFF09FC26FE04FAFEC
:101F5000B38717038545938707FDBA9793F7F70F64
:101F600051B5B38717038545938707FDBA9793F754
:101F7000F70F69BDEFE2CFAB0945EF00104F716479
:101F8000EF10401513050420D122130504208524E9
:101F9000096513050558152EEFF04FFA41677D17B7
:101FA000930600081306000881450145EFF0DFA401
:101FB000EFF02F9FEFF00FB0EFE03F9CEFF00FD26C
:101FC00009EDEFE0AFEE19EDEFF0DFC3EFF03FD535
:101FD0001305803EEF100016D5BF1305800CEF10DF
:101FE0004018E9BF1305800CEF10C014D9BFB71714
:101FF00002409843B706FFF841111367170098C3D2
:10200000D84337060200758FD8C39843B706F7FE4A
:10201000FD16758F98C39843B706FCFFFD16758FA4
:1020200098C3D843B70681FFFD16758FD8C3984370
:10203000B70600ECFD16758F98C33707FF0098C7E9
:1020400023A6070202C402C69843C166558F98C3EF
:10205000B716024005679C42F18F3EC6A24785072E
:102060003EC4B24781E7A247E397E7FEB7170240B5
:102070009C431397E7006357070685473EC63247E0
:102080008547631FF704B7170240D843B706C1FF5F
:10209000FD16D8C3D843D8C3D84313670740D8C365
:1020A000D843758FD8C3D843B7062900558FD8C3F6
:1020B0009843B7060001558F98C39843931667005D
:1020C000E3DD06FED843B7160240719BD8C3D84360
:1020D00013672700D8C32147DC42B18BE39EE7FE9C
:1020E0004101828002C661BFEFE2EF92B744004037
:1020F000AE893289014493840440634524014A85B2
:102100006FE0AF94930500042685EF0010777DD92A
:10211000B38789008385070026850504C205C18130
:10212000EF00B074D9BF138781821C43938681A3CB
:102130003E95636BD500B78600209386068063E5E5
:10214000A60008C33E858280FD57EDBFEFE24F8EAB
:10215000AA84116579718545110502CA02CC02CEA7
:1021600002D002D202D402D602C602C8EF00305317
:1021700093070020FC82371401408D473ECC4C0869
:10218000E147130504803ECEEF00C077930700407F
:10219000FC824C089147130504803ECE3744014031
:1021A000EF004076B7070C000C10130504803ED4F6
:1021B00026D002D223160102EF00B05A054693053D
:1021C000505213050480EF00F066930750237C867D
:1021D00089475C87680085473EC8EF0070298545C0
:1021E00013050480EF00B06345616FE0AF86EFE256
:1021F0002F847971AA8485453705020002CA02CC72
:1022000002CE02D002D202D402D602C602C8EF0029
:10221000F04A85451145EF0090489147FC823714FC
:1022200001408D473ECC4C08E147130504803ECE6B
:10223000D12DA147FC824C089147130504803ECE66
:1022400037440040C125B7070C000C1013050440AB
:102250003ED426D002D223160102EF00905005464C
:102260009305505213050440EF00D05C93076013B0
:102270007C8685475C87680085473EC8EF00501F15
:10228000854513050440EF00905945616FD09FFCD0
:10229000411122C6374400409305505213050440B3
:1022A000EF00505E19CD13050440EF00905C1387DA
:1022B00001881423938716001CA39387418AB6973D
:1022C00088A33244410173002030EFD27FF6797148
:1022D000AA8485453705040002CA02CC02CE02D08A
:1022E00002D202D402D602C602C8EF00303D8545B4
:1022F00013050002EF00B03A85450545EF00303A7E
:1023000037051400854513050503F12593070010D3
:10231000FC82371401408D473ECC4C08E147130541
:1023200004403ECEC52393070020FC824C08914711
:10233000130504403ECE37540040E923B7070C0094
:102340000C10130504803ED426D002D223160102BD
:10235000EF00304105469305505213050480EF000D
:10236000704D930770237C8689475C87680085479A
:102370003EC8EF00F00F854513050480EF00304A9A
:1023800045616FD03FED411122C63754004093059F
:10239000505213050480EF00F04E19CD1305048050
:1023A000EF00304D138711881423938716001CA368
:1023B0009387C196B69788A33244410173002030B9
:1023C000411122C637440140930550521305048041
:1023D000EF00504B15C913050480EF009049938717
:1023E000218894231375F50F1387160098A313877C
:1023F000019D369708A31307D0066317E5008546AD
:10240000A381D188238007003745014093055052AE
:1024100013050580EF00D04A32444101730020309B
:10242000EFD21FE1B75400402A84938404808307CD
:10243000040099E36FD01FE2930500042685EF00A6
:10244000D0437DD98305040026850504C205C181DA
:10245000EF00B041E9BF89476316F50283C50188E3
:102460000147938701889386418A1376F70F636546
:10247000B6002380070082803386E6002300060032
:102480000507E5B78D47E318F5FE83C511880147B9
:10249000938711889386C1961376F70FE37BB6FC7A
:1024A0003386E600230006000507FDB701A001A062
:1024B00001A001A001A001A001A001A001A001A014
:1024C00001A001A001A001A001A001A001A001A004
:1024D00001A001A001A001A001A001A001A001A0F4
:1024E00001A001A001A001A001A001A001A001A0E4
:1024F00001A001A001A001A001A001A001A001A0D4
:1025000001A001A001A001A001A001A001A001A0C3
:1025100001A001A001A001A001A001A001A001A0B3
:1025200001A001A001A001A001A001A001A001A0A3
:1025300001A001A001A001A001A001A001A001A093
:1025400001A001A001A001A001A001A001A001A083
:1025500001A001A001A001A001A001A001A001A073
:1025600001A001A001A001A001A097E1FF1F93819C
:102570006131176100201301E1A817550000130510
:10258000A52B97E5FF1F9385E5A71386818363FA43
:10259000C5008322050023A0550011059105E3EA3B
:1025A000C5FE13858183938581A36377B5002320BE
:1025B00005001105E36DB5FEFD42739002BCAD420E
:1025C00073904280B76200009382820873A0023049
:1025D00097E2FFFF938282A693E23200739052301B
:1025E000EFF0FFA0970200009382029973901234DB
:1025F00073002030EFD2DFC3B72701409387074035
:10260000631EF500854513050020EF00100D814580
:1026100013050020EF00700C6FD0DFC3B737014007
:1026200093870780E31AF5FE854513050040EF0008
:10263000D00A814513050040F1BF5C413707F1E046
:102640001307F7EF944D7D8F9C41D58FD44DD58FD7
:10265000D441A206D58FD98F5CC11C4537F7F1FF55
:102660001307D77FD4457D8F9C49D58F9445860627
:10267000D58FD98F1CC55C55370710FF7D177D8F0F
:10268000DC29FD1793F7F70FD207D98F5CD582802D
:102690001C4589C593E717001CC58280F99BEDBFD7
:1026A0001C4593E787001CC5828008450D8105897C
:1026B00082801C4593E747001CC58280084509813C
:1026C000058982801C4591C537075000D98F1CC5EC
:1026D00082803707B0FF7D17F98FD5BFA54763F715
:1026E000B7048D47138765FF3307F7020328C5003A
:1026F0009D47B397E70093C7F7FFB3F70701B3967A
:10270000E600DD8E54C5994763E3C70495477D16FF
:102710003306F6025859FD47B397C70093C7F7FF32
:10272000F98F3396C5005D8E50D982800D4733876F
:10273000E502032805019D47B397E70093C7F7FF1C
:10274000B3F70701B396E600DD8E14C96DBFB1473C
:1027500063E2C702954765163306F6021859FD472E
:10276000B397C70093C7F7FFF98F3396C5005D8E07
:1027700010D9828095474D163306F6025855FD470D
:10278000B397C70093C7F7FFF98FB395C500DD8DE9
:102790004CD5828068454205418182805C4189C573
:1027A00093E707405CC1828093F7F7BFE5BF08411C
:1027B0006D8D3335A00082805C4191C537070004E0
:1027C000D98F5CC18280370700FC7D17F98FD5BF98
:1027D000EFD21FA601112A8423040100A5441C8402
:1027E00063F9F40423040100A54621461C8463FF19
:1027F000F606231501002304010095461C8463F1AD
:10280000F60E38853C8599460D46B3F7D702056527
:1028100013050580B3D7C7023357D702BA97C2074B
:10282000C1837C853C8505611D8D420541856FD046
:102830007FA21C4493E787001CC42285EFF0FFE6CB
:102840006DFD1C4493E747001CC42285EFF01FE791
:102850006DFD78441C8414108607B6972396E7FE16
:102860001C84850793F7F70F5C8495BFA3040100D0
:102870009C846378F6001C84850793F7F70F5C84CB
:10288000B5B798849C840C100607850786072E9799
:10289000AE970357C7FE83D7C7FE63FDE7029C844C
:1028A0008607AE9783D7C7FE7C859C84988485076E
:1028B0008607AE9783D5C7FE931717001810BA97EF
:1028C0002396B7FE9C8438850C1085078607AE9743
:1028D0002396E7FE9C84850793F7F70FDC8449BFB6
:1028E0001C841010388589078607B29783D7C7FEE6
:1028F000BA97C207C1837C851C84850793F7F70FBD
:102900005C84EDBD9C4513F7070113F8F70001C780
:10291000D8413368E8008E2113F7F50F39C3184109
:102920008146854E3D4F930F800293028004214ED5
:102930003396DE00B3F8C5006311160393982600A2
:1029400033131F011343F3FF3377E300B318180168
:1029500033E7E800639FF70550C98506E39AC6FD93
:1029600018C11307F00F6375B70454412146854E13
:102970003D4F930F800293028004414EB398CE00E6
:1029800033F715016392E80213172600011733137A
:10299000EF001343F3FFB376D3003317E800D98E6B
:1029A000639DF701232A15010506E319C6FD54C1ED
:1029B0008280E39457FA10C94DB7E39757FE232856
:1029C0001501DDB708456D8D3335A00082800CC937
:1029D00082804CC98280B7070140635A0504DC4FEE
:1029E00093560501131805013707300013F6F6005A
:1029F00013580801B376E50063500506639BE602B1
:102A0000930606010D46B316D60093C6F6FFF58F62
:102A100099C9135755011377F73F12073317E80089
:102A2000D98F63570504370701405CCF8280DC43B0
:102A300045BF1317B500635607008D46B396C60011
:102A4000E9B7135755011377F73F12073317E8001B
:102A50001347F7FFF98F6DBF6390E6023706014019
:102A60005442370700F17D17F98F758F58C2D5F1A1
:102A7000370701405CC382801317B500635C070011
:102A80008D46B396C60093C6F6FFFD8EB707000FBE
:102A9000D58FF1BF1357550112073317E8001347BD
:102AA000F7FF7D8FB707000FD98FD1B7EFD24FF85F
:102AB00079712A84462168082EC6BD24925737476B
:102AC0000F001307072433D7E702C204C18093F431
:102AD00004FCC204C180B24561651305056A131682
:102AE00007014182D18C46A01620C206C182F99A04
:102AF000C206C18216A094416369D5048606B3D785
:102B0000D7029146139707014183BA876373D700B1
:102B1000914705064206C2074182C18312B05EACEE
:102B20001E20DA21B62593E717001EA01E20558F20
:102B3000C207C18393F757BFD98F1EA09A25DE2500
:102B4000D98F1EA445616FD0EFF0EA2131667D1662
:102B5000631DC5020D46B386C602B3D7D702C207AE
:102B6000C1839396470199E293E71700A166D58F39
:102B70009306C0123307D7029306803E3347D7022D
:102B80000507420741831AB059BF6546B386C6029E
:102B9000B3D7D7029166C207C183D58FD9B71E219B
:102BA00089C593E717001EA18280C207C183F99BE4
:102BB000C207C183CDBF1E2189C593E707101EA19F
:102BC0008280C207C18393F7F7EFC207C183C5BFF5
:102BD0001E2189C593E707201EA18280C207C183F9
:102BE00093F7F7DFC207C183C5BF1E2189C593E7ED
:102BF00007401EA18280C207C18393F7F7BFC207B7
:102C0000C183C5BF0EA982800A291375F50F828082
:102C100093F7E50F19C293E71500C207C1831EA9F8
:102C200082805E290A2D42055D8D6D8D22052181F0
:102C30000D8D133515008280411102C402C693D751
:102C4000C5012AC63EC4A247A205A18199CBB247BD
:102C5000D1073EC6B247884341016D8D3335A00090
:102C60008280B247C181E107EDB723A2A1888280AB
:102C7000938741889443182181E63C21920721A83B
:102C800094430546639FC6023C21103192076314AA
:102C9000D60093E707F8B7E600E093F7F70FBA9688
:102CA0002380F6408546935757003397E6005441FA
:102CB000A5C2938707048A07B7E600E0B69798C3D2
:102CC00082808C4389466391D50214313C2163652F
:102CD000D6008A06B6975DB79386E6038A06B6974E
:102CE00093F7F70F920775B790438D46631CD60094
:102CF00014313C216364D6008606E9BF9386C6077B
:102D00008606F1BF94439147E39EF6F81C31BDB7A8
:102D1000938707064DB7B7160240DC4251777D17FF
:102D2000F98F5D8DC8C28280371702405C4391469F
:102D3000B18B6385D700A1466382D706B7177A00A7
:102D4000938707201CC1371602405C4237070020DA
:102D5000130707019183BD8BBA9794231C41B3D706
:102D6000D7005CC15442A1829D8ABA969422B3D600
:102D7000D70014C55442AD829D8A36971823B3D725
:102D8000E7005CC558423983937637001387C182C8
:102D900036971823B3D7E7021CC982805C43584397
:102DA000C166C983758FB7F6FF1F83A6C670BD8B3A
:102DB00089071396160163480600C54601466392CB
:102DC000D702C94739A88946638FD702BD46638EAB
:102DD000D702C146638ED702C54601466393D7002A
:102DE000C1471DEF3747024003270780418B05C7C6
:102DF00037177A0013070720B307F7021CC121D643
:102E00001C41858381B701466DBF0546B547D1BFDB
:102E10000146BD47F9B737173D0013070790E9BFD3
:102E2000B7150240D8559316F700D85563DF06044E
:102E300011833D8B9306170037177A00130707207D
:102E40003357D70218C1D455A182BD8A8DE2954669
:102E50003307D702058318C137170240585714416A
:102E60003D8B050733D7E60218C1184171B7854578
:102E70006394B600E546E9BFBD456396B600D1460A
:102E80003387E602C9BF8906E5BF3D8B930617006D
:102E900037177A00130707203357D702F1B799C5C0
:102EA000371702401C4F5D8D08CF8280B717024054
:102EB000984F1345F5FF798D88CF828099C53717D4
:102EC00002405C4F5D8D48CF8280B7170240D84FDB
:102ED0001345F5FF798DC8CF828099C53717024019
:102EE0005C475D8D48C78280B7170240D8471345BD
:102EF000F5FF798DC8C782801A218D6793870704F3
:102F0000B6217D8F9E21D58FD621D58FF621D58FE5
:102F10009625D58FB625D58FD625D58FF625D58F75
:102F2000D98F1EA15A2DFD779387F77FF98F5EAD5C
:102F30009E291EA982801E2189C593E707041EA130
:102F40008280C207C18393F7F7FBC207C183C5BF65
:102F50004EA582804A2582800A256D8D3335A000DA
:102F60008280EFD2EFAC1629F577FD17F58FF621A9
:102F7000DA257971D58F1EA95625FD779387379F5E
:102F8000F58FD6212A842EC6D58F9625D58FB625C6
:102F9000D58F5EA55E29C207C18393F7F7CFD98F7E
:102FA0005EA96808EFF05FD8B747014093870780B4
:102FB000B245631AF404A25756246547B387E70263
:102FC000C206C186984163D206040607522442060F
:102FD000B3D7E702130740064186B3D6E702B3F73B
:102FE000E7029206635506028E0793872703B3D73D
:102FF000E70213F77700B367D700C207C1831EA4A7
:1030000045616FD02FA5925745BF0A07C1B79207F8
:1030100093872703B3D7E702BD8BD58FF9BF91C53F
:103020005E250967D98F5EA582805A25F977FD173D
:10303000F98FD5BF13F7F50F85471583B395B70003
:103040006319F7009307C500984301CED98D8CC34F
:103050008280894693074501E318D7FE930705014F
:10306000E5B793C5F5FFF98DDDB793F5F51F4EA1D3
:1030700082804A211375F51F82800A216D8D3335B8
:10308000A000828013F7F50F85461583B397B6002D
:103090006311D7025A25F98F1A210145420741834E
:1030A00081CB0545A181B315B5006D8F3335E000A7
:1030B000828089466314D7001A29F1BF5A29E1BFDB
:1030C000A1818547B397B70093C7F7FFC207C183B4
:1030D0001EA1828083A7418237177A001307072039
:1030E000B3D7E70293F7F70F2385F1881307803EE4
:1030F000B387E7022394F1888280B7F700E0D843D2
:103100008146799BD8C303C7A1883306A70290CB19
:10311000D4CB98431367170398C3D843058B75DF47
:103120009843799B98C38280EFD28F90EFF0FFFC99
:103130006FD04F92B7F700E0D8438146799BD8C350
:1031400003D781883306A70290CBD4CB984313676B
:10315000170398C3D843058B75DF9843799B98C3B1
:103160008280EFD2EF8CEFF0FFFC6FD0AF8E397121
:103170004AD813D945014ED652D456D29399C50098
:1031800006DE22DC26DA5AD05ECE1379F97F2A8A4F
:1031900093D9C90093DAF501630D090E9307F07F07
:1031A0006306F9181354D5018E09B3693401370445
:1031B000800033E4890093143500130919C0814954
:1031C000814B13D74601139AC6001377F77FB28558
:1031D000135ACA0013DBF601630B07109307F07F45
:1031E0006303F7049357D6010E0A33EA4701130726
:1031F00017C0B7078000B367FA00931536003A99F5
:10320000814833C76A01BD463A851308190063E84F
:10321000361717460000130666408A09B29983A63E
:103220000900B2968286B367CA001309F97F6399D1
:10323000071293E9290081458948E1B701479307BF
:10324000F07F3704080081443204D20731807E07C2
:103250005D8C598CA285F250625426854259D25415
:10326000B259225A925A025BF24B216182805A85EE
:103270003E84AE84C68B8947638DFB0E8D47E38FFA
:10328000FBFA85472A87639EFB38814701448144C6
:1032900065BF33E4A90061C036C632C4638C092A15
:1032A0004E85EF10C0082246B246AA87130755FF85
:1032B0007544938487FF198CB399990033548A001D
:1032C00033643401B3149A0013D746011309D0C0F4
:1032D000139AC6001377F77F3309F9408149814B70
:1032E000B285135ACA0013DBF601E31907EEB36780
:1032F000CA00B1C7630F0A22528532C4EF102003FF
:1033000022462A87930655FFF547930587FF958F39
:10331000331ABA00B357F600B3E74701B315B60046
:103320003309E9401309D9C08148E1BD33E4A9005C
:1033300001ECA14981441309F07F894B59B593E908
:1033400019008145854875BD4E84AA84B149130989
:10335000F07F8D4BBDB5914981440149854B95B5B1
:1033600093E93900D2878D4869BD89475685E3972F
:10337000FBF02A879307F07F01448144F1B5C16EC9
:103380001386FEFF93D6040113DE0501F18CF18D47
:10339000338695023383B6029358060133059E02A5
:1033A0001A95AA98B382C60363F36800F692C16FB8
:1033B0001383FFFF33F5670093D30701B3F768006A
:1033C000C207337366003E933306950293D8080113
:1033D000B387A602135F0601B3849302BE94FA94E6
:1033E000B38E760263F3F400FE9E416A9307FAFF00
:1033F000935F0401B376F400B3F9F4007D8EC180CD
:103400003384D502C209338FD401B299CE98B30761
:10341000DE02935E0401B385BF02AE97BE9E330EFB
:10342000FE0363F3BE00529EC1679385F7FF33F638
:10343000BE006D8C4206229693DE0E01B305D502C6
:10344000769E3385AF0213D40501B386D302AA96C4
:10345000A296B38FF30363F3A600BE9F41657D156B
:10346000B3F7A600C2076D8DAA97B3855800B3B90C
:103470003501FA97B2953384370133B6C500B30EE0
:10348000C4013385CE0033343401B3B7E701C18FB3
:1034900033BECE0113D406013336C5003E943366E5
:1034A000CE009394950032947E94B3E46400260495
:1034B00093567501B3349000DD8193179500CD8C40
:1034C000558CDD8C9317740063DB070093D71400D1
:1034D00085889316F401DD8CD58C0580428993078D
:1034E000F93F6359F00893F6740081CE93F6F40027
:1034F00011466388C60093864400B3B496002694B0
:10350000B6849316740063D80600B70700FFFD1752
:103510007D8C930709409306E07F63CFF60E93D628
:1035200034009314D4012604D58C318093F7F77FAF
:1035300021BB328532C4EF00905F93065501F147FD
:10354000130705022246E3D1D7DC6115B317A600A5
:103550008145F9B3EF00B05D13075501F1459307BD
:1035600005022246B246E3D5E5D461153314AA001C
:10357000814499BB85469D8EB1E71309E941B39714
:103580002401B3D4D40033192401B337F000B36459
:103590009900DD8C93F77400B356D40081CF93F774
:1035A000F40011466388C70093874400B3B49700C2
:1035B000A696BE849397860063D807048547014486
:1035C000814459B113068003E341D6CC7D46E356CE
:1035D000D6FA0556B307F640930500023356F400B9
:1035E0006387B6001309E943B3172401DD8CB334B4
:1035F0009000D18C93F67400014499CA93F7F400BB
:1036000011468146E392C7FA139496003180F6067C
:103610008D80D58C81470DB99307F07F014481449B
:1036200025B142896DBD370710007D170111337335
:10363000B70093D84601758F935ED60122CC26CA77
:103640000E0393D445019357D5010E0706CE4AC801
:103650004EC693F8F87F130EF07F33E7EE0093F435
:10366000F47F13D4F50133E36700131F3500FD82A7
:10367000931E36006380C81993C61600B3851441A3
:103680006305D4126351B018638B081AB707800022
:103690005D8F6381C4599307800363C4B734FD47CA
:1036A00063C5B748930700028D8FB3D9BE003318A6
:1036B000F700B39EFE00336838013357B700B339C3
:1036C000D001336838013303E340B3090F41B33706
:1036D0003F013306F3409317860063D3072437096D
:1036E00080007D1933792601630F092C4A85EF008C
:1036F0001044130785FF93070002998FB3D7F90091
:103700003316E900D18FB399E9006344972A058FF6
:1037100013061700FD4663C5C63A13070002118F52
:10372000B3D6C9003398E9003397E700558F333893
:103730000001B369070133D6C700814493F77900CC
:1037400081CF93F6F90091476388F600938649008C
:1037500033B836014296B6899317860063D6071CA4
:10376000138714009307F07F05886306F720B707D7
:1037700080FFFD17F18F1398D70193D93900A60761
:1037800033683801B1831377F77F9396C7005207E8
:10379000B1827E04D98EC18EF2406244D244424945
:1037A000B2494285B685056182806356B00A638A54
:1037B0000812B70780005D8F6387C42D93078003CD
:1037C00063C7B718FD4763D2B73C138805FE93075C
:1037D0000002B3590701638AF50093070004B3851B
:1037E000B7403317B700B3EEEE003338D00133687B
:1037F000380195A2B367D7019385148099E393C6E6
:103800001600630AD404D1E19387140093F7E77F8D
:103810006399071EB367E3013368D7016392041607
:103820006382073C63160842131835009316D301D0
:103830001358380033E806019357330019A2B367D1
:10384000D7016385071A9387F5FF638B073A638C6B
:10385000C523BE8589B56399051C9386140093F72B
:10386000E67FC1EFB367E30163900436638D0744DD
:10387000B367D701639407460E051318D3010D8172
:103880003368A800935733006DA8B38598406397B9
:103890000420B367E301638D07309387F5FF6389E5
:1038A00007401305F07F6383A520BE85930780033F
:1038B00063C2B72AFD4763C8B73C930700028D8FE8
:1038C0003318F3003356BF00B317FF003368C80046
:1038D000B339F0003353B30033683801330767401E
:1038E000B5ACB367D701638307109387F5FF638F88
:1038F000071E6380C52FBE85D1B59307F07F638B0C
:10390000F606FA9E33B6EE01B307E300B2971398BA
:10391000F70193DE1E00B369D80113D61700B684F1
:1039200093F77900E39F07E09317D60113D8390086
:103930003368F800A685935736001307F07F63803D
:10394000E506B207B18313F7F57F05883DBD336700
:10395000D7013338E000B309E801B3B7E901338692
:10396000670093178600E3DD07FA85049307F07F6D
:10397000639CF41805881307F07F8147014831B52F
:10398000639107106301083C131836009317D701A1
:10399000135838003368F800368493573700B367FC
:1039A000F800E9DB01441307F07FB707080001487E
:1039B000E9BB370680FF7D167D8E93F77900998CE1
:1039C000E39107D895B74E85EF0070161307850170
:1039D000FD47E3D2E7D2130685FFB397C9008149BB
:1039E0002DB33368D70133380001C5B11318350042
:1039F0009317D301135838003368F80093573300F6
:103A00002DBFB309DF413309E34033363F013309AA
:103A1000C9409317890063CA072033E82901E315D9
:103A200008CC8147014431BFB385984063810414B9
:103A3000B70680009307F07F3363D3006381F820DB
:103A40009307800363CCB722FD4763C9B72C930764
:103A500000028D8F3318F300B356BF00B317FF0079
:103A60003368D800B339F0003353B30033683801FA
:103A70001A97B309D801B3B7D9013386E700C684D2
:103A8000CDB5E31108F2131835009317D30113587D
:103A900038003368F8009357330011B737058000BA
:103AA0009307F07F3363A300E392F8E00E06131848
:103AB000D7010D823368C800935737003684C5B5E7
:103AC00005179306000233D7E700630AD600930672
:103AD00000043386C6403396C700B3E9C9003338C3
:103AE0003001B369E800014681441DBDB309DF011F
:103AF000B307E30033BFE9013386E701931786007C
:103B00008544E3DF07E08944B70780FFFD17F18FA5
:103B100013D7190013F81900336807019399F701B7
:103B2000B3E9090113D6170011B9138805FE9307ED
:103B30000002B3590701638AF50093070004B385B7
:103B4000B7403317B700B3EEEE003338D001336817
:103B50003801A5BE3363E30133386000B3890E41F9
:103B6000B3B73E013306F740C6843684ADB6B367BB
:103B7000E301638707189387F5FF638C071C93069F
:103B8000F07F638ED50ABE8565BD930700028D8FD9
:103B9000B3D9BE003318F700B39EFE003368380176
:103BA0003357B700B339D001336838013A9365B35E
:103BB000131836009317D7011358380033E807015C
:103BC00036849357370095BBBDCB3367D701E31BD2
:103BD00007DC0E051318D3010D813368A800935735
:103BE000330075BBE30F08E2131836009317D701B3
:103BF000135838003368F80036849357370091B370
:103C0000B309DF41B307E340333F3F013386E74168
:103C10008544D1B4131835009316D30113583800D6
:103C200033E80601935733009DBBB389EE41330659
:103C3000674033B93E0133092641368475B40E0618
:103C40001318D7010D823368C8009357370081BB22
:103C5000B309DF41B307E34033363F013386C74042
:103C60009317860063D7070AB389EE41B30767400D
:103C7000B3BE3E013386D7413684C9B43363E30112
:103C800033386000FDB3138805FE93070002B35973
:103C90000301638AF50093070004B385B74033132B
:103CA000B300336F6F003338E001336838017DB5FE
:103CB000B389EE41B3076740B3BE3E013386D741B7
:103CC0003684854409BC131836009317D70113585E
:103CD00038003368F80093573700A5B1B309DF0106
:103CE000B307E30033BFE9013386E701931786008A
:103CF000E3D807C2B70780FFFD177D8E85440DB15D
:103D00000E061318D7010D823368C8009357370089
:103D10002DB133E8C900E30608D019B1138805FEB8
:103D200093070002B3590301638AF5009307000467
:103D3000B385B7403313B300336F6F003338E001FE
:103D4000336838013DB301441307F07FB70708001B
:103D50002DBCB309DF01B307E300B3BED90133863D
:103D6000D70169BB797122D4135475014ECE52CC60
:103D70009319950006D626D24AD056CA5AC813744B
:103D8000F40F93D99900135AF50169C49307F00F02
:103D90006308F40E9397390037070004B3E9E7008E
:103DA000130414F88144014B13D77501939A9500BD
:103DB0001377F70F93DA9A0013D9F50145CF9307DC
:103DC000F00F630CF7028E0A130717F8B707000409
:103DD000B3EAFA003A94014633452A01BD47AA8660
:103DE0009305140063E09710174700001307078737
:103DF0008A04BA949C40BA9782871304F40F63969E
:103E00000A0C93E424000946C1BF01451307F00FD3
:103E1000B7074000B2502254A6075E07A5837E056F
:103E2000D98F92540259F249624AD24A424B5D8D6F
:103E300045618280CA86D689328B8947630FFB0829
:103E40008D47E304FBFC854736856310FB1A014769
:103E50008147C9B7639D090413D77501939A9500EB
:103E60001377F70F91440144054B93DA9A0013D965
:103E7000F50131F7639D0A0093E414000546A9BFDC
:103E800063920902A1441304F00F094B31BF568518
:103E900079299307B5FF098CB39AFA001304A4F8A3
:103EA00001461DBFB1441304F00F0D4BF5BD4E8507
:103EB0002EC6B5299307B5FF1304A0F8B399F900EE
:103EC000098C8144014BB245C5B593E434000D46DD
:103ED00021B78947D286E315FBF636851307F00F25
:103EE00081470DBF41639306F3FF13D6090193D8B1
:103EF0000A01B3F7D900B3FADA0033885703B3895C
:103F0000F80213570801B30A5603D6994E973306A1
:103F10001603637357011A96C167FD17B376F7004E
:103F20003378F800C206C29693996600935707014A
:103F3000B3393001E982B2979A07B3E6D900B3E901
:103F4000D7009397490063D9070013D7190093F757
:103F50001900B369F7002E841307F4076350E004D7
:103F600093F7790099C793F7F90091466383D700D7
:103F700091099397490063D90700B70700F8FD1727
:103F8000B3F9F900130704089307E00F63CBE704C4
:103F900093976900A5831377F70FADBD8547B38667
:103FA000E74011C76D4601478147E345D6E6130751
:103FB000E4093397E9003337E000B3D7D900D98F4C
:103FC00013F7770019C713F7F70091466303D7007B
:103FD000910713975700634C07009A07A583014781
:103FE00015BD1307F00F814735B52E84B5B70547CA
:103FF00081470DB513577501370680009307F6FF0B
:104000001377F70F9305E007B3F6A7009357F50171
:10401000014563F4E50099C3828082809307E0093B
:104020007D55E3EBE7FE93055009B3E7C60063D780
:10403000E5001307A7F63395E700828013056009B2
:104040003307E54033D5E7008280411106C622C41C
:1040500015CD2A84E92C9307E0093387A7409307FD
:10406000600963C0E704A1469377F70F63D5A60004
:1040700061153314A40026042580260413559400EA
:10408000B2402244DE075D8D410182800144260456
:1040900013559400B24022448147DE075D8D4101F3
:1040A00082809307900963DDE7009307B501954689
:1040B000B317F400898EB337F0003354D4005D8C0D
:1040C000954763D6A7009307B5FF3314F400B706EE
:1040D00000FCFD16937774003376D40085C3937784
:1040E000F4009145638CB70011069317560063D70F
:1040F00007009307F009758E3387A74013146600F5
:104100002580260413559400B24022449377F70F7C
:10411000DE075D8D41018280135775011377F70F1C
:1041200041119307170022C426C21314950006C636
:1041300093F7E70F25809354F50185C79357340013
:10414000130707387604B2075207B1831395F401B9
:10415000D98FC98FB240228522449244BE85410145
:10416000828005EB39C42285D922A94763C6A704FA
:104170002D47098F930755013357E4003314F4009A
:104180009317C70013079038098FB1831377F77F10
:104190005DBF01CC13573400B7070800D98FB207B1
:1041A0007604B1831307F07F79BF1307F07F81474F
:1041B00059BF0147814741BF130755FF3317E4003B
:1041C00001447DBF93D645019397C50093F6F67FD2
:1041D000B183138616008E071357D5011376E67F39
:1041E000FD815D8F9318350035CE138806C893077F
:1041F000E00F63DD07018147139597009306F00FE9
:10420000DE062581FE05558D4D8D82806355000BA0
:10421000931765000E07B337F000D98F93D8D801F4
:10422000B3E7170113F777006301071013F7F700DF
:1042300091466303D7009107370700047D8F75C748
:10424000130718001306F00F9376F70FE305C7FA6C
:104250009A07A58313959700DE062581FE05558DE7
:104260004D8D8280B367170199EE85CF95479A07E8
:10427000A5831395970093F6F60FDE062581FE05BC
:10428000558D4D8D8280A5DBB707400013959700B3
:104290009306F00FDE0681452581FE05558D4D8D77
:1042A00082808147139597008146DE062581FE05B1
:1042B000558D4D8D8280A5576348F804F947370620
:1042C0008000B38707417D45598E6351F5047957C6
:1042D00033070741130500023357E6006388A70040
:1042E000938626CAB316D600B3E8D800B3371001B8
:1042F000D98F13F77700014815FB139757008546B0
:10430000E34807F48146A5B781468DB7938626C852
:104310003397D8003337E000B316D600B3D8F8008F
:10432000B367D700B3E7F800E9B7C28689B7C167BA
:10433000637CF5029307F00F1307000263EBA700FD
:104340009737000093878735AA9788233305A740BE
:10435000828021819737000093874734AA9788236A
:1043600061473305A7408280B7070001636DF50000
:1043700061819737000093876732AA978823214786
:104380003305A7408280418197370000938707312A
:10439000AA97882341473305A7408280B3C7A50069
:1043A0008D8B3307C50081E78D4763EDC700AA8772
:1043B000637EE508942185078505A38FD7FEE3EB8F
:1043C000E7FE828093763500AA8789CA9421850703
:1043D0008505A38FD7FE93F63700C5BF9376C7FF39
:1043E000138606FE63F0C70683A3050083A245007B
:1043F00083AF850003AFC50083AE050103AE450161
:1044000003A3850183A8C5019385450223A07700F6
:1044100003A8C5FF23A2570023A4F70123A6E701A1
:1044200023A8D70123AAC70123AC670023AE170135
:104430009387470223AE07FF75B790419107910517
:1044400023AEC7FEE3EBD7FEE3E6E7F682803971E1
:104450003EDA2ED232D436D63AD842DC46DE9387C4
:10446000018322CC804326CA06CEAA8409C41C4CF0
:1044700099E322850D2B0C4454102686228536C6DE
:10448000EF00D016F2406244D244216182800111D3
:1044900026CA4AC806CE22CC4EC652C4AA842E8949
:1044A00001C51C4D91E301239C4C804499E3268572
:1044B000DD299737000093876730631BF402C04003
:1044C0005E24A18BB1C71C48A1C7FD59294A1C44D1
:1044D00083450900FD17B1E91CC463DD0706228688
:1044E000A94526857D28FD576308F502294535A095
:1044F000973700009387872E6314F4008044C9B770
:104500009737000093878729E31CF4FAC0444DBF16
:10451000A2852685A92255D97D55F2406244D24410
:104520004249B249224A056182801CC4050963D709
:104530000700184C63CAE700638845011C401387D5
:10454000170018C08CA361B7228626859928E3102E
:1045500035F9D9B71C401387170018C0294798A30D
:1045600071B793870183AA8588436FF05FF21821A2
:104570009C2101E791C301458280814739A01C310C
:1045800013071500EDDB81473A853387F5001823C3
:1045900065D7B306F5009422E393E6FE85072A87E4
:1045A000E5B7011122CC26CA4AC806CE4EC6AA8457
:1045B0002E89328401C51C4D91E3F5269737000002
:1045C0009387C71F6317F406C0401C4C1CC45E24AD
:1045D000A18BC1C31C48B5CF1C4808409379F90F83
:1045E0001379F90F1D8D5C486346F500A285268579
:1045F000692C25E51C440505FD171CC41C401387C8
:10460000170018C0238037015C486388A7005E2428
:10461000858B81CBA9476316F900A2852685B52431
:104620000DEDF24062444A85D2444249B2490561E7
:104630008280973700009387671A6314F4008044E0
:1046400069B79737000093876715E310F4F8C04403
:10465000ADBFA2852685212041D17D59D9B7411111
:104660009387018326C2844322C44AC006C62A898E
:104670002E8489C49C4C99E3268535269737000003
:104680009387C713631BF402C0400317C40093173A
:104690000701C18393F68700ADEA93F6070195EE13
:1046A000A5472320F900136707045AA47D55B2409B
:1046B0002244924402494101828097370000938747
:1046C000E7116314F4008044C9B79737000093875B
:1046D000E70CE31CF4FAC0444DBF918B9DC34C58CA
:1046E00089C9930744046384F5004A85292B232A4A
:1046F00004025E242322040093F7B7FD5EA41C4845
:104700001CC05E2493E787005EA41C4899EB5E24DE
:104710001307002093F707286385E700A2854A85E1
:1047200091295E2413F717001DC35C48232404005D
:10473000B307F0401CCC1C480145B5FB8317C400EF
:1047400013F707082DD793E707045EA485B7898B75
:10475000014791E3584818C4F9BFDE25011122CC66
:1047600026CA06CE4AC84EC613F78700AA842E84EE
:1047700079EBD841634DE000B841634AE000014560
:10478000F2406244D2444249B249056182805854A1
:104790007DD703A904009396370123A0040063DBAF
:1047A000060670485E24918B99C75C401D8E5C584C
:1047B00099C33C401D8E5C540C50814626858297DF
:1047C000FD575A24631DF5009440F54763E8D7066A
:1047D000B70740208507B3D7D700858BA5C31C48F2
:1047E000232204001CC09317370163D80700FD572C
:1047F0006314F5009C4091E368C84C5823A0240141
:10480000BDDD930744046384F5002685ED2E232A3D
:104810000402B5B70C500146854626850297FD5720
:104820002A86E311F5F89C40B5DF75476385E700FC
:1048300059476393E70423A0240191B71367070442
:104840005AA47D5535BF83A90501E38A09F203A95E
:1048500005008D8B23A0350133093941014791E3D0
:10486000D84918C4E35D20F11C540C50CA864E860A
:10487000268582976347A0005E2493E707045EA421
:10488000C9B7AA993309A940F1BF9C49A5C3011131
:1048900022CC06CE2A8411C51C4D81E72EC62122CA
:1048A000B24597370000938767F1639CF5004C4051
:1048B0008397C5009DC722856244F24005616FF071
:1048C000DFE997370000938767F16394F5000C44A4
:1048D000C5B797370000938767ECE39BF5FC4C4422
:1048E000C1BFF2406244014505618280014582807A
:1048F000411122C406C62A844EA572A523200500B4
:104900002322050023240500232205062328050071
:10491000232A0500232C0500214681451305C505E2
:10492000EFB01F9497170000938787B25CD097175A
:1049300000009387A7B41CD497170000938787B80B
:104940005CD4971700009387E7BA00D01CD8B24018
:1049500022444101828097050000938545F391AA86
:10496000411126C2130680069384F5FFB384C40266
:104970004AC02E8922C406C6938544070D2E2A8478
:1049800001CD2320050023222501310508C413860B
:1049900084068145EFB0DF8C2285B24022449244E8
:1049A0000249410182801C4DA5E7411106C622C47F
:1049B00097070000938767FA1CD5938741839C4330
:1049C0002324050423260504232805046314F50085
:1049D00085471CCD2A84352848C022851D2808C457
:1049E0002285052848C4484001469145EFF05FF014
:1049F00008440546A545EFF0BFEF48440946C945C0
:104A0000EFF01FEF85471CCCB24022444101828069
:104A1000828041119387418326C284434AC006C6DF
:104A20009C4C22C42A8981E72685EFF0DFF7938426
:104A300084048044DC40FD1763D607009C40B9CF56
:104A40008440C5BF0317C40039E7C1778507232217
:104A500004062320040023220400232404005CC451
:104A600023280400232A0400232C04002146814526
:104A70001305C405EFB0CFFE232A0402232C040241
:104A800023240404232604042285B24022449244B1
:104A90000249410182801304840671BF91454A8511
:104AA000EFF01FEC88C049FDB1472320F900014415
:104AB000E1BF797122D44AD052CC56CA5AC85EC6D8
:104AC00006D626D24ECE2A8AAE8A13048504014920
:104AD000054BFD5B09ECB25022544A8592540259B1
:104AE000F249624AD24A424BB24B45618280044449
:104AF00083294400FD1963D409000040E1BFDE248E
:104B0000637BFB008397E40063877701A68552856A
:104B1000829A3369A90093848406E9BF1971A6DAE1
:104B2000AE848395E500A2DC86DE328463DB05007B
:104B3000DE2423A0060093F7070885E793070040CB
:104B40001DA0300836C6EF007020B246E34205FED5
:104B50007247BD67F98F7977BA9793B717009CC2F0
:104B6000F1BF930700041CC0F6506654D6540145AB
:104B700009618280DE25011122CC06CE26CA4AC8F0
:104B8000898B2E8489CF930774041CC01CC8854769
:104B90005CC8F2406244D24442490561828074009C
:104BA0003000AA84EFF09FF7A2452A8926850122CA
:104BB00019E98317C40013F7072061FFF19B93E7FE
:104BC00027005EA4C9B797070000938707D99CD434
:104BD0005E2408C008C893E707085EA4A2475CC823
:104BE000B24781CF8315E4002685EF00D01811C5A8
:104BF0005E24F19B93E717005EA45E243369F900FD
:104C00002316240179B7DDC183A7C5FF411122C452
:104C100006C626C21384C5FF63D307003E94AA8448
:104C2000EF00301C9387C1889C4381EF232204004E
:104C300023A681882244B2402685924441016F0018
:104C4000701A637EF40014403307D4006396E700C3
:104C50009843DC43369718C05CC0D9BFBA87D843A5
:104C600019C3E37DE4FE94433386D700631F8600B7
:104C70001040B29694C33386D700E31DC7FA1043A1
:104C80005843B29694C3D8C375B76375C400B1478F
:104C90009CC04DB71040B306C4006316D700144340
:104CA0005843B29614C058C0C0C369B7828001117E
:104CB00026CA93843500F19806CE22CC4AC84EC647
:104CC000A104B14763F3F404B14463E2B4042A8954
:104CD000EF0030119387C18898433A8439E0938775
:104CE00001899C4391E781454A85252F23A8A18806
:104CF000A6854A853D27FD5963193507B14723200D
:104D0000F9004A85EF00100E29A0E3D004FCB1475A
:104D10001CC10145F2406244D2444249B249056196
:104D200082801C40858F63CF0702AD4663F6F60094
:104D30001CC03E9404C031A05C406313870223A6CC
:104D4000F1884A85EF00100A1305B4009307440068
:104D500061993307F5405DDF3A94898F1CC05DBFD0
:104D60005CC3C5B72287404095BF130435007198D6
:104D7000E30285FCB305A4404A856525E31C35FBA9
:104D8000B5BF1C46FD171CC663DA0700184E63C585
:104D9000E700A9476394F5006FF0BF801C422E85A1
:104DA0001387170018C28CA38280011122CC26CA57
:104DB0004AC84EC652C406CE2A89AE893284B3048C
:104DC000D6007D5A63149400014509A80C204E8634
:104DD0004A85EFF01FFB0504E31645FFF2406244ED
:104DE000D2444249B249224A05618280357122CDBE
:104DF00026CB4AC94EC706CF52C556C35AC1DEDEBE
:104E0000E2DCE6DAAA89AE843289368409C51C4D13
:104E100099E3EFF05FB9973700009387279A63987B
:104E2000F40C83A44900DE24A18BE5C79C48F5C39C
:104E300093070002A304F1029307000302D22305A3
:104E4000F10222C6930B5002973A0000938A0A9B04
:104E5000054C294B4A841C2099C3639F770DB30CE2
:104E60002441638E0C00E6864A86A6854E85EFF0C7
:104E7000DFF3FD57630FF51C9256E69636D21C20E1
:104E80006389071CFD571309140002C802CE3ECAED
:104E900002CCA309010482D4834509001546568536
:104EA0002D2713041900C24751E913F7070109C759
:104EB00013070002A309E10413F7870009C71307CA
:104EC000B002A309E104834609001307A002638F1F
:104ED000E606F2474A8481462546182093051400C9
:104EE000130707FD6377E60AB5CA3ECE85A8973754
:104EF00000009387A78E6395F40083A4890025B7EB
:104F00009737000093878789E39FF4F083A4C90053
:104F100019BFA6854E85EFF08FF419D97D55FA405B
:104F20006A44DA444A49BA492A4A9A4A0A4BF65B21
:104F3000665CD65C0D618280050431BF3305554146
:104F40003315AC00C98F3EC82289B9B732479306E2
:104F50004700184336C6634707023ACE1820930726
:104F6000E002631DF70418309307A002631BF702E9
:104F7000B2470904138747009C433AC663C107023E
:104F80003ECA2DA83307E04093E727003ACE3EC83B
:104F9000F1B7B387670385462E84BA973DBFFD57A7
:104FA000C5B7050402CA81468147254618209305E6
:104FB0001400130707FD6374E606F9F20C200D4692
:104FC0001735000013050584092511CD973700001A
:104FD000938747831D8D93070004B397A70042452D
:104FE00005045D8D2AC80C201946173500001305ED
:104FF000A581130914002304B102C12B35C197B751
:10500000FFFF9387270095E74247B24713770710C2
:1050100009CF91073EC69257D2973ED225BDB3879E
:10502000670385462E84BA9751B79D07E19BA10778
:10503000D5B7780097060000938666D726860C08B9
:105040004E8597000000E7000000FD572A8AE31410
:10505000F5FCDE2493F70704E39207EC1255C1B583
:10506000780097060000938686D426860C084E8525
:10507000012AE1BF797156CA9C49BA8A984522D45F
:1050800026D24ECE52CC06D64AD05AC85EC6AA897F
:105090002E84B284368A63D3E700BA879CC0034764
:1050A000340419C385079CC01C4093F7070281C7CD
:1050B0009C4089079CC00329040013796900631A86
:1050C0000900130B9401FD5B5C449840998F634C7D
:1050D000F9041C408346340493F70702B336D0002A
:1050E000A5EB13063404D2854E85829AFD576303DF
:1050F000F5041C4011469840998B544481446397B1
:10510000C700B384E64063D3040081441C441848BC
:105110006354F700998FBE94014969047D5B6398DD
:105120002405014509A885465A86D2854E85829A6E
:10513000631E75017D55B250225492540259F249B2
:10514000624AD24A424BB24B456182800509ADBFEB
:105150003307D40013060003A301C7040347540414
:1051600093871600A2978906A381E7049DBF854611
:105170002286D2854E85829AE30E65FB050945B7E6
:10518000797122D426D24AD04ECE06D652CC56CAF7
:105190005AC8B689942D930790063289AA842E8422
:1051A00013863504638DF60263E2D7069307800504
:1051B0006386F61863EDD700638E062093073004EC
:1051C000638EF60A930A24042301D404C9A093072A
:1051D00030066385F60A93074006E395F6FE1C4009
:1051E000084393F6070893054500C5C61C410CC348
:1051F00063D807001307D002B307F040A301E4040B
:10520000972600009386C660294765A89307000784
:105210006382F61663E5D7029307E0066389F61802
:105220009307F006E390F6FA0C401C4313F80508C8
:10523000138547006307080608C39C4385A89307A6
:105240005007E383F6FE930780076389F6129307FE
:105250003007E399F6F61C43D04181459386470019
:1052600014C383AA070056858D2601C53305554111
:1052700048C05C401CC8A301040461A81C43930AF5
:105280002404938647009C4314C32301F4048547F8
:10529000D5B793F607041C410CC3B9DAC207C1871E
:1052A00081BF93F5050408C3C9D99E231307F006EF
:1052B0006387E60E97260000938686552947A3014B
:1052C00004044C400CC463C5050008406D9908C037
:1052D00099E3B28A89CDB28AB3F5E702FD1AB69591
:1052E0008C212380BA00B3D5E70263F0E70CA14715
:1052F000631EF7001C40858B91CB58401C4863C748
:10530000E70093070003A38FFAFEFD1A3306564108
:1053100010C84E87CA867000A2852685EFF09FD5FB
:105320007D5A631D450B7D55B2502254925402594B
:10533000F249624AD24A424B45618280A382D50437
:10534000972600009386C64C0C40084313F80508C6
:105350001C411105630D080208C313F7150001C7AE
:1053600093E505020CC04147B9FB0C4093F5F5FDF0
:105370000CC0B1B79C4193E707029CC1930780071B
:10538000A302F404972600009386C64975BF13F85C
:10539000050408C3E30308FCC207C1837DBF972649
:1053A00000009386E646214719BFAE8735B7944182
:1053B0001C43CC4913F80608138547006306080010
:1053C00008C39C438CC339A008C393F606049C43CE
:1053D000F5DA8EA323280400B28A25BF1448568626
:1053E000CA8526858299E30045F51C40898B8DE7A7
:1053F000B2474844E35AF5F23E853DB785465686A6
:10540000CA8526858299E30065F3050A5C44324724
:10541000998FE345FAFEE9BF014A930A94017D5B47
:10542000F5B7411122C42A842E8523AA01A206C6FB
:10543000EFC07FCFFD576317F500938741A39C43CF
:1054400091C31CC0B240224441018280411122C458
:105450002E848395E50006C67922634905007C48C1
:10546000AA977CC8B2402244410182805E247D77A5
:105470007D17F98F5EA4FDB7DE25011122CC26CA67
:105480004AC84EC606CE93F70710AA842E843289E6
:10549000B68991C78395E5008946014609225E24B5
:1054A0007D777D17F98F5EA48315E4006244F24096
:1054B000CE864A86B24942492685D244056125A84E
:1054C000411122C42E848395E50006C6C928FD57E4
:1054D0005A24631AF500FD77FD17F98F5EA4B240D8
:1054E0002244410182808567D98F5EA468C8C5BF08
:1054F0008395E50005A8411122C42A842E85B28532
:10550000368623AA01A206C6EFC01FBEFD57631749
:10551000F500938741A39C4391C31CC0B240224431
:1055200041018280411122C42A842E8523AA01A22E
:1055300006C6C520FD576317F500938741A39C431A
:1055400091C31CC0B240224441018280411122C457
:105550002A842E85B28523AA01A206C6C920FD573A
:105560006317F500938741A39C4391C31CC0B240CD
:10557000224441018280411122C42A842E8523AA1B
:1055800001A206C65D20FD576317F500938741A36E
:105590009C4391C31CC0B24022444101828041110E
:1055A00022C42A842E85B285368623AA01A206C685
:1055B0005920FD576317F500938741A39C4391C37E
:1055C0001CC0B24022444101828093F5F50F2A9617
:1055D0006314C500014582801C21E38EB7FE0505DA
:1055E000C5BF82808280411122C42A842E85B28563
:1055F000368623AA01A206C6A920FD576317F50027
:10560000938741A39C4391C31CC0B24022444101F3
:1056100082809307800523AAF1A27D55828093079B
:10562000800523AAF1A27D5582809307800523AAD5
:10563000F1A2014582809307800523AAF1A27D553E
:1056400082809307800523AAF1A27D558280000005
:105650000D0A54686520557365722069733A636159
:1056600072645F300D0000000D0A546865205573A8
:1056700065722069733A636172645F310D000000E6
:105680000D0A54686520557365722069733A636129
:1056900072645F320D0000000D0A54686520557376
:1056A00065722069733A636172645F330D000000B4
:1056B0000D0A54686520557365722069733A6361F9
:1056C00072645F340D000000506364417574685368
:1056D0007461746528412920737563636573730D64
:1056E0000000000050636441757468537461746510
:1056F000284129206661696C65640D00506364412E
:1057000075746853746174652842292073756363E6
:105710006573730D00000000506364417574685335
:1057200074617465284229206661696C65640D00A6
:10573000444154413A000000253032780000000016
:1057400050636452656164282920737563636573CF
:10575000730D0000506364526561642829206661FE
:10576000696C65640D000000577269746520746887
:1057700065206361726420616674657220312073F4
:1057800065636F6E642E20446F206E6F74206D6FA2
:1057900076652074686520636172642121210D00A3
:1057A0005063645772697465282920737563636553
:1057B00073730D00506364577269746528292066FD
:1057C00061696C65640D000052433532325F486197
:1057D0006E646C6528292072756E2066696E697327
:1057E0006865642061667465722031207365636F3B
:1057F0006E64210D0000000049443E3E3E25730DBD
:105800000A0000000000000000000000000000008E
:105810000000000000000008080808080808000050
:105820001818000000486C2412000000000000005E
:10583000000000000000002424247F1212127F12B6
:10584000121200000000081C2A2A0A0C1828282A14
:105850002A1C080800000022251515152A58545442
:10586000542200000000000C1212120A76252911A1
:10587000916E000000060604030000000000000016
:105880000000000000402010100808080808081058
:10589000102040000002040808101010101010081A
:1058A000080402000000000008086B1C1C6B0808BC
:1058B0000000000000000000080808087F08080831
:1058C00008000000000000000000000000000000D0
:1058D000060604030000000000000000FE000000B7
:1058E00000000000000000000000000000000000B8
:1058F0000606000000008040402020101008080428
:105900000402020000000018244242424242424285
:1059100024180000000000080E08080808080808FD
:10592000083E00000000003C4242422020100804D3
:10593000427E00000000003C4242201820404042CD
:10594000221C0000000000203028242422227E2077
:10595000207800000000007E0202021A2640404229
:10596000221C0000000000382402021A2642424293
:10597000241800000000007E2222101008080808E9
:10598000080800000000003C424242241824424221
:10599000423C00000000001824424242645840404B
:1059A000241C000000000000000018180000000087
:1059B00018180000000000000000000800000000AF
:1059C0000008080400000040201008040204081029
:1059D000204000000000000000007F0000007F0069
:1059E0000000000000000002040810204020100801
:1059F000040200000000003C42424640201010001B
:105A0000181800000000001C225A555555552D420B
:105A1000221C00000000000808181414243C224234
:105A200042E700000000001F2222221E22424242C2
:105A3000221F00000000007C4242010101010142DE
:105A4000221C00000000001F224242424242424209
:105A5000221F00000000003F4212121E12120242DA
:105A6000423F00000000003F4212121E12120202CA
:105A7000020700000000003C2222010101712122E6
:105A8000221C0000000000E7424242427E424242A5
:105A900042E700000000003E08080808080808085F
:105AA000083E00000000007C1010101010101010B4
:105AB0001010110F0000007722120A0E0A12122293
:105AC0002277000000000007020202020202020226
:105AD000427F000000000077363636362A2A2A2A0E
