:020000040800F2
:100000004038002015030008694700087F3F0008BA
:100010001546000841240008557100080000000042
:10002000000000000000000000000000CB6300089A
:10003000C1240008000000000F0400082166000829
:1000400039030008390300083903000839030008A0
:100050003903000839030008390300083903000890
:100060003903000839030008390300083903000880
:100070003903000839030008390300083903000870
:100080003903000839030008390300083903000860
:100090003903000839030008390300083903000850
:1000A0003903000839030008390300083903000840
:1000B00039030008390300084D66000839030008B9
:1000C0003903000839030008390300083903000820
:1000D00039030008CD6F00085D700008390300087F
:1000E0003903000839030008390300083903000800
:1000F00039030008390300083903000839030008F0
:1001000039030008390300083903000839030008DF
:10011000056A00083903000839030008390300089C
:1001200039030008390300083903000839030008BF
:1001300039030008390300083903000839030008AF
:10014000390300083903000839030008390300089F
:10015000390300083903000839030008390300088F
:10016000390300083903000839030008390300087F
:1001700039030008390300083903000800000000B3
:10018000390300083903000800F002F800F0B2F863
:100190000AA090E8000C82448344AAF10107DA45E2
:1001A00001D100F0A7F8AFF2090EBAE80F0013F082
:1001B000010F18BFFB1A43F00103184750D4000089
:1001C00070D400000A444FF0000C10F8013B13F00B
:1001D000070408BF10F8014B1D1108BF10F8015BA0
:1001E000641E05D010F8016B641E01F8016BF9D193
:1001F00013F0080F1EBF10F8014BAD1C0C1B09D1EA
:100200006D1E58BF01F801CBFAD505E014F8016B5B
:1002100001F8016B6D1EF9D59142D6D370470000ED
:100220000023002400250026103A28BF78C1FBD8FF
:10023000520728BF30C148BF0B6070476E2900F0DD
:100240009182702900F0778366290CF06E81652910
:100250000CF06B8167290CF0688161290CF06781D3
:1002600003681B0A28BF41F08001692900F03E8223
:10027000642900F03B82752900F038826F2900F074
:100280000483782900F04383E92901F0AB81E42954
:1002900001F0A881F52901F0A581EF2900F0018383
:1002A000F82900F042830368DB0928BF41F0800190
:1002B000632901F06281732901F06781E32901F06C
:1002C0008581F32901F08A81002070471FB50CF069
:1002D00022F901F0EDF90400002000210BF036FBBB
:1002E000401C6060002000210BF01AFBE0601FBD85
:1002F00010B510BD01F0E4FA1146FFF7E7FF08F072
:10030000B2FE01F002FB03B4FFF7F2FF03BC07F0FB
:1003100022FC00000C48016841F4700101600B48A8
:1003200080470B480047FEE7FEE7FEE7FEE7FEE7F3
:10033000FEE7FEE7FEE7FEE7FEE7000005480649A8
:10034000044A064B7047000088ED00E0396600085B
:10035000890100084034002040380020403400204B
:10036000EFF3098121B120ED108A42490A6810603B
:100370007047B0EC108A40490A681060704772B646
:1003800002B4EFF3118180F31188BFF34F8FBFF3F5
:100390006F8F084602BC62B6704772B680F3118850
:1003A000BFF34F8FBFF36F8F62B6704772B633489B
:1003B0004FF0FF010170002080F309883048016888
:1003C00081F3088804F03CFF2E48012101702E487B
:1003D0002E490A780270274827490A680260106887
:1003E00080F30988EFF3148040F0020080F3148852
:1003F000BFF36F8FBDE8F04F0FBCBDE8005006BCE7
:1004000062B6084722484FF080510160704772B6CB
:1004100040F29002C2F20002116881F31188BFF32A
:100420004F8FBFF36F8F62B6EFF3098020E9F04F73
:10043000104D29680860744604F002FF1248134901
:100440000A7802700C490A682A6044F0040E1068A9
:10045000B0E8F04F80F3098840F20002C0F20002D9
:1004600072B682F31188BFF34F8FBFF36F8F62B6FE
:1004700070470000C0000020C800002022ED00E00E
:1004800088000020B7000020AF000020B00000204E
:1004900004ED00E0704753EA020C00F069802DE99A
:1004A000F04B4FF00006002B1FBFB3FA83F503FAA1
:1004B00005F424FA05F65E4012BF1643B2FA82F53F
:1004C00002FA05F4C5F120051EBF22FA05FC44EA34
:1004D0000C04203556EA044C4FEA144418BF641C3F
:1004E0004FF000084FF00009904271EB030C39D334
:1004F000002919BFB1FA81F701FA07F6B0FA80F7BF
:1005000000FA07F6C7F120071EBF20FA07FC46EAEB
:100510000C062037B6FBF4FCA7EB0507103F07F0ED
:100520001F0BCBF120060CFA0BFB2CFA06F644BF8E
:10053000B3460026202FA4BF5E464FF0000B5BEAB7
:10054000060C08BF4FF0010B19EB0B09ABFB027C4B
:1005500048EB0608C01B06FB02CC0BFB03CC71EB7F
:100560000C01C1E70B46024641464846BDE8F08B08
:1005700013B54FF000004FF00001AFF30080BDE86D
:100580001C40704710B54C1084EA530404D5404217
:10059000C1F1000138BF491E1B4204D55242C3F1CC
:1005A000000338BF5B1EFFF776FF14F0804F04D0C6
:1005B0004042C1F1000138BF491E14F0004F04D081
:1005C0005242C3F1000338BF5B1E10BD0FB4044993
:1005D00010B503AA029800F0DDFF10BC5DF814FB13
:1005E000700000200FB4044910B503AA029800F06F
:1005F000D1FF10BC5DF814FB700000200FB41CB5D7
:10060000084B06AA7B4469460090059800F093FFCA
:1006100004460020694600F0A1FF20461CBC5DF89E
:1006200014FB0000550F000070B504468569006892
:10063000C10601D5302600E02026C00707D070BDD6
:10064000D4E9012130469047206A401C20626D1E8B
:10065000F6D570BD70B5044685690078C00707D12E
:1006600070BDD4E9012120209047206A401C2062FF
:100670006D1EF6D570BD09684A0501D540B27047B8
:10068000C905FCD500B2704709684A0501D5C0B25A
:100690007047C905FCD580B2704770B50C46054659
:1006A000012A05D02878800600D5EA69002302E0F7
:1006B000012305E05B1C934202D2E05C0028F9D1E3
:1006C000A869E618C01AA861286A18442862284652
:1006D000FFF7AAFF04E0D5E9012114F8010B9047C8
:1006E000B442F8D32846FFF7B5FF70BD2DE9F041BD
:1006F0000646002410687529314616A510D0FFF76C
:10070000BAFF002802DA404213A507E031688A07E1
:1007100001D512A502E0490704D511A5012401E085
:10072000FFF7B2FF00210A2206F1240709E0B0FB1F
:10073000F2FCB0FBF2F302FB1C0030307854184698
:10074000491C0028F3D123462A463046BDE8F04133
:1007500000F006BB000000002D0000002B00000090
:100760002000000011680268006A530501D5087076
:100770000AE0D30501D5088006E0130603D5C217A9
:10078000C1E9000200E00860012070472DE9FF5F29
:1007900015468A460446DFF8AC80F8440027D8E9BD
:1007A00000103E46CDE9001010E03AF816106A46F7
:1007B00002A800F055FF411C07D02178890603D517
:1007C000E269391891420DD80744761C20788006DA
:1007D00002D5E069B84205DDAE42E6DB3AF8160024
:1007E0000028E2D1A069C01BA0612046FFF71CFFD2
:1007F000D8E90010CDE90010002017E03AF81810F1
:100800006A4602A800F02CFFB0F1FF3F81460BD0F2
:1008100000250DF1080B05E0D4E901211BF80500C6
:1008200090476D1C4D45F7D308F10100B04280465A
:10083000E4DB206A384420622046FFF70BFFBDE866
:10084000FF9F00000ACB000030B4002100F1240417
:1008500008E002F00705D208303542EA4372DB08AF
:100860006554491C52EA0305F3D10468002310A221
:10087000250707D5A40600D421B1C46901230DA220
:10088000641EC46130BC00F06BBA10B5044621464A
:100890001068FFF7F9FE02462046BDE8104000232D
:1008A000D2E7D21D22F00701D1E90023CCE70000F6
:1008B0000000000030000000F0B40D46018809057A
:1008C00002D5214C7C4402E01F4C7C440E340021B4
:1008D00000F1240608E002F00F071209E75D42EA82
:1008E00003721B097754491C52EA0307F3D10278BB
:1008F0000023120704D5702D06D009B1022311344C
:100900002246F0BC00F02CBA01231034F8E770B591
:1009100004460D4621461068FFF7B6FE02462946FA
:100920002046BDE870400023C6E7D21D22F0070331
:10093000D3E90023C0E70368126843F02003036093
:100940000823C3610023B7E7E8C900002DE9F05F81
:10095000894604464FF0000ADFF874B1FB44C0F842
:1009600020A02046E1688847002874D0252806D0BA
:10097000D4E901219047206A401C2062F1E700265B
:100980005F462046E16888472028054607DB312D71
:1009900005D2781910F8200C08B10643F1E7B0072A
:1009A00001D526F00406C4F81CA00027C4F818A03E
:1009B0002A2D09D0284607F0C7F838B304EB87087A
:1009C000303DC8F8185019E059F8041B204604EBD4
:1009D00087029161E1688847012F054618D1E069D7
:1009E000002820DA26F020061DE0D8F8180000EBD9
:1009F000800005EB40003038C8F818002046E16858
:100A00008847054607F0A0F80028EED1012F0AD04C
:100A10002E2D08D12046E16888477F1C0546022F0D
:100A200046F02006C4DBA069002803DA404246F005
:100A30000106A061F00701D026F010066C2D0BD046
:100A4000682D09D04C2D39D06A2D35D0742D35D074
:100A50007A2D33D016E038E0E1682F4620468847EB
:100A6000B842054609D16C2F26D04FF48060E1686A
:100A7000064320468847054604E06C2F1AD04FF401
:100A8000807006430DB3A5F14100192802D8203526
:100A900046F400664A462946204626604E46FFF741
:100AA000CDFB80B101280BD0F61D26F0070000F128
:100AB000080956E74020E4E78020D8E70020D6E781
:100AC00006F104094DE7284652E7206ABDE8F09F89
:100AD00078C9000010B5431E13F8014F002CFBD15C
:100AE00005E011F8014B002C03F8014B03D0521E16
:100AF000F7D20021197010BD30B505460B462A46C5
:100B000013F8014B12F8010B08B1A042F8D01CB148
:100B1000002802D06D1CF1E7284630BD40EA0103F1
:100B200010B59B070FD1042A0DD310C808C9121F96
:100B30009C42F8D020BA19BA884201D9012010BDD0
:100B40004FF0FF3010BD1AB1D30703D0521C07E09D
:100B5000002010BD10F8013B11F8014B1B1B07D101
:100B600010F8013B11F8014B1B1B01D1921EF1D172
:100B7000184610BD10B5431C02E010F8011B71B1FE
:100B80008107FAD14FF0013202C88C1A8C4314EA63
:100B9000C211F9D0C01A0A0603D0C01E10BDC01A77
:100BA00010BD0A0401D0801E10BD0902FCD0401EF9
:100BB00010BD032A40F2308010F0030C00F01580C5
:100BC00011F8013BBCF1020F624498BF11F801CB50
:100BD00000F8013B38BF11F8013BA2F1040298BFB5
:100BE00000F801CB38BF00F8013B11F0030300F01F
:100BF0002580083AC0F0088051F8043B083A51F8C3
:100C000004CBA0E80810F5E7121D5CBF51F8043BC7
:100C100040F8043BAFF30080D20724BF11F8013B3A
:100C200011F801CB48BF11F8012B24BF00F8013B9C
:100C300000F801CB48BF00F8012B704710B5203AEF
:100C4000C0F00B80B1E81850203AA0E81850B1E885
:100C50001850A0E81850BFF4F5AF5FEA027C24BF3B
:100C6000B1E81850A0E8185044BF18C918C0BDE832
:100C700010405FEA827C24BF51F8043B40F8043BFB
:100C800008BF7047D20728BF31F8023B48BF11F8B0
:100C9000012B28BF20F8023B48BF00F8012B70470A
:100CA00002F0FF0343EA032242EA024200F002B8E4
:100CB0004FF000020429C0F0128010F0030C00F085
:100CC0001B80CCF1040CBCF1020F18BF00F8012B03
:100CD000A8BF20F8022BA1EB0C0100F00DB85FEAD1
:100CE000C17C24BF00F8012B00F8012B48BF00F89D
:100CF000012B70474FF0000200B51346944696460C
:100D0000203922BFA0E80C50A0E80C50B1F120011E
:100D1000BFF4F7AF090728BFA0E80C5048BF0CC0CC
:100D20005DF804EB890028BF40F8042B08BF70472A
:100D300048BF20F8022B11F0804F18BF00F8012B9C
:100D40007047704770477047704710B500F0B4FCAB
:100D5000006810BD10B5044600F0AEFC046010BD84
:100D60002DE9F0470D4699469246044600F12408C5
:100D70000168880604D5E06921F01001216000E0D7
:100D80000120A84201DD471B00E00027A1697A1974
:100D900002EB0900081AA0612078C00602D42046A0
:100DA000FFF742FC002608E0D4E901211AF806000A
:100DB0009047206A401C761C20624E45F4DB207868
:100DC000C0060AD52046FFF72FFC06E0D4E9012132
:100DD00030209047206A401C2062381EA7F101078E
:100DE000F4DC07E0D4E9012118F805009047206AF7
:100DF000401C2062281EA5F10105F3DC2046FFF708
:100E000029FC2078000602D50220BDE8F0870120E9
:100E1000FBE770472DE9FF4F0C461E464FF0FF37AA
:100E20008BB0D2E90001DDF860800A908A46C1F3F8
:100E30000A5505B93D46002108464FF00000BAF1B9
:100E4000000F00F4400005DA00EB80004FF4400191
:100E500001EA50004FEA9059B9F1010F00DDB9469F
:100E60000A9850EA4A000ED044F61050A5F2FF3519
:100E700045432F14B8F1000F1ED07542291E1EDD08
:100E8000C9F100021CE0B8F1010F4FF0000001D0E1
:100E9000302103E0F24305E02154401CB042FBDB6B
:100EA00030460022002121540B99C1F80880C1E985
:100EB00000200FB0BDE8F08FBD1B6D1CDEE74A4679
:100EC00000DA694206A800F081FC06AB93E807004F
:100ED00003AB83E8070050460A9900F05FFD8DE8F8
:100EE0000700A0F500501F3800900398002D0ADD80
:100EF00042F21F014A460844002303A903906846B2
:100F000000F0C8FF09E0A0F500504A461F38002352
:100F100003A90390684600F0D2FF8DE807000004A3
:100F2000000C03D04FF0FF30410800E01046B8F14C
:100F3000000F03D00022009215461EE0751E05D456
:100F400000F0BEFB303262556D1EF9D5B34601226A
:100F5000084302D000227F1C04E02078302801D111
:100F600000227F1E002A099784D01DE0112D07DA88
:100F700000F0A6FB303262556D1C50EA0102F5D13B
:100F8000084302D00098C8B10EE00021681E05E0B9
:100F9000235C625C63542254401E491C8142F7DB8F
:100FA000AB46A81B401E0990002004F80B000B98CC
:100FB000099AC0F80880C0E9002B7AE711264FF0A3
:100FC000000857E72DE9F04F88460446D21D22F06D
:100FD000070191B0D1E90001CDE90A0106F0BCF8A2
:100FE00002460B98C00F01D02D2007E02068810732
:100FF00001D52B2002E0202101EAC000032A09903C
:1010000001D0072A05DB03464146204600F09EFB3F
:101010000BE12078800601D5E06900E00620B8F1F8
:10102000650F814606D0B8F1660F18D0B8F1670F8A
:1010300070D131E00020B9F1110F009001DB1123D4
:1010400001E009F101030AAA01A90CA8FFF7E2FED9
:10105000DDE90C70002609F10105834647E0012017
:101060004B4600904FF000470AAA01A90CA8FFF7D1
:10107000D1FEDDE90DB00C995D46002610B909F1ED
:1010800001000D18B9EB050003D4C0F1FF3609F1DA
:101090000105A5EB09002BE0B9F1010F01DA4FF0D2
:1010A00001090020B9F1110F0090484601DD11231C
:1010B00000E003460AAA01A90CA8FFF7ABFEDDE990
:1010C0000C704D4600268346207800070AD4AB45B5
:1010D00000DA5D4601A8012D04DD411911F8011C5B
:1010E000302907D04F4502DA17F1040F04DA012046
:1010F00082460FE06D1EEEE7002F02DCED1B3E4442
:1011000003E0781CA84200DD7D1CB81B00F1010A39
:101110004FF000472078000703D4AA4501DB4FF0C9
:10112000FF3A0021B7F1004F0DF143088DF843104D
:1011300024D002202B23002F01DA7F422D230A2105
:10114000021EA0F1010000DC5FB197FBF1FC97FBF0
:10115000F1F201FB1C7C17460CF1300C08F801CDB4
:10116000EEE7A8F1010003702188090501D54521AA
:1011700000E06521A0F1010800F8011C09980FA901
:10118000A1EB0807FF1D00B10120411901EBEA7036
:10119000A1693844081A401EA0612078C00602D414
:1011A0002046FFF741FA099828B1D4E90121904778
:1011B000206A401C20622078C00622D52046FFF716
:1011C00033FA1EE0002E04DBB34502DD01A8805D8A
:1011D00000E03020D4E901219047206A401C2062C1
:1011E000761CAAF101005FEA000A0AD100F060FA59
:1011F000C0680168405CD4E901219047206A401C26
:101200002062281EA5F10105DCDC07E0D4E90121FC
:1012100018F8010B9047206A401C2062381EA7F185
:101220000107F3DC2046FFF715FA032011B041E671
:101230002DE9F04F04460D46D21D22F0070089B07B
:10124000D0E900974846394605F086FF0246F80F78
:1012500001D02D2307E02068810701D52B2302E070
:10126000202101EAC0038DF820300BB1012000E0FD
:101270000020032A824601D0072A04DB29462046A3
:1012800000F064FA3FE12078800601D40D2500E0EB
:10129000E569C7F30A560D2D49DA00214FEA175BBD
:1012A00008464FF00000002F00F4400007DA00EB82
:1012B00080004FF4400100EBD07001EA600081151E
:1012C000012901DD4FF0FF3100224FEA850CBCF10E
:1012D000180F06D31346ACF118004FF08052C240ED
:1012E00003E04FF4801323FA0CF30CF10C0CBCF167
:1012F000200F04D3ACF1200C09FA0CF001E007FA3E
:101300000CF000294FF0004801DD18B90FE00ED1B4
:1013100040450CD319EB02095F4121B9404502D188
:101320009F4329EA0209BBEB175F00D0761C208897
:10133000000502D57B48784402E07A4878441938A1
:1013400008AA302302F80A30037C0AF10101002EBA
:101350000AF1020A53546A4602DC4FF0300101E000
:101360004FF031014FF001088DF8001002D0A6F2C5
:10137000FF3603E059EA470100D06B4E002D02DC36
:101380002178090704D54FF002082E218DF80110AD
:10139000C44600210BE0C7F303433F01C35C491C73
:1013A0006D1E02F80830052908F1010801DA002D48
:1013B000F1DC00210CE000EB1973491C1B786D1E59
:1013C000082902F808304FEA091908F1010801DA82
:1013D000002DF0DC21688B0602D516E0A8F101088B
:1013E000E04505DD02EB080313F8013C302BF5D096
:1013F000B8F1000F09DD02EB080313F8013C2E2BB6
:1014000003D1090701D4A8F10108002D05DD3E2113
:1014100002F808106D1E08F10108407C002E02F849
:10142000080008F1010804DA2D20764202F80800CD
:1014300002E02B2002F808000A214FF47A7086425D
:1014400008F101080BDB96FBF0F3303302F80830AB
:1014500096FBF0F308F1010800FB136601E0642E2F
:101460000CDB642096FBF0F3303302F8083096FB77
:10147000F0F308F1010800FB136601E00A2E06DB19
:1014800096FBF1F0303002F8080008F1010896FBF5
:10149000F1F001FB1060303002F80800A16908F19A
:1014A000010808EB050202EB0A00081AA061207887
:1014B000C00602D42046FFF7B7F8216A08AE01EB58
:1014C0000A00206204E0D4E9012116F8010B9047DC
:1014D000BAF1010AF7D22078C00602D52046FFF7FC
:1014E000A3F86E4609E016F8010B3E280FD0D4E9A8
:1014F00001219047206A401C2062B8F10108F2D215
:101500002046FFF7A7F809B00320BDE8F08F206A56
:101510002844206203E0D4E90121302090476D1E69
:10152000EBD3F8E719C0000002FCFFFF01694A1C79
:1015300002610878704700B58FB0CDE90131002114
:10154000059105497944CDE9031011466846FFF736
:10155000FDF90FB000BD0000E5FFFFFF0A6802F8CB
:10156000010B0A60704710B5436913B1AFF30080F7
:1015700001E0FFF792F8012010BD127800F124017C
:101580000A7000224A700122EDE711684FF0FF3225
:10159000E9E70000074B70B50D467B44FFF7CBFF32
:1015A0000446284600F084F910B14FF0FF3070BDBA
:1015B000204670BDDB73000010B5436913B1AFF373
:1015C000008001E0FFF7E2F8012010BD128800F171
:1015D000240182840022C2840122EDE711684FF0C9
:1015E000FF32E9E72DE9F0418046D21D22F00702E3
:1015F0000025D2E90002F52915A614D0011E72F1CA
:10160000000106DA0023D0EB030063EB020211A60F
:1016100008E0D8F800108B0701D50FA602E04907B3
:1016200001D50EA601251146002408F1240704E087
:1016300000F046F830323A55641C50EA0102F7D106
:101640002B46324621464046BDE8F041FFF788BBB5
:10165000000000002D0000002B0000002000000012
:1016600070B516460C46054600F01AF8036893F864
:101670000101012806D0FF2C0FD8185D68B10120A8
:101680002C7070BDD3F807013246214603F20713D0
:1016900003442846BDE8704018474FF0FF3070BD46
:1016A00010B500F005F8001D10BD00BFA1A200009C
:1016B00000487047FC33002000487047DC330020AE
:1016C00030B5B0F10A024FEA900E71F100034EEA14
:1016D000817EB0EB0E0061EB91014FEA101E4EEAE5
:1016E000017E10EB0E0041EB11114FEA102E4EEA75
:1016F000016E10EB0E0041EB11214FEA104E4EEA45
:10170000014E10EB0E0041EB1141401841F1000178
:101710004FEAD00040EA41704FEAD10110EB80055A
:101720004FEA810444EA907444EB01046D1944EBE0
:101730000404521BA3414FF0000348BF0A3200D5F6
:1017400030BD401C41F1000130BD00002DE9F041E9
:101750001F46044603260168072A01F4006004DBE3
:1017600008B116A505E016A503E008B115A500E02F
:1017700015A521F010002060A069C01EA0610FB166
:10178000401EA0612046FEF74FFF4FB1D4E9012172
:1017900038469047206A401C2062C01C206206E048
:1017A000206AFAE7D4E9012115F8010B9047761E6B
:1017B000F8D22046FEF74EFFBDE8F0814E414E00C4
:1017C0006E616E00494E4600696E66002DE9F04775
:1017D000814616468AB0354878440DC88DE80D001C
:1017E00032487844801C03AC0DC884E80D0041F6F3
:1017F0009B300844372190FBF1F290FBF1F5A5F105
:10180000800501FB12041B3C02D56442012000E06C
:101810000020DFF898A080460027FA44AAF1BE0A0B
:101820000EE0E0070AD03246684607EB4701012385
:101830000AEB810100F043FB8DE8070064107F1C78
:10184000002CEED1194F7F44AE3F19E0E80715D0C8
:1018500007EB04100DF1180A90E80E008AE80E005C
:10186000C068F04201D1981908903246012306A9B8
:1018700003A800F024FB03AB83E807006D10641C91
:10188000002DE3D14FF0010332466946B8F1000F55
:1018900003A802D000F0FEFA01E000F010FBC9E955
:1018A0000001C9F808200AB0BDE8F087A8BC000014
:1018B000007B00F08000704700487047DC33002058
:1018C0007546FFF7F9FFAE4605006946534620F01E
:1018D0000700854618B020B5FEF730FDBDE8204072
:1018E0004FF000064FF000074FF000084FF0000BDC
:1018F00021F00701AC46ACE8C009ACE8C009ACE88F
:10190000C009ACE8C0098D46704710B50446AFF376
:1019100000802046BDE81040FEF7F5BC4FF0013CCA
:1019200050F8042B51F8043B9A4221D1A2EB0C034E
:10193000934313EACC1317D150F8042B51F8043B0E
:101940009A4215D1A2EB0C03934313EACC130BD1AB
:1019500050F8042B51F8043B9A4209D1A2EB0C0336
:10196000934313EACC13DBD04FF00000704700BF65
:10197000D01A01BAB1FA81F101F0180122FA01F08E
:10198000CB40C1F12001DBB2C0B2C01A2CFA01F386
:10199000D11A914311EAC311E6D170475FEA400CB6
:1019A00008BF91F0000F4FEA8C234FEAC12243EAAF
:1019B00051514FEA1C5018BF00F5F0404FEA30007B
:1019C00018BF41F000415FEA6C5C00F02980BCF177
:1019D000FF3F08BF40F080407047130C06BF120461
:1019E0004FF0100C4FF0000C130E04BF12020CF15C
:1019F000080C130F04BF12010CF1040C930F04BF69
:101A000092000CF1020CD30F04BF52000CF1010C38
:101A100011464FF00002A0F11F00A0EB0C00704730
:101A200011F0004F08BF704731F000413FF4D5AFCF
:101A30000B0C06BF09044FF0100C4FF0000C0B0EFE
:101A400004BF09020CF1080C0B0F04BF09010CF1D3
:101A5000040C8B0F04BF89000CF1020CCB0F04BFE8
:101A600049000CF1010CCCF12003A0EB0C0022FA90
:101A700003F302FA0CF241EA030100F1010070479E
:101A800020F07F4C80EA030023F07F47ACEB070394
:101A900003F57C5300F0004003F1FF032DE980497A
:101AA0004FEA154B09B44FEA144325EA0B4E24EADA
:101AB00003480FF2042606EB132749083E785FEA35
:101AC000320203FB0667C7F5000707FB06F64FEA7D
:101AD00054374FEAD64606F1020607FB066CCCF1F6
:101AE000005C4FEA1C472CEA074C07FB06F40CFB92
:101AF00006F504EB15464FEA961634BF00204FF06A
:101B000000404FEAD13706FB07FC4FEA1C4C0CFBA8
:101B10000BF7D21B03FB0CF761EB07010CFB0EF775
:101B2000B0EB074072EB17420CFB08F734BFA2EB97
:101B30000742B2EB074261EB17414FEA0C444FEA10
:101B4000910706FB07FC4FEA1C4C0CFB0BF7B0EBB4
:101B5000C74072EB573203FB0CF734BFA2EBC7420E
:101B6000B2EBC74261EB57310CFB0EF7B0EBC7008D
:101B700072EB57720CFB08F734BFA2EBC702B2EB53
:101B8000C70261EB5771039F4FEA816141EA9211ED
:101B900004EBCC044FEAD1374FEA826206FB07FC24
:101BA00042EA90124FEA80604FEA1C4C0CFB0BF7A4
:101BB000D21B03FB0CF761EB07010CFB0EF7B0EB3C
:101BC000074072EB17420CFB08F734BFA2EB074249
:101BD000B2EB074261EB17414FEA8C554FEA910790
:101BE00004EB9C2406FB07FC4FEA1C4C0CFB0BF798
:101BF000B0EBC74072EB573203FB0CF734BFA2EBDC
:101C0000C742B2EBC74261EB57310CFB0EF7B0EBAA
:101C1000C70072EB57720CFB08F734BFA2EBC70288
:101C2000B2EBC70261EB577115EB4C254FEA8161AE
:101C300041EA92114FEA82624FEAD13742EA9012AA
:101C400006FB07FC44F100044FEA80604FEA1C4C9D
:101C50000CFB0BF7D21B03FB0CF761EB07010CFB32
:101C60000EF7B0EB074072EB17420CFB08F734BFDE
:101C7000A2EB0742B2EB074261EB174115EB1C15D3
:101C80004FEA813141EA92414FEA823242EA904280
:101C90004FEA80304FEA0C7644F1000448EA0343EF
:101CA0004EEA0B484FF0000EB2EB080C71EB030745
:101CB00024BF624639464EEB0E0E4FF0000B001863
:101CC000524149414BEB0B0BB2EB080C71EB030794
:101CD0007BF1000B24BF624639464EEB0E0E4FF0EF
:101CE000000B0018524149414BEB0B0BB2EB080CB7
:101CF00071EB03077BF1000B24BF624639464EEBC4
:101D00000E0E51EA020718BF46F0010616EB0E76DA
:101D100055F1000254F1000103D5BDE88901BDE889
:101D20000088BDE88901BDE80048B619524141EB81
:101D30000101A3F10103704780807F7E7D7C7B7A67
:101D40007978777676757473727171706F6E6E6D67
:101D50006C6C6B6A6A69686867666665646463630D
:101D600062616160605F5F5E5E5D5D5C5C5B5B5A93
:101D70005A59595858575756565555555454535300
:101D800052525251515050504F4F4F4E4E4D4D4D5B
:101D90004C4C4C4B4B4B4A4A4A49494948484847A6
:101DA00047474746464645454544444444434343E4
:101DB0004342424242414141002B9C4630D477008D
:101DC0002BD01CB54FEA370703B44FF010004FF08B
:101DD0001001BAF1000F06D0BCF1000FDCBF40F0DB
:101DE000080040F008014FF000000FBCBDE81040B3
:101DF0000BF1010BBBF1010F08BF5FEA170722BF10
:101E000012F1010211F101014FF0004143F1000311
:101E100000F0004043EA00007047F9D35708D0E7CC
:101E200046EA064613F1400F4FEA16461FDD13F14E
:101E3000200FDFBF16430A46002120335B42BED08D
:101E4000C3F1200746EA064602FA07F74FEA1646AC
:101E500046EA0706C3F1200722FA03F201FA07F760
:101E600021FA03F14FF0000342EA0702A7E746EA2E
:101E7000020646EA06464FEA164646EA0106BCBF97
:101E800046EA0646360C4FF000034FF000024FF0D2
:101E9000000194E72DE9804C9A46934670B491E88E
:101EA000380007C831EA400C48BF34EA430C03D578
:101EB000FFF7E6FDFFF780FFF0BCBDE8008C2DE9E1
:101EC000804C9A46934670B491E8380007C810F0E9
:101ED000804F08BF13F0804F03D100F005F8FFF7E3
:101EE0006BFFF0BCBDE8008C20F07F4780EA030068
:101EF00023F07F4C07EB0C03A3F57C5300F000406C
:101F0000A3F1FE0392F0000F00F0B38095F0000FF4
:101F100000F077802DE901494FEA11404FEA14465D
:101F200021EA004800FB06FC24EA064708FB06F607
:101F300007FB08F800FB07F718EB06484CEB164CBC
:101F40004FEA124B18EB07484FEA15464CEB174087
:101F500022EA0B4E0BFB06FC25EA06470EFB06F6B3
:101F600007FB0EFE0BFB07F71EEB064E4CEB164C69
:101F70004FF000061EEB074E4CEB174B18EB0B080F
:101F800040F1000018EB0E0B58EB000840F1000088
:101F90008F1A4FF000013CBFC943661B14BFB5EB5D
:101FA000040C00213CBFC943F61B4FEA17444EEA1C
:101FB0008E0E27EA04454FEA1C4704FB07622CEA11
:101FC000074C05FB07F70CFB05F604FB0CFC16EBB6
:101FD000074642EB174216EB0C4642EB1C421BEB4A
:101FE000060658EB0202414146EA9E0601D5BDE8CD
:101FF0000189B619524141EB0101A3F10103BDE88A
:1020000001894FEA14454FEA114724EA054621EABF
:10201000074C05FB07F406FB07F70CFB06F105FB75
:102020000CFC11EB074144EB17444FEA124711EB4C
:102030000C4144EB1C4422EA074C05FB07F206FB6B
:1020400007F70CFB06F605FB0CFC16EB074642EB0C
:10205000174216EB0C4642EB1C456A1854F100017E
:1020600048BF7047B619524141EB0101A3F101038A
:10207000704795F0000F37D04FEA11424FEA1447EE
:1020800021EA024624EA074C02FB07F106FB07F7A8
:102090000CFB06F402FB0CFC14EB074441EB17416C
:1020A0004FEA154714EB0C4441EB1C4125EA074C61
:1020B00002FB07F506FB07F70CFB06F602FB0CFC20
:1020C00016EB074645EB174516EB0C4645EB1C4255
:1020D000121951F1000148BF7047B619524141EB46
:1020E0000101A3F1010370474FEA14454FEA11477C
:1020F00024EA054621EA074C05FB07F106FB07F732
:102100000CFB06F24FF0000605FB0CFC12EB07423D
:1021100041EB174112EB0C4251EB1C4148BF704799
:10212000921841EB0101A3F10103704755494A6838
:1021300022F440324A604A6843681A434A6002689F
:10214000526822F4807203685A6002685368026918
:1021500043EA022203685A600268526822F0407221
:1021600003685A600268526883681A4303685A60B9
:102170000268926822F4006203689A6002689268BA
:10218000C3681A4303689A603F4B826A9A4218D028
:102190000268926822F0706203689A60026892682E
:1021A000836A1A4303689A600268926822F0405278
:1021B00003689A6002689268C36A1A4303689A6067
:1021C0000BE00268926822F0706203689A6002680D
:1021D000926822F0405203689A600268926822F086
:1021E000020203689A6002689368027E43EA420230
:1021F00003689A602022125CA2B10268526842F41D
:10220000006203685A600268526822F46042036800
:102210005A6002685368426A521E43EA42320368B7
:102220005A6005E00268526822F4006203685A604E
:102230000268D26A22F470020368DA620268D36A22
:10224000828B521E43EA02520368DA620268926885
:1022500022F4007203689A600268936890F8302054
:1022600043EA422203689A600268926822F480621C
:1022700003689A6002689368426943EA82220368AD
:102280009A607047002301400100000F00B587B03D
:1022900000BF002001901048006840F008000E497F
:1022A00008600846006800F00800019000BF00BF09
:1022B000C81402900120039004900320059002A905
:1022C000064800F091FD00224FF40061034800F041
:1022D00093FE07B000BD000030380240000C024001
:1022E0002DED048B5CE0012000F0ACF82DA004F093
:1022F0000BFF2DA004F0FAFE2CA004F005FF2AA08D
:1023000004F0F4FE2AA004F0FFFE642002F0A8FF0F
:1023100028480078012843D12648407804283FD136
:102320002448807802283BD122480179C07801EB0B
:10233000002000EE100AB8EEC00A1F4880ED000A27
:1023400090ED000ADFED1D0A30EE600A10EE101A63
:1023500008460AF06FF841EC190B9FED190B53EC8E
:10236000102B09F0FBFB41EC180B09F011FB124993
:102370000860084690ED000ABDEEC00A10EE100A93
:1023800009F044FD41EC190B9FED0F0B53EC102BA2
:1023900009F0E4FB41EC180B09F0FAFA0649086071
:1023A000A1E700000104000000000000010000009F
:1023B00001600A00441A00205400002000008744F5
:1023C000B81E85EB51B8CE3F00000000000024404D
:1023D0002CE017480078012821D100201549086019
:1023E00011E0002014490860032002F039FF0120A9
:1023F0001249C1F8AC02032002F032FF0D48006818
:10240000401C0C4908600B4800683228E9DB0A4888
:1024100028380068C0430949C1F8840203E000205D
:102420000549283908600A2002F01AFFD1E70000A8
:102430002F0000204C000020AC824142008041422D
:1024400000BFFEE7014601290DD1002004E0002273
:10245000154B1A54421CD0B2144A12789042F6DB43
:102460000022124B1A7002290DD1002004E0002234
:102470000F4B1A54421CD0B20E4A12789042F6DB2F
:1024800000220C4B1A7004290DD1002004E0002218
:10249000094B1A54421CD0B2084A12789042F6DB1B
:1024A0000022064B1A707047441A00207600002064
:1024B0000C1B002077000020D41B00207800002097
:1024C000704700002AE016A11948FEF715FB1949CC
:1024D000086008460068D8B117A11548FEF70CFB44
:1024E00030B11848006818B90120174908700FE08A
:1024F00016A10F48FEF700FB50B1002011490860FB
:102500005F2003F06AFF0020134908600E4908703D
:102510000220FFF797FF0A2002F0A2FED3E7000097
:102520002B514D54524543563A20302C3000000078
:102530000C1B0020300000207B226964223A2231EB
:10254000227D0000400000202F0000207B226964D3
:10255000223A2230227D00008482414210B570A0D0
:10256000FEF740F84FF4FA7005F0AEFB6EA16F482D
:10257000FEF7C2FA6E4908600FE00220FFF762FF23
:1025800067A0FEF72FF84FF4FA7005F09DFB66A1E7
:102590006648FEF7B1FA6649086065480068002899
:1025A000EBD064A0FEF71EF84FF4FA7005F08CFB38
:1025B00063A0FEF717F84FF4FA7005F085FB64A0EE
:1025C000FEF710F84FF4FA7005F07EFB0220FFF7DB
:1025D00039FF61A0FEF706F84FF4FA7005F074FBBE
:1025E00060A0FDF7FFFF4FF4FA7005F06DFB5FA0F0
:1025F000FDF7F8FF4FF4FA7005F066FB5EA14B485B
:10260000FEF77AFA4A4908600FE00220FFF71AFF46
:1026100056A0FDF7E7FF4FF4FA7005F055FB56A101
:102620004248FEF769FA42490860414800680028BC
:10263000EBD00220FFF706FF53A0FDF7D3FF4FF4C6
:10264000FA7005F041FB53A13848FEF755FA3849B6
:10265000086053A13548FEF74FFA5449086015E069
:102660000220FFF7EFFE48A0FDF7BCFF4FF4FA7021
:1026700005F02AFB47A12D48FEF73EFA2C490860D9
:1026800047A12A48FEF738FA4849086028480068F8
:1026900018B9464800680028E2D00220FFF7D2FEB1
:1026A00043A0FDF79FFF4FF4FA7005F00DFB43A127
:1026B0001E48FEF721FA1E49086043A11B48FEF799
:1026C0001BFA3A49086015E00220FFF7BBFE38A06C
:1026D000FDF788FF4FF4FA7005F0F6FA37A11348BA
:1026E000FEF70AFA1249086037A11048FEF704FA0B
:1026F0002E4908600E48006818B92C480068002868
:10270000E2D00220FFF79EFE32A0FDF76BFF4FF4F0
:10271000FA7005F0D9FA0220FFF794FE10BD000010
:1027200041540D0A000000004F4B00000C1B00201C
:10273000F400002041542B514750533D310D0A0005
:1027400041542B514D54444953433D300D0A000030
:10275000415445300D0A000041542B4353510D0A9A
:10276000000000004154490D0A00000041542B4371
:1027700050494E3F0D0A00002B4350494E3A20521B
:10278000454144590000000041542B435245473F06
:102790000D0A00002B435245473A20302C310000EF
:1027A0002B435245473A20302C350000F8000020DA
:1027B00041542B43475245473F0D0A002B43475294
:1027C00045473A20302C31002B43475245473A20A9
:1027D000302C350041542B434F50533F0D0A00001D
:1027E00086B051E040F6C41002F03AFD0220FFF737
:1027F00029FE2649264803F045FB2648006826495D
:102800000968264A1278264B1B78CDE90232CDE9B9
:1028100004101F481D49CDE900102248D0ED001AD0
:10282000214890ED001A2148D0ED000A204890ED93
:10283000000A204B204A2149214801F035FF214957
:1028400008700846027820A12048FDF7D7FE1F49EE
:102850001FA0FDF7C7FE642002F002FD1848FDF737
:10286000B5FE0A211348FEF745FA1E211248FEF76D
:102870001FFA0A211148FEF73DFA0220FFF7E2FD98
:1028800040F6C41002F0ECFCACE700001800002099
:102890000400002050000020400000202D000020F7
:1028A0003C00002054000020600000205C0000205C
:1028B000580000204803002052030020700300202D
:1028C000800200202C000020256400006C02002003
:1028D00041542B514D5450554245583D302C302CCD
:1028E000302C302C22616564222C25730D0A0000E7
:1028F0001FB504460094012001900720029000209B
:1029000003906946074800F027F8064800F0BAF936
:102910000A21044800F054F9024800F0E3F880B2BC
:1029200004B010BD283300202DE9F04107460C46C5
:102930000025002608E03846FFF7DAFF05440520A9
:1029400005F0C2F9701CC6B2A642F4DBB5FBF4F088
:1029500080B2BDE8F081000038B50246002000904A
:1029600000BF92F83C00012801D1022038BD0120AF
:1029700082F83C0000BF0868092816D91068C068B2
:102980000C780A3C04EB44050724AC40A0431468CF
:10299000E0600C780A3C04EB44048868A0401468AA
:1029A000E46820431468E06013E0106800690C7864
:1029B00004EB44050724AC40A043146820610C7864
:1029C00004EB44048868A040146824692043146818
:1029D00020614868072817D21068406B0C79641E84
:1029E00004EB84051F24AC40A0431468606308888E
:1029F00080B20C79641E04EB8404A0401468646BFC
:102A000020431468606331E048680D2817D21068CD
:102A1000006B0C79E41F04EB84051F24AC40A04339
:102A200014682063088880B20C79E41F04EB8404E6
:102A3000A0401468246B20431468206316E01068DB
:102A4000C06A0C790D3C04EB84051F24AC40A04304
:102A50001468E062088880B20C790D3C04EB8404B1
:102A6000A0401468E46A20431468E062194B1A4CD1
:102A70001068A04206D10868122803D1586840F4B3
:102A800080005860144C1068A0421CD108681028BF
:102A900002D00868112816D1586840F40000586028
:102AA000086810280FD10D4800680D4CB0FBF4F0F9
:102AB00000EB80004000009002E00098401E009073
:102AC00000980028F9D100BF002082F83C0000BF28
:102AD00000BF4BE700230140002001400000002020
:102AE00040420F0001460868C06C704770B504464C
:102AF00000250CB9012070BD1549A06A884200D09C
:102B000000BF206C30B9204600F024F8002060643B
:102B100084F83C00206C00F0100088B9206C20F490
:102B2000885040F0020020642046FFF7FFFA0020A2
:102B30006064206C20F0020040F00100206400E09E
:102B4000012500BF002084F83C0000BF2846D2E7E2
:102B50000100000F10B586B0044600BF00200090B1
:102B60001548006840F48070134908600846006802
:102B700000F48070009000BF00BF00BF00200090F4
:102B80000D481438006840F004000B4914390860FF
:102B90000846006800F00400009000BF00BF01205C
:102BA0000190032002900020039001A9034800F047
:102BB0001BF906B010BD0000443802400008024076
:102BC00070B504460D4600262068806800F48060D9
:102BD000B0F5806F11D12068806800F48070B0F586
:102BE000807F0AD1206C40F02000206400BF0020CC
:102BF00084F83C0000BF012070BD00F009FA0646D1
:102C000012E0681C80B125B100F002FA801BA842D6
:102C10000AD9206C40F00400206400BF002084F832
:102C20003C0000BF0320E7E72068006800F00200D6
:102C30000228E6D16FF0120021680860206C40F491
:102C4000007020642068806800F04050B8B9207E91
:102C5000A8B92068C06A00F4700020B120688068BC
:102C600000F4806058B9206C20F480702064206CDF
:102C700000F4805018B9206C40F00100206400205E
:102C8000BAE7000008B501460020009000BF91F8A7
:102C90003C00012801D1022008BD012081F83C0040
:102CA00000BF0868806800F00100A0B9086880686B
:102CB00040F001000B6898603B4800683B4BB0FB5C
:102CC000F3F000EB4000009002E00098401E0090FE
:102CD00000980028F9D10868806800F001000028F9
:102CE0005FD0086C40F20163984340F48070086440
:102CF0000868406800F4806028B1086C20F4005037
:102D000040F480500864086C00F48050B0F5805F97
:102D100004D1486C20F00600486401E000204864BB
:102D200000BF002081F83C0000BF214A6FF0220064
:102D30000B681860506800F01F0018BB1D4B086836
:102D4000984213D01C4B0868984204D1101D0068AB
:102D500000F01F0050B1194B0868984221D1144867
:102D6000001D006800F01F0010281AD20868806853
:102D700000F0405028B90868806840F080400B6837
:102D800098600EE00B4B086898420AD1086880688A
:102D900000F0405028B90868806840F080400B6817
:102DA0009860002078E700000000002040420F00FB
:102DB0000023014000200140002101400022014089
:102DC000014691F83500022803D080204865012093
:102DD0007047052081F835000868006820F0010080
:102DE0000A6810600020F3E7F8B502460B4600259C
:102DF000002400200021DCE0012606FA01F51E680F
:102E000006EA0504AC4273D15E68022E02D05E6809
:102E1000122E13D1CF0802F1200656F827004E07D4
:102E2000F70E0F26BE40B0434F07FF0E1E69BE408F
:102E30003043CF0802F1200646F8270010684F0003
:102E40000326BE40B0431E7906F003064F00BE4085
:102E5000304310605E68012E08D05E68022E05D0F7
:102E60005E68112E02D05E68122E13D190684F005A
:102E70000326BE40B0434F00DE68BE403043906042
:102E8000506801268E40B0431E79C6F300168E406E
:102E900030435060D0684F000326BE40B0434F001F
:102EA0009E68BE403043D0605E6806F08056B6F142
:102EB000805F7DD100BF00260096404E366846F404
:102EC00080463E4F3E603E46366806F48046009699
:102ED00000BF00BF3A4E8F0856F827008E07370F05
:102EE0000F26BE40B043374EB24202D1002624E046
:102EF0005EE0354EB24201D101261EE0334EB242B1
:102F000001D1022619E0324EB24201D1032614E06B
:102F1000304EB24201D104260FE02F4EB24201D111
:102F200005260AE02D4EB24201D1062605E02C4EC0
:102F3000B24201D1072600E008268F073F0FBE40AE
:102F400030431F4E8F0846F82700264E3068A043B6
:102F50005E6806F48036B6F5803F00D12043214EEE
:102F60003060361D3068A0435E6806F40036B6F562
:102F7000003F00D120431B4E361D3060361D3068A7
:102F8000A0435E6806F48016B6F5801F00D120438A
:102F9000144E08363060361D3068A0435E6806F473
:102FA0000016B6F5001F00D120430E4E0C363060DF
:102FB000491C1029FFF420AFF8BD0000443802403E
:102FC00008380140000002400004024000080240AE
:102FD000000C0240001002400014024000180240A1
:102FE000001C0240003C0140024613690B400BB13B
:102FF000012000E0002070470AB1816101E00B046C
:103000008361704701480068000C7047002004E0AD
:1030100001480068704700007C00002003480068F9
:103020000349097808440149086070477C00002082
:103030008400002010B50A48006840F40070084978
:1030400008600846006840F480600860052000F0D1
:103050007FF80F2000F006F800F02AF8002010BDDD
:10306000003C024070B504460E4800784FF47A7177
:10307000B1FBF0F00C490968B1FBF0F5284600F00F
:10308000DDFB08B1012070BD102C07D200222146C3
:10309000501E00F01EF80548046001E00120F2E730
:1030A0000020F0E7840000200000002080000020C5
:1030B000704701460846002809DB00F01F03012283
:1030C0009A4043099B0003F1E023C3F8002100BFAD
:1030D00070472DE9F05F80460D461646002704F044
:1030E00053F8074639462A46334601F00700C0F137
:1030F000070ABAF1040F02D94FF0040A01E0C0F147
:10310000070AD14600F1040ABAF1070F02D24FF0C4
:10311000000A01E0A0F1030AD4464FF0010A0AFABE
:1031200009FAAAF1010A0AEA020A0AFA0CFA4FF0AD
:10313000010B0BFA0CFBABF1010B0BEA030B4AEA98
:103140000B042146404604F027F8BDE8F09F00003C
:1031500000BF00F00702064B19684FF6FF03194045
:10316000044B0B4343EA0221014B196000BF704737
:103170000CED00E00000FA0570B504460D460CB9F0
:10318000012070BD5848006800F00700A84209D22D
:1031900055490D700846006800F00700A84201D0AC
:1031A0000120EEE7207800F0020002281DD12078EF
:1031B00000F00400042805D14C48006840F4E050B9
:1031C0004A490860207800F00800082805D14748DF
:1031D000006840F46040454908604448006820F0B9
:1031E000F000A168084341490860207800F0010020
:1031F000A8B36068012807D13C4808380068C0F3CC
:103200004040B8B90120BCE76068022802D060687D
:10321000032807D1354808380068C0F3406048B932
:103220000120AEE7314808380068C0F3400008B913
:103230000120A6E72D48006820F0030061680843DC
:103240002A490860FFF7E4FE064609E0FFF7E0FEC2
:10325000801B41F28831884202D9032091E707E0C0
:103260002248006800F00C006168B0EB810FEDD1DE
:103270001D48006800F00700A84209D91A490D70DE
:103280000846006800F00700A84201D0012078E756
:10329000207800F00400042807D11448006820F4C6
:1032A000E050E168084311490860207800F0080008
:1032B000082808D10D48006820F46040216940EAE0
:1032C000C1000A49086000F03DF808490968C1F3E7
:1032D0000311074A515CC840064908600F20FFF7F8
:1032E000C1FE00204DE70000003C024008380240CB
:1032F00032C5000800000020014800687047000047
:103300000000002000B5FFF7F7FF04490968C1F38A
:103310008221034A515CC84000BD000008380240C9
:1033200042C5000800B5FFF7E7FF04490968C1F38B
:103330004231034A515CC84000BD000008380240D9
:1033400042C500082DE9F047002400250026A146CB
:103350002548006800F00C0020B1042805D008289A
:103360003AD105E0DFF8849039E0DFF8849036E068
:103370001D48001F006800F03F041B48001F006844
:1033800000F4800078B11A481749091F0968C1F391
:103390008811A0FB01700146224600233846FDF744
:1033A0007AF805460EE011480F49091F0968C1F374
:1033B0008811A0FB01700146224600233846FDF724
:1033C0006AF805460848001F0068C0F30140401C29
:1033D0004600B5FBF6F902E0DFF8109000BF00BF31
:1033E0004846BDE8F0870000083802400024F40099
:1033F00000127A00F8B504460CB90120F8BD207817
:1034000000F00100002874D0F948006800F00C00BA
:1034100004280DD0F648006800F00C00082813D1ED
:10342000F348001F006800F48000B0F5800F0BD156
:10343000EF4808380068C0F34040002859D0606861
:10344000002856D10120D9E700BF6068B0F5803F61
:1034500008D1E7480838006840F48030E44908396A
:1034600008601EE06068B0F5A02F0DD1E048083874
:10347000006840F48020DE4908390860084600688A
:1034800040F4803008600CE0D9480838006820F427
:103490008030D749083908600846006820F4802049
:1034A000086000BF606890B1FFF7B2FD054606E016
:1034B000FFF7AEFD401B642801D903209EE7CC48EE
:1034C00008380068C0F340400028F1D011E0FFF751
:1034D0009FFD054606E0FFF79BFD401B642801D9D0
:1034E00003208BE7C24808380068C0F3404000283A
:1034F000F1D1207800F0020002285FD1BC480068BA
:1035000000F00C0058B1BA48006800F00C00082820
:103510001CD1B748001F006800F48000B0B9B4485F
:1035200008380068C0F3400020B1E068012801D0ED
:10353000012063E7AE480838006820F0F8002169F0
:1035400040EAC100AA490839086037E0E06800B3E2
:103550000120A8490860FFF75BFD054606E0FFF77C
:1035600057FD401B022801D9032047E7A04808382F
:103570000068C0F340000028F1D09D48083800687A
:1035800020F0F800216940EAC10099490839086033
:1035900014E0002097490860FFF73AFD054606E071
:1035A000FFF736FD401B022801D9032026E790488B
:1035B00008380068C0F340000028F1D1207800F0FE
:1035C000080008282CD16069A8B101208A49086048
:1035D000FFF71EFD054606E0FFF71AFD401B022817
:1035E00001D903200AE782486C300068C0F340002C
:1035F0000028F1D014E000207F490860FFF708FDA3
:10360000054606E0FFF704FD401B022801D9032010
:10361000F4E677486C300068C0F340000028F1D130
:10362000207800F00400042870D10026704838305B
:10363000006800F0805090B900BF002000906C48F6
:103640003830006840F080506949383108600846D9
:10365000006800F08050009000BF00BF012667485E
:10366000006800F48070B0B96448006840F480706D
:1036700062490860FFF7CCFC054606E0FFF7C8FC8E
:10368000401B022801D90320B8E65C48006800F41A
:1036900080700028F2D000BFA068012808D15448EB
:1036A0006830006840F001005149683108601DE051
:1036B000A06805280DD14E486830006840F004002D
:1036C0004B49683108600846006840F00100086016
:1036D0000CE047486830006820F001004449683138
:1036E00008600846006820F00400086000BFA06879
:1036F000A8B1FFF78DFC054609E0FFF789FC401BE8
:1037000041F28831884202D9032077E626E0384822
:1037100068300068C0F340000028EED013E0FFF7E7
:1037200077FC054608E0FFF773FC401B41F2883147
:10373000884201D9032061E62D4868300068C0F353
:1037400040000028EFD1012E07D129483830006809
:1037500020F0805026493831086000BFA069B8B316
:103760002348006800F00C0008285ED0A0690228F9
:1037700046D100201F490866FFF74AFC054606E0CF
:10378000FFF746FC401B022801D9032036E6184803
:1037900008380068C0F340600028F1D1D4E907017F
:1037A0000843616A40EA81110122A06AC2EB50001D
:1037B00041EA00412C20005D41EA00600C49091FEC
:1037C000086001200B490866FFF722FC054607E068
:1037D0002DE0FFF71DFC401B022801D903200DE658
:1037E000034808380068C0F340600028F1D01EE0AC
:1037F0000838024000004742800E474200700040F7
:1038000000200C490866FFF703FC054606E0FFF7B9
:10381000FFFB401B022801D90320EFE506480068A2
:10382000C0F340600028F2D101E00120E6E500206D
:10383000E4E50000000047420038024070B504464D
:103840002546681EB0F1807F01D301200FE0681E7D
:103850004FF0E02148610F214FF0FF3003F09CFC56
:1038600000204FF0E021886107200861002070BD32
:1038700010B504460CB9012010BD94F83D0028B9DC
:10388000002084F83C00204600F00CF8022084F868
:103890003D00211D206802F025FF012084F83D0035
:1038A0000020E9E7704701460868C06840F0010061
:1038B0000B68D8600868806800F00702062A05D007
:1038C0000868006840F001000B681860002070472D
:1038D00070B504460D46164600BF94F83C0001281A
:1038E00001D1022070BD012084F83C0000BF0220FD
:1038F00084F83D0036B1042E1BD0082E31D00C2E9A
:103900005ED145E02946206802F06AFF20688069A0
:1039100040F00800216888612068806920F0040078
:103920002168886120688069296908432168886165
:1039300047E02946206802F08BFF2068806940F448
:103940000060216888612068806920F480602168B7
:10395000886120688069296940EA012021688861BE
:103960002FE02946206802F0B1FF2068C06940F0CE
:1039700008002168C8612068C06920F0040021683F
:10398000C8612068C069296908432168C86118E0D6
:103990002946206802F0D6FF2068C06940F4006024
:1039A0002168C8612068C06920F480602168C8610E
:1039B0002068C069296940EA01202168C86100E0E7
:1039C00000BF00BF012084F83D0000BF002084F844
:1039D0003C0000BF00BF85E710B504460CB90120CC
:1039E00010BD94F83D0028B9002084F83C00204622
:1039F00000F00CF8022084F83D00211D206802F040
:103A000071FE012084F83D000020E9E710B586B082
:103A1000044600BF002000901748006840F00400F2
:103A2000154908600846006800F00400009000BFD7
:103A300000BF00BF002000900F481038006840F021
:103A400002000D49103908600846006800F00200C5
:103A5000009000BF00BF4815019002200290012095
:103A60000390032004900220059001A90348FFF76A
:103A7000BBF906B010BD000040380240000402400F
:103A800070B504460E4601223146206802F096FECB
:103A90000F492068884203D00E492068884201D12E
:103AA000012000E0002028B12068406C40F4004074
:103AB000216848642068806800F00705062D05D05D
:103AC0002068006840F0010021680860002070BD97
:103AD0000000014000040140704700002DE9F0475C
:103AE0000446206805682068C668206847694FF06A
:103AF0000008C14605F00F08B8F1000F0AD105F023
:103B0000200038B106F0200020B1204602F0ECFF82
:103B1000BDE8F087B8F1000F6ED007F0010018B9CA
:103B200006F49070002867D005F0010030B106F46B
:103B3000807018B1E06B40F00100E06305F0040014
:103B400030B107F0010018B1E06B40F00200E06313
:103B500005F0020030B107F0010018B1E06B40F051
:103B60000400E06305F0080030B107F0010018B16F
:103B7000E06B40F00800E063E06B70B305F02000FC
:103B800028B106F0200010B1204602F0ADFF2068F9
:103B90004069C0F38019E06B00F0080010B9B9F17A
:103BA000000F23D0204602F07FFF2068406900F01C
:103BB0004000402816D12068406920F0400021686C
:103BC0004861606B50B11748616B0865606BFFF727
:103BD000F7F810B1606B016D88470CE02046FFF7E5
:103BE0007BFF08E02046FFF777FF04E02046FFF761
:103BF00073FF0020E0638BE705F0800030B106F032
:103C0000800018B1204603F077F981E705F0400005
:103C100030B106F0400018B1204602F055FF77E7BA
:103C200000BF75E7956A000810B504460CB901207D
:103C300010BDA06900B100E000BF94F8390028B9B8
:103C4000002084F83800204600F028F8242084F86A
:103C500039002068C06820F400502168C860204600
:103C600002F096FF2068006920F490402168086106
:103C70002068406920F02A00216848612068C068F7
:103C800040F400502168C8600020E063202084F8E0
:103C9000390084F83A000020CAE7000010B586B069
:103CA00004467849206888424BD100BF002000902C
:103CB0007548006840F001007349086008460068D4
:103CC00000F00100009000BF00BF00BF0020009086
:103CD0006D481430006840F010006B4914310860E2
:103CE0000846006800F01000009000BF00BF4815B3
:103CF00001900220029001200390022004900720EE
:103D0000059001A96148FFF76FF84FF480600190BA
:103D100001A95E48FFF768F82068C06820F04000FD
:103D20002168C8602068C06840F020002168C86031
:103D30002520FFF7BEF9032211462520FFF7C9F918
:103D40009DE05349206888424AD100BF002000907E
:103D50004D48006840F001004B4908600846006883
:103D600000F00100009000BF00BF00BF00200090E5
:103D700045481030006840F4003043491031086075
:103D80000846006800F40030009000BF00BF042027
:103D9000019002200290012003900220049007204D
:103DA000059001A93948FFF71FF80820019001A9E3
:103DB0003648FFF719F82068C06820F040002168F5
:103DC000C8602068C06840F020002168C8602620D4
:103DD000FFF76FF9032211462620FFF77AF94EE02C
:103DE0002C49206888424AD100BF00200090264814
:103DF000006840F00400244908600846006800F0AC
:103E00000400009000BF00BF00BF002000901E48CB
:103E10001030006840F400201B491031086008464B
:103E2000006800F40020009000BF00BF081501905A
:103E300002200290012003900220049008200590A7
:103E400001A91548FEF7D0FF4FF40060019001A9C9
:103E50001148FEF7C9FF2068C06820F040002168C3
:103E6000C8602068C06840F020002168C860342025
:103E7000FFF71FF9032211463420FFF72AF906B095
:103E800010BD000000100140303802400000024028
:103E900000440040004C0040000802402DE9F84377
:103EA00004460D4616461F464FF0000994F83A00A6
:103EB000202860D105B116B90120BDE8F88300BF04
:103EC00094F83800012801D10220F6E7012084F897
:103ED000380000BF0020E063222084F83A00FFF79A
:103EE00097F88146A685E68539E0E08D401EE0859D
:103EF000A068B0F5805F1BD14B46002220212046F0
:103F0000009703F02DF808B10320D6E7A8462069F2
:103F100038B920684068C0F30800A8F80000AD1C5C
:103F20001DE020684068C0B2A8F800006D1C16E0D3
:103F30004B46002220212046009703F011F808B1DB
:103F40000320BAE7206920B92068406805F8010B12
:103F500005E02068406800F07F0005F8010BE08D67
:103F60000028C2D1202084F83A0000BF002084F845
:103F7000380000BFA1E702209FE77047704700BFED
:103F8000FEE7000000B587B000BF002001900D489B
:103F9000006840F004000B4908600846006800F023
:103FA0000400019000BF00BF022002900020039097
:103FB000012004900320059002A90348FEF714FF96
:103FC00007B000BD303802400008024010B504467A
:103FD000012C01D1104908700F48007888B10221E6
:103FE0000E48FFF701F860B90A2003F06DFE0020CB
:103FF0000949087002210948FEF7F6FF48B9012077
:1040000010BD02210548FEF7EFFF012801D102494A
:1040100008700020F4E700000001002000080240C2
:1040200000B587B000BF002001900F48006840F045
:1040300008000D4908600846006800F0080001907B
:1040400000BF00BF032002900120039004900320D2
:10405000059002A90548FEF7C7FE00220321034888
:10406000FEF7CAFF07B000BD30380240000C024026
:104070002DED028B2CE014210A20FEF755FC15498A
:1040800008600846006840F6D271081A0A2190FBC1
:10409000F1F01049086008460068002801DC0020A3
:1040A00008600C48006807F0B1FE41EC180B9FED6A
:1040B0000A0B53EC102B07F0C1FE03D20120084974
:1040C000086002E00020064908600A2001F0C8F8F4
:1040D000D1E70000500000200000000000805640A2
:1040E0008082414210B500200F4908600F480068E7
:1040F00020F440200D4908600846006840F4802004
:10410000086000200A49C1F8A402022003F012FE50
:10411000012005490860022003F00CFE002004493C
:10412000C1F8A80210BD0000A8824142000C024064
:104130000080414200B587B000BF002001901048C8
:10414000006840F008000E4908600846006800F06A
:104150000800019000BF00BF4FF4C0600290012032
:10416000039004900220059002A90648FEF73CFE49
:104170000120054908600549C1F8A80207B000BD43
:1041800030380240000C0240A4824142008041428B
:1041900010B500200F4908600F48006820F4402047
:1041A0000D4908600846006840F48020086001203E
:1041B0000A49C1F8A402022003F0BCFD0120054910
:1041C0000860022003F0B6FD00200449C1F8A802EF
:1041D00010BD0000A8824142000C02400080414214
:1041E00070B5054600241648006820F440201449A4
:1041F0000860084600680860002616E000201149A3
:104200000860022003F096FD01200F49C1F8A802C2
:104210006006040E0B488438006808B1601CC4B204
:10422000012003F087FD701CC6B2082EE6DB15B92D
:10423000FFF7AEFF01E0FFF755FF204670BD00001D
:10424000000C0240A88241420080414270B5044601
:104250001548006820F440201349086008460068AB
:1042600040F480200860002010490860002517E015
:10427000E0090E49091F08606006040E022003F0E1
:1042800059FD01200A49C1F8A802022003F052FD9D
:10429000002006490860022003F04CFD681CC5B2EE
:1042A000082DE5DB70BD0000000C0240A8824142F1
:1042B0000080414210B50F48006820F440200D49AD
:1042C00008600846006840F48020086001200A4920
:1042D00008600A49C1F8A802042003F02BFD002061
:1042E00005490860042003F025FD00200349C1F8BA
:1042F000A80210BD000C0240A4824142008041424D
:1043000010B50F48006820F440200D4908600846A9
:10431000006840F48020086000200A4908600A49CB
:10432000C1F8A402042003F005FD0120054908603E
:10433000042003F0FFFC01200349C1F8A40210BDD2
:10434000000C0240A88241420080414210B5002486
:104350001348006820F440201149086008460068AE
:10436000086001200F49086003F0E4FC01200E49B9
:10437000C1F8A80203F0DEFC07E0601CC4B2FA2C0E
:1043800003DDFFF7BDFF012010BD0648803800683F
:104390000028F2D10349091D086000BFF4E70000BE
:1043A000000C0240A4824142008041422DE9F041CC
:1043B00006460F4614461D46FFF77CFF002141EAE2
:1043C0004601C8B2FFF742FFFFF7C0FF20B1FFF779
:1043D00097FF0120BDE8F0813846FFF737FFFFF770
:1043E000B5FFFFF767FF012101EB4601C8B2FFF7F8
:1043F0002DFFFFF7ABFF0DE0012C04D10020FFF7EC
:10440000EFFE287003E00120FFF7EAFE2870601E2F
:10441000C4B26D1C002CEFD1FFF772FF0020D9E76A
:104420002DE9F04105460E4617469846FFF742FF34
:10443000002141EA4501C8B2FFF708FFFFF786FFF8
:1044400020B1FFF75DFF0120BDE8F0813046FFF7A6
:10445000FDFEFFF77BFF00240CE018F80400FFF7D7
:10446000F5FEFFF773FF18B1FFF74AFF0120EBE7F6
:10447000601CC4B2BC42F0DBFFF742FF0020E3E760
:1044800010B529A0FCF7AEF84FF4FA7003F01CFC4D
:104490002DA13148FCF730FB3049086005E02AA126
:1044A0002D48FCF729FB2D4908602C48006800289E
:1044B000F5D00220FDF7C6FF29A0FCF793F84FF4D2
:1044C000FA7003F001FC32A12348FCF715FB2349E5
:1044D000086005E02EA12048FCF70EFB1F4908608C
:1044E0001E4800680028F5D00220FDF7ABFF2CA085
:1044F000FCF778F84FF4FA7003F0E6FB2EA11648AB
:10450000FCF7FAFA1549086005E02BA11248FCF700
:10451000F3FA12490860114800680028F5D002201B
:10452000FDF790FF10BD000041542B514D544F50EA
:10453000454E3D302C22782E782E782E78222C3144
:104540003838330D0A0000002B514D544F50454E62
:104550003A20302C300000000C1B0020F40000201A
:1045600041542B514D54434F4E4E3D302C226165EA
:10457000645F74657374222C22726F6F74222C2214
:104580007878787878787878787878220D0A0000CA
:104590002B514D54434F4E4E3A20302C302C30008E
:1045A00041542B514D545355423D302C312C2261F6
:1045B0006564222C300D0A002B514D545355423A5C
:1045C00020302C312C302C300000000010B50E486B
:1045D0000E4908604FF48030486000210B4881602C
:1045E000C1600161416101760121C161002180F852
:1045F00020104162064981620021C16280F83010BA
:10460000FEF774FA10BD000000200140283300209E
:104610000100000F00BFFEE73CE000BF1E4A1F493B
:104620001F4804F08FFD0028F8D11B4A1B491C4885
:1046300004F088FD1A4890ED000AF2EE040AB4EE88
:10464000E00AF1EE10FA1BDC90ED000AFAEE040A23
:10465000B4EEE00AF1EE10FA12D3104890ED000A21
:10466000F2EE040AB4EEE00AF1EE10FA08DC90ED86
:10467000000AFAEE040AB4EEE00AF1EE10FA03D2F0
:1046800001200849087002E00020064908700A204D
:1046900000F0E6FDC1E70000600000205C000020A3
:1046A000580000202D0000202DE9FF4F2DED040BB8
:1046B0002DED0C8BF5B00C4615461E46B0EE408A2B
:1046C000F0EE608AB0EE419AF0EE619A0DF5127844
:1046D00098E8000F8C22234952A8FCF7AFFA19EE94
:1046E000900A07F0A7FE41EC1A0B19EE100A07F02A
:1046F000A1FE41EC1B0B18EE900A07F09BFE41EC6B
:104700001C0B18EE100A07F095FE41EC1D0B969954
:104710009798CDE90CABCDE90E108DED0AAB8DED80
:1047200008BB8DED06CB8DED04DB2B46224652A94E
:1047300012A88DE84003FBF761FF12A8FCF71AFAF4
:10474000119012A8FCF716FA87B23A4612A985987A
:10475000FCF72FFAF8B275B0BDEC0C8B08B0BDE8D1
:10476000F08F00009CD40008704710B500F016F8D8
:1047700001F0AAF801F0D6F801F0F6F801F080F89F
:1047800001F040F801F088F901F02CF901F052F93C
:1047900000F044FE00F030F810BD000010B51048E5
:1047A0004FF4807202E0521E002308C0002AFAD1A2
:1047B0000C4B0D4C236023461B6823F0070323603A
:1047C0000A4B196801F04043B3F1404F01D000BFDC
:1047D000FEE70023064C23801023064C236010BD07
:1047E0005C1D00205C2100208800002034EF00E0E8
:1047F0008C000020900000207047000006480078E0
:10480000012808D105480078FF2804D20348007821
:10481000401C024908707047B7000020AD0000201E
:1048200010B500241D480078012835D100BF1020A4
:10483000FBF7A5FD044600BF1948007820B11848D1
:104840000078401E1649087015480078F8B91548D8
:104850000078E0B901F088F913481449097850F854
:1048600021001349086011480078124909788842EC
:104870000DD00F480068806B401C0D4909688863A3
:104880000D480068401C0C490860FBF7BBFD00BFE9
:104890002046FBF782FD00BF10BD0000B7000020DE
:1048A000AD000020AE0000204C260020B00000200B
:1048B000C8000020AF0000209400002010B50024A4
:1048C0000D480078012816D100BF1020FBF757FDD6
:1048D000044600BF0948007840B909480078FF281D
:1048E00004D207480078401C0549087000BF2046E4
:1048F000FBF753FD00BF10BDB7000020AD00002046
:10490000AE00002010B500241748007801282AD1F5
:1049100000BF1020FBF733FD044600BF13480078AA
:10492000E0B913480078A0B111480078401E104942
:1049300008700846007838B900BF2046FBF72DFD07
:1049400000BF01F0D1F80EE000BF2046FBF725FDC7
:1049500009E000BF2046FBF720FD04E000BF204631
:10496000FBF71BFD00BF10BDB7000020AD0000200D
:10497000AE00002070B5054600261248007808B148
:10498000002070BD00BF1020FBF7F9FC064600BFF9
:104990000D480468006820B10B48006840680A4967
:1049A000086000BF3046FBF7F8FC00BF3CB10320B5
:1049B0002070258100206060204600F015FF204611
:1049C000DFE70000AD000020980000202DE9F04155
:1049D00005460E46144600272878032803D00120F8
:1049E0002070BDE8F0813748007810B102202070B7
:1049F000F7E73548007810B10D202070F1E700BFCF
:104A00001020FBF7BCFC074600BF288950B128895D
:104A1000401E288100BF3846FBF7BFFC00BF0020C6
:104A20002070DEE72948006890F8300040F001006F
:104A30002649096881F8300000202449096881F876
:104A4000310022480068C662284600F08FFE00BF91
:104A50003846FBF7A2FC00BF01F046F800BF10206B
:104A6000FBF78DFC074600BF1848006890F831003E
:104A700020B1012809D0022806D102E000202070D0
:104A80000BE00E20207008E000BF29460F480068A8
:104A900000F054FE0A20207000BF00BF00200B4928
:104AA000096881F830000949096881F8310007492F
:104AB0000968C86100BF3846FBF76FFC00BF00BF44
:104AC0008FE70000AD000020AE000020C0000020F5
:104AD00070B5044600252078032801D0012070BD60
:104AE00000BF1020FBF74BFC054600BFA07A70B159
:104AF000002301221946204600F0DEFD00BF2846B3
:104B0000FBF74BFC00BF00F0EFFF0020E7E7208938
:104B10004FF6FF71884209D22089401C208100BFD6
:104B20002846FBF73AFC00BF0020D8E700BF284624
:104B3000FBF733FC00BF3320D1E7000010B50B4872
:104B4000007890B901F010F8094800780949087018
:104B500009480749097850F82100084908600846C3
:104B6000006807490860FBF721FC10BDB700002072
:104B7000B0000020AF0000204C260020C80000201C
:104B8000C000002010B50024022000F069FB00BF27
:104B90001020FBF7F4FB044600BF00200E4908601C
:104BA00000BF2046FBF7F9FB00BF642000F058FB74
:104BB00000BF1020FBF7E3FB044600BF0648006877
:104BC0000649086001200649087000BF2046FBF72F
:104BD000E4FB00BF10BD0000BC000020A4000020CA
:104BE000AC000020704700002DE9F04F85B08146F1
:104BF0008A4693461C46DDE90F78129D00200390FB
:104C000000BF1020FBF7BBFB039000BF28480078D3
:104C100040B100BF0398FBF7C0FB00BF3C2005B0CC
:104C2000BDE8F08F234850F82400C0BB0120214983
:104C300041F8240000BF0398FBF7AFFB00BF2A46F2
:104C40004146384601F010F92B465A46514648462F
:104C500000F082F904901198CDE9008002953A465F
:104C600020460E9B049900F095FF064636B912487F
:104C70000078012811D100F037FF0EE000BF1020AE
:104C8000FBF77DFB039000BF00200A4941F8240098
:104C900000BF0398FBF781FB00BF3046BFE7FFE78B
:104CA00000BF0398FBF779FB00BF2820B7E700009F
:104CB000AD0000204C260020B70000207047000007
:104CC0002DE9F041054600274E48007810B14020FC
:104CD000BDE8F081202D01D13E20F9E700BF102072
:104CE000FBF74DFB074600BFFF2D03D14648006888
:104CF00090F83250454850F8254034B900BF384646
:104D0000FBF74BFB00BF4320E2E7012C06D100BFBD
:104D10003846FBF742FB00BF3D20D9E714F8340FBB
:104D20003B49085C617888432178394A505414F82B
:104D300034091146085C30B994F8361035480078CB
:104D4000884334490870E06918B12046E16900F0F1
:104D5000F5FC666A16B1304600F080FD0020E06286
:104D600084F8300084F831002B480078FF2804D202
:104D700029480078401C2849087000BF3846FBF7D6
:104D80000CFB00BF00F096FC00BF1020FBF7F7FA09
:104D9000074600BF2048007820B11F480078401E19
:104DA0001D490870204600F043F81C480078401E5A
:104DB0001A4908700020154941F82500A06930B94A
:104DC00000206169886116496069086005E0D4E9DE
:104DD00005014861D4E905108861124800686061E6
:104DE0001048046010A0E06400BF3846FBF7D5FA15
:104DF00000BF0E480078012801D100F075FE0020A8
:104E000066E70000AD000020C00000204C26002016
:104E1000B2000020B1000020AE000020B800002049
:104E2000CC000020C40000203F000000B70000209C
:104E3000704770472DE9F04106460F4614464FF083
:104E400000081948007818B112202070BDE8F081E0
:104E500000BF1020FBF793FA804600BFFF2E03D15E
:104E60001248006890F83260114850F826503DB959
:104E700000BF4046FBF791FA00BF43202070E5E7F2
:104E8000012D07D100BF4046FBF787FA00BF432042
:104E90002070DBE7EF6400BF4046FBF77EFA00BFFF
:104EA0000020207000BFD1E7AD000020C00000202E
:104EB0004C260020704770472DE9F04707460D4605
:104EC0004FF0000A00202860686000BF1020FBF748
:104ED00056FA824600BFFF2F03D11D48006890F8A4
:104EE00032701C4850F827403CB900BF5046FBF7D1
:104EF00054FA00BF4320BDE8F087012C06D100BF63
:104F00005046FBF74AFA00BF4320F4E7207C00F04C
:104F1000010030B900BF5046FBF73FFA00BF452003
:104F2000E9E70026D4F80C90D4F8088000BF50467A
:104F3000FBF733FA00BF00E0761C58F8041B002989
:104F4000FAD02E60A9EB060068600020D3E70000CD
:104F5000C00000204C26002070B50446101D20F033
:104F60000700001F4FF00076051F28462E606A4E8E
:104F7000051F28462E60694E051F28462E60684E84
:104F8000051F28462E60674E051F28462E60664E78
:104F9000051F28462E60654E051F28462E60644E6C
:104FA000051F28462E604FF08246051F28462E60BA
:104FB000604E051F28462E605F4E051F28462E6056
:104FC0005E4E051F28462E604FF08146051F28467D
:104FD0002E605B4E051F28462E603602051F2846B0
:104FE0002E604FF07E56051F28462E600026051FB6
:104FF00028462E604FF08076051F28462E60051F3C
:1050000028462C604F4E051F28462E604FF0123662
:10501000051F28462E604FF00336051F28462E60D8
:105020004FF00236051F28462E607610051F2846D1
:105030002E60051F284629606FF01206051F2846BE
:105040002E604FF01136051F28462E604FF01036A7
:10505000051F28462E604FF00936051F28462E6092
:105060004FF00836051F28462E604FF00736051F03
:1050700028462E604FF00636051F28462E604FF05A
:105080000536051F28462E604FF00436051F2846BA
:105090002E602D4E051F28462E602C4E051F2846DB
:1050A0002E602B4E051F28462E602A4E051F2846CF
:1050B0002E60294E051F28462E60284E051F2846C3
:1050C0002E60274E051F28462E60264E051F2846B7
:1050D0002E60254E051F28462E60244E051F2846AB
:1050E0002E60234E051F28462E60224E051F28469F
:1050F0002E60214E051F28462E60204E051F284693
:105100002E601F4E051F28462E604FF08346051F58
:1051100028462E6070BD0000000070410000604114
:10512000000050410000404100003041000020419B
:10513000000010410000E0400000C0400000A0401E
:1051400000004040255D00080000F8410000F041EB
:105150000000E8410000E0410000D8410000D041DB
:105160000000C8410000C0410000B8410000B0414B
:105170000000A8410000A0410000984100009041BB
:10518000000088412DE9F04105464FF0000800BFBE
:105190001020FBF7F4F8804600BFFF2D05D124480E
:1051A000006890F83250012608E02148006890F825
:1051B0003200A84201D1012600E000261D4850F827
:1051C00025403CB900BF4046FBF7E7F800BF482048
:1051D000BDE8F081012C06D100BF4046FBF7DDF8A9
:1051E00000BF4320F4E794F834701348C05D94F88E
:1051F000351088431049C8550846C05D30B994F849
:1052000036100E48007888430C49087094F8300036
:1052100040F0080084F8300000BF4046FBF7BDF8BE
:1052200000BF012E01D100F05FFC0020D0E700009C
:10523000C00000204C260020B2000020B100002059
:1052400010B5054909680868FBF78AF80349096839
:105250000868FBF78EF810BDC0000020C8000020D1
:1052600070B5054600261A48007800B170BD19488F
:10527000007800B1FAE745B300BF1020FBF77FF8D4
:10528000064600BF1448006890F834401348005D9B
:105290001149096891F835108843104908550846A6
:1052A000005D40B90C48006890F836100C48007852
:1052B00088430B49087008480068C56200BF304643
:1052C000FBF76BF800BF00F00FFC00BFCEE700005B
:1052D000AD000020AE000020C0000020B200002081
:1052E000B100002070B5002600F07CF800BF10204F
:1052F000FBF745F8064600BF34480068401C3349B8
:10530000086000BF3046FBF748F800BF304800781F
:10531000012858D12F48007820B1012804D0022854
:1053200009D103E001250BE0002509E0012501205A
:105330002849087004E0012500202649087000BFB4
:1053400000BF05B970BD2448046838E000BF1020D4
:10535000FBF715F8064600BFE06A50B3E06A401E4E
:10536000E062E06A28BB94F8300000F0370040B1FA
:1053700014F8300F00F0C800207001206070303C3D
:1053800002E0002084F8310094F8300000F00800BA
:1053900078B93434A0781149097808430F49087066
:1053A00020780F49085C6178084314F834190C4AD6
:1053B0005054646900BF3046FAF7EFFF00BF94F81D
:1053C00032002028C2D100BFBCE70000DC00002072
:1053D000B7000020D0000020CC000020B100002049
:1053E000B200002010B507480088401C054908801D
:1053F000084600880A2803D30020088000F004F83B
:1054000010BD00008C00002010B503480068FFF7B5
:105410005FFB0446204610BDEC0000202DE9F04162
:105420004FF42071224800F02DFB4021214800F06C
:1054300029FB002514E0681C86B205EB85001C4999
:1054400001EBC00406EB860001EBC007642020706E
:10545000002084F82500E76017A02062681C85B250
:105460000F2DE8D305EB8500114901EBC004642042
:105470002070002084F82500E0600FA0206200204A
:105480000E4908600E49088010200E49088008481F
:105490000D4908600120FFF76DFA0C4908600020F3
:1054A000FFF768FA0A49086000F014F8BDE8F081D7
:1054B000682E0020E83200203F000000E4000020B9
:1054C000E2000020E0000020F0000020E8000020C2
:1054D000EC00002000B587B00320002180220A4B99
:1054E000CDE90132CDE903104FF6FD701E23074AC6
:1054F00000900748FFF778FB06AA06A11E20FFF7D9
:1055000099FC07B000BD0000E8300020E432002024
:105510009155000875432F4F532D494920546D7202
:105520000000000070B50B46032580F82550012BC4
:1055300005D1154EC5693668354445610CE085696D
:105540002DB9114EC56936683544456104E00E4EEB
:105550008569366835444561057D05F007040B4DC6
:1055600005EBC4010D682DB908600025C560012553
:105570008D8006E00A680860C26010618D886D1C2D
:105580008D800025056170BDE4000020E832002018
:1055900008B500BF00BF6A4600211A480068FFF73F
:1055A00015FAFFF78BF918480068401C1649086087
:1055B0000846007800F00708144800EBC8073C686C
:1055C0001AE0E668104960690968884213D12046EC
:1055D00000F01EF894F82400022804D1012120468E
:1055E000FFF7A0FF02E0022084F82500656815B1EE
:1055F0002046A168A8473446002CE2D1FFF782F983
:10560000C9E70000EC000020E4000020E8320020A0
:1056100030B5057D05F007040D4D05EBC4031D688D
:10562000854205D1C168196039B100250D6104E0DA
:105630000169C268CA6002B11161012580F8255074
:105640000025C56005619D886D1E9D8030BD0000F0
:10565000E832002010B500BF1020FAF790FE044693
:1056600000BFFFF7CBF800BF2046FAF796FE00BF59
:10567000FFF738FEFFF7D4F810BD000010B5014663
:1056800010224B1E4FF0E0246361094B186820F094
:105690007F4040EA0260186023461B6943F005031F
:1056A000236123461B6943F00203236110BD000000
:1056B00020ED00E0704700002DE9F04F05460F4651
:1056C00090469946A87A19490E5C05F10B00805D59
:1056D00011F800B00BEBC60000F0FF0A144850F8B8
:1056E0002A4000202034E0602760207C20EA080067
:1056F000207484F81190207C203C00F0080068B9E8
:1057000094F836000B49097808430A4908700A489A
:10571000805D94F83510084307498855294620468E
:1057200000F00CF85046BDE8F08F00004AC50008B4
:105730004C260020B1000020B200002010B590F8E7
:10574000342001F10B039B5C90F83540A34301F139
:105750000B04A35423469B5C23B98B7A90F8364004
:10576000A3438B720023C36110BD000010B51B4A18
:105770001268D061194A126892F8343000F10B02B5
:10578000D25C164B1B6893F835301A43134B1B68D9
:1057900093F8344000F10B031A55827A0F4B1B68C3
:1057A00093F836301A4382720C4A126892F8341019
:1057B0000B4A525C094B1B6893F835309A43084BEF
:1057C0005A541A46525C42B9044A126892F836306A
:1057D000044A12789A43034B1A7010BDC00000208F
:1057E000B2000020B1000020014600228A72002091
:1057F00005E0002301F10B021354421CD0B205282E
:10580000F7D370472DE9F0415021114800F03AF9E3
:1058100000250DE0681C86B20D4800EB051400EB76
:1058200006170020207067600AA0E060681C85B23F
:10583000042DEFD3064800EB0514002020706060B3
:1058400004A0E060024804490860BDE8F08100005F
:10585000FC2100203F0000009C00002030B50146E4
:105860004A6808682AB9CC68606028B1002545609C
:1058700002E0106000B142608B6800255D6230BDBF
:1058800070B5A0210E4800F0FDF800230BE0581C75
:1058900085B20B4800EB031400EB051600202070C6
:1058A0006660581C83B2092BF1D3054800EB031442
:1058B00000202070606002480249086070BD00004E
:1058C0005C2100209800002000200B4908600B4953
:1058D00008700B4908700B4908700B4908700B4998
:1058E00008600B4908600B4908600B4908600B49C8
:1058F00008700B4908707047DC000020AD000020E4
:10590000AE000020B8000020B70000209400002066
:10591000BC000020A8000020A4000020AC00002053
:10592000D800002000210A4A1170002004E0002164
:10593000084A1154411CC8B20528F8D30021064A70
:105940001170064A1170064A1160064A11607047CC
:10595000B1000020B2000020AF000020B000002005
:10596000C8000020C000002070B54FF4E76118485F
:1059700000F088F88421174800F084F8002413E030
:10598000601CC5B2C4EBC40000EB4000104901EB41
:105990008003C5EBC50000EB400001EB80065E61B3
:1059A0000DA0D864601CC4B2152CE9D3C4EBC400AC
:1059B00000EB4000064901EB80030020586106A07F
:1059C000D86400200549086001480549086070BD99
:1059D000D02600204C2600203F000000CC000020F4
:1059E000C400002000B587B00320002180220A4BAC
:1059F000CDE90132CDE903104FF6FF702023074AAD
:105A000000900748FFF7F0F806AA06A12020FFF74C
:105A100011FA07B000BD00004C24002048260020E9
:105A2000F55C000875432F4F532D49492049646C9C
:105A30006500000000B587B00320002180220A4BDA
:105A4000CDE90132CDE903104FF6FE701F23074A5E
:105A500000900748FFF7C8F806AA06A11F20FFF725
:105A6000E9F907B000BD00004C22002048240020C6
:105A70003D5D000875432F4F532D494920537461F4
:105A80007400000004E0002200F8012B4A1E91B2CD
:105A90000029F8D1704700002DE9F041602110483D
:105AA000FFF7F0FF00240DE0601C86B204EB440019
:105AB0000B4901EBC00506EB460001EBC0072F6068
:105AC000601C84B2032CEFD304EB4400044901EBC7
:105AD000C00500202860084602490860BDE8F08142
