:100000006F20707113000000130000001300000047
:100010001300000013000000130000001300000094
:100020001300000013000000130000001300000084
:08003000130000007300100032
:100038000000000000000000EE050000F2050000CE
:10004800000000005C2E000000000000000000001E
:100058005E2E0000602E000000000000000000007E
:100068008E120000000000000002000000000000E6
:10007800662E0000682E00006A2E00006C2E00001C
:100088006E2E0000702E0000722E0000742E0000EC
:10009800762E0000782E00007A2E00007C2E0000BC
:1000A8007E2E0000802E0000822E0000842E00008C
:1000B800862E0000882E00008A2E00008C2E00005C
:1000C8008E2E0000902E0000922E0000942E00002C
:1000D800962E0000982E00009A2E00009C2E0000FC
:1000E8009E2E0000A02E0000A22E0000A42E0000CC
:1000F800A62E0000A82E0000AA2E0000AC2E00009C
:10010800AE2E00001C290000602A0000AA2B000067
:10011800B62E0000B82E0000BA2E0000BC2E00003B
:10012800BE2E0000C02E0000C22E0000C42E00000B
:10013800C62E0000C82E0000CA2E0000CC2E0000DB
:10014800CE2E0000D02E0000D22E0000D42E0000AB
:10015800D62E0000D82E0000DA2E0000DC2E00007B
:10016800DE2E0000E02E0000E22E0000E42E00004B
:10017800E62E0000E82E0000EA2E0000EC2E00001B
:10018800EE2E0000F02E0000F22E0000F42E0000EB
:10019800F62E0000F82E0000FA2E0000FC2E0000BB
:1001A800FE2E0000002F0000022F0000042F000088
:1001B800062F0000082F00000A2F00000C2F000057
:1001C8000E2F0000102F0000122F0000142F000027
:1001D8000000000000000000000000000000000017
:1001E8000000000000000000000000000000000007
:0801F8000000000000000000FF
:10020000130181F806C216C41AC61EC822CA26CC1B
:100210002ACE2ED032D236D43AD63ED842DA46DC76
:100220004ADECEC0D2C2D6C4DAC6DEC8E2CAE6CC46
:10023000EACEEED0F2D2F6D4FAD6FED8F3220030CF
:1002400096DA9702002083A2220823A02200F32539
:1002500010342EC09305000273A0458003A1818154
:10026000EF10706D17030020032303060321030022
:10027000824273901234D652739002309240A2425E
:100280003243C2435244E244724582551256A2564A
:100290003257C2575258E25872598649164AA64AEE
:1002A000364BC64B564CE64C764D865D165EA65ECA
:1002B000365FC65F13018107730020301300000012
:1002C00013000000130000001300000013000000E2
:1002D00013000000130000001300000013000000D2
:1002E00013000000130000001300000013000000C2
:1002F00013000000130000001300000013000000B2
:1003000083A28181938202E073900234170100205E
:10031000032181FB024182403243C2435244E24402
:10032000724582551256A2563257C2575258E25859
:1003300072598649164AA64A364BC64B564CE64C6D
:10034000764D865D165EA65E365FC65FD652A1020A
:1003500073900230A24213018107828013000000D3
:100360001300000013000000130000001300000041
:100370001300000013000000130000001300000031
:100380001300000013000000130000001300000021
:100390001300000013000000130000001300000011
:1003A0001300000013000000130000001300000001
:1003B00013000000130000001300000013000000F1
:1003C00013000000130000001300000013000000E1
:1003D00013000000130000001300000013000000D1
:1003E00013000000130000001300000013000000C1
:1003F00013000000130000001300000013000000B1
:10040000F322003093F272FF130380781203B3E2F9
:100410006200711523205500130585FA10C12115BE
:10042000232005009302000063870200711523203A
:100430000500FD12D5BF71150CC1828000000000BF
:1004400000000000000000000000000000000000AC
:10045000000000000000000000000000000000009C
:10046000000000000000000000000000000000008C
:10047000000000000000000000000000000000007C
:10048000000000000000000000000000000000006C
:10049000000000000000000000000000000000005C
:1004A000000000000000000000000000000000004C
:1004B000000000000000000000000000000000003C
:1004C000000000000000000000000000000000002C
:1004D000000000000000000000000000000000001C
:1004E000000000000000397101436EC619A0397187
:1004F00041536AC866CA62CC5ECE19A039710153F5
:100500005AD056D252D44ED64AD826DA22DC06DE4B
:1005100033016140828241114AC026C222C406C60C
:100520008282B24D4101024D924C224CB24B4101AC
:10053000024B924A224AB249410102499244224462
:10054000B240410182803D432A876373C30293779F
:10055000F700BDEFADE5937606FF3D8ABA960CC372
:100560004CC30CC74CC74107E36BD7FE11E2828036
:10057000B306C3408A069702000096966780A600DD
:100580002307B700A306B7002306B700A305B700EB
:100590002305B700A304B7002304B700A303B700E3
:1005A0002303B700A302B7002302B700A301B700DB
:1005B0002301B700A300B7002300B700828093F5A2
:1005C000F50F93968500D58D93960501D58D61B76E
:1005D000939627009702000096968682E78086FA17
:1005E0009680C1171D8F3E96E374C3F8A5B77300BC
:1005F000203001A0EFF23FF2EF00F04CB7070020EF
:10060000B7C50000370500009387072509478146D5
:1006100013060008938585761305E572EF10E04018
:10062000B7070020B7C500003715000093870726DD
:100630000D4781461306000493854577130505870A
:10064000EF10A03EB7070020B7C500003715000027
:100650009387472611478146130600049385C57783
:100660001305E596EF10603CB7070020B7C5000002
:1006700037150000938707241547814613060004A9
:10068000938545781305C5B2EF10203AB7070020CF
:10069000B7C50000371500009387872519478146A5
:1006A000130600049385C578130585C8EF10E0375D
:1006B000B7070020B7C5000037150000938747240F
:1006C0001D4781461306000493854579130505CE21
:1006D000EF10A035B7070020B7C5000037150000A0
:1006E0009387472521478146130600049385C579E2
:1006F000130585D3EF106033B7070020B7C500009E
:100700003715000025478146130600049385057AB6
:1007100093878724130565BFEF102031B7070020AA
:1007200003A58726EF100052EF00503B39B5EFF2DA
:100730001FDC0111B70C0020370B0020B70B002085
:10074000370C00209384C193138401931389CC2424
:100750008347090095EB856913858938EF20206E62
:1007600013858938EF20A06DEF307026EF301035FB
:10077000371500409305A00513050580EF30602A6A
:1007800085472300F900D9B705691305499CEF1087
:1007900050140945EF20805593054B0113850B003C
:1007A000EF307041B707002083A7C72583280C29A5
:1007B0003ECAB707002083A7472813074B013EC84E
:1007C000B707002083C7C729A686138681943EC633
:1007D000B70700208387C726A285138581963EC46C
:1007E000B707002083A7C7283EC2B707002083A70A
:1007F000072A3EC0B707002003A8872893870B006D
:10080000EF303031B7070020B7C50000A386A72618
:100810002A869385456F1385C191EF40500437C5F3
:1008200000009385C1911305856FEF4010011305FA
:100830004006EF10100A13858196EF4010007946AC
:1008400081451385819423A0040023A204002394EE
:100850000400D53909452320040023220400231471
:100860000400EF20A0481305499CEF109006F9BD45
:10087000EFF27FC7B7C7000003A4077283A44772D3
:10088000B7C7000083AA8771B7C7000003ABC77161
:10089000370A0020A28B268CA28C268D37070020D9
:1008A000B7070020930DAA27130987279389672785
:1008B0006E86CA854E85EF30606537070020B70722
:1008C00000207DF593058727138567271306AA2740
:1008D000EF30C06303950900EF60500A2286A686B8
:1008E000EF50704AEF703030B707002023A4A728DC
:1008F000AA8903150900EF6070085E86E286EF5052
:100900009048EF70502EB707002023A8A7282A8907
:1009100003950D00854DEF6070066686EA86EF5000
:100920009046EF70502CB707002023A0A72AD68549
:100930004E85EF70201B6344A002DA854E85EF7070
:10094000C022634E0500D6854A85EF70A019634822
:10095000A000DA854A85EF704021935DF501B70765
:1009600000202945238EB729EF10A07605BFEFF2AE
:100970001FB8370B0020B70B0020370C0020B7CA78
:10098000000037640020B7C9000037CA00000145E5
:10099000EF30B06B938C4B2783C70C002320AB2820
:1009A00093044C28A1C785476312F50488C0371506
:1009B00000409305000513050580EF308006B7C59C
:1009C00000009385857213850193EF80F005B707CA
:1009D00000209387C726982323800C00050798A33F
:1009E0009C4091CB2945EF10C06E55B79C40A5E3C4
:1009F00085476307F50493850A73130584A8EF8080
:100A0000900735E59385C974130584A8EF80B00677
:100A10006300050EB7C50000938505751385019326
:100A2000EF8090009385C9741385C193EF80C07FD8
:100A3000814579461385819439369385C974B9A067
:100A400037C5000013058573EF20E02651BF054729
:100A5000E39AE7F8E318F5F8371500409305A00589
:100A60001305058023A00400EF20B07B95BFB7C518
:100A700000009385057413850193EF80E07A81452A
:100A8000794613858194C13493850A73130584A82C
:100A9000EF80607EB7070020B7C50000AA8C23AAAC
:100AA000A72893854574130584A8EF80C07CB707F9
:100AB00000203306954123A8A7261106E685138555
:100AC0008194EF8080780D45EF204022371500405B
:100AD000854793050005130505809CC0EF207074C1
:100AE000B70700209387C7269823050798A3DDBD85
:100AF00093058A75130584A8EF80E077E30405EE7B
:100B0000B7C500009385057513850193EF80C0710B
:100B100093058A751385C193EF80007181457946ED
:100B2000138581940D3493058A758DB7EFF23F9C40
:100B3000B7C7000083ABC76AB7C7000003AA076B3B
:100B400083AA476BB7C7000003A9876B83A9C76B4C
:100B5000B76400201384848F0545EF20201937C522
:100B600000001305056CEF20C00E316B13058B6A76
:100B7000EF20801137C500001305456CEF20600D94
:100B800013058B6AEF20401037C500001305856CF4
:100B9000EF20200C13054006EF10A05303C7848FED
:100BA0008547E31BF7FA18309147E317F7FA382027
:100BB0008947E313F7FA3C304820370B0020A2079F
:100BC0003E95EF70206BDE85EF70202CEF70E076A5
:100BD0005286D686EF508034EF70F000EF7060637D
:100BE000EF60C0594A86CE86EF504033EF70A07F49
:100BF0002326AB2895B7EFF29F8F37640020B7C943
:100C00000000370A0020A28A37CB0000B7CB0000D3
:100C1000B7040020370900209385C96C1305049C94
:100C2000EF806065232CAA280DC19305CB6D1305B9
:100C3000049CEF80406411CD83A7442899EB85473D
:100C4000230AF9260945EF20600A0545EF106048A0
:100C5000E1B793858B6E13850A9CEF80C0617DD1CF
:100C6000371500409305A0051305058023A204282D
:100C7000EF20305B371501408945130505C0EF2093
:100C80008072230A09267DBFEFF25F8785643714DF
:100C90000140938424FD37090020A949254A130403
:100CA00004C0930AB02B1145EF3060093385A4408E
:100CB000334735039307C92598C3634CAA0023A083
:100CC000070085452285EF20006E2945EF10604022
:100CD000D9BFE3D8AAFE85452285EF20006DF5B780
:100CE000EFF2DF8137240140B709002037090020E7
:100CF00013040480130A100383C7492791E71305DF
:100D00004006EF10003DCDBF232E09269304C927CE
:100D100085452285EF2020690D45EF10803B8545F4
:100D20002285EF2080680D45EF10A03A9C40850792
:100D30009CC0E346FAFCE9BFEFF2EFFD3714014037
:100D4000B7040020130404C083C7442789452285C3
:100D500089CBEF20406513054006EF1080378945A9
:100D60002285EF20806413054006EF108036E9BF2E
:100D7000EFF26FFAB7070020B7C500003705000093
:100D80009387872605478146130600409385C575DE
:100D90001305455FEF007049EF00F0776FF0EFF952
:100DA000EFF26FF70945EF20D00913050009EF2096
:100DB0002001096513050558EF10702C71641305A7
:100DC0000420EF10304013050420EF10F0531305FA
:100DD000803EEF20C006EF30A03415E9EF20D0644C
:100DE000EF30901D91659385F58313053006EF2054
:100DF000B05A371500409305500513050580EF20C4
:100E000050420145912AAD3701456FF00FF31305AC
:100E1000800CC1B7B71702409843B706FFF84111DD
:100E20001367170098C3D84337060200758FD8C3DD
:100E30009843B706F7FEFD16758F98C39843B7061B
:100E4000FCFFFD16758F98C3D843B70681FFFD16CA
:100E5000758FD8C39843B70600ECFD16758F98C3FD
:100E60003707FF0098C723A6070202C402C69843AB
:100E7000C166558F98C3B716024005679C42F18F33
:100E80003EC6A24785073EC4B24781E7A247E39723
:100E9000E7FEB71702409C431397E7006356070627
:100EA00085473EC632478547631EF704B7170240A1
:100EB000D843B706C1FFFD16D8C3D843D8C3D8431B
:100EC00013670740D8C3D843758FD8C3D843C166CA
:100ED000558FD8C39843B7060001558F98C39843E0
:100EE00093166700E3DD06FED843B7160240719BF8
:100EF000D8C3D84313672700D8C32147DC42B18B3E
:100F0000E39EE7FE4101828002C669BF37070020E9
:100F10000A051307870281468147930500282A970F
:100F2000639DB6001305803EB387A7021305001426
:100F300033D5A7024205418182805047369612225E
:100F400011C285078906E9BF2A966313C50082800E
:100F50000505A30FB5FED5BFEFF2EFDB3704002088
:100F60001304840293172500A297AA84C847130686
:100F700000288145D13F269485471CA86FF0EFDB00
:100F8000B70700209387C72B9843636FA702D0430E
:100F9000B386C7006316D50054413E85B296D4C3CC
:100FA0005041B306C500631CD700B706002083A6D6
:100FB000462A6306D70054431843B29654C118C159
:100FC0006303F50088C38280BA877DBFEFF20FD339
:100FD00041112AC6EF00305DB706002083A7462ADC
:100FE000370600209386462A1306862A3245A9EF43
:100FF00037370020930707F093F5F700130707F042
:1010000081C51387F700419BB70500209385C52B49
:1010100023A2050098C189659385057FAE97C19B82
:1010200023A2070023A00700B385E7409CC21CC38E
:10103000B707002023A8B72AB707002023A6B72A9E
:10104000B70700804CC31CC2032A0600B377AA006E
:1010500085E39307F5FF3957636CF70093070501A4
:1010600013F7F70041C313F707FF410763EBE706E8
:10107000814489A022872E8461A058C15CC00937B1
:101080005840B70600209386062B9042B307E940EC
:1010900023A0F90063F3C7009CC2B70700203367A1
:1010A000EA009387472B58C09843C10423200400CB
:1010B000050798C3EF00906B93F7F400D1CBA167BD
:1010C000938707807390073037C6000037D500003C
:1010D0001306C67A9305001113058580EF30F0756D
:1010E00001A0BA87370700200329C72A9309C72A16
:1010F000E360F9F8370700200324C72B1307C72B39
:1011000050406374F6000C40B5F59442E38286F6D5
:101110001440044314C33307F64093060002E3F17E
:10112000E6F63305F4009376F500A1DAA16793871C
:1011300007807390073037C6000037D500001306CC
:10114000C67A9305F00C13058580EF30106F01A06F
:10115000268541016FF0CFBD55C1EFF2CFBBB70778
:101160000020032745FF83A7872A2A84B376F70048
:101170009DE2A167938707807390073037C6000010
:1011800037D500001306C67A9305401213058580F3
:10119000EF30B06A01A0832605FF9DC2A167938747
:1011A00007807390073037C6000037D5000013065C
:1011B000C67A9305501213058580EF30106801A0A0
:1011C00093C7F7FFF98F232AF5FEEF00D03DB7074D
:1011D00000209387C72A9443032744FF130504FF85
:1011E000369798C3713BB70700209387872B9843A6
:1011F000050798C3EF0090576FF02FB4828082806C
:10120000EFF26FB1411102C6F32750303EC6B2472C
:101210000D478D8B6384E702A167938707807390E6
:10122000073037D6000037D500001306C682930575
:10123000600B13058580EF30506001A0B7070120D7
:1012400093870700BD8B9DC3A16793870780739029
:10125000073037D6000037D500001306C682930545
:10126000B00B13058580EF30505D01A0493FB7E713
:1012700000E0056723A0E710116723A0E71023A271
:101280000180EFF0EF87014541016FF00FAB731163
:101290000134A1679387078073900730B7F700E0A8
:1012A00023A20700EF00D03111C5B7E700E01167B6
:1012B00023A0E720A1679387878873900730731175
:1012C000013473002030A167938707807390073043
:1012D000938741809843050798C382801387418094
:1012E0001C438DE7EFF22FA3A167938707807390CC
:1012F000073037D6000037D500001306C6829305A5
:10130000201013058580EF30505301A0FD171CC33A
:1013100091E7A1679387878873900730828093074E
:1013200085007D575CC118C55CC51CC9232005001C
:1013300082802328050082805C419847DCC198C5E3
:1013400098474CC38CC71C4188C985071CC1828043
:101350009841FD5693078500631ED7001C49D8436A
:10136000D8C10CC79CC5CCC31C4188C985071CC10A
:101370008280B687D4439042E37DC7FECDB7544107
:1013800018451C4998C654C3D4436393A600D8C3D8
:101390009843232805007D1798C388438280EFF285
:1013A0008F9741112AC605373245005D053F133539
:1013B000140041016FF06F98EFF2EF9532893041E0
:1013C000045D2A8409EE1C41014591E70844EF10B1
:1013D000200B23240400850404DC6FF00F966310B7
:1013E00009024841EF70A01D5C4038400145BA97A2
:1013F00018445CC0E3E1E7FE1C405CC0E9BF48451F
:10140000EF70E01B3C4058441440B307F0403E9757
:1014100058C46375D7001844BA975CC4894701451E
:10142000E31BF9FACDD8FD147DB7EFF22F8D2045DF
:1014300041112AC605E4A16793870780739007309E
:1014400037D60000856537D500001306C68893851A
:1014500055BD13058580EF30503E01A0185C5C5CE3
:101460006365F702A167938707807390073037D6CB
:101470000000856537D500001306C688938565BDD5
:1014800013058580EF30703B01A0185C014963783B
:10149000F7028344540401466C002285313F93993E
:1014A000840193D98941FD572A89639EF9005C50D4
:1014B00099C713054402EF00905D11C105494A85A3
:1014C00041016FF0EF869307F0076395F902A1677A
:1014D000938707807390073037D60000856537D52E
:1014E00000001306C688938565BF13058580EF301D
:1014F000D03401A08504E204E184A3029404C1B7BE
:10150000304115C2EFF22F8158451445AA87329712
:1015100058C56364D700184158C52E85CC47EF7075
:10152000000A6FF08F818280EFE2FFFE2A84613B28
:101530008344540413094402E204E18463459002A5
:10154000FD57A302F404593BBD3B834444041309F3
:101550000401E204E18463499002FD572302F4048C
:10156000B53B6FE09FFD3C4491CB22857D3D19C189
:10157000EF00906EFD14E204E184C9B75C50E9D33A
:101580004A85EF00D050E5B71C48E1DB4A85EF0003
:10159000105019C1EF00506CFD14E204E18465BFE6
:1015A000EFE27FF741111DE1A167938707807390F8
:1015B000073037D6000037D500001306C6889305DC
:1015C000001113058580EF30502701A05C5D2EC609
:1015D0002A84BDC33841B3B7E702B9EFED313040DB
:1015E000585C1440232C0402B307E602B24554C0F1
:1015F0003387F600918FB6975CC4FD572302F4043D
:1016000018C4A302F40495E11C4899CB1305040106
:10161000EF00F04711C5B7E700E0116723A0E7200E
:101620007539054541016FE05FF113050401C539C6
:1016300013054402ED31EDB7A167938707807390DE
:10164000073037D6000037D500001306C68893054B
:10165000501413058580EF30501E01A0EFE2BFEB60
:10166000411131C5B3B7A502AA84B1E33305B50270
:101670009307B0FA63EDA7021305450532892EC61C
:10168000EFF0DF942A8405C1B245AA8799C1930778
:1016900045052CC01CC044DC854522851137230834
:1016A000240523240404228541016FE01FE9A1677A
:1016B000938707807390073037D6000037D5000036
:1016C0001306C6889305601C13058580EF30F0165D
:1016D00001A0EFE2DFE1011132C61DE1A1679387AE
:1016E00007807390073037D6000037D50000130607
:1016F000C6889305105513058580EF30101401A09E
:101700002A84AE898DE53C419DC3A16793870780FC
:101710007390073037D6000037D500001306C6880F
:101720009305505513058580EF30301101A0EF006F
:10173000705315E5B247014985C7A16793870780B4
:101740007390073037D6000037D500001306C688DF
:101750009305A05513058580EF30300E01A0014997
:101760007D5A930A440237EB00E0916BBDA0B2476B
:1017700089E7EFF0BFB6014549A8631509002808BD
:10178000EF00B03FEFF09FB5392DEFF0DFB38347A7
:101790004404E207E187639447012302040483477A
:1017A0005404E207E18763944701A3020404EFF0C5
:1017B000FFB26C002808EF00B03D25E12285C53658
:1017C00021C9B2455685EF00B0202285B13BEF001C
:1017D000E07919E123207B210549EFF0DFAE045CBD
:1017E000D9D4CE852285FD14213B04DC1C4899CB3D
:1017F00013050401EF00B02911C5B7E700E0116738
:1018000023A0E720EFF09FAD054505616FE0BFD154
:101810002285193BEF008075C1B722853133EF0077
:10182000E0742285EFF0BFB745D9B1B715E5EFE217
:101830009FCEA167938707807390073037D600004B
:10184000856537D500001306C688938585AC1305DA
:101850008580EF30807E01A09DCD37560020930615
:1018600006708147014713060670214883A8460089
:101870006398A80093173700B2978CC3C8C321A8F8
:1018800091E783A8060063930800B6870507A106C1
:10189000E31E07FDFDF38280EFE2FFC741112A84BA
:1018A0002EC632C4EFF03FA2834744047D57224640
:1018B000E207E187B2456394E7002302040483470B
:1018C00054047D57E207E1876394E700A302040410
:1018D00032C62EC4EFF09FA01C5CA245324689E7B9
:1018E00013054402EF00501322853D3941016FE09A
:1018F000DFC4370700201307872C1C439443B70726
:1019000000209387872E81E67D5798C382801843F5
:1019100058471843DDBFEFE27FBE37090020B70705
:1019200000209304492C83A9872F2A849C40884057
:101930004111A38C070411052EC6EFF05FA47D575B
:101940009307492CB245631CE40295C9B767002090
:101950009387878A9440D84398C610479440D0C64E
:1019600094401047910654C29440910614C7984081
:101970005CCB9843050798C341016FE07FBB984358
:101980004E9440C3637B3401370700200325C72CE6
:101990008C439105EFF0DF9BC5B737070020032587
:1019A000872C8C439105EFF0BF9AB70700209387EF
:1019B000872E9843E372E4FC80C37DBFEFE21FB43F
:1019C00037640020B70900201304C48B370A0020B5
:1019D000B75A00209384492D9C4089EF93870A745D
:1019E00098438547E3F8E7FEB7E700E0116723A0D7
:1019F000E720CDB7EFF03F8D5C4403A9C700130586
:101A00004900EFF0DF9713070A2D1C43FD171CC395
:101A10009C40FD179CC0EFF07F8C03250903EFF07D
:101A2000AFF34A85EFF04FF375B7EFE25FAC931475
:101A300026002A8B26852E8AB68B3A89BE8AEFF03D
:101A4000EFD805CDAA891305C005EFF02FD82A8459
:101A500015C12328350326864E859305500AEFE0ED
:101A60009FAE814783290403C146631A0A00230AF3
:101A7000040225A04E85EFF02FEE7D5575A23307A9
:101A8000FA00030707003306F400230AE60201C741
:101A90008507E396D7FEA3010404B94763F427033F
:101AA000A167938707807390073037D6000037D53A
:101AB00000001306868D9305703913058580EF307D
:101AC000C05701A0130A440023262403232624051B
:101AD000528523280404EFF0DF8513058401EFF01D
:101AE0005F85BD47F11433892741CE9400C8232C6C
:101AF000240140D0230A0404A30A0404230B040491
:101B0000A30B0404230C0404A30C04045E86DA85EE
:101B100013F504FFEFE0DF8E08C063840A0023A002
:101B20008A00EFF04FFAB70700209387072D9843FC
:101B3000B7040020B7590020050798C31387442C29
:101B400018439384442C138909746311070E80C0D1
:101B5000984385476316F70693890974930AC91257
:101B60004E85D109EFF0AFFBE39C3AFF37650020CB
:101B7000930AC5861305C586EFF06FFA3765002016
:101B80009309058813050588EFF06FF93765002084
:101B900013054589EFF0AFF8376500201305C58BB5
:101BA000EFF0EFF7376500201305858AEFF02FF788
:101BB000B707002023A4572DB707002023A6372DF1
:101BC000370700201307C72D1C4385071CC33707A1
:101BD00000201307072E7CC014435C5463F3F60007
:101BE0001CC35147B387E702CA97D843144718C4A8
:101BF00054C4144723A246012324470198435CC8D8
:101C0000050798C3EFF08FEDB707002083A7472F94
:101C1000054599CB9C40D8575C546377F700B7E7EC
:101C200000E0116723A0E7206FE0FF8FB7070020D7
:101C300083A7472FD1F79C40D8575C54E3E2E7F8DD
:101C400080C0BDBFEFE23F8D2A84B7040020EFF0D3
:101C50008FE79384442C11E08040130944004A85A7
:101C6000EFF0EFF11C5489C713058401EFF02FF159
:101C7000B70700209387C72D9843050798C39C405A
:101C8000639A870637650020CA851305C58BEFF078
:101C9000AFEAB70700209387472D9843050798C3FD
:101CA000EFF0CFE39C40638887000858EFF0CFCA7D
:101CB0002285EFF06FCAB707002083A7472FB1CB6B
:101CC0009C4063988704B707002083A7872D8DCF9A
:101CD000A167938707807390073037D6000037D508
:101CE00000001306868D9305C04D13058580EF30E7
:101CF000C03401A0B70700209387072D98437D17B4
:101D000098C3EFF01FBF69BFB7E700E0116723A0DA
:101D1000E7206FE09F82EFE21F80B7070020B7D572
:101D20000000372500009387472E014781461306A0
:101D30000008938545921305C59BC5390544631E6C
:101D40008502EF00D02D631A8502A1679387078073
:101D500073900730B70700207D5723A4E72EB707FD
:101D6000002023AAA72EB707002023AC072EEFF0F0
:101D70002FC983A781806FE04FFCFD57E31BF5FE61
:101D8000A167938707807390073037D60000856579
:101D900037D500001306868D93850584130585804D
:101DA000EF30A02901A0B70700209387872D984323
:101DB000050798C38280B707002003A5872F82807C
:101DC000B707002083A7872D63990718EFE2AFF4C8
:101DD000B70700209387872F8043050480C321EC39
:101DE000B70700209387872C9843184305C7A1673E
:101DF000938707807390073037D60000856537D505
:101E000000001306868D938575AC13058580EF3031
:101E1000C02201A0370700201307C72C94431043AA
:101E200090C3B707002014C39387C72E98430507B4
:101E300098C3EFF01FAC370600209307862E9C4313
:101E400037570020B70500201306862E13070774A6
:101E50009385452C01456375F4029C41D146DC57BE
:101E6000B387D7023E971843854763F3E7000545DC
:101E7000B707002083A7C72F91C305456FE0EFEB9D
:101E8000370E0020B70E0020514F93078E2C94433D
:101E9000944281E6FD571CC2C9B79C43DC47DC472E
:101EA000D4436374D40014C24DBF83A8870003A831
:101EB000C700D44B1383470023A408012322180131
:101EC00083A846006394680023A2060103A80600C5
:101ED00023AA07007D1823A00601945795CA03A8DA
:101EE000C70183A8070283AF46002324180183A8F3
:101EF000070223A208011388870163940F0123A21C
:101F0000160103A8060023A407027D1823A00601DA
:101F100093860E2E03A8C70283A8060063F4080167
:101F200023A00601B306E803BA9683A8460083AF50
:101F3000880023A4170123A6F70183AF880023A2FA
:101F40006F0023A46800D4CB9C4285079CC29C41AF
:101F5000DC57E36CF8F205450DBFB7070020938707
:101F6000072F98430145050798C38280EFE20FD9F8
:101F7000370400201304842D1C40411185E7A1671C
:101F8000938707807390073037D60000856537D573
:101F900000001306868D9385358B13058580EF3001
:101FA000C00901A0EFF02FB21C40FD171CC01C405F
:101FB00089CB01452AC6EFF06FB2324541016FE08F
:101FC0002FD7B707002083A7072DE5D7B7660020D6
:101FD00037550020814793864689370F0020130527
:101FE0000574D14837030020370E0020854E59A8CC
:101FF000DC46DC47CC4F9053985790C503A80702A6
:102000002322B80003284700938587016313B80093
:1020100050C3104323A407027D1610C38C47D0473A
:10202000D84B1388470090C54CC24C4363930501BD
:1020300050C3104323AA07007D1610C313070F2EA9
:10204000D0570C4363F3C50010C3330716032A9718
:102050004C4383AF85008CC723A6F70183AF85006F
:1020600023A20F0123A405010C43D8CB85050CC383
:102070001307432C184358576366E6001307CE2F07
:102080002320D70198422DF799C3EFF09F86B70719
:1020900000201387072F04431384072F91CC37099F
:1020A00000208549313B09C59307C92F23A037017B
:1020B000FD14EDF823200400B707002083A7C72FE5
:1020C000E38907EEB7E700E0116723A0E7200545A5
:1020D000D5B519E5B7E700E0116723A0E7208280B6
:1020E000EFE26FC3B707002083A7872D41119DC37F
:1020F000A167938707807390073037D6000037D5E4
:1021000000001306868D9305905413058580EF20FB
:10211000D07201A02AC6EFF01FC932458145EFF009
:102120008FFFA93511E5B7E700E0116723A0E7208D
:1021300041016FE08FC0B707002003A7872DB707C5
:1021400000209387C72F01C7054798C3828023A02B
:102150000700B70700201387072E18431386072EA2
:10216000B7570020938707745148B3060703B38518
:10217000D700884115C5C841A106BE964841C8C1CF
:102180006314D5005441D4C1D146B306D702B697E3
:10219000DC43D447B707002023A2D72C18C2828083
:1021A00015E7EFE24FB7A167938707807390073079
:1021B00037D60000856537D500001306868D9385D8
:1021C00025C013058580EF20506701A07D1771BFE2
:1021D000EFE26FB405E5A16793870780739007303E
:1021E00037D60000856537D500001306868D9385A8
:1021F000C5C113058580EF20506401A0B7070020FA
:102200002E8483A5472CE105EFF08F948545228528
:10221000EFF06FF06FE06FB2EFE2EFAF2A8705E506
:10222000A167938707807390073037D600008565D4
:1022300037D500001306868D938525C51305858047
:10224000EF20B05F01A0B70700209387472C5443CD
:102250002E858C4303A88600D4CD8C4323A0050390
:1022600003A807008C46610823A2050103A8070004
:102270009C43610823A4060198D71C4385071CC30F
:1022800011C27D55B285EFF00FE96FE00FAB5C45F1
:10229000DC4795E7EFE22FA8A1679387078073904B
:1022A000073037D60000856537D500001306868DC8
:1022B000938525C813058580EF20305801A0D04FA5
:1022C000945398579385870114C6D0C25043631323
:1022D000B60054C3144323A40702FD1614C33707E2
:1022E00000200327872DD45725EF8C47D047D84BA4
:1022F00090C5D04748434CC2938547006313B5004F
:1023000050C3104323AA07007D1610C337070020CF
:102310001307072E10436373D60014C35147338647
:10232000E6023757002013070774329750430846D8
:1023300090C7C8C708464CC10CC6D8CB1C43014542
:1023400085071CC3B707002083A7472CDC5763F819
:10235000D700B7070020054723AEE72E054582804A
:10236000376700201307478950430846D0CF88D3EA
:1023700008464CC10CC698D7D1B7B707002083A731
:10238000C72E1CC1B707002083A7872F5CC182809E
:10239000EFE26F98411105E5A1679387078073907D
:1023A000073037D60000856537D500001306868DC7
:1023B0009385D5CF13058580EF20304801A085E5B2
:1023C000A167938707807390073037D60000856533
:1023D00037D500001306868D9385E5CF13058580DC
:1023E000EF20B04501A02EC62AC4EFE0DFED37078D
:1023F0000020B70700201307472C83A6872F1C4314
:102400002245B24583C7970599CB1C43A38C07048B
:102410000544EFE0BFEC228541016FE00F929C4143
:102420007D570144E387E7FE370600200326C62ECA
:102430000328050058416307C80063E5E60023A0B0
:102440000500F9B73386E640E37BF6FE958FBA9731
:102450009CC12537014475BFB7070020054723AE4F
:10246000E72E8280B707002083A7472F054581CB41
:10247000B707002003A5872D1335150006058280B8
:1024800011E50145828001456FE02F8BEFE2AF88B7
:10249000B707002083A7472C2A846385A702A1677A
:1024A000938707807390073037D60000856537D54E
:1024B00000001306868D9385F50413058580EF20B3
:1024C000D03701A0BC4B85E7A16793870780739045
:1024D000073037D60000856537D500001306868D96
:1024E0009385050513058580EF20303501A05455EF
:1024F0007845FD173CC9E388E6F8D1F79304450019
:102500002685EFE0DFE77C443D471D8F18CC370779
:1025100000201307072E14435CD463F3F6001CC39A
:1025200051473387E702B757002093870774054563
:10253000BA97D843144718C454C41447C4C204C734
:1025400098435CC8050798C381B7EFD2DFFC370416
:102550000020EFE05FD71304C4301C40B1E73765BB
:1025600000201309058D1305058DEFE05FDB37654E
:1025700000209304458E1305458EEFE05FDAB70720
:10258000002023A027310146B7070020C14515458B
:1025900023A29730EFF08F8C08C019C5B7D5000083
:1025A00093850595EFF08FA8EFE05FD36FD0FFF82C
:1025B000EFD27FF64CC108C9AA876362B602184DF4
:1025C000158E0545637BE60093854700B70700201D
:1025D00003A54730EFE0DFD701456FD01FF66375E5
:1025E000D6000545E3FBD5FE93854700B7070020DD
:1025F00003A50730C5B7EFD21FF22A84AE84328913
:102600000C4CA6864A86A69522855D3719E16FD0C7
:10261000DFF21C4C2285BE941C508297D5B7EFD2B6
:102620009FEFB707002083A707304111AA84DC473A
:102630002EC6C04713054400EFE07FD483478402D1
:10264000324613F7470011CBA68522856D371C5003
:102650002285829741016FD05FEEF99B2304F4023B
:10266000FDB7EFD25FEB37040020930604309842A9
:102670001C4391EBB707002093874730904398C3E2
:1026800090C26FD09FEB5C47FD558843493FF1BF37
:10269000EFD2FFE535694111B70A0020B7090020E4
:1026A000370B0020B70B00201309C99283A70A300B
:1026B000984329CBDC47814C03AC0700EFF0AFEE29
:1026C000EFF06FEF83A789302A8493848930130A4F
:1026D000CB30636CF50288C0638F0C0283A74B304C
:1026E00090431336160003250A00B3058C40EFF023
:1026F000AF9AEFF0BF8711EDB7E700E0116723A0B5
:10270000E72001A8854C014C55BFA13F80C0EFF0E8
:10271000FF85214C05A00146E36785FDEFF01F858D
:10272000A2856285ED3DF5B79247B2458297824713
:1027300063DD070003250A0001468A85EFE07FF983
:1027400035D582472245E3C107FE22445C4895E324
:10275000EFF06FE69C40AA8C6373F500193782474F
:1027600023A09401FD17E367FCFC8A07CA979C43EA
:10277000828713054400EFE09FC0D9BF83478402DE
:102780000C4C924693E717002304F4026686B69534
:102790002285393D45D18347840213F7470019CB81
:1027A0001C4C924566862285BE95B1351C5022850B
:1027B000829749B7F99B2304F402CDBF8347840273
:1027C000F99B2304F402BDB783478402924593E743
:1027D00017002304F4020CCC9DE1A16793870780C6
:1027E0007390073037D6000037D500001306869562
:1027F0009305903513058580EF20300401A0E6860F
:102800006686E6952285EFF0BFDA2DB7834784020E
:1028100013F7270055F72285EFE01F9421BFEFD271
:102820009FCFEFF09FD2B707002083A7C7309DE36B
:10283000A167938707807390073037D6000037D59C
:102840000000130686959305901113058580EF20EF
:10285000C07E01A0B7070020B7D5000037250000D3
:102860009387073139478146130600109385459AAF
:1028700013050569EFF06F9B45DD6FD01FCCEFD2DC
:102880009FC97971AA8485451145EF00D07E8545A1
:102890001145EF00507E85451165EF00D07D93070F
:1028A0000020FC8237140140E1473ECE4C088D47A2
:1028B000130504803ECCEF00702293070040FC8299
:1028C0004C089147130504803ECE37440140EF0089
:1028D000F0200C10B7070C001305048026D03ED45E
:1028E00002D223160102EF100014930750037C86D6
:1028F000680085473EC823070100EF00F0540546F5
:102900001305048093055052EF10001F85451305F1
:102910000480EF10001D45616FD03FC25D7122DE63
:10292000374401402ADC2EDA130504809305505207
:1029300086C696C49AC29EC032D836D63AD43ED203
:1029400042D046CE72CC76CA7AC87EC6EF10C01F7F
:1029500031C59305505213050480EF10A0221305D2
:102960000480EF10401D1375F50FB5476308F5029D
:10297000B70700209387473190233767002013075C
:10298000878F93061600329793F6F60F08A394A349
:102990001307700C6374D700238007007254B6408D
:1029A000A642164386436255D2554256B256225726
:1029B00092570258F248624ED24E424FB24F616176
:1029C00073002030EFD23FB57971AA848545114557
:1029D000EF00706A85451145EF00F06985453705C0
:1029E0000200EF00306B9147FC8237140140E14751
:1029F0003ECE4C088D47130504803ECCEF00100EF0
:102A0000A147FC824C089147130504803ECE374411
:102A10000040EF00B00C0C10B7070C001305044089
:102A200026D03ED402D223160102EF00D07F9307B6
:102A300060037C86680085473EC823070100EF00DD
:102A4000B04005461305044093055052EF10C00AEC
:102A5000854513050440EF10C00845616FD0FFADF8
:102A60005D7122DE374400402ADC2EDA1305044073
:102A70009305505286C696C49AC29EC032D836D6A6
:102A80003AD43ED242D046CE72CC76CA7AC87EC6FE
:102A9000EF10800B31C59305505213050440EF1021
:102AA000600E13050440EF1000091375F50FB547CC
:102AB0006308F502B70700209387573190233767E3
:102AC00000201307079C93061600329793F6F60F23
:102AD00008A394A31307700C6374D7002380070026
:102AE0007254B640A642164386436255D2554256AA
:102AF000B256225792570258F248624ED24E424F77
:102B0000B24F616173002030EFD2FFA07971AA84C7
:102B100085452145EF00305685452145EF00B055EC
:102B2000854537050400EF00F05693070040FC820E
:102B300037140140E1473ECE4C088D47130504C0D1
:102B40003ECCEF00A079856793870780FC824C0814
:102B50009147130504C03ECE37540040EF00007883
:102B60000C10B7070C001305048026D03ED402D207
:102B700023160102EF00306B930770037C86680018
:102B800085473EC823070100EF00102C05461305BA
:102B9000048093055052EF0030768545130504807C
:102BA000EF00307445616FD05F995D7122DE37545C
:102BB00000402ADC2EDA130504809305505286C6A5
:102BC00096C49AC29EC032D836D63AD43ED242D0AB
:102BD00046CE72CC76CA7AC87EC6EF00F07631C592
:102BE0009305505213050480EF00D079130504803B
:102BF000EF0070741375F50FB5476308F502B7075A
:102C0000002093876731902337670020130787A838
:102C100093061600329793F6F60F08A394A31307B2
:102C2000700C6374D700238007007254B640A6422C
:102C3000164386436255D2554256B2562257925792
:102C40000258F248624ED24E424FB24F6161730059
:102C50002030EFD25F8CB74401402A8493840480F3
:102C60008307040099E36FD05F8D930500042685E8
:102C7000EF00F06C7DD98305040026850504C205AC
:102C8000C181EF00D06AE9BFEFD2FF88374401402D
:102C9000AA8413090480930500044A85EF00306A72
:102CA0007DD98385040013050480C205C181EF002E
:102CB00010686FD09F88EFD21F86B75400402A84D7
:102CC000938404808307040099E36FD01F879305E2
:102CD00000042685EF00B0667DD9830504002685B3
:102CE0000504C205C181EF009064E9BF8547631AFE
:102CF000F502B7070020B766002083C547310147BA
:102D0000938747319386868F1376F70F6365B600F6
:102D10002380070082803386E60023000600050733
:102D2000E5B789476317F502B7070020B7660020AB
:102D300083C557310147938757319386069C137695
:102D4000F70FE377B6FC3386E6002300060005079D
:102D5000FDB78D47E310F5FCB7070020B7660020EC
:102D600083C56731014793876731938686A81376B9
:102D7000F70FE37FB6F83386E60023000600050769
:102D8000FDB7EFD2AFF7B7440040AE8932890144B6
:102D900093840440634524014A856FD06FF99305FD
:102DA00000042685EF00B0597DD9B387890083855B
:102DB000070026850504C205C181EF005057D9BF21
:102DC0002390A1904157B7E700E02387E74023868F
:102DD000E740B7F700E023A0070023A207008146E1
:102DE00094C70147D8C737070020832587211307D9
:102DF000803E814633D6E5027D4790CBD4CB98C345
:102E00008280B7F600E0984ADC4A37F800E083D7C2
:102E10000190BA8598463385A702DC468147032690
:102E200088008326C800E30CC7FEBA976377E600E4
:102E3000918F3287E3E5A7FE8280AE97D5BFEFD2B0
:102E40008FEDAA840144636494006FD00FEF1305E3
:102E5000803E453F0504C5BF01A001A001A001A01F
:102E600001A001A001A001A001A001A001A001A05A
:102E700001A001A001A001A001A001A001A001A04A
:102E800001A001A001A001A001A001A001A001A03A
:102E900001A001A001A001A001A001A001A001A02A
:102EA00001A001A001A001A001A001A001A001A01A
:102EB00001A001A001A001A001A001A001A001A00A
:102EC00001A001A001A001A001A001A001A001A0FA
:102ED00001A001A001A001A001A001A001A001A0EA
:102EE00001A001A001A001A001A001A001A001A0DA
:102EF00001A001A001A001A001A001A001A001A0CA
:102F000001A001A001A001A001A001A001A001A0B9
:102F100001A001A001A097E1FF1F938121B017D16B
:102F200000201301210E17A500001305A51A97D53F
:102F3000FF1F9385250D1386018263FAC500832246
:102F4000050023A0550011059105E3EAC5FE17D53C
:102F5000FF1F1305252F973500209385E5BF637765
:102F6000B500232005001105E36DB5FEFD42739009
:102F700002BCFD4273904280B782000093820280BF
:102F800073A0023097D2FFFF9382420B93E232008C
:102F900073905230EFD01FE897E2FFFF938282E0F8
:102FA0007390123473002030EFD2EFD6B727014070
:102FB00093870740631EF500854513050020EF0049
:102FC000500F814513050020EF00B00E6FD0EFD6F3
:102FD000B737014093870780E31AF5FE854513054F
:102FE0000040EF00100D814513050040F1BF5C412A
:102FF0003707F1E01307F7EF944D7D8F9C41D58F94
:10300000D44DD58FD441A206D58FD98F5CC11C4534
:1030100037F7F1FF1307D77FD4457D8F9C49D58FB4
:1030200094458606D58FD98F1CC55C55370710FF90
:103030007D177D8FDC29FD1793F7F70FD207D98F06
:103040005CD582801C4589C593E717001CC582802A
:10305000F99BEDBF1C4589C593E707101CC582800D
:1030600093F7F7EFE5BF5C4193F5F50F01C6DD8DF2
:103070004CC1828093C5F5FFFD8DDDBF1C4593E7F4
:1030800087001CC5828008450D81058982801C450A
:1030900093E747001CC58280084509810589828025
:1030A0001C4591C537075000D98F1CC58280370752
:1030B000B0FF7D17F98FD5BFA54763F7B7048D47DC
:1030C000138765FF3307F7020328C5009D47B397B1
:1030D000E70093C7F7FFB3F70701B396E600DD8E6D
:1030E00054C5994763E3C70495477D163306F60236
:1030F0005859FD47B397C70093C7F7FFF98F339629
:10310000C5005D8E50D982800D473387E5020328C4
:1031100005019D47B397E70093C7F7FFB3F7070192
:10312000B396E600DD8E14C96DBFB14763E2C702F6
:10313000954765163306F6021859FD47B397C70041
:1031400093C7F7FFF98F3396C5005D8E10D9828043
:1031500095474D163306F6025855FD47B397C700FD
:1031600093C7F7FFF98FB395C500DD8D4CD58280ED
:1031700068454205418182801C4565777D17F98F3E
:10318000DD8D0CC5828008416D8D3335A0008280B5
:103190005C4191C537070004D98F5CC18280370735
:1031A00000FC7D17F98FD5BFEFD2EFB601112A844D
:1031B00023040100A5441C8463F9F40423040100E2
:1031C000A54621461C8463FFF6062315010023044F
:1031D000010095461C8463F1F60E38853C859946BE
:1031E0000D46B3F7D702056513050580B3D7C702AF
:1031F0003357D702BA97C207C1837C853C850561E6
:103200001D8D420541856FD04FB31C4493E7870065
:103210001CC42285EFF03FE76DFD1C4493E7470097
:103220001CC42285EFF05FE76DFD78441C84141008
:103230008607B6972396E7FE1C84850793F7F70F5A
:103240005C8495BFA30401009C846378F6001C8411
:10325000850793F7F70F5C84B5B798849C840C10AE
:103260000607850786072E97AE970357C7FE83D7B5
:10327000C7FE63FDE7029C848607AE9783D7C7FE2F
:103280007C859C84988485078607AE9783D5C7FE86
:10329000931717001810BA972396B7FE9C843885A9
:1032A0000C1085078607AE972396E7FE9C8485075A
:1032B00093F7F70FDC8449BF1C8410103885890709
:1032C0008607B29783D7C7FEBA97C207C1837C85AA
:1032D0001C84850793F7F70F5C84EDBD9C4513F7BD
:1032E000070113F8F70001C7D8413368E8008E21C1
:1032F00013F7F50F39C318418146854E3D4F930FA3
:10330000800293028004214E3396DE00B3F8C5009C
:10331000631116039398260033131F011343F3FF21
:103320003377E300B318180133E7E800639FF7052C
:1033300050C98506E39AC6FD18C11307F00F6375DF
:10334000B70454412146854E3D4F930F80029302AE
:103350008004414EB398CE0033F715016392E80222
:103360001317260001173313EF001343F3FFB3764F
:10337000D3003317E800D98E639DF701232A150186
:103380000506E319C6FD54C18280E39457FA10C9BB
:103390004DB7E39757FE23281501DDB708456D8D1E
:1033A0003335A00082800CC982804CC98280B70767
:1033B0000140635A0504DC4F9356050113180501BB
:1033C0003707300013F6F60013580801B376E5000E
:1033D00063500506639BE602930606010D46B3168D
:1033E000D60093C6F6FFF58F99C913575501137789
:1033F000F73F12073317E800D98F635705043707E3
:1034000001405CCF8280DC4345BF1317B500635693
:1034100007008D46B396C600E9B7135755011377D9
:10342000F73F12073317E8001347F7FFF98F6DBF17
:103430006390E602370601405442370700F17D17DA
:10344000F98F758F58C2D5F1370701405CC3828070
:103450001317B500635C07008D46B396C60093C68C
:10346000F6FFFD8EB707000FD58FF1BF135755013B
:1034700012073317E8001347F7FF7D8FB707000FD8
:10348000D98FD1B7EFD22F8979712A844621680864
:103490002EC6BD24925737470F001307072433D792
:1034A000E702C204C18093F404FCC204C180B245A7
:1034B00061651305056A131607014182D18C46A088
:1034C0001620C206C182F99AC206C18216A0944192
:1034D0006369D5048606B3D7D702914613970701CF
:1034E0004183BA876373D700914705064206C20736
:1034F0004182C18312B05EAC1E20DA21B62593E76B
:1035000017001EA01E20558FC207C18393F757BF17
:10351000D98F1EA09A25DE25D98F1EA445616FD0B4
:10352000CF81EA2131667D16631DC5020D46B38643
:10353000C602B3D7D702C207C1839396470199E267
:1035400093E71700A166D58F9306C0123307D70201
:103550009306803E3347D7020507420741831AB0DE
:1035600059BF6546B386C602B3D7D7029166C20774
:10357000C183D58FD9B71E2189C593E717001EA136
:103580008280C207C183F99BC207C183CDBF1E21C0
:1035900089C593E707101EA18280C207C18393F7F4
:1035A000F7EFC207C183C5BF1E2189C593E7072076
:1035B0001EA18280C207C18393F7F7DFC207C183D0
:1035C000C5BF1E2189C593E707401EA18280C2079F
:1035D000C18393F7F7BFC207C183C5BF0EA982801D
:1035E0000A291375F50F828093F7E50F19C293E747
:1035F0001500C207C1831EA982805E290A2D4205DB
:103600005D8D6D8D220521810D8D13351500828014
:10361000411102C402C693D7C5012AC63EC4A247BF
:10362000A205A18199CBB247D1073EC6B2478843D4
:1036300041016D8D3335A0008280B247C181E10721
:10364000EDB723A2A19082809387419094431821E3
:1036500081E63C21920721A894430546639FC60258
:103660003C21103192076314D60093E707F8B7E6C0
:1036700000E093F7F70FBA962380F64085469357FC
:1036800057003397E6005441A5C2938707048A0781
:10369000B7E600E0B69798C382808C438946639171
:1036A000D50214313C216365D6008A06B6975DB712
:1036B0009386E6038A06B69793F7F70F920775B7D6
:1036C00090438D46631CD60014313C216364D600C0
:1036D0008606E9BF9386C6078606F1BF94439147E5
:1036E000E39EF6F81C31BDB7938707064DB7B716B2
:1036F0000240DC4251777D17F98F5D8DC8C2828010
:10370000371702405C439146B18B6385D700A146D1
:103710006382D706B7177A00938707201CC1371634
:1037200002405C42370700201307C7039183BD8B1B
:10373000BA9794231C41B3D7D7005CC15442A182ED
:103740009D8ABA969422B3D6D70014C55442AD824E
:103750009D8A36971823B3D7E7005CC55842398352
:10376000937637001387C18036971823B3D7E702C3
:103770001CC982805C435843C166C983758FB7F604
:10378000FF1F83A6C670BD8B890713961601634879
:103790000600C54601466392D702C94739A8894643
:1037A000638FD702BD46638ED702C146638ED702B0
:1037B000C54601466393D700C1471DEF3747024016
:1037C00003270780418B05C737177A0013070720A7
:1037D000B307F7021CC121D61C41858381B701467E
:1037E0006DBF0546B547D1BF0146BD47F9B737178D
:1037F0003D0013070790E9BFB7150240D85593164F
:10380000F700D85563DF060411833D8B930617003C
:1038100037177A00130707203357D70218C1D4553A
:10382000A182BD8A8DE295463307D702058318C170
:1038300037170240585714413D8B050733D7E6022E
:1038400018C1184171B785456394B600E546E9BFD4
:10385000BD456396B600D1463387E602C9BF8906E7
:10386000E5BF3D8B9306170037177A001307072033
:103870003357D702F1B799C5371702401C4F5D8DFA
:1038800008CF8280B7170240984F1345F5FF798D16
:1038900088CF828099C5371702405C4F5D8D48CF35
:1038A0008280B7170240D84F1345F5FF798DC8CFF6
:1038B000828099C5371702405C475D8D48C782807A
:1038C000B7170240D8471345F5FF798DC8C78280E6
:1038D0001E2137370140930607C0C207C18363002A
:1038E000D504B7060040630CD502938606406308F2
:1038F000D502B7160040138606806302C502938680
:1039000006C0630ED50013070740630AE50037576A
:103910000140930607C06304D5006316E500BA2191
:1039200093F7F7F8D98F37170040630CE5001307BA
:1039300007406308E50093F7F7CFFA21C207C18378
:10394000D98F1EA1DE215EB59E211EB5B73701407D
:10395000138707C0630EE50093870740630AF500ED
:10396000B7570140138707C06304E5006314F500EF
:103970009C251EB985475EA982801E31922103D8FD
:103980002500C207C183F99BC207C1831EB11E3146
:1039900056211A2DC207C183420741831377C7F806
:1039A000518F9225F59BC20633660601D18F3736BB
:1039B0000140130806C0C182630E050113060640CC
:1039C000630AC50037560140130806C063040501A9
:1039D0006310C502B225DD9B03D8E500D18FD2214B
:1039E000ED9B93F6F6CFD18FD22533660601D18EAB
:1039F00056A11AADFA215AB91EB182801E2189C57D
:103A000093E717001EA18280C207C183F99BC207FA
:103A1000C183CDBF1E2DC207C183DD9BDD8D0EADE1
:103A200082804EB98280EFC21FAF1629F577FD174D
:103A3000F58FF621DA257971D58F1EA95625FD77E8
:103A40009387379FF58FD6212A842EC6D58F96254A
:103A5000D58FB625D58F5EA55E29C207C18393F7A2
:103A6000F7CFD98F5EA96808EFF09FC9B74701402B
:103A700093870780B245631AF404A257562465471A
:103A8000B387E702C206C186984163D206040607DF
:103A900052244206B3D7E702130740064186B3D645
:103AA000E702B3F7E7029206635506028E07938793
:103AB0002703B3D7E70213F77700B367D700C2072E
:103AC000C1831EA445616FC05FA7925745BF0A0717
:103AD000C1B7920793872703B3D7E702BD8BD58F72
:103AE000F9BF91C55E250967D98F5EA582805A25E9
:103AF000F977FD17F98FD5BF13F7F50F85471583B4
:103B0000B395B7006319F7009307C500984301CE3A
:103B1000D98D8CC38280894693074501E318D7FE6F
:103B200093070501E5B793C5F5FFF98DDDB793F56B
:103B3000F51F4EA182804A211375F51F82800A214C
:103B40006D8D3335A000828013F7F50F8546158300
:103B5000B397B6006311D7025A25F98F1A21014590
:103B60004207418381CB0545A181B315B5006D8F17
:103B70003335E000828089466314D7001A29F1BFEB
:103B80005A29E1BFA1818547B397B70093C7F7FFD3
:103B9000C207C1831EA18280EFC2FF977971AA84F8
:103BA0002E84130500028545EFF0FFCC85451145B5
:103BB000EFF05FCE85450545EFF0FFCB8545056508
:103BC000EFF0EFFE8567FC8237150140E1473ECEFE
:103BD0004C088D47130505403ECCEFF02FF0608474
:103BE000371400402C00130504806486231701005D
:103BF00023150100EFF0DFCDC167938707070C1095
:103C0000130504803ED023140102EFF01FD71305E3
:103C10000480A145EFF01FE0854513050480EFF017
:103C2000FFDD45616FC07F91EFC2FF8E39711306D2
:103C3000000281450810EFC01F918545114502CA59
:103C400002CC02CE02C602C8EFF0FFC285451305C2
:103C50000020EFF05FC21165EFF07FA9371501403A
:103C60004C08C14713050580FC8202CEEFF00FE738
:103C70009307201285446800372401407C8626C8BB
:103C800023070100EFF05F9C13050440EFF0CFB174
:103C9000C1673ED00C10B7070E00130504403ED696
:103CA000230A910202D202D402D802DC02DEEFF033
:103CB0000FB49D460546914513050440EFF0CFBF74
:103CC0009D6513050440EFF02FCB05469305004892
:103CD00013050440EFF02FB9854513050440EFF0BC
:103CE0006FB7854513050440EFF0CFB58145130547
:103CF0000440EFF0EFC913050440EFF02FB8930430
:103D000004402685EFF02FB86DFD130504403724DD
:103D10000140EFF0CFB7930404402685EFF0CFB712
:103D20006DFD13050440EFF02FC82394A190854545
:103D300013050440EFF0CFC521616FC01F80EFC2B3
:103D40008FFD372501408545130505403724014087
:103D5000EFF00FB59304044089452685EFF0AFC21C
:103D600065DD13050440EFF0AFC06FC00FFDEFC27B
:103D7000EFF801112A8AAE8921458545EFF0BFAFE2
:103D8000854537052000EFF0FFB037140140930759
:103D9000000471498D444C00130504C07C824AC65E
:103DA00026C4EFF0AFD3930700084C00130504C0FE
:103DB0007C824AC626C4EFF06FD2B7070040375462
:103DC00000403ECA93070040FC850C08916713052C
:103DD0000440FC8652C8231C3101EFF0AFEA130502
:103DE00004408545EFF02FF9854513050440EFF0B9
:103DF0004FFD05616FC0CFF3EFC26FEFB7540040C6
:103E00002A84AE89138504408545328AB68AEFF04C
:103E10004FFB138504408545B70403003759004024
:103E2000EFF0EFF68504130B0940A6855A85EFF0F5
:103E3000CFFC65DD06041305094001469375E40FC8
:103E400037090700B7540040EFF00FFA13092908AB
:103E5000138B0440CA855A85EFF02FFA65DDCE85B5
:103E600013850440EFF08FF7138504408545B704B0
:103E7000030037590040EFF08FF1850493090940A2
:103E8000A6854E85EFF06FF765DD93651400054656
:103E900093F5F50F13050940B704030037540040AC
:103EA000EFF08FF4890413040440A6852285EFF017
:103EB000CFF465DDB7540040370900109384044007
:103EC000014413090904930BEAFFA689631C44010A
:103ED00037550040854513050540EFF0EFEC0145EF
:103EE0006FC06FE4CA852685EFF08FF265D1338B02
:103EF0008A006316740181454E85EFF08FEC4E8584
:103F0000EFF00FEE2300AB000504C9B7EFC2AFE03E
:103F100041112A89AE843284340019469305B003D6
:103F200013058006EFF05FED0DE11C849884A20775
:103F3000D98F2310F9001C859885A207D98F9EA0E0
:103F40001C869886A207D98F1EA041016FC0EFDEA4
:103F5000EFC2CFDA37540040AA892E8913050440F6
:103F60008545EFF00FE6130504408545370403004F
:103F7000B7540040EFF0AFE10504138A0440A28576
:103F80005285EFF08FE765DD138504400146930508
:103F9000000DB704070037540040EFF0EFE49384BE
:103FA000240813040440A6852285EFF00FE565DDA3
:103FB00037040010B754004013040408138A044067
:103FC000A2855285EFF0CFE465DD13850440CE85F0
:103FD000B704070037540040EFF04FE093844408E3
:103FE00013040440A6852285EFF02FE165DDB704B8
:103FF0000010375400409384040893090440A685B8
:104000004E85EFF0EFE065DDCA8513050440EFF063
:10401000EFDC130504408545EFF00FD901456FC073
:104020002FD1EFC2AFCD3754004085452A89130503
:104030000440EFF00FD91305044085453704030011
:10404000B7540040EFF0AFD4050493890440A28533
:104050004E85EFF08FDA65DD138504400146930548
:10406000000D37040700B7540040EFF0EFD71304FA
:10407000240893890440A2854E85EFF00FD865DDB2
:10408000CA851385044037040700B7540040EFF099
:10409000EFD41304440813890440A2854A85EFF045
:1040A000CFD565DD13850440854537040300B7543B
:1040B0000040EFF0CFCD050413890440A2854A8566
:1040C000EFF0AFD365DD1385044005469305100D71
:1040D000B704030037540040EFF00FD189041304F4
:1040E0000440A6852285EFF04FD165DDB7040010AE
:1040F000375400409384040413090440A6854A857C
:10410000EFF00FD165DD13050440EFF06FCDAA8409
:10411000854513050440EFF02FC926856FC04FC1B8
:10412000EFC26FBF616589451305056AEFF03FC4B3
:10413000930500081305B006EFF09FE11305800C0E
:10414000EFE0FFCF81451305B006EFF07FE09D451E
:104150006545EFF0FFDF99456945EFF07FDF854565
:104160007145EFF0FFDEE1456D45EFF07FDE814503
:1041700013058003EFF0DFDD81451305A006EFF0A6
:104180003FDD814513053002EFF09FDC9305000809
:1041900013057003EFF0DFDB13055007EFF07FE846
:1041A0001307800685476311E50285451305B006B0
:1041B000EFF01FDA81451305C006EFF07FD99D456A
:1041C0006545EFF0FFD881473E856FC00FB7EFC25E
:1041D0008FB437D500001305859CEF00D06A130516
:1041E000401FEFE0DFC537D500001305C59CEF0089
:1041F00090691305401FEFE09FC437D500001305F9
:10420000859DEF0050681305401FEFE05FC337D571
:1042100000001305859EEF0010671305401FEFE0B7
:104220001FC20945EFE09FAC37D500001305059F7D
:10423000EF0070651305401FEFE07FC037D5000029
:104240001305859FEF0030641305401FEFE03FBF6B
:1042500037D50000130505A0EF00F0621305401FDD
:10426000EFE0FFBD0945EFE07FA837D5000013055B
:10427000C5A0EF0050611305401FEFE05FBC09458A
:10428000EFE0DFA637D50000130585A1EF00B05F92
:104290001305401FEFE0BFBA0945EFE03FA537D552
:1042A0000000130545A2EF00105E1305401FEFE06C
:1042B0001FB90945EFE09FA36FC02FA8EFC2AFA5BC
:1042C00037D50000130505A3EF00F05B1305401F71
:1042D000EFE0FFB60945EFE07FA137D500001305F9
:1042E00045A5EF00505A1305401FEFE05FB50945A3
:1042F000EFE0DF9F37D50000130545A8EF00B05869
:104300001305401FEFE0BFB30945EFE03F9E6FC0CC
:10431000CFA2EFC24FA005712E84B7D50000AA84AA
:1043200032899385C5A91306C008C808B6C6BAC4A1
:10433000BEC2C2C046DEEF408028032641200325CE
:10434000411F32D60326012032D40326C11F32D2A8
:104350000326811F32D0EF30507E2ACC0325011F67
:104360002ECEEF30907DF2582AC82ECA4685EF3007
:10437000D07C06482AC42EC64285EF30107C964772
:104380002647B6463E882286BA872AC036872EC27E
:10439000CA86CC088811EF00904C8811EF40D06994
:1043A0002A842A868C112685EF4060211375F40F2C
:1043B0003D616FC08F98EFC28F932A890945AE8403
:1043C000EFE0DF9237D50000130505B5EF00B04BE5
:1043D0001305401FEFE0BFA6B7D50000B769002066
:1043E0009385459C1385099CEF40F06823A6A19016
:1043F000630A0538B707002003CE573193077003CF
:1044000063F2C7399387099CF42713074002639B23
:10441000E636F437130770046396E636902B1307DD
:10442000E0046311E636983B631ED734B42B639BDC
:10443000E634B83B930710046316F73401449387BE
:10444000099C014781460945114885489305C002EA
:104450009023631BA7326308B600130314004A9429
:1044600010A01374F30F90236316B600050713779B
:10447000F70F0544850693F6F60F8507E31ADEFC71
:1044800081499306E002C5473304390118204A8A5E
:10449000631CD7301387F9FF4A971C231CA093870E
:1044A000E9FFCA97882308A394A3130505FDA9472C
:1044B0003305F5021C203E95130505FDEF20104C39
:1044C0002A8B0830AE8B130505FDEF20304BB7D794
:1044D000000003A607B383A647B3EF20C00A2A86CD
:1044E000AE865A85DE85EF1060302A8B2820AE8B91
:1044F000130505FDEF209048B7C7000003A607721B
:1045000083A64772EF2020082A86AE865A85DE856C
:10451000EF10C02D2A8B2830AE8B130505FDEF2040
:10452000F045B7D7000003A687B383A6C7B3EF2033
:1045300080052A86AE865A85DE85EF10202B2A8BD1
:104540004820AE8B130505FDEF205043B7D7000080
:1045500003A607B483A647B4EF20E0022A86AE86FE
:104560005A85DE85EF1080282A8B4830AE8B0144B7
:10457000130505FDEF209040B7D7000003A687B4D0
:1045800083A6C7B4EF2020002A86AE865A85DE8532
:10459000EF10C025EF303065B7D7000083A587B294
:1045A000154BEF300029B7C7000083AC8771B7D730
:1045B000000083ABC7B2E685EF30E0632A8CEF30B2
:1045C000504513050503B3878900CA97937AF50F01
:1045D000A38F57FFDE856285EF20106F2A8C5685EA
:1045E000EF305049AA8505046285EF30100AE314C4
:1045F00064FD450983471A00050AA30FFAFEE31B71
:1046000049FF01499306E002C5473384240118207D
:10461000A689631FD7181307F9FF26971C231CA030
:104620009307E9FFA697882308A394A3130505FD24
:10463000A9473305F5021C203E95130505FDEF2023
:10464000F0332A8A0830AE8A130505FDEF201033B7
:10465000B7D7000003A607B383A647B3EF10B07225
:104660002A86AE865285D685EF1040182A8A2820E1
:10467000AE8A130505FDEF207030B7C7000003A612
:10468000077283A64772EF1010702A86AE86528595
:10469000D685EF10A0152A8A2830AE8A130505FDAD
:1046A000EF20D02DB7D7000003A687B383A6C7B3EA
:1046B000EF10706D2A86AE865285D685EF100013F6
:1046C0002A8A4820AE8A130505FDEF20302BB7D784
:1046D000000003A607B483A647B4EF10D06A2A8669
:1046E000AE865285D685EF1060102A8A4830AE8A91
:1046F0000144130505FDEF207028B7D7000003A67D
:1047000087B483A6C7B4EF1010682A86AE86528598
:10471000D685EF10A00DEF30104DB7D7000083A560
:1047200087B2954AEF30E010B7C7000003AC87713D
:10473000B7D7000083ABC7B2E285EF30C04B2A8BFE
:10474000EF30302D13050503B3078900A697137AC0
:10475000F50FA38F47FFDE855A85EF20F0562A8B91
:104760005285EF303031AA8505045A85EF30E0716B
:10477000E31454FDC50483C719008509A38FF9FE0E
:10478000E39B34FF6FB03FDA63180701E30DB6CC4B
:10479000130314002694E9B1E31717CDE305B6CC53
:1047A00005041374F40FC1B18509E39FF9CC91B5E9
:1047B0000509E31CF9E47DBFEFB25FD441118545E3
:1047C00013050004EFF02F8BB7290140C1440549C0
:1047D0000D444C00138509802312210126C622C4F2
:1047E000EFE0DFAF138509808545EFE01FBC85450D
:1047F0002145EFF04F8822C4371401404C001305C7
:1048000004C02312210126C6EFE05FAD09494C0028
:10481000130504C02312210126C6EFE03FAC1305A7
:1048200004C08D45EFE07FB885451145EFF0AF84BA
:10483000930780024C0013050480231221013EC619
:10484000EFE0DFA941016FB0BFCEEFB2DFCC85470B
:10485000138401816319F50208A0B714014089454A
:1048600013850480EFE09FB30DE12945EFE02FDDD4
:1048700089451385048023000400EFE03FB213351F
:1048800015006FB09FCB1C20E9FB3715014089450F
:1048900013050580EFE09FB0AA8705470145E39225
:1048A000E7FE1CA0F9BF011106CE2EC60DCD1841A2
:1048B000AA8705C358417D5511CB8546631BD70098
:1048C00098472300070023A207000545F240056131
:1048D00082809847B24614A39847050798C7D843E3
:1048E0007D17D8C3DDB705466C00EFE08FC9F1BF77
:1048F000797122D426D24ECE52CC56CA06D64AD090
:104900005AC82A8AAE8A32848144930900026344D9
:104910000602B3879A00838707009DE363D684026B
:1049200063D2E402198C93F726009309000281C731
:1049300019E393090003858A014985EA228931A890
:104940008504C1BF058CC5B70144F1BFCE85528532
:104950003AC6EFF05FF532477D19E34920FF22891F
:104960006353040001493304244163CBE402CA8445
:10497000B3872441D69783850700A1E12289634349
:10498000200563530400014433059400B2502254BF
:1049900092540259F249624AD24A424B456182809E
:1049A000B3049740268B9305000352857D1BEFF0DF
:1049B0009FEFE31A0BFE26995DBF5285EFF0BFEE25
:1049C00085047DB7CE855285EFF0FFED7D1945BF9B
:1049D0005D71A6C252DC86C6A2C4CAC04EDE56DADB
:1049E000BA843E8A9DE1930700030147D28626865A
:1049F0002C08FC84EFF0DFEFB640264496440649CD
:104A0000F259625AD25A616182802A893684C68AF2
:104A100091CAA94701446317F60063D50500B305A1
:104A2000B0400544A30701029307F102A546130510
:104A300068FC33F7C50263D3E6002A971307070320
:104A4000A38FE7FE9389F7FF33D7C50263FBC50445
:104A500009CCB9C813772A0021CB9305D0024A8527
:104A600042C6EFF05FE43248FD1493774A008DC3ED
:104A700093071006930500034A85631FF802EFF0C1
:104A80009FE2930580074A85EFF0FFE10904F914DE
:104A90005687D2862686CE854A85EFF07FE5229519
:104AA000A1BFBA85CE8771B71307D002A38FE9FEE5
:104AB00001449389E7FF55BFEFF0FFDE93058005C2
:104AC000D9B71D71CAC8CEC6D6C2DAC03A8986CE59
:104AD000A2CCA6CAD2C45EDE62DC66DA6AD86ED622
:104AE00033E7C500BE89AA8A428B8347010631E3BA
:104AF0008DCF8D679387D7027C8423050100014702
:104B0000DA864E862C005685EFF09FDEF64066442E
:104B1000D6444649B649264A964A064BF25B625C41
:104B2000D25C425DB25D25618280930700037C8484
:104B3000F9B7368AAE84328463000902A947014975
:104B4000639CF600635A0600B304B040B33790008C
:104B50003304C0401D8C0549A30F0100130DF10162
:104B6000935DFA41A54C138C68FC5286EE8626852F
:104B7000A285EF00100F63D3AC0062951305050307
:104B8000A30FADFE5286EE862685A285930BFDFF10
:104B900081236366B401639A8D0263F84403630D55
:104BA00009006388090293772B0085C79305D0021B
:104BB0005685EFF05FCFFD190147DA864E86DE8518
:104BC0005685EFF0FFD24A9591B7AA842E845E8D68
:104BD00069BF9307D002A38FFBFE0149930BEDFF42
:104BE000E1BF5D71A6C2CAC0AA842E892E85B28596
:104BF00086C63ACE42CCA2C44EDE52DCB289368A98
:104C000056DA5AD8BE8A5ED662D466D2468C6AD04C
:104C1000EF2060642A8BAE8B01468146CE854A85A3
:104C2000EF10100B724762487D81BA872AC0054792
:104C3000E288D286DA855E862685EFF09FE82A8DA7
:104C40009305E0022685EFF01FC6050D8147854CD0
:104C50000144294763CE57075A85DE85EF20606BF4
:104C60002A86AE864A85CE85EF10705D2A89AE8988
:104C70006685A285EF20E0692A86AE864A85CE85C4
:104C8000EF107010EF20205D13D6F541318DB34742
:104C9000B600B305C5403335B5003386C74002C002
:104CA000E288D687D286098E094826850547EFF027
:104CB0005FE1B64026446A9596440649F259625A25
:104CC000D25A425BB25B225C925C025D616182807F
:104CD000B3068702850733349703B30C97033694E2
:104CE00095BF5D715AD837DB0000A2C4A6C2CAC006
:104CF0004EDE52DC56DA5ED662D486C666D2AA8909
:104D00002E893284014A8144930B5002930AB002E7
:104D1000294C130B4BB6830509008DE5638609000A
:104D200081454E85EFF03FB8B640264426850649BA
:104D30009644F259625AD25A425BB25B225C925C50
:104D400061618280638875014E85EFF0DFB585046F
:104D50000509D1B783071900930C1900639A7701ED
:104D6000930550024E85EFF01FB485046689CDB7D8
:104D7000D5D76387570563C8FA00130730026384E9
:104D8000E704814705A01307D002638AE7001307F1
:104D90000003E398E7FE930C2900894721A0930CB8
:104DA0002900854703870C006303570563C1EA02A6
:104DB00093063002630BD70266890145A54535A8E5
:104DC000930C29007DBF930C29009147E1BF930606
:104DD000D0026309D70093060003E31FD7FC93E7D3
:104DE000270031A0850C8547C1BF93E74700850C9C
:104DF000E1B73305850305093695030709009306D6
:104E000007FD13F6F60FE3F6C5FE1306E00299461A
:104E1000631EC700050981462546030709001307DD
:104E200007FD9375F70F6375B602368A030709000D
:104E30001306A0066309C70A6341E6021306C0040D
:104E40006303C70A130680066308C70801461DA846
:104E5000B38686030509BA96C9B7130640076304EB
:104E6000C7081306A0076300C7089305C0060146DC
:104E7000631AB700830519000D466394E500050920
:104E800011460509030709009305000613081006DB
:104E900063C4E500130810049305700663C2E506B9
:104EA000930550066359B7169305700463CFE50266
:104EB000130650046351C71693063004E31AD7E86B
:104EC0001840930C4400A30E0100230EE100BE869F
:104ED00001472A866C0871A0830519000146E393F7
:104EE000E5FA090945B7050995B793063006E309C0
:104EF000D7FC63CEE606930680056303D70289BD1F
:104F0000930630076306D70463CDE6029306F006E6
:104F1000630BD70C9306000793E74700E31AD7E229
:104F20001147631BE60A1D04137784FF0C435043AB
:104F300013048700C28802C03E880147AA87C14681
:104F4000B9A0930650076303D7069306800775B789
:104F50001840930C4400DA8511C3BA855287BE8687
:104F60002A864E85EFF0DF98AA946684D5B3114760
:104F70006314E6021D04137784FF0C4350431304AB
:104F80008700C28802C03E880547AA87A9464E8589
:104F9000EFF03FB3AA946DBB0C40D28811042A876E
:104FA000854629464E85EFF0BFA2EDB71147631F36
:104FB000E6001D04137784FF0C435043130487005D
:104FC000C28802C03E880147AA87C9B70C40D28870
:104FD00011042A878146F1B70C40D28811042A8730
:104FE00081464146C1B711476310E6021D0413779D
:104FF00084FF0C43504313048700C28802C03E88DC
:105000000147AA87A14661B70C40D28811042A87BC
:105010008146214641BF1D04137684FF1304860098
:105020000C4250423307D540C2887D173E884E85DA
:10503000B687A946EFF0FFBAB1BF39712ED232D48C
:10504000AA855010014506CE36D63AD83EDA42DC63
:1050500046DE32C6EFF0FFC8F2402161828039712E
:1050600032D43EDA2AC63010FD57480006CE36D676
:105070003AD842DC46DE02C23EC432C0EFF07FC600
:10508000F24021618280011122CC26CA06CE1C2169
:10509000AA840144DC878307F100050499EFA9473E
:1050A0009305F10005460145DC87EFD09FCD2285B1
:1050B000F2406244D2440561828005469305F100C6
:1050C0000145EFD01FCCB38784009C23DC87E1B778
:1050D000B687B2882A832E88639B061463F8C50AB4
:1050E0004167636BE61AB70700016360F6349356B5
:1050F0008601E14717870000130787BB36971823FF
:10510000BA97130700021D8F19CB3398E500B357E8
:10511000F500B318E60033E807013313E50013D6B2
:1051200008013355C80293960801C18293570301C1
:105130003377C802B385A60242073368F700637A63
:10514000B80046989307F5FF636418016365B830AB
:105150003E853308B8403357C80242031353030156
:105160003378C802B386E602420833686800637B7E
:10517000D80046989307F7FF6365180179176363B2
:10518000D8003E874205598D8145828001E605475A
:10519000B358C702416763E8E80EB707000163EA46
:1051A000F82893D68801E14717870000130747B016
:1051B00036971423BE9693070002958FFDE7939EC2
:1051C00008013387154113DF080193DE0E01854581
:1051D000935703013355E7033377E703B306D5034A
:1051E0004207D98F63FAD700C6971307F5FF63E428
:1051F000170163E5D7263A85958F33D7E703420336
:1052000013530301B3F7E703B30ED703C207B3E7A2
:10521000670063FBD701C6979306F7FF63E51701A5
:10522000791763E3D70136874205598D828063E1A0
:10523000D504C16763E1F604B707000163E3F61E16
:1052400013D78601614897870000938767A6BA97AE
:105250009823130E00024297330EEE40631A0E0C91
:1052600063EDB61C3335C5001345150081458280BA
:105270008145014582809307F00F63F3D71C13D754
:1052800086002148C9B71307F00FC686E37E17F1E1
:1052900093D68800A14709BF1307F00FB286E37BBE
:1052A000C7E493568600A147B1B5B398F80033D64A
:1052B000D50013DF0801335EE6033397F500B356DC
:1052C000D500558F939E080193DE0E013313F50030
:1052D00093550701B376E603B387CE03C206CD8E9E
:1052E00063FBF600C6961306FEFF63E4161763F22F
:1052F000F616791EC6969D8E33D6E60393170701E0
:10530000C183B3F6E6033385CE02139706015D8FA2
:10531000637BA70046979307F6FF636817136376CE
:10532000A7127916469793150E01098FD18D4DB5A9
:10533000B357E600B396C601DD8E33D3E50013DF25
:105340000601B357E303939E060193DE0E013398E3
:10535000C5013357E5003368070193580801331638
:10536000C6013373E303B385FE024203B36813013E
:1053700063FBB800B6981387F7FF63EAD80C63F8AD
:10538000B80CF917B698B388B84033D7E803420889
:1053900013580801B3F8E8033383EE02C208B3E5FB
:1053A000080163FB6500B6951308F7FF63EDD508A8
:1053B00063FB65087917B695C207416FD98F13074C
:1053C000FFFFB3F6E70093D80701718F4182B38ED8
:1053D000E602B3856540B386C60213D80E01338753
:1053E000E802BA96C2963386C80263F3E6007A965C
:1053F00093D80601469663E2C5026385C5003E85E3
:105400008145828041677D17F98EC206B3FEEE00AA
:105410003315C501F696E374D5FE1385F7FF814574
:10542000828013D70601414839BD93560601C14712
:10543000D1B193D60801C14785BB8145054582801E
:105440003687014809B5428785BF3E86E9BDBA87E0
:105450001DBF328E4DB579154698E5B97915C697B9
:1054600061BBB68732882A832E872E8E63910614FD
:1054700063F0C50A41676376E61A1307F00FB28638
:105480006375C70093568600A1471787000013076E
:1054900027823697182393080002BA97B388F840FA
:1054A000638C0800B3951501B357F5003318160146
:1054B00033EEB7003313150113560801B357CE026C
:1054C00013150801418193560301337ECE02B307C1
:1054D000F502420E3367DE006378F700429763659A
:1054E00007016373F70042971D8FB356C7029317E6
:1054F0000301C1833377C7023305D5024207D98F31
:1055000063EBA7083385A740335515018145828099
:1055100001E605473358C7024167636BE80EB707DA
:1055200000016364F82A93568801E1471777000069
:10553000130707783697182393080002BA97B388A1
:10554000F840639A081E131E0801B38505411356DF
:105550000801135E0E0113570301B3D6C502B3F55C
:10556000C502B386C603C2054D8F6377D700429745
:1055700063640701636AD726158F3355C702420358
:10558000135303013377C7023305C5034207B367DB
:10559000670063F8A700C29763E5070163F3A700FC
:1055A000C2973385A74033551501814582802A88EB
:1055B000E3EFD5F4C16763E5F604B707000163E2E2
:1055C000F62013D38601E148977700009387476E52
:1055D0009A9703CE070013030002469E3303C3418C
:1055E0006319030463E4B6006369C5003308C5406A
:1055F000958D333705013387E5404285BA85828032
:105600009307F00F63FBD71C13D38600A1486DBF2F
:105610001307F00FC286E37B07F193568800A1477A
:1056200031B7B70700016366F61A93568601E14762
:10563000A9BDB357C601B3966600DD8EB3D8C501C8
:1056400013D70601B3DEE802139F0601B357C50165
:10565000135F0F01B3956500DD8D13D80501331677
:10566000660033156500B3F8E802B307DF03C2082C
:1056700033E80801637BF80036989388FEFF636384
:10568000D8166371F816F91E36983308F840B357E8
:10569000E802C205C1813378E802330FFF02131715
:1056A00008014D8F637BE70136979385F7FF6369A8
:1056B000D7126377E713F9173697C20EC162B3EEBC
:1056C000FE001388F2FFB3F80E019355060193DE36
:1056D0000E0133780601B38F08033307E74133889F
:1056E0000E0393D70F01B388B802C298C697B38E42
:1056F000BE0263F30701969E41687D1893D50701AA
:10570000B3F70701C207B3FF0F01F695FE97636277
:10571000B70A630EB708B307F5403335F500B30594
:10572000B740898D339EC50133D567003365AE0020
:10573000B3D5650082803318180133D7F5001356AE
:105740000801B356C702131E0801B357F500135ED4
:105750000E01B3951501DD8D93DE0501331315019F
:105760003377C702B307DE0293160701B3E6D6010B
:1057700063F8F600C29663E5060163F3F600C2968D
:105780009D8E33D7C60293970501C183B3F6C60237
:105790003307EE0293950601DD8D63F8E500C295AF
:1057A00063E5050163F3E500C295998D6DB3E3747C
:1057B000F5F63386C740B3B7C700B6979D8DB2875D
:1057C00099BF13D30601C14801B593560801C147DB
:1057D000B1BB93560601C1474DB936838148EDB33D
:1057E000AE87E1BDC68E55B5429779B33708100034
:1057F00001117D183377B80026CA3378D80093D4C6
:10580000450113D34601131E37004EC61357D50169
:105810000E089357D60193F4F47F1373F37F06CEEB
:1058200022CC4AC893D9F50193DEF6013367C7014C
:10583000131F350033E80701931F3600338E644091
:105840006380D9196356C0136304031CB706800034
:105850009307F07F3368D800638FF4369307800393
:1058600063C0C735FD4763CDC74713050002330545
:10587000C541B3D7CF01B316A8003399AF00DD8E71
:1058800033392001B357C80133E926011D8F33098D
:105890002F41B3372F013306F7409317860063D4A7
:1058A0000724370780007D173374E600630C042C4F
:1058B0002285EF20F049130785FF93070002998F97
:1058C000B357F9003316E400D18F3319E90063416F
:1058D000972A33059740130615007D47634DC73857
:1058E00013070002118FB356C9003319E90033972B
:1058F000E700558F333920013369270133D6C700BC
:1059000081449377790081CF1377F9009147630839
:10591000F70013074900333927014A963A8993174C
:10592000860063D6071C138514009307F07FCE858D
:105930006304F520B70780FFFD17F18F9398D70117
:1059400013593900A607B3E82801B1831375F57F11
:105950009396C7005205F2406244B182FE05C98E9B
:10596000CD8ED2444249B2494685B68505618280D2
:10597000631E0E0A138314001373E37F631703225D
:10598000B367E701B368F801639D041A63870740B2
:10599000638608443309FF41B307074133362F01BB
:1059A0003386C7409317860063D6074C3389EF418F
:1059B000B307E84033B62F013386C740F68991B765
:1059C0006350C00F6300030CB70680009307F07F9D
:1059D0003368D800638AF43A9307800363CBC71314
:1059E000FD4763DFC73513090EFE93070002B35668
:1059F0002801630AFE00130900043309C941331961
:105A00002801B3EF2F013339F0013369D90031A2F6
:105A1000B367F801638A071C9307FEFF638C07389E
:105A20009306F07F6309DE1A3E8E0DBDB3059340E9
:105A300063910422B367E701638707329387F5FF19
:105A4000638107449306F07F638CD520BE8593075E
:105A5000800363CCB72AFD4763CFB73C93070002AE
:105A60008D8F3319F700B356BF00B317FF003369AA
:105A7000D900B337F0003357B7003369F900330862
:105A8000E84041ACB367F801638007349307FEFF39
:105A9000638A07209306F07F6308DE2E3E8E2DBFBB
:105AA000631E0E149386140093F7E67F6391073408
:105AB000B367E7016395042C6380073EB367F80181
:105AC000638E07303309FF01B3070701333FE90154
:105AD0003386E7019317860063D70700B70780FF77
