:020000040800F2
:100000002808002089010008E10500082D050008E6
:1000100031050008390200084B15000800000000F7
:10002000000000000000000000000000810B00083C
:100030003D02000800000000690A00086D0C00087D
:10004000A3010008A3010008A3010008A301000800
:10005000A3010008A3010008A3010008A3010008F0
:10006000A3010008A3010008A3010008A3010008E0
:10007000A3010008A3010008A3010008A3010008D0
:10008000A3010008A3010008A3010008A3010008C0
:10009000A3010008A3010008A3010008A3010008B0
:1000A000A3010008A3010008A3010008A3010008A0
:1000B000110F0008A3010008A3010008A301000814
:1000C000A3010008A3010008A3010008A301000880
:1000D000A301000879130008A3010008A301000888
:1000E000A3010008A3010008A301000800F002F822
:1000F00000F03AF80AA090E8000C82448344AAF188
:100100000107DA4501D100F02FF8AFF2090EBAE885
:100110000F0013F0010F18BFFB1A43F0010318473B
:10012000EC1D00000C1E0000103A24BF78C878C1F6
:10013000FAD8520724BF30C830C144BF04680C60ED
:10014000704700000023002400250026103A28BF35
:1001500078C1FBD8520728BF30C148BF0B60704739
:100160001FB51FBD10B510BD00F033F81146FFF7E5
:10017000F7FF01F023FA00F051F803B4FFF7F2FFA4
:1001800003BC01F0E4F90000094880470948004732
:10019000FEE7FEE7FEE7FEE7FEE7FEE7FEE7FEE737
:1001A000FEE7FEE704480549054A064B7047000094
:1001B000710C0008ED00000828020020280800202B
:1001C00028040020280400207047704770477047BB
:1001D0007047754600F02CF8AE4605006946534658
:1001E00020F00700854618B020B5FFF7DBFFBDE81B
:1001F00020404FF000064FF000074FF000084FF08E
:10020000000B21F00701AC46ACE8C009ACE8C0091E
:10021000ACE8C009ACE8C0098D46704710B504468B
:10022000AFF300802046BDE81040FFF7A6BF0000F6
:1002300000487047C401002000BFFEE7704700007F
:1002400000B587B00121042000F010FC0121082036
:1002500000F01CFCC020ADF8000004208DF8030065
:1002600069461F4800F094F804A801F07BF80020CC
:10027000ADF810004FF6FF70ADF814000020ADF897
:100280001600ADF8120004A9164801F019F8002371
:100290001A460321134800F099FE01A800F01EFF42
:1002A0000A20ADF80C0001A90E4800F0C1FE0121A2
:1002B0000C4800F079FE012211460A4800F017FFB1
:1002C0000021084800F0CEFF47F6FF7005492431B1
:1002D00008800121034800F06DFE07B000BD00005A
:1002E000000C01400008004000B587B00121022049
:1002F00000F0BCFB0121042000F0C8FBC020ADF8D9
:10030000000004208DF8030069461F4800F040F803
:1003100004A801F027F80020ADF810004FF6FF7098
:10032000ADF814000020ADF81600ADF8120004A9D5
:10033000164800F0C5FF00231A460321134800F0B9
:1003400045FE01A800F0CAFE0A20ADF80C0001A984
:100350000E4800F06DFE01210C4800F025FE012240
:1003600011460A4800F0C3FE0021084800F07AFF59
:1003700047F6FF700549243108800121034800F049
:1003800019FE07B000BD0000000801400004004055
:100390002DE9F0410246002500260020002300241C
:1003A000002791F803C00CF00F0591F803C00CF082
:1003B000100CBCF1000F03D091F802C04CEA050507
:1003C00091F800C0BCF1000F31D0146800202BE080
:1003D0004FF0010C0CFA00F3B1F800C00CEA030670
:1003E0009E4220D183004FF00F0C0CFA03F7BC4360
:1003F00005FA03FC4CEA040491F803C0BCF1280F91
:1004000006D14FF0010C0CFA00FCC2F814C00AE04F
:1004100091F803C0BCF1480F05D14FF0010C0CFA64
:1004200000FCC2F810C0401C0828D1D31460B1F8F9
:1004300000C0BCF1FF0F34DD546800202EE000F155
:10044000080C4FF0010808FA0CF3B1F800C00CEAF0
:1004500003069E4221D183004FF00F0C0CFA03F7E4
:10046000BC4305FA03FC4CEA040491F803C0BCF158
:10047000280F05D100F1080C08FA0CF8C2F8148016
:1004800091F803C0BCF1480F07D100F1080C4FF000
:10049000010808FA0CF8C2F81080401C0828CED3D6
:1004A0005460BDE8F08141617047016170470AB155
:1004B000016100E0416170472DE9F047044689463B
:1004C000164801F046F84FF47A714843C82100FB02
:1004D00001FA504601F00DF90746114A114B01F09F
:1004E0001FF9054601F0D6F820600F4801F031F8F9
:1004F0004FF47A714843C82100FB01FA504601F0DD
:10050000F8F80546064A074B01F00AF9074601F0DC
:10051000C1F8C9F80000BDE8F087000000080040FD
:1005200054CBEF97C3AC1F3F0004004000BFFEE771
:1005300000BFFEE710B50446002C0BDB10210C4871
:10054000FFF7B3FF20210A48FFF7ADFFA0B200F08C
:100550007BFA0BE010210648FFF7A5FF2021044895
:10056000FFF7A3FF614288B200F06EFA10BD0000F1
:100570000008014010B50446002C0BDB04210C4898
:10058000FFF793FF08210A48FFF78DFFA0B200F0A4
:1005900063FA0BE004210648FFF785FF08210448B1
:1005A000FFF783FF614288B200F056FA10BD0000E9
:1005B0000008014008B50121042000F067FA10206E
:1005C0008DF803003C20ADF8000003208DF80200F8
:1005D00069460248FFF7DCFE08BD00000008014044
:1005E0007047000070B5002100230F22C47804B3C7
:1005F000154C246804F4E064C4F5E064210AC1F1F8
:100600000403CA40447804FA03F184781440214377
:1006100009010E4C0678A155047804F01F05012449
:10062000AC4005786D11AD0005F1E025C5F800413D
:1006300009E0047804F01F050124AC40044D06785D
:10064000761145F8264070BD0CED00E000E400E0B6
:1006500080E100E002490143024A11607047000056
:100660000000FA050CED00E070B500240EE000215A
:10067000204600F0F0F8002504E0002000F068F9C2
:10068000681CC5B2802DF8DB601CC4B2082CEEDB00
:1006900070BD000008B50121082000F0F7F9142012
:1006A0008DF8030003208DF802004FF48070ADF840
:1006B000000069460A48FFF76BFE4FF40070ADF882
:1006C000000069460648FFF763FE01221102044854
:1006D000FFF7EDFE012251020148FFF7E8FE08BDD9
:1006E000000C014070B50546002415E08020204133
:1006F00000EA05024FF400710E48FFF7D8FE012210
:1007000011020C48FFF7D3FE00224FF48071094814
:10071000FFF7CDFE601CC4B2082CE7DB01221102FA
:100720000448FFF7C4FE00224FF480710148FFF730
:10073000BEFE70BD000C014010B5012251020A48F6
:10074000FFF7B5FE012211020748FFF7B0FE0022B5
:100750004FF400710448FFF7AAFE00224FF48071A5
:100760000148FFF7A4FE10BD000C014010B50022A7
:100770004FF400710648FFF79AFE01221102044867
:10078000FFF795FE012251020148FFF790FE10BDD0
:10079000000C014070B5002406E0002500E06D1C4F
:1007A000B5F57A7FFBD3641CB4F57A7FF5D3FFF7F8
:1007B00071FFAE2000F0BCF8D52000F0B9F8802021
:1007C00000F0B6F8A82000F0B3F83F2000F0B0F831
:1007D000D32000F0ADF8002000F0AAF8402000F08F
:1007E000A7F8A12000F0A4F8C82000F0A1F8DA20B2
:1007F00000F09EF8122000F09BF8812000F098F89D
:10080000CF2000F095F8D92000F092F8F12000F008
:100810008FF8DB2000F08CF8302000F089F8A4205D
:1008200000F086F8A62000F083F88D2000F080F814
:10083000142000F07DF8AF2000F07AF8FFF714FFE5
:1008400070BD10B50246012000E050430B1EA1F11F
:100850000101FAD110BD70B505460C4645F0B00057
:1008600000F066F8102141EA141000F061F804F07D
:100870000F0000F05DF870BD2DE9F04105460E4611
:100880001746721ED206110E6A1E5206100EFFF790
:10089000E2FF002409E0A7F12001134A02EB011155
:1008A000085D00F055F8601CC4B2082CF3DB721E22
:1008B000D206110E6A1E012303EB4202D0B2FFF7EB
:1008C000CAFF00240BE0A7F12001074A02EB011246
:1008D00004F10801505C00F03BF8601CC4B2082C25
:1008E000F1DBBDE8F08100001C1900082DE9F0479C
:1008F00080460E4617461D46002415E0281B411E63
:100900000A20FFF79EFFB7FBF0F00A21B0FBF1F2DF
:1009100001FB120000F130093019C1B24A464046CD
:10092000FFF7AAFF601CC4B2AC42E7DBBDE8F0876A
:1009300010B50446FFF700FF7820FFF7D3FE002034
:10094000FFF7D0FE2046FFF7CDFEFFF70FFF10BDEB
:1009500010B50446FFF7F0FE7820FFF7C3FE4020F5
:10096000FFF7C0FE2046FFF7BDFEFFF7FFFE10BDFC
:1009700000B589B00121084600F078F80121042073
:1009800000F084F818208DF823000320ADF8200033
:100990008DF8220008A92B48FFF7FAFC4FF08040A1
:1009A00000F0AEFB0020ADF81A00ADF81600632091
:1009B000ADF8180040F2CF20ADF8140000208DF8FB
:1009C0001C0005A94FF0804000F07AFC01A800F05F
:1009D0003BFC6020ADF804000020ADF80C000120C5
:1009E000ADF806000020ADF80A0001A94FF08040E4
:1009F00000F08CFB01A94FF0804000F0D3FB0121F7
:100A0000880700F0D1FA01221146900700F06FFB31
:100A10004FF4A060FFF71EFE1C208DF8000001209F
:100A20008DF8030002208DF8010001208DF80200EE
:100A30006846FFF7D7FD0121880700F0BBFA09B02F
:100A400000BD00000008014010B5044621464FF0EB
:100A5000804000F003FC10BD10B5044621464FF065
:100A6000804000F0FDFB10BD7047000029B1064A30
:100A7000D2690243044BDA6104E0034AD26982433B
:100A8000014BDA61704700000010024029B1064AAC
:100A900092690243044B9A6104E0034A92698243DB
:100AA000014B9A61704700000010024030B50021F0
:100AB0000022002400232D4D6D6805F00C0121B1AA
:100AC000042905D0082923D105E0294D056022E03D
:100AD000274D05601FE0254D6D6805F47012234D0C
:100AE0006D6805F48034022505EB92421CB9214D56
:100AF000554305600BE01D4D6D6805F400351DB1D3
:100B00001C4D5543056002E0194D5543056002E058
:100B1000174D056000BF00BF144D6D6805F0F00172
:100B20000909154D6B5C0568DD4045600F4D6D682A
:100B300005F4E061090A104D6B5C4568DD40856095
:100B40000A4D6D6805F46051C90A0B4D6B5C456830
:100B5000DD40C560054D6D6805F44041890B074DCA
:100B60006B5CC568B5FBF3F5056130BD0010024054
:100B700000127A0000093D00000000201000002053
:100B8000704710B500F002F810BD00000CB5002051
:100B9000019000903348006840F48030314908608B
:100BA00000BF3048006800F4003000900198401CFD
:100BB0000190009818B90198B0F5A06FF1D12948BB
:100BC000006800F4003010B10120009001E0002026
:100BD00000900098012843D12348006840F010009D
:100BE000214908600846006820F0030008600846B4
:100BF000006840F0020008601A48406819494860DF
:100C00000846406848600846406840F48060486094
:100C10000846406820F47C1048600846406840F46C
:100C2000E81048600846006840F08070086000BF27
:100C30000C48006800F000700028F9D009484068AE
:100C400020F00300074948600846406840F0020071
:100C5000486000BF0348406800F00C000828F9D144
:100C60000CBD000000100240002002407047000050
:100C700010B51348006840F00100114908600846AB
:100C80004068104908400E494860084600680E490F
:100C900008400B4908600846006820F4802008607E
:100CA0000846406820F4FE0048604FF41F0088604A
:100CB000FFF767FF4FF000600449086010BD0000B7
:100CC000001002400000FFF8FFFFF6FE08ED00E014
:100CD000F0B50C46154600220021068C4FF6FE7733
:100CE0003E400684028B018C4FF60C7632407E1C0F
:100CF00006EA03162E433243104EB0420ED0104E79
:100D0000B0420BD0B0F1804F08D00E4EB04205D0AB
:100D10000D4EB04202D00D4EB04206D14FF6FD76D8
:100D2000314044F00106314305E04FF6F57631409D
:100D300044F00106314302830184F0BD002C0140E0
:100D4000003401400004004000080040000C004056
:100D5000F0B50C461546002200210026078C4FF600
:100D6000EF7C07EA0C070784028B018C4FF6FF77B4
:100D700007EA041640F6FF473A404FF6FF7707EAC6
:100D800003373A434FF6FF7707EA05273A43114FF7
:100D9000B8420ED0104FB8420BD0B0F1804F08D0FF
:100DA0000E4FB84205D00E4FB84202D00D4FB84298
:100DB00006D14FF6DF77394046F01007394305E09A
:100DC0004FF65F77394044F01007394302830184BE
:100DD000F0BD0000002C0140003401400004004040
:100DE00000080040000C0040F0B50C4615460022FB
:100DF00000210026078C4FF6FF6C07EA0C070784DA
:100E0000828B018C4FF6FF7707EA04264FF60C77AA
:100E10003A404FF6FF7707EA03172F433A43114F43
:100E2000B8420ED0104FB8420BD0B0F1804F08D06E
:100E30000E4FB84205D00E4FB84202D00D4FB84207
:100E400006D14FF6FF57394046F48077394305E025
:100E50004FF2FF57394044F480773943828301844D
:100E6000F0BD0000002C01400034014000040040AF
:100E700000080040000C0040F0B50C46154600226A
:100E800000210026078C4EF6FF7C07EA0C0707843A
:100E9000828B018C4FF6FF7707EA043640F6FF4756
:100EA0003A404FF6FF7707EA05273A434FF6FF77B8
:100EB00007EA03373A43114FB8420ED0104FB842F9
:100EC0000BD0B0F1804F08D00E4FB84205D00E4F76
:100ED000B84202D00D4FB84206D14DF6FF773940E7
:100EE00046F48057394305E047F6FF57394044F44C
:100EF0008057394382830184F0BD0000002C0140FB
:100F0000003401400004004000080040000C004094
:100F10002DE9F0410121880700F079F8012836D148
:100F20001C480068401C1B490860084600680528EA
:100F300029D119491948FFF7BFFA1848006800F08D
:100F4000D8FB0646164A174B00F0EAFB044600F0B1
:100F5000A1FB124908601048006800F0CAFB064671
:100F60000F4A104B00F0DCFB044600F093FB0A49EB
:100F7000086004230948012102680846FFF7B6FC0F
:100F80000020044908600121880700F010F8BDE83E
:100F9000F081000024000020200000201C00002020
:100FA0009A9999999999B93FCA4302827047CA435D
:100FB0000282704721B1028842F00102028004E0FF
:100FC00002884FF6FE731A4002807047F0B50C4657
:100FD00015461E460021002200230189028B038C46
:100FE0004FF6F877394021434FF6FC473A4040F23C
:100FF00001173A434FF6DD773B404FF6FF7707EA9C
:1010000006172F433B43018102830384F0BD30B5B3
:101010000246002000230024158A05EA0103958971
:1010200005EA010413B10CB1012000E0002030BD3D
:1010300070B505460C46244885420ED023488542AB
:101040000BD0B5F1804F08D02148854205D021480A
:10105000854202D02048854200D100E000BF2088B0
:1010600050B92389A28861882846FFF731FEE188BC
:10107000284600F0F9F825E0208804280AD12389C1
:10108000A28861882846FFF763FEE188284600F0C1
:10109000F4F817E0208808280AD12389A2886188FB
:1010A0002846FFF7A1FEE188284600F0F3F809E0A2
:1010B0002389A28861882846FFF7DEFEE18828465A
:1010C00000F0F1F870BD0000002C01400034014038
:1010D0000004004000080040000C00400021018096
:1010E0004180012181800021C180018170471AB1B6
:1010F00083890B43838102E083898B43838170471B
:1011000001894FF6F87211400181704770B50024D3
:1011100000220023058C4FF6FE7635400584028CB4
:101120008388048B4FF68F752C40B51E2C400D889C
:101130002C43751E2A400D892A434D882A43144D9D
:10114000A8420BD0134DA84208D0134DA84205D099
:10115000124DA84202D0124DA84213D14FF6F77596
:101160002A404D892A434FF6FB752A408D882A4331
:101170004FF6FF652B404FF6FF552B408D892B43D3
:10118000CD892B4383800483CD888586028470BDFE
:10119000002C014000340140004001400044014067
:1011A0000048014070B5002400220023058C4FF652
:1011B000EF7635400584028C8388048B48F6FF75F2
:1011C0002C404FF6FF452C400D884FF6FF7606EA7F
:1011D00005252C434FF6DF752A400D8906EA0515D3
:1011E0002A434D8806EA05152A43154DA84202D028
:1011F000144DA8421DD14FF67F752A404D894FF6F8
:10120000FF7606EA05152A434FF6BF752A408D88FA
:1012100006EA05152A434FF6FF352B404FF2FF75BE
:101220002B408D8906EA85052B43CD8906EA850585
:101230002B4383800483CD880587028470BD000022
:10124000002C014000340140002101804180818058
:10125000C180018141818181C18170478186704750
:101260000187704781847047028B4FF6F3731A40F1
:101270000283028B0A4302837047028B4FF2FF33D3
:101280001A400283028B4FF6FF7303EA01231A43CD
:1012900002837047828B4FF6F3731A408283828BEE
:1012A0000A4382837047828B4FF2FF331A40828356
:1012B000828B4FF6FF7303EA01231A438283704740
:1012C000002202881D4B98420ED01D4B98420BD035
:1012D000B0F1804F08D01B4B984205D01A4B984272
:1012E00002D01A4B984204D14FF68F731A404B88A4
:1012F0001A43174B984207D0164B984204D04FF62A
:10130000FF431A40CB881A4302808B8883850B8861
:1013100003850A4B98420BD0094B984208D00E4BDC
:10132000984205D00D4B984202D00D4B984201D106
:101330000B7A03860123838270470000002C014052
:10134000003401400004004000080040000C004050
:1013500000100040001400400040014000440140E3
:10136000004801404FF6FF71818000210180C1805B
:10137000418001727047000010B50821184800F044
:1013800041F858B3164800F0DBF8C4B215480078AD
:10139000002018BB13480078002048B10A2C02D066
:1013A000104908701AE00F4800780E49087015E0DF
:1013B0000D2C04D10B4800780A4908700EE009484A
:1013C000007809490C5407480078401C054908700A
:1013D00008460078C72801DD0020087010BD000015
:1013E0000038014018000020FC00002021B1828953
:1013F00042F40052828104E082894DF6FF731A4064
:101400008281704702460020B1F5007F00D100BF05
:1014100013880B400BB1012000E000207047F0B5AD
:101420000346002400260025002040F66A17B94232
:1014300000D100BF1846C1F3421401F01F06012776
:1014400007FA06F5012C01D10C3004E0022C01D181
:10145000103000E014301AB107682F43076002E033
:101460000768AF430760F0BD2DE9F04786B0054639
:101470000E460024A24600BFA1460027B08900B155
:1014800000BF2F462C8A4CF6FF700440F0880443BE
:101490002C82AC894EF6F3100440B08831890843A1
:1014A000718908430443AC81AC8A4FF6FF40044085
:1014B000B0890443AC8201A8FFF7F8FA1F488742BD
:1014C00002D1DDF810A001E0DDF80CA0A88900F43D
:1014D000004040B10AEBCA0000EB0A103168490035
:1014E000B0FBF1F807E00AEBCA0000EB0A10316824
:1014F0008900B0FBF1F86420B8FBF0F0040120098A
:10150000642101FB1089A88900F4004040B1322019
:1015100000EBC900B0FBF1F000F00700044308E065
:10152000322000EB09106421B0FBF1F000F00F0055
:1015300004432C8106B0BDE8F0870000003801406C
:1015400001468888C0F30800704700BFFEE700BF6F
:10155000704701468A8CA2F5FE42FF3A10B247F668
:10156000FF728A847047000008B501210420FFF74C
:101570008DFA4FF41140ADF8000004208DF80300FF
:1015800003208DF8020069460A48FEF701FF012199
:101590001020FFF77BFA4FF44040ADF80000042024
:1015A0008DF8030003208DF8020069460248FEF71B
:1015B000EFFE08BD00080140001001404FF4A0609C
:1015C000FFF748F84FF4165000F014F8FFF7E2F870
:1015D000FEF7F0FFFFF7CCF9FFF7C6FFFEF730FE8E
:1015E000FEF782FE05E06420FEF7A4FF4620FEF72A
:1015F000C1FFF8E710B586B00446012144F20400AB
:10160000FFF744FA4FF40070ADF8140003208DF892
:10161000160018208DF8170005A91C48FEF7B8FE23
:101620004FF48060ADF8140004208DF8170005A970
:101630001648FEF7ADFE25208DF8000003208DF83A
:1016400001008DF8020001208DF803006846FEF7C6
:10165000C9FF01940020ADF80800ADF80A00ADF80C
:101660000C00ADF810000C20ADF80E0001A90848E0
:10167000FFF7FAFE012240F225510548FFF7CFFEA1
:1016800001210348FFF7B2FE06B010BD000801407B
:10169000003801404FEA41034FEA5353A3F58063FA
:1016A000D3F11E03C8BFD3F1210C0CDD4FF0004273
:1016B00042EAC12242EA505232FA03FC8CEAE17C4F
:1016C000ACEBE1707047102BC4BF0020704703F5EE
:1016D000787CBCF1FF3F04D06FF0004282EA210029
:1016E000704770B500F0C6F849922480002070471A
:1016F000F2E710F0004248BF4042B0FA80F310FA1F
:1017000003F10AD0C3F11D0303F580634FEA415092
:1017100002EB035202EBD12170474FF000007047FB
:10172000DFF848C170B51CEA111E1EBF1CEA131574
:101730009EEA0C0F95EA0C0F00F06F8081EA03041B
:1017400023EA4C134EEAD47E21EA4C1141F4801175
:1017500043F48013AE44A1FB024CA0FB0365AEF141
:101760007F7E361955EB0C05A1FB034C4CF10003B1
:10177000A0FB021C16EB0C06654153F10003094265
:1017800018BF46F0010613F4007F0BD14FEA033176
:101790004FEA0530340341EA155140EA16506FF024
:1017A00003020AE04FEAC3214FEAC520F40241EAEE
:1017B000555140EA56506FF0020202EB2E4201EB07
:1017C000025585EACE710AD05FEA440C18BF24F0B6
:1017D000004450F1000041F1000120EAD47040F2D1
:1017E000FE7C624500D270BDA84214BF4FF0804419
:1017F0004FF04044002E08BF0024BEF1806FA8BF08
:10180000A1F1C041BDE8704080F282804FF000003D
:1018100001F1C04101F0004170479EEA0C0F0CEA53
:10182000131518BF95EA0C0F06D04FF0000081EA9F
:10183000030E0EF0004170BD00F01CF88900013E5F
:1018400000F007B800F009B84FEA430C5FEA5C5CAF
:1018500008D081EA030100F05BB84FEA410C5FEA6F
:101860005C5CF6D14FF00000014970470000FF07B3
:101870000000F87F0EF1020E2EF0030E5EF8046BEE
:10188000364205D4012A43EB030515F5001F12D893
:10189000012841EB010C1CF5001F0CD80ED14FEABA
:1018A000D17C15F5001F0CEB4C0C0CF1020C08BFA1
:1018B0004CEBD37C04E04FF0080C01E04FEAD37C02
:1018C0000CEB4C0526FA05F606F00706B6F1040CFB
:1018D00006D20EEB860CBDE870404CF0010C604760
:1018E000DFE80CF0090B02024FF000414FF000005E
:1018F000A1F5002170BD19461046012851EB0104E5
:1019000018BFD4F5001484BF002001F0004170BD61
:101910000808A0F500114FEA3101704700000000EF
:10192000000000000000000000000000000000F8BF
:1019300000000000000000333000000000100C0622
:10194000100C0600000000000000000040C07840BD
:10195000C0784000043F04043F040400007088FC89
:1019600008300000001820FF211E0000F008F000E1
:10197000E018000000211C031E211E0000F0088852
:10198000700000001E2123241927211010160E00BC
:10199000000000000000000000000000000000E067
:1019A000180402000000000718204000000204187C
:1019B000E00000000040201807000000404080F0D8
:1019C000804040000202010F01020200000000F00E
:1019D000000000000101011F0101010000000000E2
:1019E0000000000080B07000000000000000000057
:1019F00000000000000101010101010100000000E0
:101A00000000000000303000000000000000000076
:101A100080601804006018060100000000E0100853
:101A20000810E000000F102020100F00001010F828
:101A3000000000000020203F202000000070080867
:101A400008887000003028242221300000300888E7
:101A5000884830000018202020110E000000C0200F
:101A600010F8000000070424243F240000F8088830
:101A7000880808000019212020110E0000E01088BD
:101A800088180000000F112020110E0000380808EF
:101A9000C83808000000003F0000000000708808FF
:101AA00008887000001C222121221C0000E0100880
:101AB0000810E0000000312222110F00000000C0D9
:101AC000C000000000000030300000000000008076
:101AD0000000000000008060000000000000804066
:101AE000201008000001020408102000404040407F
:101AF00040404000040404040404040000081020D2
:101B00004080000000201008040201000070480816
:101B10000808F0000000003036010000C030C8287E
:101B2000E810E0000718272423140B000000C03839
:101B3000E0000000203C23020227382008F88888B3
:101B400088700000203F202020110E00C0300808BF
:101B500008083800071820202010080008F8080896
:101B60000810E000203F202020100F0008F888888F
:101B7000E8081000203F20202320180008F888885B
:101B8000E8081000203F200003000000C0300808D3
:101B90000838000007182020221E020008F808005C
:101BA0000008F808203F210101213F20000808F823
:101BB000080800000020203F202000000000080846
:101BC000F8080800C08080807F00000008F888C006
:101BD00028180800203F20012638200008F80800B7
:101BE00000000000203F20202020300008F8F800EE
:101BF000F8F80800203F003F003F200008F830C000
:101C00000008F808203F200007183F00E0100808EF
:101C10000810E0000F10202020100F0008F808081E
:101C20000808F000203F210101010000E010080831
:101C30000810E0000F18242438504F0008F8888856
:101C400088887000203F2000030C30200070880836
:101C5000080838000038202121221C00180808F844
:101C6000080818000000203F2000000008F80800C5
:101C70000008F808001F202020201F000878880096
:101C800000C83808000007380E010000F80800F806
:101C90000008F800033C0700073C030008186880B0
:101CA0008068180820302C03032C30200838C80026
:101CB000C83808000000203F200000001008080875
:101CC000C83808002038262120201800000000FE17
:101CD000020202000000007F40404000000C30C0C3
:101CE00000000000000000010638C00000020202EF
:101CF000FE000000004040407F00000000000402A1
:101D000002020400000000000000000000000000CB
:101D100000000000808080808080808000020204BB
:101D200000000000000000000000000000008080B3
:101D3000808000000019242222223F2008F8008021
:101D400080000000003F112020110E0000000080E4
:101D500080800000000E1120202011000000008073
:101D60008088F800000E112020103F2000008080A5
:101D700080800000001F222222221300008080F0B9
:101D8000888888180020203F2020000000008080E4
:101D900080808000006B94949493600008F8008029
:101DA00080800000203F210000203F200080989884
:101DB000000000000020203F2020000000000080E4
:101DC0009898000000C08080807F000008F8000024
:101DD00080808000203F24022D302000000808F879
:101DE000000000000020203F202000008080808034
:101DF00080808000203F20003F20003F80800080C6
:101E000080800000203F210000203F2000008080D3
:101E100080800000001F202020201F008080008084
:101E20008000000080FFA12020110E000000008033
:101E300080808000000E112020A0FF808080800024
:101E40008080800020203F21200001000000808051
:101E5000808080000033242424241900008080E046
:101E6000808000000000001F202000008080000013
:101E700000808000001F202020103F2080808000F4
:101E80000080808000010E30080601008080008004
:101E9000008080800F300C030C300F000080800029
:101EA000808080000020312E0E3120008080800054
:101EB0000080808080818E70180601000080808004
:101EC000808080000021302C2221300000000000A2
:101ED000807C020200000000003F40400000000043
:101EE000FF00000000000000FF0000000002027C74
:101EF000800000000040403F00000000000601019B
:101F00000202040400000000000000002C1F000872
:101F1000000000203400000028010008601F0008B5
:101F200034000020F4070000440100080000000015
:101F3000010203040102030406070809020406085B
:101F40000000000000000000000000000000000091
:101F50000000000000000000000000000000000081
:04000005080000ED02
:00000001FF
