:020000040800F2
:1000000098090020352A00085512000857120008E8
:100010005B1200085F120008631200080000000075
:10002000000000000000000000000000671200084F
:1000300069120008000000006B1200086D12000831
:100040004F2A00084F2A00084F2A00084F2A0008AC
:100050004F2A00084F2A00084F2A00084F2A00089C
:100060004F2A00084F2A00084F2A00084F2A00088C
:100070004F2A00084F2A00084F2A00084F2A00087C
:100080004F2A00084F2A00084F2A00084F2A00086C
:100090004F2A00084F2A00084F2A00084F2A00085C
:1000A0004F2A00084F2A00084F2A00084F2A00084C
:1000B0005F1100084F2A00084F2A00084F2A000845
:1000C0004F2A00084F2A00084F2A00084F2A00082C
:1000D0004F2A0008831E0008E91E00084F2A000866
:1000E0004F2A00084F2A00084F2A00084F2A00080C
:1000F0004F2A00084F2A00084F2A00084F2A0008FC
:100100004F2A00084F2A00084F2A00084F2A0008EB
:100110004F2A00084F2A00084F2A00084F2A0008DB
:100120004F2A00084F2A00084F2A00084F2A0008CB
:1001300000F002F800F03AF80AA090E8000C8244BF
:100140008344AAF10107DA4501D100F02FF8AFF29C
:10015000090EBAE80F0013F0010F18BFFB1A43F0A5
:1001600001031847EC5500000C560000103A24BF5C
:1001700078C878C1FAD8520724BF30C830C144BF0C
:1001800004680C607047000000230024002500264E
:10019000103A28BF78C1FBD8520728BF30C148BFEA
:1001A0000B6070471FB51FBD10B510BD04F067F997
:1001B0001146FFF7F7FF00F014FF04F085F903B4D0
:1001C000FFF7F2FF03BC01F075FD000010B5FE481B
:1001D0000078052807D10420FB490870FB48006817
:1001E000401CFA490860F9480068032802DB002037
:1001F000F6490860F548006838B9F5480068F549DF
:100200000860F5480068F5490860F0480068012872
:1002100043D1ED48007806280AD10420EA49087045
:100220004FF07E51ED48006804F06EFCEB49086029
:10023000E548007807280AD10420E34908704FF008
:100240007E51E448006804F015FFE2490860DE488A
:10025000007808280AD10420DB4908704FF07E514D
:10026000DE48006804F006FFDC490860D6480078E4
:1002700009280AD10420D44908704FF07E51D5488E
:10028000006804F041FCD3490860D2480068D049B6
:100290000860D2480068D0490860CC48006802284D
:1002A0004BD1CF480068CB490860CE480068CB49A5
:1002B0000860C548007806280AD10420C2490870A1
:1002C0004FF07E51C548006804F01EFCC349086029
:1002D000BD48007807280AD10420BB4908704FF0B8
:1002E0007E51BC48006804F0C5FEBA490860B648B3
:1002F000007808280AD10420B34908704FF07E51D5
:10030000B648006804F0B6FEB4490860AE4800780C
:1003100009280AD10420AC4908704FF07E51AD483D
:10032000006804F0F1FBAB490860AA480068AC49DA
:100330000860AA480068AB49086010BD2DE9F04785
:10034000A9480068002878D1A8480068A849096829
:10035000401A401CA7490860A7480068A7490968D7
:10036000401A401CA6490860A2480068502809DBD2
:1003700000224FF08043A34903C904F0AFFAA14A19
:1003800003C20FE09B48006804280BDB9E4800680E
:1003900004F08EFB04469B480CC8204604F092FAF9
:1003A000984A03C29348006810F1500F09DC0022FC
:1003B0004FF08043934903C904F0C6F8914A03C241
:1003C00010E08C48006810F1040F0BDC8E480068C8
:1003D00004F06EFB04468B480CC8204604F0B4F8C9
:1003E000884A03C286480068322808DB0022874B0F
:1003F000874903C904F0A8F8854A03C20FE0804882
:10040000006804280BDB8348006804F051FB0446B5
:100410007F480CC8204604F097F87D4A03C278480C
:10042000006810F1320F09DC0022784B784903C9CB
:1004300004F054FA764A03C211E030E070480068D4
:1004400010F1040F0BDC7348006804F031FB044624
:100450006F480CC8204604F035FA6D4A03C23220BA
:1004600001F0FBFB63480068042818DA6148006863
:1004700010F1040F13DD6248006804280FDA6048A9
:10048000006810F1040F0ADD57480068401C564907
:10049000086008460068052801DB01200860524812
:1004A000006801287ED15C48006851490968441AF7
:1004B000E11704EB9171881004F092FC5749086031
:1004C000574800684D490968441AE11704EB9171D7
:1004D000881004F085FC5349086000BF4548006857
:1004E000092812DA4348006810F1090F0DDD44486D
:1004F0000068092809DA4248006810F1090F04DD94
:1005000049480068401C484908604748006804F0B2
:1005100067FC814641480168484604F0ADFC064648
:100520003348006804F05CFC8046314604F0ECFA85
:1005300005462E48006804F053FC0746294604F09F
:1005400099FD044604F010FC2A490860364800680A
:1005500004F046FC814633480168484604F08CFCB0
:1005600006462648006804F03BFC8046314604F00D
:10057000CBFA05462048006804F032FC07462946BD
:1005800004F078FD044604F0EFFB1D4908601948AB
:10059000006809280DDB1C48006804F089FA04464D
:1005A000184800E077E00CC8204604F08BF9154AA3
:1005B00003C21048006810F1090F3EDC12480068C1
:1005C00004F076FA044631E05900002018000020BB
:1005D0004000002000000020440000200400002013
:1005E000080000200C000020100000209C000020CB
:1005F000A400002060000020A0000020A80000202F
:100600006400002020000020380000200000F03F9F
:10061000280000203C000020B400002050000020F2
:10062000B80000205400002068000020FE480CC8DC
:10063000204603F089FFFC4A03C2FC4800680928F1
:100640000BDBFB48006804F033FA0446F9480CC899
:10065000204603F079FFF74A03C2F448006810F11E
:10066000090F0BDCF248006804F022FA0446F14856
:100670000CC8204604F026F9EE4A03C22C2001F0F3
:10068000ECFAED4800680428FFF628AFEB48006854
:10069000401CEA490860E948006802287DD1002032
:1006A000E5490860E6480068E6490968441AE11728
:1006B00004EB9171881004F093FBE3490860E34870
:1006C0000068E3490968441AE11704EB9171881046
:1006D00004F086FBDF49086000BFDF480068092896
:1006E00012DADD48006810F1090F0DDDCF4800680F
:1006F000092809DACD48006810F1090F04DDCE4859
:100700000068401CCC490860CB48006804F068FBD6
:100710008146CD480168484604F0AEFB0646C9480C
:10072000006804F05DFB8046314604F0EDF90546B3
:10073000CA48006804F054FB0746294604F09AFCB6
:10074000044604F011FBC4490860BB48006804F08B
:1007500047FB8146BF480168484604F08DFB0646CA
:10076000BB48006804F03CFB8046314604F0CCF9FD
:100770000546BB48006804F033FB0746294604F0F1
:1007800079FC044604F0F0FAA8490860B248006811
:1007900009280DDBB348006800E048E004F088F960
:1007A0000446A1480CC8204604F08CF89E4A03C2B7
:1007B000A948006810F1090F0BDCAA48006804F092
:1007C00077F9044698480CC8204603F0BDFE964AC7
:1007D00003C29648006809280BDB9548006804F0BE
:1007E00067F9044693480CC8204603F0ADFE914AD1
:1007F00003C28E48006810F1090F0BDC8C480068BA
:1008000004F056F904468B480CC8204604F05AF808
:10081000884A03C22C2001F020FA87480068042887
:10082000FFF65BAF85480068401C84490860834838
:10083000006803287DD100207F4908608A4800684D
:100840007F490968441AE11704EB9171881004F09C
:10085000C7FA7D490860854800687C490968441AE0
:10086000E11704EB9171881004F0BAFA7949086035
:1008700000BF79480068092812DA7748006810F14B
:10088000090F0DDD69480068092809DA6748006822
:1008900010F1090F04DD68480068401C66490860D3
:1008A0006548006804F09CFA81466748016848463C
:1008B00004F0E2FA06466248006804F091FA8046C5
:1008C000314604F021F905466448006804F088FACE
:1008D0000746294604F0CEFB044604F045FA5E497B
:1008E00008605548006804F07BFA81465948016861
:1008F000484604F0C1FA06465448006804F070FA0D
:100900008046314604F000F905465548006804F079
:1009100067FA0746294604F0ADFB044604F024FAC2
:10092000424908604C48006809280DDB4D480068C2
:1009300000E048E004F0BCF804463B480CC8204600
:1009400003F0C0FF384A03C24348006810F1090FA2
:100950000BDC4448006804F0ABF8044632480CC88D
:10096000204603F0F1FD304A03C2304800680928F0
:100970000BDB2F48006804F09BF804462D480CC898
:10098000204603F0E1FD2B4A03C22848006810F11D
:10099000090F0BDC2648006804F08AF80446254855
:1009A0000CC8204603F08EFF224A03C22C2001F01F
:1009B00054F9214800680428FFF65BAF1F4800681F
:1009C000401C1E4908601D48006804287ED1002094
:1009D000194908602648006823490968441AE11744
:1009E00004EB9171881004F0FBF917490860214865
:1009F00000681E490968441AE11704EB91718810D8
:100A000004F0EEF91349086000BF13480068092894
:100A10003BDA1148006810F1090F36DD0348006821
:100A2000092832DA014827E0200000206400002075
:100A30003C0000202800002068000020100000205A
:100A4000BC000020B400002050000020C0000020A6
:100A5000B800002054000020600000209C0000200E
:100A6000A000002038000020AC000020B0000020D2
:100A7000A4000020A8000020006810F1090F04DD88
:100A8000FD480068401CFC490860FB48006804F011
:100A9000A7F98146F9480168484604F0EDF9064691
:100AA000F748006804F09CF98046314604F02CF8C1
:100AB0000546F448006804F093F90746294604F017
:100AC000D9FA044604F050F9EF4900E070E00860FC
:100AD000E948006804F084F98146EC48016848461A
:100AE00004F0CAF90646EA48006804F079F980463D
:100AF000314604F009F80546E648006804F070F94C
:100B00000746294604F0B6FA044604F02DF9E249F6
:100B10000860DD48006809280BDBE048006803F046
:100B2000C7FF0446DE480CC8204603F0CBFEDC4A73
:100B300003C2D548006810F1090F0BDCD7480068E4
:100B400003F0B6FF0446D6480CC8204603F0FCFC70
:100B5000D34A03C2D048006809280BDBD14800689B
:100B600003F0A6FF0446D0480CC8204603F0ECFC76
:100B7000CD4A03C2C848006810F1090F0BDCC94810
:100B8000006803F095FF0446C7480CC8204603F0F0
:100B900099FEC54A03C22C2001F05FF8B6480068F0
:100BA0000528FFF632AFC1480068401CBF49086005
:100BB000BE48006805280CDB0020BC490860BC4921
:100BC0000870BC48006800F0A9FFBB48006800F04E
:100BD000CDFFBDE8F08770B5B848006870B9B5487A
:100BE000006803F065FFAE4A03C2B348006803F033
:100BF0005FFFAD4A03C20120B0490860AB480068FE
:100C000038B9A0480068AE490968401A401C9E499E
:100C10000860A6480068012807D19A480068A949D9
:100C20000968401A401F98490860A04800680228D7
:100C300007D198480068A4490968401A401F96499E
:100C400008609A480068032807D18E4800689C49CC
:100C50000968401AC01E8C4908609448006804283E
:100C600007D18C48006899490968401A401C8A4994
:100C7000086085480068502809DB00224FF0804357
:100C8000874903C903F02AFE854A03C215E07E485E
:100C9000006803F03AFD044600228D4B03F0DCFDB2
:100CA0000BD88C48006803F003FF04467C480CC84E
:100CB000204603F007FE7A4A03C27348006810F129
:100CC000500F09DC00224FF08043754903C903F03F
:100CD0003BFC734A03C215E06B48006803F015FD46
:100CE000044600227C4B03F027FD0BD879480068AE
:100CF00003F0DEFE04466A480CC8204603F024FCDC
:100D0000674A03C264480068322808DB0022734B3C
:100D1000654903C903F0E2FD634A03C215E05E487A
:100D2000006803F0F2FC04460022694B03F094FDD6
:100D30000BD86B48006803F0BBFE04465A480CC849
:100D4000204603F0BFFD584A03C25348006810F123
:100D5000320F08DC0022614B534903C903F0F4FB56
:100D6000514A03C215E04C48006803F0CEFC04462B
:100D70000022594B03F0E0FC0BD85948006803F0FF
:100D800097FE044648480CC8204603F0DDFB464A5F
:100D900003C20022534B424903C903F05DFD04D84E
:100DA000002150483E4AC2E9001000224E4B3C4907
:100DB00003C903F0C1FC03D800204B49384A03C2E1
:100DC00000224A4B384903C903F0B6FC04D800217D
:100DD0004648354AC2E900100022454B324903C952
:100DE00003F03AFD04D8002141482F4AC2E900101F
:100DF000642000F032FF2448006803F086FC0446BB
:100E00000022334B03F098FC34D21F48006803F0F3
:100E10007CFC04460022304B03F01EFD2AD21E4803
:100E2000006803F072FC04460022294B03F084FCA6
:100E300020D21948006803F068FC04460022264BC3
:100E400003F00AFD16D219480068401C17490860D3
:100E50000846006805280DDB00200860144908706A
:100E6000164908601348006800F058FE12480068F0
:100E700000F07CFE70BD00006800002050000020E3
:100E8000AC0000209C0000206000002054000020E6
:100E9000B0000020A00000206400002038000020E6
:100EA000200000203C00002028000020100000202E
:100EB0005900002040000020440000205C00002079
:100EC000A4000020BC000020C0000020A8000020DA
:100ED0000000044030000020000004C00000F03F8B
:100EE0003400002000805640008056C0008046C07C
:100EF0000080464070B5C3480068C3490860C348D5
:100F00000068C3490860C348006800F007FEC24893
:100F1000006800F02BFE4FF4FA7000F09EFEBD4812
:100F2000006880F00044204600F0F8FDBA480068F0
:100F300000F01CFE4FF4FA7000F08FFEB548006818
:100F400080F000454FF07E51284603F0DDFD044659
:100F500000F0E4FDAD4801684FF0804003F08CFFE5
:100F60000546AD480168284604F084F8044600F0C0
:100F7000FDFD4FF4FA7000F070FE4FF08041A5487F
:100F8000006803F0C1FD044600F0C8FD9F480168F9
:100F90004FF0804003F070FF05469F4801682846E7
:100FA00004F068F8044600F0E1FD4FF4FA7000F038
:100FB00054FE9848006800F0B1FD9748006800F0C2
:100FC000D5FD4FF4FA7000F048FE8E48006800F03E
:100FD000A5FD8E48006800F0C9FD00208F4908700B
:100FE00070BD00F0FDFD4FF4A06001F043FD4FF433
:100FF000165000F0ADFE4FF4165000F0F5FE00F074
:10100000A3FA00F0B4FA00F02AFD00F083FD84A2F8
:101010000121084600F067FC82A20121022000F0B5
:1010200062FC81A20121032000F05DFC7FA201216E
:10103000042000F058FC7EA20C21012000F053FC9B
:101040007048006803F090FE0446032322460721FF
:10105000012000F088FC6D48006803F085FE04461E
:10106000032322460721022000F07DFC6948006826
:1010700003F07AFE0446032322460721184600F0B7
:1010800072FC6548006803F06FFE044603232246A5
:101090000721042000F067FC012367480C21026847
:1010A000022000F03EFC5748006800F037FD57482A
:1010B000006800F05BFD51E058480078012801D13C
:1010C000FFF718FF55480078022801D1FFF783FD8C
:1010D00052480078032801D1FFF730F94F480078D3
:1010E000042834DBFFF772F84648006803F03CFE42
:1010F0000446032322460721012000F034FC434824
:10110000006803F031FE0446032322460721022033
:1011100000F029FC3F48006803F026FE0446032344
:1011200022460721184600F01EFC3B48006803F0E9
:101130001BFE0446032322460721042000F013FC73
:1011400001233D480C210268022000F0EAFB3348ED
:101150000078042802DA002037490860ACE770B54F
:101160000121880702F06DFF01284AD100F012FA30
:10117000324908700846007818B1084600782749B7
:1011800008702648007802280DD12D4903C903F0C4
:10119000A9F9044600F0C2FC2A4903C903F0A2F9E8
:1011A000044600F0E3FC1D480078032819D1002212
:1011B000254B234903C903F0C7F9054603F078FA24
:1011C00084B2204600F0ADF900221F4B1D4903C92F
:1011D00003F0BAF9054603F06BFA84B2204600F03A
:1011E000A8F90E480078042807DB1848006800F0CA
:1011F00095FC1748006800F0B9FC0121880702F04F
:1012000031FF70BD40000020480000204400002055
:101210004C000020080000200C0000205900002095
:101220004F5800004F5900004F5858004F5959006F
:101230004D4F4445000000001800002058000020D9
:1012400020000020280000200070974000000020AF
:1012500004000020704700BFFEE700BFFEE700BFAC
:10126000FEE700BFFEE77047704770477047000019
:101270000CB50020019000906C48006840F480306C
:101280006A49086000BF6948006800F400300090B7
:101290000198401C0190009818B90198B0F5A06F12
:1012A000F1D16248006800F4003010B101200090D4
:1012B00001E0002000900098012843D15C480068BC
:1012C00040F010005A4908600846006820F003000A
:1012D00008600846006840F0020008605348406813
:1012E000524948600846406848600846406840F4F3
:1012F000806048600846406820F47C1048600846DA
:10130000406840F4E81048600846006840F080708B
:10131000086000BF4548006800F000700028F9D060
:101320004248406820F00300404948600846406851
:1013300040F00200486000BF3C48406800F00C00EC
:101340000828F9D10CBD10B5FFF792FF10BD10B5FC
:101350003648006840F0010034490860084640689B
:10136000344908403149486008460068324908401D
:101370002E4908600846006820F48020086008466E
:10138000406820F4FE0048604FF41F008860FFF7BB
:10139000DAFF4FF000602949086010BD10B5002148
:1013A00000200022214B5B6803F00C0121B10429CD
:1013B00006D0082928D107E0214B224C236027E0E2
:1013C0001F4B204C236023E0184B5B6803F4701024
:1013D000164B5B6803F48032022303EB904022B982
:1013E000194B4343174C23600DE0104B5B6803F42B
:1013F000003323B1144B4343124C236003E0104BE2
:101400004343104C236003E00D4B0E4C236000BFA0
:1014100000BF064B5B68C3F303130C4CE15C094B44
:101420001B68CB40074C236010BD00000010024039
:10143000002002400000FFF8FFFFF6FE08ED00E08C
:1014400000127A007400002000093D00780000209E
:1014500000B589B00121084601F0A3FE0121042056
:1014600001F092FE18208DF823000320ADF8200033
:101470008DF8220008A9334801F0CAFB4FF08040E4
:1014800002F04AFB0020ADF81A00ADF8160044F651
:101490001F60ADF818004720ADF8140000208DF84B
:1014A0001C0005A94FF0804001F0A6FF01A802F042
:1014B000D8FA6020ADF804000020ADF80C0001203F
:1014C000ADF806000020ADF80A0001A94FF08040F9
:1014D00001F0CFFF01A94FF0804002F00CF801218C
:1014E000880702F0ABFD01221146900702F0FBFADB
:1014F0004FF4A06001F0BEFA1C208DF8000001201E
:101500008DF8030002208DF8010001208DF8020003
:10151000684601F0B4FA0121880702F0C9FA09B05F
:1015200000BD10B5044621464FF0804002F058FD42
:1015300010BD10B5044621464FF0804002F052FD28
:1015400010BD00000008014008B50121082001F08D
:101550001BFE48208DF80300F020ADF800000320AA
:101560008DF802006946634801F052FB08BD08B5DA
:101570000121202001F008FE48208DF803001F20E3
:10158000ADF8000003208DF8020069465A4801F0CA
:101590003FFB08BD10B500241021564801F0CBFBDD
:1015A00068B9142000F059FB00BF1021514801F028
:1015B000C2FB0028F9D0142000F04FFB01242021A9
:1015C0004C4801F0B8FB68B9142000F046FB00BF9E
:1015D0002021484801F0AFFB0028F9D0142000F08A
:1015E0003CFB02244021434801F0A5FB68B91420CC
:1015F00000F033FB00BF40213E4801F09CFB002877
:10160000F9D0142000F029FB03248021394801F08F
:1016100092FB68B9142000F020FB00BF8021354800
:1016200001F089FB0028F9D0142000F016FB0424F7
:101630000121314801F07FFB68B9142000F00DFB57
:1016400000BF01212C4801F076FB0028F9D01420BE
:1016500000F003FB05240221274801F06CFB68B968
:10166000142000F0FAFA00BF0221234801F063FBC6
:101670000028F9D0142000F0F0FA062404211E48B6
:1016800001F059FB68B9142000F0E7FA00BF04210B
:10169000194801F050FB0028F9D0142000F0DDFAC1
:1016A00007240821144801F046FB68B9142000F013
:1016B000D4FA00BF0821104801F03DFB0028F9D002
:1016C000142000F0CAFA082410210B4801F033FB63
:1016D00068B9142000F0C1FA00BF1021064801F0DB
:1016E0002AFB0028F9D0142000F0B7FA092420467C
:1016F00010BD0000000C01400014014008B501219C
:10170000082001F041FD14208DF8030003208DF81E
:1017100002004FF48070ADF800006946FB4801F00C
:1017200077FA4FF40070ADF800006946F74801F011
:101730006FFA01221102F54801F01BFB0122510250
:10174000F24801F016FB08BD10B501225102EF4826
:1017500001F00FFB01221102EC4801F00AFB00220C
:101760004FF40071E94801F004FB00224FF480714E
:10177000E64801F0FEFA10BD10B500224FF40071EA
:10178000E24801F0F6FA01221102E04801F0F1FA14
:1017900001225102DD4801F0ECFA10BD70B505469A
:1017A000002415E08020204100EA05024FF400717A
:1017B000D64801F0DEFA01221102D44801F0D9FA2C
:1017C00000224FF48071D14801F0D3FA601CC4B2FA
:1017D000082CE7DB01221102CC4801F0CAFA0022F2
:1017E0004FF48071C94801F0C4FA70BD10B50446C9
:1017F000FFF7AAFF7820FFF7D1FF0020FFF7CEFF09
:101800002046FFF7CBFFFFF7B7FF10BD10B504462A
:10181000FFF79AFF7820FFF7C1FF4020FFF7BEFFD8
:101820002046FFF7BBFFFFF7A7FF10BD70B50546C9
:101830000C4645F0B000FFF7D9FF102141EA141023
:10184000FFF7D4FF04F00F00FFF7D0FF70BD70B5B5
:1018500000240EE000212046FFF7E8FF002504E009
:101860000020FFF7D3FF681CC5B2802DF8DB601C99
:10187000C4B2082CEEDB70BD2DE9F04105460E46E2
:101880001746721ED206110E6A1E5206100EFFF780
:10189000CDFF002409E0A7F120019D4A02EB0111D0
:1018A000085DFFF7B3FF601CC4B2082CF3DB721EA7
:1018B000D206110E6A1E012303EB4202D0B2FFF7DB
:1018C000B5FF00240BE0A7F12001914A02EB0112C1
:1018D00004F10801505CFFF799FF601CC4B2082CAA
:1018E000F1DBBDE8F0812DE9F04107460E461546D3
:1018F000002407E02A5D3019C1B23846FFF7BCFF6B
:10190000601CC4B2285D0028F4D1BDE8F08110B598
:101910000246012000E050430B1EA1F10101FAD163
:1019200010BD2DE9F04780460E4617461D4600249F
:1019300015E0281B411E0A20FFF7E9FFB7FBF0F076
:101940000A21B0FBF1F201FB120000F1300930195D
:10195000C1B24A464046FFF78FFF601CC4B2AC429A
:10196000E7DBBDE8F0872DE9F0478146884615465C
:101970001E46002D06DB2B2241464846FFF77CFF22
:101980002F4605E02D2241464846FFF775FF6F427E
:10199000002417E0301B411E0A20FFF7B8FFB7FBF9
:1019A000F0F00A21B0FBF1F201FB120000F1300A65
:1019B00008EB0400401CC1B252464846FFF75CFFEA
:1019C000601CC4B2B442E5DBBDE8F0872DE9F04706
:1019D00081460E4690461F4600241DE0381B411EDE
:1019E0001020FFF794FFB8FBF0F000F00F050A2D70
:1019F00008DA05F13000C2B23019C1B24846FFF72B
:101A00003BFF07E005F13700C2B23019C1B24846CA
:101A1000FFF732FF601CC4B2BC42DFDBBDE8F087D9
:101A20002DE9F04780460E4617461D46002412E079
:101A3000281B411E0220FFF76AFFB7FBF0F000F001
:101A4000010000F130093019C1B24A464046FFF7A3
:101A500013FF601CC4B2AC42EADBBDE8F08770B58E
:101A6000002406E0002500E06D1CB5F57A7FFBD36D
:101A7000641CB4F57A7FF5D3FFF740FEAE20FFF784
:101A8000B5FED520FFF7B2FE8020FFF7AFFEA820FD
:101A9000FFF7ACFE3F20FFF7A9FED320FFF7A6FE1D
:101AA0000020FFF7A3FE4020FFF7A0FEA120FFF7D4
:101AB0009DFEC820FFF79AFEDA20FFF797FE12205E
:101AC000FFF794FE8120FFF791FECF20FFF78EFEF7
:101AD000D920FFF78BFEF120FFF788FEDB20FFF710
:101AE00085FE3020FFF782FEA420FFF77FFEA620B0
:101AF000FFF77CFE8D20FFF779FE1420FFF776FEBE
:101B0000AF20FFF773FEFFF7A2FE70BD000C01408F
:101B10005E51000810B5FFF79BFC10BD2DE9F047A2
:101B200004462749204603F073FA00D8244C25497F
:101B3000204603F06DF900D8224C2349204602F0DC
:101B4000E3FF8146214903F04DF88046204903F028
:101B500093F907461F4902F0D7FF064603F020F924
:101B600085B22846FFF7DDFCBDE8F0872DE9F04798
:101B7000044684F000441849204603F049FA00D88E
:101B8000154C1649204603F043F900D8134C0E4972
:101B9000204602F0B9FF81460C4903F023F8804645
:101BA0000B4903F069F907460A4902F0ADFF064602
:101BB00003F0F6F885B22846FFF7BBFCBDE8F087D6
:101BC0000000B4420000B4C2000007430000874395
:101BD0000000FA440000FA4300003442000034C21E
:101BE00010B56FF0040000F094FF2E4800682E49F5
:101BF000B0FBF1F02D4908700846007800EB400179
:101C0000C1EBC0104FF6FF7101EAC00028490880FF
:101C100010BD0146254A12784A434FF0E0235A612D
:101C200000229A611A46126942F001021A6100BF4D
:101C30004FF0E022106900F001021AB100F4803286
:101C4000002AF5D04FF0E022126922F001024FF095
:101C5000E0231A6100229A6170470146144A1288F3
:101C60004A434FF0E0235A6100229A611A461269F2
:101C700042F001021A6100BF4FF0E022106900F04B
:101C800001021AB100F48032002AF5D04FF0E022B0
:101C9000126922F001024FF0E0231A6100229A61DA
:101CA000704700007400002000127A0088000020B5
:101CB0008A00002000BF704700BFFE4A128802F071
:101CC0004002002AF9D0C2B2FA4B1B1D1A8070479D
:101CD0000BE000BFF849098801F040010029F9D064
:101CE0000178F54A121D1180401C01780029F0D1BD
:101CF00070470BE000BFEF49098801F0400100295F
:101D0000F9D00178EB4A121D1180401C017800299E
:101D1000F0D17047002004E00021E84A1154411C32
:101D2000C8B2E74909788842F6DB0021E44A11701D
:101D30007047002004E00021E24A1154411CC8B25F
:101D4000E14909788842F6DB0021DF4A11707047CB
:101D500010B586B00446012144F2040001F014FAE3
:101D60004FF40070ADF8140003208DF81600182011
:101D70008DF8170005A9D54800F04AFF4FF48060A0
:101D8000ADF8140004208DF8170005A9CF4800F025
:101D90003FFF25208DF8000003208DF801008DF80D
:101DA000020001208DF80300684600F068FE0194EF
:101DB0000020ADF80800ADF80A00ADF80C00ADF851
:101DC00010000C20ADF80E0001A9BB4802F091F9FB
:101DD000012240F22551B84802F023FA0121B64809
:101DE00002F013FA06B010BD10B586B0044601210A
:101DF000042001F0C9F90121480401F0D2F91820AA
:101E00008DF817000420ADF8140003208DF816009B
:101E100005A9AE4800F0FCFE04208DF8170008204C
:101E2000ADF8140005A9A94800F0F2FE01940020C5
:101E3000ADF810000C20ADF80E000020ADF80C003D
:101E4000ADF80A00ADF8080001A99A4802F051F96E
:101E50000121984802F0D9F9012240F22551954814
:101E600002F0DFF926208DF8000001208DF8030034
:101E70008DF801008DF80200684600F000FE06B003
:101E800010BD10B508218C4802F09AFA58B38A4860
:101E900002F02CFAC4B28A480078002018BB8848A7
:101EA0000078002048B10A2C02D0854908701AE059
:101EB000834800788249087015E00D2C04D18048D1
:101EC00000787F4908700EE07D4800787B490C540B
:101ED0007B480078401C7A49087008460078C7287B
:101EE00001DD0020087010BD10B540F22551714889
:101EF00002F07CFA00287DD040F225516D4802F0B6
:101F00009FFA6C4802F0F2F96E496F4A12788854D1
:101F10006D480078401C6C49087008460078401EE7
:101F20006849085C292805D167480078801E085C4C
:101F3000302803D064480078C8287DD161480078F3
:101F400028287AD15F484078302803DB5D48407804
:101F500039280BDD5B4840782D28F2D1594880782C
:101F600030286ADB57488078392866DC00205849D9
:101F700008605849086002205749086004E0564844
:101F80000068401C544908604E4853490968405C49
:101F9000302805DB4B4850490968405C3928EEDDA4
:101FA0004D480068401C4C49086046480968405C40
:101FB00020287DD1434840782D2829D00120474949
:101FC000086011E03F4845490968405C30384049A5
:101FD000096801EB810100EB41003D4908603F4881
:101FE0000068401C3D49086036483C490968405C2F
:101FF000302800E0E1E205DB324838490968405CFE
:102000003928DFDD34480068401C344908602EE080
:1020100002203249086014E02A4830490968405CCF
:1020200030382B49096801EB810100EB4100284958
:1020300008602A48006801E096E091E0401C2749CA
:102040000860204825490968405C302805DB1D48A8
:1020500022490968405C3928DEDD1D48006840429D
:102060001B4908601C480068401C1C4908601B484C
:10207000016819480068401C81426DD11148174918
:102080000968405C2D283BD011E00E4813490968CF
:10209000405C30380F49096801EB810100EB4100D9
:1020A0000C4908600D480068401C0C49086017E0A6
:1020B00052E000000044004000380140A40100202C
:1020C000900000206C0200209100002000080140D8
:1020D0009C000020A0000020940000209800002018
:1020E000FD48FE490968405C302805DBFA48FB4999
:1020F0000968405C3928C8DD0020F84908602BE0F9
:10210000F6480068401CF549086011E0F248F349C0
:102110000968405C3038F249096801EB810100EB45
:102120004100EF490860ED480068401CEB49086039
:10213000E948EA490968405C302805DBE648E74998
:102140000968405C3928E1DDE54800684042E4491F
:1021500008600020E14908600020E24908702CE294
:102160000020E0490870FAE7DE480078401EDA49AE
:10217000085C292805D1DB480078801E085C3128DE
:1021800003D0D8480078C8287ED1D34800782828C2
:102190007BD1D1484078302803DBCF4840783928BC
:1021A0000BDDCD4840782D28F2D1CB4880783028FF
:1021B0006BDBC9488078392867DC0020CA49086091
:1021C000CA4908600220CA49086004E0C84800689B
:1021D000401CC7490860C048C5490968405C3028B0
:1021E00005DBBD48C2490968405C3928EEDDC048BE
:1021F0000068401CBE490860B7480968405C202858
:102200007ED1B54840782D2827D00120B3490860F9
:1022100011E0B148B1490968405C3038B2490968F9
:1022200001EB810100EB4100AF490860AB48006859
:10223000401CAA490860A848A8490968405C3028A1
:1022400005DBA548A5490968405C3928E1DDA848B7
:102250000068401CA14908602EE002209F490860E8
:1022600011E09D489D490968405C30389E490968E5
:1022700001EB810100EB41009B4908609748006831
:10228000401C9649086001E07CE077E09248934961
:102290000968405C302805DB8F4890490968405C3C
:1022A0003928DEDD9048006840428F490860904838
:1022B0000068401C89490860884801688C480068AB
:1022C000401C814256D1844884490968405C2D28CD
:1022D00024D011E0804881490968405C3038834946
:1022E000096801EB810100EB4100804908607B48EF
:1022F0000068401C7949086077487849096800E01F
:1023000038E0405C302805DB734874490968405C5C
:102310003928DFDD0020714908602BE06F48006834
:10232000401C6E49086011E06B486C490968405CCC
:1023300030386E49096801EB810100EB41006B49BF
:10234000086066480068401C644908606248634948
:102350000968405C302805DB5F4860490968405CDB
:102360003928E1DD6148006840426049086000208A
:102370005A49086000205B4908704DE30020594924
:10238000087049E357480078401E5349085C2928E3
:1023900005D154480078801E085C322803D051488B
:1023A0000078C8287ED14C48007828287BD14A483C
:1023B0004078302803DB4848407839280BDD464810
:1023C00040782D28F2D14448807830286BDB424891
:1023D0008078392867DC0020464908604649086053
:1023E00002204349086004E041480068401C40491D
:1023F000086039483E490968405C302805DB3648AA
:102400003B490968405C3928EEDD39480068401CCA
:102410003749086030480968405C20286ED12E4852
:1024200040782D2827D001202C49086011E02A4847
:102430002A490968405C30382E49096801EB81015E
:1024400000EB41002B49086024480068401C2349E8
:102450000860214821490968405C302805DB1E4896
:102460001E490968405C3928E1DD21480068401CAC
:102470001A4908602EE002201849086011E0164849
:1024800016490968405C30381A49096801EB810136
:1024900000EB41001749086010480068401C0F49D4
:1024A000086001E08EE089E00B480C490968405C57
:1024B000302805DB084809490968405C3928DEDD19
:1024C0000C48006840420B49086009480068401CFD
:1024D00002490860014812E06C02002098000020C8
:1024E000A000002091000020A4000020A8000020EF
:1024F00094000020B4000020B80000202DE0016806
:10250000F6480068401C814254D1F548F5490968F5
:10251000405C2D2822D011E0F148F2490968405C66
:102520003038F149096801EB810100EB4100EE49C7
:102530000860EC480068401CEA490860E848E9493E
:102540000968405C302805DBE548E6490968405CDD
:102550003928E1DD0020E34908602BE0E14800680C
:10256000401CE049086011E0DD48DE490968405C34
:102570003038DD49096801EB810100EB4100DA499F
:102580000860D8480068401CD6490860D448D5493E
:102590000968405C302805DBD148D2490968405CB5
:1025A0003928E1DDD04800684042CF49086000206A
:1025B000CC4908600020CD4908702DE20020CB49AD
:1025C000087029E2C9480078401EC549085C2928DE
:1025D00005D1C6480078801E085C332803D0C34864
:1025E0000078C8287ED1BE48007828287BD1BC4816
:1025F0004078302803DBBA48407839280BDDB848EA
:1026000040782D28F2D1B648807830286BDBB4486A
:102610008078392867DC0020B5490860B549086032
:102620000220AE49086004E0AC480068401CAB4999
:102630000860AB48A9490968405C302805DBA84818
:10264000A6490968405C3928EEDDA4480068401CB2
:10265000A2490860A2480968405C20287ED1A048B1
:1026600040782D2827D001209E49086011E09C4821
:102670009C490968405C30389D49096801EB81013B
:1026800000EB41009A49086096480068401C954953
:102690000860934893490968405C302805DB9048FE
:1026A00090490968405C3928E1DD8C480068401C8D
:1026B0008C4908602EE002208A49086011E08848B1
:1026C00088490968405C30388949096801EB810113
:1026D00000EB41008649086082480068401C81493F
:1026E000086001E07CE077E07D487E490968405C55
:1026F000302805DB7A487B490968405C3928DEDDF3
:102700007B48006840427A49086074480068401C71
:10271000744908607348016870480068401C814231
:1027200056D16F486F490968405C2D2824D011E0CC
:102730006B486C490968405C30386E49096801EBA8
:10274000810100EB41006B49086066480068401C4D
:102750006449086062486349096800E038E0405C09
:10276000302805DB5E485F490968405C3928DFDDB9
:1027700000205C4908602BE05A480068401C594919
:10278000086011E0564857490968405C303859499B
:10279000096801EB810100EB41005649086051488E
:1027A0000068401C4F4908604D484E490968405C2C
:1027B000302805DB4A484B490968405C3928E1DD8F
:1027C0004C48006840424B49086000204549086079
:1027D0000020464908701FE10020444908701BE1B1
:1027E00042480078401E3E49085C292805D13F48F0
:1027F0000078801E085C342803D03C480078C82844
:10280000E9D137480078282867D135484078302802
:1028100003DB3348407839280BDD314840782D28D8
:102820005BD12F488078302857DB2D4880783928B5
:1028300053DC0020304908603049086002202749F5
:10284000086004E025480068401C244908602448CA
:1028500022490968405C302805DB21481F49096886
:10286000405C3928EEDD1D480068401C1B490860AB
:102870001B480968405C202878D1194840782D28E9
:1028800027D001201749086011E01548154909684B
:10289000405C30381849096801EB810100EB4100C8
:1028A000154908600F480068401C0E4908600C4834
:1028B0000C490968405C302805DB0948094909686A
:1028C000405C3928E1DD05480068401C0549086086
:1028D0003EE002200349086024E09AE094000020D2
:1028E0006C02002098000020B80000209100002019
:1028F000BC000020C0000020AC000020B000002080
:10290000464847490968405C30384649096801EB48
:10291000810100EB41004349086041480068401CC8
:102920003F4908603D483E490968405C302805DB66
:102930003A483B490968405C3928E1DD394800687C
:1029400040423849086038480068401C34490860F3
:102950003348016834480068401C814255D12F48F3
:102960002F490968405C2D2823D012E04DE02B4808
:102970002B490968405C30382C49096801EB81011A
:1029800000EB41002949086025480068401C2449A3
:102990000860224822490968405C302805DB1F484E
:1029A0001F490968405C3928E1DD00201C490860A6
:1029B0002BE01B480068401C1949086011E01748CB
:1029C00017490968405C30381849096801EB8101F2
:1029D00000EB41001549086011480068401C10498F
:1029E00008600E480E490968405C302805DB0B483A
:1029F0000B490968405C3928E1DD0C480068404219
:102A00000A4908600020064908600020084908704B
:102A100002E000200649087010BD00006C02002092
:102A200098000020AC00002094000020B00000209E
:102A3000910000200948804709480047FEE7FEE76B
:102A4000FEE7FEE7FEE7FEE7FEE7FEE7FEE7FEE75E
:102A500004480549054A064B704700004F1300081B
:102A600031010008980300209809002098050020F3
:102A70009805002031490143314A1160704770B513
:102A8000002100230F22C47804B32D4C246804F4E1
:102A9000E064C4F5E064210AC1F10403CA4044784B
:102AA00004FA03F18478144021430901254C067887
:102AB000A155047804F01F050124AC4005786D1180
:102AC000AD0005F1E025C5F8004109E0047804F007
:102AD0001F050124AC401C4D0678761145F82640B0
:102AE00070BD1A4A0A400243154B1B1F1A607047FB
:102AF00039B1134A121D12680243114B1B1D1A6093
:102B000006E00F4A121D126882430D4B1B1D1A600E
:102B10007047042808D14FF0E021096941F0040111
:102B20004FF0E022116107E04FF0E021096921F048
:102B300004014FF0E0221161704700000000FA0527
:102B40000CED00E000E400E080E100E080FFFF1F0A
:102B500010B50446CC48844208D10121042000F07D
:102B60002DFB0021042000F029FB46E0C7488442E9
:102B700008D10121082000F021FB0021082000F0ED
:102B80001DFB3AE0C248844208D10121102000F028
:102B900015FB0021102000F011FB2EE0BD488442FF
:102BA00008D10121202000F009FB0021202000F0A5
:102BB00005FB22E0B848844208D10121402000F002
:102BC000FDFA0021402000F0F9FA16E0B3488442F3
:102BD00008D10121802000F0F1FA0021802000F0CE
:102BE000EDFA0AE0AE48844207D10121801500F0D9
:102BF000E5FA0021A01500F0E1FA10BD10B50121A1
:102C0000084600F0DBFA0021012000F0D7FA10BDE1
:102C10002DE9F04102460025002600200023002473
:102C2000002791F803C00CF00F0591F803C00CF0D9
:102C3000100CBCF1000F03D091F802C04CEA05055E
:102C400091F800C0BCF1000F31D0146800202BE0D7
:102C50004FF0010C0CFA00F3B1F800C00CEA0306C7
:102C60009E4220D183004FF00F0C0CFA03F7BC43B7
:102C700005FA03FC4CEA040491F803C0BCF1280FE8
:102C800006D14FF0010C0CFA00FCC2F814C00AE0A7
:102C900091F803C0BCF1480F05D14FF0010C0CFABC
:102CA00000FCC2F810C0401C0828D1D31460B1F851
:102CB00000C0BCF1FF0F34DD546800202EE000F1AD
:102CC000080C4FF0010808FA0CF3B1F800C00CEA48
:102CD00003069E4221D183004FF00F0C0CFA03F73C
:102CE000BC4305FA03FC4CEA040491F803C0BCF1B0
:102CF000280F05D100F1080C08FA0CF8C2F814806E
:102D000091F803C0BCF1480F07D100F1080C4FF057
:102D1000010808FA0CF8C2F81080401C0828CED32D
:102D20005460BDE8F0814FF6FF710180022181708F
:102D30000421C17070470246002093680B400BB11C
:102D4000012000E0002070470146886880B270478B
:102D500002460020D3680B400BB1012000E00020A8
:102D600070470146C86880B2704701617047416191
:102D700070470AB1016100E041617047C16070476E
:102D80004FF480320A438261816182618269826983
:102D9000704702460020434B18684FF68073184076
:102DA00040EA021008433F4B186070473E49C86133
:102DB0007047F0B50A46002300240021002500F0EA
:102DC0000046B6F1004F02D1364EF16901E0354EB2
:102DD0007168C0F3034583B200F44016B6F5401F96
:102DE00008D121F070612F4E766826F070662D4F65
:102DF0007E6012E000F48016B6F5801F06D103262F
:102E000006FA05F4A14341F0706106E0460D360173
:102E100003FA06F6B14341F0706122B1460D360166
:102E200003FA06F6314300F00046B6F1004F02D136
:102E30001C4EF16101E01B4E7160F0BD30B5002207
:102E40008B071C0F0F2303FA04F2164B08338C1068
:102E500053F824309343134C08348D1044F8253034
:102E600023468C1053F824308C07240F00FA04F406
:102E700023430C4C08348D1044F8253030BD0A49EA
:102E8000DC3108607047000000080140000C014080
:102E9000001001400014014000180140001C0140D6
:102EA000002001400000014000002042DF4800688F
:102EB00040F00100DD49086008464068DC490840F0
:102EC000DA49486008460068DA490840D74908608E
:102ED0000846006820F4802008600846406820F416
:102EE000FE0048604FF41F0088607047CF490968B2
:102EF00021F48031CD4A11601146096821F4802106
:102F00001160B0F5803F03D0B0F5802F0ED106E000
:102F1000C649096841F48031C44A116007E0C349D9
:102F2000096841F4A021C14A116000E000BF00BF60
:102F3000704710B501460022002300204A11012AE3
:102F400002D1BA4C236806E0022A02D1B74C236AA8
:102F500001E0B64C636A01F01F02012494401C405A
:102F60000CB1012000E0002010BD38B50020009019
:102F70000024002500BF3120FFF7DBFF0546009845
:102F8000401C00900098B0F5A06F01D0002DF2D049
:102F90003120FFF7CEFF08B1012400E000242046D5
:102FA00038BD01460020A14A106820F0F80040EA30
:102FB000C10010607047A0490860704702460020B9
:102FC0009A4B586820F47C1042EA01031843974B4F
:102FD0005860704798490866704701460020934A38
:102FE000506820F003000843506070478F484068E5
:102FF00000F00C007047014600208C4A506820F019
:10300000F00008435060704701460020874A50682E
:1030100020F4E06008435060704701460020834A76
:10302000506820F4605040EAC1005060704729B1F8
:103030007E4A527A02437D4B5A7204E07B4A527AAE
:1030400082437A4B5A7270477B49D8310860704787
:1030500001460020754A506820F440400843506003
:1030600070470021714A20321170704A82F8201096
:10307000012802D004280AD104E001216B4A203241
:10308000117005E00521694A2032117000E000BF8F
:1030900000BF70476949086070476449096A014385
:1030A000624A11627047654944390860704730B51B
:1030B00000210022002400235C4D6D6805F00C0106
:1030C00021B1042905D0082923D105E05C4D056014
:1030D00022E05B4D05601FE0544D6D6805F47012F1
:1030E000524D6D6805F48034022505EB92421CB9FF
:1030F000544D554305600BE04C4D6D6805F40035AB
:103100001DB1504D5543056002E04D4D55430560DE
:1031100002E04B4D056000BF00BF444D6D6805F0F7
:10312000F0010909484D6B5C0568DD4045603F4D85
:103130006D6805F4E061090A434D6B5C4568DD404C
:1031400085603A4D6D6805F46051C90A3E4D6B5C6F
:103150004568DD40C560354D6D6805F44041890B1B
:103160003A4D6B5CC568B5FBF3F5056130BD29B11F
:103170002E4A526902432D4B5A6104E02B4A526990
:1031800082432A4B5A61704729B1284A9269024307
:10319000264B9A6104E0254A92698243234B9A6147
:1031A000704729B1214AD2690243204BDA6104E019
:1031B0001E4AD26982431D4BDA61704729B11B4A0E
:1031C000D2680243194BDA6004E0184AD26882439D
:1031D000164BDA60704729B1144A12690243134B47
:1031E0001A6104E0114A12698243104B1A61704758
:1031F00012494039086070470F49C86470470B494D
:10320000C87170470948406A40F0807007494862B9
:10321000704701460020054A92680A400AB1012021
:1032200000E000207047014988727047001002409A
:103230000000FFF8FFFFF6FE000042428004424219
:1032400000127A0000093D00C6000020D6000020D0
:1032500010B50446FE48844208D10121C014FFF78E
:10326000ADFF0021E014FFF7A9FFC4E0B4F1804FE7
:1032700008D101210846FFF7AEFF00210120FFF72A
:10328000AAFFB8E0F348844208D101210220FFF7E9
:10329000A2FF00210220FFF79EFFACE0EE4884422F
:1032A00008D101210420FFF796FF00210420FFF739
:1032B00092FFA0E0E948844208D101210820FFF7ED
:1032C0008AFF00210820FFF786FF94E0E44884424B
:1032D00008D101211020FFF77EFF00211020FFF709
:1032E0007AFF88E0DF48844208D101212020FFF7DF
:1032F00072FF00212020FFF76EFF7CE0DA48844255
:1033000008D101214014FFF759FF00216014FFF795
:1033100055FF70E0D548844209D10121C804FFF768
:103320004DFF00214FF40020FFF748FF63E0D04835
:10333000844209D101210805FFF740FF00214FF425
:103340008010FFF73BFF56E0CA48844209D10121B3
:103350004805FFF733FF00214FF40010FFF72EFF61
:1033600049E0C548844208D101214020FFF733FFDE
:1033700000214020FFF72FFF3DE0C048844208D1E4
:1033800001218020FFF727FF00218020FFF723FF86
:1033900031E0BB48844208D101218015FFF71BFFB3
:1033A0000021A015FFF717FF25E0B648844209D198
:1033B00001210804FFF702FF00214FF48030FFF7DE
:1033C000FDFE18E0B048844209D101214804FFF70E
:1033D000F5FE00214FF40030FFF7F0FE0BE0AB48A4
:1033E000844208D101218804FFF7E8FE00214FF450
:1033F0008020FFF7E3FE10BD00220288944B984224
:103400000ED0994B98420BD0B0F1804F08D0914B21
:10341000984205D0904B984202D0904B984204D1EC
:103420004FF68F731A404B881A438D4B984207D042
:103430008C4B984204D04FF6FF431A40CB881A4376
:1034400002808B8883850B880385814B98420BD043
:10345000854B984208D08B4B984205D08A4B9842B6
:1034600002D08A4B984201D10B7A038601238382D2
:10347000704770B5002400220023058C4FF6FE76BD
:1034800035400584028C8388048B4FF68F752C4061
:10349000B51E2C400D882C43751E2A400D892A43E9
:1034A0004D882A436A4DA8420BD06F4DA84208D0E0
:1034B000744DA84205D0744DA84202D0734DA84265
:1034C00013D14FF6F7752A404D892A434FF6FB7505
:1034D0002A408D882A434FF6FF652B404FF6FF5553
:1034E0002B408D892B43CD892B4383800483CD884A
:1034F0008586028470BD70B5002400220023058CEF
:103500004FF6EF7635400584028C8388048B48F6AD
:10351000FF752C404FF6FF452C400D884FF6FF7687
:1035200006EA05252C434FF6DF752A400D8906EA89
:1035300005152A434D8806EA05152A43444DA8423D
:1035400002D0494DA8421DD14FF67F752A404D89C2
:103550004FF6FF7606EA05152A434FF6BF752A4057
:103560008D8806EA05152A434FF6FF352B404FF2AA
:10357000FF752B408D8906EA85052B43CD8906EA28
:1035800085052B4383800483CD880587028470BD25
:1035900070B5002400220023058C4FF6FF663540ED
:1035A0000584028C8388848B4FF68F752C404FF6F0
:1035B000FC752C400D882C434FF6FF552A400D8991
:1035C0004FF6FF7606EA05252A434D8806EA0525CB
:1035D0002A431F4DA84202D0234DA8421DD14FF2CD
:1035E000FF752A404D894FF6FF7606EA05252A43E6
:1035F0004FF6FF352A408D8806EA05252A434EF608
:10360000FF752B404DF6FF752B408D8906EA051599
:103610002B43CD8906EA05152B4383808483CD880F
:103620008587028470BD70B5002200230024058CBC
:103630004EF6FF7635400584038C8488828B48F6ED
:10364000FF752A404FF6FF452A400D8820E0000014
:10365000002C01400004004000080040000C004025
:10366000001000400014004000340140004C0140B4
:10367000005001400054014000180040001C004070
:10368000002000400040014000440140004801404B
:103690004FF6FF7606EA05252A434DF6FF752B40C7
:1036A0000D8906EA05352B434D8806EA05352B437F
:1036B000FA4DA84202D0FA4DA84208D14BF6FF7548
:1036C0002C408D894FF6FF7606EA85152C438480C1
:1036D0008283CD88A0F84050038470BD828B4FF266
:1036E000FF331A408283828B4FF6FF7303EA012374
:1036F0001A4382837047F0B50C461546002200211C
:103700000026078C4EF6FF7C07EA0C070784828BA5
:10371000018C4FF6FF7707EA043640F6FF473A4040
:103720004FF6FF7707EA05273A434FF6FF7707EA98
:1037300003373A43D94FB8420ED0D94FB8420BD0D5
:10374000B0F1804F08D0D74FB84205D0D64FB8421D
:1037500002D0D64FB84206D14DF6FF77394046F435
:103760008057394305E047F6FF57394044F4805706
:10377000394382830184F0BD828B4FF6F3731A4084
:103780008283828B0A4382837047F0B50C461546CC
:10379000002200210026078C4FF6FF6C07EA0C0779
:1037A0000784828B018C4FF6FF7707EA04264FF6D9
:1037B0000C773A404FF6FF7707EA03172F433A4357
:1037C000B64FB8420ED0B64FB8420BD0B0F1804FD2
:1037D00008D0B44FB84205D0B34FB84202D0B34F6F
:1037E000B84206D14FF6FF57394046F48077394347
:1037F00005E04FF2FF57394044F480773943828324
:103800000184F0BD028B4FF2FF331A400283028B1A
:103810004FF6FF7303EA01231A4302837047F0B5A2
:103820000C461546002200210026078C4FF6EF7C3F
:1038300007EA0C070784028B018C4FF6FF7707EA33
:10384000041640F6FF473A404FF6FF7707EA033782
:103850003A434FF6FF7707EA05273A438F4FB842BE
:103860000ED08F4FB8420BD0B0F1804F08D08D4FA3
:10387000B84205D08C4FB84202D08C4FB84206D126
:103880004FF6DF77394046F01007394305E04FF631
:103890005F77394044F01007394302830184F0BD5B
:1038A000028B4FF6F3731A400283028B0A430283A2
:1038B0007047F0B50C46154600220021068C4FF6E5
:1038C000FE773E400684028B018C4FF60C76324028
:1038D0007E1C06EA03162E433243704EB0420ED0D1
:1038E0006F4EB0420BD0B0F1804F08D06D4EB04259
:1038F00005D06D4EB04202D06C4EB04206D14FF6AC
:10390000FD76314044F00106314305E04FF6F5768F
:10391000314044F00106314302830184F0BD70B5AB
:1039200005460C465D4885420ED05D4885420BD069
:10393000B5F1804F08D05B48854205D05A48854292
:1039400002D05A48854200D100E000BF208850B91B
:103950002389A28861882846FFF7ABFFE1882846C3
:10396000FFF79EFF25E0208804280AD12389A2883A
:1039700061882846FFF753FFE1882846FFF742FF9A
:1039800017E0208808280AD12389A2886188284660
:10399000FFF7FBFEE1882846FFF7EEFE09E02389EA
:1039A000A28861882846FFF7A6FEE1882846FFF72F
:1039B00095FE70BD2DE9F04105460C460026012715
:1039C000608808B9022600E00026A088012801D1FD
:1039D000022700E001272088A0B92389A2886188F6
:1039E0002846FFF766FFE1882846FFF759FF23893D
:1039F0003A4631462846FFF712FFE1882846FFF78E
:103A000001FF13E02389A28861882846FFF707FF9A
:103A1000E1882846FFF7F6FE23893A4631462846D4
:103A2000FFF747FFE1882846FFF73AFFBDE8F0813E
:103A30000A884B881A438B881A43CB881A430B8910
:103A40001A434B891A438B891A43A0F844207047C4
:103A50004FF6FF71818000210180C1804180017299
:103A600070470021018041808180C18001814181B6
:103A70008181C181704700210180418001218180C5
:103A80000021C18001817047002101804180818037
:103A9000C18001814181818170470000002C01407B
:103AA000003401400004004000080040000C0040C9
:103AB00021B1028842F00102028004E002884FF640
:103AC000FE731A400280704731B1B0F8442042F4CE
:103AD0000042A0F8442005E0B0F84420C2F30E02F2
:103AE000A0F8442070471AB183890B43838102E018
:103AF00083898B43838170478182704741EA020347
:103B0000A0F8483070471AB183890B43838102E0E3
:103B100083898B438381704701894FF6F872114086
:103B2000018170470A46002101894FF68F731940C1
:103B300011430181704730B504460D4629462046A1
:103B4000FFF7F0FF208940F00700208130BD2DE90C
:103B5000F04104460D4616461F46602D06D13B46F1
:103B6000012231462046FFF75AFE05E03B4601227E
:103B700031462046FFF79DFE29462046FFF7D2FF3B
:103B8000208940F007002081BDE8F08130B50C4667
:103B900000210189C9B24FF6FF7505EA03251543D7
:103BA00025432943018130BD2DE9F04105460E46EC
:103BB00017469846002443463A4631462846FFF7C2
:103BC000E5FF2C894FF6F870044044F007044FF6E7
:103BD0008F70044044F070042C81BDE8F081F0B592
:103BE00004460D4616461F463B46324629462046A9
:103BF000FFF7CCFF208940F480402081F0BD018593
:103C0000828270470A46002101884FF68F7319405F
:103C1000114301807047F0B50C4615461E46002141
:103C2000002200230189028B038C4FF6F87739407C
:103C300021434FF6FC473A4040F201173A434FF612
:103C4000DD773B404FF6FF7707EA06172F433B43EC
:103C5000018102830384F0BD0A460021018B4FF6E7
:103C60008F7319401143018370470A460021018B6D
:103C700048F6FF7319404FF6FF7303EA0223194316
:103C8000018370470A460021818B4FF68F731940DC
:103C90001143818370470A460021818B48F6FF73E8
:103CA00019404FF6FF7303EA0223194381837047DB
:103CB00021B1028842F08002028004E002884FF6BF
:103CC0007F731A400280704721B1828842F004025B
:103CD000828004E082884FF6FB731A40828070472E
:103CE00021B1828842F00802828004E082884FF687
:103CF000F7731A408280704721B1828842F0010236
:103D0000828004E082884FF6FE731A4082807047FA
:103D10000A460021018B4FF6F773194011430183C6
:103D200070470A460021018B4FF2FF7319404FF68E
:103D3000FF7303EA02231943018370470A460021F7
:103D4000818B4FF6F77319401143818370470A4600
:103D50000021818B4FF2FF7319404FF6FF7303EA86
:103D600002231943818370470A460021018B4FF6D5
:103D7000FB7319401143018370470A460021018BF0
:103D80004FF6FF3319404FF6FF7303EA022319433E
:103D9000018370470A460021818B4FF6FB7319405F
:103DA0001143818370470A460021818B4FF6FF3310
:103DB00019404FF6FF7303EA0223194381837047CA
:103DC0000A460021018B4FF67F731940114301838E
:103DD00070470A460021018BC1F30E014FF6FF73B5
:103DE00003EA02231943018370470A460021818BAD
:103DF0004FF67F7319401143818370470A460021B3
:103E0000818BC1F30E014FF6FF7303EA02231943BE
:103E1000818370470A460021018C4FF6FD731940DB
:103E20001143018470470A460021018C4FF6F77355
:103E300019401143018470470A460021018C4FF656
:103E4000DF7319404FF6FF7303EA0213194301842D
:103E500070470A460021018C4FF67F7319404FF6D8
:103E6000FF7303EA02131943018470470A460021D5
:103E7000018C4FF6FF5319404FF6FF7303EA0223FC
:103E80001943018470470A460021018C4FF2FF73E9
:103E900019404FF6FF7303EA022319430184704768
:103EA0000A460021018C4DF6FF7319404FF6FF734F
:103EB00003EA023319430184704730B5002301241B
:103EC0008C40A3B2048C9C430484048C02FA01F558
:103ED000ADB22C43048430BD30B5002304248C40A3
:103EE000A3B2048C9C430484048C02FA01F5ADB2A5
:103EF0002C43048430BD70B50346002000241846CE
:103F0000183001258D40ACB21D8CA5431D8409B12C
:103F1000082909D100EB6100056825F070050560EE
:103F20000568154305600EE00D1FC5F34E052844D6
:103F3000056825F4E045056005684FF6FF7606EA5A
:103F400002263543056070BD21B1028842F00202AD
:103F5000028004E002884FF6FD731A400280704729
:103F600021B1028842F00402028004E002884FF688
:103F7000FB731A400280704721B1828842F08002B0
:103F8000828004E082884FF67F731A4082807047F7
:103F900002884FF6F7731A40028002880A430280B3
:103FA000704782884FF68F731A40828082880A4356
:103FB0008280704702894FF6F8731A4002810289A5
:103FC0000A430281704702894FF67F731A400281CB
:103FD00002890A4302817047818470478185704756
:103FE000818670470187704781877047A0F840102D
:103FF000704702884FF6FF431A40028002880A4346
:10400000028070470146888E70470146088F7047CE
:104010000146888F70470146B1F84000704701465D
:10402000888C70470146088D704702460020138A2D
:104030000B400BB1012000E000207047CA43028210
:10404000704730B50246002000230024158A05EA97
:104050000103958905EA010413B10CB1012000E0C8
:10406000002030BDCA4302827047000010B50446EC
:10407000FB48844209D101218803FFF79FF8002102
:104080004FF48040FFF79AF832E0F648844209D1B5
:1040900001214804FFF79FF800214FF40030FFF79B
:1040A0009AF825E0F048844209D101218804FFF7FD
:1040B00092F800214FF48020FFF78DF818E0EB48CC
:1040C000844209D10121C804FFF785F800214FF48B
:1040D0000020FFF780F80BE0E548844208D1012179
:1040E0000805FFF778F800214FF48010FFF773F808
:1040F00010BD2DE9F04786B005460E460024A246C5
:1041000000BFA1460027B08900B100BF2F462C8A0E
:104110004CF6FF700440F08804432C82AC894EF6C4
:10412000F3100440B088318908437189084304437F
:10413000AC81AC8A4FF6FF400440B0890443AC82A6
:1041400001A8FEF7B4FFC648874202D1DDF810A0EF
:1041500001E0DDF80CA0A88900F4004040B10AEBB2
:10416000CA0000EB0A1031684900B0FBF1F807E023
:104170000AEBCA0000EB0A1031688900B0FBF1F8C5
:104180006420B8FBF0F004012009642101FB1089D0
:10419000A88900F4004040B1322000EBC900B0FB18
:1041A000F1F000F00700044308E0322000EB0910B2
:1041B0006421B0FBF1F000F00F0004432C8106B045
:1041C000BDE8F0874FF41651016000218180C18065
:1041D00001810C21418100218181704710B5024687
:1041E0000020108A4FF2FF0318400B884C882343AD
:1041F0008C882343CC8823431843108210BD0021B0
:10420000018041808180C180704721B1828942F460
:104210000052828104E082894DF6FF731A40828148
:104220007047F0B50346002400260025002040F624
:104230006A17B94200D100BF1846C1F3421401F019
:104240001F06012707FA06F5012C01D10C3004E006
:10425000022C01D1103000E014301AB107682F434E
:10426000076002E00768AF430760F0BD1AB1838AB8
:104270000B43838202E0838A8B4383827047028AE6
:104280004FF6F0731A400282028A0A430282704794
:1042900082894FF2FF731A40828182890A438281A8
:1042A000704721B1828942F00202828104E0828952
:1042B0004FF6FD731A4082817047028A4FF6DF7312
:1042C0001A400282028A0A430282704721B1028A9E
:1042D00042F48042028204E0028A4BF6FF731A40E5
:1042E00002827047C1F308028280704701468888C5
:1042F000C0F308007047818941F001018181704756
:10430000028BD2B20283028B42EA012202837047FF
:10431000028B02F47F420283028B0A4302837047BE
:1043200021B1828A42F02002828204E0828A4FF622
:10433000DF731A408282704721B1828A42F01002F4
:10434000828204E0828A4FF6EF731A4082827047BD
:1043500021B1828A42F00802828204E0828A4FF60A
:10436000F7731A408282704721B1828942F4004279
:10437000828103E08289C2F30E028281704721B1FB
:10438000828A42F40062828204E0828A4FF2FF73E2
:104390001A4082827047828A4FF6FB731A408282EB
:1043A000828A0A438282704721B1828A42F00202E5
:1043B000828204E0828A4FF6FD731A40828270473F
:1043C00002460020B1F5007F00D100BF13880B40EA
:1043D0000BB1012000E00020704701F40072B2F53B
:1043E000007F00D100BFCA430280704770B502460B
:1043F000002400230025002040F66A16B14200D1B7
:1044000000BFC1F3421501F01F03012606FA03F3B2
:10441000012D02D19689334006E0022D02D1168A81
:10442000334001E0968A33400C12012606FA04F468
:104430001688344013B10CB1012000E0002070BD9B
:1044400010B50022002340F66A14A14200D100BF3B
:104450000A1201249440A3B2DC43048010BD000082
:10446000003801400044004000480040004C00403B
:10447000005000407047704770477047704775465E
:1044800000F02CF8AE4605006946534620F00700C0
:10449000854618B020B5FEF7DBFABDE820404FF0A6
:1044A00000064FF000074FF000084FF0000B21F01E
:1044B0000701AC46ACE8C009ACE8C009ACE8C009EB
:1044C000ACE8C0098D46704710B50446AFF30080D4
:1044D0002046BDE81040FBF772BE00000048704760
:1044E0003403002021F00042A2F16052B2F5801F97
:1044F00001F0004328BFD2F17F6C0BD95FEA001CAA
:1045000043EAC20242EB507018BF704728BF20F048
:1045100001007047B2F5801FBCBF184670474FEAD4
:10452000410C1CF5001F02D2084600F06CBD70B5AE
:1045300000F03EF900000089FFF7F6BF4FF00040A1
:10454000A0F580007047000010B591EA030F48BF46
:1045500083F0004300F1CA81841A71EB030C05D289
:10456000121943EB0C03001B61EB0C01DFF824E193
:104570004FEA1154A4EB135C1EEA430F18BF9EEAE6
:10458000445F73D023EA0E03DCF1200E21EA0451CC
:1045900043F4801332D322FA0CFE10EB0E0023FA00
:1045A0000CFE41EB0E01CCF1200E03FA0EFE10EBD7
:1045B0000E0051F10001B1F5801FCCF1200E32D276
:1045C00001EB045112FA0EF2BDE8104058BF7047DB
:1045D000401C38BF5FEA420218BF7047002814BF72
:1045E00020F0010041F100014FEA410313F5001FE3
:1045F00038BF7047A1F1C04100F028B9012A43EB50
:104600000302ACF1200CDCF11F0E32BF4FF0000EA4
:1046100023FA0CF310EB030041EB0451B4EB115FF0
:10462000D0D0A1EB045101F5801149085FEA3000B8
:1046300001EB04510ED350F1000038BF12FA0EFE08
:1046400008D1BDE81040C9E7401C38BF5FEA42020C
:10465000CAD1C3E7BDE810404FEA410313F5001F7C
:1046600038BF7047A1F1C04100F0F0B89EEA445F46
:1046700008D011EA5E0FBDE8104004BF01F0004110
:1046800000207047BDE8104070B500F091F800BF01
:1046900064FBBE3E0000E0FF491058BFC1F140413D
:1046A0005B1058BFC3F140438B42EFF3008070476B
:1046B0004FEA1153A3F58063D3F11E03A8BFD3F1D2
:1046C000200C08DB4FF0004242EAC12252EA50526D
:1046D00032FA03F0704709420BD4102BC4BF0020FC
:1046E000704703F5787CBCF1FF3F05D04FF0FF30F9
:1046F00070474FF00000704770B500F059F800BFE8
:104700004992248000207047F0E710F0004248BF33
:104710004042B0FA80F310FA03F10AD0C3F11D034E
:1047200003F580634FEA415002EB035202EBD121C3
:1047300070474FF00000704751EA030C17D41CF586
:10474000801F58BFBCF5801F00F10680994218BF3A
:10475000704708BF9042704707D711F5801F58BFB8
:1047600013F5801F19D499427047894270471CF590
:10477000801F08D5BCF5801FF7D58B4218BF704746
:1047800008BF824270474FF4001C1CEB410F38BF3A
:104790001CEB430F01D28B42704770B500F008F854
:1047A000922449004FF000514FF08053FFF774BF3F
:1047B0000EF1020E2EF0030E5EF8046B364205D4A5
:1047C000012A43EB030515F5001F12D8012841EB20
:1047D000010C1CF5001F0CD80ED14FEAD17C15F549
:1047E000001F0CEB4C0C0CF1020C08BF4CEBD37C03
:1047F00004E04FF0080C01E04FEAD37C0CEB4C05D1
:1048000026FA05F606F00706B6F1040C06D20EEB02
:10481000860CBDE870404CF0010C6047DFE80CF0FE
:10482000090B02024FF000414FF00000A1F50021FA
:1048300070BD19461046012851EB010418BFD4F58C
:10484000001484BF002001F0004170BD0808A0F5ED
:1048500000114FEA3101704753EA010C17D41CF5DF
:10486000801F58BFBCF5801F00F106808B4218BF27
:10487000704708BF8242704707D713F5801F58BFA3
:1048800011F5801F19D48B4270479B4270471CF56D
:10489000801F08D5BCF5801FF7D5994218BF704717
:1048A00008BF904270474FF4001C1CEB430F38BF09
:1048B0001CEB410F01D2994270470FB40CBC03BCF2
:1048C000FFF76BBF91EA030F10B581F000413FF590
:1048D00043AE83F0004300F009B8000010B591EA40
:1048E000030F48BF83F000433FF536AE841A71EBE7
:1048F000030C07D212198CF0004C43EB0C03001B85
:1049000061EB0C01DFF8A4E14FEA1154A4EB135C56
:104910001EEA430F18BF9EEA445F00F0B08023EA0E
:104920006E03524221EA0451C3EB6E0338BF5B1E93
:10493000DCF1200E25D322FA0CFE10EB0E0043FA18
:104940000CFE41EB0E01CCF1200E03FA0EFE10EB33
:104950000E0051F10001CCF1200E29D412FA0EF212
:1049600001EB0451BDE8104058BF7047401C1CBF0C
:10497000B2F1004F704700280CBF491C20F0010025
:10498000704712EB020E43EB030218BF4FF0010E0B
:104990004EEA4202ACF1200CDCF11E0E54D943FA6F
:1049A0000CFE10EB0E0051F1FF31CCF11E0ED5D5EF
:1049B0000EF1010E12FA0EFE404141EB010101EB36
:1049C000445C5FEA5C5C10D910EBDE7001EB0451D3
:1049D00038BFBEF1004FBDE8104018BF7047002837
:1049E0000CBF491C20F00100704730D24FEAD42C94
:1049F00011F5001124F400641BD0B1FA81F20B3AD6
:104A0000A41AA41ED2F12003914030FA03F31943F3
:104A1000904001EBCC71002C01EB0451BDE810403B
:104A2000A8BF704701F1C0414FF0000001F0004104
:104A30007047B0FA80F310FA03F100D110BDE41A08
:104A4000173C4805C90AE4E701EB045110BD4910C1
:104A500001EB0451BDE810404FEA300002E04FF096
:104A6000000170474A0008BF0042F8D0B2F5001FAD
:104A700028BF704701F000414FF0000070479EEAE8
:104A8000445F07D011EA5E0FBDE8104004BF00216B
:104A900000207047BDE8104070B5FFF789FE00BFE9
:104AA00040DFF63E83F00041104670470000E0FF13
:104AB00043004FEAD30C4FEA3C0C43401FBF400772
:104AC0000CF1605113F0FE4F70471CF0006F03D1E2
:104AD00000200CF0004170470CF0004343EA507096
:104AE00010B540EACC0000F048FA00BF0000009288
:104AF0004FEA0001FFF7AABE4FF000414FF000005F
:104B0000A1F500217047000090EA010F48BF81F035
:104B1000004100F1B682421A3CBF801A89184FEA60
:104B2000D0524FF07F4C1CEA410FA2EBD15318BF7B
:104B30009CEA026F00F03B804FF0004C4CEA0020F2
:104B40004CEA012121FA03FC10EB0C0C1ED202F1FD
:104B5000FF325FEA1C2040EBC25038BF70471CF0A8
:104B60007F0F4FEA400C18BFBCF17F4F38BF704732
:104B7000C3F12003994008BF20F00100BCF17F4F32
:104B800038BF7047A0F1C04000F03DBA4FEA3C008A
:104B9000000A40EBC25028BF1CF0FF0F4FEA400C48
:104BA000E6D018BFBCF17F4F38BF7047EAE79CEAF8
:104BB000026F05D010EA5C0F08BF00F0004070479C
:104BC00010B500F0DAF900BF64FBBE3E401058BFDC
:104BD000C0F14040491058BFC1F140418142EFF35C
:104BE000008070474FF47F0C1CEAD0121EBF1CEAF5
:104BF000D11392EA0C0F93EA0C0F00F0858090EA33
:104C0000010F48BF42F4807240F4000C41F40000F0
:104C10002CF07F4120F07F4000B58142A2EB0302DF
:104C20000FF2081CACEB504EC0F100009EF800E003
:104C30004FEA4E0E00FB0EFC38BF49004FEA2C1C19
:104C400002F5FA020CFB0EF34FEACE1E4FEA112CCE
:104C50004FEAC1210EEB635E42EB22420EFB0CFCDD
:104C60004FEA1C5300FB03114FEA112C4FEA0131AC
:104C70000EFB0CFC4FEADC4C00FB0C11C14228BFC0
:104C800009184CEB03335DF804EB10EB410143EBE7
:104C9000C250B2F57C0F38BF704729D512F0F00F23
:104CA0001CBF00F1C04000F00040704700818283CB
:104CB0008485868788898B8C8D8E8F91929395962B
:104CC00097999A9C9D9FA0A2A3A5A7A8AAACAEB0B5
:104CD000B2B3B5B7B9BCBEC0C2C5C7C9CCCED1D4BA
:104CE000D7D9DCDFE2E6E9ECF0F3F7FAFE000000EA
:104CF0004FEA400C0CF1807CBCF17E4F28BF70471E
:104D0000B0F1C04000F07FB990EA010F0CEAD11376
:104D100048BF42F48072624538BF634507D213F43E
:104D20007F0F16D080EA010000F00040704710B5F8
:104D300000F023F9097EFC3E00F005B880EA01008E
:104D400000F00040704780EA010000F0004000F0F1
:104D50005AB912F47F0F04BF0248704780EA01007D
:104D600000F051B90000C07F41000B0ED3F19E024C
:104D700008D950F400034FEA032323FA02F048BF96
:104D80004042704710B500F0F8F800BF4992248007
:104D9000002070476FF0004282EA20007047000058
:104DA000C10DD1F19E0206DB4FEA002343F0004320
:104DB00023FA02F07047004207D54FEA4001B1F1F3
:104DC000FE4F02D24FF00000704710B500F0D5F84A
:104DD00049922480002070476FEA2000704700004D
:104DE00010F0004148BF4042B0FA80F310FA03F2DD
:104DF000C3F19D030BD051EAC35101EB12205306BE
:104E000038BF704700F1010008BF20F00100704773
:104E100050EA010C00F113801CF5000F58BFBCF5DF
:104E2000000F01D48842704707D710F5000F58BF14
:104E300011F5000F15D488427047894270471CF560
:104E4000000F04D5BCF5000FF7D5814270474FF035
:104E5000807C1CEB400F38BF1CEB410F01D281421C
:104E6000704710B500F089F8922449004FF00050C7
:104E70004FF08051FFF7AABE4FF47F0C1CEAD0120E
:104E80001EBF1CEAD11392EA0C0F93EA0C0F00F03C
:104E9000478090EA010F48BF42F480724FF0004C07
:104EA0004CEA00204CEA012102EB0302A0FB0113B3
:104EB000A2F50002002918BF43F001035B0028BFE0
:104EC0004FEA330342EB22425FEA132C4CEBC25011
:104ED0002EBFBCEB436FB2F57C0F70474FEA036CFB
:104EE000BCF1004F08BF20F00100B2F57C0F38BFC5
:104EF00070470BD582F0FF0212F5803FC8BF7047A4
:104F000000F1C040D8BF00F00040704700F5000C31
:104F10005FEA4C0C48BF7047B0F1C04000F073B876
:104F200090EA010F0CEAD11348BF42F48072624547
:104F300038BF634504D280EA010000F000407047AA
:104F400010B500F01AF800BF8900013E00F007B864
:104F500000F009B85FEA410C5FEA1C6C08D080EAF7
:104F6000010000F050B85FEA400C5FEA1C6CF6D11B
:104F70004FF00040A0F5800070470EF1020E2EF0B9
:104F8000030E5EF8044B244204D44FEA4102B2F10E
:104F90007F4F11D84FEA4003B3F17F4F0CD80ED1A9
:104FA0004FEAD07CB2F17F4F0CEB4C0C0CF1020CB1
:104FB00008BF4CEBD17C04E04FF0080C01E04FEA55
:104FC000D17C0CEB4C0324FA03F404F00704B4F195
:104FD000040C06D20EEB840CBDE810404CF0010C22
:104FE0006047DFE80CF0070802024FF00040A0F530
:104FF000800010BD0846420018BFD2F1807288BF01
:1050000000F0004010BDFF2141EAD050C0057047BC
:1050100051EA000C00F113801CF5000F58BFBCF5DD
:10502000000F01D48142704707D711F5000F58BF18
:1050300010F5000F15D481427047894270471CF566
:10504000000F04D5BCF5000FF7D5884270474FF02C
:10505000807C1CEB410F38BF1CEB400F01D2884213
:10506000704780EA010081EA000180EA0100FFF751
:10507000F8BE000090EA010F48BF81F000413FF503
:105080004AAD421A04D882F00042A0EB020011445B
:105090004FEAD0524FF07F4C1CEA410FA2EBD153A4
:1050A00018BF9CEA026F4AD04FF0004C4CEA002037
:1050B0004CEA012121FA03FCB0EB0C0C0FD412F0E6
:1050C000FE0F36D05FEA4C001DD5001240EBC250F7
:1050D00038BF70471CF03F0F18BF70470BE0A2F1BC
:1050E00001025FEA1C2040EBC25038BF70471CF041
:1050F0007F0F18BF7047C3F12003994014BF401EB3
:1051000020F00100704780084FEA122308BF704763
:10511000B0FA80FCA2EB0C02CCF1280C60FA0CF087
:1051200093EA122F04BF00EBC25070474FEAC370DE
:105130007047130A5FEADC1008BF7047F6E79CEA85
:10514000026F04D010EA5C0F08BF0020704710B552
:10515000FFF713FF40DFF63E81F00040704700008C
:10516000000000000000000000000000000000003F
:1051700000F80000000000000033300000000010C4
:105180000C06100C0600000000000000000040C0EB
:105190007840C0784000043F04043F0404000070DD
:1051A00088FC08300000001820FF211E0000F008D5
:1051B000F000E018000000211C031E211E0000F07A
:1051C0000888700000001E212324192721101016C2
:1051D0000E000000000000000000000000000000C1
:1051E00000E0180402000000000718204000000240
:1051F0000418E000000000402018070000004040B4
:1052000080F0804040000202010F01020200000015
:1052100000F0000000000101011F01010100000079
:1052200000000000000080B07000000000000000DE
:105230000000000000000001010101010101000067
:1052400000000000000000303000000000000000FE
:10525000000080601804006018060100000000E0F3
:1052600010080810E000000F102020100F000010A0
:1052700010F8000000000020203F202000000070F7
:1052800008080888700000302824222130000030EF
:105290000888884830000018202020110E000000E7
:1052A000C02010F8000000070424243F240000F868
:1052B0000888880808000019212020110E0000E04D
:1052C000108888180000000F112020110E000038EF
:1052D0000808C83808000000003F00000000007007
:1052E000880808887000001C222121221C0000E090
:1052F00010080810E0000000312222110F00000009
:1053000000C0C000000000000030300000000000BD
:10531000008000000000000080600000000000002D
:1053200080402010080000010204081020004040C6
:105330004040404040000404040404040400000809
:1053400010204080000000201008040201000070BE
:1053500048080808F0000000003036010000C030A6
:10536000C828E810E0000718272423140B000000C9
:10537000C038E0000000203C23020227382008F853
:10538000888888700000203F202020110E00C03047
:10539000080808083800071820202010080008F81E
:1053A00008080810E000203F202020100F0008F817
:1053B0008888E8081000203F20202320180008F8E3
:1053C0008888E8081000203F200003000000C0305B
:1053D00008080838000007182020221E020008F8DC
:1053E00008000008F808203F210101213F200008A3
:1053F00008F8080800000020203F202000000000DE
:105400000808F8080800C08080807F00000008F8C5
:1054100088C028180800203F20012638200008F8FE
:10542000080000000000203F20202020300008F865
:10543000F800F8F80800203F003F003F200008F87F
:1054400030C00008F808203F200007183F00E01097
:1054500008080810E0000F10202020100F0008F8A6
:1054600008080808F000203F210101010000E010B9
:1054700008080810E0000F18242438504F0008F8DE
:10548000888888887000203F2000030C302000703E
:105490008808080838000038202121221C0018083C
:1054A00008F8080818000000203F2000000008F855
:1054B00008000008F808001F202020201F0008789E
:1054C000880000C83808000007380E010000F808FE
:1054D00000F80008F800033C0700073C0300081828
:1054E00068808068180820302C03032C302008388E
:1054F000C800C83808000000203F20000000100845
:105500000808C8380800203826212020180000008C
:1055100000FE020202000000007F40404000000C3C
:1055200030C000000000000000010638C00000028A
:105530000202FE000000004040407F00000000002A
:10554000040202020400000000000000000000004D
:105550000000000000008080808080808080000249
:105560000204000000000000000000000000000035
:105570008080808000000019242222223F2008F829
:10558000008080000000003F112020110E0000006C
:10559000008080800000000E1120202011000000FB
:1055A00000808088F800000E112020103F200000AD
:1055B000808080800000001F2222222213000080B1
:1055C00080F0888888180020203F202000000000FC
:1055D000808080808000006B94949493600008F831
:1055E000008080800000203F210000203F200080BC
:1055F0009898000000000020203F202000000000BC
:1056000000809898000000C08080807F000008F82B
:10561000000080808000203F24022D302000000800
:1056200008F8000000000020203F202000008080BB
:10563000808080808000203F20003F20003F8080CD
:10564000008080800000203F210000203F200000DB
:10565000808080800000001F202020201F0080808C
:1056600000808000000080FFA12020110E000000BB
:10567000008080808000000E112020A0FF808080AC
:1056800080008080800020203F2120000100000059
:10569000808080808000003324242424190000802E
:1056A00080E0808000000000001F2020000080803B
:1056B000000000808000001F202020103F208080FC
:1056C00080000080808000010E300806010080808C
:1056D0000080008080800F300C030C300F000080B1
:1056E0008000808080000020312E0E3120008080DC
:1056F00080000080808080818E701806010000800C
:105700008080808080000021302C22213000000029
:105710000000807C020200000000003F40400000CA
:105720000000FF00000000000000FF000000000279
:10573000027C800000000040403F000000000006A6
:10574000010102020404000000000000000000004B
:105750007057000800000020DC0000006C01000809
:105760004C580008DC000020BC080000880100083C
:10577000000000000000A0400000504100009041E7
:105780000000000000000000000000000000000019
:1057900000000000000000000000000000001440B5
:1057A0000000003F0000003F0000803F0000803FFD
:1057B000000000000000A040000000000000A04029
:1057C00000000000000000000000000000000000D9
:1057D00000000000000000000000000000000000C9
:1057E0000000000000A24A040000000000000000C9
:1057F0000102030406070809000000000000000081
:105800000000000000000000000000000000000098
:105810000000000000000000000000000000000088
:105820000000000000000000000000000000000078
:10583000000000000000000000000102030401025B
:0C58400003040607080902040608000023
:0400000508000131BD
:00000001FF
