:020000040800F2
:10000000200B00205502000829490008C5180008E7
:100010002549000849060008295000080000000092
:100020000000000000000000000000006749000818
:100030004D0600080000000065490008214A00083C
:100040006F0200086F0200086F0200086F020008CC
:100050006F0200086F0200086F0200086F020008BC
:100060006F0200086F0200086F0200086F020008AC
:100070006F0200086F0200086F0200086F0200089C
:100080006F0200086F0200086F0200086F0200088C
:100090006F0200086F0200086F0200086F0200087C
:1000A0006F0200086F0200086F0200086F0200086C
:1000B0006F0200086F0200086F0200086F0200085C
:1000C0006F0200086F0200086F0200086F0200084C
:1000D0006F020008094F0008994F00086F020008DE
:1000E0006F0200086F0200086F0200086F0200082C
:1000F0006F0200086F0200086F0200086F0200081C
:100100006F0200086F0200086F0200086F0200080B
:100110006F0200086F0200086F0200086F020008FB
:100120006F0200086F0200086F0200086F020008EB
:100130006F0200086F0200086F0200086F020008DB
:100140006F0200086F0200086F0200086F020008CB
:100150006F0200086F0200086F0200086F020008BB
:100160006F0200086F0200086F0200086F020008AB
:100170006F0200086F0200086F0200080000000014
:100180006F0200086F0200086F0200086F0200088B
:100190006F0200086F0200086F0200086F0200087B
:1001A0006F0200086F0200086F02000800F002F8FA
:1001B00000F041F80AA090E8000C82448344AAF1C0
:1001C0000107DA4501D100F036F8AFF2090EBAE8BE
:1001D0000F0013F0010F18BFFB1A43F0010318477B
:1001E000C89A0000E89A0000103A24BF78C878C185
:1001F000FAD8520724BF30C830C144BF04680C602D
:10020000704700000023002400250026103A28BF74
:1002100078C1FBD8520728BF30C148BF0B60704778
:10022000782900F07080002070471FB505F072F942
:100230001FBD10B510BD00F0D9F91146FFF7F5FF4D
:1002400004F046FF00F0F7F903B4FFF7F2FF03BC38
:1002500004F0F3FE0948804709480047FEE7FEE73F
:10026000FEE7FEE7FEE7FEE7FEE7FEE7FEE7FEE766
:1002700004480549054A064B70470000294A000812
:10028000AD01000820050020200B002020070020E1
:1002900020070020704700000FB4044910B503AADE
:1002A000029800F089F910BC5DF814FB980000205A
:1002B000F0B40D460188090502D5214C7C4402E0CA
:1002C0001F4C7C440E34002100F1240608E002F0AB
:1002D0000F071209E75D42EA03721B097754491CB4
:1002E00052EA0307F3D102780023120704D5702DD8
:1002F00006D009B1022311342246F0BC00F0EAB85E
:1003000001231034F8E770B504460D462146106805
:10031000AFF30080024629462046BDE87040002326
:10032000C6E7D21D22F00703D3E90023C0E7036824
:10033000126843F0200303600823C3610023B7E77A
:10034000AE9900002DE9F05F894604464FF0000A9F
:10035000DFF874B1FB44C0F820A02046E16888476C
:10036000002874D0252806D0D4E901219047206ABE
:10037000401C2062F1E700265F462046E16888477E
:100380002028054607DB312D05D2781910F8200CFE
:1003900008B10643F1E7B00701D526F00406C4F81A
:1003A0001CA00027C4F818A02A2D09D0284604F064
:1003B0003DFE38B304EB8708303DC8F8185019E00B
:1003C00059F8041B204604EB87029161E1688847D5
:1003D000012F054618D1E069002820DA26F0200612
:1003E0001DE0D8F8180000EB800005EB4000303825
:1003F000C8F818002046E1688847054604F016FE54
:100400000028EED1012F0AD02E2D08D12046E16818
:1004100088477F1C0546022F46F02006C4DBA069F2
:10042000002803DA404246F00106A061F00701D03F
:1004300026F010066C2D0BD0682D09D04C2D39D02C
:100440006A2D35D0742D35D07A2D33D016E038E0B2
:10045000E1682F4620468847B842054609D16C2FEF
:1004600026D04FF48060E168064320468847054661
:1004700004E06C2F1AD04FF4807006430DB3A5F141
:100480004100192802D8203546F400664A4629461C
:10049000204626604E46FFF7C3FE80B101280BD0F0
:1004A000F61D26F0070000F1080956E74020E4E7B2
:1004B0008020D8E70020D6E706F104094DE728465A
:1004C00052E7206ABDE8F09F3E99000070477047F0
:1004D000704770472DE9F0470D469946924604460D
:1004E00000F124080168880604D5E06921F01001B4
:1004F000216000E00120A84201DD471B00E0002749
:10050000A1697A1902EB0900081AA0612078C006D7
:1005100002D42046AFF30080002608E0D4E9012190
:100520001AF806009047206A401C761C20624E454F
:10053000F4DB2078C0060AD52046AFF3008006E041
:10054000D4E9012130209047206A401C2062381EE7
:10055000A7F10107F4DC07E0D4E9012118F8050050
:100560009047206A401C2062281EA5F10105F3DC9B
:100570002046AFF300802078000602D50220BDE8B7
:10058000F0870120FBE7000001694A1C026108783E
:10059000704700B58FB0CDE90131002105910549C3
:1005A0007944CDE9031011466846FFF7CBFE0FB042
:1005B00000BD0000E5FFFFFF074B70B50D467B4413
:1005C000FFF7E7FF0446284600F008F810B14FF0A7
:1005D000FF3070BD204670BDF34A0000007B00F084
:1005E0008000704700487047C00400207546FFF740
:1005F000F9FFAE4605006946534620F007008546E0
:1006000018B020B5FFF734FEBDE820404FF00006DB
:100610004FF000074FF000084FF0000B21F00701EA
:10062000AC46ACE8C009ACE8C009ACE8C009ACE82D
:10063000C0098D46704710B50446AFF300802046D0
:10064000BDE81040FFF700BE00BFFEE770470000A6
:1006500070B504461D460023B5F5804F13D154F8FC
:1006600022300C480340D1E9000640EA06108E68AB
:1006700040EA06208E8940EA06408E6930430343F3
:1006800044F8223003E06FF0704044F8220000206C
:1006900070BD00000000F0CF10B5024600230868CE
:1006A00052F820301B480340D1E901042043CC68B4
:1006B00020430C6920434C6920438C692043CC695A
:1006C00020430C6A20434C6A20438C6A2043CC6A46
:1006D0002043CC6B20430C6B20434C6B20430343E3
:1006E0008868082801D143F04003086842F82030A8
:1006F000486BB0F5801F0AD1086840B14FF4807094
:1007000008614C6B08692043146820431060002086
:1007100010BD00008000E0FF30B503461446002203
:10072000601C53F8202002F04042D1E9000540EA65
:1007300005108D6840EA05208D8940EA0545088A44
:10074000401E45EA0055087D801E45EA00608D691F
:1007500028430243601C43F82020186800F48010EE
:1007600038B1586820F47002088A401E42EA0052EC
:100770005A60002030BD0000F8B502460B46002547
:10078000002400200021E6E0012606FA01F51E689B
:1007900006EA0504AC4273D15E68022E02D05E68A0
:1007A000122E13D1CF0802F1200656F827004E076B
:1007B000F70E0F26BE40B0434F07FF0E1E69BE4026
:1007C0003043CF0802F1200646F8270010684F009A
:1007D0000326BE40B0431E7906F003064F00BE401C
:1007E000304310605E68012E08D05E68022E05D08E
:1007F0005E68112E02D05E68122E13D190684F00F1
:100800000326BE40B0434F00DE68BE4030439060D8
:10081000506801268E40B0431E79C6F300168E4004
:1008200030435060D0684F000326BE40B0434F00B5
:100830009E68BE403043D0605E6806F08056B6F1D8
:10084000805FA8D100BF00260096454E366846F46A
:100850008046434F3E603E46366806F4804600962A
:1008600000BF00BF3F4E8F0856F827008E07370F96
:100870000F26BE40B0433C4EB24202D100262EE0CD
:1008800068E03A4EB24201D1012628E0384EB24229
:1008900001D1022623E0374EB24201D103261EE0E9
:1008A000354EB24201D1042619E0344EB24201D194
:1008B000052614E0324EB24201D106260FE0314E39
:1008C000B24201D107260AE02F4EB24201D10826DA
:1008D00005E02E4EB24201D1092600E00A268F071C
:1008E0003F0FBE4030431F4E8F0846F82700284E6A
:1008F0003068A0435E6806F48036B6F5803F00D1CC
:100900002043234E3060361D3068A0435E6806F4F5
:100910000036B6F5003F00D120431D4E361D306035
:10092000361D3068A0435E6806F48016B6F5801F59
:1009300000D12043164E08363060361D3068A04383
:100940005E6806F40016B6F5001F00D12043104E75
:100950000C363060491C1029FFF416AFF8BD0000BA
:1009600044380240083801400000024000040240C0
:1009700000080240000C0240001002400014024037
:1009800000180240001C02400020024000240240E7
:10099000003C0140014800687047000090000020C2
:1009A00002480068401C0149086070479000002020
:1009B00010B50D48006840F400700B490860084607
:1009C000006840F4806008600846006840F4807069
:1009D0000860052000F06CF80F2000F007F800F028
:1009E00017F8002010BD0000003C024070B504461E
:1009F00000F01CFA4FF47A71B0FBF1F5284600F0D4
:100A00004DFD00222146501E00F014F8002070BD5C
:100A100008B50020009000BF08BD00BF00F01F0215
:100A2000012191404209920002F1E022C2F8001136
:100A300000BF70472DE9F05F80460D46164600273F
:100A400003F074FF074639462A46334601F0070093
:100A5000C0F1070ABAF1040F02D94FF0040A01E00D
:100A6000C0F1070AD14600F1040ABAF1070F02D219
:100A70004FF0000A01E0A0F1030AD4464FF0010A4A
:100A80000AFA09FAAAF1010A0AEA020A0AFA0CFAAF
:100A90004FF0010B0BFA0CFBABF1010B0BEA030B54
:100AA0004AEA0B042146404603F048FFBDE8F09FA8
:100AB00000BF00F00702064B19684FF6FF0319400C
:100AC000044B0B4343EA0221014B196000BF7047FE
:100AD0000CED00E00000FA0538B5002400BF00204E
:100AE00000902348006840F0805021490860084683
:100AF000006800F08050009000BF00BF012001049A
:100B000091FAA1F1B1FA81F11A4A42F82100FFF7F6
:100B100041FF044607E0FFF73DFF001BB0F57A7F79
:100B200001D9032038BD1448406800F48030B0F586
:100B3000803FF0D10120410491FAA1F1B1FA81F195
:100B40000C4A42F82100FFF725FF044607E0FFF7B3
:100B500021FF001BB0F57A7F01D90320E2E70648A8
:100B6000406800F40030B0F5003FF0D10020D9E734
:100B70004038024000000E420070004070B504464C
:100B80000E460025A748006800F00F00B0426FD263
:100B9000A4490E700846006800F00F00B04201D072
:100BA000012070BD207800F00200022807D19E4885
:100BB000006820F0F000A16808439B490860207895
:100BC00000F0010000283ED06068012807D1964857
:100BD00008380068C0F34040B8B90120E1E7606818
:100BE000022802D06068032807D18F4808380068BF
:100BF000C0F3406048B90120D3E78B48083800684B
:100C0000C0F3400008B90120CBE78748006820F016
:100C100003006168084384490860FFF7BBFE05468E
:100C20006068012810D108E0FFF7B4FE401B41F2D4
:100C30008831884201D90320B3E77B48006800F07F
:100C40000C000428F0D1CDE06068022811D108E042
:100C5000FFF7A0FE401B41F28831884201D90320F2
:100C60009FE77148006800F00C000828F0D1B9E057
:100C700024E06068032810D108E0FFF78BFE401BDA
:100C800041F28831884201D903208AE7664800682A
:100C900000F00C000328F0D1A4E008E0FFF77AFE92
:100CA000401B41F28831884201D9032079E75E4830
:100CB000006800F00C000028F0D193E0207800F0EC
:100CC0000200022807D15848006820F0F000A1680F
:100CD000084355490860207800F00100002877D0CB
:100CE0006068012807D1504808380068C0F34040C8
:100CF000B8B9012055E76068022802D0606803286F
:100D000007D1494808380068C0F3406048B901205D
:100D100047E7454808380068C0F3400008B901209B
:100D20003FE74148006820F00300616808433E49FE
:100D30000860FFF72FFE05466068012810D108E023
:100D4000FFF728FE401B41F28831884201D9032079
:100D500027E73548006800F00C000428F0D137E0A0
:100D60006068022810D108E0FFF714FE401B41F232
:100D70008831884201D9032013E72B48006800F02E
:100D80000C000828F0D123E06068032810D108E0A7
:100D9000FFF700FE401B41F28831884201D9032051
:100DA000FFE62148006800F00C000328F0D10FE0B6
:100DB00008E0FFF7EFFD401B41F28831884201D97E
:100DC0000320EEE61848006800F00C000028F0D17F
:100DD00014490E700846006800F00F00B04201D0C0
:100DE0000120DEE6207800F00400042807D10E4838
:100DF000006820F4E050E16808430B49086020785F
:100E000000F00800082808D10748006820F4604076
:100E1000216940EAC100044908600F20FFF7E6FDA0
:100E20000020BEE6003C02400838024010B500F049
:100E300045F80949096801F0F001F02292FAA2F29E
:100E4000B2FA82F2D140054A515CC84004490860B8
:100E50000846006810BD0000083802401E55000812
:100E60007C00002010B5FFF7E1FF0749096801F495
:100E7000E0514FF4E05292FAA2F2B2FA82F2D1407B
:100E8000024A515CC84010BD083802401E55000897
:100E900010B5FFF7CBFF0749096801F460414FF433
:100EA000604292FAA2F2B2FA82F2D140024A515C56
:100EB000C84010BD083802401E55000870B500211A
:100EC000002200230020274C246804F00C0424B1E5
:100ED000042C04D0082C41D103E0234840E02348EF
:100EE0003EE0204C241F246804F03F011D4C241FC9
:100EF000246804F4800484B11C4CB4FBF1F5194C53
:100F0000241F246847F6C076344096FAA6F6B6FA4F
:100F100086F6F44005FB04F20FE0134CB4FBF1F548
:100F2000104C241F246847F6C076344096FAA6F683
:100F3000B6FA86F6F44005FB04F20A4C241F246836
:100F400004F440344FF4403595FAA5F5B5FA85F52B
:100F5000EC40641C6300B2FBF3F001E0024800BF08
:100F600000BF70BD083802400024F40040787D01C5
:100F700038B504460025207800F00100002866D02E
:100F8000F748006800F00C0004280DD0F448006811
:100F900000F00C00082813D1F148001F006800F48D
:100FA0008000B0F5800F0BD1ED4808380068C0F321
:100FB000404000284BD06068002848D1012038BD4F
:100FC0000020E749891F0870FFF7E4FC054608E0A8
:100FD000FFF7E0FC401B41F28831884201D9032031
:100FE000EDE7DF4808380068C0F340400028EFD143
:100FF0002079DB49891F08706068A0B1FFF7CAFC3F
:10100000054608E0FFF7C6FC401B41F288318842E4
:1010100001D90320D3E7D24808380068C0F3404024
:101020000028EFD013E0FFF7B5FC054608E0FFF716
:10103000B1FC401B41F28831884201D90320BEE750
:10104000C74808380068C0F340400028EFD1207836
:1010500000F00200022869D1C148006800F00C00CD
:1010600058B1BF48006800F00C00082821D1BC48E6
:10107000001F006800F48000D8B9B948083800683B
:10108000C0F3400020B1E068012801D0012096E7BC
:10109000B3480838006820F0F800F82292FAA2F26B
:1010A000B2FA82F2216991400843AD4908390860DB
:1010B0003CE0E06828B30120AA490860FFF76AFC19
:1010C000054606E0FFF766FC401B642801D90320B3
:1010D00075E7A34808380068C0F340000028F1D045
:1010E0009F480838006820F0F800F82292FAA2F22F
:1010F000B2FA82F22169914008439949083908609F
:1011000014E0002097490860FFF744FC054606E01C
:10111000FFF740FC401B642801D903204FE79048AB
:1011200008380068C0F340000028F1D1207800F0B2
:10113000080008282CD16069A8B101208A490860FC
:10114000FFF728FC054606E0FFF724FC401B642857
:1011500001D9032033E782486C300068C0F34000B7
:101160000028F1D014E000207F490860FFF712FC4E
:10117000054606E0FFF70EFC401B642801D903205A
:101180001DE777486C300068C0F340000028F1D1BB
:10119000207800F0040004286FD100BF00200090E8
:1011A0006F483830006840F080506D493831086031
:1011B0000846006800F08050009000BF00BF6B48F8
:1011C000006840F4807069490860FFF7E3FB05465A
:1011D00006E0FFF7DFFB401B642801D90320EEE6A1
:1011E0006248006800F480700028F2D000205C495A
:1011F00068310870FFF7CEFB054608E0FFF7CAFB31
:10120000401B41F28831884201D90320D7E6544877
:1012100068300068C0F340000028EFD1207A5049C0
:1012200068310870A068A0B1FFF7B4FB054608E07C
:10123000FFF7B0FB401B41F28831884201D90320FF
:10124000BDE6474868300068C0F340000028EFD092
:1012500013E0FFF79FFB054608E0FFF79BFB401BF1
:1012600041F28831884201D90320A8E63C48683021
:101270000068C0F340000028EFD1A069F0B33848FF
:10128000006800F00C00082872D0A069022850D134
:10129000002034490866FFF77DFB054606E0FFF7AE
:1012A00079FB401B642801D9032088E62C480838C4
:1012B0000068C0F340600028F1D1D4E90701084379
:1012C00047F6C07292FAA2F2B2FA82F2616A9140D3
:1012D00008430122A16AC2EB51014FF4403292FA55
:1012E000A2F2B2FA82F2914008434FF0706292FA91
:1012F000A2F2B2FA82F2E16A914000E03AE00843D9
:101300001749091F0860012016490866FFF742FBCC
:10131000054606E0FFF73EFB401B642801D9032089
:101320004DE60F4808380068C0F340600028F1D04F
:1013300020E000200B490866FFF72CFB054606E07D
:10134000FFF728FB401B642801D9032037E6044837
:1013500008380068C0F340600028F1D10AE007E0D7
:101360000838024000004742800E474200700040AB
:10137000012024E6002022E670B504460E461546FC
:101380000CB9012070BD94F8490028B9002084F8F8
:101390004800204600F01CF804F108012068FFF71F
:1013A0007BF93146A2682068FFF7B6F92946236B1E
:1013B000D4E90102FFF74CF9A168206850F8210038
:1013C00040F00100A268216841F822000020D9E71E
:1013D00010B586B0044600BF002000902248006887
:1013E00040F00100204908600846006800F0010054
:1013F000009000BF00BF00BF002000901A480838CE
:10140000006840F00800184908390860084600687C
:1014100000F00800009000BF00BF00BF0020009057
:101420000846006840F0100008600846006800F0B8
:101430001000009000BF00BF4EF2B3700190022078
:10144000029001200390032004900C20059001A934
:101450000648FFF791F94FF68070019001A9044802
:10146000FFF78AF906B010BD38380240000C024080
:1014700000100240042808D14FF0E021096941F032
:1014800004014FF0E022116107E04FF0E02109690B
:1014900021F004014FF0E0221161704770B504465D
:1014A0002546681EB0F1807F01D301200FE0681E41
:1014B0004FF0E02148610F214FF0FF3003F03EFA7A
:1014C00000204FF0E021886107200861002070BDF6
:1014D0007047F8B50446002500262068006800F033
:1014E00001052068C06800F480767DB176B100BF48
:1014F00000200090206800680090206840680090FC
:1015000000BF00BFE06B40F00100E06320680068AE
:10151000C0F340052068406900F001067DB176B156
:1015200000BF00200090206800680090206840689C
:10153000009000BF00BFE06B40F00400E063206853
:101540000068C0F380052068406900F001067DB1A5
:1015500076B100BF002000902068006800902068ED
:101560004068009000BF00BFE06B40F00200E06305
:1015700020680068C0F3C0052068406900F00106DB
:101580007DB176B100BF0020009020680068009017
:1015900020684068009000BF00BFE06B40F008008A
:1015A000E06320680068C0F340152068C06800F060
:1015B00020061DB116B1204603F080FA20680068AD
:1015C000C0F3C0152068C06800F080061DB116B1D8
:1015D000204603F0E3FB20680068C0F38015206814
:1015E000C06800F040061DB116B1204603F04EFA67
:1015F000E06B28B1012084F839002046FFF768FF2E
:10160000F8BD10B504460CB9012010BDA06900B1A9
:1016100000E000BF94F8390028B9002084F83800B1
:10162000204600F025F8022084F839002068C068C0
:1016300020F400502168C860204603F09DFA20681D
:10164000006920F49040216808612068406920F01A
:101650002A00216848612068C06840F40050216871
:10166000C8600020E063012084F839000020CCE746
:1016700010B586B004465049206888424BD100BF5F
:10168000002000904D48006840F001004B49086080
:101690000846006800F00100009000BF00BF00BFD6
:1016A0000020009045481430006840F01000434985
:1016B000143108600846006800F01000009000BF78
:1016C00000BF4815019002200290012003900220E3
:1016D00004900720059001A93948FFF74DF84FF411
:1016E0008060019001A93648FFF746F82068C0687D
:1016F00020F040002168C8602068C06840F02000E9
:101700002168C8602520FFF788F9032211462520AB
:10171000FFF790F94DE02B492068884249D100BF7E
:10172000002000902548006840F00100234908602F
:101730000846006800F00100009000BF00BF00BF35
:10174000002000901D481030006840F400301B4914
:10175000103108600846006800F40030009000BFB7
:1017600000BF04200190022002900120039002207B
:1017700004900720059001A91148FEF7FDFF0820FD
:10178000019001A90E48FEF7F7FF2068C06820F01D
:1017900040002168C8602068C06840F020002168CF
:1017A000C8602620FFF739F9032211462620FFF7EB
:1017B00041F906B010BD0000001001403038024071
:1017C00000000240004400402DE9F04704460D4669
:1017D000164699464FF0000894F83980B8F1010F89
:1017E00002D0B8F1120F69D105B116B90120BDE8D8
:1017F000F08700BF94F83800012801D10220F6E7F5
:10180000012084F8380000BF0020E06394F839001C
:10181000122803D1322084F8390002E0222084F813
:101820003900A685E68535E0E08D401EE085A0689C
:10183000B0F5805F18D14B4600222021204603F0EE
:10184000E5FA08B10320D2E72F46206930B92068B5
:101850004068C0F308003880AD1C1BE02068406879
:10186000C0B238806D1C15E04B4600222021204676
:1018700003F0CCFA08B10320B9E7206920B9206849
:10188000406805F8010B05E02068406800F07F0023
:1018900005F8010BE08D0028C6DC94F839003228E9
:1018A00003D1122084F8390002E0012084F83900C5
:1018B00000BF002084F8380000BF98E7022096E7B8
:1018C0007047704700BFFEE770B504460026094820
:1018D0000588408845430021084602F03BFE03F09E
:1018E0000FF800BF02E004490C80761CAE42FAD328
:1018F00070BD0000B00400200000086010B5044670
:101900005B488471002C57D1F020594908804FF46E
:10191000A07048800846808849F2413188420BD047
:101920005348808845F21031884205D0504880885D
:1019300047F28971884214D12C204D4908812A2010
:1019400048812B2088810846808845F210318842E2
:1019500006D14FF4A070464908804FF4F0704880DB
:1019600081E04348808845F21051884210D14FF4FD
:1019700030503F4908814FF4285048814FF42C5093
:1019800088814FF4F07008804FF4487048806AE016
:101990003748808841F66311884264D12C2034494D
:1019A00008812B2048812A2088814FF4F07008801C
:1019B0004FF44870488056E04FF4A0702C490880DE
:1019C000F02048800846808849F2413188420BD097
:1019D0002748808845F21031884205D02448808805
:1019E00047F28971884207D12C20214908812A2099
:1019F00048812B20888129E01D48808845F21051BC
:101A0000884210D14FF43050194908814FF42850C2
:101A100048814FF42C5088814FF4487008804FF46F
:101A2000F070488012E01248808841F663118842C5
:101A30000CD12C200E4908812A2048812B20888136
:101A40004FF4487008804FF4F07048800848808850
:101A500045F21031884206D14FF4F07004490880F5
:101A60004FF4A0704880002002F034FC10BD00004C
:101A7000B004002030B504460D464148808849F244
:101A8000413188420BD03E48808845F2103188426F
:101A900005D03B48808847F28971884214D1384983
:101AA000488902F021FF201202F012FFE0B202F09A
:101AB0000FFF3349888902F017FF281202F008FF50
:101AC000E8B202F005FF54E02D48808845F210513D
:101AD000884220D12A49488902F006FF201202F0EC
:101AE000F7FE27494989491C88B202F0FDFEE0B2A1
:101AF00002F0EEFE2249888902F0F6FE281202F07A
:101B0000E7FE1F498989491C88B202F0EDFEE8B260
:101B100002F0DEFE2DE01A48808841F6631188420B
:101B200027D11748807920B915480088401E001B2E
:101B300084B21349488902F0D7FE201202F0C8FE91
:101B4000E0B202F0C5FE201202F0C2FEE0B202F0E6
:101B5000BFFE0B49888902F0C7FE281202F0B8FECA
:101B6000E8B202F0B5FE281202F0B2FEE8B202F0CE
:101B7000AFFE0348008903490880891C0A8030BDF4
:101B8000B0040020FEFF076000B595B000BF002044
:101B90000190FE48006840F00200FC4908600846D9
:101BA000006800F00200019000BF00BF20201090EC
:101BB0000120119012900320139010A9F448FEF711
:101BC000DBFD4FF02040F3490860F34848600020F7
:101BD00088600021EF48C16001611021416100214E
:101BE0008161C16141624FF4805181620021C16213
:101BF0004FF4804101630021416381634FF4801100
:101C0000C1630F20099000200A9046200B9000200D
:101C10000F900F200290002003900F2004900020CE
:101C2000089002AA09A9DB48FFF7A6FB322003F0BF
:101C300011FAD32002F058FE02F012FBD749888037
:101C400002F00EFBD549888002F00AFBD349888058
:101C5000084680884FF6FF7101EA0020CF4988804E
:101C600002F0FEFACD4989880843CC4988800846AD
:101C7000808849F2413188427DD0042002F034FE50
:101C800002F0EEFAC549888002F0EAFAC34988807A
:101C900002F0E6FAC1498880084680884FF6FF7155
:101CA00001EA0020BD49888002F0DAFABB49898840
:101CB0000843BA4988800846808848F252518842D1
:101CC00003D147F28970B5498880B448808847F2CB
:101CD00089718842D0D0D42002F006FE02F0C0FA0A
:101CE000AE49888002F0BCFAAC49888002F0B8FAAC
:101CF000AA498880084680884FF6FF7101EA0020D3
:101D0000A649888002F0ACFAA44989880843A3490F
:101D100088800846808845F2103188426BD0552172
:101D20004FF4704002F0F6FDAA214FF2010002F0DC
:101D3000F1FD52214FF2020002F0ECFD08214FF2BA
:101D4000030002F0E7FD01214FF2040002F0E2FD82
:101D50004FF4454002F0C8FD02F082FA8F498880B6
:101D6000084680884FF6FF7101EA00208B49888081
:101D70004CF2015000E03EE002F0B6FD02F070FAD5
:101D800086498988084385498880052003F062F9DF
:101D900082488088B0F5004F03D145F210507F494A
:101DA00088807E48808845F21051884223D0A12047
:101DB00002F09AFD02F054FA7849888002F050FA55
:101DC00076498880084680884FF6FF7101EA002036
:101DD0007249888002F044FA7049898808436F4943
:101DE00088800846808845F26171884203D141F6B7
:101DF00063106A4988806948818869A0FEF74CFAB7
:101E00006648808849F2413188427CD1CF2002F077
:101E10006BFD002002F05CFDC12002F059FD302076
:101E200002F056FDED2002F05FFD642002F050FD4F
:101E3000032002F04DFD122002F04AFD812002F045
:101E400047FDE82002F050FD852002F041FD102002
:101E500002F03EFD7A2002F03BFDCB2002F044FD73
:101E6000392002F035FD2C2002F032FD002002F076
:101E70002FFD342002F02CFD022002F029FDF72076
:101E800002F032FD202002F023FDEA2002F02CFDBA
:101E9000002002F01DFD002002F01AFDC02002F01B
:101EA00023FD1B2002F014FDC12002F01DFD0120C6
:101EB00002F00EFDC52002F017FD302002F008FDF3
:101EC000302002F005FDC72002F00EFDB72002F021
:101ED000FFFC362002F008FD482002F0F9FC3A2011
:101EE00002F002FD552002F0F3FCB12002F0FCFCF0
:101EF000002002F0EDFC1A2002F0EAFCB62002F00D
:101F0000F3FC0A2000E0ACE002F0E2FCA22002F0C8
:101F1000DFFCF22002F0E8FC002002F0D9FC2620D1
:101F200002F0E2FC012002F0D3FCE02002F0DCFC35
:101F30000F2002F0CDFC2A2002F0CAFC282002F07B
:101F4000C7FC082002F0C4FC0E2002F0C1FC0820EF
:101F500002F0BEFC542002F0BBFCA92002F0B8FC49
:101F6000432002F0B5FC0A2002F0B2FC0F2002F080
:101F7000AFFC002002F0ACFC002002F0A9FC002025
:101F800002F0A6FC002002F0A3FC11E03038024071
:101F90000004024060040020040100A0B0040020FE
:101FA000204C43442049443A25780D0A00000000A3
:101FB000E12002F099FC002002F08AFC152002F0DA
:101FC00087FC172002F084FC072002F081FC11201E
:101FD00002F07EFC062002F07BFC2B2002F078FC55
:101FE000562002F075FC3C2002F072FC052002F045
:101FF0006FFC102002F06CFC0F2002F069FC3F2007
:1020000002F066FC3F2002F063FC0F2002F060FC4F
:102010002B2002F069FC002002F05AFC002002F0A4
:1020200057FC012002F054FC3F2002F051FC2A2012
:1020300002F05AFC002002F04BFC002002F048FCA9
:10204000002002F045FCEF2002F042FC112002F0DB
:102050004BFC782002F0FEFF292002F045FC02F044
:10206000A6B8FE48808847F2897188427ED1112047
:1020700002F03AFC782002F0EDFF362002F034FC4A
:10208000002002F025FC3A2002F02EFC052002F090
:102090001FFCB22002F028FC0C2002F019FC0C20DE
:1020A00002F016FC002002F013FC332002F010FCBA
:1020B000332002F00DFCB72002F016FC352002F0B0
:1020C00007FCBB2002F010FC322002F001FCC02013
:1020D00002F00AFC0C2002F0FBFBC22002F004FC20
:1020E000012002F0F5FBC32002F0FEFB102002F0FD
:1020F000EFFBC42002F0F8FB202002F0E9FBC62031
:1021000002F0F2FB0F2002F0E3FBD02002F0ECFB28
:10211000A42002F0DDFBA12002F0DAFBE02002F0B7
:10212000E3FBD02002F0D4FB002002F0D1FB022020
:1021300002F0CEFB072002F0CBFB0A2002F0C8FB26
:10214000282002F0C5FB322002F0C2FB442002F03E
:10215000BFFB422002F0BCFB062002F0B9FB0E20C0
:1021600002F0B6FB122002F0B3FB00E054E01420B2
:1021700002F0AEFB172002F0ABFBE12002F0B4FB53
:10218000D02002F0A5FB002002F0A2FB022002F00A
:102190009FFB072002F09CFB0A2002F099FB2820FD
:1021A00002F096FB312002F093FB542002F090FBEA
:1021B000472002F08DFB0E2002F08AFB1C2002F06B
:1021C00087FB172002F084FB1B2002F081FB1E20FE
:1021D00002F07EFB2A2002F087FB002002F078FB51
:1021E000002002F075FB002002F072FBEF2002F0ED
:1021F0006FFB2B2002F078FB002002F069FB00202F
:1022000002F066FB012002F063FB3F2002F060FB5E
:10221000292002F069FB22E79048808845F21031BE
:10222000884240F07C87ED2002F05EFB012002F046
:102230004FFBFE2002F04CFBEE2002F055FBDE20AF
:1022400002F046FB212002F043FBF12002F04CFBA0
:10225000012002F03DFBDF2002F046FB102002F0DF
:1022600037FBC42002F040FB8F2002F031FBC62078
:1022700002F03AFB002002F02BFBE22002F028FBE8
:10228000E22002F025FBE22002F022FBBF2002F058
:102290002BFBAA2002F01CFBB02002F025FB0D2036
:1022A00002F016FB002002F013FB0D2002F010FBE1
:1022B000002002F00DFB112002F00AFB002002F0CA
:1022C00007FB192002F004FB002002F001FB212093
:1022D00002F0FEFA002002F0FBFA2D2002F0F8FADC
:1022E000002002F0F5FA3D2002F0F2FA002002F0A0
:1022F000EFFA5D2002F0ECFA002002F0E9FA5D202E
:1023000002F0E6FA002002F0E3FAB12002F0ECFA63
:10231000802002F0DDFA002002F0DAFA8B2002F0D1
:10232000D7FA002002F0D4FA962002F0D1FA002069
:1023300002F0CEFAB22002F0D7FA002002F0C8FA7A
:10234000002002F0C5FA022002F0C2FA002002F0DA
:10235000BFFA032002F0BCFA002002F0B9FAB32061
:1023600002F0C2FA002002F0B3FA002002F0B0FA44
:10237000002002F0ADFA002002F0AAFA002002F0DC
:10238000A7FA002002F0A4FA002002F0A1FA00202F
:1023900002F09EFA002002F09BFA002002F098FA68
:1023A000002002F095FA002002F092FA002002F0DC
:1023B0008FFA002002F08CFA002002F089FA002047
:1023C00002F086FA002002F083FA002002F080FA80
:1023D000002002F07DFA002002F07AFA002002F0DC
:1023E00077FA002002F074FA002002F071FA00205F
:1023F00002F06EFAB42002F077FA8B2002F068FA4D
:10240000002002F065FA962002F062FA002002F045
:102410005FFAA12002F05CFA002002F059FAB52020
:1024200002F062FA022002F053FA002002F050FAA1
:10243000032002F04DFA002002F04AFA042002F0D4
:1024400047FA002002F044FAB62002F04DFA0020CC
:1024500002F03EFA002002F03BFA01E0B004002056
:10246000B72002F041FA002002F032FA002002F018
:102470002FFA3F2002F02CFA002002F029FA5E2009
:1024800002F026FA002002F023FA642002F020FA7B
:10249000002002F01DFA8C2002F01AFA002002F04F
:1024A00017FAAC2002F014FA002002F011FADC2036
:1024B00002F00EFA002002F00BFA702002F008FA87
:1024C000002002F005FA902002F002FA002002F04B
:1024D000FFF9EB2002F0FCF9002002F0F9F9DC2012
:1024E00002F0F6F9002002F0F3F9B82002F0FCF94E
:1024F000002002F0EDF9002002F0EAF9002002F0DD
:10250000E7F9002002F0E4F9002002F0E1F90020F0
:1025100002F0DEF9002002F0DBF9002002F0D8F929
:10252000BA2002F0E1F9242002F0D2F9002002F0F2
:10253000CFF9002002F0CCF9002002F0C9F9C12047
:1025400002F0D2F9202002F0C3F9002002F0C0F915
:10255000542002F0BDF9002002F0BAF9FF2002F089
:10256000B7F9002002F0B4F9C22002F0BDF90A2048
:1025700002F0AEF9002002F0ABF9042002F0A8F955
:10258000002002F0A5F9C32002F0AEF93C2002F0D1
:102590009FF9002002F09CF93A2002F099F90020FE
:1025A00002F096F9392002F093F9002002F090F938
:1025B000372002F08DF9002002F08AF93C2002F069
:1025C00087F9002002F084F9362002F081F900201A
:1025D00002F07EF9322002F07BF9002002F078F957
:1025E0002F2002F075F9002002F072F92C2002F081
:1025F0006FF9002002F06CF9292002F069F900203F
:1026000002F066F9262002F063F9002002F060F97A
:10261000242002F05DF9002002F05AF9242002F093
:1026200057F9002002F054F9232002F051F900205C
:1026300002F04EF93C2002F04BF9002002F048F97C
:10264000362002F045F9002002F042F9322002F073
:102650003FF9002002F03CF92F2002F039F9002068
:1026600002F036F92C2002F033F9002002F030F9A4
:10267000292002F02DF9002002F02AF9262002F08C
:1026800027F9002002F024F9242002F021F900208B
:1026900002F01EF9242002F01BF9002002F018F9C4
:1026A000232002F015F9002002F012F9C42002F0F4
:1026B0001BF9622002F00CF9002002F009F9052054
:1026C00002F006F9002002F003F9842002F000F97C
:1026D000002002F0FDF8F02002F0FAF8002002F0ED
:1026E000F7F8182002F0F4F8002002F0F1F8A42026
:1026F00002F0EEF8002002F0EBF8182002F0E8F803
:10270000002002F0E5F8502002F0E2F8002002F08C
:10271000DFF80C2002F0DCF8002002F0D9F81720D6
:1027200002F0D6F8002002F0D3F8952002F0D0F89D
:10273000002002F0CDF8F32002F0CAF8002002F0E9
:10274000C7F8E62002F0C4F8002002F0C1F8C52066
:1027500002F0CAF8322002F0BBF8002002F0B8F80C
:10276000442002F0B5F8002002F0B2F8652002F033
:10277000AFF8002002F0ACF8762002F0A9F80020B3
:1027800002F0A6F8882002F0A3F8002002F0A0F8DA
:10279000C62002F0A9F8202002F09AF8002002F0EA
:1027A00097F8172002F094F8002002F091F8012029
:1027B00002F08EF8002002F08BF8C72002F094F8A7
:1027C000002002F085F8002002F082F8002002F0DC
:1027D0007FF8002002F07CF8C82002F085F8002085
:1027E00002F076F8002002F073F8002002F070F892
:1027F000002002F06DF8C92002F076F8002002F007
:1028000067F8002002F064F8002002F061F8002070
:1028100002F05EF8002002F05BF8002002F058F8A9
:10282000002002F055F8002002F052F8002002F0DB
:102830004FF8002002F04CF8002002F049F8002088
:1028400002F046F8002002F043F8002002F040F8C1
:10285000002002F03DF8002002F03AF8E02002F0FB
:1028600043F8162002F034F8002002F031F81C2062
:1028700002F02EF8002002F02BF8212002F028F8B8
:10288000002002F025F8362002F022F8002002F0A5
:102890001FF8462002F01CF8002002F019F8522020
:1028A00002F016F8002002F013F8642002F010F88D
:1028B000002002F00DF87A2002F00AF8002002F061
:1028C00007F88B2002F004F8002002F001F89920AC
:1028D00001F0FEFF002001F0FBFFA82001F0F8FF4F
:1028E000002001F0F5FFB92001F0F2FF002001F017
:1028F000EFFFC42001F0ECFF002001F0E9FFCA2047
:1029000001F0E6FF002001F0E3FFD22001F0E0FF3C
:10291000002001F0DDFFD92001F0DAFF002001F0F6
:10292000D7FFE02001F0D4FF002001F0D1FFF32019
:1029300001F0CEFF002001F0CBFFE12001F0D4FF39
:10294000162001F0C5FF002001F0C2FF1C2001F09D
:10295000BFFF002001F0BCFF222001F0B9FF0020E2
:1029600001F0B6FF362001F0B3FF002001F0B0FF08
:10297000452001F0ADFF002001F0AAFF522001F038
:10298000A7FF002001F0A4FF642001F0A1FF0020B8
:1029900001F09EFF7A2001F09BFF002001F098FFDC
:1029A0008B2001F095FF002001F092FF992001F0AB
:1029B0008FFF002001F08CFFA82001F089FF00208C
:1029C00001F086FFB92001F083FF002001F080FFB5
:1029D000C42001F07DFF002001F07AFFCA2001F041
:1029E00077FF002001F074FFD22001F071FF00207A
:1029F00001F06EFFD82001F06BFF002001F068FFAE
:102A0000E02001F065FF002001F062FFF32001F0FB
:102A10005FFF002001F05CFFE22001F065FF052070
:102A200001F056FF002001F053FF0B2001F050FF92
:102A3000002001F04DFF1B2001F04AFF002001F0B3
:102A400047FF342001F044FF002001F041FF442003
:102A500001F03EFF002001F03BFF4F2001F038FF66
:102A6000002001F035FF612001F032FF002001F06D
:102A70002FFF792001F02CFF002001F029FF882092
:102A800001F026FF002001F023FF972001F020FF36
:102A9000002001F01DFFA62001F01AFF002001F028
:102AA00017FFB72001F014FF002001F011FFC22032
:102AB00001F00EFF002001F00BFFC72001F008FF1E
:102AC000002001F005FFD12001F002FF002001F0FD
:102AD000FFFED62001F0FCFE002001F0F9FEDD2013
:102AE00001F0F6FE002001F0F3FEF32001F0F0FE0D
:102AF000002001F0EDFEE32001F0F6FE052001F0DC
:102B0000E7FE002001F0E4FE0A2001F0E1FE0020D3
:102B100001F0DEFE1C2001F0DBFE002001F0D8FEFB
:102B2000332001F0D5FE002001F0D2FE442001F058
:102B3000CFFE002001F0CCFE502001F0C9FE0020A5
:102B400001F0C6FE622001F0C3FE002001F0C0FECD
:102B5000782001F0BDFE002001F0BAFE882001F0CF
:102B6000B7FE002001F0B4FE972001F0B1FE002076
:102B700001F0AEFEA62001F0ABFE002001F0A8FEA1
:102B8000B72001F0A5FE002001F0A2FEC22001F056
:102B90009FFE002001F09CFEC72001F099FE00205E
:102BA00001F096FED12001F093FE002001F090FE8E
:102BB000D52001F08DFE002001F08AFEDD2001F01D
:102BC00087FE002001F084FEF32001F081FE00204A
:102BD00001F07EFEE42001F087FE012001F078FE86
:102BE000002001F075FE012001F072FE002001F0CE
:102BF0006FFE022001F06CFE002001F069FE2A2029
:102C000001F066FE002001F063FE3C2001F060FE52
:102C1000002001F05DFE4B2001F05AFE002001F083
:102C200057FE5D2001F054FE002001F051FE74209B
:102C300001F04EFE002001F04BFE842001F048FE22
:102C4000002001F045FE932001F042FE002001F03B
:102C50003FFEA22001F03CFE002001F039FEB3202F
:102C600001F036FE002001F033FEBE2001F030FE00
:102C7000002001F02DFEC42001F02AFE002001F00A
:102C800027FECD2001F024FE002001F021FED320FC
:102C900001F01EFE002001F01BFEDD2001F018FEF9
:102CA000002001F015FEF32001F012FE002001F0DB
:102CB0000FFEE52001F018FE002001F009FE0020C3
:102CC00001F006FE002001F003FE002001F000FEEE
:102CD000022001F0FDFD002001F0FAFD292001F0A5
:102CE000F7FD002001F0F4FD3C2001F0F1FD002093
:102CF00001F0EEFD4B2001F0EBFD002001F0E8FDBE
:102D00005D2001F0E5FD002001F0E2FD742001F0FE
:102D1000DFFD002001F0DCFD842001F0D9FD002062
:102D200001F0D6FD932001F0D3FD002001F0D0FD8D
:102D3000A22001F0CDFD002001F0CAFDB32001F07A
:102D4000C7FD002001F0C4FDBE2001F0C1FD002040
:102D500001F0BEFDC42001F0BBFD002001F0B8FD74
:102D6000CD2001F0B5FD002001F0B2FDD32001F02F
:102D7000AFFD002001F0ACFDDC2001F0A9FD00203A
:102D800001F0A6FDF32001F0A3FD002001F0A0FD5D
:102D9000E62001F0A9FD112001F09AFD002001F0CC
:102DA00097FD342001F094FD002001F091FD5620A4
:102DB00001F08EFD002001F08BFD762001F088FDF2
:102DC000002001F085FD772001F082FD002001F058
:102DD0007FFD662001F07CFD002001F079FD882058
:102DE00001F076FD002001F073FD992001F070FDE7
:102DF000002001F06DFDBB2001F06AFD002001F014
:102E000067FD992001F064FD002001F061FD66205E
:102E100001F05EFD002001F05BFD552001F058FD42
:102E2000002001F055FD552001F052FD002001F079
:102E30004FFD452001F04CFD002001F049FD4320ED
:102E400001F046FD002001F043FD442001F040FD6B
:102E5000002001F03DFDE72001F046FD322001F0A9
:102E600037FD002001F034FD552001F031FD002038
:102E700001F02EFD762001F02BFD002001F028FD51
:102E8000662001F025FD002001F022FD672001F001
:102E90001FFD002001F01CFD672001F019FD00203E
:102EA00001F016FD872001F013FD002001F010FD58
:102EB000992001F00DFD002001F00AFDBB2001F07A
:102EC00007FD002001F004FD992001F001FD002024
:102ED00001F0FEFC772001F0FBFC002001F0F8FC83
:102EE000442001F0F5FC002001F0F2FC562001F036
:102EF000EFFC002001F0ECFC232001F0E9FC0020B5
:102F000001F0E6FC332001F0E3FC002001F0E0FCDE
:102F1000452001F0DDFC002001F0DAFCE82001F0A2
:102F2000E3FC002001F0D4FC002001F0D1FC99204A
:102F300001F0CEFC002001F0CBFC872001F0C8FCA2
:102F4000002001F0C5FC882001F0C2FC002001F047
:102F5000BFFC772001F0BCFC002001F0B9FC66202A
:102F600001F0B6FC002001F0B3FC882001F0B0FCB9
:102F7000002001F0ADFCAA2001F0AAFC002001F025
:102F8000A7FCBB2001F0A4FC002001F0A1FC9920CB
:102F900001F09EFC002001F09BFC662001F098FCF3
:102FA000002001F095FC552001F092FC002001F07A
:102FB0008FFC552001F08CFC002001F089FC44209E
:102FC00001F086FC002001F083FC442001F080FC2D
:102FD000002001F07DFC552001F07AFC002001F07A
:102FE00077FCE92001F080FCAA2001F071FC0020B0
:102FF00001F06EFC002001F06BFC002001F068FC89
:10300000002001F071FCAA2001F062FCCF2001F049
:103010006BFC002001F05CFC002001F059FC00205A
:1030200001F056FC002001F053FC002001F050FCA0
:10303000002001F04DFC002001F04AFC002001F0CE
:1030400047FC002001F044FC002001F041FC00207E
:1030500001F03EFC002001F03BFC002001F038FCB8
:10306000002001F035FC002001F032FC002001F0CE
:103070002FFC002001F02CFCF02001F035FC00209A
:1030800001F026FC502001F023FC002001F020FC80
:10309000002001F01DFC002001F01AFCF32001F0DB
:1030A00023FC002001F014FCF92001F01DFC062097
:1030B00001F00EFC102001F00BFC292001F008FCAF
:1030C000002001F005FC3A2001F00EFC552001F033
:1030D000FFFB112001F008FC642001F0BBFF292058
:1030E00001F002FC352001F0FFFB002001F0F0FBB5
:1030F000512001F0F9FBFF2001F0EAFB532001F021
:10310000F3FB2C2001F0E4FB552001F0EDFB8220C5
:1031100001F0DEFB2C2001F0E7FB01F048B8FE488F
:10312000808845F2105188427ED155214FF470407D
:1031300001F0F0FBAA214FF2010001F0EBFB52215C
:103140004FF2020001F0E6FB08214FF2030001F00C
:10315000E1FB01214FF2040001F0DCFB0D214FF4F3
:10316000304001F0D7FB0D214BF2010001F0D2FB02
:103170000D214BF2020001F0CDFB34214FF436401B
:1031800001F0C8FB34214BF2016001F0C3FB342194
:103190004BF2026001F0BEFB0D214FF4314001F013
:1031A000B9FB0D214BF2011001F0B4FB0D214BF2E4
:1031B000021001F0AFFB34214FF4374001F0AAFBBD
:1031C00034214BF2017001F0A5FB34214BF2027067
:1031D00001F0A0FB00214FF4324001F09BFB0021E5
:1031E0004BF2012001F096FB00214BF2022001F08E
:1031F00091FB24214FF4384001F08CFB24214BF645
:10320000010001F087FB24214BF6020001F082FB54
:1032100001214FF43F4001F07DFB0F214FF433407B
:1032200001F078FB0F2100E0FEE34BF2013001F0EA
:1032300071FB0F214BF2023001F06CFB34214FF493
:10324000394001F067FB34214BF6011001F062FBBD
:1032500034214BF6021001F05DFB08214FF435409C
:1032600001F058FB08214BF2015001F053FB0821FB
:103270004BF2025001F04EFB03214FF4424001F0AB
:1032800049FB24214FF43A4001F044FB24214BF642
:10329000012001F03FFB24214BF6022001F03AFB14
:1032A00000214FF43C4001F035FB78214BF6014002
:1032B00001F030FB00214BF6024001F02BFB002116
:1032C0004FF43D4001F026FB78214BF6015001F010
:1032D00021FB00214BF6025001F01CFB00214FF4B2
:1032E0003E4001F017FB64214BF6016001F012FB38
:1032F00000214FF4514001F00DFB33214DF201103C
:1033000001F008FB00214DF2021001F003FB342113
:103310004DF2031001F0FEFA00214DF2041001F00D
:10332000F9FA3A214DF2051001F0F4FA00214DF2BC
:10333000061001F0EFFA4A214DF2071001F0EAFA07
:1033400000214DF2081001F0E5FA5C214DF2091060
:1033500001F0E0FA00214DF20A1001F0DBFA8121C0
:103360004DF20B1001F0D6FA00214DF20C1001F0D5
:10337000D1FAA6214DF20D1001F0CCFA00214DF248
:103380000E1001F0C7FAE5214DF20F1001F0C2FA5C
:1033900001214DF2101001F0BDFA13214DF2111070
:1033A00001F0B8FA01214DF2121001F0B3FA5421E4
:1033B0004DF2131001F0AEFA01214DF2141001F09C
:1033C000A9FA82214DF2151001F0A4FA01214DF263
:1033D000161001F09FFACA214DF2171001F09AFA67
:1033E00002214DF2181001F095FA00214DF219104A
:1033F00001F090FA02214DF21A1001F08BFA01212E
:103400004DF21B1001F086FA02214DF21C1001F062
:1034100081FA34214DF21D1001F07CFA02214DF2A7
:103420001E1001F077FA67214DF21F1001F072FAB9
:1034300002214DF2201001F06DFA84214DF221108D
:1034400001F068FA02214DF2221001F063FAA42182
:103450004DF2231001F05EFA02214DF2241001F02A
:1034600059FAB7214DF2251001F054FA02214DF21C
:10347000261001F04FFACF214DF2271001F04AFA41
:1034800002214DF2281001F045FADE214DF22910FB
:1034900001F040FA02214DF22A1001F03BFAF2212C
:1034A0004DF22B1001F036FA02214DF22C1001F0F2
:1034B00031FAFE214DF22D1001F02CFA03214DF2CC
:1034C0002E1001F027FA10214DF22F1001F022FAF0
:1034D00003214DF2301001F01DFA33214DF231106D
:1034E00001F018FA03214DF2321001F013FA6D21A8
:1034F0004DF2331001F00EFA00214FF4524001F06A
:1035000009FA33214DF2012001F004FA00214DF2B5
:10351000022001F0FFF901E0B004002034214DF257
:10352000032001F0F7F900214DF2042001F0F2F937
:103530003A214DF2052001F0EDF900214DF206206F
:1035400001F0E8F94A214DF2072001F0E3F90021EA
:103550004DF2082001F0DEF95C214DF2092001F066
:10356000D9F900214DF20A2001F0D4F981214DF260
:103570000B2001F0CFF900214DF20C2001F0CAF927
:10358000A6214DF20D2001F0C5F900214DF20E20CB
:1035900001F0C0F9E5214DF20F2001F0BBF9012146
:1035A0004DF2102001F0B6F913214DF2112001F077
:1035B000B1F901214DF2122001F0ACF954214DF284
:1035C000132001F0A7F901214DF2142001F0A2F916
:1035D00082214DF2152001F09DF901214DF21620B6
:1035E00001F098F9CA214DF2172001F093F9022158
:1035F0004DF2182001F08EF900214DF2192001F052
:1036000089F902214DF21A2001F084F901214DF2CD
:103610001B2001F07FF902214DF21C2001F07AF904
:1036200034214DF21D2001F075F902214DF21E20CA
:1036300001F070F967214DF21F2001F06BF90221B2
:103640004DF2202001F066F984214DF2212001F095
:1036500061F902214DF2222001F05CF9A4214DF222
:10366000232001F057F902214DF2242001F052F9F4
:10367000B7214DF2252001F04DF902214DF226200F
:1036800001F048F9CF214DF2272001F043F9022142
:103690004DF2282001F03EF9DE214DF2292001F003
:1036A00039F902214DF22A2001F034F9F2214DF2CC
:1036B0002B2001F02FF902214DF22C2001F02AF9E4
:1036C000FE214DF22D2001F025F903214DF22E208F
:1036D00001F020F910214DF22F2001F01BF90321F8
:1036E0004DF2302001F016F933214DF2312001F076
:1036F00011F903214DF2322001F00CF96D214DF248
:10370000332001F007F900214FF4534001F002F992
:1037100033214DF2013001F0FDF800214DF202306D
:1037200001F0F8F834214DF2033001F0F3F80021F4
:103730004DF2043001F0EEF83A214DF2053001F07F
:10374000E9F800214DF2063001F0E4F84A214DF28B
:10375000073001F0DFF800214DF2083001F0DAF80F
:103760005C214DF2093001F0D5F800214DF20A300C
:1037700001F0D0F881214DF20B3001F0CBF800219F
:103780004DF20C3001F0C6F8A6214DF20D3001F0DB
:10379000C1F800214DF20E3001F0BCF8E5214DF2E8
:1037A0000F3001F0B7F801214DF2103001F0B2F8FE
:1037B00013214DF2113001F0ADF801214DF212301C
:1037C00001F0A8F854214DF2133001F0A3F80121C3
:1037D0004DF2143001F09EF882214DF2153001F0C7
:1037E00099F801214DF2163001F094F8CA214DF2FA
:1037F000173001F08FF802214DF2183001F08AF8ED
:1038000000214DF2193001F085F802214DF21A30F5
:1038100001F080F801214DF21B3001F07BF802210C
:103820004DF21C3001F076F834214DF21D3001F0DC
:1038300071F802214DF21E3001F06CF867214DF253
:103840001F3001F067F802214DF2203001F062F8DC
:1038500084214DF2213001F05DF802214DF2223039
:1038600001F058F8A4214DF2233001F053F8022161
:103870004DF2243001F04EF8B7214DF2253001F021
:1038800049F802214DF2263001F044F8CF214DF2E3
:10389000273001F03FF802214DF2283001F03AF8CC
:1038A000DE214DF2293001F035F802214DF22A30A7
:1038B00001F030F8F2214DF22B3001F02BF802210B
:1038C0004DF22C3001F026F8FE214DF22D3001F0A2
:1038D00021F803214DF22E3001F01CF810214DF299
:1038E0002F3001F017F803214DF2303001F012F8BB
:1038F00033214DF2313001F00DF803214DF2323019
:1039000001F008F86D214DF2333001F003F8002189
:103910004FF4544000F0FEFF33214DF2014000F01F
:10392000F9FF00214DF2024000F0F4FF34214DF286
:10393000034000F0EFFF00214DF2044000F0EAFFE9
:103940003A214DF2054000F0E5FF00214DF206401E
:1039500000F0E0FF4A214DF2074000F0DBFF0021BC
:103960004DF2084000F0D6FF5C214DF2094000F016
:10397000D1FF00214DF20A4000F0CCFF81214DF231
:103980000B4000F0C7FF00214DF20C4000F0C2FFD9
:10399000A6214DF20D4000F0BDFF00214DF20E407A
:1039A00000F0B8FFE5214DF20F4000F0B3FF012118
:1039B0004DF2104000F0AEFF13214DF2114000F027
:1039C000A9FF01214DF2124000F0A4FF54214DF255
:1039D000134000F09FFF01214DF2144000F09AFFC8
:1039E00082214DF2154000F095FF01214DF2164065
:1039F00000F090FFCA214DF2174000F08BFF02212A
:103A00004DF2184000F086FF00214DF2194000F001
:103A100081FF02214DF21A4000F07CFF01214DF29E
:103A20001B4000F077FF00E003E302214DF21C4051
:103A300000F070FF34214DF21D4000F06BFF0221B9
:103A40004DF21E4000F066FF67214DF21F4000F06E
:103A500061FF02214DF2204000F05CFF84214DF215
:103A6000214000F057FF02214DF2224000F052FFAA
:103A7000A4214DF2234000F04DFF02214DF22440DD
:103A800000F048FFB7214DF2254000F043FF02212E
:103A90004DF2264000F03EFFCF214DF2274000F0CE
:103AA00039FF02214DF2284000F034FFDE214DF2B3
:103AB000294000F02FFF02214DF22A4000F02AFF9A
:103AC000F2214DF22B4000F025FF02214DF22C4057
:103AD00000F020FFFE214DF22D4000F01BFF0321DE
:103AE0004DF22E4000F016FF10214DF22F4000F055
:103AF00011FF03214DF2304000F00CFF33214DF255
:103B0000314000F007FF03214DF2324000F002FF88
:103B10006D214DF2334000F0FDFE00214FF4554081
:103B200000F0F8FE33214DF2015000F0F3FE0021C9
:103B30004DF2025000F0EEFE34214DF2035000F041
:103B4000E9FE00214DF2045000F0E4FE3A214DF26E
:103B5000055000F0DFFE00214DF2065000F0DAFEC5
:103B60004A214DF2075000F0D5FE00214DF20850D9
:103B700000F0D0FE5C214DF2095000F0CBFE002198
:103B80004DF20A5000F0C6FE81214DF20B5000F0BC
:103B9000C1FE00214DF20C5000F0BCFEA6214DF2FA
:103BA0000D5000F0B7FE00214DF20E5000F0B2FEB5
:103BB000E5214DF20F5000F0ADFE01214DF2105005
:103BC00000F0A8FE13214DF2115000F0A3FE0121D8
:103BD0004DF2125000F09EFE54214DF2135000F0B1
:103BE00099FE01214DF2145000F094FE82214DF215
:103BF000155000F08FFE01214DF2165000F08AFEA4
:103C0000CA214DF2175000F085FE02214DF21850E6
:103C100000F080FE00214DF2195000F07BFE0221E1
:103C20004DF21A5000F076FE01214DF21B5000F0CB
:103C300071FE02214DF21C5000F06CFE34214DF259
:103C40001D5000F067FE02214DF21E5000F062FE92
:103C500067214DF21F5000F05DFE02214DF2205011
:103C600000F058FE84214DF2215000F053FE022155
:103C70004DF2225000F04EFEA4214DF2235000F0F0
:103C800049FE02214DF2245000F044FEB7214DF2CE
:103C9000255000F03FFE02214DF2265000F03AFE82
:103CA000CF214DF2275000F035FE02214DF2285071
:103CB00000F030FEDE214DF2295000F02BFE0221F3
:103CC0004DF22A5000F026FEF2214DF22B5000F06A
:103CD00021FE02214DF22C5000F01CFEFE214DF27F
:103CE0002D5000F017FE03214DF22E5000F012FE71
:103CF00010214DF22F5000F00DFE03214DF23050F7
:103D000000F008FE33214DF2315000F003FE032194
:103D10004DF2325000F0FEFD6D214DF2335000F0B7
:103D2000F9FD00214FF4564000F0F4FD33214DF22F
:103D3000016000F0EFFD00214DF2026000F0EAFDAD
:103D400034214DF2036000F0E5FD00214DF20460E6
:103D500000F0E0FD3A214DF2056000F0DBFD0021AE
:103D60004DF2066000F0D6FD4A214DF2076000F0EA
:103D7000D1FD00214DF2086000F0CCFD5C214DF238
:103D8000096000F0C7FD00214DF20A6000F0C2FD9D
:103D900081214DF20B6000F0BDFD00214DF20C6061
:103DA00000F0B8FDA6214DF20D6000F0B3FD00213A
:103DB0004DF20E6000F0AEFDE5214DF20F6000F017
:103DC000A9FD01214DF2106000F0A4FD13214DF278
:103DD000116000F09FFD01214DF2126000F09AFD8C
:103DE00054214DF2136000F095FD01214DF2146055
:103DF00000F090FD82214DF2156000F08BFD012155
:103E00004DF2166000F086FDCA214DF2176000F0F9
:103E100081FD02214DF2186000F07CFD00214DF281
:103E2000196000F077FD02214DF21A6000F072FD7A
:103E300001214DF21B6000F06DFD02214DF21C606E
:103E400000F068FD34214DF21D6000F063FD022199
:103E50004DF21E6000F05EFD67214DF21F6000F024
:103E600059FD02214DF2206000F054FD84214DF2F5
:103E7000216000F04FFD02214DF2226000F04AFD6A
:103E8000A4214DF2236000F045FD02214DF2246093
:103E900000F040FDB7214DF2256000F03BFD02210E
:103EA0004DF2266000F036FDCF214DF2276000F084
:103EB00031FD02214DF2286000F02CFDDE214DF293
:103EC000296000F027FD02214DF22A6000F022FD5A
:103ED000F2214DF22B6000F01DFD02214DF22C600D
:103EE00000F018FDFE214DF22D6000F013FD0321BE
:103EF0004DF22E6000F00EFD10214DF22F6000F00B
:103F000009FD03214DF2306000F004FD33214DF234
:103F1000316000F0FFFC03214DF2326000F0FAFC4A
:103F20006D214DF2336000F0F5FC55214FF47040E7
:103F300000F0F0FCAA214FF2010000F0EBFC52214E
:103F40004FF2020000F0E6FC08214FF2030000F0FF
:103F5000E1FC00214FF2040000F0DCFCCC214FF426
:103F6000314000F0D7FC00214BF2011000F0D2FCF0
:103F700005214FF4364000F0CDFC70214FF437405E
:103F800000F0C8FC70214BF2017000F0C3FC01216D
:103F90004FF4384000F0BEFC03214BF6010000F066
:103FA000B9FC03214BF6020000F0B4FC03214BF6F0
:103FB000030000F0AFFC02214FF43C4000F0AAFCEB
:103FC00000214BF6014000F0A5FC00214BF6024019
:103FD00000F0A0FCD0214FF4494000F09BFC0221EE
:103FE0004CF6011000F096FC50214CF6021000F047
:103FF00091FC50214CF6031000F08CFC50214CF643
:10400000041000F087FC00214FF4545000F082FCB3
:1040100055214FF4685000F07DFC4FF4885000F0BB
:1040200063FC782001F022F84FF4245000F05CFC8F
:10403000BDE08248808841F663118842F8D1E220D1
:1040400000F052FC1D2000F043FC022000F040FC78
:10405000042000F03DFC642001F008F8E02000F0AE
:1040600043FC012000F034FC0A2000F0F3FFE020C4
:1040700000F03AFC032000F02BFC0C2000F0EAFFDB
:10408000012000F031FC0A2000F0E4FFE62000F0FF
:104090002BFC2F2000F01CFCFF2000F019FCFF205F
:1040A00000F016FCB02000F01FFC202000F010FCF7
:1040B000002000F00DFC032000F00AFC40F21F304D
:1040C00000F006FC012000F003FC40F2DF1000F0DD
:1040D000FFFB002000F0FCFBB42000F005FC0420F6
:1040E00000F0F6FB40F21F4000F0F2FB002000F071
:1040F000EFFB2E2000F0ECFB002000F0E9FB00209D
:1041000000F0E6FB002000F0E3FB002000F0E0FB05
:10411000B62000F0E9FB022000F0DAFB4FF4037058
:1041200000F0D6FB002000F0D3FB172000F0D0FBFE
:10413000152000F0CDFB002000F0CAFB002000F0AD
:10414000C7FBF02000F0D0FB032000F0C1FB2920CA
:1041500000F0CAFBD02000F0C7FB002000F0B8FB45
:10416000BE2000F0C1FB052000F0B2FBFE2000F0F5
:10417000AFFB012000F0ACFB002000F0A9FB002009
:1041800000F0A6FB002000F0A3FBB82000F0ACFB81
:10419000032000F09DFB012000F09AFBBA2000F004
:1041A000A3FB012000F094FB642000F063F8234897
:1041B000808849F24131884217D02048808845F2F2
:1041C0001031884211D01D48808845F21051884234
:1041D0000BD01A48808841F66311884205D01748F1
:1041E000808847F2897188421CD11548006820F008
:1041F0000F004FF02041C1F804010846D0F8040137
:1042000020F47060C1F804010846D0F8040140F0C1
:104210000400C1F804010846D0F8040140F48060AD
:10422000C1F804010020FDF769FB01200549086081
:104230004FF6FF70FDF748FB15B000BDB00400203D
:10424000040100A09482404210B50246012000E023
:1042500050430B1EA1F10104E1B2F9D110BD0000E1
:1042600008B5034800880090BDF8000008BD0000B4
:104270000000086070B52DED048B0446BE2000F0F0
:1042800033FB052000F024FB204601F032F841EC1E
:10429000190B9FED0E0B53EC102B01F03DF841EC88
:1042A000180B00F0F9FF85B2284600F011FB012041
:1042B00000F00EFBFF2000F00BFB002000F008FBDD
:1042C000002000F005FBBDEC048B70BD66666666E1
:1042D00066660440F0B50546002400279C488079B6
:1042E000012805D19A48808841F66311884208D197
:1042F00097488079F0B99648808841F663118842E2
:1043000018D1082D15D2DFE805F00406080A0C0EB6
:10431000101206250DE007250BE0042509E0052510
:1043200007E0012505E0002503E0032501E0022563
:1043300000BF00BF8648808849F24131884217D0CB
:104340008348808845F21031884211D080488088A7
:1043500045F2105188420BD07D48808841F66311A8
:10436000884205D07A48808847F2897188427DD199
:10437000082D1CD2DFE805F00406090C0F121518F1
:1043800000BF14E044F0800411E044F040040EE06B
:1043900044F0C0040BE044F0200408E044F0600462
:1043A00005E044F0A00402E044F0E00400BF00BFD8
:1043B0006748808845F21051884202D14FF458571F
:1043C00000E036276248808845F2103188420DD0DF
:1043D0005F48808845F21051884207D05C48808849
:1043E00041F66311884201D044F008042146384662
:1043F00000F090FA5648808841F6631188421DD03B
:1044000004F0200068B15248008851494988884228
:1044100014DA4F48068840884D490880084646808F
:104420000CE04B4800884A494988884206DD4848E4
:104430000688408846490880084646804448808867
:1044400045F21051884254D14149488900F04CFA54
:10445000002000F03DFA3E494989491C88B200F02D
:1044600043FA002000F034FA394900E06FE049894E
:10447000891C88B200F038FA35490988491EC1F311
:104480000F2000F025FA32494989C91C88B200F092
:104490002BFA2F490978491EC8B200F019FA2C49A5
:1044A000888900F021FA002000F012FA2849898951
:1044B000491C88B200F018FA002000F009FA2449DB
:1044C0008989891C88B200F00FFA21494988491E60
:1044D000C1F30F2000F0FCF91D498989C91C88B27D
:1044E00000F002FA1A498978491EC8B200F0F0F9C2
:1044F0002DE01749488900F0F7F9002000F0E8F9AD
:10450000002000F0E5F912490988491EC1F30F2087
:1045100000F0DEF90E490978491EC8B200F0D8F95A
:104520000B49888900F0E0F9002000F0D1F9002063
:1045300000F0CEF906494988491EC1F30F2000F06A
:10454000C7F903498978491EC8B200F0C1F9F0BD26
:10455000B004002010B502460C464E48808849F24F
:10456000413188420BD04B48808845F21031884257
:1045700005D04848808847F28971884214D145495E
:10458000488900F0B1F9101200F0A2F9D0B200F0A1
:104590009FF94049888900F0A7F9201200F098F9A6
:1045A000E0B200F095F973E03A48808841F6631173
:1045B000884247D137488079A8B936480088401EDC
:1045C000801A82B23349488900F08EF9002000F049
:1045D0007FF9002000F07CF9101200F079F9D0B2D8
:1045E00000F076F916E02B49488900F07DF91012A9
:1045F00000F06EF9D0B200F06BF926490988491E27
:10460000C1F30F2000F064F922490978491EC8B2AD
:1046100000F05EF91F49888900F066F9201200F069
:1046200057F9E0B200F054F91A494988491EC1F31C
:104630000F2000F04DF917498978491EC8B200F0E3
:1046400047F925E01348808845F2105188421FD170
:104650001049488900F048F9101200F039F90D4965
:104660004989491C88B200F03FF9D0B200F030F916
:104670000849888900F038F9201200F029F9054925
:104680008989491C88B200F02FF9E0B200F020F9C6
:1046900010BD0000B00400202DE9F84F80460F4601
:1046A00016461C46BB462046E31704EB5373DB104B
:1046B00021464FEAE47C04EB5C7C4FEAEC0CA4EB73
:1046C000CC0CBCF1000F02D04FF0010C01E04FF018
:1046D000000C6344224604EBD27C4FEA6C0C03FBD3
:1046E0000CF3DBB20093A6F12000C6B200255EE019
:1046F0000C2C07D106EB46002F4901EB800010F887
:1047000005901BE0102C05D12C4800EB061010F88A
:10471000059013E0182C07D106EBC600284901EBE1
:10472000800010F8059009E0202C05D1254800EB09
:10473000C61010F8059001E0BDE8F88F4FF0000AB0
:104740002FE009F0800030B11F483946026840462A
:10475000FDF790F907E00A9828B91C483946026825
:104760004046FDF787F94FEA49604FEA1069781C27
:1047700087B217484088B84200DCDDE7A7EB0B00A2
:10478000A0420AD15F4608F101001FFA80F81048E4
:104790000088404500DCCFE706E00AF1010000F0A8
:1047A000FF0ABAF1080FCCDB00BF681CC5B2009845
:1047B00085429DDB00BFBFE72E550008A2590008C7
:1047C000925F0008EE6C0008A4000020A800002002
:1047D000B00400202DE9FF4F81B0074691461E46E8
:1047E0000E9D4FF0000A002439E0301B401EC1B27C
:1047F0000A20FFF729FDB9FBF0F00A21B0FBF1F226
:1048000001FB1208BAF1000F16D1701EA04213DD91
:10481000B8F1000F0ED10020AB4605EBDB7149105B
:1048200001FB0471009088B22B4620220299FFF709
:1048300033FF12E04FF0010A0020AB4605EBDB71BD
:10484000491001FB0471009088B208F13001CAB22E
:104850002B460299FFF720FF00BF601CC4B2B44290
:10486000C3DB05B0BDE8F08F2DE9F84704460D46DF
:1048700090469946DDE9096704F0FF0A08EB040059
:104880001FFA80F809EB05001FFA80F916E044458D
:1048900002DB5446A81985B24D4500DB14E0002028
:1048A00000903A78334629462046FFF7F5FE304619
:1048B00006EBD07104EB61018CB27F1C38787E2846
:1048C00002DC38782028E2DA00BFBDE8F887000073
:1048D00001B5BDF800000090BDF800000149088056
:1048E00008BD00000000086001B5BDF800000090A0
:1048F000BDF800000149088008BD0000FEFF076008
:10490000024800890249088070470000B004002076
:10491000FEFF0760024A1080921C11807047000061
:10492000FEFF076000BFFEE7704700000248006816
:10493000C0F30220704700000CED00E010B5002825
:1049400007DA0A07140E054A00F00F031B1FD454A0
:1049500003E00A07130E024A135410BD18ED00E0DD
:1049600000E400E0704770472DE9F04192B0054641
:10497000884616461F46002400BF002000902648A7
:10498000006840F08050244908600846006800F044
:104990008050009000BF00BF00BF002000901F4863
:1049A000006840F440401D4908600846006800F473
:1049B0004040009000BF00BF0120069007900220F9
:1049C0000C9041050D91CDF838800F9510961197F8
:1049D00006A8FCF7CDFA04460CB100BFFEE7FCF7D1
:1049E0007BF804460CB100BFFEE70F2001900220C7
:1049F0000290002003904FF4A05004904FF4805098
:104A00000590052101A8FCF7B9F804460CB100BFD8
:104A1000FEE712B0BDE8F08140380240007000406F
:104A200010B5FBF7BDFF10BD1448006840F47000DE
:104A3000124908601248006840F0010010490860FF
:104A400000200F49083108600D4800680D490840F2
:104A50000B4908600C48091D0860081F006820F415
:104A60008020091F0860002005490C3108604FF0C4
:104A700000600249803908607047000088ED00E05E
:104A800000380240FFFFF6FE1030002410B5044647
:104A90002068C06820F040002168C86094F83900A0
:104AA000322803D1222084F8390002E0012084F862
:104AB00039002046FCF705FF002010BD70B5044604
:104AC000002694F83960222E01D0322E52D1A068EF
:104AD000B0F5805F13D1A56A206940B920684068AD
:104AE000C0F308002880A06A801CA06219E020683A
:104AF0004068C0B22880A06A401CA06211E0206912
:104B000038B920684068C1B2A26A501CA062117016
:104B100007E02068406800F07F01A26A501CA06294
:104B20001170E08D401E80B2E08508BB2068C0682F
:104B300020F020002168C86094F83900322803D1A1
:104B4000122084F839000EE02068C06820F48070DC
:104B50002168C8602068406920F001002168486130
:104B6000012084F839002046FCF7AAFE002070BD21
:104B70000020FCE70220FAE72DE9F0410446002579
:104B80002068056925F44055E06805432068056103
:104B90002068C56849F20C6085432169A068084314
:104BA00061690843E169084305432068C5602068DE
:104BB000456925F44075A069054320684561E069B1
:104BC000B0F5004F72D173492068884203D0724912
:104BD0002068884234D1FCF75BF900EBC00101EB9F
:104BE000001061684900B0FBF1F06421B0FBF1F600
:104BF000FCF74EF900EBC00101EB001061684900C1
:104C0000B0FBF1F7FCF744F900EBC00101EB001039
:104C100061684900B0FBF1F06421B0FBF1F000EBFA
:104C2000C00101EB0010A7EB8000322101EB001066
:104C30006421B0FBF1F066F31F1021688860A6E0E4
:104C4000FCF710F900EBC00101EB001061684900AE
:104C5000B0FBF1F06421B0FBF1F6FCF703F900EBD7
:104C6000C00101EB001061684900B0FBF1F7FCF7EF
:104C7000F9F800EBC00101EB001061684900B0FBDE
:104C8000F1F06421B0FBF1F000EBC00101EB00108A
:104C9000A7EB8000322101EB00106421B0FBF1F0A2
:104CA00066F31F102168886071E0FFE739492068CA
:104CB000884203D038492068884234D1FCF7E8F8AC
:104CC00000EBC00101EB001061688900B0FBF1F05E
:104CD0006421B0FBF1F6FCF7DBF800EBC00101EB5F
:104CE000001061688900B0FBF1F7FCF7D1F800EB28
:104CF000C00101EB001061688900B0FBF1F0642194
:104D0000B0FBF1F000EBC00101EB0010A7EB80005D
:104D1000322101EB00106421B0FBF1F066F31F10AB
:104D20002168886033E0FCF79DF800EBC00101EBDF
:104D3000001061688900B0FBF1F06421B0FBF1F66E
:104D4000FCF790F800EBC00101EB001061688900EE
:104D5000B0FBF1F7FCF786F800EBC00101EB0010A7
:104D600061688900B0FBF1F06421B0FBF1F000EB69
:104D7000C00101EB0010A7EB8000322101EB001015
:104D80006421B0FBF1F066F31F1021688860BDE874
:104D9000F0810000001001400014014010B50146F0
:104DA000002391F83930122B01D0322B2CD1886896
:104DB000B0F5805F0FD10A6A1088C0F308000C6854
:104DC0006060086918B9086A801C086209E0086A0E
:104DD000401C086205E00C6A601C086220780C68C0
:104DE0006060C88C401E80B2C88458B90868C0682A
:104DF00020F080000C68E0600868C06840F0400067
:104E00000C68E060002010BD0220FCE72DE9F041B5
:104E100004460E4617461D464FF00008FBF7BAFD44
:104E200080469FBB2BE0681C48B32DB1FBF7B2FD59
:104E3000A0EB0800A84222D92068C06820F08000BA
:104E40002168C8602068C06820F020002168C86020
:104E50002068C06820F480702168C86020684069BC
:104E600020F0010021684861012084F8390000BF6A
:104E7000002084F8380000BF0320BDE8F0812068DE
:104E800000683040B04202D1012001E003E0002080
:104E90000028C8D035E02AE0681C40B32DB1FBF7EC
:104EA00079FDA0EB0800A84221D92068C06820F055
:104EB00080002168C8602068C06820F02000216858
:104EC000C8602068C06820F480702168C8602068CD
:104ED000406920F0010021684861012084F8390010
:104EE00000BF002084F8380000BF0320C5E7206819
:104EF00000683040B04201D1012000E000200028CD
:104F0000CAD10020B9E7000008B520480068006851
:104F1000C0F3401018B34FF47A73012269461B485E
:104F2000FCF752FC1A4800780020C0B918480078F5
:104F3000002060B19DF800000A2803D00020144929
:104F400008701EE0124800781149087019E09DF8B9
:104F500000000D2804D10E4800780D49087010E0BB
:104F60009DF800100A4800780A4A11540848007851
:104F7000401C0749087008460078C72801DD00205A
:104F800008700248FCF7A5FA08BD0000E003002005
:104F90009E0000205002002008B5204800680068EC
:104FA000C0F3401018B34FF47A73012269461B48CE
:104FB000FCF70AFC1A4800780020C0B918480078AD
:104FC000002060B19DF800000A2803D00020144999
:104FD00008701EE0124800781149087019E09DF829
:104FE00000000D2804D10E4800780D49087010E02B
:104FF0009DF800100A4800780A4A115408480078C1
:10500000401C0749087008460078C72801DD0020C9
:1050100008700248FCF75DFA08BD0000200400207B
:105020009F0000201803002000BFFEE730380A2848
:1050300001D2012070470020704700BF7047000078
:1050400010B504460420FCF715FA0148046010BDB1
:105050009400002030B50446002504E04FF47A7037
:1050600000F004F86D1CA542F8D330BD70B50346BE
:1050700000224FF0E02675690D4E366803FB06F4FA
:105080004FF0E026B16910E04FF0E026B0698842A9
:105090000BD0884202D20E1A324402E02E1A0E447D
:1050A00032440146A24200D300E0EDE700BF70BDEC
:1050B0009400002000BF054A126802F04002002A56
:1050C000F9D0C2B2014B1B1D1A607047004400406A
:1050D0001CB500BFFBF76CFC0823022219214FF41A
:1050E000B470FFF741FCB420FFF7AAFF4FF416504D
:1050F00000F0BCF84FF4E13000F0A2F8FCF744FDFA
:105100004FF47840394908604FF6FF70FCF7DCFB3C
:1051100037A020210B46F022CDE9001000210A2003
:10512000FFF7A2FB00203149086034A018210B468C
:10513000F022CDE9001046210A20FFF795FB32A0AE
:1051400018210B46F022CDE9001064210A20FFF758
:105150008BFB30A018210B46F022CDE900108221F4
:105160000A20FFF781FB2EA018210B46F022CDE983
:105170000010A0210A20FFF777FB36E02B480078CB
:10518000002815DD2A480078002811DD18200323A7
:105190000090264802784621AA20FFF71BFB182022
:1051A00003230090224802786421AA20FFF712FB13
:1051B0001820032300901F4802788221AA20FFF7BD
:1051C00009FB1820032300901B480278A021AA2085
:1051D000FFF700FB194818210B46F022CDE900101B
:1051E0004FF48C710A20FFF73FFBC7E7A4000020B3
:1051F0004F7269656E7465657200000053504F32DE
:105200002020202020203A0048522020202020204A
:1052100020203A0054656D702020202020203A0084
:1052200048756D202020202020203A006E000020AC
:105230006F00002070000020710000207E0100201F
:1052400010B5044607480849086008464460002134
:105250008160C160016181610C214161FCF7D1F97C
:1052600010BD0000004400402004002010B504469A
:105270000748084908600846446000218160C16011
:10528000016181610C214161FCF7BBF910BD000097
:1052900000100140E00300204FEA1153A3F58063A2
:1052A000D3F11E03A8BFD3F1200C08DB4FF000425E
:1052B00042EAC12252EA505232FA03F070470942E0
:1052C0000BD4102BC4BF0020704703F5787CBCF1D1
:1052D000FF3F05D04FF0FF3070474FF000007047A0
:1052E00070B500F0C3F800BF4992248000207047D9
:1052F000F0E7B0FA80F310FA03F10AD0C3F11D030E
:1053000003F580634FEA41504FEA035202EBD1218B
:1053100070474FF000007047DFF848C170B51CEAD5
:10532000111E1EBF1CEA13159EEA0C0F95EA0C0F06
:1053300000F06F8081EA030423EA4C134EEAD47E26
:1053400021EA4C1141F4801143F48013AE44A1FBD7
:10535000024CA0FB0365AEF17F7E361955EB0C05C0
:10536000A1FB034C4CF10003A0FB021C16EB0C0646
:10537000654153F10003094218BF46F0010613F4DA
:10538000007F0BD14FEA03314FEA0530340341EA85
:10539000155140EA16506FF003020AE04FEAC321AC
:1053A0004FEAC520F40241EA555140EA56506FF0E9
:1053B000020202EB2E4201EB025585EACE710AD0C1
:1053C0005FEA440C18BF24F0004450F1000041F1A2
:1053D000000120EAD47040F2FE7C624500D270BD2C
:1053E000A84214BF4FF080444FF04044002E08BF45
:1053F0000024BEF1806FA8BFA1F1C041BDE870409C
:1054000080F282804FF0000001F1C04101F00041C4
:1054100070479EEA0C0F0CEA131518BF95EA0C0FA3
:1054200006D04FF0000081EA030E0EF0004170BD7F
:1054300000F01CF88900013E00F007B800F009B840
:105440004FEA430C5FEA5C5C08D081EA030100F09C
:105450005BB84FEA410C5FEA5C5CF6D14FF00000AC
:10546000014970470000FF070000F87F0EF1020EAF
:105470002EF0030E5EF8046B364205D4012A43EB8E
:10548000030515F5001F12D8012841EB010C1CF58E
:10549000001F0CD80ED14FEAD17C15F5001F0CEB84
:1054A0004C0C0CF1020C08BF4CEBD37C04E04FF029
:1054B000080C01E04FEAD37C0CEB4C0526FA05F60C
:1054C00006F00706B6F1040C06D20EEB860CBDE81A
:1054D00070404CF0010C6047DFE80CF0090B020251
:1054E0004FF000414FF00000A1F5002170BD1946BA
:1054F0001046012851EB010418BFD4F5001484BFF5
:10550000002001F0004170BD0808A0F500114FEA2D
:10551000310170474FF04070E1EE100A7047000013
:105520000000010203040102030406070809000049
:1055300000000000000000000000000000003F40EC
:10554000000000000000000030004000300040007B
:10555000000009000BC03D000BC03D00090018C051
:1055600024407FE0224031800000180024C01B004E
:105570000D803240018003801C4027401C80074082
:10558000004010006000000000000000000000006B
:10559000000000001F8020404020000040202040EC
:1055A0001F8000000000090006001F80060009009F
:1055B0000000040004003F8004000400000000100C
:1055C000006000000000000000000400040004006F
:1055D0000400040000000000004000000000000083
:1055E0000000002001C006003800400000001F80BD
:1055F0002040204020401F800000000010403FC09D
:1056000000400000000018C0214022402440184003
:10561000000010802040244024401B800000020035
:105620000D0011003FC0014000003C802440244098
:105630002440238000001F80244024403440038005
:1056400000003000200027C03800200000001B8030
:105650002440244024401B8000001C0022C0224023
:1056600022401F80000000000000084000000000F1
:1056700000000000000004600000000000000000C6
:1056800004000A00110020804040090009000900C0
:1056900009000900000000004040208011000A00BD
:1056A00004001800200023402400180000001F8080
:1056B0002040274029401F400000004007C039001B
:1056C0000F0001C0004020403FC0244024401B8008
:1056D00000001F80204020402040308000002040FB
:1056E0003FC0204020401F80000020403FC0244099
:1056F0002E4030C0000020403FC024402E0030002B
:1057000000000F0010802040224033800200204023
:105710003FC0040004003FC02040204020403FC064
:105720002040204000000060202020203FC02000BA
:10573000200020403FC024400B0030C020402040CB
:105740003FC020400040004000C03FC03C0003C0BC
:105750003C003FC0000020403FC00C4023003FC041
:1057600020001F802040204020401F80000020405B
:105770003FC024402400180000001F802140214029
:1057800020E01FA0000020403FC02440260019C098
:10579000004018C0244024402240318000003000E6
:1057A00020403FC020403000000020003F800040EB
:1057B00000403F80200020003E0001C0070038006C
:1057C0002000380007C03C0007C03800000020401F
:1057D00039C0060039C0204000002000384007C012
:1057E000384020000000304021C02640384020C012
:1057F0000000000000007FE040204020000000008A
:1058000070000C0003800040000000004020402099
:105810007FE00000000000002000400020000000A9
:105820000000001000100010001000100010000018
:105830000000400000000000000000000280054061
:10584000054003C0004020003FC0044004400380E6
:1058500000000000038004400440064000000000F7
:105860000380044024403FC0004000000380054006
:10587000054003400000000004401FC024402440B5
:105880002000000002E00550055006500420204092
:105890003FC00440040003C000400000044027C093
:1058A00000400000000000100010041027E000007D
:1058B000000020403FC00140070004C004402040D9
:1058C00020403FC000400040000007C0040007C067
:1058D000040003C00000044007C00440040003C0EB
:1058E00000400000038004400440038000000410D6
:1058F00007F00450044003800000000003800440CF
:10590000045007F00010044007C0024004000400E7
:105910000000000006400540054004C000000000F3
:1059200004001F8004400040000004000780004085
:10593000044007C000400400070004C001800600C6
:105940000400060001C0070001C00600000004407A
:1059500006C0010006C0044000000410071004E067
:105960000180060004000000044005C00640044019
:1059700000000000000004007BE040200000000068
:1059800000000000FFF000000000000040207BE06D
:1059900004000000000040008000400020002000C3
:1059A00040000000000000000000000000000000B7
:1059B00000000000000000001FCC000C00000000F0
:1059C00000000000080030006000080030006000A7
:1059D0000000022003FC1E20022003FC1E200220E7
:1059E000000000000E1811043FFF10840C78000026
:1059F00000000F0010840F3800C00778188400786A
:105A0000000000780F8410C411240E9800E4008474
:105A1000000808006800700000000000000000009E
:105A2000000000000000000007E0181820044002F9
:105A30000000000040022004181807E000000000E9
:105A400000000240024001800FF00180024002404D
:105A500000000080008000800FF80080008000803F
:105A600000000001000D000E00000000000000001A
:105A70000000000000800080008000800080008026
:105A800000800000000C000C00000000000000007E
:105A900000000000000600180060018006001800E9
:105AA0002000000007F0080810041004080807F0A0
:105AB00000000000080408041FFC000400040000AB
:105AC000000000000E0C10141024104411840E0C61
:105AD000000000000C1810041104110412880C704E
