:020000040800F2
:1000000000000220B5350008A9290008B129000820
:10001000B9290008C1290008C9290008000000000A
:1000200000000000000000000000000071A80008AF
:10003000D129000800000000C1AA0008C1830008FF
:1000400005360008053600080536000805360008A4
:100050000536000805360008053600080536000894
:100060000536000805360008053600080536000884
:100070000536000805360008053600080536000874
:10008000E1290008F52900080536000805360008B2
:100090000536000805360008053600080536000854
:1000A0000536000805360008053600080536000844
:1000B000092A00080536000805360008053600083C
:1000C0000536000805360008053600080536000824
:1000D000053600081D2A0008312A0008452A0008B4
:1000E0000536000805360008053600080536000804
:1000F00005360008592A00080536000805360008AC
:1001000005360008053600080536000805360008E3
:1001100005360008053600080536000805360008D3
:1001200005360008053600080536000805360008C3
:1001300005360008053600080536000805360008B3
:1001400005360008053600080536000805360008A3
:100150000536000805360008053600086D2A000837
:100160000536000805360008053600080536000883
:1001700005360008053600080536000800000000B6
:080180000536000805360008F1
:1001900010B5054C237833B9044B13B10448AFF3C1
:1001A00000800123237010BD280C002000000000F7
:1001B00074B6010808B5034B1BB103490348AFF3FC
:1001C000008008BD000000002C0C002074B601085F
:1001D00010F8012B11F8013B012A28BF9A42F7D0F1
:1001E000D01A70470000000000000000000000006E
:1001F00001F0FF01102A2BDB10F0070F08D010F8D8
:10020000013B013A8B422DD010F0070F42B3F6D1DB
:10021000F0B441EA012141EA014122F007047FF0F4
:1002200000070023F0E80256083C85EA010586EA4B
:10023000010685FA47F5A3FA87F586FA47F6A5FA87
:1002400087F68EB9EED1F0BC01F0FF0102F0070293
:1002500032B110F8013B013A83EA010313B1F8D13E
:100260000020704701387047002D06BF354603381F
:10027000073815F0010F07D1013015F4807F02BF58
:10028000013015F4C03F0130F0BC0138704700BFA9
:10029000034613F8012B002AFBD1181A01387047C6
:1002A00081F0004102E000BF83F0004330B54FEA27
:1002B00041044FEA430594EA050F08BF90EA020F94
:1002C0001FBF54EA000C55EA020C7FEA645C7FEA27
:1002D000655C00F0E2804FEA5454D4EB5555B8BF4A
:1002E0006D420CDD2C4480EA020281EA030382EABB
:1002F000000083EA010180EA020281EA0303362D4D
:1003000088BF30BD11F0004F4FEA01314FF4801C1F
:100310004CEA113102D0404261EB410113F0004F31
:100320004FEA03334CEA133302D0524263EB4303E8
:1003300094EA050F00F0A780A4F10104D5F1200E86
:100340000DDB02FA0EFC22FA05F2801841F10001E1
:1003500003FA0EF2801843FA05F359410EE0A5F1B5
:1003600020050EF1200E012A03FA0EFC28BF4CF0E6
:10037000020C43FA05F3C01851EBE37101F000459C
:1003800007D54FF0000EDCF1000C7EEB00006EEBA9
:100390000101B1F5801F1BD3B1F5001F0CD3490833
:1003A0005FEA30004FEA3C0C04F101044FEA44528A
:1003B00012F5800F80F09A80BCF1004F08BF5FEA11
:1003C000500C50F1000041EB045141EA050130BDF1
:1003D0005FEA4C0C404141EB0101013C28BFB1F503
:1003E000801FE9D291F0000F04BF01460020B1FA4E
:1003F00081F308BF2033A3F10B03B3F120020CDA21
:100400000C3208DD02F1140CC2F10C0201FA0CF0FE
:1004100021FA02F10CE002F11402D8BFC2F1200C63
:1004200001FA02F120FA0CFCDCBF41EA0C01904019
:10043000E41AA2BF01EB0451294330BD6FEA040462
:100440001F3C1CDA0C340EDC04F11404C4F120024D
:1004500020FA04F001FA02F340EA030021FA04F35F
:1004600045EA030130BDC4F10C04C4F1200220FAB6
:1004700002F001FA04F340EA0300294630BD21FAF4
:1004800004F0294630BD94F0000F83F4801306BFBA
:1004900081F480110134013D4EE77FEA645C18BFAE
:1004A0007FEA655C29D094EA050F08BF90EA020F45
:1004B00005D054EA000C04BF1946104630BD91EA3D
:1004C000030F1EBF0021002030BD5FEA545C05D140
:1004D0004000494128BF41F0004130BD14F580047F
:1004E0003CBF01F5801130BD01F0004545F0FE41F3
:1004F00041F470014FF0000030BD7FEA645C1ABF28
:10050000194610467FEA655C1CBF0B46024650EA5E
:10051000013406BF52EA033591EA030F41F400218A
:1005200030BD00BF90F0000F04BF0021704730B510
:100530004FF4806404F132044FF000054FF00001E5
:1005400050E700BF90F0000F04BF0021704730B5A6
:100550004FF4806404F1320410F0004548BF40427B
:100560004FF000013EE700BF42004FEAE2014FEAD0
:1005700031014FEA02701FBF12F07F4393F07F4FAB
:1005800081F06051704732F07F4208BF704793F0AE
:100590007F4F04BF41F40021704730B54FF46074C1
:1005A00001F0004521F000411CE700BF50EA0102C4
:1005B00008BF704730B54FF000050AE050EA01026D
:1005C00008BF704730B511F0004502D5404261EBDD
:1005D00041014FF4806404F132045FEA915C3FF41E
:1005E000D8AE4FF003025FEADC0C18BF03325FEABB
:1005F000DC0C18BF033202EBDC02C2F1200300FA6C
:1006000003FC20FA02F001FA03FE40EA0E0021FA90
:1006100002F11444BDE600BF70B54FF0FF0C4CF47E
:10062000E06C1CEA11541DBF1CEA135594EA0C0F30
:1006300095EA0C0F00F0DEF82C4481EA030621EA6B
:100640004C5123EA4C5350EA013518BF52EA0335A6
:1006500041F4801143F4801338D0A0FB02CE4FF058
:100660000005E1FB02E506F00042E0FB03E54FF088
:100670000006E1FB03569CF0000F18BF4EF0010E80
:10068000A4F1FF04B6F5007F64F5407404D25FEA7C
:100690004E0E6D4146EB060642EAC62141EA55512F
:1006A0004FEAC52040EA5E504FEACE2EB4F1FD0C71
:1006B00088BFBCF5E06F1ED8BEF1004F08BF5FEAEF
:1006C000500E50F1000041EB045170BD06F00046A1
:1006D00046EA010140EA020081EA0301B4EB5C044E
:1006E000C2BFD4EB0C0541EA045170BD41F4801146
:1006F0004FF0000E013C00F3AB8014F1360FDEBF6B
:10070000002001F0004170BDC4F10004203C35DA46
:100710000C341BDC04F11404C4F1200500FA05F3C9
:1007200020FA04F001FA05F240EA020001F000426A
:1007300021F0004110EBD37021FA04F642EB0601E0
:100740005EEA430E08BF20EAD37070BDC4F10C040A
:10075000C4F1200500FA04F320FA05F001FA04F2CE
:1007600040EA020001F0004110EBD37041F10001BA
:100770005EEA430E08BF20EAD37070BDC4F12005C5
:1007800000FA05F24EEA020E20FA04F301FA05F22D
:1007900043EA020321FA04F001F0004121FA04F2D5
:1007A00020EA020000EBD3705EEA430E08BF20EAA5
:1007B000D37070BD94F0000F0FD101F000464000DF
:1007C00041EB010111F4801F08BF013CF7D041EA61
:1007D000060195F0000F18BF704703F00046520065
:1007E00043EB030313F4801F08BF013DF7D043EA36
:1007F0000603704794EA0C0F0CEA135518BF95EAEC
:100800000C0F0CD050EA410618BF52EA4306D1D172
:1008100081EA030101F000414FF0000070BD50EA91
:10082000410606BF1046194652EA430619D094EA1B
:100830000C0F02D150EA013613D195EA0C0F05D105
:1008400052EA03361CBF104619460AD181EA030159
:1008500001F0004141F0FE4141F470014FF0000011
:1008600070BD41F0FE4141F4780170BD70B54FF0AC
:10087000FF0C4CF4E06C1CEA11541DBF1CEA13552C
:1008800094EA0C0F95EA0C0F00F0A7F8A4EB05040E
:1008900081EA030E52EA03354FEA013100F0888005
:1008A0004FEA03334FF0805545EA131343EA1263CE
:1008B0004FEA022245EA111545EA10654FEA002683
:1008C0000EF000419D4208BF964244F1FD0404F53C
:1008D000407402D25B084FEA3202B61A65EB030598
:1008E0005B084FEA32024FF480104FF4002CB6EB55
:1008F000020E75EB030E22BFB61A754640EA0C00D5
:100900005B084FEA3202B6EB020E75EB030E22BF14
:10091000B61A754640EA5C005B084FEA3202B6EB55
:10092000020E75EB030E22BFB61A754640EA9C0014
:100930005B084FEA3202B6EB020E75EB030E22BFE4
:10094000B61A754640EADC0055EA060E18D04FEAA2
:10095000051545EA16754FEA06164FEAC30343EA42
:1009600052734FEAC2025FEA1C1CC0D111F4801F0F
:100970000BD141EA00014FF000004FF0004CB6E708
:1009800011F4801F04BF01430020B4F1FD0C88BFA7
:10099000BCF5E06F3FF6AFAEB5EB030C04BFB6EBB2
:1009A000020C5FEA500C50F1000041EB045170BDA5
:1009B0000EF0004E4EEA113114EB5C04C2BFD4EBD2
:1009C0000C0541EA045170BD41F480114FF0000E56
:1009D000013C90E645EA060E8DE60CEA135594EAD2
:1009E0000C0F08BF95EA0C0F3FF43BAF94EA0C0FD5
:1009F0000AD150EA01347FF434AF95EA0C0F7FF44A
:100A000025AF104619462CE795EA0C0F06D152EA9D
:100A100003353FF4FDAE1046194622E750EA410681
:100A200018BF52EA43067FF4C5AE50EA41047FF492
:100A30000DAF52EA43057FF4EBAE12E74FF0FF3CF7
:100A400006E000BF4FF0010C02E000BF4FF0010CC8
:100A50004DF804CD4FEA410C7FEA6C5C4FEA430C41
:100A600018BF7FEA6C5C1BD001B050EA410C0CBF90
:100A700052EA430C91EA030F02BF90EA020F0020F2
:100A8000704710F1000F91EA030F58BF994208BF59
:100A900090422CBFD8176FEAE37040F00100704716
:100AA0004FEA410C7FEA6C5C02D150EA013C07D16D
:100AB0004FEA430C7FEA6C5CD6D152EA033CD3D0B8
:100AC0005DF8040B704700BF8446104662468C46B2
:100AD0001946634600E000BF01B5FFF7B7FF0028E5
:100AE00048BF10F1000F01BD4DF808EDFFF7F4FF0E
:100AF0000CBF012000205DF808FB00BF4DF808ED99
:100B0000FFF7EAFF34BF012000205DF808FB00BFBB
:100B10004DF808EDFFF7E0FF94BF012000205DF8DD
:100B200008FB00BF4DF808EDFFF7CEFF94BF012092
:100B300000205DF808FB00BF4DF808EDFFF7C4FF8B
:100B400034BF012000205DF808FB00BF4FEA410CD4
:100B50007FEA6C5C02D150EA013C0AD14FEA430CB7
:100B60007FEA6C5C02D152EA033C02D14FF00000F4
:100B700070474FF0010070474FEA410212F5001232
:100B800015D211D56FF47873B3EB625212D94FEAD4
:100B9000C12343F0004343EA505311F0004F23FABE
:100BA00002F018BF404270474FF00000704750EA13
:100BB000013005D111F0004008BF6FF000407047D0
:100BC0004FF00000704700BF4FEA4102B2F1E0432E
:100BD00024BFB3F5001CDCF1FE5C0DD901F0004C24
:100BE0004FEAC0024CEA5070B2F1004F40EB830074
:100BF00008BF20F00100704711F0804F21D113F1A0
:100C00003872BCBF01F00040704741F480114FEAD8
:100C10005252C2F11802C2F1200C10FA0CF320FA61
:100C200002F018BF40F001004FEAC1234FEAD3237E
:100C300003FA0CFC40EA0C0023FA02F34FEA4303E8
:100C4000CCE77FEA625307D150EA01331EBF4FF071
:100C5000FE4040F44000704701F0004040F0FE408C
:100C600040F40000704700BF7BB972B90029BEBFD5
:100C700000204FF0004106E008BF00281CBF6FF0C5
:100C800000414FF0FF3000F0B5B9ADF1080C6DE94F
:100C900004CE002909DB002B1ADB00F04DF8DDF84B
:100CA00004E0DDE9022304B07047404261EB4101FA
:100CB000002B1BDB00F040F8DDF804E0DDE9022347
:100CC00004B0404261EB4101524263EB4303704781
:100CD000524263EB430300F02FF8DDF804E0DDE956
:100CE000022304B0404261EB41017047524263EB82
:100CF000430300F021F8DDF804E0DDE9022304B04D
:100D0000524263EB4303704753B94AB9002908BF05
:100D100000281CBF4FF0FF314FF0FF3000F06AB9E0
:100D2000ADF1080C6DE904CE00F006F8DDF804E042
:100D3000DDE9022304B070472DE9F047089D0C4619
:100D4000002B4ED194468C458646B2FA82F262D987
:100D50004AB1C2F12003914020FA03F30CFA02FCDD
:100D6000194300FA02FE4FEA1C471FFA8CF6B1FB4A
:100D7000F7F44FEA1E4307FB141143EA014304FB57
:100D800006F199420AD91CEB030304F1FF3080F00D
:100D90001281994240F20F81023C6344591A1FFAB2
:100DA0008EF3B1FBF7F007FB101143EA014300FBA0
:100DB00006F69E420AD91CEB030300F1FF3180F0D6
:100DC000FC809E4240F2F980634402389B1B40EA5B
:100DD000044000211DB1D3400022C5E90032BDE826
:100DE000F0878B4205D90DB1C5E900010021084605
:100DF000F5E7B3FA83F1002946D1A34202D390422A
:100E0000C0F0F080861A64EB03030120002DE6D0C9
:100E1000C5E90063E3E7002A40F09080A1EB0C04F1
:100E20004FEA1C481FFA8CF70121B4FBF8F64FEA91
:100E30001E4308FB164443EA044307FB06F09842AE
:100E400008D91CEB030306F1FF3402D2984200F2EA
:100E5000CD8026461C1A1FFA8EF3B4FBF8F008FB6F
:100E6000104443EA044300FB07F79F4208D91CEBF8
:100E7000030300F1FF3402D29F4200F2B08020460B
:100E8000DB1B40EA0640A5E7C1F120068B4022FAB1
:100E900006F71F4320FA06FC04FA01F343EA0C03A9
:100EA000F44000FA01F8380C4FEA1349B4FBF0FEA5
:100EB0001FFA87FC00FB1E4449EA04440EFB0CF9B0
:100EC000A14502FA01F20AD93C190EF1FF3A80F06D
:100ED0008480A14540F28180AEF1020E3C44A4EB37
:100EE00009041FFA83F9B4FBF0F300FB134449EA49
:100EF000044403FB0CFCA44507D93C1903F1FF3063
:100F000067D2A44565D9023B3C4443EA0E40A0FBAE
:100F10000293A4EB0C049C42CE469C4651D34ED087
:100F200055B1B8EB0E0364EB0C0404FA06F6CB40A3
:100F30001E43CC40C5E90064002150E7C2F1200304
:100F400020FA03F10CFA02FC24FA03F394400C4358
:100F50004FEA1C4800FA02FE1FFA8CF7B3FBF8F0C8
:100F600008FB1031230C43EA014300FB07F19942CF
:100F700008D91CEB030300F1FF362CD299422AD981
:100F8000023863445B1AA4B2B3FBF8F108FB1133D7
:100F900044EA034401FB07F3A34208D91CEB040411
:100FA00001F1FF3613D2A34211D902396444E41A85
:100FB00041EA004139E70446F0E6084606E7C8453D
:100FC000AED2B9EB020E63EB070C0138A8E731464D
:100FD000EDE7034699E73046D4E7D6467FE763441A
:100FE00002384DE70646234608460FE7023E6344B3
:100FF00030E700BF704700BF80B582B000AF034646
:10100000FB711D4B1B785A1CD1B21B4A117019463B
:101010001A4AFB795354194B1B78552B03D0164BA6
:1010200000221A7025E0144B1B780A2B20D9134B91
:101030005B78532B12D0532B16DC512B02D0522B42
:1010400006D011E008220E490E4818F0A4FC0BE06F
:1010500008220B490C4818F09EFC05E008220849BC
:101060000A4818F098FC00BF034B00221A7000E0F9
:1010700000BF0837BD4680BD840C0020880C0020CE
:101080008A0C0020480C0020580C0020500C002036
:1010900080B400AF534BB3F9003007EE903AB8EE8E
:1010A000E77ADFED516AC7EE267AB3EE007A67EE93
:1010B000877A4E4BC3ED007A4A4BB3F9023007EE04
:1010C000903AB8EEE77ADFED486AC7EE267AB3EEDB
:1010D000007A67EE877A464BC3ED007A414BB3F94D
:1010E000043007EE903AB8EEE77ADFED3F6AC7EEDC
:1010F000267AB3EE007A67EE877A3E4BC3ED007A2C
:101100003D4BB3F9003007EE903AB8EEE77ADFEDE9
:10111000366AC7EE267A9FED397A67EE877A384BC2
:10112000C3ED007A344BB3F9023007EE903AB8EED3
:10113000E77ADFED2D6AC7EE267A9FED307A67EE0B
:10114000877A304BC3ED007A2B4BB3F9043007EEAE
:10115000903AB8EEE77ADFED246AC7EE267A9FED83
:10116000277A67EE877A284BC3ED007A274BB3F9CD
:10117000003007EE903AB8EEE77ADFED1B6AC7EE73
:10118000267A9FED237A67EE877A224BC3ED007AA9
:101190001E4BB3F9023007EE903AB8EEE77ADFED76
:1011A000126AC7EE267A9FED1A7A67EE877A1A4B93
:1011B000C3ED007A154BB3F9043007EE903AB8EE60
:1011C000E77ADFED096AC7EE267A9FED117A67EEBE
:1011D000877A124BC3ED007A00BFBD465DF8047BF1
:1011E000704700BF480C0020000000476C0C002036
:1011F000700C0020740C0020580C00200000FA44F1
:10120000780C00207C0C0020800C0020500C00206A
:1012100000003443600C0020640C0020680C0020A7
:1012200080B584B000AF78607B685B6C03F0080326
:10123000002B0FD00023FB607B681B681B68FB60E2
:101240007B681B685B68FB60FB68012203490448FC
:1012500005F0D7FD00BF1037BD4680BD440C00200F
:101260006848002080B500AF114804F093FB3C2192
:10127000104804F0BDFD3C210F4804F0B9FD0F4BB0
:1012800000221A600D4B1B680D4A13600B4B0022A5
:101290005A600A4B5B680A4A5360084B4FF00002E1
:1012A0009A60064B9B68064A936000BF80BD00BFF2
:1012B000004700204847002090470020900D002064
:1012C000840D002080B582B000AF78607B68002B71
:1012D00004D1174B1B6800225A6326E07B68002B61
:1012E0000ADD00220121134803F0DCFC0122022167
:1012F000104803F0D7FC0FE07B68002B0CDA7B680A
:101300005B427B60012201210A4803F0CBFC0022F2
:101310000221084803F0C6FC7B68632B01DD6423CF
:101320007B60034B1B687A685A630837BD4680BDF3
:10133000B84600200010024080B582B000AF78604F
:101340007B68002B04D1174B1B6800229A6326E0B0
:101350007B68002B0ADD00220121134803F0A2FC68
:1013600001220221104803F09DFC0FE07B68002B56
:101370000CDA7B685B427B60012201210A4803F0A2
:1013800091FC00220221084803F08CFC7B68632B4F
:1013900001DD64237B60034B1B687A689A6308371E
:1013A000BD4680BDB84600200008024080B483B02E
:1013B00000AF7860034B18460C37BD465DF8047BE0
:1013C000704700BF6801002080B582B000AF786030
:1013D000154B1B7883F00103DBB2002B1FD00020DC
:1013E00000F0E8F8034621221946104818F0CAF91F
:1013F0000346002B05D00E4B0E4A59210E4816F01D
:10140000FBFF002000F0E4F802460C4B9B690C3314
:101410000C3207CA83E80700034B01221A70074BFE
:1014200018460837BD4680BD9C0D0020A4BA0108AF
:1014300090B60108C8BA010818B70108F8BA01083F
:1014400080B483B000AF7860034B18460C37BD46BC
:101450005DF8047B704700BF1CBB0108B0B582B0CB
:1014600000AF7860144B1B7883F00103DBB2002BD4
:101470001DD00020FFF7E4FF0346104A14461D4626
:101480000FCD0FC40FCD0FC42B682360002000F0D8
:10149000B9F80246094B03F1240415460FCD0FC4D9
:1014A0000FCD0FC42B682360034B01221A70044B2D
:1014B00018460837BD46B0BD9D0D0020A00D002088
:1014C00040BB010880B582B000AF78607B68002B1C
:1014D00001D100231FE07B68184600F0C7F80346DF
:1014E00083F00103DBB2002B04D0786800F017F81A
:1014F000002310E07B681833184600F0B7F8034665
:1015000083F00103DBB2002B04D0786800F007F809
:10151000002300E0012318460837BD4680BD80B592
:1015200082B000AF78607B68002B09D07B681846DA
:1015300000F0ACF87B681833184600F0A7F800E01C
:1015400000BF0837BD4680BD80B582B000AF78606F
:101550000B46FB707868FFF7B5FF00BF0837BD4644
:1015600080BD80B582B000AF78607868FFF7D7FFA4
:1015700000BF0837BD4680BD80B500AF00F0AAF8B7
:101580000346094AD36000F0A5F80346064A93646F
:10159000064B1B68002B03D1054B1B68034A1360E5
:1015A000024B184680BD00BF8C01002004020020C1
:1015B000B409002080B483B000AF7860034B1846B4
:1015C0000C37BD465DF8047B704700BF2004002047
:1015D00080B483B000AF7860084B1B7883F00103C0
:1015E000DBB2002B02D0054B01221A70044B1846C7
:1015F0000C37BD465DF8047B704700BFE80D002046
:1016000068BB010880B483B000AF7860034B184614
:101610000C37BD465DF8047B704700BF8CBB0108EA
:10162000B0B582B000AF78600D4B1B7883F001033A
:10163000DBB2002B0FD00020FFF7E4FF0346094A7E
:1016400014461D460FCD0FC40FCD0FC42B68236069
:10165000034B01221A70044B18460837BD46B0BD33
:10166000E90D0020EC0D0020B0BB010880B483B070
:1016700000AF78607B68002B01D1002300E00123DC
:1016800018460C37BD465DF8047B704780B483B0C4
:1016900000AF78607B68002B0C37BD465DF8047B9B
:1016A000704780B582B000AF78600B46FB707868F9
:1016B000FFF7DCFF00BF0837BD4680BD80B582B0B4
:1016C00000AF78607868FFF7E1FF00BF0837BD46DC
:1016D00080BD000080B400AF064B1B68002B03D117
:1016E000054B1B68034A1360024B1846BD465DF864
:1016F000047B7047F8040020B409002080B483B054
:1017000000AF7860034B18460C37BD465DF8047B8C
:10171000704700BF8406002080B483B000AF7860BB
:10172000084B1B7883F00103DBB2002B02D0054B82
:1017300001221A70044B18460C37BD465DF8047B35
:10174000704700BF100E0020D8BB010880B483B0E2
:1017500000AF7860034B18460C37BD465DF8047B3C
:10176000704700BFFCBB0108B0B582B000AF786025
:101770000D4B1B7883F00103DBB2002B0FD0002050
:10178000FFF7E4FF0346094A14461D460FCD0FC478
:101790000FCD0FC42B682360034B01221A70044B3A
:1017A00018460837BD46B0BD110E0020140E0020AB
:1017B00020BC010880B483B000AF78607B68002B48
:1017C00001D1002300E0012318460C37BD465DF827
:1017D000047B704780B483B000AF78607B68002BD7
:1017E0000C37BD465DF8047B704780B582B000AF12
:1017F00078600B46FB707868FFF7DCFF00BF0837A6
:10180000BD4680BD80B582B000AF78607868FFF7D4
:10181000E1FF00BF0837BD4680BD000080B400AFC7
:10182000064B1B68002B03D1054B1B68034A136052
:10183000024B1846BD465DF8047B7047E406002065
:10184000B409002080B483B000AF7860034B184621
:101850000C37BD465DF8047B704700BF6C08002064
:1018600080B483B000AF7860084B1B7883F001032D
:10187000DBB2002B02D0054B01221A70044B184634
:101880000C37BD465DF8047B704700BF380E002062
:1018900048BC010880B483B000AF7860034B1846A1
:1018A0000C37BD465DF8047B704700BF6CBC010877
:1018B000B0B582B000AF78600D4B1B7883F00103A8
:1018C000DBB2002B0FD00020FFF7E4FF0346094AEC
:1018D00014461D460FCD0FC40FCD0FC42B682360D7
:1018E000034B01221A70044B18460837BD46B0BDA1
:1018F000390E00203C0E002090BC010880B582B05B
:1019000000AF78607B68002B01D100230FE07B687B
:10191000184610F0D5FB034683F00103DBB2002B21
:1019200004D0786800F007F8002300E0012318468F
:101930000837BD4680BD80B582B000AF78607B6857
:10194000002B04D07B68184610F0D0FB00E000BFED
:101950000837BD4680BD80B582B000AF78600B46C9
:10196000FB707868FFF7CAFF00BF0837BD4680BD2F
:1019700080B582B000AF78607868FFF7DCFF00BF09
:101980000837BD4680BD000080B400AF064B1B6821
:10199000002B03D1054B1B68034A1360024B18460A
:1019A000BD465DF8047B7047CC080020B4090020D8
:1019B00080B582B000AF00237B60104B1B6B0F4AD9
:1019C00043F4001313630D4B1B6B03F400137B6094
:1019D0007B6800220521102002F09CFB102002F001
:1019E000B5FB00220521112002F094FB112002F02A
:1019F000ADFB00BF0837BD4680BD00BF00380240C8
:101A000080B400AFBFF34F8F00BF064BDB6803F419
:101A1000E0620449044B1343CB60BFF34F8F00BF18
:101A200000BFFDE700ED00E00400FA0580B582B0DC
:101A300000AF7860391D4FF6FF730122034805F0AF
:101A400055F97B6818460837BD4680BDD847002049
:101A500080B483B000AF78600DE000BF0B4B1B6813
:101A600003F04003002BF9D07B681A78074B5A60CB
:101A70007B6801337B607B681B78002BEDD100BF56
:101A800000BF0C37BD465DF8047B70470014014071
:101A900080B584B000AF78607B68FB60044B1B6846
:101AA0001946044817F09AFC00BF1037BD4680BDA8
:101AB000500F002010B8010880B584B000AF7860E6
:101AC0007B68FB600349044817F088FC00BF1037AF
:101AD000BD4680BDCC10002024B80108B0B588B048
:101AE00004AF78607B68FB60154B01221A60154BD0
:101AF000D3E90045134BD3E902231249D1E904018C
:101B0000CDE90201CDE9002322462B460E4817F00D
:101B100065FC0C4BD3E906450A4BD3E90823094978
:101B2000D1E90A01CDE90201CDE9002322462B4685
:101B3000064817F053FC00BF1037BD46B0BD00BFCC
:101B4000F8110020C811002038B8010870B8010849
:101B500080B500AF0C4A00210C4806F095FC034606
:101B60000B4A13600B4A00210B4806F08DFC03461C
:101B70000A4A13600A4A00210A4806F085FC034617
:101B8000094A136000BF80BDB8BC0108B11B000842
:101B900014120020DCBC0108391D0008544100204B
:101BA00000BD0108691D0008B443002000000000CA
:101BB0002DE9F04F9FB010AFF86200F0C3F900F0CC
:101BC00029FA00F091FA00F0AFFA00F019FB484B47
:101BD00001221A60474B1E68474B1B681846FEF7E8
:101BE000C3FCC7E90801454B1B681846FEF7BCFC5F
:101BF000C7E90601424B1B681846FEF7B5FCC7E96A
:101C00000401404B1B681846FEF7AEFCC7E9020111
:101C10003D4B1B681846FEF7A7FCC7E900013B4B8C
:101C20001B681846FEF7A0FC82468B46384B1B68A3
:101C30001846FEF799FC80468946364B1B681846C5
:101C4000FEF792FC04460D46334B1B681846FEF720
:101C50008BFC02460B46CDE90E23CDE90C45CDE9C0
:101C60000A89CDE908AB97ED007B8DED067B97EDFA
:101C7000027B8DED047B97ED047B8DED027B97ED70
:101C8000067B8DED007BD7E908232449304617F009
:101C900049FC184B1B681846FEF7FAFA0346154A2A
:101CA0005360002213491E480CF084FA78637B6B62
:101CB000002B05D07A6B40F22F111A4817F08EFBDB
:101CC000194A4FF0000319480BF076FA164A4FF004
:101CD000000317480BF070FA03A3D3E9002315485B
:101CE0000BF06AFA76E700BF80F0FA02000000000D
:101CF000600E0020580F00206C0C0020700C00209B
:101D0000740C0020780C00207C0C0020800C00203B
:101D1000600C0020640C0020680C0020A8B80108AA
:101D2000540F0020DCB8010880969800C00E0020F7
:101D3000301000203811002080B582B000AF7860EC
:101D4000FFF7A6F9074B1B78002B07D00548FFF7D4
:101D50007FFE64220021034817F03EFD0A2006F0B2
:101D600025FCEDE7CC10002080B582B000AF786094
:101D7000634B1B68012B49D1624BD3E90A23104600
:101D80001946FEF721FF03465F4A13605D4BD3E916
:101D9000002310461946FEF717FF03465B4A1360FF
:101DA0005A4B93ED007A584BD3ED007AF6EE006A69
:101DB00067EEA66A564BD3ED007A66EEA77A37EE49
:101DC000677A544BD3ED007A67EE277A524BC3ED16
:101DD000007A4D4BD3ED007AB6EE007A27EE877A83
:101DE0004B4BD3ED007A27EE277A484BD3ED007AA0
:101DF00037EE277A474BD3ED007A67EE277A474BC9
:101E0000C3ED007A3E4B00221A6007E0434B4FF0CF
:101E100000021A60414B1B683F4A13603E4BD3EDF2
:101E2000007A3F4B93ED027AF0EE470AB0EE670A74
:101E30003C4800F041FAF0EE407A3B4BC3ED007AAB
:101E4000364BD3ED007A394B93ED027AF0EE470A28
:101E5000B0EE670A334800F02FFAF0EE407A344BC8
:101E6000C3ED007A304BD3ED007A9FED327AF4EE79
:101E7000C77AF1EE10FA01DD2F4B0DE02A4BD3EDBE
:101E8000007A9FED2E7AF4EEC77AF1EE10FA01D5C2
:101E90002B4B01E0244B1B68234A1360244BD3EDEA
:101EA000007A9FED247AF4EEC77AF1EE10FA01DDA4
:101EB000214B0DE01E4BD3ED007A9FED207AF4EE1E
:101EC000C77AF1EE10FA01D51D4B01E0184B1B68E3
:101ED000174A1360104BD3ED007AFDEEE77A17EE48
:101EE000900AFFF7EFF90D4BD3ED007AFDEEE77A9C
:101EF00017EE900AFFF720FA782006F057FB37E735
:101F0000F8110020C811002000120020FC11002050
:101F1000E8080020E4080020041200200812002035
:101F2000840D0020EC0800200C120020900D0020F1
:101F3000101200200000C8420000C8420000C8C2C1
:101F40000000C8C2B0B58EB002AF224817F0AEFA9A
:101F5000214B0193214B0093214B224A224901201E
:101F60000EF0F0F807F11C0318460DF0C5FC1F4BEE
:101F7000FB611F4B3B621F4B7B621F4BBB6207F138
:101F80001C0318460DF0C6FC034683F00103DBB2C8
:101F9000002B04D04FF4C771184817F01FFA184CE3
:101FA0003B4618460DF0D4FC25463C460FCC0FC5E9
:101FB00023682B60124B0022002112480BF034F9E9
:101FC000104B114A114912480BF044FA00BF303748
:101FD000BD46B0BD08B90108253E0008BD3D00085A
:101FE0009D3D0008713D000820480020A93A0008E6
:101FF000ED3A0008253B0008913B00081CB9010898
:10200000980E0020640E002044B9010848B9010868
:10201000AC0E002080B586B002AF10F0DDF80246AD
:10202000244B254925480BF0D5FA254B00221A6090
:10203000244BFB6010F0D0F80246FB681E49224892
:102040000BF0FCFAB860BB68002B07D0BA6840F20E
:10205000A9111E4817F0C2F9FFF7D2FC1C4B012250
:102060001C491D480AF018FE78607B68002B08D0D8
:102070007A6840F2AF11194817F0B0F9002007F064
:1020800039FA00230093164B164A0F4912480AF0FA
:1020900073FE38603B68002B08D03A684FF4D87163
:1020A0000E4817F09BF9002007F024FA00BF103704
:1020B000BD4680BD54B90108AC0E0020B40E00200E
:1020C000B80E002068B90108BC0E002074B90108E0
:1020D000980E0020640E0020C00E0020A4B9010854
:1020E000911A0008500F002080B500AF094B0A4A32
:1020F0001A60084B00225A60064BC8229A6010F002
:1021000083F80246054B064906480BF063FA00BF08
:1021100080BD00BF580F0020640F0020D0B9010817
:10212000AC0E0020540F002080B586B002AF284BC3
:10213000284A1A60264B00225A60254B64229A6076
:10214000254BFB6010F060F80246FB6823492448E9
:102150000BF074FAB860BB68002B09D0BA6840F283
:10216000CB11204817F03AF9C82006F01FFAFBE718
:102170001D4B01221D491E480AF08EFD78607B68C8
:10218000002B08D07A684FF4E8711A4817F026F946
:10219000002007F0AFF900230093174B0C4A1049B9
:1021A00013480AF0E9FD38603B68002B08D03A6814
:1021B00040F2D1110F4817F011F9002007F09AF9F9
:1021C0000E48FFF745FC00BF1037BD4680BD00BF7D
:1021D000C0100020CC100020E0B90108AC0E002097
:1021E0002C100020ECB90108980E0020640E00208D
:1021F00030100020A4B90108B91A000818BA010863
:1022000080B586B002AF224BFB6008F00DFF02469E
:10221000FB68204920480BF011FAB860BB68002B1E
:1022200009D0BA6840F2DD111C4817F0D7F8C82071
:1022300006F0BCF9FBE71A4B01221A491A480AF0CA
:102240002BFD78607B68002B08D07A684FF4F17121
:10225000164817F0C3F8002007F04CF9002300934C
:10226000134B144A0C4910480AF086FD38603B684D
:10227000002B08D03A6840F2E3110C4817F0AEF892
:10228000002007F037F900BF1037BD4680BD00BF02
:1022900068BA0108AC0E002030110020ECB901082A
:1022A000980E0020640E002038110020A4B9010807
:1022B000DD1A0008C811002080B489B000AFF860B2
:1022C00087ED020AC7ED010A97ED027AD7ED017A90
:1022D00077EE677AC7ED077AFB6893ED037AD7ED5F
:1022E000077A77EE277AFB68C3ED037AFB68D3EDB4
:1022F000047A97ED077A77EE677AC7ED067AFB687E
:10230000FA691A61FB6893ED007AD7ED077A27EE38
:10231000277AFB68D3ED016AFB68D3ED037A66EE9A
:10232000A77A37EE277AFB68D3ED026AD7ED067AF3
:1023300066EEA77A77EE277AC7ED057A7B6907EE16
:10234000903AB0EE670A2437BD465DF8047B7047CB
:1023500080B58CB000AF07F11C0300221A605A60F0
:102360009A60DA601A610023BB613E4B1B6B3D4AE9
:1023700043F0800313633B4B1B6B03F08003BB6193
:10238000BB6900237B61374B1B6B364A43F0040368
:102390001363344B1B6B03F004037B617B690023E5
:1023A0003B61304B1B6B2F4A43F0010313632D4BF2
:1023B0001B6B03F001033B613B690023FB60294B6E
:1023C0001B6B284A43F010031363264B1B6B03F06F
:1023D0001003FB60FB680023BB60224B1B6B214A90
:1023E00043F0020313631F4B1B6B03F00203BB603C
:1023F000BB6800237B601B4B1B6B1A4A43F008032E
:102400001363184B1B6B03F008037B607B6800228F
:102410000321154802F046FC00220321134802F074
:1024200041FC0323FB6101233B6200237B62002309
:10243000BB6207F11C0319460B4802F097FA03230D
:10244000FB6101233B6200237B620023BB6207F137
:102450001C031946054802F089FA00BF3037BD4613
:1024600080BD00BF0038024000080240001002405A
:1024700080B500AF124B134A1A60114B124A5A60D2
:102480000F4B00229A600E4B0022DA600C4B4FF487
:1024900080421A610A4B00225A61094B00229A615C
:1024A000074B0022DA61064B00221A62044802F050
:1024B00013FC0346002B01D000F0C8F900BF80BD1B
:1024C0001446002000540040A086010080B58AB068
:1024D00000AF786007F1140300221A605A609A6016
:1024E000DA601A617B681B68194A93422BD100237A
:1024F0003B61184B1B6B174A43F002031363154BE8
:102500001B6B03F002033B613B69C0237B61122319
:10251000BB610023FB6103233B6204237B6207F161
:10252000140319460C4802F021FA0023FB60094B02
:102530001B6C084A43F400131364064B1B6C03F432
:102540000013FB60FB6800BF2837BD4680BD00BF9D
:1025500000540040003802400004024080B500AF43
:1025600001F0DEFC00F034F8FFF7F2FEFFF720FA8E
:1025700000F030FE00F004FE00F05AFBFFF778FF99
:1025800000F052FE00F032FC00F084FC00F0E0FBB2
:1025900000F074FE01220B490B4804F032FC0021CC
:1025A0000A4803F0B7FA0421084803F0B3FAFEF72B
:1025B00059FE05F01FFFFFF7CBFA05F03FFF00BF04
:1025C000FDE700BF440C002068480020B84600200A
:1025D00080B594B000AF07F12003302200211846E7
:1025E00017F0FAF807F10C0300221A605A609A609B
:1025F000DA601A610023BB60284B1B6C274A43F04A
:1026000080531364254B1B6C03F08053BB60BB6885
:1026100000237B60224B1B68214A43F480431360F4
:102620001F4B1B6803F480437B607B6801233B6284
:102630004FF480337B620223BB634FF48003FB6360
:1026400008233B644FF4A8737B640223BB64042318
:10265000FB6407F12003184602F082FC0346002BBE
:1026600001D000F0F3F80F23FB6002233B6100234D
:102670007B614FF4A053BB614FF48053FB6107F1C2
:102680000C030521184602F0E3FE0346002B01D09F
:1026900000F0DCF800BF5037BD4680BD0038024076
:1026A000007000400000000080B582B000AF78608C
:1026B0007B681B685C4A934201D101F053FC7B6844
:1026C0001A685A4B1B689A4240F0A680584B1B6808
:1026D0001B6803F01003102B0CBF01230023DBB297
:1026E0001A46544B5A60544B1B681B6803F0100386
:1026F000102B0CBF01230023DBB21A464F4B5A604C
:102700004B4B1B685B6A4B4A13604B4B1B685B6A05
:102710004A4A1360474B5B68002B06D0454B1B6849
:10272000C3F57F43FF33434A1360444B5B68002B80
:1027300006D0424B1B68C3F57F43FF333F4A13600B
:102740003C4B1A6813461B019B1A9B001846FDF769
:10275000E9FE33A3D3E90023FEF788F802460B46CF
:10276000104619464FF00002354BFEF77FF802463F
:102770000B46104619464FF00002324BFEF776F832
:1027800002460B46104619464FF000022E4BFEF74C
:102790006DF802460B4610461946FEF715FA034639
:1027A000244A9360254B1A6813461B019B1A9B0011
:1027B0001846FDF7B7FE1AA3D3E90023FEF756F833
:1027C00002460B46104619464FF000021C4BFEF71E
:1027D0004DF802460B46104619464FF00002194BC1
:1027E000FEF744F802460B46104619464FF0000229
:1027F000154BFEF73BF802460B4610461946FEF70E
:10280000E3F903460D4A9360094B1B6800225A62A4
:10281000094B1B6800225A6200BF0837BD4680BDC5
:102820007B14AE47E17A843F00200040004700203F
:1028300048470020840D002090470020900D002084
:102840000000104000A0944000003E4080B400AF63
:1028500072B600BF00BFFDE780B582B000AF0023B5
:102860007B60124B5B6C114A43F4804353640F4B03
:102870005B6C03F480437B607B6800233B600B4B05
:102880001B6C0A4A43F080531364084B1B6C03F023
:1028900080533B603B6800220F216FF0010001F084
:1028A00039FC00BF0837BD4680BD00BF003802407C
:1028B00080B58EB000AF78600023FB620023BB625E
:1028C0000023FB60334B1B6C324A43F48073136468
:1028D000304B1B6C03F48073FB60FB6807F1100244
:1028E00007F114031146184602F0D2FF3B6AFB625F
:1028F000FB6A002B03D102F0A3FF786304E002F02F
:102900009FFF03465B007B637B6B234AA2FB032391
:102910009B0C013BBB62214B214A1A601F4B40F2CA
:10292000E732DA601D4ABB6A53601C4B00221A6111
:102930001A4B00229A60194B00229A61174802F044
:10294000D9FF034687F8333097F83330002B1BD17B
:10295000124803F01FF8034687F8333097F83330F6
:10296000002B11D12D2001F0F1FB7B680F2B08D833
:10297000002279682D2001F0CDFB0A4A7B681360A4
:1029800002E0012387F8333097F8333018463837A0
:10299000BD4680BD0038024083DE1B4368460020F0
:1029A000002000400809002080B400AF00BFFDE710
:1029B00080B400AF00BFFDE780B400AF00BFFDE70B
:1029C00080B400AF00BFFDE780B400AF00BFFDE7FB
:1029D00080B400AF00BFBD465DF8047B70470000C7
:1029E00080B500AF024801F057FD00BF80BD00BFB9
:1029F000F848002080B500AF024801F04DFD00BF4F
:102A000080BD00BF5849002080B500AF024803F0E8
:102A10007DFA00BF80BD00BF0047002080B500AF39
:102A2000024804F027FB00BF80BD00BFD84700204C
:102A300080B500AF024804F01DFB00BF80BD00BFA1
:102A40002048002080B500AF024804F013FB00BF0F
:102A500080BD00BF6848002080B500AF024803F089
:102A600055FA00BF80BD00BF6846002080B500AFAA
:102A7000024804F0FFFA00BF80BD00BFB04800204C
:102A800080B400AF01231846BD465DF8047B704753
:102A900080B582B000AF7860396016F047FF03461A
:102AA00016221A604FF0FF3318460837BD4680BD26
:102AB00080B582B000AF78604FF0FF317868FFF7E3
:102AC000E7FF00BFFDE780B586B000AFF860B960F2
:102AD0007A6000237B610AE0AFF300800146BB68A7
:102AE0005A1CBA60CAB21A707B6901337B617A6979
:102AF0007B689A42F0DB7B6818461837BD4680BD7C
:102B000080B586B000AFF860B9607A6000237B6161
:102B100009E0BB685A1CBA601B781846FEF786FFAE
:102B20007B6901337B617A697B689A42F1DB7B6860
:102B300018461837BD4680BD80B483B000AF7860BA
:102B40004FF0FF3318460C37BD465DF8047B7047E5
:102B500080B483B000AF786039603B684FF40052B6
:102B60005A60002318460C37BD465DF8047B704759
:102B700080B483B000AF7860012318460C37BD469F
:102B80005DF8047B704780B485B000AFF860B96031
:102B90007A60002318461437BD465DF8047B704701
:102BA00080B586B000AF7860144A154BD31A7B61AC
:102BB0007B693B61134B1B68002B02D1114B124AFE
:102BC0001A60104B1A687B6813443A699A4207D21C
:102BD00016F0ACFE03460C221A604FF0FF3309E0FA
:102BE000084B1B68FB60074B1A687B681344054A57
:102BF0001360FB6818461837BD4680BD00000220F0
:102C000000040000B44600205848012080B400AF02
:102C1000064BD3F88830054A43F47003C2F8883075
:102C200000BFBD465DF8047B704700BF00ED00E0CB
:102C300080B592B000AF07F1400300221A605A60DD
:102C400007F1240300221A605A609A60DA601A6160
:102C50005A619A613B1D20220021184616F0BCFDE6
:102C6000394B3A4A1A60384B44F29F125A60364B3D
:102C700000229A60344B6322DA60334B00221A61DF
:102C8000314B00225A61304B00229A612E4802F0EB
:102C9000F1FE0346002B01D0FFF7D8FD00233B6473
:102CA00000237B6407F140031946274803F0ECFE3C
:102CB0000346002B01D0FFF7C9FD60237B62002390
:102CC000BB620023FB6200233B6300237B63002382
:102CD000BB630023FB6307F12403002219461A4853
:102CE00003F004FA0346002B01D0FFF7AFFD07F114
:102CF000240304221946144803F0F8F90346002B74
:102D000001D0FFF7A3FD00237B600023BB600023FD
:102D1000FB6000233B6100237B614FF40053BB61E8
:102D200000233B623B1D1946074803F029FF034679
:102D3000002B01D0FFF78AFD034800F0C5F900BF62
:102D40004837BD4680BD00BFB846002000000140A6
:102D500080B586B000AF07F1080300221A605A6000
:102D60009A60DA603B4600221A605A601E4B4FF0B0
:102D700080421A601C4B40F28F625A601A4B00224C
:102D80009A60194B4FF47A72DA60174B00221A617D
:102D9000154B00229A61144802F0ACFD0346002B4B
:102DA00001D0FFF753FD4FF48053BB6007F10803D8
:102DB00019460D4803F05CFA0346002B01D0FFF7DB
:102DC00045FD00233B6000237B603B4619460648D7
:102DD00003F05AFE0346002B01D0FFF737FD00BF7A
:102DE0001837BD4680BD00BF0047002080B58CB0BD
:102DF00000AF07F10C0324220021184616F0ECFC6A
:102E00003B1D00221A605A60204B214A1A601F4B5A
:102E100000225A601D4B00229A601C4B4FF6FF7235
:102E2000DA601A4B00221A61184B00229A610323C0
:102E3000FB6000233B6101237B610023BB61002316
:102E4000FB6100233B6201237B620023BB62002302
:102E5000FB6207F10C0319460C4802F023FF0346FE
:102E6000002B01D0FFF7F2FC00237B600023BB6046
:102E70003B1D1946054803F007FE0346002B01D011
:102E8000FFF7E4FC00BF3037BD4680BD4847002057
:102E90000004004080B58CB000AF07F10C03242281
:102EA0000021184616F098FC3B1D00221A605A605B
:102EB000204B214A1A601F4B00225A601D4B0022F2
:102EC0009A601C4B4FF6FF72DA601A4B00221A61AF
:102ED000184B00229A610323FB6000233B6101230E
:102EE0007B610023BB610023FB6100233B62012364
:102EF0007B620023BB620023FB6207F10C031946CF
:102F00000C4802F0CFFE0346002B01D0FFF79EFCD9
:102F100000237B600023BB603B1D1946054803F07E
:102F2000B3FD0346002B01D0FFF790FC00BF303704
:102F3000BD4680BD904700200008004080B485B0A9
:102F400000AF78607B681B680B4A93420DD1002369
:102F5000FB600A4B5B6C094A43F001035364074B67
:102F60005B6C03F00103FB60FB6800BF1437BD46D8
:102F70005DF8047B704700BF00000140003802404C
:102F800080B584B000AF78607B681B68B3F1804F78
:102F900015D10023FB600C4B1B6C0B4A43F0010363
:102FA0001364094B1B6C03F00103FB60FB680022F8
:102FB00005211C2001F0AEF81C2001F0C7F800BF6D
:102FC0001037BD4680BD00BF0038024080B58CB0D0
:102FD00000AF786007F11C0300221A605A609A6003
:102FE000DA601A617B681B68324A93422CD1002355
:102FF000BB61314B1B6C304A43F0020313642E4B10
:103000001B6C03F00203BB61BB6900237B612A4B8D
:103010001B6B294A43F001031363274B1B6B03F01F
:1030200001037B617B69C023FB6102233B620023B8
:103030007B620023BB620223FB6207F11C0319467B
:103040001E4801F093FC31E07B681B681C4A9342E8
:103050002CD100233B61184B1B6C174A43F004032F
:103060001364154B1B6C03F004033B613B690023A5
:10307000FB60114B1B6B104A43F0080313630E4BAC
:103080001B6B03F00803FB60FB684FF44053FB61CC
:1030900002233B6200237B620023BB620223FB62AC
:1030A00007F11C031946074801F060FC00BF3037E8
:1030B000BD4680BD000400400038024000000240D0
:1030C00000080040000C024080B58AB000AF786074
:1030D00007F1140300221A605A609A60DA601A61DC
:1030E0007B681B68224A93423DD100233B61214B00
:1030F0001B6B204A43F0100313631E4B1B6B03F042
:1031000010033B613B690023FB601A4B1B6B194AA0
:1031100043F001031363174B1B6B03F00103FB60C8
:10312000FB684FF400637B610223BB610023FB61FA
:1031300000233B6201237B6207F1140319460E480A
:1031400001F014FC4FF480737B610223BB61002308
:10315000FB6100233B6201237B6207F114031946E4
:10316000064801F003FC00BF2837BD4680BD00BF04
:103170000000014000380240001002400000024000
:1031800080B500AF114B124A1A60104B4FF4E13278
:103190005A600E4B00229A600C4B0022DA600B4BF7
:1031A00000221A61094B0C225A61084B00229A61D5
:1031B000064B0022DA61054803F048FD0346002B68
:1031C00001D0FFF743FB00BF80BD00BFD847002000
:1031D0000010014080B500AF114B124A1A60104B2D
:1031E0004FF461225A600E4B00229A600C4B002271
:1031F000DA600B4B00221A61094B0C225A61084B12
:1032000000229A61064B0022DA61054803F01EFD98
:103210000346002B01D0FFF719FB00BF80BD00BFA4
:10322000204800200044004080B500AF114B124AF6
:103230001A60104B4FF416525A600E4B00229A60DF
:103240000C4B0022DA600B4B00221A61094B0C2256
:103250005A61084B00229A61064B0022DA61054848
:1032600003F0F4FC0346002B01D0FFF7EFFA00BF98
:1032700080BD00BF684800200048004080B500AF16
:10328000114B124A1A60104B4FF4E1325A600E4B48
:1032900000229A600C4B0022DA600B4B00221A616C
:1032A000094B0C225A61084B00229A61064B0022FE
:1032B000DA61054803F0CAFC0346002B01D0FFF792
:1032C000C5FA00BF80BD00BFB04800200014014017
:1032D00080B590B000AF786007F12C0300221A602F
:1032E0005A609A60DA601A617B681B68A54A93424B
:1032F00035D10023BB62A44B5B6CA34A43F010039F
:103300005364A14B5B6C03F01003BB62BB6A0023E8
:103310007B629D4B1B6B9C4A43F0010313639A4BEA
:103320001B6B03F001037B627B6A4FF4C063FB629B
:1033300002233B6300237B630323BB630723FB63FD
:1033400007F12C031946914801F010FB00220521DA
:10335000252000F0DFFE252000F0F8FE0DE17B685F
:103360001B688B4A934240F0948000233B62864B5B
:103370001B6C854A43F400331364834B1B6C03F4CA
:1033800000333B623B6A0023FB617F4B1B6B7E4A31
:1033900043F0010313637C4B1B6B03F00103FB61E0
:1033A000FB690C23FB6202233B6300237B63032343
:1033B000BB630723FB6307F12C031946734801F035
:1033C000D5FA744B744A1A60724B4FF000625A601F
:1033D000704B00229A606F4B0022DA606D4B4FF405
:1033E00080621A616B4B00225A616A4B00229A611B
:1033F000684B4FF48072DA61664B4FF440321A62C8
:10340000644B00225A62634800F0AEFE0346002B74
:1034100001D0FFF71BFA7B685E4ADA635D4A7B687E
:1034200093635E4B5E4A1A605C4B4FF000625A60D9
:103430005A4B40229A60594B0022DA60574B4FF4A6
:1034400080621A61554B00225A61544B00229A61E6
:10345000524B0022DA61514B4FF440321A624F4B0B
:1034600000225A624D4800F07FFE0346002B01D037
:10347000FFF7ECF97B68494A9A63484A7B68936393
:1034800000220521262000F045FE262000F05EFEE9
:1034900073E07B681B68434A934235D10023BB61CC
:1034A000394B1B6C384A43F480231364364B1B6C36
:1034B00003F48023BB61BB6900237B61324B1B6B30
:1034C000314A43F0020313632F4B1B6B03F00203DB
:1034D0007B617B694FF44063FB6202233B63002303
:1034E0007B630323BB630723FB6307F12C031946AC
:1034F0002D4801F03BFA00220521272000F00AFEAA
:10350000272000F023FE38E07B681B68274A93429F
:1035100033D100233B611C4B5B6C1B4A43F02003FF
:103520005364194B5B6C03F020033B613B69002340
:10353000FB60154B1B6B144A43F004031363124BDF
:103540001B6B03F00403FB60FB68C023FB620223D8
:103550003B6300237B630323BB630823FB6307F107
:103560002C031946124801F001FA002205214720D8
:1035700000F0D0FD472000F0E9FD00BF4037BD4618
:1035800080BD00BF00100140003802400000024032
:1035900000440040F848002088600240584900205C
:1035A000A0600240004800400004024000140140B6
:1035B00000080240DFF834D0FFF728FB0C480D4923
:1035C0000D4A002302E0D458C4500433C4188C427E
:1035D000F9D30A4A0A4C002301E013600432A242E4
:1035E000FBD316F0A9F9FEF7B9FF704700000220DF
:1035F00000000020280C002080D00108280C0020AA
:1036000054480120FEE7000080B58AB000AF786022
:103610000023FB6106F080F85A4B1B68002B01D198
:1036200000F086F9584B1A687B681340002B40F075
:1036300090807B68002B1ED008227B6813447B603F
:103640007B6803F00703002B15D07B6823F007038A
:1036500008337B607B6803F00703002B0BD04FF02F
:10366000500383F31188BFF36F8FBFF34F8F7B61DC
:1036700000BF00BFFDE77B68002B6AD0434B1B688F
:103680007A689A4265D8424B3B62414B1B687B6229
:1036900004E07B6A3B627B6A1B687B627B6A5B68D7
:1036A0007A689A4203D97B6A1B68002BF1D1354BAB
:1036B0001B687A6A9A424CD03B6A1B680822134402
:1036C000FB617B6A1A683B6A1A607B6A5A687B688E
:1036D000D21A08235B009A4220D97A6A7B68134485
:1036E000BB61BB6903F00703002B0BD04FF0500305
:1036F00083F31188BFF36F8FBFF34F8F3B6100BF20
:1037000000BFFDE77B6A5A687B68D21ABB695A60C2
:103710007B6A7A685A60B86900F06CF91B4B1A68CA
:103720007B6A5B68D31A194A1360184B1A68194BE5
:103730001B689A4203D2154B1B68164A13607B6ABA
:103740005A68114B1B681A437B6A5A607B6A0022D5
:103750001A6005F0EFFFFB6903F00703002B0BD0A5
:103760004FF0500383F31188BFF36F8FBFF34F8F78
:10377000FB6000BF00BFFDE7FB6918462837BD4668
:1037800080BD00BFE0970020EC970020E497002068
:10379000D8970020E897002080B586B000AF786009
:1037A0007B687B617B68002B4AD008235B427A6987
:1037B00013447B617B693B613B695A68224B1B6800
:1037C0001340002B0BD14FF0500383F31188BFF34C
:1037D0006F8FBFF34F8FFB6000BF00BFFDE73B69FA
:1037E0001B68002B0BD04FF0500383F31188BFF3FD
:1037F0006F8FBFF34F8FBB6000BF00BFFDE73B691A
:103800005A68114B1B681340002B19D03B691B6889
:10381000002B15D13B695A680B4B1B68DB431A40E0
:103820003B695A6005F078FF3B695A68074B1B6893
:103830001344064A1360386900F0DCF805F07AFF9B
:1038400000BF1837BD4680BDEC970020E4970020EC
:1038500080B487B000AF78607B687B6108235B42EF
:103860007A6913447B617B693B613B695A68064B0B
:103870001B68DB431340FB60FB6818461C37BD46E2
:103880005DF8047B704700BFEC97002080B584B0E2
:1038900000AF7860396005F03FFF3868FFF7B4FE8D
:1038A000B860BB68002B17D07B68002B14D07868F9
:1038B000FFF7CEFF034608229B1AFB603A68FB68BD
:1038C0009A4201D23B68FB60FA687968B86816F0E2
:1038D00062F87868FFF760FF05F02CFFBB681846B8
:1038E0001037BD4680BD80B586B000AF78603960C6
:1038F00005F012FF3B687A6802FB03F37B6178698D
:10390000FFF782FEF860FB683B6104E03B695A1CEC
:103910003A6100221A707B695A1E7A61002BF5D138
:1039200005F008FFFB6818461837BD4680BD00004B
:1039300080B485B000AF44F62063BB60274BFB60CA
:10394000FB6803F00703002B0CD0FB680733FB6018
:10395000FB6823F00703FB60BA68FB68D31A1F4AB1
:103960001344BB60FB687B601D4A7B6813601C4B83
:1039700000225A607B68BA681344FB600822FB6827
:103980009B1AFB60FB6823F00703FB60FB68154A8A
:103990001360144B1B6800225A60124B1B680022F4
:1039A0001A607B683B603B68FA68D21A3B685A60D1
:1039B0000C4B1A683B681A603B685B680A4A1360E4
:1039C0003B685B68094A1360094B4FF000421A607C
:1039D00000BF1437BD465DF8047B7047B84900202E
:1039E000D8970020E0970020E8970020E497002077
:1039F000EC97002080B485B000AF7860284BFB6066
:103A000002E0FB681B68FB60FB681B687A689A42EF
:103A1000F7D8FB68BB60FB685B68BA6813447A68D8
:103A20009A4208D1FB685A687B685B681A44FB6855
:103A30005A60FB687B607B68BB607B685B68BA68C8
:103A40001A44FB681B689A4218D1FB681A68154B28
:103A50001B689A420DD07B685A68FB681B685B68DC
:103A60001A447B685A60FB681B681A687B681A6096
:103A700008E00C4B1A687B681A6003E0FB681A6860
:103A80007B681A60FA687B689A4202D0FB687A68A1
:103A90001A6000BF1437BD465DF8047B704700BF55
:103AA000D8970020E097002080B582B000AF786002
:103AB00039600C4B1B681A467B6813441A46094B45
:103AC0001A60094B1B681A467B6813441A46064B5A
:103AD0001A607868FFF798FD034618460837BD4618
:103AE00080BD00BFF0970020F497002080B582B021
:103AF00000AF786039607B68002B0CD07868FFF7E6
:103B0000A7FE0346064A1268D31A1A46044B1A60E7
:103B10007868FFF741FE00BF0837BD4680BD00BF93
:103B2000F497002080B584B000AFF860B9607A6087
:103B3000154B1B681A46BB6813441A46124B1A6091
:103B4000124B1B681A46BB6813441A460F4B1A6087
:103B5000FB68002B04D1B868FFF756FD03460EE062
:103B6000F868FFF775FE0346084A1268D31A1A462A
:103B7000064B1A60B968F868FFF788FE03461846D6
:103B80001037BD4680BD00BFF0970020F49700209D
:103B900080B584B000AFF860B9607A60FB68BA683D
:103BA00002FB03F30C4A126813441A460A4B1A60CC
:103BB000FB68BA6802FB03F3084A126813441A460A
:103BC000064B1A60B968F868FFF78DFE0346184681
:103BD0001037BD4680BD00BFF0970020F49700204D
:103BE0002DE9B04386B000AFC7E902017A60002337
:103BF0007B61D7E9020120A3D3E90023FDF734F864
:103C000002460B467968C1E90023D7E902011AA3ED
:103C1000D3E90023FDF728F87B689A607B689B68EE
:103C2000002B20DA7B689B68114A82FB0312121773
:103C3000DB17D31A01337B617B68D3E900237969F1
:103C4000C8170C460546B2EB040863EB05097B6810
:103C5000C3E900897B689A687B69064901FB03F325
:103C60001A447B689A6000BF1837BD46BDE8B08330
:103C7000A12FB84400CA9A3B00CA9A3B000000003A
:103C80002DE9B04F8EB000AF7862396207F128029B
:103C90000023136053604FF000024FF00003C7E9A8
:103CA0000C2307F12803184605F0C0FFBB6ADA179A
:103CB000BB61FA614FF000024FF00003B9690B00DD
:103CC0000022C7E90C23FB6A00221C461546D7E9EF
:103CD0000C231119B9606B41FB60D7E90234C7E9C5
:103CE0000C34D7E90C0102460B464FF000044FF0AC
:103CF00000055D0145EAD265540122462B46B2EB30
:103D0000000863EB01094FF000024FF000034FEA97
:103D1000492343EAD8534FEA48229046994618EB84
:103D2000000A49EB010B4FF000024FF000034FEA8D
:103D30008B1343EA9A634FEA8A12B2EB0A043C609F
:103D400063EB0B037B60D7E9004523461B183B61FF
:103D50002B4641EB03037B613A6AD7E90401FFF785
:103D60003FFF002318463837BD46BDE8B08F00003E
:103D700080B584B000AF78607B68D3F88C32FB608C
:103D80004FF400620449F86803F0D0F801231846A4
:103D90001037BD4680BD00BFF897002080B584B0C5
:103DA00000AF78607B68D3F88C32FB60F86803F072
:103DB000E2F8012318461037BD4680BD80B586B0B5
:103DC00000AFF860B9607A603B60FB68D3F88C3272
:103DD0007B617B6993F84130DBB2202B1CD17B687F
:103DE0009BB21A46B968786903F030F80346FB7451
:103DF00002E0012004F0DAFBFB7C002B05D17B699B
:103E000093F84130DBB2202BF3D1FB7C002B01D1A6
:103E10007B6802E0002300E0002318461837BD4607
:103E200080BD000080B588B000AFF860B9607A60EE
:103E30003B60FB68D3F88C327B610023FB6172B678
:103E400000BF7B69DB6B1B685B68C3F500631C4AC2
:103E5000136062B600BFFB690133FB61012004F00F
:103E6000A5FB184B1A68164B1B689A4203D1FA69D6
:103E70003B689A42E3DB0023BB6111E0114B1A68F7
:103E8000B968BB690B4410498A5C1A700D4B1B68FA
:103E90000133C3F30A030B4A1360BB690133BB61EF
:103EA000084B1A68064B1B689A4203D0BA697B68B4
:103EB0009A42E3D3BB6918462037BD4680BD00BF98
:103EC000FC9F0020F89F0020F897002080B582B06A
:103ED00000AF78607B680E4A934206D14FF40062CF
:103EE0000C490B4803F022F80DE07B680A4A934224
:103EF00009D10A4B1B781846FDF77EF801220749C5
:103F0000054802F07EFF00BF0837BD4680BD00BFF8
:103F100020480020F897002068480020440C00202A
:103F200080B500AF0E4B1B680D4A43F4007313605D
:103F30000B4B1B680A4A43F480631360084B1B68F1
:103F4000074A43F480731360032000F0D8F80F2071
:103F5000FEF7AEFCFEF780FC0023184680BD00BFD4
:103F6000003C024080B400AF064B1B781A46064B5B
:103F70001B681344044A136000BFBD465DF8047B10
:103F8000704700BF0C09002000A0002080B400AFE3
:103F9000034B1B681846BD465DF8047B704700BFA5
:103FA00000A0002080B485B000AF78607B6803F08B
:103FB0000703FB600C4BDB68BB60BA684FF6FF037E
:103FC0001340BB60FB681A02BB68134343F0BF6336
:103FD00043F40033BB60044ABB68D36000BF1437AE
:103FE000BD465DF8047B704700ED00E080B400AF93
:103FF000044BDB681B0A03F007031846BD465DF857
:10400000047B704700ED00E080B483B000AF03464E
:10401000FB7197F90730002B0BDBFB7903F01F02D4
:10402000074997F907305B09012000FA02F241F8CD
:10403000232000BF0C37BD465DF8047B704700BFEE
:1040400000E100E080B483B000AF03463960FB714B
:1040500097F90730002B0ADB3B68DAB20C4997F975
:1040600007301201D2B20B4483F800230AE03B6808
:10407000DAB20849FB7903F00F03043B1201D2B214
:104080000B441A7600BF0C37BD465DF8047B7047C1
:1040900000E100E000ED00E080B489B000AFF8601E
:1040A000B9607A60FB6803F00703FB61FB69C3F149
:1040B0000703042B28BF0423BB61FB690433062BD1
:1040C00002D9FB69033B00E000237B614FF0FF3224
:1040D000BB6902FA03F3DA43BB681A407B699A4072
:1040E0004FF0FF317B6901FA03F3D9437B680B4042
:1040F000134318462437BD465DF8047B704780B5EE
:1041000082B000AF78607868FFF74CFF00BF0837D7
:10411000BD4680BD80B586B000AF0346B9607A6009
:10412000FB7300237B61FFF761FF78617A68B968F0
:104130007869FFF7B1FF024697F90F30114618462C
:10414000FFF780FF00BF1837BD4680BD80B582B045
:1041500000AF0346FB7197F907301846FFF754FF8D
:1041600000BF0837BD4680BD80B586B000AF78601F
:1041700000237B61FFF70AFF38617B68002B01D1C8
:10418000012399E07B68022283F835207B680022B6
:1041900083F834207B681B681A687B681B6822F0F0
:1041A00001021A600FE0FFF7F1FE02463B69D31AE5
:1041B000052B08D97B6820225A657B68032283F887
:1041C0003520032378E07B681B681B6803F001033C
:1041D000002BE8D17B681B681B687B617A69384BD0
:1041E00013407B617B685A687B689B681A437B68D5
:1041F000DB681A437B681B691A437B685B691A4357
:104200007B689B691A437B68DB691A437B681B6A7E
:1042100013437A6913437B617B685B6A042B07D184
:104220007B68DA6A7B681B6B13437A6913437B6193
:104230007B681B687A691A607B681B685B697B61B5
:104240007B6923F007037B617B685B6A7A691343B0
:104250007B617B685B6A042B17D17B689B6A7A69F8
:1042600013437B617B68DB6A002B0ED0786800F01B
:1042700001FB0346002B08D07B6840225A657B680F
:10428000012283F83520012316E07B681B687A69D8
:104290005A61786800F0B8FA0346FB607B68DB6D12
:1042A0003F229A40FB689A607B6800225A657B68CF
:1042B000012283F83520002318461837BD4680BDFB
:1042C0003F8010F080B586B000AFF860B9607A60CA
:1042D0003B600023FB75FB689B6D3B61FB6893F8BB
:1042E0003430012B01D1022340E0FB68012283F826
:1042F0003420FB6893F83530DBB2012B2FD1FB68FB
:10430000022283F83520FB6800225A653B687A68F0
:10431000B968F86800F04AFAFB68DB6D3F229A4002
:104320003B699A60FB681B681A68FB681B6842F06F
:1043300016021A60FB681B6C002B07D0FB681B6819
:104340001A68FB681B6842F008021A60FB681B6869
:104350001A68FB681B6842F001021A6005E0FB68FE
:10436000002283F834200223FB75FB7D18461837A2
:10437000BD4680BD80B584B000AF78607B689B6D22
:10438000FB60FFF703FEB8607B6893F83530DBB263
:10439000022B08D07B6880225A657B68002283F854
:1043A0003420012352E07B681B681A687B681B6815
:1043B00022F016021A607B681B685A697B681B68CA
:1043C00022F080025A617B681B6C002B03D17B6852
:1043D0009B6C002B07D07B681B681A687B681B6886
:1043E00022F008021A607B681B681A687B681B68E9
:1043F00022F001021A6013E0FFF7C8FD0246BB6815
:10440000D31A052B0CD97B6820225A657B680322BE
:1044100083F835207B68002283F83420032315E0DD
:104420007B681B681B6803F00103002BE4D17B68E9
:10443000DB6D3F229A40FB689A607B68012283F81B
:1044400035207B68002283F834200023184610377B
:10445000BD4680BD80B483B000AF78607B6893F8C0
:104460003530DBB2022B04D07B6880225A650123F1
:104470000CE07B68052283F835207B681B681A688E
:104480007B681B6822F001021A60002318460C3773
:10449000BD465DF8047B704780B586B000AF78609C
:1044A0000023BB608E4B1B688E4AA2FB03239B0A32
:1044B0007B617B689B6D3B613B691B68FB607B6834
:1044C000DB6D08229A40FB681340002B1AD07B68F2
:1044D0001B681B6803F00403002B13D07B681B6868
:1044E0001A687B681B6822F004021A607B68DB6D27
:1044F00008229A403B699A607B685B6D43F0010239
:104500007B685A657B68DB6D01229A40FB6813402B
:10451000002B12D07B681B685B6903F08003002BC3
:104520000BD07B68DB6D01229A403B699A607B6807
:104530005B6D43F002027B685A657B68DB6D042289
:104540009A40FB681340002B12D07B681B681B68E5
:1045500003F00203002B0BD07B68DB6D04229A4032
:104560003B699A607B685B6D43F004027B685A6527
:104570007B68DB6D10229A40FB681340002B43D010
:104580007B681B681B6803F00803002B3CD07B682A
:10459000DB6D10229A403B699A607B681B681B6840
:1045A00003F48023002B18D07B681B681B6803F47E
:1045B0000023002B08D17B681B6C002B24D07B6868
:1045C0001B6C786898471FE07B689B6C002B1BD0A6
:1045D0007B689B6C7868984716E07B681B681B6853
:1045E00003F48073002B07D17B681B681A687B6813
:1045F0001B6822F008021A607B681B6C002B03D03A
:104600007B681B6C786898477B68DB6D20229A403A
:10461000FB681340002B00F08F807B681B681B68D1
:1046200003F01003002B00F087807B68DB6D2022F5
:104630009A403B699A607B6893F83530DBB2052B72
:1046400036D17B681B681A687B681B6822F01602EB
:104650001A607B681B685A697B681B6822F08002BD
:104660005A617B681B6C002B03D17B689B6C002B11
:1046700007D07B681B681A687B681B6822F00802F9
:104680001A607B68DB6D3F229A403B699A607B68C9
:10469000012283F835207B68002283F834207B6870
:1046A0001B6D002B7ED07B681B6D7868984779E086
:1046B0007B681B681B6803F48023002B1DD07B687C
:1046C0001B681B6803F40023002B0DD17B685B6C17
:1046D000002B31D07B685B6C786898472CE000BF7A
:1046E00004090020B5814E1B7B68DB6B002B23D0B7
:1046F0007B68DB6B786898471EE07B681B681B68EB
:1047000003F48073002B0FD17B681B681A687B68E9
:104710001B6822F010021A607B68012283F83520A2
:104720007B68002283F834207B68DB6B002B03D08E
:104730007B68DB6B786898477B685B6D002B32D0B9
:104740007B685B6D03F00103002B22D07B680522A0
:1047500083F835207B681B681A687B681B6822F029
:1047600001021A60BB680133BB607A699A4207D3C1
:104770007B681B681B6803F00103002BF2D100E08B
:1047800000BF7B68012283F835207B68002283F814
:1047900034207B68DB6C002B05D07B68DB6C786891
:1047A000984700E000BF1837BD4680BD80B485B093
:1047B00000AFF860B9607A603B60FB681B681A68FC
:1047C000FB681B6822F480221A60FB681B683A6849
:1047D0005A60FB689B68402B08D1FB681B687A68AD
:1047E0009A60FB681B68BA68DA6007E0FB681B68C0
:1047F000BA689A60FB681B687A68DA6000BF143791
:10480000BD465DF8047B704780B485B000AF78602A
:104810007B681B68DBB2103B144AA2FB03231B0915
:10482000FB60134AFB6813441B781A467B68DA6501
:10483000FB68032B09D97B681B6823F47F7323F083
:1048400003031A1D7B689A6507E07B681B6823F4E5
:104850007F7323F003037A6893657B689B6D18462A
:104860001437BD465DF8047B704700BFABAAAAAA07
:104870003CBD010880B485B000AF78600023FB73B5
:104880007B689B6ABB607B689B69002B1FD1BB6800
:10489000032B56D801A252F823F000BFAD48000800
:1048A000BF480008AD480008434900087B68DB6A40
:1048B00003F08073002B46D00123FB7343E07B6839
:1048C000DB6AB3F1C07F40D10123FB733DE07B681D
:1048D0009B69B3F5005F21D1BB68032B37D801A2D8
:1048E00052F823F0F5480008FB480008F548000896
:1048F0000D4900080123FB7330E07B68DB6A03F09D
:104900008073002B25D00123FB7322E07B68DB6AD8
:10491000B3F1C07F1FD10123FB731CE0BB68022BE6
:1049200003D9BB68032B03D018E00123FB7315E008
:104930007B68DB6A03F08073002B0ED00123FB73CE
:104940000BE000BF0AE000BF08E000BF06E000BFC8
:1049500004E000BF02E000BF00E000BFFB7B1846A0
:104960001437BD465DF8047B704700BF80B489B042
:1049700000AF7860396000237B6100233B61002336
:10498000BB610023FB616BE10122FB6902FA03F3C7
:104990007B613B681B687A6913403B613A697B69BC
:1049A0009A4240F05A813B685B6803F00303012B95
:1049B00005D03B685B6803F00303022B30D17B68B2
:1049C0009B68BB61FB695B00032202FA03F3DB43D4
:1049D000BA691340BB613B68DA68FB695B0002FAA5
:1049E00003F3BA691343BB617B68BA699A607B6859
:1049F0005B68BB610122FB6902FA03F3DB43BA691E
:104A00001340BB613B685B681B0903F00102FB6953
:104A100002FA03F3BA691343BB617B68BA695A604F
:104A20003B685B6803F00303032B17D07B68DB68EC
:104A3000BB61FB695B00032202FA03F3DB43BA6943
:104A40001340BB613B689A68FB695B0002FA03F3A1
:104A5000BA691343BB617B68BA69DA603B685B681B
:104A600003F00303022B23D1FB69DA087B680832C9
:104A700053F82230BB61FB6903F007039B000F2250
:104A800002FA03F3DB43BA691340BB613B681A695E
:104A9000FB6903F007039B0002FA03F3BA691343AF
:104AA000BB61FB69DA087B680832B96943F82210F8
:104AB0007B681B68BB61FB695B00032202FA03F39E
:104AC000DB43BA691340BB613B685B6803F00302D8
:104AD000FB695B0002FA03F3BA691343BB617B68AD
:104AE000BA691A603B685B6803F44033002B00F03E
:104AF000B4800023FB60604B5B6C5F4A43F48043EF
:104B000053645D4B5B6C03F48043FB60FB685B4A62
:104B1000FB699B08023352F82330BB61FB6903F049
:104B200003039B000F2202FA03F3DB43BA6913402D
:104B3000BB617B68524A93422BD07B68514A9342B7
:104B400025D07B68504A93421FD07B684F4A9342DE
:104B500019D07B684E4A934213D07B684D4A9342EA
:104B60000DD07B684C4A934207D07B684B4A9342F6
:104B700001D107230EE008230CE006230AE00523F9
:104B800008E0042306E0032304E0022302E00123FB
:104B900000E00023FA6902F0030292009340BA6930
:104BA0001343BB613549FB699B080233BA6941F87D
:104BB00023203B4B9B68BB613B69DB43BA691340D5
:104BC000BB613B685B6803F48013002B03D0BA69B8
:104BD0003B691343BB61324ABB699360304BDB686E
:104BE000BB613B69DB43BA691340BB613B685B68EF
:104BF00003F40013002B03D0BA693B691343BB6174
:104C0000274ABB69D360264B5B68BB613B69DB43CA
:104C1000BA691340BB613B685B6803F40033002B47
:104C200003D0BA693B691343BB611D4ABB6953603A
:104C30001B4B1B68BB613B69DB43BA691340BB611B
:104C40003B685B6803F48033002B03D0BA693B698F
:104C50001343BB61124ABB691360FB690133FB61FB
:104C6000FB690F2B7FF690AE00BF00BF2437BD4617
:104C70005DF8047B704700BF0038024000380140F7
:104C8000000002400004024000080240000C024004
:104C9000001002400014024000180240001C0240B4
:104CA000003C014080B483B000AF78600B467B804D
:104CB00013467B707B78002B03D07A887B689A61DF
:104CC00003E07B881A047B689A6100BF0C37BD46FD
:104CD0005DF8047B7047000080B584B000AF786059
:104CE0007B68002B01D101232BE17B6893F83D30D9
:104CF000DBB2002B06D17B68002283F83C20786869
:104D0000FDF7E4FB7B68242283F83D207B681B6869
:104D10001A687B681B6822F001021A607B681B68B6
:104D20001A687B681B6842F400421A607B681B6843
:104D30001A687B681B6822F400421A6000F080FD4C
:104D4000F8607B685B68814A934207D8FB68804AB9
:104D5000934294BF01230023DBB206E0FB687D4A47
:104D6000934294BF01230023DBB2002B01D0012327
:104D7000E7E0FB68784AA2FB03239B0CBB607B68DF
:104D80001B685B6823F03F017B681B68BA680A43B5
:104D90005A607B681B681B6A23F03F017B685B6875
:104DA0006A4A934202D8BB68013309E0BB684FF4FA
:104DB000967202FB03F3694AA2FB03239B090133AA
:104DC0007A6812680B4313627B681B68DB6923F403
:104DD0004F4222F0FF027B685B685C498B4219D826
:104DE000FB68591E7B685B685B00B1FBF3F3591CE1
:104DF00040F6FC730B40002B0AD0FB68591E7B6801
:104E00005B685B00B1FBF3F30133C3F30B0351E0C9
:104E100004234FE07B689B68002B11D1FB68581E70
:104E20007B6859680B465B000B44B0FBF3F301331E
:104E3000C3F30B03002B0CBF01230023DBB212E0F2
:104E4000FB68581E7B6859680B469B000B44990011
:104E50000B44B0FBF3F30133C3F30B03002B0CBF84
:104E600001230023DBB2002B01D0012322E07B6869
:104E70009B68002B0ED1FB68581E7B6859680B4657
:104E80005B000B44B0FBF3F30133C3F30B0343F4B8
:104E900000430FE0FB68581E7B6859680B469B0077
:104EA0000B4499000B44B0FBF3F30133C3F30B0342
:104EB00043F44043796809681343CB617B681B68FE
:104EC0001B6823F0C0017B68DA697B681B6A1A43A0
:104ED0007B681B680A431A607B681B689B6823F425
:104EE000034323F0FF037A6811697A68D26811439B
:104EF0007A6812680B4393607B681B68DB6823F059
:104F0000FF017B685A697B689B691A437B681B6851
:104F10000A43DA607B681B681A687B681B6842F08A
:104F200001021A607B6800221A647B68202283F8E1
:104F30003D207B6800221A637B68002283F83E20B4
:104F4000002318461037BD4680BD00BFA086010073
:104F50007F841E00FF083D0083DE1B43D34D62109B
:104F600080B586B000AF78607B68002B01D101234B
:104F700067E27B681B6803F00103002B75D0884B48
:104F80009B6803F00C03042B0CD0854B9B6803F04B
:104F90000C03082B12D1824B5B6803F48003B3F53A
:104FA000800F0BD17E4B1B6803F40033002B5BD0CA
:104FB0007B685B68002B57D1012342E27B685B680A
:104FC000B3F5803F06D1764B1B68754A43F48033B6
:104FD00013601DE07B685B68B3F5A02F0CD1704BAC
:104FE0001B686F4A43F4802313606D4B1B686C4A47
:104FF00043F4803313600BE0694B1B68684A23F469
:1050000080331360664B1B68654A23F4802313606A
:105010007B685B68002B13D0FEF7B8FF386108E0AF
:10502000FEF7B4FF02463B69D31A642B01D9032370
:1050300007E25B4B1B6803F40033002BF0D014E055
:10504000FEF7A4FF386108E0FEF7A0FF02463B69C7
:10505000D31A642B01D90323F3E1514B1B6803F4EA
:105060000033002BF0D100E000BF7B681B6803F029
:105070000203002B63D04A4B9B6803F00C03002B08
:105080000BD0474B9B6803F00C03082B1CD1444BFF
:105090005B6803F48003002B16D1414B1B6803F0BF
:1050A0000203002B05D07B68DB68012B01D00123B4
:1050B000C7E13B4B1B6823F0F8027B681B69DB00F0
:1050C000374913430B603AE07B68DB68002B20D044
:1050D000344B01221A60FEF759FF386108E0FEF7F1
:1050E00055FF02463B69D31A022B01D90323A8E1DD
:1050F0002B4B1B6803F00203002BF0D0284B1B68DE
:1051000023F0F8027B681B69DB00254913430B6021
:1051100015E0244B00221A60FEF738FF386108E0E2
:10512000FEF734FF02463B69D31A022B01D9032351
:1051300087E11B4B1B6803F00203002BF0D17B6857
:105140001B6803F00803002B36D07B685B69002BDB
:1051500016D0154B01221A60FEF718FF386108E0DF
:10516000FEF714FF02463B69D31A022B01D9032331
:1051700067E10B4B5B6F03F00203002BF0D01BE0E9
:10518000094B00221A60FEF701FF38610EE0FEF7BE
:10519000FDFE02463B69D31A022B07D9032350E1D7
:1051A0000038024000004742800E4742884B5B6F48
:1051B00003F00203002BEAD17B681B6803F00403B1
:1051C000002B00F097800023FB75814B1B6C03F0D4
:1051D0008053002B0FD10023BB607D4B1B6C7C4A9E
:1051E00043F0805313647A4B1B6C03F08053BB6015
:1051F000BB680123FB75774B1B6803F48073002B9E
:1052000018D1744B1B68734A43F480731360FEF724
:10521000BDFE386108E0FEF7B9FE02463B69D31ACD
:10522000022B01D903230CE16A4B1B6803F4807342
:10523000002BF0D07B689B68012B06D1644B1B6F61
:10524000634A43F0010313671CE07B689B68052BEE
:105250000CD15F4B1B6F5E4A43F0040313675C4B3A
:105260001B6F5B4A43F0010313670BE0584B1B6F46
:10527000574A23F001031367554B1B6F544A23F021
:10528000040313677B689B68002B15D0FEF77EFE36
:1052900038610AE0FEF77AFE02463B69D31A41F212
:1052A0008832934201D90323CBE0494B1B6F03F0B3
:1052B0000203002BEED014E0FEF768FE38610AE02E
:1052C000FEF764FE02463B69D31A41F288329342EC
:1052D00001D90323B5E03E4B1B6F03F00203002B03
:1052E000EED1FB7D012B05D1394B1B6C384A23F0E5
:1052F000805313647B689B69002B00F0A180344BC2
:105300009B6803F00C03082B5CD07B689B69022B25
:1053100041D1314B00221A60FEF738FE386108E0B7
:10532000FEF734FE02463B69D31A022B01D9032350
:1053300087E0274B1B6803F00073002BF0D17B68DC
:10534000DA697B681B6A1A437B685B6A9B011A43B4
:105350007B689B6A5B08013B1B041A437B68DB6A22
:105360001B061B4913434B601B4B01221A60FEF7BF
:105370000DFE386108E0FEF709FE02463B69D31ACC
:10538000022B01D903235CE0114B1B6803F000736F
:10539000002BF0D054E0104B00221A60FEF7F6FD0F
:1053A000386108E0FEF7F2FD02463B69D31A022B92
:1053B00001D9032345E0064B1B6803F00073002B63
:1053C000F0D13DE07B689B69012B07D1012338E0D8
:1053D0000038024000700040600047421B4B5B6891
:1053E000FB607B689B69012B28D0FB6803F480027B
:1053F0007B68DB699A4221D1FB6803F03F027B683E
:105400001B6A9A421AD1FA6847F6C07313407A6849
:10541000526A9201934211D1FB6803F440327B68D7
:105420009B6A5B08013B1B049A4207D1FB6803F0AF
:1054300070627B68DB6A1B069A4201D0012300E0A0
:10544000002318461837BD4680BD00BF0038024013
:1054500080B584B000AF786039607B68002B01D1E3
:105460000123CCE0684B1B6803F007033A689A42BB
:105470000CD9654B3A68D2B21A70634B1B6803F0C3
:1054800007033A689A4201D00123B8E07B681B68A1
:1054900003F00203002B20D07B681B6803F0040399
:1054A000002B05D0594B9B68584A43F4E053936056
:1054B0007B681B6803F00803002B05D0534B9B68E7
:1054C000524A43F460439360504B9B6823F0F002D0
:1054D0007B689B684D4913438B607B681B6803F0B6
:1054E0000103002B44D07B685B68012B07D1474B3D
:1054F0001B6803F40033002B19D101237FE07B6884
:105500005B68022B03D07B685B68032B07D13F4BA2
:105510001B6803F00073002B09D101236FE03B4BA4
:105520001B6803F00203002B01D1012367E0374B16
:105530009B6823F003027B685B68344913438B60EC
:10554000FEF724FDF8600AE0FEF720FD0246FB6846
:10555000D31A41F28832934201D903234FE02B4BF7
:105560009B6803F00C027B685B689B009A42EBD15E
:10557000254B1B6803F007033A689A420CD2224B72
:105580003A68D2B21A70204B1B6803F007033A68DE
:105590009A4201D0012332E07B681B6803F00403C8
:1055A000002B08D0194B9B6823F4E0527B68DB6822
:1055B000164913438B607B681B6803F00803002BBC
:1055C00009D0124B9B6823F460427B681B69DB00A7
:1055D0000E4913438B6000F021F802460B4B9B6889
:1055E0001B0903F00F030A49CB5C22FA03F3094AB3
:1055F0001360094B1B681846FDF75AF9002318463B
:105600001037BD4680BD00BF003C0240003802405C
:1056100024BD010804090020080900202DE9B04F2D
:1056200094B000AF00237B640023FB6400233B6441
:105630000023BB64794B9B6803F00C03082B0DD04F
:10564000082B00F2E180002B02D0042B03D0DBE01A
:10565000734BBB64DBE0734BBB64D8E06F4B5B68A0
:1056600003F03F037B646D4B5B6803F48003002B06
:1056700063D06A4B5B689B090022BB63FA63BB6B18
:10568000C3F308033B6300237B63D7E90C45224641
:105690002B464FF000004FF00001590141EAD26162
:1056A000500102460B462146511A3961294663EBE7
:1056B00001037B614FF000024FF00003D7E904AB18
:1056C00059468B01514643EA916351468A0151463E
:1056D000B2EB0108594663EB01094FF000024FF0AD
:1056E00000034FEAC90343EA58734FEAC8029046E1
:1056F0009946234618EB0303BB602B4649EB030393
:10570000FB604FF000024FF00003D7E90245294645
:105710004B02214643EAD15321464A02104619461C
:105720007B6C0022BB62FA62D7E90A23FBF7ECFA32
:1057300002460B461346FB6458E0384B5B689B09F6
:10574000002218461146C0F308033B6200237B6227
:10575000D7E9088942464B464FF000004FF0000160
:10576000590141EAD261500102460B464146B2EB73
:10577000010A494663EB010B4FF000024FF00003B2
:105780004FEA8B1343EA9A634FEA8A12B2EB0A0498
:1057900063EB0B054FF000024FF00003EB0043EA10
:1057A0005473E20014461D464346E3183B604B46E3
:1057B00045EB03037B604FF000024FF00003D7E995
:1057C000004529468B02214643EA915321468A022D
:1057D000104619467B6C0022BB61FA61D7E90623AB
:1057E000FBF792FA02460B461346FB640B4B5B68D1
:1057F0001B0C03F0030301335B003B64FA6C3B6C4E
:10580000B2FBF3F3BB6402E0054BBB6400BFBB6CAF
:1058100018465037BD46BDE8B08F00BF0038024083
:105820000024F40000127A0080B400AF034B1B6820
:105830001846BD465DF8047B704700BF0409002090
:1058400080B500AFFFF7F0FF0246054B9B689B0A4F
:1058500003F007030349CB5C22FA03F3184680BD2B
:105860000038024034BD010880B500AFFFF7DCFF0F
:105870000246054B9B685B0B03F007030349CB5CB7
:1058800022FA03F3184680BD0038024034BD0108F7
:1058900080B483B000AF786039607B680F221A60F3
:1058A000124B9B6803F003027B685A600F4B9B68A6
:1058B00003F0F0027B689A600C4B9B6803F4E052A3
:1058C0007B68DA60094B9B68DB0803F4E0527B6875
:1058D0001A61074B1B6803F007023B681A6000BFA0
:1058E0000C37BD465DF8047B704700BF00380240AE
:1058F000003C024080B582B000AF78607B68002B2E
:1059000001D1012341E07B6893F83D30DBB2002BED
:1059100006D17B68002283F83C207868FDF730FBD5
:105920007B68022283F83D207B681A687B68043319
:105930001946104600F08CFD7B68012283F8462052
:105940007B68012283F83E207B68012283F83F2098
:105950007B68012283F840207B68012283F8412084
:105960007B68012283F842207B68012283F8432070
:105970007B68012283F844207B68012283F845205C
:105980007B68012283F83D20002318460837BD4676
:1059900080BD000080B485B000AF78607B6893F86C
:1059A0003D30DBB2012B01D001234EE07B680222A7
:1059B00083F83D207B681B68DA687B681B6842F0CF
:1059C0000102DA607B681B68234A934222D07B681D
:1059D0001B68B3F1804F1DD07B681B681F4A934240
:1059E00018D07B681B681E4A934213D07B681B68E3
:1059F0001C4A93420ED07B681B681B4A934209D015
:105A00007B681B68194A934204D07B681B68184A5C
:105A1000934211D17B681B689B6803F00703FB600E
:105A2000FB68062B10D07B681B681A687B681B68B4
:105A300042F001021A6007E07B681B681A687B6805
:105A40001B6842F001021A60002318461437BD4655
:105A50005DF8047B704700BF000001400004004077
:105A600000080040000C00400004014000400140DC
:105A70000018004080B582B000AF78607B68002BD2
:105A800001D1012341E07B6893F83D30DBB2002B6C
:105A900006D17B68002283F83C207868FDF74EFA37
:105AA0007B68022283F83D207B681A687B68043398
:105AB0001946104600F0CCFC7B68012283F8462092
:105AC0007B68012283F83E207B68012283F83F2017
:105AD0007B68012283F840207B68012283F8412003
