:020000040800F2
:1000000000120020450C0008190A00081B0A00080D
:100010001F0A0008230A0008270A00080000000041
:100020000000000000000000000000002B0A000893
:100030002D0A0008000000002F0A0008310A0008FD
:100040005F0C00085F0C00085F0C00085F0C0008E4
:100050005F0C00085F0C00085F0C00085F0C0008D4
:100060005F0C00085F0C00085F0C00085F0C0008C4
:100070005F0C00085F0C00085F0C00085F0C0008B4
:100080005F0C00085F0C00085F0C00085F0C0008A4
:100090005F0C00085F0C00085F0C00085F0C000894
:1000A0005F0C00085F0C00085F0C00085F0C000884
:1000B0005F0C00085F0C00085F0C00085F0C000874
:1000C0005F0C00085F0C00085F0C00085F0C000864
:1000D0005F0C0008D9210008532200085F0C0008BB
:1000E0005F0C00085F0C00085F0C00085F0C000844
:1000F0005F0C00085F0C00085F0C00085F0C000834
:100100005F0C00085F0C00085F0C00085F0C000823
:100110005F0C00085F0C00085F0C00085F0C000813
:100120005F0C00085F0C00085F0C00085F0C000803
:100130005F0C00085F0C00085F0C00085F0C0008F3
:100140005F0C00085F0C00085F0C00085F0C0008E3
:100150005F0C00085F0C00085F0C00085F0C0008D3
:100160005F0C00085F0C00085F0C00085F0C0008C3
:100170005F0C00085F0C00085F0C00085F0C0008B3
:100180005F0C00085F0C000800F002F800F096F821
:100190000AA090E8000C82448344AAF10107DA45E2
:1001A00001D100F08BF8AFF2090EBAE80F0013F09E
:1001B000010F18BFFB1A43F001031847F8E20000D3
:1001C00018E30000103A24BF78C878C1FAD8520763
:1001D00024BF30C830C144BF04680C6070470000C1
:1001E0000023002400250026103A28BF78C1FBD840
:1001F000520728BF30C148BF0B6070476E2907F017
:10020000B586702907F0BB8266290CF0C18165298B
:100210000CF0BE8167290CF0BB8161290CF0BA811A
:1002200003681B0A28BF41F08001692907F02C826E
:10023000642907F02982752907F026826F2908F0C2
:10024000C481782907F08782E92908F05F81E429D1
:1002500008F05C81F52908F05981EF2908F0C18187
:10026000F82907F086820368DB0928BF41F0800186
:10027000632908F0CE80732908F0D380E32908F0C1
:100280002B87F32908F03087002070471FB50CF04A
:1002900072F99DE8030007F0BDFD08F0E5FC0400DD
:1002A000002000210BF082FA401C60600020002139
:1002B0000BF092FAE0601FBD10B510BD09F06FF9A8
:1002C0001146FFF7E3FF00F04DFB09F0B7FB03B465
:1002D000FFF7F2FF03BC01F09DFE000010B52DED0D
:1002E0000C8B14210D2002F01EF9F7490860084616
:1002F00000680BF089FD41EC1A0B9FEDF40B53ECF9
:10030000102B0BF0D1FD41EC190B9FEDF20B53ECD0
:10031000102B0BF0D5FF41EC180B0BF07FFAEF49D7
:1003200008601421012002F0FEF800EE100AB8EE79
:10033000400AEB4880ED000A00680CF0ABF841EC95
:100340001D0B9FEDE80B53EC102B0BF0ADFD41ECBA
:100350001C0BB0EE4C1AF0EE6C1A9FEDE40B0AF099
:1003600057FAB0EE40BAF0EE60BA9FEDE20B53ECF4
:10037000102B51EC1B0B0BF097FD41EC190BD848DF
:1003800000680CF087F841EC1D0B9FEDDC0B53EC83
:10039000102B0BF089FD41EC1C0BB0EE4C1AF0EE6B
:1003A0006C1A9FEDD20B0AF033FAB0EE40BAF0EEC1
:1003B00060BA9FEDD40B53EC102B51EC1B0B0BF0E0
:1003C00073FD41EC1A0B53EC192B0BF059FA41EC6D
:1003D000180B0BF023FACD490860084690ED000A8F
:1003E000F1EE040AB4EEE00AF1EE10FA04D21021A4
:1003F000C74800F0EDFF03E01021C54800F0E6FF1C
:1004000014210B2002F08FF800EE100AB8EE400A1B
:10041000B34880ED000A00680CF03CF841EC190B81
:100420009FEDBC0B53EC102B0BF03EFD41EC180B79
:100430000BF0F4F9B9490860084690ED000ADFEDC9
:10044000B80A20EE200A80ED000A90ED000AB5EE11
:10045000C00AF1EE10FA01DD012000E00020AF49F2
:1004600091ED000ADFEDAF0AB4EEE00AF1EE10FA0A
:1004700001D2012100E00021084018B10020AA4962
:10048000086088E1A54890ED000ADFEDA60AB4EE09
:10049000E00AF1EE10FA01DB012000E000209F49A4
:1004A00091ED000ADFEDA10AB4EEE00AF1EE10FAD8
:1004B00001D2012100E00021084018B101209A4931
:1004C000086068E1954890ED000ADFED980AB4EE07
:1004D000E00AF1EE10FA01DB012000E000208F4974
:1004E00091ED000ADFED920AB4EEE00AF1EE10FAA7
:1004F00001D2012100E00021084018B102208A4900
:10050000086048E1854890ED000ADFED890AB4EE05
:10051000E00AF1EE10FA01DB012000E000207F4943
:1005200091ED000ADFED830AB4EEE00AF1EE10FA75
:1005300001D2012100E00021084018B103207A49CE
:10054000086028E1754890ED000ADFED7A0AB4EE04
:10055000E00AF1EE10FA01DB012000E000206F4913
:1005600091ED000ADFED740AB4EEE00AF1EE10FA44
:1005700001D2012100E00021084018B104206A499D
:10058000086008E1654890ED000ADFED6B0AB4EE03
:10059000E00AF1EE10FA01DB012000E000205F49E3
:1005A00091ED000ADFED650AB4EEE00AF1EE10FA13
:1005B00001D2012100E00021084018B105205A496C
:1005C0000860E8E0554890ED000ADFED5C0AB4EE03
:1005D000E00AF1EE10FA01DB012000E000204F49B3
:1005E00091ED000ADFED560AB4EEE00AF1EE10FAE2
:1005F00001D2012100E00021084018B106204A493B
:100600000860C8E0454890ED000ADFED4D0AB4EE01
:10061000E00AF1EE10FA01DB012000E000203F4982
:1006200091ED000ADFED470AB4EEE00AF1EE10FAB0
:1006300001D2012100E00021084018B107203A4909
:100640000860A8E0354890ED000ADFED3E0AB4EE00
:10065000E00AF1EE10FA01DB012000E000202F4952
:1006600091ED000ADFED380AB4EEE00AF1EE10FA7F
:1006700001D2012100E00021084018B108202A49D8
:10068000086088E0254890ED000ADFED2F0AB4EEFF
:10069000E00AF1EE10FA01DB012000E000201F4922
:1006A00091ED000ADFED290AB4EEE00AF1EE10FA4E
:1006B00001D2012100E00021084018B109201A49A7
:1006C000086068E044E0000008000020C3F5285CF2
:1006D0008FC2C53F9A9999999999B93FC000002056
:1006E00004000020D2544FE61F7D63BF90F7AA9507
:1006F00009BF0540000000000016AB40B4AB90F20B
:10070000936A8FBF000000004070E340C4000020E7
:1007100000140240144001144001543FC80000205E
:1007200000007A4400004842CC00002000006343EF
:1007300000009F430000CC430080FB43008017442F
:1007400000002E4400C0464400405C440000744455
:100750009F4890ED000A5FED030AB4EEE00AF1EE67
:1007600010FA01DB012000E00020994991ED000A18
:10077000DFED980AB4EEE00AF1EE10FA01D20121A1
:1007800000E00021084018B10A209349086002E007
:100790000B20914908609149914801F01AFE914857
:1007A00090ED000AF2EE040AB4EEE00AF1EE10FA5F
:1007B00004DD04218C4800F00BFE03E004218A488C
:1007C00000F004FE1421032001F0ADFE00EE100A3B
:1007D000B8EE400A854880ED000A00680BF05AFE2A
:1007E00041EC190B1FED350B53EC102B0BF05CFBA0
:1007F00041EC180B0BF012F87C49086008460068C1
:100800000BF048FE41EC190B9FED790B53EC102BCC
:100810000BF0F2F841EC180B0BF000F87649086089
:10082000084690ED000A09F033FFF3EE040A20EECB
:10083000200A724880ED000A02F067F9704B71A23D
:100840000121084602F058FD664800680BF022FEC0
:1008500041EC180B6A4B0222B0EE480AF0EE680A2F
:100860000121322002F0AAFF654B67A20F2101206F
:1008700002F042FD614800680BF00CFE41EC180BE1
:100880005F4B0222B0EE480AF0EE680A0F213220D8
:1008900002F094FF5A4B5DA21D21012002F02CFDB5
:1008A0004F4800780BF0B0FA41EC180B544B022281
:1008B000B0EE480AF0EE680A1D21322002F07EFFF9
:1008C0004F4B54A22B21012002F016FD4348007823
:1008D0000BF09AFA41EC180B494B0222B0EE480A91
:1008E000F0EE680A2B21322002F068FF642001F04C
:1008F0006FFBBDEC0C8B10BD1CB50121202000F05E
:1009000087FF1020009001208DF8040003208DF84F
:10091000050000208DF806008DF807006946324872
:1009200000F0D8FC1021304800F050FD1CBD1CB573
:100930000121202000F06CFF0420009001208DF8A0
:10094000040003208DF8050000208DF806008DF8C6
:1009500007006946244800F0BDFC0421224800F04D
:1009600035FD1CBD4FF4A06000F08CF94FF4E13070
:1009700001F08AFB4FF4E13001F0D8FBA82001F030
:10098000C5FA01F075FDFFF7D2FF02F09AFA01F007
:10099000E7FDFFF7B1FF02F0AFFF02F01FFC02E03E
:1009A000C82001F015FB01F040FD0028F8D100BF80
:1009B000002005F051FB0F28FAD108E0FFF78EFC6C
:1009C00006F07AFC05F056FF322001F001FBF5E756
:1009D000C800002000E08644CC000020B9000020C0
:1009E000B8000020C00000200014024004000020D5
:1009F00039B4C876BE9FF63F00000020BC0000203E
:100A000098000020504D00006462000074656D7015
:100A10000000000068756D00704700BFFEE700BF72
:100A2000FEE700BFFEE700BFFEE770477047704774
:100A3000704700000CB500200190009076480068D7
:100A400040F480307449086000BF7348006800F4C7
:100A5000003000900198401C0190009818B901984E
:100A6000B0F5A04FF1D16C48006800F4003010B12F
:100A70000120009001E0002000900098012846D15C
:100A800065484030006840F080506349403108605C
:100A90006248006840F44040604908605E480830A1
:100AA00000685D49083108600846006840F400406D
:100AB00008600846006840F4A05008605848091FC4
:100AC0000860081F006840F08070091F086000BFC0
:100AD0005148006800F000700028F9D040F205701D
:100AE000504908604C480830006820F003004A492B
:100AF000083108600846006840F00200086000BF46
:100B000045480830006800F00C000828F8D10CBDFA
:100B100010B54548006840F47000434908603E48FD
:100B2000006840F001003C49086000203A49083163
:100B30000860394800683D490840374908603C482A
:100B4000091D0860081F006820F48020091F086044
:100B5000002031490C310860FFF76CFF4FF0006056
:100B600031498039086010BD70B500200022022391
:100B700000240221284D08352D6805F00C0020B115
:100B8000042806D0082834D107E02A4D2A4E3560C3
:100B900033E02A4D284E35602FE01F4D2D1D2D6866
:100BA000C5F380541C4D2D1D2D6805F03F0154B137
:100BB000224DB5FBF1F5184E361D3668C6F3881682
:100BC00005FB06F209E01B4DB5FBF1F5124E361D93
:100BD0003668C6F3881605FB06F20F4D2D1D2D68ED
:100BE000C5F301456D1C6B00B2FBF3F5124E356089
:100BF00003E0104D104E356000BF00BF064D0835B4
:100C00002D68C5F303150E4E705D0B4D2D68C54064
:100C1000094E356070BD0000003802400070004091
:100C200008544007003C024088ED00E0FFFFF6FE5C
:100C3000103000240024F4001000002000127A007C
:100C4000140000200948804709480047FEE7FEE7F6
:100C5000FEE7FEE7FEE7FEE7FEE7FEE7FEE7FEE76C
:100C600004480549054A064B70470000110B00086F
:100C700089010008000C002000120020000E002056
:100C8000000E002032490143324A1160704770B5AE
:100C9000002100230F22C4781CB32E4C246804F4D6
:100CA000E064C4F5E064C4F30721C1F10404E3B2D5
:100CB0000A4144789C40E1B28478144021430C07F7
:100CC000210E254C05786155047804F01F05012498
:100CD000AC4005786D11AD0005F1E025C5F8004187
:100CE00009E0047804F01F050124AC401B4D067890
:100CF000761145F8264070BD194A0A400243154B4B
:100D00001B1F1A60704739B1124A121D1268024344
:100D1000104B1B1D1A6006E00E4A121D126882431A
:100D20000C4B1B1D1A607047042808D14FF0E021BE
:100D3000096941F004014FF0E022116107E04FF032
:100D4000E021096921F004014FF0E02211617047B0
:100D50000000FA050CED00E000E400E080E100E0B6
:100D600080FFFF1F10B50121080200F000FE0021E6
:100D70004FF4807000F0FBFD10BD30B5024600203E
:100D800000235068F84C20400D790C6844EA052493
:100D9000204350609068F54C2040D1E903542C4327
:100DA0008D682C434D7944EA450420439060D06A15
:100DB00020F470000C7D641EE4B2234340EA03502B
:100DC000D06230BD00210160017141718160C1605C
:100DD00001610121017570470021E54A1168E54A6A
:100DE0001140D0E900231A4383681A43C3681A43A9
:100DF0001143E14AC2F804137047002101604160C9
:100E00008160C160704721B1826842F00102826056
:100E100003E0826822F00102826070470A460021E6
:100E20004168D64B1940114341607047416282626C
:100E300070470A460021416821F01F0111434160BB
:100E4000704738B1CA49096841F40001CA4AC2F87A
:100E5000041306E0C649096821F40001C64AC2F835
:100E60000413704738B1C249096841F48001C24A8D
:100E7000C2F8041306E0BE49096821F48001BE4AA5
:100E8000C2F804137047F0B504460D460020002157
:100E9000092D11DDE068A5F10A0606EB46070726D5
:100EA00006FA07F18843A5F10A0606EB460603FA9F
:100EB00006F10843E0600CE0206905EB45070726D2
:100EC00006FA07F1884305EB450603FA06F10843E5
:100ED0002061072A0FDA606B561E06EB86071F2675
:100EE00006FA07F18843561E06EB860605FA06F158
:100EF0000843606322E00D2A0FDA206BD61F06EB51
:100F000086071F2606FA07F18843D61F06EB8606DA
:100F100005FA06F10843206310E0E06AA2F10D062D
:100F200006EB86071F2606FA07F18843A2F10D0695
:100F300006EB860605FA06F10843E062F0BD81681B
:100F400041F0804181607047014600208A6802F0CC
:100F500080420AB1012000E00020704721B1826880
:100F600042F48062826003E0826822F480628260E0
:100F7000704721B1826842F00202826003E0826819
:100F800022F002028260704710B50A460021002359
:100F9000416821F46041531E41EA4331416010BD74
:100FA00021B1426842F40062426003E0426822F4E8
:100FB0000062426070470146C86C80B270476C485E
:100FC000001D0068704721B1826842F4807282601F
:100FD00003E0826822F480728260704721B18268E7
:100FE00042F40072826003E0826822F40072826040
:100FF000704738B15E49096841F400515E4AC2F851
:10100000041306E05A49096821F400515A4AC2F80B
:1010100004137047F0B50446154600200022002650
:10102000092911DDE068A1F10A0707EB470C072742
:1010300007FA0CF29043A1F10A0707EB470703FAFE
:1010400007F21043E0600CE0206901EB410C072738
:1010500007FA0CF2904301EB410703FA07F2104341
:101060002061A06BC0F30156EF1C06F1010CA7EB49
:101070000C0707EB870C1F2707FA0CF29043EF1CB5
:1010800006F1010CA7EB0C0707EB870701FA07F243
:101090001043A063F0BD10B50A4600210023816B08
:1010A00021F44011531E41EA0351816310BD08B57C
:1010B000002300930090009B0B440093009B1A6058
:1010C00008BD0A460021816821F470211143816026
:1010D00070470A460021816821F440111143816064
:1010E0007047816841F480018160704701460020AB
:1010F0008A6802F480020AB1012000E000207047F3
:1011000021B1426842F48062426003E0426822F406
:1011100080624260704721B1426842F4805242606E
:1011200003E0426822F480524260704708B50246EC
:1011300000200090009201F12800009B18440090CC
:101140000098006880B208BD10B50B460021D9B2E6
:10115000012404FA01F11AB144680C43446002E02E
:1011600044688C43446010BDFFFEFFFCFDF7FFC0E8
:1011700004230140E030FCFF00200140FFFD3FFF61
:101180000246002013680B400BB1012000E0002054
:101190007047CA430260704770B5024600200023C2
:1011A00000240B12556801268E4005EA06041568D6
:1011B0001D4015B10CB1012000E0002070BD0022DF
:1011C0000A12D3430360704710B50446984884421E
:1011D00008D10121084600F086FB0021012000F023
:1011E00082FB76E09348844208D10121022000F07E
:1011F0007AFB0021022000F076FB6AE08E488442F0
:1012000008D10121042000F06EFB0021042000F031
:101210006AFB5EE08948844208D10121082000F081
:1012200062FB0021082000F05EFB52E0844884420B
:1012300008D10121102000F056FB0021102000F001
:1012400052FB46E07F48844208D10121202000F073
:101250004AFB0021202000F046FB3AE07A48844215
:1012600008D10121402000F03EFB0021402000F089
:101270003AFB2EE07548844208D10121802000F01D
:1012800032FB0021802000F02EFB22E070488442D7
:1012900008D10121801500F026FB0021A01500F0E7
:1012A00022FB16E06B48844208D10121401500F072
:1012B0001AFB0021601500F016FB0AE06648844224
:1012C00007D10121001500F00EFB0021201500F0D0
:1012D0000AFB10BDF0B50A4600210023002400BF20
:1012E0003DE0012505FA01F3156805EA03049C4277
:1012F00034D105684F000326BE40B543056015791B
:101300004E00B5400668354305601579012D02D0C1
:101310001579022D16D185684F000326BE40B543CE
:10132000856055794E00B5408668354385604568CF
:1013300001268E40B5434560456896798E40B6B229
:1013400035434560C5684F000326BE40B543C560C0
:10135000D5794E00B540C6683543C560491C102993
:10136000BFD3F0BD4FF6FF710160002101714171E3
:101370008171C171704708B54FF480320092009AB4
:101380000A430092009AC261C161009AC261C269B7
:101390000092C269009208BD0246002013690B400A
:1013A0000BB1012000E0002070470146086980B2BF
:1013B00070470246002053690B400BB1012000E04A
:1013C000002070470146486980B27047018370472A
:1013D000418370470AB1018300E041837047416156
:1013E000704742694A4042617047F0B500230024CB
:1013F0004D07ED0E02FA05F3CE1000F1200555F869
:1014000026504E07F70E0F26BE40B543CF1000F111
:10141000200646F82750CE1000F1200555F826503A
:1014200045EA0304CE1000F1200545F82640F0BD42
:10143000000002400004024000080240000C02408C
:10144000001002400014024000180240001C02403C
:10145000002002400024024000280240F9480068B1
:1014600040F00100F74908600020F64908310860A3
:10147000F4480068F4490840F2490860F348091D3F
:101480000860F348EF4984310860F0481038091DBE
:101490000860EC48006820F48020EA4908600020D9
:1014A000E8490C310860E7498C3108607047002139
:1014B000E44A921C117011460870704710B501463D
:1014C0000022002300204A11012A02D1DD4C2368AA
:1014D00008E0022A03D1DB4C7034236802E0D94CC7
:1014E0007434236801F01F02012494401C400CB1A5
:1014F000012000E0002010BD38B50020009000243D
:10150000002500BF3120FFF7D9FF05460098401C99
:1015100000900098B0F5A04F01D0002DF2D03120FE
:10152000FFF7CCFF08B1012400E00024204638BDBD
:1015300001460020C34A106820F0F80040EAC100CC
:1015400010607047C349086070470021BD4A70327F
:1015500011701170012802D004280AD104E0012181
:10156000B84A7032117005E00521B64A7032117028
:1015700000E000BF00BF7047B7490860704770B512
:10158000049C41EA82150126C6EB530645EA06454E
:10159000054345EA0465AB4E361D356070BDAD4967
:1015A00008667047820142EA0172A64B84331A60D2
:1015B0007047A8498866704710B5830143EA016304
:1015C00043EA02739F4C8834236010BDA149086729
:1015D0007047A049C864704702460020994B083301
:1015E000186820F0EC6042EA01031843954B083379
:1015F0001860704702460020924B0833186820F0AC
:10160000784042EA010318438E4B08331860704754
:10161000014600208B4A0832106820F0030008437E
:101620001060704787480830006800F00C00704771
:1016300001460020834A0832106820F0F000084379
:1016400010607047014600207E4A0832106820F47E
:10165000E05008431060704701460020794A083284
:10166000106820F4604040EAC10010607047F0B597
:10167000002100220024022500260223714F083792
:101680003F6807F00C0121B1042905D0082937D1A2
:1016900005E0724F076036E0714F076033E0694F35
:1016A0003F1D3F68C7F38056664F3F1D3F6807F0F8
:1016B0003F036EB16A4FB7FBF3F7DFF888C10CF157
:1016C000040CDCF800C0CCF3881C07FB0CF40CE025
:1016D000624FB7FBF3F7DFF86CC10CF1040CDCF8D8
:1016E00000C0CCF3881C07FB0CF4564F3F1D3F682D
:1016F000C7F301477F1C7D00B4FBF5F7076002E0EC
:10170000564F076000BF00BF4E4F08373F6807F0D5
:10171000F0010909534F7A5C0768D7404760494F89
:1017200008373F6807F4E051890A4E4F7A5C4768F2
:10173000D7408760434F08373F6807F46041490B43
:10174000484F7A5C4768D740C760F0BD002100F47D
:101750004072B2F5407F0AD13A4A0832116821F44A
:10176000F811414A02401143364A08321160354AA5
:1017700070321268C0F30B031A43324B70331A6095
:10178000704735494439086070473349403908602B
:10179000704736490860704701460020294A8C325C
:1017A000106820F01F004A1E1043264A8C32106039
:1017B000704701460020234A8C32106820F4F8500C
:1017C0004A1E40EA02201F4A8C32106070470146D0
:1017D00000201C4A8C32106820F44010084310602E
:1017E000704701460020174A8C32106820F44000F0
:1017F00008431060704701460020124A8C3210687E
:1018000020F4403008431060704719490860704761
:1018100039B10C4A3032126802430A4B30331A6035
:1018200006E0084A303212688243064B30331A60B1
:101830007047F9B1034A343212680243014B343322
:101840001A601CE000380240FFFFF6EA1030002466
:101850000030002000004742800E47420024F40080
:1018600000127A0024000020FFFCFF0F5C014742B9
:10187000E01147428F4A126882438E4B1A607047CC
:1018800039B18C4A121D126802438A4B1B1D1A6023
:1018900006E0884A121D12688243864B1B1D1A609F
:1018A000704739B1834A0C3212680243814B0C33C2
:1018B0001A6006E07F4A0C32126882437D4B0C337B
:1018C0001A60704739B17B4A103212680243794B73
:1018D00010331A6006E0774A103212688243754B63
:1018E00010331A60704739B1724A243A12680243C1
:1018F000704B243B1A6006E06E4A243A1268824319
:101900006C4B243B1A60704739B16A4A203A12681E
:101910000243684B203B1A6006E0664A203A126890
:101920008243644B203B1A60704739B1614A1C3ACC
:10193000126802435F4B1C3B1A6006E05D4A1C3A8A
:10194000126882435B4B1C3B1A60704739B1594A9D
:10195000143A12680243574B143B1A6006E0554A8A
:10196000143A12688243534B143B1A60704739B1E2
:10197000504A103A126802434E4B103B1A6006E080
:101980004C4A103A126882434A4B103B1A60704727
:1019900039B1484A1C3212680243464B1C331A6064
:1019A00006E0444A1C3212688243424B1C331A60E0
:1019B000704739B13F4A2032126802433D4B203311
:1019C0001A6006E03B4A203212688243394B2033CA
:1019D0001A60704739B1374A243212680243354BD6
:1019E00024331A6006E0334A243212688243314BB2
:1019F00024331A60704739B12E4A2C3212680243E0
:101A00002C4B2C331A6006E02A4A2C32126882438F
:101A1000284B2C331A60704739B1264A303212688D
:101A20000243244B30331A6006E0224A30321268F7
:101A30008243204B30331A607047012808D11D497A
:101A40003C31096841F008011A4A3C32116007E054
:101A500018493C31096821F00801164A3C321160EE
:101A6000704739B1134A273A12780243114B273B8A
:101A70001A7006E00F4A273A127882430D4B273B33
:101A80001A7070470B484030006840F08070094978
:101A900040310860704701460020064A283A126823
:101AA0000A400AB1012000E00020704701492639B0
:101AB000087070473438024010B50446FA48844232
:101AC00008D101211020FFF752FF00211020FFF75D
:101AD0004EFF57E0F548844209D101214804FFF741
:101AE00035FF00214FF40030FFF730FF4AE0F048A7
:101AF000844209D101218804FFF728FF00214FF417
:101B00008020FFF723FF3DE0EA48844209D101210C
:101B1000C804FFF71BFF00214FF40020FFF716FF5A
:101B200030E0E548844209D101210805FFF70EFFA6
:101B300000214FF48010FFF709FF23E0DF488442C3
:101B400008D101212020FFF712FF00212020FFF7FC
:101B50000EFF17E0DA48844209D101218807FFF718
:101B6000F5FE00214FF08040FFF7F0FE0AE0D54877
:101B7000844207D101214005FFF7E8FE00216005FE
:101B8000FFF7E4FE10BD2DE9FF4705460E46002491
:101B9000A14600BFA046B08900B100BF2C8A24F442
:101BA0004054F08804432C82AC8941F20C60844399
:101BB000B08831890843718908430443AC81AC8AF9
:101BC00024F44074B0890443AC826846FFF74FFDAB
:101BD000B548854202D0B948854202D1DDF80C9063
:101BE00001E0DDF80890A88900F4004040B109EB5D
:101BF000C90000EB091031684900B0FBF1F707E0BC
:101C000009EBC90000EB091031688900B0FBF1F75E
:101C10006420B7FBF0F004012009642101FB107877
:101C2000A88900F4004040B1322000EBC800B0FBAE
:101C3000F1F000F00700044308E0322000EB081048
:101C40006421B0FBF1F000F00F0004432C81BDE8EB
:101C5000FF874FF41651016000218180C18001810E
:101C60000C21418100218181704710B5024600207E
:101C7000108A20F470600B884C8823438C8823439F
:101C8000CC8823431843108210BD0021018041807D
:101C90008180C180704721B1828942F400528281E3
:101CA00004E082894DF6FF731A4082817047028BEF
:101CB00002F47F420283028B0A430283704721B100
:101CC000828942F40042828103E08289C2F30E02DB
:101CD0008281704721B1828A42F40062828204E0EC
:101CE000828A4FF2FF731A4082827047C1F3080262
:101CF0008280704701468888C0F308007047028AD6
:101D00004FF6F0731A400282028A0A430282704739
:101D100021B1828942F00202828104E082894FF679
:101D2000FD731A408281704782894FF2FF731A4017
:101D3000828182890A4382817047028A4FF6DF736B
:101D40001A400282028A0A430282704721B1028A43
:101D500042F48042028204E0028A4BF6FF731A408A
:101D600002827047818941F001018181704721B170
:101D7000828A42F00802828204E0828A4FF6F77378
:101D80001A4082827047028BD2B20283028B42EAEF
:101D900001220283704721B1828A42F020028282AE
:101DA00004E0828A4FF6DF731A408282704721B1C5
:101DB000828A42F01002828204E0828A4FF6EF7338
:101DC0001A4082827047828A4FF6FB731A408282E1
:101DD000828A0A438282704721B1828A42F00202DB
:101DE000828204E0828A4FF6FD731A408282704735
:101DF0001AB1838A0B43838202E0838A8B438382F6
:101E00007047F0B50346002400260025002040F668
:101E10006A17B94200D100BF1846C1F3421401F05D
:101E20001F06012707FA06F5012C01D10C3004E04A
:101E3000022C01D1103000E014301AB107682F4392
:101E4000076002E00768AF430760F0BD024600206C
:101E5000B1F5007F00D100BF13880B400BB101200A
:101E600000E00020704701F40072B2F5007F00D15D
:101E700000BFCA430280704770B5024600240023A9
:101E80000025002040F66A16B14200D100BFC1F320
:101E9000421501F01F03012606FA03F3012D13D1A9
:101EA0009689334017E000000010014000440040D4
:101EB00000480040004C0040005000400014014029
:101EC00000780040007C0040022D02D1168A334089
:101ED00001E0968A33400C12012606FA04F41688B3
:101EE000344013B10CB1012000E0002070BD10B5EA
:101EF0000022002340F66A14A14200D100BF0A125A
:101F000001249440A3B2DC43048010BD10B5044604
:101F10006FF00400FEF708FFE11704EB5171C1F305
:101F2000C701394A11701046007800EB4001C1EB3F
:101F3000C0104FF6FF7101EAC0003449088010BD9F
:101F40000146314A12784A434FF0E0235A61002299
:101F50009A611A46126942F001021A6100BF4FF0FD
:101F6000E022106900F001021AB100F48032002A68
:101F7000F5D04FF0E022126922F001024FF0E02389
:101F80001A6100229A6170470146204A12884A432A
:101F90004FF0E0235A6100229A611A46126942F01A
:101FA00001021A6100BF4FF0E022106900F0010247
:101FB0001AB100F48032002AF5D04FF0E022126905
:101FC00022F001024FF0E0231A6100229A6170476B
:101FD00070B504464FF4077094FBF0F0C6B24FF4AE
:101FE000077094FBF0F100FB114085B205E04FF45F
:101FF0000770FFF7C9FF701EC6B2002EF7D115B1EA
:102000002846FFF7C1FF70BD3400002036000020D5
:1020100000BF704700BF704702460020704700BFF6
:10202000A64A128802F04002002AF9D0C2B2A34B9D
:102030001B1D1A8070470FB410B5E6B0002469A8C4
:1020400001904FF4C87102A8019B689A05F090FABC
:102050000DE002A8015D9A48FFF748FE00BF80210D
:102060009748FFF7F3FE0028F9D0601C84B2B4F55E
:10207000C77F03DC02A8005D0028EAD100200190A0
:1020800066B010BC5DF814FB10B588B004460121A1
:102090000846FFF7BDFB01211020FFF713FC0722C4
:1020A00009218848FFF7A1F907220A218548FFF78F
:1020B0009CF94FF4C060069002208DF81C008DF84A
:1020C0001D0000208DF81E0001208DF81F0006A9BC
:1020D0007C48FFF7FFF802940020ADF80C00ADF843
:1020E0000E00ADF81000ADF814000C20ADF8120091
:1020F00002A97348FFF747FD01217148FFF7CBFDA7
:10210000012240F225516E48FFF77BFE25208DF815
:10211000040003208DF805008DF8060001208DF8DD
:10212000070001A8FEF7B3FD08B010BD10B588B0D8
:10213000044601210846FFF76BFB01214804FFF725
:10214000B0FB072202215F48FFF74FF90722032166
:102150005C48FFF74AF90C20069002208DF81C001D
:102160008DF81D0000208DF81E0001208DF81F0045
:1021700006A95448FFF7AEF802940020ADF80C0011
:10218000ADF80E00ADF81000ADF814000C20ADF85D
:10219000120002A94948FFF7F6FC01214748FFF762
:1021A0007AFD40214548FFF75EFE012240F22551AD
:1021B0004248FFF726FE26208DF8040001208DF806
:1021C000050003208DF8060001208DF8070001A806
:1021D000FEF75DFD08B010BD10B540F2255138483E
:1021E000FFF74AFE10B33648FFF784FDC4B2364805
:1021F000008800F40040C8B93348008800F48040EB
:1022000060B10A2C03D000202F49088020E02E481E
:10221000008840F400402C49088019E00D2C06D1BC
:102220002948008840F480402749088010E026486B
:102230000088C0F30D0025490C5423480088401C39
:102240002149088008460088C72801DD0020088051
:1022500010BD10B540F225511848FFF70DFE80B1B2
:102260001648FFF747FDC4B2194801780078401CB2
:10227000174A10701748445440F225510F48FFF791
:1022800036FE10BD70B504460D4600260CE000BFBA
:1022900080210A48FFF7DAFD0028F9D014F8011B65
:1022A0000648FFF723FD761CAE42F0D300BF402165
:1022B0000248FFF7CBFD0028F9D070BD0044004074
:1022C000001001400000024048000020700600207D
:1022D00038000020F800002010B56248006820F4A3
:1022E0004040604908600846006840F4804008604B
:1022F00000205D4908601420FFF76AFE01205B4959
:10230000C1F89C021E20FFF71BFE10BD10B5002473
:102310005448006820F4404052490860084600686C
:10232000086004E0601CC4B20120FFF709FE4E48BB
:102330008038006808B1642CF4DB642C01DB0120D8
:1023400010BD002404E0601CC4B20120FFF7F8FDBA
:1023500045488038006808B9642CF4DB642C01DB44
:102360000120EDE70020EBE710B5002404E0601C3D
:10237000C4B20120FFF7E4FD3B488038006808B193
:10238000642CF4DB002404E0601CC4B20120FFF7DD
:10239000D7FD35488038006808B9642CF4DB282064
:1023A000FFF7CEFD30488038006808B1012010BD2D
:1023B0000020FCE770B50024002506E06006040E4E
:1023C000FFF7D2FF0443681CC5B2082DF6DB204698
:1023D00070BD7CB505460E46FFF77EFFFFF796FF02
:1023E000F8B9002405E0FFF7E5FF0DF80400601CD4
:1023F000C4B2052CF7DB9DF800009DF801100844DD
:102400009DF8021008449DF8031008449DF804103C
:10241000884208D19DF8000030709DF802002870B5
:1024200001E001207CBD0020FCE71CB5012108462D
:10243000FFF7EEF98020009001208DF804000020C5
:102440008DF8060002208DF8050001208DF80700A8
:1024500069460448FEF73EFFFFF73EFFFFF756FFD1
:102460001CBD0000000002409C02404200004042AF
:1024700000B58DB001210802FFF724FA01210420E4
:10248000FFF7C6F90A200B9003208DF830000020DA
:102490008DF833000BA92F48FEF71CFF01210846D9
:1024A000FFF7B6F90A200B9003208DF830000020CA
:1024B0008DF833000BA92848FEF70CFF0020079089
:1024C0000A9009904FF48030089007A8FEF784FC2A
:1024D000002001908DF808008DF809000390059008
:1024E00001208DF8180001A91C48FEF746FC0121C7
:1024F0001A48FEF788FC0DB000BD10B5044607234E
:10250000012221461548FEF7BEFC1448FEF717FDD0
:1025100000BF02211148FEF733FE0028F9D00F4812
:10252000FEF749FD10BD2DE9F04107460C46002598
:10253000002608E03846FFF7E0FF05440520FFF7D6
:1025400047FD701CC6B2A642F4DBB5FBF4F080B2C6
:10255000BDE8F08100080240000002400020014078
:102560001CB501212020FFF753F9012000908DF8C0
:10257000040000208DF8060003208DF805000220DD
:102580008DF8070069460448FEF7A4FE01210248C1
:10259000FEF71EFF1CBD00000014024070B504468B
:1025A000002520E004F0800020B12021F948FEF74A
:1025B0000DFF03E02021F748FEF70AFF1420FFF784
:1025C000BFFC0121F348FEF703FF1420FFF7B8FC1E
:1025D0000121F048FEF7FAFE1420FFF7B1FC600677
:1025E000040E681CC5B2082DDCDB70BD70B5044656
:1025F0000D467E2000EA44064FF40061E648FEF7EF
:10260000E7FE3046FFF7CAFF2846FFF7C7FF4FF443
:102610000061E148FEF7DAFE70BD70B500251CE0F0
:102620006006040E0121DB48FEF7D2FE1420FFF7FE
:1026300087FC0421D748FEF7AFFE012801D144F002
:1026400001041420FFF77CFC0121D248FEF7BEFEF6
:102650001420FFF775FC681CC5B2082DE0DB20468E
:1026600070BD70B504467E2000EA440040F080054D
:102670004FF40061C848FEF7ABFE2846FFF78EFF17
:10268000FFF7CBFF06464FF40061C348FEF79EFEFE
:10269000304670BD70B505460C462846FFF7E1FF91
:1026A000064646EA04012846FFF7A0FF70BD70B554
:1026B00005460C462846FFF7D4FF064626EA0401E5
:1026C0002846FFF793FF70BD2DE9FE4F064688466A
:1026D00091469A46DDF830B0022002900020019029
:1026E00000900C2E06D00E2E09D112200190102041
:1026F000009005E0772001903020009000E000BFBE
:1027000000BF019840F080010220FFF76FFF802199
:102710000420FFF7CCFF00210120FFF767FF802195
:102720000A20FFF7B7FF002505E018F8051009207B
:10273000FFF75CFF6D1C4D45F7D331460120FFF7D5
:1027400055FF0C2E03D180210D20FFF7A3FF4FF47E
:102750007A7500BF0420FFF784FF04466D1E35B173
:1027600004F0010018B9009820400028F2D0802120
:102770000D20FFF79CFF95B30620FFF772FF00F0D6
:102780001B0068BB002002900198204000F001006F
:1027900008B1012002900C2E24D10A20FFF761FF1E
:1027A00004460C20FFF75DFF00F007072FB1601E05
:1027B00007EBC000CBF8000002E0E000CBF800001F
:1027C00004B90124122C00DD1224002505E00920A3
:1027D000FFF747FF0AF805006D1CA542F7D301E09B
:1027E0000220029080210C20FFF754FF00210120DD
:1027F000FFF7FCFE0298BDE8FE8F2DE9F041074689
:102800008846154604210520FFF751FF00210120CD
:10281000FFF7ECFE80210A20FFF73CFF002405E0D3
:10282000395D0920FFF7E2FE601CC4B24445F7DBC6
:1028300003210120FFF7DAFEFF2400BF0520FFF788
:1028400010FF0646601EC4B21CB106F0040000284A
:10285000F4D02220FFF705FF28702120FFF701FFA9
:102860006870BDE8F081F0B587B005460E463020AF
:102870008DF808008DF809500DF10A02022102A816
:10288000FFF7BBFF01A802AB042202A900900C20B5
:10289000FFF71AFF074667B90198902809D100246D
:1028A00004E002A8005D3055601CC4B2102CF8DBB7
:1028B00000E00227384607B0F0BD2DE9F04387B0AD
:1028C00006460F46904699468DF808608DF80970C7
:1028D000002406E018F8041002AAA01C1154601C81
:1028E000C4B2062CF6DB002407E019F8041002AA93
:1028F00004F108001154601CC4B2062CF5DB01A8D9
:1029000002AB0C2202A900900E20FFF7DDFE054667
:102910002DB90820FFF7A5FE00F0080000B9022538
:10292000284607B0BDE8F08370B588B0054693200F
:102930008DF80C0070208DF80D0000208DF812002D
:1029400000240BE0295D03AAA01C11549DF812007D
:10295000295D48408DF81200601CC4B2042CF1DBE4
:102960000DF11302072103A8FFF747FF08210846CE
:10297000FFF79DFE02A803AB092203A900900C20DB
:10298000FFF7A2FE06464EB90298182806D1002687
:1029900005E000000000024000140240022630461C
:1029A00008B070BD30B50146002046E00A5CD31780
:1029B00002EB13731B11FE4C04F81030224612F880
:1029C0001020092A07DD224612F81020373223464C
:1029D00003F8102006E0F64A12F810203032F44BCB
:1029E00003F810200A5CD31702EB13731B11A2EB40
:1029F0000313012404EB4004ED4D2B55012202EB9F
:102A000040022B469A5C092A0ADD012202EB4002B1
:102A10009A5C3732012303EB40032C46E2540AE070
:102A2000012202EB4002E24B9A5C3032012303EBBD
:102A30004003DF4CE254421CD0B20428B6DB002233
:102A4000DB4B1A7230BDF0B587B005460027082170
:102A50000846FFF72CFE00210D20FFF7C7FD80215F
:102A60000E20FFF724FE93208DF8080020208DF81B
:102A7000090001A802AB022202A900900C20FFF776
:102A800023FE064686B9002407E002A8005D28550B
:102A900002A8005D4740601CC4B2042CF5DB02A80C
:102AA000005DB84200D0022680210E20FFF7F2FD23
:102AB000304607B0F0BD70B588B005460C46082119
:102AC0000846FFF7F4FD07210D20FFF78FFD0321D6
:102AD0001420FFF7DFFD8DF80C5002A803AB012294
:102AE00003A900900C20FFF7EFFD06464EB90298AF
:102AF000102806D19DF80C0020709DF80D00607024
:102B000000E00226304608B070BD10B5A949522039
:102B1000FFF7D1FFA84908700846007830B90220B5
:102B20000870A648FFF78FFFA3490870A2480078F5
:102B300000287DD1A249086010E00020A14908606A
:102B40000120FFF745FA01209F49C1F88002FFF7F5
:102B50003FFA9B480068401C994908609848006803
:102B6000C828EADB0220944908709448FFF71AFF4E
:102B70009248007895490978884214D18F48407866
:102B80009249497888420ED18C4880788F4989785B
:102B9000884208D18948C0788C49C978884202D1D6
:102BA00001208B490870854800788A490978884255
:102BB00014D1824840788749497888420ED17F48AD
:102BC000807884498978884208D17C48C0788149D6
:102BD000C978884202D101207F490870774800787F
:102BE0007E490978884214D1744840787B494978F5
:102BF00088420ED17148807878498978884208D116
:102C00006E48C0787549C978884202D1012074495C
:102C100008706A48007873490978884216D1674875
:102C2000407870494978884210D16448807800E043
:102C30002CE06C498978884208D16048C07869499D
:102C4000C978884202D10120674908705B48007842
:102C500066490978884214D15848407863494978D0
:102C600088420ED15548807860498978884208D1D9
:102C70005248C0785D49C978884202D101205C4938
:102C800008704E48FFF750FE4B4908704A480078DC
:102C900050B9022048490870484B564A0921602023
:102CA000FFF70BFE444908704348007848B90220FA
:102CB00041490870504951480078FFF7D4FD3E491A
:102CC00008703D48007828B902203B49087064200C
:102CD000FFF77EF910BD10B51420FFF7C2FC0446C3
:102CE00004F0030018B903211420FFF7D3FC10BD32
:102CF00010B50446412C24D108210846FFF7D7FC23
:102D00003D211120FFF772FC86211720FFF76EFC92
:102D10007F212620FFF76AFC1E212D20FFF766FC8D
:102D200000212C20FFF762FC8D212A20FFF75EFC9A
:102D30003E212B20FFF75AFC0220FFF701F9FFF795
:102D4000CAFF10BD10B502212D48FEF73FFB012040
:102D5000FFF7F6F802212A48FEF73AFB0120FFF7B9
:102D6000EFF802212648FEF731FB0120FFF7E8F8D3
:102D70000F210120FFF73AFC00BF0120FFF771FC93
:102D800000F010000028F8D10120FFF7D9F83D210C
:102D90001120FFF72BFC1E212D20FFF727FC00211F
:102DA0002C20FFF723FC8D212A20FFF71FFC29E0B0
:102DB000E80000204C000020880000204E00002089
:102DC0008C00002080824242008042425800002055
:102DD000520000205C000020530000206000002012
:102DE00054000020640000205500002068000020EE
:102DF000560000206C0000203807002089000020C9
:102E0000000402403E212B20FFF7F0FB402115205B
:102E1000FFF7ECFB10BD1CB501210846FEF7F8FCDE
:102E2000012000908DF8040000208DF8060002209B
:102E30008DF8050069467448FEF74CFA04200090AE
:102E400000208DF8040002208DF8050069466E48C8
:102E5000FEF740FA2020009001208DF804000020A9
:102E60008DF8060002208DF8050069466648FEF7D9
:102E700031FA01210220FEF7CBFC02200090012054
:102E80008DF8040000208DF8060002208DF8050062
:102E900069465E48FEF71EFA01212020FEF7B8FCC5
:102EA0004FF40060009001208DF8040000208DF8A0
:102EB000060002208DF8050069465548FEF70AFA1B
:102EC0001CBD10B5FFF7A7FF02215048FEF77EFAA0
:102ED0004FF400614E48FEF779FAFFF733FF4120C7
:102EE000FFF706FF10BD10B503211420FFF7DFFB2D
:102EF00010BDF0B587B006460F46A0208DF808003B
:102F00008DF809600DF10A02022102A8FFF775FC95
:102F100001A802AB042202A900900C20FFF7D4FB09
:102F2000054645B90198042805D19DF8080000F030
:102F30000F000A2800D0022535BB1022394602A80E
:102F400004F05AFE002404E0385D02A90855601C14
:102F5000C4B2102CF8DB06AA102102A8FFF74DFC22
:102F600001A802AB122202A900900C20FFF7ACFBD3
:102F7000054645B90198042805D19DF8080000F0E0
:102F80000F000A2800D00225284607B0F0BD00B582
:102F900087B050208DF8080000208DF809000DF151
:102FA0000A02022102A8FFF728FC01A802AB0422B2
:102FB00002A900900C20FFF787FB002007B000BD9E
:102FC000F8B504460D4617461E4600200090694697
:102FD0005220FFF770FD6846FFF735FD2046FFF7EA
:102FE000A3FC23462A4610216020FFF766FC27B188
:102FF00031461020FFF737FC03E031461020FFF781
:1030000078FFFFF7C4FFF8BD000002400004024053
:103010000014024000E0401E0028FCD1704770B54B
:1030200004460D462DB1224640213C2000F08EFD85
:1030300004E0224600213C2000F088FD70BD70B500
:1030400000241CE004F1B001C8B20021FFF7E7FF43
:1030500000210846FFF7E3FF00211020FFF7DFFF04
:10306000002508E0FE4901EBC411485D0121FFF78E
:10307000D6FF681CC5B2802DF4DB601CC4B2082CDE
:10308000E0DB70BD10B500F037FC10BD10B5FFF7E8
:10309000F9FF4FF6FF70FFF7BDFF0021AE20FFF7ED
:1030A000BEFF00210846FFF7BAFF00211020FFF7FE
:1030B000B6FF00214020FFF7B2FF0021B020FFF74C
:1030C000AEFF00218120FFF7AAFF0021FF20FFF7BC
:1030D000A6FF0021A120FFF7A2FF0021A620FFF7F5
:1030E0009EFF0021A820FFF79AFF00213F20FFF755
:1030F00096FF0021C820FFF792FF0021D320FFF7A1
:103100008EFF00210846FFF78AFF0021D520FFF738
:1031100086FF00218020FFF782FF0021D820FFF7E3
:103120007EFF0021F120FFF77AFF0021DA20FFF770
:1031300076FF00211220FFF772FF0021DB20FFF74E
:103140006EFF00214020FFF76AFF00218D20FFF76E
:1031500066FF00211420FFF762FF0021AF20FFF778
:103160005EFF10BD70B500241CE004F1B001C8B2D0
:103170000021FFF754FF00210846FFF750FF002110
:103180001020FFF74CFF002508E0B54901EBC41102
:10319000485D0121FFF743FF681CC5B2802DF4DBB9
:1031A000601CC4B2082CE0DB70BD70B5064600247C
:1031B0000BE0002505E0AA4800EBC4104655681C4A
:1031C000C5B2802DF7DB601CC4B2082CF1DBA5482A
:1031D0000078012801D1FFF7C5FF70BD10B5FFF7DA
:1031E00055FF0020FFF7E1FF00209F4908800120E4
:1031F000488000208880C88001209C490880488041
:10320000002088800120C88010BD10B500218D20CD
:10321000FFF705FF00211420FFF701FF0021AF2079
:10322000FFF7FDFE10BD10B500218D20FFF7F7FE62
:1032300000211020FFF7F3FE0021AE20FFF7EFFE84
:1032400010BD002087490870704710B501208549DE
:103250000870FFF787FF10BD2DE9FF4780460C4639
:10326000914683A103C9CDE9020183A103C9CDE938
:1032700000012046E11704EB5171C1F3C70708F0C4
:10328000FF06774800EBC710855DB9F1000F0AD142
:103290002046E11704EB5171C910A4EBC1011DF8E0
:1032A00001100D4009E02046E11704EB5171C910EF
:1032B000A4EBC10102AA515C0D43694800EBC710A1
:1032C000855568480078012814D107F1B001C8B2CB
:1032D0000021FFF7A4FE06F00F000021FFF79FFE7C
:1032E000102101EB16100021FFF799FE012128465D
:1032F000FFF795FEBDE8FF872DE9FF4F9BB0904695
:103300009946B9F80000012807D10C2005900C2738
:1033100018245B4802905B4E06E0102005901027B1
:10332000202459480290594E93E098F800001A90D2
:103330001A98802816DA019404EBD4704FEA600CD6
:1033400000941A9B029803FB0C0104EBD47042100A
:1033500007A804F051FC384607EBD071C1F34701D0
:10336000069131E008F10100804600781990199823
:1033700000B973E04FF0000A23E0A01C0AFB00F53F
:103380000AF1010000F0FF0A715D1A9881420BD129
:10339000681C315C1998814206D1AD1C7119224616
:1033A00007A804F029FC0DE0705DFF2809D1681C16
:1033B000305CFF2805D1FF22214607A804F093FCCA
:1033C00000E0DAE700BF06971C9803904FF0000A70
:1033D00032E01B9804904FF0000B22E0069840006A
:1033E00090FBF7F000FB0AF000EBDB0007A9085C9C
:1033F0000BF0070280211141084030B199F80220FA
:10340000DDE90310FFF728FF05E099F80420DDE966
:103410000310FFF721FF0498401C80B204900BF1C9
:10342000010B06988345D9D30398401C80B20390C2
:103430000AF1010000F0FF0A05988245C9DBB9F8DE
:103440000610069801441B98084480B21B9008F1AE
:10345000010898F8000000287FF467AF00BF17E06C
:1034600048070020A00000209800002090000020C5
:103470000102040810204080FEFDFBF7EFDFBF7F54
:10348000ECCC000894C60008E0D200089AC70008F7
:103490001FB0BDE8F08F70B502460846CE1701EBAD
:1034A0005676C6F3C704D5B2FC4800EBC410435DA2
:1034B000CE1701EB5676F610A1EBC6061E400EB1F4
:1034C000012070BD0020FCE72DE9F04F87B00446D5
:1034D0000D4616461F4629462046109AFFF7BCFEA9
:1034E000B44204D1BD4202D107B0BDE8F08F002044
:1034F0000290A64202DBA6EB040801E0A4EB06085A
:10350000AF4202DBA7EB050901E0A5EB0709C845BF
:103510000CDA0121029120462C46054630463E46F3
:1035200007461FFA88F0C846814600BFA64201DD63
:10353000012001E04FF0FF300690AF4201DD012095
:1035400001E04FF0FF300590A24601954FEA490097
:103550000490A9EB0800400003900498A0EB080B2E
:103560001EE0BBF1000F02DA0498834405E00599E0
:1035700001980844019003988344029838B11FFAD7
:103580008AF1019A90B2109AFFF766FE06E0019A5E
:1035900091B21FFA8AF0109AFFF75EFE06988244F5
:1035A000B245DED100BF9FE72DE9F84305460E4640
:1035B0001746984600240FE004F1010CCDF8008076
:1035C00036F81C3035F81C2036F8141035F8140085
:1035D000FFF77AFF601C84B2781EA042ECDCBDE8E5
:1035E000F8832DE9F84304460D4616461F46DDF8DC
:1035F0002080E019401E82B22B4629462046CDF895
:103600000080FFF761FFA819401E83B2E019401E39
:1036100082B2A819401E81B22046CDF80080FFF783
:1036200053FFA819401E83B2224629462046CDF8F2
:103630000080FFF749FFA9198BB2E119491E8AB230
:10364000E119491E88B22946CDF80080FFF73CFFFA
:10365000BDE8F8832DE9F04706460F4690469A46A6
:103660000320A0EB48090024454646E07A1991B2B0
:10367000321990B25246FFF7EFFD7A1B91B2321920
:1036800090B25246FFF7E8FD7A1991B2321B90B220
:103690005246FFF7E1FD7A1B91B2321B90B25246BF
:1036A000FFF7DAFD3A1991B2721990B25246FFF75C
:1036B000D3FD3A1B91B2721990B25246FFF7CCFD7E
:1036C0003A1991B2721B90B25246FFF7C5FD3A1BF0
:1036D00091B2721B90B25246FFF7BEFDB9F1000FD6
:1036E00004DA062000EB8400814405E0601B0A2117
:1036F00001EB800081446D1E641CAC42B6D9BDE86C
:10370000F0872DE9F04706460F4690469946DDF8CA
:1037100020A000240FE0002509E09AF800207B1982
:1037200099B2331998B2FFF797FD681C85B24545E9
:10373000F3DB601C84B24C45EDDBBDE8F0872DE97E
:10374000FE4F8046894616469A4609273546002090
:103750008DF80A000A2410E00A20B5FBF0F100FB06
:1037600011503030611E0DF801000A20B5FBF0F554
:103770000DB1781EC7B2601EC4B2BC4201DD01208B
:1037800000E00020002C01DD012100E000210840C4
:103790000028E1D10DEB0402534649464046FFF7AD
:1037A000ABFDBDE8FE8F10B50246012000E050439E
:1037B0000B1EA1F10104E1B2F9D110BD2DE9F04FCA
:1037C0002DED0A8B85B080468946B0EE408AF0EE3A
:1037D000608A15469A46092751EC180B08F0D0FA72
:1037E000049029460A20FFF7DEFF834608F00CFB11
:1037F00041EC1A0B049808F0F0FA41EC1C0B53EC66
:10380000182B08F085FC41EC1B0B53EC1A2B08F02D
:103810004BFB41EC190B08F083FA064600208DF8AB
:103820000E00002406E03020C4F1090101AA505422
:10383000601CC4B2AC42F6DB0A2411E00A2096FBFD
:10384000F0F100FB11603030C1B2601E01AA1154CA
:103850000A2096FBF0F60EB1781EC7B2601EC4B205
:10386000BC4201DD012000E00020002C01DD01212F
:1038700000E0002108400028E0D12E20C5F1090118
:1038800001AA5054C5F10900C4B2C5F10800C7B27D
:1038900051EC180B08F074FA064613E048070020B4
:1038A0000A2096FBF0F100FB11603030C1B2601EBF
:1038B00001AA11540A2096FBF0F60EB1781EC7B289
:1038C000601EC4B2BC4201DD012000E00020002CDB
:1038D00001DD012100E0002108400028E0D101A81D
:1038E0000219534649464046FFF706FD05B0BDECB8
:1038F0000A8BBDE8F08F00001CB5A820FEF706FB80
:1039000001210846FDF784FF5020009001208DF82A
:10391000040000208DF8060002208DF8050001202B
:103920008DF807006946E048FDF7D4FC0120DF4927
:103930000860DF49C1F898021CBD10B5DA4800687C
:1039400020F44050D84908600846006840F4805090
:1039500008600120D54908310860D549C1F89002B6
:103960000420FEF7EDFA0020D04908310860042059
:10397000FEF7E6FA0020CE49C1F8900210BD10B55E
:10398000C948006820F44050C749086008460068EC
:1039900040F4805008600020C4490860C449C1F860
:1039A00098020420FEF7CCFA0120C0490860C04903
:1039B000C1F898020420FEF7C3FA10BD10B5002428
:1039C000B948006820F44050B749086008460068CC
:1039D00008600120B54908310860FEF7B1FA0120FE
:1039E000B349C1F89002FEF7ABFA07E0601CC4B21D
:1039F000FA2C03DDFFF7C3FF012010BDAB48783878
:103A000000680028F2D1A949086000BFF5E710B5A9
:103A10000020A6490860A448006820F44050A2494C
:103A200008600846006840F4805008600020A04903
:103A3000C1F898020220FEF783FA01209B49086032
:103A40000220FEF77DFA00209949C1F8900210BDCE
:103A500010B50020954908609348006820F4405054
:103A6000914908600846006840F4805008600120D1
:103A70008F49C1F898020220FEF762FA01208B49B3
:103A800008600220FEF75CFA00208949C1F8900224
:103A900010BD70B504468448006820F44050824947
:103AA00008600846006840F48050086000207F49A4
:103AB0000860002517E0E0097C49083108606006CD
:103AC000040E0220FEF73CFA01207949C1F8900269
:103AD0000220FEF735FA0020744908600220FEF744
:103AE0002FFA681CC5B2082DE5DB70BD70B5054620
:103AF000002600246C48006820F440506A490860A1
:103B000008460068086000BF16E0002067490860AA
:103B10000220FEF715FA01206549C1F890026006FF
:103B2000040E62487838006808B1601CC4B20120F5
:103B3000FEF706FA701CC6B2082EE6DB15B9FFF7D1
:103B400087FF01E0FFF763FF204670BD70B50446B4
:103B50000D461646FFF7F1FE002141EA4401C8B2C6
:103B6000FFF797FFFFF72AFF18B1FFF708FF0120C3
:103B700070BD2846FFF78DFFFFF720FF3046FFF7A7
:103B800088FFFFF71BFFFFF7FAFE0020F0E770B594
:103B900004460D46FFF7D1FE002141EA4401C8B2B8
:103BA000FFF777FF2846FFF774FFFFF707FFFFF7E0
:103BB000C4FE012101EB4401C8B2FFF76AFFFFF721
:103BC000FDFE0020FFF792FF0646FFF7D8FE3046C5
:103BD00070BD2DE9F04105460E4617469846FFF7A1
:103BE000ACFE002141EA4501C8B2FFF752FFFFF7E2
:103BF000E5FE20B1FFF7C3FE0120BDE8F0813046AD
:103C0000FFF747FFFFF7DAFE00240CE018F8040086
:103C1000FFF73FFFFFF7D2FE18B1FFF7B0FE01201C
:103C2000EBE7601CC4B2BC42F0DBFFF7A8FE00204B
:103C3000E3E72DE9F04106460F4614461D46FFF71F
:103C40007CFE002141EA4601C8B2FFF722FFFFF7E0
:103C5000B5FE20B1FFF793FE0120BDE8F0813846A4
:103C6000FFF717FFFFF7AAFEFFF767FE012101EB41
:103C70004601C8B2FFF70DFFFFF7A0FE0DE0012CD3
:103C800004D10020FFF732FF287003E00120FFF786
:103C90002DFF2870601EC4B26D1C002CEFD1FFF701
:103CA0006EFE0020D9E70000000002409002404272
:103CB00000004042F7480068F649496808447047E8
:103CC000014609B900207047087B102801D1012066
:103CD000F9E70020F7E700B502461046FFF7F0FFCE
:103CE00008B9002000BD1069FCE7014609B90020B1
:103CF0007047087B082801D10120F9E70020F7E789
:103D000000B502461046FFF7F0FF10B99FEDE20B39
:103D100000BD92ED060BFBE708B50F20072301223B
:103D2000DFA10090E14803F049FCE04808BD70B510
:103D300004460D4604B10DB9012070BDAC4201D15D
:103D40000020FAE705E0207808B90020F5E7641CB8
:103D50006D1C207803F0FFFB0646287803F0FBFB80
:103D60008642F0D0207803F0F6FB0646287803F070
:103D7000F2FB301AE1E72DE9F04104460D4600263A
:103D8000002714B90020BDE8F081204603F0CAFEE8
:103D9000461C30462968884707460FB90020F2E7DD
:103DA00032462146384603F027FF3846EBE738B95C
:103DB000BF49C04A1160C0495160C0499160704715
:103DC000BB49BC4A1160016809B101681160BA4978
:103DD000B84A5160416809B1416851600021B54A53
:103DE000916011460968B24A914207D1B1494968C8
:103DF000B14A914202D1B149AE4A916000BFDEE7BB
:103E000070B5044628202168884705461DB1282141
:103E1000284603F070FF284670BD70B504460025A3
:103E200022E02568A08900F4807020B9A06810B154
:103E3000A068FFF7F2FFA08900F4807028B920691C
:103E400018B19C4A206951688847A08900F4007025
:103E500028B9206A18B1974A206A5168884795485E
:103E60004168204688472C46002CDAD170BD2E20B0
:103E70007047F0B52DED028B91B006460C469FEDD4
:103E8000900BB0EE408AF0EE608A00201090FFF7B1
:103E9000EEFF074600250CB1206820B9002011B0C4
:103EA000BDEC028BF0BD00253CE0A1682068084411
:103EB000405D342820D00ADCA0F12B0009282ED246
:103EC000DFE800F0202D212A2D16171819003828B8
:103ED00016D006DC352810D036280FD037281ED152
:103EE0000DE039280DD045280FD0652817D10BE0FB
:103EF00000BF00BF00BF00BF00BF00BF00BF00BFCA
:103F000000BF00BF00BF00BF00BFA1682068084419
:103F1000405D0DF8050003E00DF8057000E00AE0D3
:103F200000BF6D1C3F2D05D224B1A06828446168F4
:103F30008842BAD300BF00200DF8050010A96846DA
:103F400007F08EFAB0EE408AF0EE608A684610996B
:103F5000884201D10020A2E786ED068B9FED5A0B27
:103F600053EC102B51EC180B08F09CF803D86FF0B1
:103F70000040706111E09FED560B53EC102B51EC9B
:103F8000180B07F055FF03D84FF00040706104E0B4
:103F900051EC180B07F0C4FE70610820F060A068B7
:103FA0006A461099891A0844A060012077E710B585
:103FB0002DED028B0446B0EE408AF0EE608A9FED54
:103FC000420B53EC102B51EC180B08F06BF803D894
:103FD0006FF00040606111E09FED3D0B53EC102B42
:103FE00051EC180B07F024FF03D84FF0004060613C
:103FF00004E051EC180B07F093FE6061B0EE480A44
:10400000F0EE680A84ED060BBDEC028B10BD10B516
:104010000446284841682046884710BD2DE9F041F4
:1040200004460E460025207B00F0100018B1A08940
:1040300000F4807010B10020BDE8F081304603F03C
:1040400071FD0746206903F06DFD874205D83146B2
:10405000206903F043FD2069EEE716493046FFF77B
:104060008AFE05460DB90020E6E7206910B12069F7
:10407000FFF7CDFF25612846DEE72DE9F041044634
:104080000D46002600270CB1206810B90020BDE8BD
:10409000F08121E0A4000020000000000000F87F73
:1040A00025692E25692E256900000000480B002097
:1040B000F3730008AC000020517400089F740008DE
:1040C00000000000000000000000C0FFFFFFDF4113
:1040D000000000000000E0C1606830B1D4E90110C8
:1040E000884202D30020BDE8F081B5F1004F01D332
:1040F0000020F8E7A068401C05446068A84203D38C
:10410000A16820680844EEE7206908B10020EAE7CA
:10411000B5F1804F07D3B5F1004F02D26FF00047E1
:1041200002E00020DFE76F00206A60B13946226AB2
:10413000206890470646DEB9E1692068884700207C
:1041400060602060CFE73846A1698847064636B9E7
:10415000E16920688847002060602060C3E7A068AC
:10416000421C3046216803F047FDE169206888471A
:1041700067602660A0683044B5E770B50446002546
:104180000CB1206800B970BDA168206845182846A8
:1041900003F0C8FCA1680844A06000BFF3E710B5B5
:1041A0002DED0C8BB0EE409AF0EE609AB0EE418AA5
:1041B000F0EE618AB0EE480AF0EE680A06F068F99F
:1041C000B0EE40BAF0EE60BAB0EE490AF0EE690A1D
:1041D00006F05EF9B0EE40CAF0EE60CA53EC1B2B5D
:1041E00051EC1C0B07F05EFF06D2B0EE490AF0EE70
:1041F000690A06F04DF905E0B0EE480AF0EE680AEB
:1042000006F046F9B0EE40AAF0EE60AA9FEDF70B7B
:1042100053EC102B51EC1A0B07F046FE41EC1B0B34
:1042200053EC182B51EC190B08F04AF841EC1D0B1C
:10423000B0EE4D0AF0EE6D0A06F02AF9B0EE40CA73
:10424000F0EE60CA53EC1B2B51EC1C0B07F0F0FD99
:1042500003D80120BDEC0C8B10BD0020FAE72DE93E
:10426000F0432DED048B8BB007460D464FF0000850
:1042700097ED060BB0EE408AF0EE608A002600242F
:104280001C2104A803F037FDFFF7F1FD81461FED67
:10429000740B8DED020B2DB900200BB0BDEC048B1F
:1042A000BDE8F0838DED008BDDE900210AB101222C
:1042B00000E0002241EA020020F00041CD4A511AFC
:1042C000C90F61B98DED008B51000198B1EB400F22
:1042D00003D1009808B9012000E0002028B1C6A150
:1042E00004A803F06BF906462EE0786907F075FD27
:1042F00041EC190B53EC182B07F0D6FC06D1C0A1EA
:1043000004A87A6903F05AF906461DE053EC182B0D
:10431000BCA104A803F052F9064602AABBA104A856
:1043200003F0FCFA012808D1B0EE481AF0EE681A42
:104330009DED020BFFF733FF30B953EC182BB4A1FE
:1043400004A803F03BF90646002E01DB192E01DD1F
:104350000020A2E7711C2846FFF78FFE8046B8F1C7
:10436000000F01D1002098E700240DE004A8005DB3
:10437000484503D12E2008F8040004E004A8005D9D
:1043800008F8040000BF641CB442EFD3002008F812
:104390000400A8683044A86001207EE7024600239C
:1043A000002100BF23E0505C302806DB505C392838
:1043B00003DC505C3038034415E0505C412806DBD8
:1043C000505C462803DC505C373803440BE0505CFB
:1043D000612806DB505C662803DC505C57380344D8
:1043E00001E000207047032900D21B01491C042969
:1043F000D9D31846F6E72DE9FF5F80468946154672
:1044000000240026C24600200390834602900190BB
:10441000A9EB0A00062800DA81E00AF10200FFF7A2
:10442000BDFF0646B6F55C4F03D3B6F5604F00D22C
:1044300075E0B6F5584F29D3B6F55C4F26D20AF190
:104440000607002000900C200290A9EB0700062828
:1044500000DA64E038785C2802D17878752800D0DA
:104460005DE0B81CFFF79AFF00900098B0F55C4F34
:1044700003D30098B0F5604F00D350E0C6F30901B4
:10448000009861F39F2000F5803402E0062002903E
:104490003446802C02D20120039018E0B4F5006F5E
:1044A00004D202200390C020019010E0B4F5803FB8
:1044B00004D203200390E020019008E0B4F5881FA7
:1044C00004D204200390F020019000E027E003983C
:1044D000401E00F0FF0B0BE004F0BF0040F0800036
:1044E000296801F80B00A409ABF1010000F0FF0BF3
:1044F000BBF1000FF0DC0398012804DD0198204394
:104500002968087003E004F07F00296808702968B2
:10451000039808442860029804B0BDE8F09F00208A
:10452000FAE72DE9F84F80460C46A1682068084458
:10453000461CA16820680844451C00200090002704
:10454000A1682068405C222800D0BCE04FF0000A3F
:10455000D1460DE028785C2809D1681C2168401AF2
:104560006168884200D3AEE009F101096D1C6D1C41
:104570002068281A6168884202D228782228E9D166
:104580002068281A6168884202D22878222800D040
:1045900099E0A16820680844281AA0EB090A0AF1EA
:1045A000010021698847074607B98CE0009777E04A
:1045B00030785C2807D016F8010B00990870009835
:1045C000401C00906CE04FF00209A81B012800DAA3
:1045D00079E0707866282FD01EDC222848D02F285A
:1045E00048D05C2845D0622856D11EE0000000006B
:1045F0000000B03C0000F07F6E756C6C00000000A5
:104600002564000025312E3135670000256C6700D8
:1046100025312E31376700006E2814D0722819D04A
:1046200074281ED0752837D12BE008200099087017
:104630000098401C009030E00C2000990870009811
:10464000401C009029E00A20009908700098401C46
:10465000009022E00D20009908700098401C009006
:104660001BE00920009908700098401C009014E09D
:1046700000BF00BF7078009908700098401C00903F
:104680000BE06A4629463046FFF7B5FE8146B9F190
:10469000000F00D117E000E015E000BF4E4400BF5E
:1046A000AE4285D30020009908701020C8F80C0095
:1046B000C8F810702068281AA060A068401CA0608C
:1046C0000120BDE8F88F17B138466169884716B1F7
:1046D0002068301AA0600020F3E72DE9F047074674
:1046E0008A46002400260025A046A146BAF1000F04
:1046F00002D10020BDE8F0876FB903215046FFF7D3
:10470000BCFC06460EB90020F4E7FCA1304603F0DD
:10471000E5F90120EEE73C4622E020780C2811D094
:1047200006DC08280DD009280FD00A2810D10AE08D
:104730000D2809D0222802D05C2809D100E000BF52
:1047400000BF00BF00BF00BF00BF09F1010905E0C5
:104750002078202801DA09F1050900BF00BF641C98
:1047600020780028D9D1E01B00EB090808F10301EB
:104770005046FFF782FC06460EB90020BAE7B9F1B1
:10478000000F0FD12220307042463946701C03F0D2
:1047900033FA222108F1010031540021401C315428
:1047A0000120A7E722203070751C3C463DE02078B0
:1047B0001F2808DD2078222805D020785C2802D028
:1047C000207828702FE05C2005F8010B20780C2859
:1047D00015D006DC08280FD0092819D00A281AD1CC
:1047E00010E00D2811D0222803D05C2813D12870A6
:1047F00018E02220287015E06220287012E0662060
:1048000028700FE06E2028700CE07220287009E0FC
:104810007420287006E02278B9A1284602F0CEFE66
:104820002D1D00BF00BF641C6D1C20780028BED168
:10483000222108F1010031540021401C3154012093
:1048400058E770B504460D4629462069FFF745FF35
:1048500070BD014609B1086808B90020704719B158
:10486000D1E90120904201D30846F7E702E08868C9
:10487000401C886041B1D1E90120904204D28A688D
:104880000868805C2028F2DDD1E90120904202D145
:104890008868401E88600846E0E710B504461CB1F1
:1048A000206808B1A06808B1002010BD7CB1A068E4
:1048B000001D616888420AD2A26821688818032214
:1048C00091A103F04EF910B9A068C01CA060204669
:1048D000EBE72DE9F04180460C4600260025E06814
:1048E000B0F57A7F02D30020BDE8F081E068401C7B
:1048F000E06044B1D4E90110884204D2A168206884
:10490000405C7B2800D07DE0A068401CA060204671
:10491000FFF79FFF4CB1D4E90110884205D2A1688E
:104920002068405C7D2800D15DE01CB1D4E9011015
:10493000884203D3A068401EA06063E0A068401EC8
:10494000A06000BF04F11000FFF75AFA074607B94C
:1049500058E016B93E463D4602E02F607D603D4678
:10496000A068401CA0602046FFF773FF2146284640
:10497000FFF7D7FD00B945E02046FFF76AFF286939
:1049800028620020286144B1D4E90110884204D291
:10499000A1682068405C3A2800D033E0A068401C41
:1049A000A0602046FFF755FF2146284600F0B4F8E6
:1049B00000B927E02046FFF74CFF44B1D4E90110CD
:1049C000884204D2A1682068405C2C28BAD044B147
:1049D000D4E90110884204D2A1682068405C7D2897
:1049E00000D00FE000BFE068401EE06006B17560D7
:1049F0004020C8F80C00C8F80860A068401CA060FF
:104A0000012071E716B13046FFF707FA00206BE787
:104A10002DE9F04180460C4600250027E068B0F5FE
:104A20007A7F02D30020BDE8F081E068401CE0609E
:104A3000A1682068405C5B2800D067E0A068401C4B
:104A4000A0602046FFF705FF4CB1D4E90110884271
:104A500005D2A1682068405C5D2800D13FE01CB110
:104A6000D4E90110884203D3A068401EA0604DE045
:104A7000A068401EA06000BF04F11000FFF7C0F95D
:104A8000064606B942E015B93546374602E03E60B3
:104A900077603746A068401CA0602046FFF7D9FE2B
:104AA0002146384600F038F800B92FE02046FFF7DD
:104AB000D0FE44B1D4E90110884204D2A168206834
:104AC000405C2C28D8D044B1D4E90110884204D2EB
:104AD000A1682068405C5D2800D017E000BFE06856
:104AE000401EE06005B16F602020C8F80C00C8F8D7
:104AF0000850A068401CA060012094E7222200001A
:104B00007525303478000000EFBBBF0015B1284692
:104B1000FFF783F9002086E770B505460C460CB117
:104B2000206808B9002070BDA4B1A068001D6168AC
:104B300088420FD8A268216888180422AFF2485131
:104B400003F00FF830B90420E860A068001DA060F1
:104B50000120E8E79CB1A068401D616888420ED83A
:104B6000A268216888180522FEA102F0FAFF30B978
:104B70000120E860A068401DA0600120D3E7ACB12F
:104B8000A068001D6168884210D8A2682168881852
:104B90000422F6A102F0E5FF40B90220E8600120FE
:104BA0006861A068001DA0600120BCE76CB1D4E979
:104BB0000110884209D2A1682068405C222804D1F3
:104BC00021462846FFF7ADFCADE7BCB1D4E90110A2
:104BD000884213D2A1682068405C2D2809D0A168C2
:104BE0002068405C302809DBA1682068405C3928D7
:104BF00004DC21462846FFF73CF994E76CB1D4E980
:104C00000110884209D2A1682068405C5B2804D169
:104C100021462846FFF7FCFE85E76CB1D4E9011078
:104C2000884209D2A1682068405C7B2804D12146D3
:104C30002846FFF74EFE76E7002074E72DE9F0479F
:104C40008AB004460E46154698461C2103A803F078
:104C500052F800270020C7490860486004B106B92F
:104C600032E00394049600200590C34A07CA07ABBC
:104C700007C3C148FFF7C4F8074607B924E003A8F3
:104C8000FFF70BFE8246FFF7E4FD814649463846B2
:104C9000FFF742FF00B917E0B8F1000F0BD003A8EF
:104CA000FFF7D7FDDDE90410884203D20599039888
:104CB000405C00B108E01DB10599039808442860E4
:104CC00038460AB0BDE8F08717B13846FFF7A5F8B7
:104CD000C4B1019400200290DDE90410884202D2A0
:104CE0000598029004E0049810B10498401E0290C8
:104CF0001DB1DDE90101084428609E48DDE901128B
:104D000006C000BF0020DCE72DE9F04104460D4657
:104D1000164614B90020BDE8F081204602F002FFDB
:104D2000471C33462A4639462046FFF787FFF2E7FD
:104D300010B50446002211462046FFF7E5FF10BDDE
:104D400070B504460D4600231A4629462046FFF753
:104D500075FF70BD2DE9F04781460C460025002601
:104D6000D9F8087014B90020BDE8F087606908B16F
:104D7000022000E001200646711C2046FFF77DF965
:104D800005460DB90020EFE77B2005F8010BE06830
:104D9000401CE060606910B10A2005F8010BA068B2
:104DA0003044A06069E06069B8B12046E168FFF76F
:104DB00064F905460DB90020D6E74FF0000804E07D
:104DC000092005F8010B08F10108E0684045F7D813
:104DD000D4E902010844A06000BF2146386AFFF709
:104DE0007CFC08B90020BFE72046FFF7C6F96069E0
:104DF00008B1022000E00120064631462046FFF7B8
:104E00003CF905460DB90020AEE73A2005F8010B44
:104E1000606910B1092005F8010BA0683044A0605A
:104E20002146384600F0B6F808B900209CE7204635
:104E3000FFF7A3F9606908B1012000E0002039689C
:104E400009B1012100E000214618711C2046FFF73E
:104E500014F905460DB9002086E7386810B12C20FA
:104E600005F8010B606910B10A2005F8010B00205C
:104E70002870A0683044A0603F68002F93D160691B
:104E800010B1E068401C00E0022001462046FFF718
:104E9000F4F805460DB9002066E7606950B10020BE
:104EA00003E0092105F8011B401CE168491E81420D
:104EB000F7D800BF7D2005F8010B00202870E068BE
:104EC000401EE06001204FE72DE9F04107460C4607
:104ED0000025A846BE6814B90020BDE8F081012174
:104EE0002046FFF7CAF805460DB90020F5E75B201C
:104EF0002870A068401CA060E068401CE06028E0CA
:104F00002146304600F046F808B90020E5E7204683
:104F1000FFF733F93068D8B1606908B1022000E0CA
:104F20000120804608F101012046FFF7A6F805465A
:104F30000DB90020D1E72C2005F8010B606910B1F4
:104F4000202005F8010B00202870A0684044A060D4
:104F50003668002ED4D102212046FFF78EF8054690
:104F600075B90BE066616C7365000000747275655D
:104F700000000000A4000020AC0000200020ACE7EE
:104F80005D2005F8010B00202870E068401EE060FD
:104F90000120A2E72DE9F04104460E46002504B1A8
:104FA00016B90020BDE8F081207B10285AD008DC1B
:104FB00001281CD0022829D0042809D0082860D153
:104FC00033E0202853D0402856D0802859D131E0F2
:104FD00005213046FFF751F805460DB90020E1E7FD
:104FE000AFF6EC11284602F079FD0120DAE7062140
:104FF0003046FFF742F805460DB90020D2E7AFF280
:105000009C01284602F06AFD0120CBE705213046CD
:10501000FFF733F805460DB90020C3E7AFF2B4013E
:10502000284602F05BFD0120BCE731462046FFF731
:1050300016F9B7E70027206908B90020B2E7206910
:1050400002F070FD471C39463046FFF716F805465A
:105050000DB90020A6E73A462846216902F0CCFDAA
:1050600001209FE731462046FFF7EBFB9AE73146E8
:105070002046FFF729FF95E731462046FFF76AFEF5
:1050800090E700208EE7F0B589B007460E4614463B
:1050900000252421684602F02EFE4FF4807021681E
:1050A000884700904FF480700190059694E80700BF
:1050B00006AB07C3009800B933E069463846FFF7EE
:1050C00069FF00B92DE06846FFF757F8A06850B1B6
:1050D000029B591C0098A2689047054605B920E03C
:1050E000002000901AE0029A501C2168884705466B
:1050F00005B916E0DDE90130401C834201D2019878
:1051000001E00298401C02462846009902F074FD16
:10511000002002996854009861688847284609B0C1
:10512000F0BD009810B100986168884715B1284615
:10513000616888470020F2E710B50446FB4A012168
:105140002046FFF7A0FF10BD10B50446F74A002126
:105150002046FFF798FF10BD70B58AB006460C4692
:105160001546242101A802F0C6FD002C02DA002019
:105170000AB070BDED48016820468847019001984B
:1051800008B90020F4E702940020039005900695EA
:10519000E64A07CA07AB07C301A93046FFF7FAFE84
:1051A00028B9E24A0198516888470020E0E7019851
:1051B000DEE7F0B589B007460C4615461E462421A9
:1051C000684602F098FD002D00DB14B9002009B0FC
:1051D000F0BD0094019500200290012004900596F6
:1051E000D24A07CA06AB07C369463846FFF7D2FE64
:1051F000EDE701460022002309B9002070478A68C4
:1052000001E05B1C1268002AFBD11846F6E7024653
:105210000B4600210AB900207047916801E05B1E2F
:10522000096809B1002BFAD10846F5E770B50546C3
:105230000C46002C01DA002070BD21462846FFF7FD
:10524000E6FFF9E72DE9F04105460E461746002432
:1052500005B116B90020BDE8F081AC685FB100E08F
:1052600024688CB1206A78B13046216A02F06AFD68
:105270000028F5D108E000E024682CB13046216A0E
:10528000FEF755FD0028F7D10CB1206A08B90020BF
:10529000E1E72046DFE770B504460D4600222946C7
:1052A0002046FFF7CFFF70BD70B504460D460122C2
:1052B00029462046FFF7C6FF70BD70B504460D466F
:1052C00029462046FFF7E7FF08B1012070BD002006
:1052D000FCE701604860704770B505460E46002443
:1052E0000DB9002070BD3046FEF78AFD04460CB9AA
:1052F0000020F7E728222946204602F0C2FC0020C1
:105300002062E06840F48070E0600020606020600F
:105310002046E7E770B505460C46002614B10DB1EE
:10532000A54201D1002070BDAE6826B9AC606460B2
:105330000020206007E0706828B121467068FFF700
:10534000C8FFA86844600120EDE770B504460D462B
:1053500029462046FFF7DEFF70BD70472DE9F04774
:1053600005460E4614461F46DDF820904FF0000813
:10537000C2461DB116B10CB1A54202D10020BDE854
:10538000F087B9F1000F07D03046FFF7E6FF8046FF
:10539000E06840F4007A0CE039463046FEF7EBFC5A
:1053A0008046B8F1000F01D10020E8E7E06820F462
:1053B000007AA08900F4007020B9206A10B1206A38
:1053C00079688847C4F82080C4F80CA02146284694
:1053D000FFF7A0FFD3E7F8B504460D4616460020B8
:1053E000524B3246294600902046FFF7B7FFF8BDE2
:1053F000F8B504460D46164601204C4B3246294668
:1054000000902046FFF7AAFFF8BD70B504460D4690
:105410000CB9002070BD45492846FFF75DFF0646E0
:1054200031462046FFF776FFF4E7F8B504460D460F
:10543000164604B10DB90020F8BD3C493046FFF7CF
:105440004BFF07460020394B3A462946009020463C
:10545000FFF784FFF0E710B53448FEF7D1FC0446AF
:105460000CB10420E060204610BDF8B504460D469E
:10547000FFF7F1FF064600202C4B324629460090EC
:105480002046FFF76BFF08B13046F8BD3046FEF707
:10549000C4FC0020F9E710B52448FEF7B1FC04462F
:1054A0000CB10220E060204610BDF8B504460D4660
:1054B000FFF7F1FF064600201C4B324629460090BC
:1054C0002046FFF74BFF08B13046F8BD3046FEF7E7
:1054D000A4FC0020F9E710B51448FEF791FC04463F
:1054E0000CB10120E060204610BDF8B504460D4621
:1054F000FFF7F1FF064600200C4B3246294600908C
:105500002046FFF72BFF08B13046F8BD3046FEF7C6
:1055100084FC0020F9E770B505460448FEF770FCEE
:1055200004463CB125B1022003E00000AC0000209D
:105530000120E060204670BDF8B505460E461446D1
:105540002046FFF7E8FF07460020FA4B3A4631466F
:1055500000902846FFF702FF08B13846F8BD3846EC
:10556000FEF75BFC0020F9E710B52DED028BB0EEE5
:10557000408AF0EE608AEF48FEF742FC044614B31E
:105580000820E06084ED068B9FEDEB0B53EC102BB5
:1055900051EC180B06F086FD03D86FF000406061F7
:1055A00011E09FEDE70B53EC102B51EC180B06F0BC
:1055B0003FFC03D84FF00040606104E051EC180B51
:1055C00006F0AEFB60612046BDEC028B10BD70B5ED
:1055D0002DED028B82B004460D46B0EE408AF0EE0F
:1055E000608AB0EE480AF0EE680AFFF7BDFF064693
:1055F0000020D04B3246294600902046FFF7AEFEF1
:1056000020B1304602B0BDEC028B70BD3046FEF7D3
:1056100004FC0020F6E770B50546C648FEF7F0FB2F
:1056200004466CB11020E060C2492846FEF7A3FB97
:105630002061206920B92046FEF7EFFB002070BDF5
:105640002046FCE7F8B505460E4614462046FFF70F
:10565000E2FF07460020B74B3A4631460090284605
:10566000FFF77CFE08B13846F8BD3846FEF7D5FB9B
:105670000020F9E770B50546AE48FEF7C1FB0446C9
:105680006CB18020E060AB492846FEF774FB2061D6
:10569000206920B92046FEF7C0FB002070BD2046DF
:1056A000FCE7F8B505460E4614462046FFF7E2FF34
:1056B000074600209F4B3A46314600902846FFF7A8
:1056C0004DFE08B13846F8BD3846FEF7A6FB00206F
:1056D000F9E710B59748FEF793FB04460CB140205C
:1056E000E060204610BDF8B504460D46FFF7F1FF17
:1056F000064600208F4B3246294600902046FFF791
:105700002DFE08B13046F8BD3046FEF786FB00207E
:10571000F9E710B58748FEF773FB04460CB120206B
:10572000E060204610BDF8B504460D46FFF7F1FFD6
:10573000064600207F4B3246294600902046FFF760
:105740000DFE08B13046F8BD3046FEF766FB00207E
:10575000F9E7024602B109B9002070479068884213
:1057600002D0D1E900031860086810B1D1E9003017
:1057700058609068884202D10868906004E0086828
:1057800010B948689368586000204860086008466F
:10579000E3E770B505460C46002C01DA002070BD29
:1057A00021462846FFF733FD064631462846FFF7D7
:1057B000D0FFF4E770B504460D4629462046FFF7B2
:1057C000E8FF0646FEF729FB70BD70B504460D469E
:1057D00029462046FFF75FFD064631462046FFF783
:1057E000B8FF70BD70B504460D4629462046FFF748
:1057F0005BFD064631462046FFF7ABFF70BD70B536
:1058000004460D4629462046FFF7DFFF0646FEF711
:1058100004FB70BD70B504460D4629462046FFF7CF
:10582000E1FF0646FEF7F9FA70BD2DE9F0410646A4
:105830000F4614460025002F02DA0020BDE8F08153
:1058400039463046FFF7E3FC054625B92146304688
:10585000FFF760FDF2E72560686860606C60B06823
:10586000A84201D1B46001E0606804600120E5E76E
:1058700070B506460D4614460EB104B10DB90020B0
:1058800070BDAC4201D10120FAE728682060686849
:105890006060206808B120684460B068A84207D101
:1058A000B0684068B168884200D16460B46007E0C5
:1058B000606808B160680460206808B9B068446036
:1058C0000020286068602846FEF7A7FA0120D7E785
:1058D0002DE9F04105460C461646002C02DA002060
:1058E000BDE8F08121462846FFF791FC0746324685
:1058F00039462846FFF7BCFFF2E72DE9F04107469D
:105900000D4614461E4604B115B90020BDE8F081CD
:10591000A08900F4007020B9206A10B1206AFEF757
:1059200076FB04492846FEF726FA2062206A58B919
:105930000020EBE7AC0000200000C0FFFFFFDF41CC
:10594000000000000000E0C1E06820F40070E060AA
:10595000324629463846FFF775FC804622464146C6
:105960003846FFF785FFD1E770B504460D46164669
:105970000023324629462046FFF7BFFF70BD70B5B1
:1059800004460D4616460123324629462046FFF7B7
:10599000B4FF70BD70B50546F948FEF731FA04460C
:1059A00034B14FF48870E0602846FFF7D6FC2061E0
:1059B000204670BD70B50546F148FEF721FA044651
:1059C00034B14FF4A070E0602846FFF7C6FCA06039
:1059D000204670BD70B50546E948FEF711FA044649
:1059E00034B14FF49070E0602846FFF7B6FCA06039
:1059F000204670BD2DE9F0472DED028B0746884605
:105A000000260025A9460024B8F1000F00DB27B9C5
:105A10000020BDEC028BBDE8F087FFF77AFE04465C
:105A200000261BE057F8260006F0D7F941EC180BCA
:105A3000B0EE480AF0EE680AFFF796FD054625B974
:105A40002046FEF7EAF90020E3E70EB9A56003E07F
:105A500029464846FFF73DFCA946761C0CB1464551
:105A6000E0D31CB1A06808B1A06845602046D0E72B
:105A70002DE9F0472DED028B0746884600260025CC
:105A8000A9460024B8F1000F00DB27B90020BDECC7
:105A9000028BBDE8F087FFF73CFE0446002620E0BD
:105AA00007EB860090ED000A10EE101A084606F08B
:105AB000F1FC41EC180BB0EE480AF0EE680AFFF773
:105AC00053FD054625B92046FEF7A7F90020DEE77D
:105AD0000EB9A56003E029464846FFF7FAFBA94640
