:020000040800F2
:10000000000B00200D5B0008690400086B04000869
:100010006F04000873040008770400080000000063
:100020000000000000000000000000007B04000849
:100030007D040008000000007F040008810400081F
:10004000275B0008275B0008275B0008275B000888
:10005000275B0008275B0008275B0008275B000878
:10006000275B0008275B0008275B0008275B000868
:10007000275B0008275B0008275B0008275B000858
:10008000275B0008275B0008275B0008275B000848
:10009000275B0008275B0008275B0008275B000838
:1000A000275B0008275B0008275B0008275B000828
:1000B000275B00083F550008E3560008275B00084F
:1000C000275B0008275B0008275B0008275B000808
:1000D000275B0008095A0008835A0008275B0008BC
:1000E000275B0008275B0008275B0008275B0008E8
:1000F000275B0008275B0008275B0008275B0008D8
:10010000275B0008275B0008275B0008275B0008C7
:10011000275B0008275B0008275B0008275B0008B7
:10012000275B0008275B0008275B0008275B0008A7
:1001300000F002F800F05FF80AA090E8000C82449A
:100140008344AAF10107DA4501D100F054F8AFF277
:10015000090EBAE80F0013F0010F18BFFB1A43F0A5
:100160000103184770BC000090BC0000103A24BF87
:1001700078C878C1FAD8520724BF30C830C144BF0C
:1001800004680C607047000000230024002500264E
:10019000103A28BF78C1FBD8520728BF30C148BFEA
:1001A0000B6070476E2907F0C984702907F00E852F
:1001B00066290AF0C48565290AF0C18567290AF015
:1001C000BE8561290AF0BD85642907F07B84782902
:1001D00007F0EF84732908F03E83002070471FB5B5
:1001E00008F072FB04000020002109F085FCE060AB
:1001F0001FBD10B510BD08F097FC1146FFF7EFFFCB
:1002000000F047F808F0B5FC03B4FFF7F2FF03BCB9
:1002100005F050FB10B586B0704800687049096859
:10022000704A1268704B1B68CDE90132CDE90310AA
:100230006E486F4B00906F486F4902686F4801F03D
:1002400069FB6F490870084602786EA16E4807F096
:10025000D5FB6D496DA007F0C5FB642005F0FDFAE4
:10026000664972A007F0BEFB72A1774807F07CFDDB
:10027000044604E06FA1744807F076FD0446002CA4
:10028000F8D04FF47A7005F0E8FA00F0E5FF06B018
:1002900010BD8EB005F0A4FA4FF4A06005F056FC36
:1002A0004FF4E13005F014FB4FF4E13005F05CFB56
:1002B00000F0D8F900F0FCF900F026FF00F0DBFFB9
:1002C00001F0F2FA05F05EF901F0DFFF02E0C8206C
:1002D00005F0C3FA04F0EAF80028F8D17DE00A211D
:1002E000084600F03EFA824609F09CFE8046002255
:1002F000564B09F0ABFE06460022554B09F0F4FCC4
:10030000044609F00FFC53490860534951480068FE
:100310000AF0A0FC044651490AF09EFB35490860EA
:1003200000F0F1FC05F002FA2C49086000BF2C4AED
:100330002C492D4804F007F90028F8D1284A29490A
:10034000294804F000F9FA2005F087FA28492748DF
:1003500001F02FFBFFF75EFF34E0214800680AF050
:100360004FF904460D461F4800680AF049F9064651
:100370000F461D4800680AF043F980468946174831
:1003800000680AF03DF982468B461A4800680AF078
:1003900037F9CDE90C0116481449174ACDE900ABED
:1003A000CDE90289CDE90467CDE90645CDE908210B
:1003B0000A902B48DDE90C2305F07CFB4FF47A70A2
:1003C00005F04BFA274801780078401E254A107046
:1003D0000029C2D105201146087080E730000020B6
:1003E000200000201C000020180000203400002005
:1003F00048000020080000200C00002022010020FE
:1004000000000020256400001801002041542B51F9
:100410004D5450554245583D302C302C302C302C0A
:100420002266697265222C25730D0A0025730D0A58
:10043000000000002B514D5450554245583A203091
:100440002C302C3000000000D403002000001440A9
:100450000000904004000020C74BF73E00007A43A4
:100460007CBC00085C000020704700BFFEE700BFB6
:10047000FEE700BFFEE700BFFEE77047704770472A
:10048000704700000CB50020019000906C48006897
:1004900040F480306A49086000BF6948006800F491
:1004A000003000900198401C0190009818B9019804
:1004B000B0F5A06FF1D16248006800F4003010B1CF
:1004C0000120009001E0002000900098012843D115
:1004D0005C48006840F010005A490860084600680F
:1004E00020F0030008600846006840F00200086041
:1004F000534840685249486008464068486008468A
:10050000406840F4806048600846406820F47C10F1
:1005100048600846406840F4E810486008460068B3
:1005200040F08070086000BF4548006800F000702F
:100530000028F9D04248406820F003004049486054
:100540000846406840F00200486000BF3C484068F0
:1005500000F00C000828F9D10CBD10B5FFF792FF90
:1005600010BD10B53648006840F0010034490860FD
:1005700008464068344908403149486008460068E8
:10058000324908402E4908600846006820F480205F
:1005900008600846406820F4FE0048604FF41F00E1
:1005A0008860FFF7DAFF4FF000602949086010BD4E
:1005B00010B5002100200022214B5B6803F00C01E4
:1005C00021B1042906D0082928D107E0214B224C6B
:1005D000236027E01F4B204C236023E0184B5B680F
:1005E00003F47010164B5B6803F48032022303EBB4
:1005F000904022B9194B4343174C23600DE0104B38
:100600005B6803F4003323B1144B4343124C236063
:1006100003E0104B4343104C236003E00D4B0E4CA2
:10062000236000BF00BF064B5B68C3F303130C4C91
:10063000E15C094B1B68CB40074C236010BD0000F8
:1006400000100240002002400000FFF8FFFFF6FE0D
:1006500008ED00E000127A006000002000093D0073
:100660006400002008B50121482006F021F8202070
:10067000ADF8000010208DF8030003208DF8020073
:100680006946094805F058FD2021074805F001FE9C
:100690002020ADF800006946044805F04DFD2021FA
:1006A000024805F0F6FD08BD000C014000180140AD
:1006B00000B587B001214FF4047005F0F9FF4FF445
:1006C000004005F059FF0120ADF8040000208DF82E
:1006D000070001A92E4805F02FFD2E4805F0A4FAC9
:1006E000002002908DF80C008DF80D004FF4602072
:1006F00004900020059001208DF8180002A92548DB
:1007000005F0B9FA0121234805F0E1FA214805F086
:1007100000FB00BF1F4805F001FB0028FAD11D486F
:1007200005F006FB00BF1B4805F007FB0028FAD1C7
:1007300007B000BD10B50446072301222146154825
:1007400005F031FB0121134805F001FB00BF022138
:10075000104805F06DFC0028F9D00E4805F08AFB22
:1007600010BD2DE9F04107460C460025002608E0A3
:100770003846FFF7DFFF0544052005F06EF8701CD2
:10078000C6B2A642F4DBB5FBF4F080B2BDE8F0815E
:10079000001001400024014070B50446002524E00B
:1007A00004F0800028B14FF40061FA4805F071FDB3
:1007B00004E04FF40061F74805F06DFD142005F0EA
:1007C00028F84FF48071F34805F065FD142005F01A
:1007D00020F84FF48071EF4805F05BFD142005F020
:1007E00018F86006040E681CC5B2082DD8DB70BD71
:1007F00070B504460D467E2000EA44068021E54897
:1008000005F049FD3046FFF7C7FF2846FFF7C4FF54
:100810008021E04805F03DFD70BD70B500251FE06A
:100820006006040E4FF48071DA4805F034FD1420A0
:1008300004F0EFFF4FF48051D64805F010FD012879
:1008400001D144F00104142004F0E3FF4FF480715F
:10085000D04805F01EFD142004F0DBFF681CC5B273
:10086000082DDDDB204670BD70B504467E2000EA11
:10087000440040F080058021C64805F00CFD284664
:10088000FFF78AFFFFF7C9FF06468021C14805F040
:1008900000FD304670BD70B505460C462846FFF792
:1008A000E3FF064646EA04012846FFF7A1FF70BDB4
:1008B00070B505460C462846FFF7D6FF064626EAE1
:1008C00004012846FFF794FF70BD2DE9FE4F064650
:1008D000884691469A46DDF830B00220029000200A
:1008E000019000900C2E06D00E2E09D112200190FE
:1008F0001020009005E0772001903020009000E06B
:1009000000BF00BF019840F080010220FFF770FF98
:1009100080210420FFF7CCFF00210120FFF768FFB2
:1009200080210A20FFF7B7FF002505E018F8051021
:100930000920FFF75DFF6D1C4D45F7D331460120BF
:10094000FFF756FF0C2E03D180210D20FFF7A3FFE8
:100950004FF47A7500BF0420FFF786FF04466D1E32
:1009600035B104F0010018B9009820400028F2D0F9
:1009700080210D20FFF79CFF95B30620FFF774FF41
:1009800000F01B0068BB002002900198204000F09E
:10099000010008B1012002900C2E24D10A20FFF79B
:1009A00063FF04460C20FFF75FFF00F007072FB13D
:1009B000601E07EBC000CBF8000002E0E000CBF8BF
:1009C000000004B90124122C00DD1224002505E0EA
:1009D0000920FFF749FF0AF805006D1CA542F7D36F
:1009E00001E00220029080210C20FFF754FF00213B
:1009F0000120FFF7FDFE0298BDE8FE8F2DE9F041D2
:100A000007468846154604210520FFF751FF0021BF
:100A10000120FFF7EDFE80210A20FFF73CFF0024B4
:100A200005E0395D0920FFF7E3FE601CC4B24445D0
:100A3000F7DB03210120FFF7DBFEFF2400BF0520C9
:100A4000FFF712FF0646601EC4B21CB106F0040098
:100A50000028F4D02220FFF707FF28702120FFF79D
:100A600003FF6870BDE8F081F0B587B005460E461B
:100A700030208DF808008DF809500DF10A0202218E
:100A800002A8FFF7BBFF01A802AB042202A9009055
:100A90000C20FFF71AFF074667B90198902809D183
:100AA000002404E002A8005D3055601CC4B2102C84
:100AB000F8DB00E00227384607B0F0BD2DE9F0432F
:100AC00087B006460F46904699468DF808608DF827
:100AD0000970002406E018F8041002AAA01C1154A2
:100AE000601CC4B2062CF6DB002407E019F80410E1
:100AF00002AA04F108001154601CC4B2062CF5DBF4
:100B000001A802AB0C2202A900900E20FFF7DDFE27
:100B100005462DB90820FFF7A7FE00F0080000B930
:100B20000225284607B0BDE8F08370B588B00546B9
:100B300093208DF80C0070208DF80D0000208DF8AA
:100B4000120000240BE0295D03AAA01C11549DF89B
:100B50001200295D48408DF81200601CC4B2042CBC
:100B6000F1DB0DF11302072103A8FFF747FF08216E
:100B70000846FFF79DFE02A803AB092203A90090D7
:100B80000C20FFF7A2FE064636B90298182803D1BA
:100B9000002602E0000801400226304608B070BD81
:100BA00030B50146002046E00A5CD31702EB137310
:100BB0001B11FE4C04F81030224612F81020092AAE
:100BC00007DD224612F810203732234603F81020A2
:100BD00006E0F64A12F810203032F44B03F81020E9
:100BE0000A5CD31702EB13731B11A2EB031301244E
:100BF00004EB4004ED4D2B55012202EB40022B4645
:100C00009A5C092A0ADD012202EB40029A5C373223
:100C1000012303EB40032C46E2540AE0012202EBDD
:100C20004002E24B9A5C3032012303EB4003DF4C7D
:100C3000E254421CD0B20428B6DB0022DB4B1A720D
:100C400030BDF0B587B00546002708210846FFF7FC
:100C50002FFE00210D20FFF7CBFD80210E20FFF796
:100C600027FE93208DF8080020208DF8090001A8A8
:100C700002AB022202A900900C20FFF726FE0646D6
:100C800086B9002407E002A8005D285502A8005D8F
:100C90004740601CC4B2042CF5DB02A8005DB842DA
:100CA00000D0022680210E20FFF7F5FD304607B068
:100CB000F0BD70B588B005460C4608210846FFF720
:100CC000F7FD07210D20FFF793FD03211420FFF707
:100CD000E2FD8DF80C5002A803AB012203A900909D
:100CE0000C20FFF7F2FD06464EB90298102806D1F7
:100CF0009DF80C0020709DF80D00607000E0022649
:100D0000304608B070BD10B5A9495220FFF7D1FF99
:100D1000A84908700846007830B902200870A64833
:100D2000FFF78FFFA3490870A248007800287BD105
:100D30000220A0490870A048FFF732FF9E480078C3
:100D40009E490978884217D19B4840789B49497849
:100D5000884211D1984880789849897888420BD187
:100D60009548C0789549C978884205D101209449B1
:100D7000087094A006F036FE8F48007897490978ED
:100D8000884217D18C48407894494978884211D1DB
:100D9000894880789149897888420BD18648C07803
:100DA0008E49C978884205D101208D4908708DA0EF
:100DB00006F018FE8048007890490978884217D1DB
:100DC0007D4840788D494978884211D17A488078A9
:100DD0008A49897888420BD17748C0788749C97891
:100DE000884205D101208649087086A006F0FAFDE8
:100DF0007148007889490978884219D16E4840784D
:100E000086494978884213D16B488078834989782C
:100E100088420DD16848C0788049C978884207D196
:100E200001207F49087000E025E07EA006F0DAFD91
:100E30006148007881490978884217D15E48407836
:100E40007E494978884211D15B4880787B4989780E
:100E500088420BD15848C0787849C978884205D172
:100E600001207749087077A006F0BCFD5248FFF7D3
:100E70005CFE504908704F48007850B902204D4937
:100E800008704D4B754A09216020FFF717FE49494C
:100E900008704848007848B90220464908707049EF
:100EA00070480078FFF7E0FD42490870414800783B
:100EB00028B902203F490870642004F0CEFC10BD20
:100EC00010B51420FFF7D0FC044604F0030018B955
:100ED00003211420FFF7DFFC10BD10B50446412CA0
:100EE00024D108210846FFF7E3FC3D211120FFF73C
:100EF0007FFC86211720FFF77BFC7F212620FFF750
:100F000077FC1E212D20FFF773FC00212C20FFF71A
:100F10006FFC8D212A20FFF76BFC3E212B20FFF771
:100F200067FC022004F075FCFFF7CAFF10BD10B586
:100F30004FF480514C4805F0ACF9012004F069FCF5
:100F40004FF48051484805F0A6F9012004F061FCF7
:100F50004FF48051444805F09CF9012004F059FCFD
:100F60000F210120FFF744FC00BF0120FFF77CFCAC
:100F700000F010000028F8D1012004F04AFC3D21C7
:100F80001120FFF735FC1E212D20FFF731FC002139
:100F90002C20FFF72DFC8D212A20FFF729FC3E2174
:100FA0002B20FFF725FC402115205FE00C000020DE
:100FB00074000020B0000020760000208000002097
:100FC0007A0000200D0A5468652055736572206907
:100FD000733A636172645F300D0A00008400002080
:100FE0007B0000200D0A54686520557365722069E6
:100FF000733A636172645F310D0A0000880000205B
:101000007C0000200D0A54686520557365722069C4
:10101000733A636172645F320D0A00008C00002035
:101020007D0000200D0A54686520557365722069A3
:10103000733A636172645F330D0A00009000002010
:101040007E0000200D0A5468652055736572206982
:10105000733A636172645F340D0A000094000020EB
:10106000EA010020B1000020000C0140FFF7C0FBA6
:1010700010BD08B501210C2005F01AFB8020ADF849
:10108000000010208DF8030003208DF8020069464F
:101090006F4805F051F84FF48070ADF80000102053
:1010A0008DF8030003208DF802006946684805F0BA
:1010B00043F84FF48050ADF8000004208DF8030091
:1010C00003208DF802006946614805F035F84FF4B9
:1010D0000060ADF8000010208DF8030003208DF8AB
:1010E000020069465A4805F027F84FF48050ADF8E1
:1010F000000010208DF8030003208DF802006946DF
:10110000544805F019F808BD10B5FFF7B2FF4FF4C9
:101110008051504805F0BDF880214D4805F0B9F8E0
:10112000FFF705FF4120FFF7D8FE10BD10B50321E2
:101130001420FFF7BDFB10BDF0B587B006460F4683
:10114000A0208DF808008DF809600DF10A02022137
:1011500002A8FFF753FC01A802AB042202A90090E9
:101160000C20FFF7B2FB054645B90198042805D1CC
:101170009DF8080000F00F000A2800D0022535BBBA
:101180001022394602A806F04CFE002404E0385D27
:1011900002A90855601CC4B2102CF8DB06AA102165
:1011A00002A8FFF72BFC01A802AB122202A90090B3
:1011B0000C20FFF78AFB054645B90198042805D1A4
:1011C0009DF8080000F00F000A2800D002252846EC
:1011D00007B0F0BD00B587B050208DF808000020A2
:1011E0008DF809000DF10A02022102A8FFF706FCA2
:1011F00001A802AB042202A900900C20FFF765FBB6
:10120000002007B000BDF8B504460D4617461E463F
:101210000020009069465220FFF74BFD6846FFF71B
:1012200010FD2046FFF781FC23462A46102160204E
:10123000FFF744FC27B131461020FFF715FC03E00F
:1012400031461020FFF778FFFFF7C4FFF8BD00001C
:1012500000080140000C0140002004E00021FE4A8B
:101260001154411CC8B2FD4909788842F6DB0021BF
:10127000FA4A1170704710B5F9A006F0B3FB4FF4AD
:10128000FA7004F0EAFAF8A1F34806F06DFDF749A8
:1012900008600EE0FFF7E0FFF1A006F0A3FB4FF4BB
:1012A000FA7004F0DAFAF0A1EB4806F05DFDEF49C0
:1012B0000860EE4800680028ECD0EDA006F092FB34
:1012C0004FF4FA7004F0C9FAECA006F08BFB4FF46F
:1012D000FA7004F0C2FAEDA006F084FB4FF4FA7045
:1012E00004F0BBFAFFF7B8FFEAA006F07BFB4FF46F
:1012F000FA7004F0B2FAEAA006F074FB4FF4FA7048
:1013000004F0ABFAE8A006F06DFB4FF4FA7004F0BD
:10131000A4FAE8A1D04806F027FDD44908600EE001
:10132000FFF79AFFE0A006F05DFB4FF4FA7004F0BF
:1013300094FAE0A1C84806F017FDCC490860CB48F4
:1013400000680028ECD0FFF787FFDEA006F04AFB1C
:101350004FF4FA7004F081FADDA1BF4806F004FDF5
:10136000C2490860DDA1BC4806F0FEFCDE49086009
:1013700014E0FFF771FFD3A006F034FB4FF4FA70CE
:1013800004F06BFAD2A1B44806F0EEFCB74908604D
:10139000D2A1B14806F0E8FCD3490860B348006820
:1013A00018B9D14800680028E3D0FFF755FFCFA057
:1013B00006F018FB4FF4FA7004F04FFACEA1A648DD
:1013C00006F0D2FCA9490860CEA1A34806F0CCFCE7
:1013D000C549086014E0FFF73FFFC4A006F002FB18
:1013E0004FF4FA7004F039FAC3A19B4806F0BCFC34
:1013F0009E490860C3A1984806F0B6FCBA49086047
:101400009A48006818B9B84800680028E3D0FFF788
:1014100023FFBFA006F0E6FA4FF4FA7004F01DFABD
:10142000FFF71AFF4FF4FA7004F017FAFFF714FFF2
:10143000BAA006F0D7FA4FF4FA7004F00EFAFFF7EC
:101440000BFFBAA006F0CEFA4FF4FA7004F005FADA
:1014500085A1814806F088FC8449086009E04FF4C2
:10146000FA7004F0FAF980A17B4806F07DFC7F4910
:1014700008607E4800680028F1D0FFF7EDFEB3A0B9
:1014800006F0B0FA4FF4FA7004F0E7F976A172486A
:1014900006F06AFC7549086009E04FF4FA7004F040
:1014A000DCF971A16C4806F05FFC704908606F4878
:1014B00000680028F1D0FFF7CFFEA8A006F092FA4E
:1014C0004FF4FA7004F0C9F967A1634806F04CFCC8
:1014D0006649086009E04FF4FA7004F0BEF962A1B1
:1014E0005D4806F041FC61490860604800680028DA
:1014F000F1D0FFF7B1FE9DA006F074FA4FF4FA7038
:1015000004F0ABF9FFF7A8FE10BD70B50446FF2547
:1015100099A006F067FA642004F09FF9204606F0CF
:1015200061FA642004F099F91A21974805F060FAED
:1015300000BF4021944805F0C9FA0028F9D0642082
:1015400004F08BF991A1444806F00EFC474908606D
:1015500008E08EA1404806F007FC444908600A20D4
:1015600004F07BF9414800680028F2D0642004F0C0
:1015700074F9FFF771FE87A006F034FAC82004F072
:101580006CF988A1344806F0EFFB3849086021E087
:1015900080A006F027FAC82004F05FF981A12E4848
:1015A00006F0E2FB3149086081A13048006806F08E
:1015B000DBFB2E4908607EA12C480068401C06F029
:1015C000D3FB2A4908600846006840783038C5B225
:1015D000FFF742FE002DDBD170BD70B50446FF253C
:1015E000214674A006F0FEF9642004F036F91A21B1
:1015F000654805F0FDF900BF4021634805F066FA33
:101600000028F9D0642004F028F917A1124806F048
:10161000ABFB1649086008E013A10F4806F0A4FBD5
:10162000124908600A2004F018F9104800680028E0
:10163000F2D0642004F011F9FFF70EFE55A006F079
:10164000D1F9C82004F009F956A1034806F08CFB33
:1016500006490860E0E00000D403002002010020F9
:1016600041540D0A000000004F4B0000B400002060
:1016700041542B514750533D310D0A0041542B51D9
:101680004D54444953433D300D0A00004154453008
:101690000D0A000041542B4353510D0A0000000075
:1016A0004154490D0A00000041542B4350494E3F1C
:1016B0000D0A00002B4350494E3A205245414459EF
:1016C0000000000041542B435245473F0D0A0000E3
:1016D0002B435245473A20302C3100002B435245D2
:1016E000473A20302C350000B800002041542B43ED
:1016F000475245473F0D0A002B43475245473A2082
:10170000302C31002B43475245473A20302C3500CE
:1017100041542B434F50533F0D0A000041542B516D
:1017200049434C4F53453D300D0A000041542B5165
:1017300049435347503D312C312C22434D4E4554A3
:10174000222C22222C22222C300D0A0041542B5113
:101750004944454143543D310D0A000041542B5149
:10176000494143543D310D0A0000000041542B51C2
:10177000494143543F0D0A0041542B514953454EB2
:10178000443D300D0A0000000044004053454E44E3
:10179000204F4B0041542B514953454E443D302C72
:1017A000300D0A002B514953454E443A00000000C9
:1017B0002C00000041542B514953454E4445583D9F
:1017C000302C222573220D0A00000000AFF23C00ED
:1017D00006F008F9C82004F040F8AFF23801FE48DE
:1017E00006F0C2FAFD490860AFF23C01FB48006810
:1017F00006F0BAFAF9490860AFF24C01F748006800
:10180000401C06F0B1FAF5490860084600684078C7
:101810003038C5B2FFF720FD002DD7D170BD10B50F
:10182000EFA1ED4806F0A0FAEC4908600846006810
:1018300020B10020EB490860FFF70EFDEAA1E64861
:1018400006F092FAE54908600846006820B10120D8
:10185000E4490860FFF700FDE4A1DF4806F084FAE0
:10186000DE4908600846006820B10020E0490860B1
:10187000FFF7F2FCDFA1D84806F076FAD7490860F6
:101880000846006820B10120D9490860FFF7E4FC50
:10189000D9A1D14806F068FAD04908600846006826
:1018A00008B100BFFEE710BD10B5D6A006F09AF84B
:1018B0004FF4FA7003F0D1FFDBA1C74806F054FAE9
:1018C000C649086005E0D8A1C34806F04DFAC349EF
:1018D0000860C24800680028F5D0FFF7BDFCD6A01C
:1018E00006F080F84FF4FA7003F0B7FFDDA1BA48B4
:1018F00006F03AFAB949086005E0DAA1B64806F000
:1019000033FAB6490860B54800680028F5D0FFF7FB
:10191000A3FC10BD2DE9FF4FBDB00C4691469A4681
:10192000A422D44913A806F0C1FA4E9808F068FE24
:1019300005460E464D9808F063FE074688464C98CB
:1019400008F05EFECDE910014B9808F059FECDE994
:101950000E01484608F054FECDE90878CDE90A5654
:10196000CDE90C01DDE91001CDE90601DDE90E014B
:10197000CDE904014A98CDE902A0DDE90C01224637
:10198000CDE9000113A9BC4806F038F8BA4806F0C2
:1019900029FA1290B84806F025FA1FFA80FB5A4639
:1019A000B5493D9806F03DFA0BF0FF0041B0BDE8A7
:1019B000F08F2DE9F04F9DB005460E464FF0000B1D
:1019C0001422AE4916A806F071FAFFF745FCACA048
:1019D00006F008F84FF4FA7003F03FFFAFF27831E9
:1019E0007D4806F0C1F97D49086006E0AFF2883114
:1019F000794806F0B9F97949086078480068002804
:101A0000F4D0A54890F800A0BAF1370F7EDD4FF072
:101A1000000B7148807B242879D16F48C07B472810
:101A2000FAD16D48007C4E28F6D16B48407C47289F
:101A3000F2D16948807C4728EED16748C07C4128B4
:101A4000EAD1002436E0BBF1020F0AD16248005D02
:101A50002C2806D06048025D1B98411CC9B21B911E
:101A60002A54BBF1040F0AD15B48005D2C2806D034
:101A70005948025D1B98411CC9B21B913254BBF1FD
:101A8000010F0BD15448005D2C2807D05248025D4D
:101A90001B98411CC9B21B9116A90A544E48005DFF
:101AA0002C2805D10BF1010000F0FF0B01201B9049
:101AB000601CC4B25445C6DB002435E1285D2E28E5
:101AC0007ED1601E285C2855A01E295C601E29540A
:101AD0002E21A01E2954611D695CA1F1300008F07F
:101AE0008AFA6E4A6E4BCDE9100108F0AFFACDE9E3
:101AF0001401211D695CA1F1300008F07CFA694AEB
:101B0000694BCDE90C0108F0A1FA01E0E9E1E7E158
:101B1000CDE91001E11C695CA1F1300008F06BFA1D
:101B2000624A634BCDE9080108F090FACDE90C0157
:101B3000A11C695CA1F1300008F05DFA5D4A5E4BC2
:101B4000CDE9040108F082FACDE90801611C695C65
:101B5000A1F1300008F04FFA584A594BCDE9000185
:101B600008F074FACDE904012A5D611E695C303920
:101B70000A2303FB0121A1F1300008F03CFACDE972
:101B80000201DDE9042307F0FFFFCDE90601DDE9ED
:101B9000082307F0F9FFCDE90A01DDE90C2307F07E
:101BA000F3FFCDE90E01DDE9102307F0EDFFCDE9EC
:101BB0001201DDE9142307F0E7FF0746884600E03D
:101BC000B0E000223F4B3846414608F08DF807460A
:101BD00088464FF00009A1E0D4030020B4000020A3
:101BE0004131000094812142413000004231000027
:101BF00094012342423000004E4F2043415252494B
:101C00004552000041542B514D544F50454E3D30EC
:101C10002C223132342E3232302E342E3731222CD7
:101C2000313838330D0A00002B514D544F50454E7A
:101C30003A20302C3000000041542B514D54434F7A
:101C40004E4E3D302C22746573745F7761746572FB
:101C5000222C22726F6F74222C22313233343536AB
:101C6000220D0A002B514D54434F4E4E3A20302C3A
:101C7000302C3000E0BC0008FA01002038AE00082B
:101C800041542B51475053474E4D45413D22474704
:101C900041220D0A0000000002010020F168E388E3
:101CA000B5F8E43E2D431CEBE2361A3FFCA9F1D215
:101CB0004D62503F7B14AE47E17A843F9A999999DF
:101CC0009999B93F00004E403A4643460020874963
:101CD00008F0BCF9074688463846414608F05CF9EA
:101CE0003030C1B2601E48442954611E4944685CCA
:101CF00008F098F900227E4BCDE9140138464146A0
:101D000007F042FFCDE91201DDE9142308F08EFB54
:101D10000746884609F1010000F0FF09B9F1050FF7
:101D2000D2DB04E0601CC4B2112CFFF6C7AE00BFCA
:101D3000002404E0601C285C2855601CC4B2112CEF
:101D4000F8DB0024BAE0305D2E287DD1601E305CC7
:101D50003055A01E315C601E31542E21A01E31541E
:101D6000611D715CA1F1300008F045F9614A624BD8
:101D7000CDE9100108F06AF9CDE91401211D715C6B
:101D8000A1F1300008F037F95C4A5D4BCDE90C0158
:101D900008F05CF9CDE91001E11C715CA1F13000A3
:101DA00008F029F9574A584BCDE9080108F04EF9D7
:101DB000CDE90C01A11C715CA1F1300008F01BF908
:101DC000524A534BCDE9040108F040F9CDE908012E
:101DD000611C715CA1F1300008F00DF94D4A4E4BC9
:101DE000CDE9000108F032F9CDE90401325D611E50
:101DF000715C30390A2303FB0121A1F1300008F0A6
:101E0000FAF8CDE90201DDE9042307F0BDFECDE9D2
:101E10000601DDE9082307F0B7FECDE90A01DDE997
:101E20000C2307F0B1FECDE90E01DDE9102307F028
:101E3000ABFECDE91201DDE9142307F0A5FE07464C
:101E400088460022354B00E036E03846414607F030
:101E50004BFF074688464FF0000929E03A464346C3
:101E60000020224908F0F2F80746884638464146E5
:101E700008F092F83030C1B2601E48443154611EFF
:101E80004944705C08F0CEF80022194BCDE91401EA
:101E90003846414607F078FECDE91201DDE914230A
:101EA00008F0C4FA0746884609F1010000F0FF096E
:101EB000B9F1050FD2DB04E0601CC4B2112CFFF6AF
:101EC00042AF00BF002404E0601C305C3055601C51
:101ED000C4B2112CF8DB6878302804D001201C90A3
:101EE00001E000201C901DB0BDE8F08F00002440F0
:101EF00000004840F168E388B5F8E43E2D431CEB50
:101F0000E2361A3FFCA9F1D24D62503F7B14AE4736
:101F1000E17A843F9A9999999999B93F00004E4086
:101F200010B5022003F075FC10BD8D48806940F0AB
:101F300010008B4988618B4800688B4908408949AB
:101F400008600846006889490843864908600846D1
:101F5000C06840F44060C860704710B581480068B0
:101F600020F070407F4908600846006840F040500B
:101F7000086001207E4908607E49C1F88801FFF7AA
:101F8000CFFF00207A490860FFF7CAFF0020794997
:101F9000C1F8880110BD10B57248006820F070408B
:101FA000704908600846006840F040500860002012
:101FB0006F49143908606F49C1F89C01FFF7B0FF01
:101FC00001206B49143908606A49C1F89C01FFF788
:101FD000A7FF10BD10B500246248006820F07040D3
:101FE000604908600846006840F000400860012031
:101FF0005F490860FFF794FF01205E49C1F888013E
:10200000FFF78EFF07E0601CC4B2FA2C03DDFFF778
:10201000C2FF012010BD5648803800680028F2D168
:1020200053491439086000BFF4E710B50020504947
:10203000143908604B48006820F070404949086036
:102040000846006840F04050086000204949C1F847
:102050009C01FFF765FF0120454914390860FFF72F
:102060005FFF00204349C1F8880110BD10B5002072
:102070003F49143908603B48006820F070403949F6
:1020800008600846006840F0405008600120394967
:10209000C1F89C01FFF744FF01203549143908605D
:1020A000FFF73EFF00203349C1F8880110BD70B52D
:1020B00004462C48006820F070402A490860084611
:1020C000006840F040500860002029491439086039
:1020D000002512E0E009264908606006040E012090
:1020E0002449C1F88801FFF71BFF0020204914395B
:1020F0000860FFF715FF681CC5B2082DEADB70BD4C
:1021000070B5054600241748006820F07040154956
:1021100008600846006840F000400860002615E0AE
:102120000020134914390860FFF7FAFE0120114915
:10213000C1F888016006040E0D488038006808B1B7
:10214000601CC4B2FFF7ECFE701CC6B2082EE7DBC1
:1021500015B9FFF78BFF01E0FFF767FF204670BD61
:102160000010024000100140FFF0FF0F000300309C
:102170009C0122420000224270B505460C46FFF742
:10218000ECFED020FFF793FFFFF724FF18B1FFF715
:1021900002FF012070BD2846FFF789FFFFF71AFFF5
:1021A0002046FFF784FFFFF715FF18B1FFF7F3FE96
:1021B0000120EFE7FFF7EFFE0020EBE770B50446E4
:1021C0000025BC2C01DB012510E0622C01DB02257F
:1021D0000CE02A2C01DB032508E0142C01DB04258C
:1021E00004E00A2C01DB052500E0062529461A201B
:1021F000FFF7C2FF70BD70B50446B4F57A7F01DD0C
:102200004FF47A74042C00DA04244FF47A7090FBB3
:10221000F4F0401EC5B229461920FFF7ADFF054670
:10222000264604EBD671C1F34F00FFF7C7FF70BD20
:1022300070B50446FFF791FED020FFF738FFFFF797
:10224000C9FE2046FFF733FFFFF7C4FEFFF785FE08
:10225000D120FFF72CFFFFF7BDFE0020FFF750FF56
:102260000546FFF798FE284670BD10B50446E00607
:10227000010E1C20FFF780FF10BD10B50446E006DC
:10228000010E1B20FFF778FF10BD10B5002091490B
:102290000860FFF74AFE80216B20FFF76DFF642086
:1022A00003F0DBFA00216B20FFF766FF0320FFF746
:1022B000E4FF0020FFF7D9FF3220FFF79CFF002149
:1022C0003820FFF759FF00216A20FFF755FF002152
:1022D0002320FFF751FF80213720FFF74DFF7520A6
:1022E000FFF7A6FF0446682C0BD101216B20FFF7F6
:1022F00043FF00216C20FFF73FFF3220FFF77BFFF9
:1023000001E0012010BD0020FCE72DE9F041064668
:102310000F4614461D46FFF720FE002141EA460104
:10232000C8B2FFF7C4FEFFF755FE20B1FFF733FE3A
:102330000120BDE8F0813846FFF7B9FEFFF74AFEFD
:10234000FFF70BFE012101EB4601C8B2FFF7AFFE1C
:10235000FFF740FE0DE0012C04D10020FFF7D0FE76
:10236000287003E00120FFF7CBFE2870601EC4B286
:102370006D1C002CEFD1FFF70EFE0020D9E72DE9F0
:10238000F84F6B46022241216820FFF7BEFF9DF8FF
:1023900001009DF8001040EA01200FFA80FA504633
:1023A00007F029FE804600224B4B07F09DFC0646B5
:1023B0004A4A4B4B07F0E8FB044607F0B3FB834661
:1023C0004849584608F048FB044608F0A9FA00B20C
:1023D000BDE8F88F2DE9FC4104460D4616466B46D4
:1023E000062243216820FFF790FF0746BFB99DF8FA
:1023F00001009DF8001040EA012000B220809DF805
:1024000003009DF8021040EA012000B228809DF8E8
:1024100005009DF8041040EA012000B230803846E3
:10242000BDE8FC812DE9FC4104460D4616466B468D
:1024300006223B216820FFF768FF0746BFB99DF8D9
:1024400001009DF8001040EA012000B220809DF8B4
:1024500003009DF8021040EA012000B228809DF898
:1024600005009DF8041040EA012000B23080384693
:10247000BDE8FC812DE9F04105460E461746984619
:10248000FFF76BFD002141EA4501C8B2FFF70FFEDF
:10249000FFF7A0FD20B1FFF77EFD0120BDE8F08130
:1024A0003046FFF704FEFFF795FD00240CE018F816
:1024B0000400FFF7FCFDFFF78DFD18B1FFF76BFD82
:1024C0000120EBE7601CC4B2BC42F0DBFFF763FD08
:1024D0000020E3E7BC01214200407540A4703D0AA2
:1024E000D74342400000C84238B50446F74890F848
:1024F0002400C0B114B10220009001E0002000903F
:10250000F24A1268D17BF14A526810786B46012278
:10251000FFF7B0FF10B14FF0FF3038BD9DF800104D
:10252000EA48417423E0E948807A10B94FF0FF305F
:10253000F3E724B1E548407C08B10020EDE714B191
:102540000120009001E000200090E04A1268D17B59
:10255000DE4A526810786B460122FFF78BFF10B1FC
:102560004FF0FF30D9E79DF80010D84841740020A3
:10257000D3E738B500241FE0D4480068C07AA042F1
:1025800004D0D2480068407DA04200D112E0CF497B
:10259000496808786B4601222146FFF7B6FE10B164
:1025A0004FF0FF3038BD9DF800202146C8A005F04F
:1025B00019FA00BF601CC4B2C44840680079A04248
:1025C000DADC0020EEE770B504460D46BF4800682F
:1025D000C07AA04204D0BD480068407DA04202D12C
:1025E0004FF0FF3070BDB94840680079A04202DC6E
:1025F0004FF0FF30F6E7B549496808782B460122CD
:102600002146FFF782FEEDE738B50446AF4890F863
:102610002300A04201D1002038BD14B13020009029
:1026200001E000200090A948807C20B19DF80000C6
:1026300040F002000090A54890F8220020B19DF8DB
:10264000000040F080000090A04A1268117D9F4A6F
:10265000526810786B460122FFF70CFF10B14FF063
:10266000FF30D9E7994880F823400020D4E738B5F7
:10267000044604F0700010B10120009005E014B190
:102680000020009001E040200090904A1268917C68
:102690008E4A526810786B460122FFF7EBFE20B19C
:1026A00000218A488172481E38BD9DF8000020F044
:1026B0004001864801730020009004F0400020B9DA
:1026C0009DF8000040F00400009004F0200020B9C4
:1026D0009DF8000040F00200009004F0100020B9C6
:1026E0009DF8000040F00100009004F0080020B9BF
:1026F0009DF8000040F038000090744A1268D17CC8
:10270000724A526810786B460122FFF7B3FE20B17F
:1027100000216E488172481EC6E724B1082C02D001
:102720000020FFF771FF6948847200210175322093
:1027300003F093F80020B7E738B504466348807C7F
:10274000A04201D1002038BD002C46D05F4A12685B
:1027500011795E4A526810786B460122FFF7D5FD69
:1027600010B14FF0FF30EEE79DF8000020F02000A0
:102770000090564A12681179544A526810786B4694
:102780000122FFF777FE10B14FF0FF30DBE70320A7
:1027900003F063F8022000904C4890F8220020B12A
:1027A0009DF8000040F080000090484890F8230019
:1027B00020B19DF8000040F030000090434A1268BC
:1027C000117D424A526810786B460122FFF752FE93
:1027D000002851D04FF0FF30B5E73C4A126811791C
:1027E0003A4A526810786B460122FFF78EFD10B10D
:1027F0004FF0FF30A7E73548807A00F0010028B19C
:102800009DF8000040F02000009004E09DF80000DA
:1028100020F0200000902D4A126811792B4A52684E
:1028200010786B460122FFF725FE10B14FF0FF3004
:1028300089E7032003F011F8244890F8220010B132
:102840008020009001E000200090204890F82300B4
:1028500020B19DF8000040F0300000901B4A126843
:10286000117D1A4A526810786B460122FFF702FE6A
:1028700010B14FF0FF3066E714488474002062E71F
:1028800008B51248807A10B94FF0FF3008BD00201B
:1028900000900E4A1268D17B0C4A526810786B4641
:1028A0000122FFF7E7FD10B14FF0FF30EEE7074AD6
:1028B00012685179054A526810786B460122FFF779
:1028C000D9FD68B14FF0FF30E0E70000C000002004
:1028D000252335783A20252335780D0A000000009D
:1028E000F84A12681179F74A526810786B4601224B
:1028F000FFF7C0FD10B14FF0FF30C7E7F14890F887
:102900002400002853D00C200090EE4A1268117960
:10291000EC4A526810786B460122FFF7ABFD10B10C
:102920004FF0FF30B2E7322002F097FFC020009056
:10293000E448807A00F0010020B19DF8000040F0EA
:1029400020000090DF4A12681179DE4A5268107840
:102950006B460122FFF78EFD10B14FF0FF3095E777
:10296000D848407C10B10220009001E00020009087
:10297000D44A1268D17BD34A526810786B46012240
:10298000FFF778FD10B14FF0FF307FE70020009097
:10299000CC4A12685179CB4A526810786B460122B2
:1029A000FFF768FD002855D04FF0FF306EE7042098
:1029B0000090C44A12681179C24A526810786B4676
:1029C0000122FFF757FD10B14FF0FF305EE7BD4821
:1029D000807C20B9BB48807A00F0010010B940200B
:1029E000009001E060200090B64A12681179B54A63
:1029F000526810786B460122FFF73CFD10B14FF092
:102A0000FF3043E7322002F028FFAE48407C10B18F
:102A10000120009001E000200090AA4A1268D17BBA
:102A2000A84A526810786B460122FFF723FD10B1C7
:102A30004FF0FF302AE7A34A12685179A14A526841
:102A40001078A04B10330122FFF714FD10B14FF0A6
:102A5000FF301BE7002019E770B50446002624F07C
:102A60000104984890F8240008B1002070BD9548F2
:102A7000807A10B94FF0FF30F8E79248057C807AF1
:102A80002040904908740846007CA04202D04FF0D4
:102A9000FF3600E0002614B98A48007D18B10120F5
:102AA000FFF722FD02E00020FFF71EFD3CB1FFF71B
:102AB000E7FE20B1834805744FF0FF30D6E730467B
:102AC000D4E738B504467F48807A10B94FF0FF301C
:102AD00038BDBC2C02DB0120009015E0622C02DB2B
:102AE0000220009010E02A2C02DB032000900BE073
:102AF000142C02DB0420009006E00A2C02DB0520E7
:102B0000009001E0062000906E48C07A9DF8001009
:102B1000884201D10020DBE76A4A12689178694A4D
:102B2000526810786B460122FFF7A4FC10B14FF0F9
:102B3000FF30CDE79DF800106248C1720020C7E762
:102B400038B50446282C02DD4FF0FF3038BDDCB923
:102B50000020FFF759FD00208DF8000007208DF8B8
:102B60000100584A1268917C564A526810786B46A8
:102B70000222FFF77FFC10B14FF0FF30E6E70021A3
:102B8000504801750020E1E70120FFF73DFD2020BE
:102B90008DF80000012C06D100208DF801000520E1
:102BA000FFF78FFF17E0052C06DC01208DF80100F0
:102BB0000520FFF786FF0EE0142C06DC02208DF8BE
:102BC00001000A20FFF77DFF05E003208DF80100DA
:102BD0001420FFF776FF9DF80100072101EB80101C
:102BE000C0B28DF80100374A1268917C354A5268AC
:102BF00010786B460222FFF73DFC10B14FF0FF301A
:102C0000A4E708212F488172002101730121017579
:102C10000020FFF721FF002098E738B50446294837
:102C2000807A10B94FF0FF3038BD264890F8240064
:102C300010B14FF0FF30F7E72248007D50B134B1BA
:102C4000282C04DCE0B2FFF77BFF0020ECE700203B
:102C5000FFF776FF042C01DA042404E0B4F57A7F50
:102C600001DD4FF47A744FF47A7090FBF4F0401E5B
:102C7000C0B20090134A12685178124A5268107814
:102C80006B460122FFF7F6FB10B14FF0FF30CBE7A8
:102C90009DF80000401C4FF47A7191FBF0F081B276
:102CA0000848C1810146C9894810FFF70AFF002082
:102CB000BAE738B504460348807A28B94FF0FF30A8
:102CC00038BD0000C0000020022C06D0042C07D024
:102CD000082C08D0102C0CD108E0002000900BE04C
:102CE0000820009008E01020009005E018200090D7
:102CF00002E04FF0FF30E3E700BFF948407A9DF86B
:102D00000010B0EBE10F01D10020D9E7F44A1268BE
:102D1000D179F34A526810786B460122FFF7AAFB7B
:102D200010B14FF0FF30CBE79DF80000C110EC4828
:102D300041720020C4E738B50446E948807A10B9EA
:102D40004FF0FF3038BDFA2C09D0B4F5FA7F09D026
:102D5000B4F57A7F09D0B4F5FA6F0CD108E0002001
:102D600000900BE00820009008E01020009005E0A3
:102D70001820009002E04FF0FF30E3E700BFD84892
:102D8000007A9DF80010B0EBE10F01D10020D9E7E7
:102D9000D34A12689179D24A526810786B46012260
:102DA000FFF768FB10B14FF0FF30CBE79DF8000054
:102DB000C010CB4908720020C4E71CB580208DF8F4
:102DC0000000C74A1268917CC54A526810786B4669
:102DD0000122FFF74FFB10B14FF0FF301CBD642004
:102DE00002F03BFD00208DF80000BD4A1268917C86
:102DF000BB4A526810786B460122FFF73BFB10B1CB
:102E00004FF0FF30EAE7B64A1268917DB44A526843
:102E100010786B460622FFF778FA10B14FF0FF30BA
:102E2000DCE79DF80500C007400F9DF8031001F096
:102E3000010140EA41009DF8011001F0010140EA62
:102E4000010494B1012C03D10121A548C17431E0E2
:102E5000022C03D10021A248C1742BE02146A1A07D
:102E600004F0C0FD4FF0FF30B8E79D4A1268D178FA
:102E70009B4A526810786B460122FFF746FA10B160
:102E80004FF0FF30AAE79DF8000000F00F042CB9C6
:102E90009E4804F0A7FD4FF0FF309FE7042C06D1B9
:102EA0009BA004F09FFD01218D48C17402E0002128
:102EB0008B48C174FF218A488172FF2088490872BB
:102EC000FF2187484172C1724FF6FF71C181FF2116
:102ED000017481740121017380F82210002180F8AF
:102EE000231041750175163001604160816016380C
:102EF00080F8241080F82510C1844FF4FA60FFF7A1
:102F00001AFF10B14FF0FF3068E70220FFF7D1FE43
:102F100010B14FF0FF3061E72A20FFF7D2FD10B16A
:102F20004FF0FF305AE73220FFF777FE10B14FF035
:102F3000FF3053E70020FFF78FFD10B14FF0FF3057
:102F40004CE70020FFF7F8FB10B14FF0FF3045E7EA
:102F50000020FFF78CFB002040E770477CB504465B
:102F60000D465F48807A00F0700010B94FF0FF30D6
:102F70007CBD5B4A1268117B594A526810786B46D7
:102F80000622FFF7C2F910B14FF0FF30F0E79DF8CD
:102F900001009DF8001040EA012000B220809DF859
:102FA00003009DF8021040EA012000B260809DF805
:102FB00005009DF8041040EA012000B2A08015B180
:102FC0002846FFF7CAFF0020D2E77CB504460D462D
:102FD0004348807A00F0080010B94FF0FF307CBD04
:102FE0003F4A1268517B3E4A526810786B4606226F
:102FF000FFF78BF910B14FF0FF30F0E79DF80100BB
:103000009DF8001040EA012000B220809DF80300E6
:103010009DF8021040EA012000B260809DF8050092
:103020009DF8041040EA012000B2A08015B12846A6
:10303000FFF793FF0020D2E72DE9FE4F05460C462F
:103040002748807A18B94FF0FF30BDE8FE8F244A38
:103050001268917B224A5268107802AB0222FFF775
:1030600054F910B14FF0FF30EFE79DF809009DF8DB
:10307000081040EA012006B214B12046FFF76DFFA8
:1030800017494968C88807F09FFC154901904968AD
:10309000B1F9080007F080FC8346304607F07CFC5D
:1030A0005946009007F0D6FD8246019907F042FB91
:1030B00081461F4907F0D0FA80464FF08F4107F054
:1030C000CBFC074607F02CFC28600020BDE710B5BC
:1030D00088B004461CB94FF0FF3008B010BD29E09D
:1030E000C0000020556E737570706F727465642037
:1030F000736F6674776172652070726F6475637444
:10310000207265762025642E0A00000084BD000828
:1031100048616C662073656E736974697669747949
:10312000207061727420666F756E642E0A00000054
:1031300000000C42206830B9606820B9A06810B95E
:10314000002008B010BDFA494968087806AB032290
:103150001146FFF7DAF810B14FF0FF30F1E79DF8B4
:103160001800082101EB201000F00F00ADF800005E
:103170009DF8190001EB201000F00F00ADF80200DF
:103180009DF81A0001EB201000F00F00ADF80400CC
:1031900020684100BDF90000403091FBF0F000B222
:1031A000ADF8100060684100BDF90200403091FBAD
:1031B000F0F000B2ADF81200A0684100BDF90400C3
:1031C000403091FBF0F000B2ADF81400D8494968E6
:1031D000087806AB06221146FFF797F810B14FF0BA
:1031E000FF30AEE79DF819009DF8181040EA012065
:1031F00000B2ADF808009DF81B009DF81A1040EAD7
:10320000012000B2ADF80A009DF81D009DF81C10C9
:1032100040EA012000B2ADF80C00BDF81000BDF886
:103220000810084400B2ADF81000BDF81200BDF857
:103230000A10084400B2ADF81200BDF81400BDF841
:103240000C10084400B2ADF81400BDF81000000ADC
:103250008DF81800BDF81000C0B28DF81900BDF847
:103260001200000A8DF81A00BDF81200C0B28DF8E5
:103270001B00BDF81400000A8DF81C00BDF81400F6
:10328000C0B28DF81D00AA494968087806AB06222D
:103290001146FFF7EFF810B14FF0FF3051E7002073
:1032A0004FE70146A248007A30B1012807D0022832
:1032B00009D003280FD10AE0FA2008800EE04FF46D
:1032C000FA7008800AE04FF47A70088006E04FF444
:1032D000FA60088002E00020088000BF00BF0020E4
:1032E000704701469248407A30B1012807D0022841
:1032F00008D003280CD108E0022008700BE004205D
:10330000087008E00820087005E01020087002E04E
:103310004FF0FF30704700BF8548C07C18B1087877
:103320004006000E08700020F4E701468048C07A8D
:10333000082817D2DFE800F01704070A0D10131849
:10334000BC20088013E06220088010E02A2008805A
:103350000DE0142008800AE00A20088007E005201C
:10336000088004E000BF00BF0020088000BF00BF4D
:103370000020704701466E4890F8240010B14FF0CD
:10338000FF3070476A48C08908800020F9E701468D
:1033900000200880401E704701464FF0FF30704704
:1033A00001466348007A30B1012807D0022808D0CE
:1033B00003280CD108E05F4808600BE05E48086015
:1033C00008E05E48086005E05D48086002E04FF0F4
:1033D000FF30704700BF0020FBE701465448407AA9
:1033E00030B1012808D002280AD0032810D10BE000
:1033F0004FF4804008800EE041F69C7008800AE09F
:103400004FF48050088006E04FF40060088002E02E
:103410004FF0FF30704700BF4548C07C10B10888AE
:10342000401008800020F5E701464148007C087004
:103430000020704701463E48807A10B10120087094
:1034400001E0002008700020704738B50446384875
:10345000807A10B94FF0FF3038BD354A1268117CC0
:10346000334A526810786B460222FEF74EFF10B1C5
:103470004FF0FF30F0E79DF801009DF8001040EAA2
:10348000012000B220800020E6E72DE9FE4F07462C
:10349000884692461D46DDF830B0002600242448B8
:1034A00090F8240010B1601EBDE8FE8F0020287047
:1034B0001F48807A10B94FF0FF30F5E71C48007CB8
:1034C00010B94FF0FF30EFE71948007C00F04000E2
:1034D00008B1B01CC6B21648007C00F0200008B14C
:1034E000B01CC6B21248007C00F0100008B1B01C3D
:1034F000C6B20F48007C00F0080008B1B01DC6B28B
:103500000B4A1268917A0A4A526810786B46022276
:10351000FEF7FBFE10B14FF0FF30C5E79DF801004C
:103520009DF8001040EA0129B1450BDA0020BBE705
:10353000C0000020000003430000834233330342F5
:1035400033338341FC4840684088B9EB600F17DD96
:10355000F94A1268517CF84A526810786B46012289
:10356000FEF7D3FE10B14FF0FF309DE79DF800004D
:1035700000F0100020B1FFF783F96FF0010093E72E
:103580005046FFF7EAFCEC4A1268D17AEA4A5268E0
:1035900010786B463246FEF7B8FE10B14FF0FF30A0
:1035A00082E799FBF6F0401E8BF80000002028709F
:1035B000B4422AD0E048007C00F0080028B3601C28
:1035C0001DF800001DF8041040EA012000B2A8F820
:1035D0000000E01C1DF80010A01C1DF8000041EACE
:1035E000002000B2A8F80200601D1DF80010201D88
:1035F0001DF8000041EA002000B2A8F80400287875
:1036000040F008002870A01D84B2B44213D0CA480C
:10361000007C00F0400070B1601C1DF800001DF837
:10362000041040EA012000B23880287840F04000C1
:103630002870A01C84B2B44213D0BF48007C00F0B4
:10364000200070B1601C1DF800001DF8041040EA55
:10365000012000B27880287840F020002870A01C5B
:1036600084B2B44213D0B448007C00F0100070B1B2
:10367000601C1DF800001DF8041040EA012000B293
:10368000B880287840F010002870A01C84B2002078
:103690000AE7F8B504460F461646A74890F82400F6
:1036A00010B94FF0FF30F8BDA348807A10B94FF041
:1036B000FF30F8E7A04A1268917A9F4A5268107862
:1036C0006B460222FEF721FE10B14FF0FF30EAE711
:1036D0009DF801009DF8001040EA0125A54203DA9B
:1036E00000203070401EDEE7934840684088B5EB0C
:1036F000600F17DD904A1268517C8F4A526810782B
:103700006B460122FEF701FE10B14FF0FF30CAE711
:103710009DF8000000F0100020B1FFF7B1F86FF045
:103720000100C0E7E2B2844B1B68D97A824B5B6828
:1037300018783B46FEF7E9FD10B14FF0FF30B2E7D5
:1037400095FBF4F0401E30700020ACE701467A484B
:1037500080F82210002070477CB5054676494968FC
:10376000087801AB04220D21FEF7CFFD08B1072038
:103770007CBD9DF80700C0F301109DF8041001F016
:10378000E00140EAE1008DF800009DF80700C0F379
:1037900081009DF8051001F0E00140EAE1008DF89C
:1037A00001009DF8070000F003009DF8061001F0ED
:1037B000E00140EAE1008DF8020000241CE01DF861
:1037C000040018B9002045F8240013E05B4845F8D0
:1037D000240006E055F82400594907F03DF945F862
:1037E00024001DF80400401EC0B20DF8040000289B
:1037F000F0D100BF601CC4B2032CE0DB0020B7E7AF
:103800002DE9FE4F06460F4600256846FFF7A4FF48
:10381000002442E056F8240057F82410A0EB010AD7
:10382000BAF1000F01DB514601E0CAF10001084680
:1038300007F0B2F883464FF08F4106F07BFF8046D9
:103840005DF82400002107F037F816D05DF8241049
:10385000404606F06FFF82464FF07E5107F0FAF9BE
:10386000814629F0004A3748416A504607F0C0F9BE
:1038700012D20120A04005430EE03248C169404603
:1038800007F0B6F805D32F48016A404607F0B0F9B3
:1038900002D20120A0400543641C032CBADB284659
:1038A000BDE8FE8F2DE9FC5F06460F460025224944
:1038B0004968087801AB03220D21FEF726FD10B1FF
:1038C0000720BDE8FC9F9DF8040000F01F008DF864
:1038D00004009DF8050000F01F008DF805009DF81C
:1038E000060000F01F008DF80600002462E056F884
:1038F000240057F82410A0EB010BBBF1000F01DBF3
:10390000594601E0CBF10001084607F045F84FF0B9
:103910008F41009006F00EFF814601A8005DC0B304
:103920000849086807F050F883465946064806F0EB
:1039300001FF80460FE00000C00000207B14AE3E77
:103940001D5A843F74AE000800B04C45FE49404605
:1039500007F082F8804601A8005D401EC0B201A9B0
:1039600008550028F2D14146484606F0E3FE83465A
:103970004FF07E5107F06EF982462AF0004BF34873
:103980008169584607F034F913D20120A04005435D
:103990000FE0FFE7ED480169484607F029F805D335
:1039A000EA484169484607F023F902D20120A040C5
:1039B0000543641C032C9ADB284682E72DE9F04F6F
:1039C00087B005460C46914601208DF81000002076
:1039D0008DF81100DE4A1268917CDD4A5268107839
:1039E00004AB0222FEF746FD20B14FF0FF3007B0D6
:1039F000BDE8F08FC82001F030FF00208DF81000E6
:103A0000D34A1268D17BD24A5268107804AB0122A3
:103A1000FEF730FD10B14FF0FF30E8E7CC4A1268F6
:103A20005179CB4A5268107804AB0122FEF722FD8F
:103A300010B14FF0FF30DAE7C54A1268917CC44AF2
:103A40005268107804AB0122FEF714FD10B14FF05C
:103A5000FF30CCE7BE4A1268D17DBD4A526810786B
:103A600004AB0122FEF706FD10B14FF0FF30BEE7B8
:103A7000B74A12681179B64A5268107804AB01222D
:103A8000FEF7F8FC10B14FF0FF30B0E70C208DF8D6
:103A90001000AF4A12681179AD4A5268107804AB31
:103AA0000122FEF7E7FC10B14FF0FF309FE70F2037
:103AB00001F0D3FEA648806A407A8DF81000A44A2F
:103AC00012689178A24A5268107804AB0122FEF77E
:103AD000D1FC10B14FF0FF3089E79D48806A007A31
:103AE0008DF810009A4A12685178994A52681078F5
:103AF00004AB0122FEF7BEFC10B14FF0FF3076E7B9
:103B0000B9F1000F07D09248806A807A40F0E00057
:103B10008DF8100004E08E48806A807A8DF81000DD
:103B20008B4A126891798A4A5268107804AB012254
:103B3000FEF7A0FC10B14FF0FF3058E7B9F1000FCD
:103B400007D08348806AC07A40F0E0008DF810000A
:103B500003E07E48C07A8DF810007D4A1268D17962
:103B60007B4A5268107804AB0122FEF783FC10B147
:103B70004FF0FF303BE7B9F1000F02D0C82001F051
:103B80006CFE40208DF81000714A12681179704A5D
:103B90005268107804AB0122FEF76CFC10B14FF0B4
:103BA000FF3024E778208DF81000694A12685179B7
:103BB000674A5268107804AB0122FEF75BFC10B133
:103BC0004FF0FF3013E76149888901F046FE00207D
:103BD0008DF810005E4A126851795D4A526810787B
:103BE00004AB0122FEF746FC10B14FF0FF30FEE6B9
:103BF000574A1268917A564A5268107804AB0222EA
:103C0000FEF783FB10B14FF0FF30F0E69DF8110096
:103C10009DF8101040EA012B0C209BFBF0F0C6B27F
:103C20000020A86068602860A06060602060824614
:103C300065E0474A1268D17A454A5268107804AB69
:103C40000C22FEF762FB10B14FF0FF30CFE69DF87B
:103C500011009DF8101040EA012000B2ADF80800F4
:103C60009DF813009DF8121040EA012000B2ADF853
:103C70000A009DF815009DF8141040EA012000B2DA
:103C8000ADF80C00BDF90810206808442060BDF9AB
:103C90000A10606808446060BDF90C10A068084410
:103CA000A0609DF817009DF8161040EA012000B2B0
:103CB000ADF800009DF819009DF8181040EA0120A9
:103CC00000B2ADF802009DF81B009DF81A1040EA02
:103CD000012000B2ADF80400BDF9001028680844C6
:103CE0002860BDF90210686808446860BDF90410D6
:103CF000A8680844A8600AF1010000F0FF0AB24574
:103D000097DB1248D0F800C02868C117090441EABF
:103D10001041070462460023384603F03FFE324656
:103D20000023CDE9020103F039FE28600748D0F8EE
:103D300000C06868C117090441EA104107046246DF
:103D40000023384606E0000054E3853F74AE0008C7
:103D5000C000002003F022FE32460023CDE902011C
:103D600003F01CFE6860FE48D0F800C0A868C117C8
:103D7000090441EA1041070462460023384603F073
:103D80000DFE32460023CDE9020103F007FEA860D4
:103D9000F348D0F804C02168C817000440EA11486D
:103DA0000F04624600233846414603F0F7FD3246D1
:103DB0000023CDE9020103F0F1FD2060E848D0F8CE
:103DC00004C06068C117090441EA10410704624653
:103DD0000023384603F0E2FD32460023CDE902011C
:103DE00003F0DCFD6060DE48D0F804C0A068C117B5
:103DF000090441EA1041070462460023384603F0F3
:103E0000CDFD32460023CDE9020103F0C7FDA060DD
:103E1000A068002804DDA068A0F58030A06003E061
:103E2000A06800F58030A0600020E0E538B50446C9
:103E3000CC4890F82400A04201D1002038BD24B322
:103E4000C84890F8250010B94FF0FF30F6E7002081
:103E5000FEF74AFB0020FEF76FFCC249C88CFEF754
:103E6000DCFE00200090BF49496808786B460122BB
:103E70002321FEF7FFFA0121BA4880F8241001201F
:103E8000FEF732FBFEF7FCFC13E00020FEF72CFBF4
:103E9000B448007C0090B349496808786B46012219
:103EA0002321FEF7E7FA0021AE4880F82410FEF740
:103EB000E7FC0020C2E72DE9F04F8DB083460F46A6
:103EC00002200C90A74890F8240020B10020FFF7B2
:103ED000ADFF012600E0002603A8FFF7E2F905A8E0
:103EE000FFF7FFF901A8FFF720FA02A8FFF742FA4F
:103EF0009C4890F80AA004A8FFF796FA002407E06F
:103F0000002239465846FFF759FD00B902E0641C0B
:103F1000022CF5DB00BF022C01D1002528E0002493
:103F200007E0012206A909A8FFF748FD00B902E051
:103F3000641C022CF5DB00BF022C01D1002517E028
:103F400006A93846FFF75CFC00F0FF0809A95846AF
:103F5000FFF7A8FC00F0FF090025B9F1000F01D11F
:103F600045F00105B8F1000F01D145F0020500BF91
:103F7000FF207C490872FF217A484172C1724FF6D6
:103F8000FF71C181FF218172017401210173BDF8AC
:103F90000C00FEF7D0FE9DF81400FEF78AFEBDF877
:103FA0000400FEF78EFDBDF80800FEF736FE504611
:103FB000FEF75DFB9DF81000FEF74EFD16B10120E7
:103FC000FFF734FF28460DB0BDE8F08FF8B5044682
:103FD0000D46164616B94FF0FF30F8BD6148807A9D
:103FE00010B94FF0FF30F8E720128DF80000E0B272
:103FF0008DF801009DF8010028445A494968498913
:10400000884202DD4FF0FF30E7E7564A1268117E22
:10401000544A526810786B460222FEF72BFA10B110
:104020004FF0FF30D9E7EAB24E4B1B68597D4D4B3C
:104030005B6818783346FEF71DFA10B14FF0FF3079
:10404000CBE70020C9E7F8B504460D46164616B979
:104050004FF0FF30F8BD4348807A10B94FF0FF3081
:10406000F8E720128DF80000E0B28DF801009DF80D
:10407000010028443B4949684989884202DD4FF0E4
:10408000FF30E7E7374A1268117E364A52681078E7
:104090006B460222FEF7EEF910B14FF0FF30D9E780
:1040A000EAB2304B1B68597D2E4B5B68187833465B
:1040B000FEF72BF910B14FF0FF30CBE70020C9E736
:1040C0002DE9F04385B005460E46904699462548B1
:1040D00090F8250020B14FF0FF3005B0BDE8F08327
:1040E00016B94FF0FF30F8E7002423E0281B102812
:1040F00001DD102000E0281B87B232193946204626
:10410000FFF764FF10B14FF0FF30E6E701AA394630
:104110002046FFF798FF10B14FF0FF30DDE7301970
:104120003A4601A903F032FE10B16FF00100D4E766
:10413000E01984B2AC42D9DB4FEA28208DF80000A8
:1041400008F0FF008DF80100064A1268917E054ACA
:10415000526810786B460222FEF78CF938B103E002
:1041600074AE0008C00000204FF0FF30B5E7012119
:10417000FE4880F82510A0F826900020ADE7014603
:10418000FA4890F824000870002070474FF0FF3084
:10419000704702464FF0FF30704701464FF0FF3046
:1041A0007047F8B505460F461446002C70D0B5F59B
:1041B000FF5F01DDFF2605E0202D01DA012601E089
:1041C000C5F3471607B90127282C02DD4FF0FF3051
:1041D000F8BDE648407D28BBE44890F8240038B19B
:1041E0000020FFF723FE0121E04880F8201003E0C3
:1041F0000021DE4880F82010DC481630FFF751F827
:10420000DA481830FFF76DF8D8481A30FFF78DF804
:10421000D6481C30FFF7AEF8D448817A81771F303A
:10422000FFF702F90020FEF75FF90020FEF788FC97
:1042300000208DF80000CD4A12689178CB4A526870
:1042400010786B460122FEF715F910B14FF0FF30E0
:10425000BEE740208DF80000C44A1268D17BC34AF3
:10426000526810786B460122FEF704F900B165E050
:104270008DF800608DF80170BC4A1268117ABB4A53
:10428000526810786B460222FEF7F4F808B155E048
:1042900047E0052001F0E1FAB448407A072101EB3C
:1042A000C000C0B28DF80000B04A1268D179AF4AA0
:1042B000526810786B460122FEF7DCF800B13DE051
:1042C00020208DF80000012C03D100208DF8010082
:1042D0000EE0052C03DC01208DF8010008E0142C11
:1042E00003DC02208DF8010002E003208DF80100BC
:1042F0009DF80100072101EB8010C0B28DF801008C
:104300009A4A1268917C994A526810786B46022248
:10431000FEF7B0F800B111E001219448417500208A
:1043200056E7924A1632002103E0505C00B105E0E6
:10433000491C0C29F9D34FF0FF3049E7FF208B4986
:104340000872FF2189484172C1724FF6FF71C18125
:10435000FF2181720174012101730146887FFEF7FC
:1043600086F98249C88AFEF7E6FC8049087EFEF796
:10437000A0FC7E49488BFEF7A4FB7C49888BFEF7A6
:104380004CFC7A49C87FFEF767FB784890F820001C
:1043900010B10120FFF74AFD00217448417500204B
:1043A00016E770B588B002A905A8FFF784FD04469A
:1043B000032C3ED101A8FEF7F3FF059806F0ECFAB6
:1043C0000646019906F048FB054606F0A9FA059055
:1043D000069806F0E1FA0646019906F03DFB05460F
:1043E00006F09EFA0690079806F0D6FA064601995E
:1043F00006F032FB054606F093FA079005A800F098
:1044000054FA6846FEF7E9FFBDF8001002984843E9
:104410000290BDF80010039848430390BDF80010C7
:1044200004984843049002A800F0D2FA002008B093
:1044300070BD0120FBE7014691F90020002A01DD53
:1044400000201EE091F90020002A01DA042018E083
:1044500091F90120002A01DD012012E091F90120EB
:10446000002A01DA05200CE091F90220002A01DD82
:10447000022006E091F90220002A01DA062000E07D
:104480000720704710B504462046FFF7D4FF0346C7
:10449000E01CFFF7D0FF43EAC00083B2A01DFFF786
:1044A000CAFF43EA801083B2184610BD70B50024DD
:1044B000FDF73BFDFEF781FC002840D17820FEF798
:1044C000D6F8C4B20CB1012070BD7820FEF7C4FA52
:1044D000C4B20CB10220F7E76420FEF79EFBC4B221
:1044E0000CB10320F0E700F045F9C4B20CB1042090
:1044F000EAE71F48FFF7C6FF054600F045F9C4B2DA
:104500000CB10520E0E740F2731000F07EFDC4B26C
:104510000CB10620D8E7642000F0F0FAC4B20CB168
:104520000720D1E7FFF73DFF04460CB10820CBE799
:104530000120FFF77BFCC4B21CB10920C4E70A20AC
:10454000C2E70020C0E72DE9F04F99B004460D46C0
:1045500016464FF07E574FF000084FF000094FF01D
:10456000000A12A813A918AB0EAA03E0C00000208D
:10457000EC000020CDE9001014A916A800F0A4FE5C
:1045800018B1012019B0BDE8F08FBDF84C0000F45F
:10459000807000287ED00E9806F0FEF983464FF01A
:1045A0009D4106F0C7F807460F9806F0F5F98346D7
:1045B0004FF09D4106F0BEF88046109806F0ECF9E9
:1045C00083464FF09D4106F0B5F88146119806F0FC
:1045D000E3F983464FF09D4106F0ACF88246394638
:1045E0004FF0804006F038FA4946059006F034FA5C
:1045F000414607904FF0404006F02EFA5146059094
:1046000006F02AFA0690079906F026F8834605F088
:10461000F7FFCDE9080104F041FF4FF06632544B3B
:10462000CDE90A0105F012FDCDE90C0105F07AFA99
:10463000206049464FF0804006F00EFA494602904D
:1046400006F00AFA414604904FF0404006F004FAA2
:104650004146029006F000FA0390049906F0FAFA37
:1046600083464FF07E5105F0F7FF059005F0C8FF37
:10467000CDE9080139464FF0804006F0EDF941469A
:10468000039006F0E9F9494604904FF0804006F0A7
:10469000E3F900E068E05146039006F0DDF9834657
:1046A000049905F0D9FF059005F0AAFFCDE90601B0
:1046B000DDE9082305F03AF94FF066322C4BCDE9DD
:1046C0000A0105F0C3FCCDE90C0105F02BFA2860C6
:1046D0005146504606F0C0F949460490484606F057
:1046E000BBF941460390404606F0B6F939460190C1
:1046F000384606F0B1F90090019905F0ADFF02903F
:10470000039906F0A7FA8346049906F0A3FA0590E8
:1047100005F076FFCDE908015146384606F09CF9D0
:1047200049460490404606F097F90390049905F035
:1047300093FF4FF08041059006F08EF9834605F017
:104740005FFFCDE90601DDE9082305F0EFF84FF042
:104750006632074BCDE90A0105F078FCCDE90C0182
:1047600005F0E0F9306001E002200BE7002009E7E6
:1047700066A64C4010B5C8234FF48062F74940F656
:10478000F630FFF79DFC10BD10B586B00446F4A0CE
:1047900000680390F3A000680290F3A00068019005
:1047A000F2A00068009004F0030003A9085C8DF8F3
:1047B000140003A8C4F3C101405C8DF8150003A8E0
:1047C000C4F38111405C8DF8160004F0030002A9C7
:1047D000085C8DF8100002A8C4F3C101405C8DF89C
:1047E000110002A8C4F38111405C8DF8120005AAE3
:1047F000032140F22640FFF7E9FB18B14FF0FF30EC
:1048000006B010BD04AA032140F22A40FFF7DEFBE8
:1048100010B14FF0FF30F3E7019805900098049035
:1048200004F0040058B19DF8140040F001008DF828
:1048300014009DF8100040F001008DF8100004F005
:10484000200058B19DF8150040F001008DF81500CA
:104850009DF8110040F001008DF8110004F4807003
:1048600058B19DF8160040F001008DF816009DF833
:10487000120040F001008DF8120005AA03214FF448
:104880008860FFF7A3FB10B14FF0FF30B8E704AA30
:10489000032140F23140FFF799FB10B14FF0FF3098
:1048A000AEE7B34804810020AAE71FB50446B0482C
:1048B000007A00F0030054F820000190AC48007A20
:1048C00000F0040010B1019840420190A848007A1D
:1048D000C0F3C10054F820000290A548007A00F00F
:1048E000200010B1029840420290A148007AC0F323
:1048F000811054F8200003909D48008900F48070D6
:1049000010B10398404203909A49019880FB01013D
:10491000800F40EA810001909649029880FB0110C7
:10492000820042EA917002909249039880FB011044
:10493000820042EA917003900198000E8DF8000009
:104940000198000C8DF801000198000A8DF8020012
:104950000198C0B28DF803006A4604214FF47470C8
:10496000FFF734FB18B14FF0FF3004B010BD0298D0
:10497000000E8DF800000298000C8DF801000298DE
:10498000000A8DF802000298C0B28DF803006A4652
:1049900004214FF47570FFF719FB10B14FF0FF3091
:1049A000E3E70398000E8DF800000398000C8DF8E3
:1049B00001000398000A8DF802000398C0B28DF838
:1049C00003006A4604214FF47670FFF7FFFACCE744
:1049D00070B588B0064601A8FEF7FFFCBDF80400DC
:1049E0000021C90341EA5045C4036148007A00F040
:1049F000030056F8200005905D48007A00F004009E
:104A000010B10598404205905948007AC0F3C100A2
:104A100056F8200006905648007A00F0200010B1A9
:104A20000698404206905248007AC0F3811056F82A
:104A3000200007904E48008900F4807010B107985C
:104A4000404207900598C117A0FB042301FB0431E5
:104A500000FB0510810041EA927005900698C1178D
:104A6000A0FB042301FB043100FB0510810041EA97
:104A7000927006900798C117A0FB042301FB043134
:104A800000FB0510810041EA927007900598000E26
:104A90008DF808000598000C8DF809000598000AAB
:104AA0008DF80A000598C0B28DF80B000698000E2C
:104AB0008DF80C000698000C8DF80D000698000A81
:104AC0008DF80E000698C0B28DF80F000798000E02
:104AD0008DF810000798000C8DF811000798000A57
:104AE0008DF812000798C0B28DF8130002AA0C21AD
:104AF0004FF42570FFF76AFA08B070BD30B585B085
:104B000004461DA207CA02AB07C3C82C03DD4FF041
:104B1000FF3005B030BDC82090FBF4F0401E85B2D8
:104B2000280A8DF80000E8B28DF801006A460221DB
:104B300040F21620FFF74AFA10B14FF0FF30E8E7D5
:104B400002AA0C2140F6C120FFF740FA10B14FF045
:104B5000FF30DEE7064884810020DAE79CAE0008DB
:104B60004CCD6C000CC92C003656760026466600EB
:104B7000FC02002009E3CA02FEF2ABC4AAF1DFDFA7
:104B8000BBAFDFDF0146FC4880890880002070470A
:104B90002DE9FC4706460F4606F0070010B1B7F5B1
:104BA000C86F03DD4FF0FF30BDE8FC87384605F0E5
:104BB0000BFF8146F14905F0BDFD80466846FEF7D2
:104BC00090FB9DF80000022806D0042816D0082883
:104BD00026D0102848D135E04FF08D41404605F0F1
:104BE0003BFF814605F0B8FE84B2E549404605F03A
:104BF00033FF814605F0B0FE85B238E04FF08C41BE
:104C0000404605F029FF814605F0A6FE84B2DD4945
:104C1000404605F021FF814605F09EFE85B226E064
:104C20004FF08B41404605F017FF814605F094FE9A
:104C300084B2D549404605F00FFF814605F08CFE51
:104C400085B214E04FF08A41404605F005FF8146E9
:104C500005F082FE84B2CD49404605F0FDFE814656
:104C600005F07AFE85B202E04FF0FF309CE700BF0E
:104C700020128DF80400E0B28DF8050028128DF89E
:104C80000600E8B28DF8070006F00100A0B101AA05
:104C900002214FF4EA70FFF799F910B14FF0FF309D
:104CA00082E70DF1060202214FF49270FFF78EF9B0
:104CB00010B14FF0FF3077E706F00200A0B101AA73
:104CC00002214FF4EC70FFF781F910B14FF0FF3083
:104CD0006AE70DF1060202214FF49470FFF776F9AE
:104CE00010B14FF0FF305FE706F00400A0B101AA59
:104CF00002214FF4EE70FFF769F910B14FF0FF3069
:104D000052E70DF1060202214FF49670FFF75EF9AB
:104D100010B14FF0FF3047E7002045E738B50446B3
:104D20000020009004F0010020B19DF8000040F048
:104D30003000009004F0020020B19DF8000040F027
:104D40000C00009004F0040020B19DF8000040F039
:104D5000030000906A4601214FF4A470FFF736F972
:104D600038BD38B50446012C01DA012402E0042CD8
:104D700000DD0424601EC0B200906A46012140F2AA
:104D80004F10FFF723F938BD38B50446052094FBD2
:104D9000F0F085B228128DF80000E8B28DF801001D
:104DA0006A4602214FF4EF70FFF710F938BD38B5AD
:104DB0000446052094FBF0F085B228128DF800001F
:104DC000E8B28DF801006A4602214FF4ED70FFF75A
:104DD000FDF838BDF8B505460E464FF47A7095FBE0
:104DE000F0F000FB06F4200E8DF80000200C8DF88A
:104DF0000100200A8DF80200E0B28DF803006A4637
:104E000004214FF4AE70FFF7E1F8F8BD38B5044661
:104E1000052094FBF0F084B220128DF80000E0B27F
:104E20008DF801006A4602214FF4AD70FFF7CEF80D
:104E300038BD38B50446052094FBF0F084B220124A
:104E40008DF80000E0B28DF801006A4602214FF4AF
:104E5000AC70FFF7BBF838BD38B5044614B94FF055
:104E6000FF3038BD6A4604214FF45870FFF7EBF865
:104E700010B14FF0FF30F4E79DF8000000069DF8F8
:104E8000011040EA01409DF8021040EA01209DF81F
:104E90000310084320600020E3E738B50446200EE5
:104EA0008DF80000200C8DF80100200A8DF802001A
:104EB000E0B28DF803006A4604214FF45870FFF702
:104EC00085F838BD38B5044614B94FF0FF3038BD09
:104ED0006A4604214FF47170FFF7B5F810B14FF036
:104EE000FF30F4E79DF8000000069DF8011040EA4D
:104EF00001409DF8021040EA01209DF8031008438C
:104F000000EB8000800020600020E0E738B5044618
:104F10001420B4FBF0F4200E8DF80000200C8DF866
:104F20000100200A8DF80200E0B28DF803006A4605
:104F300004214FF47170FFF749F838BD38B50446C5
:104F400064B120208DF8000028208DF80100302069
:104F50008DF8020038208DF8030004E0A32204211C
:104F6000684602F0D5FF6A46042140F69E20FFF70E
:104F70002DF8FDF785FC38BDFC02002000004843F9
:104F8000000040460000C045000040450000C0440D
:104F900038B5044664B1C0208DF80000C2208DF8F9
:104FA0000100C4208DF80200C6208DF8030004E043
:104FB0008B220421684602F0ABFF6A46042140F6CA
:104FC0009820FFF703F8FDF75BFC38BD3EB50446BB
:104FD0006CB1FDA1D1E900208968CDE900200291E2
:104FE0006A4609214FF49760FEF7F0FF3EBDF9A233
:104FF000D2E900109268CDE9010200916A460921C8
:105000004FF49760FEF7E2FFF0E73EB5044602205A
:105010008DF80000CA208DF80100E3208DF8020011
:1050200009208DF803006A4604216820FEF7CEFFB0
:10503000A3208DF8000004F0400048B1C0208DF896
:105040000100C8208DF80200C2208DF8030006E0A0
:10505000A3208DF801008DF802008DF8030004F400
:10506000C07048B1C4208DF80400CC208DF8050034
:10507000C6208DF8060006E0A3208DF804008DF808
:1050800005008DF80600A3208DF807008DF80800B4
:105090008DF809006A460A2140F6A720FEF796FF20
:1050A00004F0030018B120208DF8000002E0D820A1
:1050B0008DF800006A46012140F6B620FEF786FF13
:1050C00004F0200018B10120FFF780FF02E000206B
:1050D000FFF77CFF04F4C07008B304F4807060B183
:1050E000B2208DF800008B208DF80100B6208DF8DD
:1050F00002009B208DF803000BE0B0208DF800002B
:1051000080208DF80100B4208DF8020090208DF8E9
:1051100003006A46042140F6A220FEF757FF04F080
:10512000010020B3F8208DF800006A4601214FF4F9
:105130000B60FEF74BFFFA210720FFF729FD072040
:10514000FFF7ECFD0120FFF70CFE6420FFF71CFECB
:105150004FF4FA70FFF72BFEC821A148FFF73AFE83
:105160002820FFF753FE0A20FFF763FE08E0D8204F
:105170008DF800006A4601214FF40B60FEF726FF10
:1051800004F0020018B1D9208DF8000002E0D82008
:105190008DF800006A46012140F23D70FEF716FFCF
:1051A00004F0040018B10120FFF7F2FE02E0002035
:1051B000FFF7EEFE04F0100018B10120FFF7BEFE6D
:1051C00002E00020FFF7BAFE44F00800854948815C
:1051D000FDF756FB00208349887304F0400018B1A6
:1051E0000846807B801D887304F4C07020B17D4820
:1051F000807B801D7B49887304F0140020B17948BE
:10520000807B10307749887304F0030020B1754823
:10521000807B001D7349887300203EBD01467148A4
:1052200040890880002070472DE9F0410446E0786D
:1052300000F0C006E07800F03F05607800F0010063
:1052400098B1EF102846E91705EB5171C910A5EB8D
:10525000C101491C01F0FF086248006820B16148A3
:10526000414602683846904700BF607800F0080069
:1052700030B15C48406818B1B0115A4A516888474B
:105280000020BDE8F08110B586B0044656A207CADA
:1052900003AB07C357A207CA8DE80700012C09D04A
:1052A000022C0ED103AA0B2140F68220FEF78EFEBF
:1052B00006B010BD6A460B2140F68220FEF786FE3E
:1052C000F6E74FF0FF30F3E72DE9F04F8DB00746DA
:1052D000884615469946DDE9166B0024002030808B
:1052E0004049887B5A4605A9FEF7D3F918B1601EDC
:1052F0000DB0BDE8F08F3B48807A00F01400002824
:1053000061D09DF8140000069DF8151040EA014098
:105310009DF8161040EA01209DF8171008432860F8
:105320009DF8180000069DF8191040EA01409DF80C
:105330001A1040EA01209DF81B10084368609DF890
:105340001C0000069DF81D1040EA01409DF81E104B
:1053500040EA01209DF81F100843A8609DF8200036
:1053600000069DF8211040EA01409DF8221040EA15
:1053700001209DF823100843E86004F11000C4B236
:10538000286800140190686800140290A86800144E
:105390000390E8680014049001984043029901FBCF
:1053A0000100039901FB0100049901FB010ABAF114
:1053B000706F02DBBAF1885F22DDFDF761FA002031
:1053C0003080401E94E721E0B8AAB38DB4980D3523
:1053D0005D000000B8AAAAAAB088C3C5C700000033
:1053E00009E3CA02FC020020D8B1B9F38BA391B63D
:1053F00009B4D900DAB1B9F38BA391B6DAB4DA0003
:10540000B6F9000040F48070308000BF3448807AE4
:1054100000F0400020B305A9601C085C095D40EA6B
:10542000012000B2A8F8000005A9E01C095C05AA4B
:10543000A01C105C41EA002000B2A8F8020005A9F7
:10544000601D095C201D105C41EA002000B2A8F834
:105450000400A01DC4B2B6F9000040F0080030807E
:105460001F48408900F4C07008B305A9601C085C9F
:10547000095D40EA012000B2388005A9E01C095C02
:1054800005AAA01C105C41EA002000B2788005A9A2
:10549000601D095C201D105C41EA002000B2B8804C
:1054A000A01DC4B2B6F9000040F0700030800C4876
:1054B000807A00F0030018B105A90819FFF7B4FEBF
:1054C0004846FDF74AFD002012E701460448016006
:1054D00000207047014602484160002070470000EC
:1054E000FC0200207FB505460C460121022001F098
:1054F000ECF8ADF80850ADF804400020ADF80A0013
:10550000ADF8060001A9144801F00EFC0122114675
:10551000114801F080FF1D208DF8000000208DF85B
:10552000010003208DF8020001208DF80300684679
:1055300000F011FB0121084801F052FF7FBD10B5BA
:105540000121054802F015FA28B10121024802F0B4
:1055500021FAFAF75FFE10BD0004004008B54FF4D1
:10556000A06000F0F3FA1E208DF8000000208DF8F6
:1055700001008DF8020001208DF80300684600F05C
:10558000EAFA08BD1FB50121082001F091F80820B2
:10559000ADF8000003208DF8020010208DF8030004
:1055A0006946884800F0C8FD0821864800F073FE6F
:1055B0008020ADF8000004208DF803006946814882
:1055C00000F0BAFD80217F4800F065FE0121042033
:1055D00001F07BF84FF0804001F0D2FA40F2E73062
:1055E000ADF808004720ADF804000020ADF80A002F
:1055F000ADF8060001A9744801F096FB012172483C
:1056000002F0B4F9012211466F4801F004FFFFF7E0
:10561000A5FF00216C4801F0E3FE1FBD1FB501216D
:10562000082001F045F84FF48050ADF80000032049
:105630008DF8020010208DF803006946614800F0E3
:105640007BFD4FF480515F4800F025FE4FF4005081
:10565000ADF8000004208DF803006946594800F0B9
:105660006BFD4FF40051574800F015FE0121042056
:1056700001F02BF84FF0804001F082FA40F2E73061
:10568000ADF808004720ADF804000020ADF80A008E
:10569000ADF8060001A94C4801F046FB01214A483B
:1056A00002F064F901221146474801F0B4FEFFF709
:1056B00055FF0021444801F093FE1FBD10B50021A5
:1056C000414802F021F900204049088001213E486C
:1056D00001F086FE10BD10B500213B4801F080FEB0
:1056E00010BD10B50121384802F043F940B1012145
:1056F000354802F04FF935480088401C334908808E
:1057000010BD10B500BF314800884FF47A7100FB1E
:1057100001F42D4802F01BF9044400202A492431E9
:105720000880322000F099F8204610BD2DE9F84F8E
:105730004FF0000A0024A346A14631E0012024498D
:105740000860142000F065F800202249C1F88C019F
:1057500000BF1F48703800680028FAD0FFF7AEFF7E
:10576000641C00BF1A48703800680128FAD0FFF79F
:10577000B2FFFFF7C6FF8246504605F025F90090BC
:1057800004F03EFF07460022134B04F0ADFA054635
:1057900004F0C8F983464946584604F05DFF814647
:1057A000052CCBD1484604F02BFF074600220B4BBB
:1057B00004F09AFA054604F0B5F983465846BDE868
:1057C000F88F0000000C014000080040F6000020A7
:1057D0008C8121420080214200004D400000144095
:1057E00010B56FF0040000F000FA2E4800682E4952
:1057F000B0FBF1F02D4908700846007800EB40013D
:10580000C1EBC0104FF6FF7101EAC00028490880C3
:1058100010BD0146254A12784A434FF0E0235A61F1
:1058200000229A611A46126942F001021A6100BF11
:105830004FF0E022106900F001021AB100F480324A
:10584000002AF5D04FF0E022126922F001024FF059
:10585000E0231A6100229A6170470146144A1288B7
:105860004A434FF0E0235A6100229A611A461269B6
:1058700042F001021A6100BF4FF0E022106900F00F
:1058800001021AB100F48032002AF5D04FF0E02274
:10589000126922F001024FF0E0231A6100229A619E
:1058A000704700006000002000127A00F80000201D
:1058B000FA00002000BF704700BF8C4A128802F037
:1058C0004002002AF9D0C2B2884B1B1D1A807047D3
:1058D00010B586B00446012144F2040000F0E8FE51
:1058E0004FF40070ADF8140003208DF81600182056
:1058F0008DF8170005A97E4800F01EFC4FF480606B
:10590000ADF8140004208DF8170005A9784800F0C0
:1059100013FC25208DF8000003208DF801008DF880
:10592000020001208DF80300684600F014F901948C
:105930000020ADF80800ADF80A00ADF80C00ADF895
:1059400010000C20ADF80E0001A96A4800F057FFC6
:10595000012240F22551674800F0E9FF0121654826
:1059600000F0D9FF06B010BD10B586B00446012185
:10597000042000F09DFE0121480400F0A6FE5B48D3
:1059800000F0FAFE18208DF817000420ADF814007E
:1059900003208DF8160005A9554800F0CDFB042022
:1059A0008DF817000820ADF8140005A9504800F044
:1059B000C3FB01940020ADF810000C20ADF80E00E0
:1059C0000020ADF80C00ADF80A00ADF8080001A900
:1059D000464800F014FF0121444800F09CFF0122DA
:1059E00040F22551414800F0A2FF26208DF800002A
:1059F00001208DF803008DF801008DF80200684643
:105A000000F0A9F806B010BD10B540F22551394894
:105A100001F072F810B3374800F0EEFFC4B2364818
:105A2000008800F40040C8B93348008800F4804082
:105A300060B10A2C03D000202F49088020E02E48B6
:105A4000008840F400402C49088019E00D2C06D154
:105A50002948008840F480402749088010E0264803
:105A60000088C0F30D0025490C5423480088401CD1
:105A70002149088008460088C72801DD00200880E9
:105A800010BD10B540F22551184801F035F880B12D
:105A9000164800F0B1FFC4B2194801780078401CE4
:105AA000174A10701748445440F225510F4801F02E
:105AB0004DF810BD70B504460D4600260CE000BF41
:105AC00080210A4801F002F80028F9D014F8011BDF
:105AD000064800F08DFF761CAE42F0D300BF402197
