:020000040800F2
:1000000028100020E50200085D3B00083735000895
:10001000A53A0008892000080952000800000000E5
:100020000000000000000000000000007D4A000801
:10003000E52200080000000007430008754B000897
:10004000FF020008FF020008FF020008FF0200088C
:10005000FF020008FF020008FF020008FF0200087C
:10006000FF020008FF020008FF020008FF0200086C
:10007000FF020008FF020008FF020008FF0200085C
:10008000FF020008FF020008FF020008FF0200084C
:10009000FF020008FF020008FF020008FF0200083C
:1000A000FF020008FF020008FF020008FF0200082C
:1000B000FF020008FF020008CD4B0008FF02000805
:1000C000FF020008FF020008FF020008FF0200080C
:1000D000FF020008515100089D510008FF0200086E
:1000E000FF020008FF020008FF020008FF020008EC
:1000F000FF020008FF020008FF020008FF020008DC
:10010000FF020008FF020008FF020008FF020008CB
:10011000FF020008FF020008FF020008FF020008BB
:10012000FF020008FF020008FF020008FF020008AB
:10013000FF020008FF020008FF020008FF0200089B
:10014000FF020008FF020008FF020008FF0200088B
:10015000FF020008FF020008FF020008FF0200087B
:10016000FF020008FF020008FF020008FF0200086B
:10017000FF020008FF020008FF0200080000000064
:10018000FF020008FF02000800F002F800F09BF8F0
:100190000AA090E8000C82448344AAF10107DA45E2
:1001A00001D100F090F8AFF2090EBAE80F0013F099
:1001B000010F18BFFB1A43F001031847B0C4000039
:1001C000D0C400000A444FF0000C10F8013B13F0BB
:1001D000070408BF10F8014B1D1108BF10F8015BA0
:1001E000641E05D010F8016B641E01F8016BF9D193
:1001F00013F0080F1EBF10F8014BAD1C0C1B09D1EA
:100200006D1E58BF01F801CBFAD505E014F8016B5B
:1002100001F8016B6D1EF9D59142D6D370470000ED
:100220000023002400250026103A28BF78C1FBD8FF
:10023000520728BF30C148BF0B6070476E2900F0DD
:10024000CB81702900F09682662909F0F883652930
:1002500009F0F583672909F0F283612909F0F18338
:10026000692900F07D81642900F07A81752900F008
:1002700077816F2900F02282782900F06E8203686E
:10028000DB0928BF41F08001632901F05E807329FA
:1002900001F06380E32901F08180002070471FB5E1
:1002A00009F0C3FB01F0D0F804000020002108F0A1
:1002B000AFFD401C60600020002108F093FDE0606D
:1002C0001FBD10B510BD01F0EFF91146FFF7E7FFB4
:1002D00006F082FC01F00DFA03B4FFF7F2FF03BC55
:1002E00005F0A1FC0948804709480047FEE7FEE702
:1002F000FEE7FEE7FEE7FEE7FEE7FEE7FEE7FEE7D6
:1003000004480549054A064B70470000794B000830
:1003100089010008280A002028100020280C00204D
:10032000280C0020704753EA020C00F069802DE988
:10033000F04B4FF00006002B1FBFB3FA83F503FA12
:1003400005F424FA05F65E4012BF1643B2FA82F5B0
:1003500002FA05F4C5F120051EBF22FA05FC44EAA5
:100360000C04203556EA044C4FEA144418BF641CB0
:100370004FF000084FF00009904271EB030C39D3A5
:10038000002919BFB1FA81F701FA07F6B0FA80F730
:1003900000FA07F6C7F120071EBF20FA07FC46EA5D
:1003A0000C062037B6FBF4FCA7EB0507103F07F05F
:1003B0001F0BCBF120060CFA0BFB2CFA06F644BF00
:1003C000B3460026202FA4BF5E464FF0000B5BEA29
:1003D000060C08BF4FF0010B19EB0B09ABFB027CBD
:1003E00048EB0608C01B06FB02CC0BFB03CC71EBF1
:1003F0000C01C1E70B46024641464846BDE8F08B7A
:1004000013B54FF000004FF00001AFF30080BDE8DE
:100410001C40704710B54C1084EA530404D5404288
:10042000C1F1000138BF491E1B4204D55242C3F13D
:10043000000338BF5B1EFFF776FF14F0804F04D037
:100440004042C1F1000138BF491E14F0004F04D0F2
:100450005242C3F1000338BF5B1E10BD0FB4044904
:1004600010B503AA029800F07DFF10BC5DF814FBE4
:100470006C0000200FB41CB5074B06AA7B446946EC
:100480000090059800F03FFF0020694600F04EFF05
:100490001CBC5DF814FB0000AD0E000070B50446F6
:1004A00085690068C10601D5302600E02026C00716
:1004B00007D070BDD4E9012130469047206A401C26
:1004C00020626D1EF6D570BD70B504468569007852
:1004D000C00707D170BDD4E9012120209047206AD0
:1004E000401C20626D1EF6D570BD09684A0501D515
:1004F00040B27047C905FCD500B2704709684A058B
:1005000001D5C0B27047C905FCD580B2704770B53F
:100510000C460546012A05D02878800600D5EA69F0
:10052000002302E0012305E05B1C934202D2E05C61
:100530000028F9D1A869E618C01AA861286A1844E9
:1005400028622846FFF7AAFF04E0D5E9012114F844
:10055000010B9047B442F8D32846FFF7B5FF70BDB2
:100560002DE9F0410646002410687529314616A58C
:1005700010D0FFF7BAFF002802DA404213A507E0C7
:1005800031688A0701D512A502E0490704D511A5F3
:10059000012401E0FFF7B2FF00210A2206F124073F
:1005A00009E0B0FBF2FCB0FBF2F302FB1C003030C0
:1005B00078541846491C0028F3D123462A46304671
:1005C000BDE8F04100F0B3BA000000002D000000CB
:1005D0002B0000002000000011680268006A53052B
:1005E00001D508700AE0D30501D5088006E013069E
:1005F00003D5C217C1E9000200E00860012070477E
:100600002DE9FF5F15468A460446DFF8AC80F844C2
:100610000027D8E900103E46CDE9001010E03AF876
:1006200016106A4602A800F0C5FE411C07D02178CA
:10063000890603D5E269391891420DD80744761C22
:100640002078800602D5E069B84205DDAE42E6DBDF
:100650003AF816000028E2D1A069C01BA06120462C
:10066000FFF71CFFD8E90010CDE90010002017E0CB
:100670003AF818106A4602A800F09CFEB0F1FF3F5D
:1006800081460BD000250DF1080B05E0D4E90121CE
:100690001BF8050090476D1C4D45F7D308F101008C
:1006A000B0428046E4DB206A384420622046FFF7EF
:1006B0000BFFBDE8FF9F0000F6BC000070B50446CC
:1006C00021461068FFF71AFF002104F1240505E018
:1006D00000F007023032C0086A54491C0028F7D1E4
:1006E0002068002307A2050707D5800600D421B1A2
:1006F000E069012304A2401EE0612046BDE870408D
:1007000000F015BA0000000030000000F0B40D4603
:100710000188090502D51B4C7C4402E0194C7C443D
:100720000E34002100F1240305E002F00F06120947
:10073000A65D5E54491C002AF7D1027800231207F7
:1007400004D5702D06D009B1022311342246F0BC25
:1007500000F0EDB901231034F8E770B504460D46FA
:1007600021461068FFF7CAFE024629462046BDE82A
:100770007040CBE70368126843F02003036008234E
:10078000C361C3E7F4BB00002DE9F05F894604466E
:100790004FF0000ADFF874B1FB44C0F820A02046F7
:1007A000E1688847002874D0252806D0D4E90121C3
:1007B0009047206A401C2062F1E700265F462046F1
:1007C000E16888472028054607DB312D05D27819D6
:1007D00010F8200C08B10643F1E7B00701D526F068
:1007E0000406C4F81CA00027C4F818A02A2D09D0BC
:1007F000284605F011FA38B304EB8708303DC8F8F5
:10080000185019E059F8041B204604EB8702916147
:10081000E1688847012F054618D1E069002820DAF1
:1008200026F020061DE0D8F8180000EB800005EB4C
:1008300040003038C8F818002046E168884705466F
:1008400005F0EAF90028EED1012F0AD02E2D08D1AB
:100850002046E16888477F1C0546022F46F02006A7
:10086000C4DBA069002803DA404246F00106A0611B
:10087000F00701D026F010066C2D0BD0682D09D0A2
:100880004C2D39D06A2D35D0742D35D07A2D33D0FA
:1008900016E038E0E1682F4620468847B842054612
:1008A00009D16C2F26D04FF48060E16806432046C2
:1008B0008847054604E06C2F1AD04FF48070064339
:1008C0000DB3A5F14100192802D8203546F4006681
:1008D0004A462946204626604E46FFF7AFFC80B1C7
:1008E00001280BD0F61D26F0070000F1080956E795
:1008F0004020E4E78020D8E70020D6E706F104098D
:100900004DE7284652E7206ABDE8F09F9CBB0000F7
:1009100030B505460B462A4613F8014B12F8010B79
:1009200008B1A042F8D01CB1002802D06D1CF1E73C
:10093000284630BD40EA010310B59B070FD1042AB9
:100940000DD310C808C9121F9C42F8D020BA19BA9A
:10095000884201D9012010BD4FF0FF3010BD1AB1FF
:10096000D30703D0521C07E0002010BD10F8013B54
:1009700011F8014B1B1B07D110F8013B11F8014B7B
:100980001B1B01D1921EF1D1184610BD40EA010394
:10099000024630B59B0710D14FF0013400E008C289
:1009A00008C91D1B9D4315EAC41FF8D013F0FF01B1
:1009B00002F8011B0DD01B0AF8E711F8013B002BD0
:1009C00002F8013B05D011F8013B002B02F8013B76
:1009D000F3D130BD10B5431C02E010F8011B71B11A
:1009E0008107FAD14FF0013202C88C1A8C4314EA05
:1009F000C211F9D0C01A0A0603D0C01E10BDC01A19
:100A000010BD0A0401D0801E10BD0902FCD0401E9A
:100A100010BD032A40F2308010F0030C00F0158066
:100A200011F8013BBCF1020F624498BF11F801CBF1
:100A300000F8013B38BF11F8013BA2F1040298BF56
:100A400000F801CB38BF00F8013B11F0030300F0C0
:100A50002580083AC0F0088051F8043B083A51F864
:100A600004CBA0E80810F5E7121D5CBF51F8043B69
:100A700040F8043BAFF30080D20724BF11F8013BDC
:100A800011F801CB48BF11F8012B24BF00F8013B3E
:100A900000F801CB48BF00F8012B704710B5203A91
:100AA000C0F00B80B1E81850203AA0E81850B1E827
:100AB0001850A0E81850BFF4F5AF5FEA027C24BFDD
:100AC000B1E81850A0E8185044BF18C918C0BDE8D4
:100AD00010405FEA827C24BF51F8043B40F8043B9D
:100AE00008BF7047D20728BF31F8023B48BF11F852
:100AF000012B28BF20F8023B48BF00F8012B7047AC
:100B000002F0FF0343EA032242EA024200F074BC0F
:100B1000704770477047704710B500F099FC006847
:100B200010BD10B5044600F093FC046010BD2DE923
:100B3000F0470D4699469246044600F124080168A4
:100B4000880604D5E06921F01001216000E0012051
:100B5000A84201DD471B00E00027A1697A1902EBDA
:100B60000900081AA0612078C00602D42046FFF7C9
:100B700095FC002608E0D4E901211AF80600904708
:100B8000206A401C761C20624E45F4DB2078C006AB
:100B90000AD52046FFF782FC06E0D4E90121302087
:100BA0009047206A401C2062381EA7F10107F4DC40
:100BB00007E0D4E9012118F805009047206A401C9D
:100BC0002062281EA5F10105F3DC2046FFF77CFC1E
:100BD0002078000602D50220BDE8F0870120FBE75F
:100BE00070472DE9FF4F0C461E464FF0FF378BB084
:100BF000D2E90001DDF860800A908A46C1F30A5507
:100C000005B93D46002108464FF00000BAF1000F3B
:100C100000F4400005DA00EB80004FF4400101EAE7
:100C200050004FEA9059B9F1010F00DDB9460A981A
:100C300050EA4A000ED044F61050A5F2FF35454365
:100C40002F14B8F1000F1ED07542291E1EDDC9F108
:100C500000021CE0B8F1010F4FF0000001D030217C
:100C600003E0F24305E02154401CB042FBDB304678
:100C70000022002121540B99C1F80880C1E900200D
:100C80000FB0BDE8F08FBD1B6D1CDEE74A4600DAF1
:100C9000694206A800F066FC06AB93E8070003ABC8
:100CA00083E8070050460A9900F06CFD8DE80700C4
:100CB000A0F500501F3800900398002D0ADD42F285
:100CC0001F014A460844002303A90390684600F028
:100CD000D5FF09E0A0F500504A461F38002303A9BC
:100CE0000390684600F0DFFF8DE807000004000C69
:100CF00003D04FF0FF30410800E01046B8F1000F7C
:100D000003D00022009215461EE0751E05D400F0A7
:100D1000A3FB303262556D1EF9D5B346012208435C
:100D200002D000227F1C04E02078302801D100226C
:100D30007F1E002A099784D01DE0112D07DA00F0EC
:100D40008BFB303262556D1C50EA0102F5D108432D
:100D500002D00098C8B10EE00021681E05E0235CB7
:100D6000625C63542254401E491C8142F7DBAB464F
:100D7000A81B401E0990002004F80B000B98099A4C
:100D8000C0F80880C0E9002B7AE711264FF0000870
:100D900057E72DE9F04F88460446D21D22F007019F
:100DA00091B0D1E90001CDE90A0104F049FA024607
:100DB0000B98C00F01D02D2007E02068810701D5D6
:100DC0002B2002E0202101EAC000032A099001D073
:100DD000072A05DB03464146204600F083FB0BE172
:100DE0002078800601D5E06900E00620B8F1650FA3
:100DF000814606D0B8F1660F18D0B8F1670F70D1F0
:100E000031E00020B9F1110F009001DB112301E066
:100E100009F101030AAA01A90CA8FFF7E2FEDDE926
:100E20000C70002609F10105834647E001204B467E
:100E300000904FF000470AAA01A90CA8FFF7D1FEC5
:100E4000DDE90DB00C995D46002610B909F10100ED
:100E50000D18B9EB050003D4C0F1FF3609F1010507
:100E6000A5EB09002BE0B9F1010F01DA4FF0010900
:100E70000020B9F1110F0090484601DD112300E078
:100E800003460AAA01A90CA8FFF7ABFEDDE90C7026
:100E90004D4600268346207800070AD4AB4500DA89
:100EA0005D4601A8012D04DD411911F8011C30290E
:100EB00007D04F4502DA17F1040F04DA0120824609
:100EC0000FE06D1EEEE7002F02DCED1B3E4403E059
:100ED000781CA84200DD7D1CB81B00F1010A4FF010
:100EE00000472078000703D4AA4501DB4FF0FF3A02
:100EF0000021B7F1004F0DF143088DF8431024D0C5
:100F000002202B23002F01DA7F422D230A21021E0B
:100F1000A0F1010000DC5FB197FBF1FC97FBF1F25F
:100F200001FB1C7C17460CF1300C08F801CDEEE7F4
:100F3000A8F1010003702188090501D5452100E0D1
:100F40006521A0F1010800F8011C09980FA9A1EB87
:100F50000807FF1D00B10120411901EBEA70A169EA
:100F60003844081A401EA0612078C00602D42046EA
:100F7000FFF794FA099828B1D4E901219047206A33
:100F8000401C20622078C00622D52046FFF786FA52
:100F90001EE0002E04DBB34502DD01A8805D00E009
:100FA0003020D4E901219047206A401C2062761C41
:100FB000AAF101005FEA000A0AD100F045FAC06810
:100FC0000168405CD4E901219047206A401C2062FE
:100FD000281EA5F10105DCDC07E0D4E9012118F8A1
:100FE000010B9047206A401C2062381EA7F10107C0
:100FF000F3DC2046FFF768FA032011B041E6000059
:101000002DE9F04F04460D46D21D22F0070089B0AD
:10101000D0E900974846394604F012F90246F80F25
:1010200001D02D2307E02068810701D52B2302E0A2
:10103000202101EAC0038DF820300BB1012000E02F
:101040000020032A824601D0072A04DB29462046D5
:1010500000F048FA3FE12078800601D40D2500E039
:10106000E569C7F30A560D2D49DA00214FEA175BEF
:1010700008464FF00000002F00F4400007DA00EBB4
:1010800080004FF4400100EBD07001EA6000811550
:10109000012901DD4FF0FF3100224FEA850CBCF140
:1010A000180F06D31346ACF118004FF08052C2401F
:1010B00003E04FF4801323FA0CF30CF10C0CBCF199
:1010C000200F04D3ACF1200C09FA0CF001E007FA70
:1010D0000CF000294FF0004801DD18B90FE00ED1E7
:1010E00040450CD319EB02095F4121B9404502D1BB
:1010F0009F4329EA0209BBEB175F00D0761C2088CA
:10110000000502D57B48784402E07A4878441938D3
:1011100008AA302302F80A30037C0AF10101002EEC
:101120000AF1020A53546A4602DC4FF0300101E032
:101130004FF031014FF001088DF8001002D0A6F2F7
:10114000FF3603E059EA470100D06B4E002D02DC68
:101150002178090704D54FF002082E218DF80110DF
:10116000C44600210BE0C7F303433F01C35C491CA5
:101170006D1E02F80830052908F1010801DA002D7A
:10118000F1DC00210CE000EB1973491C1B786D1E8B
:10119000082902F808304FEA091908F1010801DAB4
:1011A000002DF0DC21688B0602D516E0A8F10108BD
:1011B000E04505DD02EB080313F8013C302BF5D0C8
:1011C000B8F1000F09DD02EB080313F8013C2E2BE8
:1011D00003D1090701D4A8F10108002D05DD3E2146
:1011E00002F808106D1E08F10108407C002E02F87C
:1011F000080008F1010804DA2D20764202F8080000
:1012000002E02B2002F808000A214FF47A7086428F
:1012100008F101080BDB96FBF0F3303302F80830DD
:1012200096FBF0F308F1010800FB136601E0642E61
:101230000CDB642096FBF0F3303302F8083096FBA9
:10124000F0F308F1010800FB136601E00A2E06DB4B
:1012500096FBF1F0303002F8080008F1010896FB27
:10126000F1F001FB1060303002F80800A16908F1CC
:10127000010808EB050202EB0A00081AA0612078B9
:10128000C00602D42046FFF709F9216A08AE01EB37
:101290000A00206204E0D4E9012116F8010B90470E
:1012A000BAF1010AF7D22078C00602D52046FFF72E
:1012B000F5F86E4609E016F8010B3E280FD0D4E988
:1012C00001219047206A401C2062B8F10108F2D247
:1012D0002046FFF7F9F809B00320BDE8F08F206A37
:1012E0002844206203E0D4E90121302090476D1E9C
:1012F000EBD3F8E7A9B2000002FCFFFF01694A1C2A
:1013000002610878704700B58FB0CDE90131002146
:10131000059105497944CDE9031011466846FFF768
:1013200033FA0FB000BD0000E5FFFFFF0A6802F8C6
:10133000010B0A60704710B5436913B1AFF3008029
:1013400001E0FFF7E4F8012010BD127800F124015C
:101350000A7000224A700122EDE711684FF0FF3257
:10136000E9E70000074B70B50D467B44FFF7CBFF64
:101370000446284600F068F910B14FF0FF3070BD08
:10138000204670BD4B53000010B5436913B1AFF355
:10139000008001E0FFF734F9012010BD128800F150
:1013A000240182840022C2840122EDE711684FF0FB
:1013B000FF32E9E770B516460C46054600F03CF8EA
:1013C000036893F80101012806D0FF2C0FD8185D9F
:1013D00068B101202C7070BDD3F807013246214658
:1013E00003F2071303442846BDE8704018474FF046
:1013F000FF3070BD4FF000020429C0F0128010F0E1
:10140000030C00F02781CCF1040CBCF1020F18BFD3
:1014100000F8012BA8BF20F8022BA1EB0C0100F073
:1014200019B95FEAC17C24BF00F8012B00F8012B39
:1014300048BF00F8012B704710B500F005F8001DFB
:1014400010BD00BFCD79000000487047E8090020BA
:1014500000487047C809002030B5B0F10A024FEAD1
:10146000900E71F100034EEA817EB0EB0E0061EB4D
:1014700091014FEA101E4EEA017E10EB0E0041EB87
:1014800011114FEA102E4EEA016E10EB0E0041EBE7
:1014900011214FEA104E4EEA014E10EB0E0041EBC7
:1014A0001141401841F100014FEAD00040EA41707B
:1014B0004FEAD10110EB80054FEA810444EA9074B1
:1014C00044EB01046D1944EB0404521BA3414FF09B
:1014D000000348BF0A3200D530BD401C41F1000175
:1014E00030BD00002DE9F0411F4604460326016887
:1014F000072A01F4006004DB08B116A505E016A573
:1015000003E008B115A500E015A521F0100020604A
:10151000A069C01EA0610FB1401EA0612046FEF769
:10152000BDFF4FB1D4E9012138469047206A401CE5
:101530002062C01C206206E0206AFAE7D4E901219B
:1015400015F8010B9047761EF8D22046FEF7BCFF37
:10155000BDE8F0814E414E006E616E00494E46007E
:10156000696E66002DE9F047814616468AB0354817
:1015700078440DC88DE80D0032487844801C03ACD7
:101580000DC884E80D0041F69B300844372190FBDC
:10159000F1F290FBF1F5A5F1800501FB12041B3C73
:1015A00002D56442012000E00020DFF898A08046C8
:1015B0000027FA44AAF1BE0A0EE0E0070AD032463C
:1015C000684607EB470101230AEB810100F06BFB42
:1015D0008DE8070064107F1C002CEED1194F7F446A
:1015E000AE3F19E0E80715D007EB04100DF1180A1B
:1015F00090E80E008AE80E00C068F04201D1981908
:1016000008903246012306A903A800F04CFB03AB67
:1016100083E807006D10641C002DE3D14FF0010337
:1016200032466946B8F1000F03A802D000F026FB4D
:1016300001E000F038FBC9E90001C9F808200AB050
:10164000BDE8F08770AF0000007B00F080007047BD
:101650004FF0000200B5134694469646203922BF4B
:10166000A0E80C50A0E80C50B1F12001BFF4F7AF96
:10167000090728BFA0E80C5048BF0CC05DF804EB78
:10168000890028BF40F8042B08BF704748BF20F8E6
:10169000022B11F0804F18BF00F8012B704700009B
:1016A00000487047C80900207546FFF7F9FFAE46AD
:1016B00005006946534620F00700854618B020B55E
:1016C000FEF71EFEBDE820404FF000064FF0000779
:1016D0004FF000084FF0000B21F00701AC46ACE8DA
:1016E000C009ACE8C009ACE8C009ACE8C0098D4647
:1016F000704710B50446AFF300802046BDE81040A7
:10170000FEF7EABD4FF0013C50F8042B51F8043BC2
:101710009A4221D1A2EB0C03934313EACC1317D1C5
:1017200050F8042B51F8043B9A4215D1A2EB0C035C
:10173000934313EACC130BD150F8042B51F8043B1C
:101740009A4209D1A2EB0C03934313EACC13DBD0EA
:101750004FF00000704700BFD01A01BAB1FA81F112
:1017600001F0180122FA01F0CB40C1F12001DBB2F7
:10177000C0B2C01A2CFA01F3D11A914311EAC31175
:10178000E6D170475FEA400C08BF91F0000F4FEAC6
:101790008C234FEAC12243EA51514FEA1C5018BF33
:1017A00000F5F0404FEA300018BF41F000415FEA19
:1017B0006C5C00F02980BCF1FF3F08BF40F0804026
:1017C0007047130C06BF12044FF0100C4FF0000CC2
:1017D000130E04BF12020CF1080C130F04BF120108
:1017E0000CF1040C930F04BF92000CF1020CD30F08
:1017F00004BF52000CF1010C11464FF00002A0F1A1
:101800001F00A0EB0C00704711F0004F08BF70479D
:1018100031F000413FF4D5AF0B0C06BF09044FF087
:10182000100C4FF0000C0B0E04BF09020CF1080C59
:101830000B0F04BF09010CF1040C8B0F04BF8900CE
:101840000CF1020CCB0F04BF49000CF1010CCCF1E0
:101850002003A0EB0C0022FA03F302FA0CF241EA97
:10186000030100F10100704720F07F4C80EA030083
:1018700023F07F47ACEB070303F57C5300F00040F7
:1018800003F1FF032DE980494FEA154B09B44FEAF4
:10189000144325EA0B4E24EA03480FF2042606EB14
:1018A000132749083E785FEA320203FB0667C7F553
:1018B000000707FB06F64FEA54374FEAD64606F113
:1018C000020607FB066CCCF1005C4FEA1C472CEAD1
:1018D000074C07FB06F40CFB06F504EB15464FEA34
:1018E000961634BF00204FF000404FEAD13706FB78
:1018F00007FC4FEA1C4C0CFB0BF7D21B03FB0CF74D
:1019000061EB07010CFB0EF7B0EB074072EB1742DF
:101910000CFB08F734BFA2EB0742B2EB074261EBC6
:1019200017414FEA0C444FEA910706FB07FC4FEAC8
:101930001C4C0CFB0BF7B0EBC74072EB573203FBB0
:101940000CF734BFA2EBC742B2EBC74261EB573191
:101950000CFB0EF7B0EBC70072EB57720CFB08F7ED
:1019600034BFA2EBC702B2EBC70261EB5771039F12
:101970004FEA816141EA921104EBCC044FEAD1377E
:101980004FEA826206FB07FC42EA90124FEA80604F
:101990004FEA1C4C0CFB0BF7D21B03FB0CF761EB63
:1019A00007010CFB0EF7B0EB074072EB17420CFB84
:1019B00008F734BFA2EB0742B2EB074261EB1741D5
:1019C0004FEA8C554FEA910704EB9C2406FB07FC79
:1019D0004FEA1C4C0CFB0BF7B0EBC74072EB5732D5
:1019E00003FB0CF734BFA2EBC742B2EBC74261EB7B
:1019F00057310CFB0EF7B0EBC70072EB57720CFBC4
:101A000008F734BFA2EBC702B2EBC70261EB577114
:101A100015EB4C254FEA816141EA92114FEA82624F
:101A20004FEAD13742EA901206FB07FC44F100046A
:101A30004FEA80604FEA1C4C0CFB0BF7D21B03FBF8
:101A40000CF761EB07010CFB0EF7B0EB074072EBF4
:101A500017420CFB08F734BFA2EB0742B2EB074278
:101A600061EB174115EB1C154FEA813141EA9241B8
:101A70004FEA823242EA90424FEA80304FEA0C76D7
:101A800044F1000448EA03434EEA0B484FF0000ECD
:101A9000B2EB080C71EB030724BF624639464EEBEC
:101AA0000E0E4FF0000B0018524149414BEB0B0B4F
:101AB000B2EB080C71EB03077BF1000B24BF62460D
:101AC00039464EEB0E0E4FF0000B001852414941C3
:101AD0004BEB0B0BB2EB080C71EB03077BF1000B2C
:101AE00024BF624639464EEB0E0E51EA020718BF7C
:101AF00046F0010616EB0E7655F1000254F1000196
:101B000003D5BDE88901BDE80088BDE88901BDE8CD
:101B10000048B619524141EB0101A3F1010370479E
:101B200080807F7E7D7C7B7A79787776767574731A
:101B3000727171706F6E6E6D6C6C6B6A6A696868D9
:101B4000676666656464636362616160605F5F5E6F
:101B50005E5D5D5C5C5B5B5A5A59595858575756E5
:101B6000565555555454535352525251515050504A
:101B70004F4F4F4E4E4D4D4D4C4C4C4B4B4B4A4A9C
:101B80004A494949484848474747474646464545E0
:101B90004544444444434343434242424241414119
:101BA000002B9C4630D477002BD01CB54FEA37076A
:101BB00003B44FF010004FF01001BAF1000F06D03F
:101BC000BCF1000FDCBF40F0080040F008014FF00E
:101BD00000000FBCBDE810400BF1010BBBF1010F81
:101BE00008BF5FEA170722BF12F1010211F10101DC
:101BF0004FF0004143F1000300F0004043EA0000D1
:101C00007047F9D35708D0E746EA064613F1400F6C
:101C10004FEA16461FDD13F1200FDFBF16430A46B9
:101C2000002120335B42BED0C3F1200746EA0646BE
:101C300002FA07F74FEA164646EA0706C3F12007FD
:101C400022FA03F201FA07F721FA03F14FF0000339
:101C500042EA0702A7E746EA020646EA06464FEAD4
:101C6000164646EA0106BCBF46EA0646360C4FF069
:101C700000034FF000024FF0000194E72DE9804C83
:101C80009A46934670B491E8380007C831EA400C90
:101C900048BF34EA430C03D5FFF7E6FDFFF780FFAA
:101CA000F0BCBDE8008C2DE9804C9A46934670B498
:101CB00091E8380007C810F0804F08BF13F0804F3C
:101CC00003D100F005F8FFF76BFFF0BCBDE8008C16
:101CD00020F07F4780EA030023F07F4C07EB0C03E2
:101CE000A3F57C5300F00040A3F1FE0392F0000F37
:101CF00000F0B38095F0000F00F077802DE90149E6
:101D00004FEA11404FEA144621EA004800FB06FC66
:101D100024EA064708FB06F607FB08F800FB07F76E
:101D200018EB06484CEB164C4FEA124B18EB0748E1
:101D30004FEA15464CEB174022EA0B4E0BFB06FC14
:101D400025EA06470EFB06F607FB0EFE0BFB07F720
:101D50001EEB064E4CEB164C4FF000061EEB074EEA
:101D60004CEB174B18EB0B0840F1000018EB0E0B77
:101D700058EB000840F100008F1A4FF000013CBF03
:101D8000C943661B14BFB5EB040C00213CBFC9431B
:101D9000F61B4FEA17444EEA8E0E27EA04454FEA37
:101DA0001C4704FB07622CEA074C05FB07F70CFBFA
:101DB00005F604FB0CFC16EB074642EB174216EB4C
:101DC0000C4642EB1C421BEB060658EB020241415B
:101DD00046EA9E0601D5BDE80189B619524141EB9C
:101DE0000101A3F10103BDE801894FEA14454FEA5F
:101DF000114724EA054621EA074C05FB07F406FBD8
:101E000007F70CFB06F105FB0CFC11EB074144EB5B
:101E100017444FEA124711EB0C4144EB1C4422EAF1
:101E2000074C05FB07F206FB07F70CFB06F605FB64
:101E30000CFC16EB074642EB174216EB0C4642EB46
:101E40001C456A1854F1000148BF7047B619524149
:101E500041EB0101A3F10103704795F0000F37D06A
:101E60004FEA11424FEA144721EA024624EA074C9E
:101E700002FB07F106FB07F70CFB06F402FB0CFC68
:101E800014EB074441EB17414FEA154714EB0C44A0
:101E900041EB1C4125EA074C02FB07F506FB07F75F
:101EA0000CFB06F602FB0CFC16EB074645EB174550
:101EB00016EB0C4645EB1C42121951F1000148BFCC
:101EC0007047B619524141EB0101A3F1010370477C
:101ED0004FEA14454FEA114724EA054621EA074C28
:101EE00005FB07F106FB07F70CFB06F24FF00006B7
:101EF00005FB0CFC12EB074241EB174112EB0C42C5
:101F000051EB1C4148BF7047921841EB0101A3F10E
:101F100001037047464910B54A6822F440324A60CE
:101F20004A6843681A434A6001684A6822F480722A
:101F30004A6001684A68036942EA03224A6001680C
:101F40004A6822F040724A6001684A6883681A430E
:101F50004A6001688A6822F400628A6001688A68BF
:101F6000C3681A438A60816A6FF07062D142016867
:101F70008A6822F070628A6001688A680CD0836A7D
:101F80001A438A6001688A6822F040528A600168B8
:101F90008A68C36A1A4301E022F040528A600168ED
:101FA0008A6822F002028A6001688A68037E42EA37
:101FB00043028A6090F82010002901684A680FD017
:101FC00042F400624A6001684A6822F460424A6052
:101FD00001684A68174C436A04EB43331A4301E033
:101FE00022F400624A600168CA6A22F47002CA627E
:101FF0000168CA6A838B104C04EB03531A43CA620C
:1020000001688A6822F400728A6001688A6890F820
:10201000303042EA43228A6001688A6822F4806292
:102020008A6001688A68406942EA8020886010BD41
:102030000023014000E0FFFF0000F0FF38B50F482B
:10204000016841F00801016000684FF4006400F08D
:10205000080000900A4801220321C0E90042C0E9BB
:102060000221084D0146284600F09AFC21462846E8
:10207000BDE83840002200F078BD00003038024052
:102080000C050020000C0240FEE72DE9F0410E4651
:10209000074615460421052000F02AF800210120FA
:1020A00003F0B4F880210A2002F0E9FC002405E0E6
:1020B000395D092003F0AAF8641CE4B2B442F7D3F6
:1020C0000321012003F0A2F8FF24052002F036FAD4
:1020D000641E14F0FF0401D04007F6D5222002F060
:1020E0002DFA2870212002F029FA6870BDE8F081ED
:1020F00070B50C46054602F021FA20EA0401284694
:10210000BDE8704003F082B810B5064C00200146CF
:10211000054B227802E01954401CC0B29042FAD319
:10212000217010BD6A000020FC02002010B5064C92
:1021300000200146054B227802E01954401CC0B231
:102140009042FAD3217010BD6B000020C403002020
:1021500070B515480024016821F00C010160016888
:102160000160124D04E0641CE4B2012003F0C4FDE0
:10217000D5F8040210B1642CF5D30DE0642C0BD219
:10218000002404E0641CE4B2012003F0B5FDD5F89E
:10219000040218B1642C04D3012070BD642CF1D367
:1021A000FAE7002070BD0000000802400000414234
:1021B0000D4800B5016887B041F004010160006876
:1021C000694600F004000590022000900120019073
:1021D000029003200390054800F0E2FB00F064F851
:1021E000FFF7B6FF07B000BD3038024000080240DC
:1021F00070B50024104D04E0641CE4B2012003F02B
:102200007BFDD5F8040208B1642CF5D3002404E06A
:10221000641CE4B2012003F06FFDD5F8040208B994
:10222000642CF5D3282003F067FDD5F804020028BC
:1022300000D0012070BD00000000414270B50020B8
:1022400004464006050EFFF7D3FF641C2843E4B2A2
:10225000082CF6D370BD2DE9FC410E46074600F070
:1022600023F8FFF775FF10B10120BDE8FC810024C1
:102270006D46FFF7E3FF2855641CE4B2052CF8D344
:102280009DF800009DF801109DF8033042189DF85C
:1022900002100B441A449DF804309A4201D1307068
:1022A00039700020E1E700000C4810B5016821F00A
:1022B0000C010160016841F004010160084C00203C
:1022C000C4F88402142004F5217403F007FD0120F2
:1022D0002060BDE810401E2003F00EBD0008024043
:1022E000000041427047000070B563A0FEF7B6F8E9
:1022F0004FF4FA75284603F0F1FC61A16148FEF73E
:1023000007FB614C0BE0FFF7FFFE5BA0FEF7A6F8B2
:10231000284603F0E3FC5AA15A48FEF7F9FA206078
:102320000028F0D059A0FEF799F8284603F0D6FC13
:1023300059A0FEF793F8284603F0D0FC5AA0FEF708
:102340008DF8284603F0CAFCFFF7DEFE58A0FEF722
:1023500085F8284603F0C2FC58A0FEF77FF828460F
:1023600003F0BCFC01E0FFF7CFFE56A0FEF776F8C5
:10237000284603F0B3FC56A14248FEF7C9FA206094
:102380000028F0D0FFF7C0FE55A0FEF767F82846FA
:1023900003F0A4FC55A13B48FEF7BAFA206056A111
:1023A0003848FEF7B5FA6060D4E900010843E9D087
:1023B000FFF7AAFE53A0FEF751F8284603F08EFC63
:1023C00053A13048FEF7A4FA206054A12D48FEF72F
:1023D0009FFA6060D4E900010843E9D0FFF794FE5A
:1023E00051A0FEF73BF8284603F078FCFFF78CFE7F
:1023F000284603F073FCFFF787FE4EA0FEF72EF889
:10240000284603F06BFCFFF77FFE4EA0FEF726F890
:10241000284603F063FC1AA11A48FEF779FA2060F7
:102420000028F5D0FFF770FE4EA0FEF717F82846FB
:1024300003F054FC12A11348FEF76AFA206000284A
:10244000F5D0FFF761FE4BA0FEF708F8284603F031
:1024500045FC0BA10B48FEF75BFA20600028F5D085
:10246000FFF752FE47A0FDF7F9FF284603F036FCC0
:10247000BDE87040FFF748BE41540D0A000000005F
:102480004F4B0000FC020020E800002041542B517B
:102490004750533D310D0A0041542B514D5444498E
:1024A00053433D300D0A0000415445300D0A0000F1
:1024B00041542B4353510D0A000000004154490D73
:1024C0000A00000041542B4350494E3F0D0A0000C2
:1024D0002B4350494E3A20524541445900000000D8
:1024E00041542B435245473F0D0A00002B435245B0
:1024F000473A20302C3100002B435245473A2030D8
:102500002C35000041542B43475245473F0D0A00EC
:102510002B43475245473A20302C31002B4347523A
:1025200045473A20302C350041542B434F50533F00
:102530000D0A000041542B5149434C4F53453D3047
:102540000D0A000041542B5149435347503D312C53
:10255000312C22434D4E4554222C22222C22222C57
:10256000300D0A0041542B514944454143543D31FB
:102570000D0A000041542B51494143543D310D0A8D
:102580000000000041542B51494143543F0D0A00C3
:102590001FB569460090012001900720029000209D
:1025A0000390084800F028F8064800F071F90A2165
:1025B000044800F01BF9034800F0C4F804B080B2EE
:1025C00010BD0000200500202DE9F04100250E4639
:1025D00007462C4608E03846FFF7DAFF0544052099
:1025E00003F07CFB641CE4B2B442F4D3B5FBF6F018
:1025F00080B2BDE8F081000078B50024009490F826
:102600003C20012A19D0012280F83C200A680725C5
:102610000368092A13D9DE680A3A02EB42029540A0
:10262000AE43DE600A788B680A3A02EB42029340BE
:102630000268D5682B43D36010E0022078BD1E6984
:1026400002EB42029540AE431E610A788B6802EBB2
:1026500042029340026815692B4313614A681F25A3
:10266000072A13D203685E6B521E02EB820295406A
:10267000AE435E630A8893B20A79521E02EB82026D
:1026800093400268556B2B43536327E003680D2A80
:1026900012D21E6BD21F02EB82029540AE431E6324
:1026A0000A8893B20A79D21F02EB82029340026831
:1026B000156B2B43136311E0DE6A0D3A02EB8202C5
:1026C0009540AE43DE620A8893B20A790D3A02EB76
:1026D000820293400268D56A2B43D362164B056889
:1026E000144A9D4206D10D68122D03D1556845F458
:1026F0008005556005689D4218D10B68102B01D0EC
:10270000112B13D1536843F4000353600968102957
:102710000CD10A490A4A0968B1FBF2F101EB8101C7
:10272000490000E0491E00910029FBD180F83C409F
:10273000002078BD0023014000200140540000200B
:1027400040420F000068C06C704770B504004FF045
:10275000000603D0206C002510B107E0012070BDF9
:10276000204600F01DF8656484F83C50206CC006DB
:1027700010D4206C20F4885040F0020020642046E1
:10278000FFF7C8FB6564206C20F0020040F00100F8
:10279000206400E0012684F83C50304670BD000003
:1027A000104800B5026887B0002142F480720260D0
:1027B000006800F4807005900A481438026842F0FE
:1027C00001020260006800F00100059020200090E6
:1027D0000320CDE901016946034800F0E1F807B0A4
:1027E00000BD000044380240000002402DE9F041E5
:1027F000044600680D4681684FF0000749050BD577
:102800008068C00508D5206C40F02000206484F862
:102810003C700120BDE8F08100F0B2F906460FE0FF
:10282000681C0DD025B100F0ABF9801BA84207D978
:10283000206C40F00400206484F83C700320E9E739
:10284000206800688007EBD521686FF012000860EF
:10285000206C40F4007020642068816811F0405FB3
:1028600013D1217E89B9C16A11F4700F02D080683A
:1028700040050AD4206C20F480702064206CC004D1
:1028800003D4206C40F0010020640020C2E7000067
:1028900018B50022009290F83C10012907D00121C0
:1028A00080F83C1001688B68DB0702D011E0022041
:1028B00018BD8B6843F001038B602A492A4B0968D5
:1028C000B1FBF3F101EB410100E0491E0091002949
:1028D000FBD101688B68DB0741D0036C40F20164D7
:1028E000A34343F4807303644B685B0505D5036C15
:1028F00023F4005343F480530364036CDB0404D5D6
:10290000436C23F00603436400E0426480F83C20FB
:10291000164A6FF022030B6051680068CA0614491A
:1029200006D088421BD1816811F0405F13D016E0B9
:102930008842F8D00F4A904203D1D1F80423D2063E
:10294000F1D00D4A90420AD1D1F8041301F01F01D1
:102950001029E8D303E0816841F0804181600020C4
:1029600018BD00005400002040420F000023014029
:1029700000200140002101400022014090F8351064
:10298000022903D08021416501207047052180F88C
:1029900035100068016821F00101016000207047D6
:1029A0002DE9F84FDFF88C91002209F1040A0AF1B1
:1029B000040B4FF00F080BF1040E01260B68964034
:1029C0003340B34271D14C68022C01D0122C11D18A
:1029D000D40800EB84073D6A5407E40E08FA04FCAF
:1029E00025EA0C05D1F810C00CFA04FC4CEA050CE1
:1029F000C7F820C007685400032591F804C0A5401B
:102A00000CF0030CAF430CFA04FC4CEA070CC0F8C2
:102A100000C04F68012F05D0022F03D0112F01D025
:102A2000122F11D18768D1F80CC0AF430CFA04FC07
:102A30004CEA070CC0F808C04768B7430E79C6F3E4
:102A4000001696403E434660C668AE438D68A5407A
:102A50003543C5604C68E40065D5374C256845F4BE
:102A600080452560246822F0030504F48044009426
:102A7000324C2E19D6F808789407250F08FA05F479
:102A8000A7432F4CA04201D1002424E02D4CA042AA
:102A900001D101241FE02C4CA04201D102241AE0F4
:102AA0002A4CA04202D1032415E03CE0284CA0426D
:102AB00001D104240FE0274CA04201D105240AE0F3
:102AC000254CA04201D1062405E0244CA04201D1AE
:102AD000072400E00824AC403C43C6F80848D9F875
:102AE00000404D464E689C43F60300D51C432C60C5
:102AF000DAF8004055464E689C43B60300D51C43A7
:102B00002C60DBF800405D464E689C43F60200D521
:102B10001C432C60DEF8004075464E689C43B602AC
:102B200000D51C432C60521C102AFFF446AFBDE8B0
:102B3000F88F0000003C0140443802400030014062
:102B4000000002400004024000080240000C024065
:102B5000001002400014024000180240001C024015
:102B60000069084000D0012070470AB181617047B8
:102B70000904FBE701480068000C7047002004E0EE
:102B800001488068704700005800002002488168B2
:102B9000027811448160704758000020094810B540
:102BA000016841F400710160016841F480610160D5
:102BB000052000F057F80F2000F006F800F024F888
:102BC000002010BD003C024070B50D4D04464FF48E
:102BD0007A712878B1FBF0F00A490968B1FBF0F08E
:102BE00000F0D0FA48B9102C07D200222146501E1E
:102BF00000F018F800206C6070BD012070BD00006E
:102C000058000020540000207047002809DB00F025
:102C10001F02012191404009800000F1E020C0F82E
:102C200000117047F0B40E4B1B68C3F30223C3F1CD
:102C30000704042C00D904241D1D072D01D20023F4
:102C400000E0DB1E012606FA04F56D1E0D409D40D6
:102C50009E40761E164045EA0601F0BC02F008BB15
:102C60000CED00E0064A00F0070110684FF6FF0384
:102C7000184040EA012003490843106070470000F3
:102C80000CED00E00000FA052DE9F0470D460400C8
:102C900065D0DFF81491D9F80000EFB200F00F0012
:102CA000A84207D289F80070D9F8000000F00F00A0
:102CB000A84254D120683D4E810712D5400703D564
:102CC000306840F4E05030602078000703D5306869
:102CD00040F4604030603068A16820F0F0000843A4
:102CE00030602078C0072DD030496068083901284D
:102CF00012D0022813D0032811D0096889070029AF
:102D00002DDA316821F0030101433160FFF738FF0C
:102D1000804641F2883A0EE009688903EFE70968C6
:102D20008901ECE7FFF72CFFA0EB0801514502D920
:102D30000320BDE8F0873068616800F00C00B0EB5C
:102D4000810FEFD1D9F80010484601F00F01A942D8
:102D500007D90770006800F00F00A84201D00120D9
:102D6000E7E72078400705D53068E16820F4E050B7
:102D7000084330602078000706D53068216920F4C8
:102D8000604040EAC100306000F036F83168084A1F
:102D9000C1F30311515CC840064908600F20FFF7DA
:102DA00013FF0020C5E70000003C02400838024045
:102DB000469A000854000020044805490068096844
:102DC000044AC1F38221515CC8407047540000207E
:102DD00008380240569A0008044805490068096806
:102DE000044AC1F34231515CC8407047540000208E
:102DF00008380240569A0008154810B5006810F0CF
:102E00000C01144813D0431004290FD008290ED107
:102E10000F4C241F216801F03F022168490207D5A9
:102E20002068C0F38810A0FB030106E0184610BD1F
:102E30002168C1F38811A1FB00010023FDF773FA9B
:102E40002168C1F30141491C4900B0FBF1F010BDFC
:102E5000083802400024F4002DE9F84F040073D034
:102E60002078BD4DC00748D0BB4808300168C1F389
:102E70008101012908D00068C0F3810002280AD12D
:102E8000281D0068400206D52868800335D5606893
:102E90000028E4D031E06068B0F5803F10D0B0F594
:102EA000A02F286810D020F480302860286820F4F3
:102EB000802028606068A0B1FFF762FE06460CE043
:102EC000286840F48030F4E740F480202860F7E779
:102ED000FFF756FE801B642872D828688003F7D558
:102EE0000BE0FFF74DFE064604E0FFF749FE801BAE
:102EF0006428F1D828688003F7D42078DFF85C9242
:102F000080074FF0000A3ED593480830016811F061
:102F10000C0F09D00068C0F3810002280BD18E4845
:102F2000001D0068400206D42868800715D5E068B7
:102F3000012809D111E0E068B8B10120C9F800000A
:102F4000FFF71EFE064605E003E1FFF719FE801BB2
:102F50000228C1D828688007F7D52868216920F0A1
:102F6000F80040EAC10028600DE0C9F800A0FFF7B2
:102F700007FE064604E0FFF703FE801B02281FD869
:102F800028688007F7D42078000722D5724F74494B
:102F90006069743770B101200860FFF7F1FD0646E3
:102FA00004E0FFF7EDFD801B022809D83868800790
:102FB000F7D50EE0C1F800A0FFF7E2FD064605E0F8
:102FC00081E0FFF7DDFD801B02287CD83868800790
:102FD000F7D42078400769D5DFF87CB14FF00008BE
:102FE0000BF1400BDBF80000C0000CD4DBF8001044
:102FF00041F08051CBF80010DBF800004FF00108E1
:1030000000F080500090574F3868C0050FD43868E2
:1030100040F480703860FFF7B3FD064604E0FFF728
:10302000AFFD801B02284ED83868C005F7D54A4F3F
:10303000A068703701280FD00528386810D020F01C
:1030400001003860386820F004003860A068B0B132
:10305000FFF796FD06460EE0386840F00100F4E701
:1030600040F004003860F7E7FFF78AFD811B41F26A
:103070008830814265D838688007F5D50DE0FFF7C4
:103080007FFD064606E0FFF77BFD811B41F288309D
:10309000814256D838688007F5D4B8F1000F05D0C2
:1030A000DBF8001021F08051CBF80010A069C8B304
:1030B000294908310968C1F38101022949D0022850
:1030C000504607D000E03CE0C9F86000FFF758FD2B
:1030D000044639E04F46C9F86000FFF751FD064647
:1030E00004E0FFF74DFD801B02282AD828688001E4
:1030F000F7D4D4E907010843A16A1B4A490802EB47
:103100000141626A41EA8211084394F82C1040EAB6
:1031100001611148001D016001203866FFF730FD94
:10312000044605E013E0FFF72BFD001B022808D83A
:1031300028688001F7D50AE0FFF722FD001B02286E
:1031400002D90320BDE8F88F28688001F4D400205C
:10315000F8E70120F6E7000000380240000047428F
:10316000800E4742007000400000FFFF4FF0E0215A
:103170000428086903D020F004000861704740F07B
:103180000400FAE710B5401EB0F1807F01D30120A2
:1031900010BD4FF0E02460610F21601702F068F865
:1031A0000020A06107202061002010BD10B50400A0
:1031B00003D094F83D0010B107E0012010BD0020BD
:1031C00084F83C00204600F00CF8022084F83D0012
:1031D000211D206801F014FD012084F83D0000202D
:1031E00010BD70470168CA6842F00102CA600068F9
:1031F000816801F00701062903D0016841F001014F
:10320000016000207047704770B50268044610687E
:10321000D168536910F00F0F50D003F0010501F48D
:10322000907635435DD0C20705D0CA0503D5E26B61
:1032300042F00102E263420705D5DA0703D0E26BF0
:1032400042F00202E263820705D5DA0703D0E26B9F
:1032500042F00402E263020705D5DA0703D0E26B0D
:1032600042F00802E263E26B002A33D0800604D504
:10327000880602D5204601F067FD20684069E16BB1
:10328000C0F38010090700D428B3204601F04EFD9A
:103290002068416949061AD5416921F04001416120
:1032A000606BA0B11B490165606BFFF767FB0028ED
:1032B00010D0606B016DBDE870400847830610D5E3
:1032C0008B060ED52046BDE8704001F03DBD20467E
:1032D000FFF799FF70BD2046FFF795FF0020E063E0
:1032E00070BD030606D50B0604D52046BDE8704028
:1032F00001F0CCBE4006F3D54806F1D5D168204692
:1033000021F04001D160202184F8391000F012F939
:1033100070BD00001D4D000870B5040004D094F885
:103320003900002510B106E0012070BD84F8385046
:10333000204600F023F8242084F839002068C16872
:1033400021F40051C160204601F04AFD2068016966
:1033500021F4904101612068416921F02A01416115
:103360002068C16841F40051C160E563202084F801
:10337000390084F83A00002070BD0000F0B5044622
:103380000068394F3949022201230726384D87B09A
:10339000B84231D1086840F001000860086800F0C8
:1033A0000100059031481430016841F010010160BE
:1033B0000068694600F01000059010028DE80D00CD
:1033C000CDE903262846FFF7EBFA28150090694659
:1033D0002846FFF7E5FA2068C16821F04001C16086
:1033E0002068C16841F02001C1602520FFF70DFC75
:1033F00003221146252033E01E4FB84232D108681F
:1034000040F001000860086800F0010005901748CE
:103410001030016841F4003101600068694600F431
:103420000030059004208DE80D00CDE903262846E4
:10343000FFF7B6FA0820009069462846FFF7B0FA71
:103440002068C16821F04001C1602068C16841F076
:103450002001C1602620FFF7D8FB03221146262059
:10346000FFF7E0FB07B0F0BD00100140303802402C
:1034700000000240004400402DE9F843044690F863
:103480003A001E4617460D46202850D1A5B19FB1DF
:1034900094F8380001284AD0012084F838004FF011
:1034A0000008C4F83C80222084F83A00FFF768FB4B
:1034B000A7858146E78530E00120BDE8F883E08DEF
:1034C000401EE085A0684B46B0F5805F4FF00002DB
:1034D0004FF020012046009604D001F008FE98B17C
:1034E0000320EAE701F003FE0028F9D12069002853
:1034F0002068406803D0C1B225F8011B0DE0C0F37D
:10350000080125F8021B08E02069002820684068AF
:1035100001D000F07F0005F8010BE08D0028CED12E
:10352000202084F83A0084F838800020C5E7022083
:10353000C3E770477047FEE70E4810B5016886B0D4
:1035400041F0010101600068012400F001000590D4
:103550005020CDE900040220CDE90240694606482A
:10356000FFF71EFA0548C0F89842C0F8904206B02E
:1035700010BD000030380240000002400000404210
:103580002DE9F04105461448016821F440510160DD
:10359000016841F480510160104E0027C6F8907216
:1035A0003C464FF00108E809C6F898026806050E87
:1035B000022002F0A1FBC6F89082022002F09CFBE0
:1035C000C6F89072022002F097FB641CE4B2082C4B
:1035D000E9D3BDE8F0810000000002400000404255
:1035E0002DE9F04106461B4888461546016821F43E
:1035F00040510160016841F480510160164C012086
:10360000C4F89802C4F89002042004F5247402F06F
:1036100073FB0027A760042002F06EFB2760700692
:10362000000EFFF7ADFF00F039F820B100F016F8FA
:103630000120BDE8F0814046FFF7A2FF00F02EF820
:103640002846FFF79DFF00F029F800F007F800205A
:10365000EFE70000000002400000404270B50D4856
:10366000016821F440510160016841F4805101601A
:10367000094C0020C4F89002C4F89802042004F514
:10368000247402F039FB01252560042002F034FB8C
:10369000A56070BD000002400000404270B51248B5
:1036A0000024016821F440510160016801600F4D60
:1036B0000126C5F89862304602F01EFBC5F89062FC
:1036C000012002F019FB07E0641CE4B2FA2C03D9D4
:1036D000FFF7C4FF012070BDD5F818020028F3D110
:1036E000C5F8900270BD000000000240000040429A
:1036F00010B5412826D108210846FEF7F9FC3D21E6
:10370000112001F083FD8621172001F07FFD7F212C
:10371000262001F07BFD1E212D2001F077FD0021E8
:103720002C2001F073FD8D212A2001F06FFD3E2138
:103730002B2001F06BFD022002F0DEFABDE8104004
:1037400000F02ABC10BD000070B50D4C0025C4F877
:1037500098520C48016821F440410160016841F42D
:1037600080410160C4F89C52022004F5267402F0E6
:10377000C3FA01202060022002F0BEFA256070BD6D
:1037800000804042000402400E4810B5016886B037
:1037900041F0020101600068012400F00200059080
:1037A000C020CDE900040220CDE902406946064868
:1037B000FFF7F6F80548C0F89C42C0F8984206B0FA
:1037C00010BD00003038024000040240008040423A
:1037D00070B50D4C0026C4F898620C48016821F4BD
:1037E00040410160016841F4804101600125C4F855
:1037F0009C52022004F5267402F07EFA2560022015
:1038000002F07AFA266070BD008040420004024057
:103810002DE9F047814616480024016821F4404113
:10382000016001680160134E254627464FF00108EC
:10383000C6F89872022002F05FFAC6F89882600615
:10384000040ED6F81C0208B1641CE4B2012002F098
:1038500053FA6D1CEDB2082DEAD3B9F1000F04D074
:10386000FFF772FF2046BDE8F087FFF7B1FFF9E7E9
:1038700000040240008040422DE9F0410546144812
:10388000016821F440410160016841F48041016018
:10389000104E0027C6F898723C464FF00108E80920
:1038A000C6F89C026806050E022002F025FAC6F84A
:1038B0009882022002F020FAC6F89872022002F0E4
:1038C0001BFA641CE4B2082CE9D3BDE8F0810000C7
:1038D000000402400080404270B50D48016821F4A8
:1038E00040410160016841F480410160094C0120C0
:1038F000C4F89C02C4F89802042004F5267402F06F
:10390000FBF900256560042002F0F6F9256070BD22
:10391000000402400080404270B50D48016821F467
:1039200040410160016841F480410160094C002080
:10393000C4F89802C4F89C02042004F5267402F02E
:10394000DBF901252560042002F0D6F9656070BD21
:10395000000402400080404270B512480024016813
:1039600021F440410160016801600F4D0126C5F856
:103970009C62304602F0C0F9C5F89862012002F05E
:10398000BBF907E0641CE4B2FA2C03D9FFF7C4FFCB
:10399000012070BDD5F81C020028F3D1C5F89802AB
:1039A00070BD000000040240008040422DE9F0415B
:1039B0001C4615460F460646FFF78EFF7006000EA2
:1039C000FFF75AFFFFF7C8FF20B1FFF7A5FF01205F
:1039D000BDE8F0813846FFF74FFFFFF7BDFFFFF767
:1039E0007BFF012000EB4600C0B2FFF745FFFFF769
:1039F000B3FF08E0012D0CD00120FFF709FF6D1E79
:103A000004F8010BEDB2002DF4D1FFF785FF002083
:103A1000DEE70020F1E72DE9F0411D4616460C4691
:103A20000746FFF759FF7806000EFFF725FFFFF75F
:103A300093FF60B92046FFF71FFFFFF78DFF0024BB
:103A40000CE0285DFFF718FFFFF786FF20B1FFF7B6
:103A500063FF0120BDE8F081641CE4B2B442F0D3FE
:103A6000FFF75AFF0020F5E70C480B4901604FF4BF
:103A70008031416000218160C16001614161017656
:103A80000122C261064A80F82010C0E90912C16211
:103A900080F83010FEF759BE0020014020050020BC
:103AA0000100000FFEE700002DE9FF4F2DED040B94
:103AB00093469A468C222DED048BF1B0B0EE618ACC
:103AC000F0EE418AB0EE609AF0EE409A22494DA89D
:103AD000FCF7E4FF18EE100A05F036FF06460F4625
:103AE00018EE900A05F030FF04460D4619EE100A54
:103AF00005F02AFF8046894619EE900A05F024FF5A
:103B0000024689980B46CDE90B7004A880E80C03A7
:103B100008A886AB80E8700093E8070001ACCDF8F8
:103B200000A084E807005B464DA90DA87A9AFCF72F
:103B3000A1FC0DA8FCF74EFF0DA8FCF74BFF84B2CB
:103B400022460DA97998FCF764FF71B0E0B2BDEC94
:103B5000048B08B0BDE8F08F4CC50008704700002A
:103B60002DE9F041104F002505F1B000C0B2002151
:103B700000F00AFA0021084600F006FA00211020A1
:103B800000F002FA002407EBC5160121305D00F0B9
:103B9000FBF9641CE4B2802CF7D36D1CEDB2082D48
:103BA000E2D3BDE8F08100008805002030B40B4C62
:103BB0000022002104EBC2135854491CC9B28029C9
:103BC000FAD3521CD2B2082AF3D305480078012850
:103BD00002D130BCFFF7C4BF30BC7047880500205D
:103BE000D60000202DE9F04788462DED048BB0EE7D
:103BF000409AF0EE609A814684B01E461546092729
:103C000051EC190B05F088FB8246544629460A20E0
:103C100004F038F805F0C4FB41EC180B204605F021
:103C2000A8FB53EC192B05F0CDFC53EC182B05F039
:103C3000CBFB05F041FB00218DF80A106A463023CA
:103C400004E0C1F10904491C1355C9B2A942F8D3D3
:103C50000A2421460FE090FBF1F301FB130390FBD4
:103C6000F1F002EB040C30330CF8013C08B17F1E7C
:103C7000FFB2641EE4B2BC4201D9002CEBD1C5F105
:103C800009002E231354C4B2C5F10800C3B2504634
:103C90000EE090FBF1F501FB150590FBF1F0171913
:103CA000303507F8015C08B15B1EDBB2641EE4B27C
:103CB0009C4201D9002CECD122443346414648466F
:103CC00000F006F804B0BDEC048BBDE8F0870000FE
:103CD0002DE9FF4F188897B099469346012808D0E0
:103CE000102082461590202012904048404E14909B
:103CF00074E00C2082461590182012903D483E4EEC
:103D000014906BE0802B0AD212984208149803FB9F
:103D100002016846FCF77DFE4FEA5A0723E01BF8D4
:103D2000014F002C5ED0129D0021AD1C01FB05F05F
:103D3000491C325CC9B29A420AD137187F78A7422F
:103D400006D1801C31186846129AFCF762FE09E021
:103D5000FF2AEBD130444078FF28E7D1684612991A
:103D6000FCF7CEFE57461898002513902AE0002451
:103D70007800DDF85C8016901CE016986946B0FB70
:103D8000FAF0684301EBD40104F00702415C8020A3
:103D9000D040014202D099F8020001E099F80400F5
:103DA0001399C2B2404600F0ADF808F101001FFAC5
:103DB00080F8641CBC42E0D31398401C80B26D1C98
:103DC000EDB2139015988542D1D31798B9F8061023
:103DD0003844084480B20BF1010B17909BF8003077
:103DE000002B8FD11BB0BDE8F08F00009AAC00080B
:103DF000A0BD0008A6A600089ABC000810B500F0F7
:103E000013F80020FFF7D2FE064A0020012110809F
:103E100051809080D080083A118051809080D1806C
:103E200010BD0000E000002010B5FFF785FB4FF645
:103E3000FF70401EFDD10021AE2000F0A5F800214A
:103E4000084600F0A1F80021102000F09DF80021A4
:103E5000402000F099F80021B02000F095F80021F2
:103E6000812000F091F80021FF2000F08DF8002162
:103E7000A12000F089F80021A62000F085F800219B
:103E8000A82000F081F800213F2000F07DF80021FB
:103E9000C82000F079F80021D32000F075F8002147
:103EA000084600F071F80021D52000F06DF80021DF
:103EB000802000F069F80021D82000F065F800218A
:103EC000F12000F061F80021DA2000F05DF8002117
:103ED000122000F059F80021DB2000F055F80021F5
:103EE000402000F051F800218D2000F04DF8002115
:103EF000142000F049F80021BDE81040AF2000F088
:103F000043B800007FB51AA3D3E90043CDE90043CD
:103F100019A3D3E90043CDE90243C4B21848C1F361
:103F2000C70300EBC31601F00701305DE2B11DF8D5
:103F300001500543134835550078012813D1B0339B
:103F4000D8B2002100F020F804F00F00002100F0AA
:103F50001BF8102000EB1410002100F015F80121CF
:103F6000284600F011F87FBD02AA555C0540E1E744
:103F70000102040810204080FEFDFBF7EFDFBF7F49
:103F800088050020D6000020024609B1402100E04B
:103F900000213C20FFF724BB10B5142000F0CEFA1E
:103FA000800705D10321BDE81040142000F067BD53
:103FB00010BD70B50646082188B000240846FEF7FB
:103FC00097F800210D2001F021F980210E20FEF745
:103FD0008FF893208DF8040020208DF8050006A8A6
:103FE00001AB0090022219460C2000F040F80500B9
:103FF0000DD1002101A8425C7254425C491C54401E
:10400000C9B20429F7D3405CA04200D00225802128
:104010000E2000F034FD08B0284670BD30B587B0E2
:104020008DF804008DF80510002001A9145C0D180E
:10403000401CC0B2AC700628F8D300200C181A5CE3
:10404000401CC0B222720628F8D306A800900B4686
:104050000C220E2000F00BF8040004D1082000F020
:104060006DFA000700D4022407B0204630BD2DE9C8
:10407000FF5F0025DDF838B017468A4681464FF0CD
:1040800002082E460C2805D0B9F10E0F04D11225D6
:10409000102601E07725302645F08001022001F04E
:1040A000B5F880210420FEF723F80021012001F05B
:1040B000ADF880210A2000F0E2FC002405E01AF8A7
:1040C0000410092001F0A2F8641CBC42F7D3494651
:1040D000012001F09BF8B9F10C0F03D180210D20D4
:1040E00000F0CDFC4FF47A74042000F027FA074664
:1040F000641E03D0F80701D13742F5D080210D208E
:10410000FDF7F6FF3CB1062000F018FA10F01B0F87
:104110000DD04FF0020880210C2000F0B0FC0021EF
:10412000012001F073F804B04046BDE8F09F2F4035
:104130004FF00008F80701D04FF00108B9F10C0F5B
:10414000E9D10A2000F0FAF905460C2000F0F6F952
:1041500010F007004FEAC50101D008390144CBF83F
:10416000001025B1122D00D91225002408E00125E8
:10417000FBE7092000F0E2F9014603980155641CB1
:10418000AC42F6D3C7E730B587B00C4630218DF886
:10419000041001AD8DF8050002212846AA1CFDF788
:1041A00074FF06A801AB0090042219460C20FFF70B
:1041B0005EFF10B90699902902D0022007B030BDE9
:1041C0000023E95CE1545B1CDBB2102BF9D3F5E76B
:1041D00030B50C460546082187B00846FDF788FF34
:1041E00007210D2001F012F80321142000F047FCF4
:1041F00006A801AB00908DF80450012219460C204E
:10420000FFF735FF10B90699102902D0022007B038
:1042100030BD9DF8041021709DF805106170F6E71F
:1042200010B51F4C012202212046FEF79EFC012002
:1042300001F062FD002202212046FEF796FC0120DB
:1042400001F05AFD012202212046FEF78EFC0120DA
:1042500001F052FD0F21012000F0D8FF012000F0F5
:104260006DF9C006FAD4012001F046FD3D21112070
:1042700000F0CCFF1E212D2000F0C8FF00212C20D3
:1042800000F0C4FF8D212A2000F0C0FF3E212B202A
:1042900000F0BCFF4021BDE81040152000F0B6BF83
:1042A0000000024010B588B093218DF804107021F1
:1042B0008DF8051000218DF80A1001AA5418435CEE
:1042C000A370445C9DF80A30491C6340C9B28DF864
:1042D0000A300429F2D3072101A8D21DFDF7D5FE2B
:1042E00008210846FDF704FF06A801AB009009224B
:1042F00019460C20FFF7BBFE10B90699182900D00B
:10430000022008B010BD704710B51848BAB0164C5E
:10431000C378827800F12A018DE81E00D0ED071ADB
:1043200000F13E0300F120020830491F90EC030A1F
:1043300004A8FFF7B9FB02460DA136A8FCF79AF8CE
:1043400036A90CA0FCF78AF8642001F0C7FC04A988
:1043500012A0FCF783F84FF47A7001F0BFFCFDF770
:10436000D3FE3AB010BD000029020020000000205A
:104370002564000041542B514D5450554245583D41
:10438000302C302C302C302C2277617465726C65A7
:1043900076656C222C25730D0A00000025730D0A2A
:1043A000000000002DE9F04155495220FFF710FFB1
:1043B000534DED1F0028A8717ED10226AE7105F184
:1043C0002400FFF7F6FDA871002875D14D4F8046F7
:1043D00001242862C7F8AC82012001F07FFCC7F8F5
:1043E000AC42012001F07AFC286A401C2862C828EF
:1043F000F0DB4348AE711D3000F04EFB40491D31EB
:10440000A1F11B020878137898420CD14B785778A9
:10441000BB4208D18B789778BB4204D1CB78D27855
:10442000934200D12C70364FBF1D3A7890420CD188
:104430004A787B789A4208D18A78BB789A4204D12C
:10444000CA78FB789A4200D16C702D4A0A321378F0
:1044500098420CD14B785778BB4208D18B7897782B
:10446000BB4204D1CB78D278934200D1AC70244ABD
:104470000E32137898420CD14B785778BB4208D152
:104480008B789778BB4204D1CB78D278934200D115
:10449000EC701B4A1232137898420CD1487853784A
:1044A000984208D188789378984204D1C878D17816
:1044B000884200D12C7100E01FE011481D30FFF749
:1044C000F1FEA871002818D10D4BAE711D331A1DD5
:1044D00009216020FFF7A2FDA87100280DD1AE715F
:1044E00009496879FFF74FFEA871002805D1AE7120
:1044F000BDE8F041642001F0F1BBBDE8F0810000AF
:1045000077000020008041426805002010B500F0CF
:1045100021FA094C012202212046FEF726FB012246
:1045200011462046FEF721FBFFF77AFEBDE810405A
:104530004120FFF7DDB800000000024070B57E2189
:1045400001EA40000A4D40F0800400220121284683
:10455000FEF70BFB204600F067FA00F03DFA044638
:10456000012211462846FEF700FB204670BD0000E0
:10457000000002402DE9F04F0E462DED108B85B066
:10458000054614226846D849FCF788FAFDF7BCFDB9
:10459000D6A0FBF763FF4FF4FA7001F09FFBD9A19F
:1045A000D948FCF7B5F9D94F03E0D6A1D648FCF7B6
:1045B000AFF938600028F8D0D5480778372F64D98C
:1045C000D14B0020997B24295FD1D97B47295CD12D
:1045D000197C4E2959D1597C472956D1997C4729B4
:1045E00053D1D97C412950D1002222E0022804D0A5
:1045F000042807D001280FD00AE0995C2C2913D099
:10460000295503E0995C2C290ED03155641CE4B285
:10461000995C2C2908D00AE0995C2C2904D00DF86B
:104620000410641CE4B202E0401CC0B20124521C1D
:10463000D2B2BA42DAD300244FF02E0A9FEDB5CBA6
:104640006FF02F0B9FEDB5AB9FEDB6BB285D2E280D
:1046500020D0641CE4B2112CF8D30020291849782A
:104660002954401CC0B21128F8D30024305D2E28F4
:104670007ED0641CE4B2112CF8D3002031184978A4
:104680003154401CC0B21128F8D305B0BDEC108BDA
:10469000BDE8F08F2F1917F8011C295517F8020DE6
:1046A00089467870804687F800A0F879303804F0A1
:1046B00060FE53EC1C2B04F087FE41EC1F0BB87915
:1046C000303804F056FE9FED991B53EC112B04F08B
:1046D0007BFE41EC1E0B7879303804F04AFE9FEDEA
:1046E000951B53EC112B04F06FFE41EC1D0B387938
:1046F000303804F03EFE9FED911B53EC112B04F07B
:1047000063FE41EC190BF878303804F032FE9FED6F
:104710008D1B53EC112B04F057FE41EC180BA8F144
:10472000300000EB80020BEB4200484404F021FE15
:1047300053EC182B04F0C0FB53EC192B04F0BCFB1A
:1047400053EC1D2B04F0B8FB53EC1E2B04F0B4FB10
:1047500053EC1F2B04F0B0FB9FED7C1B53EC112B93
:1047600004F052FC41EC100B0027B0EE4A1A00E0B6
:104770002AE0F0EE6A1A53EC112B51EC100B04F006
:1047800023FE41EC180B04F097FDE1193030294469
:10479000C0B201F8010C04F003FE41EC190BB0EEBD
:1047A0004B0AF0EE6B0A53EC102B51EC180B04F093
:1047B00083FB53EC192B04F0DDFF7F1C41EC100B45
:1047C000FFB2052FD1D348E7371917F8011C31552F
:1047D00017F8020D89467870804687F800A0F879AE
:1047E000303804F0C6FD53EC1C2B04F0EDFD41EC19
:1047F0001D0BB879303804F0BCFD9FED4C1B53EC19
:10480000112B04F0E1FD41EC1C0B7879303804F0F9
:10481000B0FD9FED481B53EC112B04F0D5FD41EC8E
:104820001E0B3879303804F0A4FD9FED441B53EC87
:10483000112B04F0C9FD41EC190BF878303804F065
:1048400098FD9FED401B53EC112B04F0BDFD41EC96
:10485000180BA8F1300000EB80020BEB420048443B
:1048600004F087FD53EC182B04F026FB53EC192BB6
:1048700004F022FB53EC1E2B04F01EFB53EC1C2B0C
:1048800004F01AFB53EC1D2B04F016FB9FED2F1BBD
:1048900053EC112B04F0B8FB41EC100B002753EC48
:1048A0001A2B51EC100B04F08FFD41EC180B04F0A7
:1048B00003FDE11930303144C0B201F8010C04F0BD
:1048C0006FFD41EC190B53EC1B2B51EC180B04F052
:1048D000F3FA53EC192B04F04DFF7F1C41EC100B45
:1048E000FFB2052FDBD3C8E6F4C2000841542B51B8
:1048F000475053474E4D45413D22474741220D0AFF
:10490000000000004F4B0000FC020020E8000020E7
:104910006A000020F168E388B5F8E43E000000007A
:104920000000244000000000000048402D431CEB24
:10493000E2361A3FFCA9F1D24D62503F7B14AE47DC
:10494000E17A843F9A9999999999B93F00000000BA
:1049500000004E40F0B51E4887B00026016841F0C7
:10496000010101600068012400F001000094194F6A
:10497000022505906946039501943846FEF710F824
:104980008020CDE90004694603953846FEF708F813
:104990000820CDE90006694603953846FEF700F881
:1049A0000420CDE90004694603953846FDF7F8FF79
:1049B000CDE9005469463846CDE90245FDF7F0FFE0
:1049C000012202213846FEF7D0F807B0F0BD000002
:1049D000303802400000024070B5124E00256006DB
:1049E000040E002280213046FEF7BFF8142001F0AB
:1049F00083F908213046FEF7B3F8012801D144F0CD
:104A00000104142001F078F9012280213046FEF7DC
:104A1000ACF8142001F070F96D1CEDB2082DDED356
:104A2000204670BD0000024070B5134E05460024BC
:104A3000280601D5012200E0002204213046FEF7BD
:104A400094F8142001F058F9002280213046FEF736
:104A50008CF8142001F050F9012280213046FEF735
:104A600084F8142001F048F96806641C050EE4B2CD
:104A7000082CDDD370BD000000000240704770B507
:104A80000C460546FFF75AFD40EA04012846BDE8FA
:104A9000704000F0BBBB000010B5104C0021425C20
:104AA000120904F81120092A01D9373200E0303206
:104AB00004F81120425C04EB410302F00F025A702B
:104AC000092A01D9373200E03032491CC9B25A7084
:104AD0000429E4D30020207210BD00002002002031
:104AE00070B5214C92B00025266846F080562660AD
:104AF000246804F0805411941C4C266846F48046C7
:104B0000266024680DF1240C04F4804411940124DF
:104B1000009424040194022406948CE80D00660598
:104B2000CDE907616846FEF797F900B1FEE70CA9E9
:104B30000F2081E831004FF4A0500F904FF48050C7
:104B4000109005210CA8FEF79FF800B1FEE7FEF7D4
:104B500011F841F20101884204D10548016841F48D
:104B60008071016012B070BD40380240007000409A
:104B7000003C0240FEF70AB81048016841F4700199
:104B800001600F48016841F0010101600C4A0021F9
:104B90000832116002680B4B1A400260031D0A4A7A
:104BA0001A60026822F48022026005480C3001601D
:104BB00002495806803908607047000088ED00E01F
:104BC00000380240FFFFF6FE1030002410B50A4CFA
:104BD0002068C068C043C00709D108480069804701
:104BE00021680020486221686420C862E060216872
:104BF0006FF00100086110BD880900202C01002021
:104C0000F0B50268254D264E264FDFF89CC0274B95
:104C10004FF0804EA84209D0704507D0B04205D071
:104C2000B84203D0604501D0984203D122F070040D
:104C30004A682243A8421BD0704519D0B04217D011
:104C4000B84215D0604513D0984211D0184CA042FC
:104C50000ED0184CA0420BD0174CA04208D0174CD5
:104C6000A04205D0164CA04202D0164CA04203D15F
:104C700022F44074CA6822434C6922F08002224325
:104C800002608A68C2620A688262A84201D09842C1
:104C900001D10969016301214161F0BD00000140BA
:104CA0000004004000080040000C004000040140E7
:104CB000004001400044014000480140001800400D
:104CC000001C004000200040F8B5064610480D4684
:104CD0000024016841F0040101600068032200F033
:104CE0000400009011461E20FDF79CFF1E20FDF7DA
:104CF0008CFF094A07481060C2E90154C2E9036405
:104D00001046FEF753FABDE8F8400348FEF76ABACA
:104D100040380240000800408809002010B5806B30
:104D20000021C185C184FEF76EFA10BD0168CA6812
:104D300022F49072CA6001684A6922F001024A6155
:104D4000202180F83A10704710B590F83A102229C7
:104D500001D0022010BD8168B1F5805F11D00169DA
:104D6000002901681FD0496801F07F03816A4A1C4D
:104D700082620B70C18D491E0904090CC18518D0CF
:104D80002BE00269816A002A0268526805D0D2B21B
:104D90000A80816A491C8162ECE7C2F308020A803A
:104DA000816A891CF7E74A68816A4B1C83620A7032
:104DB000E0E70168CA6822F02002CA600168CA6898
:104DC00022F48072CA6001684A6922F001024A61D5
:104DD000202180F83A10FEF7ACFB002010BD000047
:104DE0002DE9F041044600680169E26821F4405170
:104DF00011430161A1682069E269014360691043C0
:104E000001432068C26849F20C639A430A43C260B6
:104E100020684169A26921F4407111434161E06950
:104E20006425B0F5004F974A974920684FF0320843
:104E30003FD0884201D090427CD1FDF7CDFF00EBFE
:104E4000C00101EB001061688900B0FBF1F6FDF7CD
:104E5000C3FF00EBC00101EB001061688900B0FBEB
:104E6000F1F0B0FBF5F06FF01801484306EB80015C
:104E700008EB0110B0FBF5F000F0F006FDF7ACFF19
:104E800000EBC00101EB001061688900B0FBF1F09C
:104E9000B0FBF5F006EB0016FDF79EFF00EBC0013E
:104EA00001EB001061688900B0FBF1F7FDF794FF9A
:104EB000D2E0884201D090423DD1FDF78DFF00EB5A
:104EC000C00101EB001061684900B0FBF1F0B0FBDC
:104ED000F5F00601FDF780FF00EBC00101EB0010CB
:104EE00061684900B0FBF1F7FDF776FF00EBC00108
:104EF00001EB001061684900B0FBF1F0B0FBF5F088
:104F00006FF01801484307EB800108EBC100B0FBCC
:104F1000F5F000F0F80006EB4006FDF75DFF00EB52
:104F2000C00101EB001061684900B0FBF1F7FDF72B
:104F300053FF3CE055E0FDF73FFF00EBC00101EB04
:104F4000001061684900B0FBF1F0B0FBF5F006011C
:104F5000FDF732FF00EBC00101EB00106168490072
:104F6000B0FBF1F7FDF728FF00EBC00101EB0010EB
:104F700061684900B0FBF1F0B0FBF5F06FF018018B
:104F8000484307EB800108EBC100B0FBF5F000F0EF
:104F9000F80006EB4006FDF70FFF00EBC00101EB48
:104FA000001061684900B0FBF1F7FDF705FF00EB69
:104FB000C00101EB001061684900B0FBF1F0B0FBEB
:104FC000F5F06FF01801484307EB800108EBC100D2
:104FD000B0FBF5F000F00700216830448860BDE8C0
:104FE000F081FDF7E9FE00EBC00101EB0010616804
:104FF0008900B0FBF1F6FDF7DFFE00EBC00101EB2D
:10500000001061688900B0FBF1F0B0FBF5F06FF0C3
:105010001801484306EB800108EB0110B0FBF5F0E6
:1050200000F0F006FDF7C8FE00EBC00101EB001038
:1050300061688900B0FBF1F0B0FBF5F006EB0016FB
:10504000FDF7BAFE00EBC00101EB001061688900BA
:10505000B0FBF1F7FDF7B0FE00EBC00101EB001073
:1050600061688900B0FBF1F0B0FBF5F06FF018015A
:10507000484307EB800108EB0110B0FBF5F000F0AE
:105080000F00A9E7001401400010014090F839100A
:10509000212901D0022070478168B1F5805F016A43
:1050A0000BD04A1C0262026809785160C18C491E0B
:1050B0000904090CC1840ED017E009880268C1F305
:1050C0000801516001690029016A02D0491C01628E
:1050D000ECE7891CFBE70168CA6822F08002CA601D
:1050E0000068C16841F04001C160002070472DE9AF
:1050F000F0411E46174688460446069D1CE0681C83
:105100001AD025B1FDF73CFD801BA84214D92068B8
:10511000C16821F4D071C1602068416921F00101AA
:105120004161202084F8390084F83A00002084F896
:1051300038000320BDE8F0812068016838EA0100EA
:1051400004D00020B842DAD00020F3E70120F9E7CC
:10515000104808B500680068C043800616D44FF4B4
:105160007A73012269460B48FEF786F99DF8001014
:10517000094A0D290AD0074B5078C83B1954401CE6
:10518000C0B25070C72801D9002050700148FEF706
:105190003BF808BD8C0400206A000020104808B5C8
:1051A00000680068C043800615D44FF47A7301226A
:1051B00069460B48FEF760F99DF80010094A0D2971
:1051C00009D0094B10781954401CC0B21070C72880
:1051D00001D9002010700248FEF716F808BD000043
:1051E000CC0400206A000020FC020020054904E0F5
:1051F0000B685B06FCD54A60401C0278002AF7D198
:105200007047000000100140FEE7000070B50D4639
:105210007E2101EA4004094E002201213046FDF7BB
:10522000A4FC2046FFF700FC2846FFF7FDFB3046B4
:10523000BDE8704001221146FDF797BC0000024016
:1052400003B401984100009850EAC12018BF04201F
:105250004A0D18BF40F0010040F2FF72B2EB515FFF
:1052600008BF40F00200012808BF052002B07047C7
:105270000907090E002804DB00F1E02080F8001483
:10528000704700F00F0000F1E02080F8141D704717
:1052900070B5C1482DED020B2DED0E8B82B0119D26
:1052A00025F000449FEDBEDB9FEDBFEB84423EDB6B
:1052B000A4F140511098A1F17F6108430FD0BC4880
:1052C000844202DC28D1109830B39DED100B02B05F
:1052D000BDEC0E8B02B0BDE8704000F069BC9DEDE6
:1052E000100B53EC1D2B51EC100B04F06DF89DEDE1
:1052F000100B41EC180B53EC1E2B51EC100B04F06F
:1053000063F853EC182B03F0D7FD41EC100B02B0FF
:10531000BDEC0E8B02B070BD0120FBF702FC02B0A9
:10532000BDEC0E8B02B0BDE8704000F055BCA1484A
:105330009FEDA18B844256DA9DED100BB4F1795F9D
:105340000ADA51EC100BFFF77BFF042808BF00F0CE
:1053500053FC9DED100BDAE753EC102B51EC100BC6
:1053600004F032F841EC190B95480621B0EE490AD9
:10537000F0EE690A784400F09FFB53EC192B51ECD6
:10538000100B04F021F841EC1A0B8E48B0EE490ADC
:10539000F0EE690A0421784400F08EFB53EC192BDF
:1053A00051EC100B04F010F853EC182B03F084FDB3
:1053B00041EC100B51EC1A0B53EC102B03F024FEB4
:1053C000CDE900019DED000B53EC102B9DED100B72
:1053D00051EC100B03F0F8FF9DED101B53EC112B5B
:1053E00003F06AFDD2E09DED100B51EC100B01F0C3
:1053F00057F953EC182B04F0E5F89FED730BCDE94A
:10540000000153EC102B9DED000B51EC100B03F041
:10541000DBFF41EC190B6E480621B0EE490AF0EEB5
:10542000690A784400F048FB53EC192B51EC100B3F
:1054300003F0CAFF41EC1B0B6648B0EE490AF0EEE0
:10544000690A0421784400F037FB53EC192B51EC26
:10545000100B03F0B9FF53EC182B03F02DFD41ECBA
:105460001C0B51EC190B02F0E1FC41EC180B5A48F3
:105470009FED5BABA04222DC53EC1C2B51EC1B0BD1
:1054800003F0C2FDCDE900019DED000B51EC180BBE
:1054900053EC102B03F098FF53EC182B03F00CFD8A
:1054A00053EC1A2B03F090FF53EC1D2B04F062F920
:1054B00053EC1E2B04F086F841EC100B5FE08DEDF1
:1054C000008B002000909DED000B51EC180B53EC6D
:1054D000102B03F0F1FC9DED000B41EC1E0B53EC87
:1054E000102B51EC100B03F06FFF53EC192B04F051
:1054F00069F853EC1E2B03F087FD41EC190B53ECBC
:105500001C2B51EC1B0B03F07FFD41EC1B0B53ECF0
:105510001A2B51EC190B03F057FF53EC1D2B04F021
:1055200051F841EC190B53EC1A2B51EC180B03F00A
:105530004BFF53EC1B2B03F047FF53EC192B04F0EC
:1055400019F99DED000B41EC180B53EC1A2B51ECA3
:10555000100B03F039FF9FED249B53EC192B04F043
:1055600031F841EC100B51EC180B53EC102B04F0FC
:1055700001F953EC192B04F025F841EC100B002D28
:105580003FF7C5AE51EC100B03F058FC41EC100B8B
:10559000BDE60000000000000000F03F0000000039
:1055A000075C143326A6913C182D4454FB21F93F87
:1055B0000000F07F0000E03F000000000000F03F2E
:1055C000D86F0000E66F0000000000000000E03F20
:1055D0002A6F0000386F00003333EF3F00000000F7
:1055E0000000000000000040182D4454FB21E93F5A
:1055F00070B59B482DED020B2DED068B079D25F018
:105600000044A04218DC9748844202DC0AD1069884
:1056100040B19DED060BBDEC068B02B0BDE87040BD
:1056200000F0C6BA002DCCBF9FED8F0B9FED900B05
:10563000BDEC068B02B070BD8F48A04215DD8F48CF
:10564000A042D8BF4FF0FF3458DD9DED060B51EC62
:10565000100BFFF7F5FD042808BF00F0CDFA9DED13
:10566000060BBDEC068B02B070BD9DED060B51EC38
:10567000100B01F015F8CDE9060181489FED828BF2
:10568000A0423CDD8248A0421FDD00249FED82AB9A
:105690009DED060B53EC1A2B51EC100B03F00CFC98
:1056A0009DED060B41EC190B53EC1A2B51EC100B32
:1056B00003F08AFE53EC182B04F05CF853EC192B22
:1056C00003F0A2FCCDE9060149E09DED060B0124A3
:1056D00053EC182B51EC100B03F0EEFB9DED060B79
:1056E00041EC190B53EC182B51EC100B04F042F861
:1056F00053EC192B03F088FCCDE906012FE0684834
:10570000A0421FDD02249FED689B9DED060B53EC2C
:10571000192B51EC100B03F057FE53EC182B03F030
:10572000CBFB9DED060B41EC180B53EC192B51EC08
:10573000100B04F01FF853EC182B03F065FCCDE9B7
:1057400006010CE09DED060B032453EC102B9FED9E
:10575000580B51EC100B03F057FCCDE906019DED01
:10576000060B53EC102B51EC100B03F02DFE41EC0B
:10577000180B53EC182B03F027FE41EC190B4E4885
:105780000621B0EE490AF0EE690A784400F094F977
:1057900053EC182B51EC100B03F016FE41EC180BD8
:1057A0004648B0EE490AF0EE690A0521784400F057
:1057B00083F953EC192B51EC100B03F005FE41EC6F
:1057C000100B51EC180B53EC102B002C0EDA03F0DD
:1057D00073FB9DED061B53EC112B03F0F5FD9DEDC6
:1057E000061B53EC112B03F0EDFE35E003F064FBD8
:1057F0009DED061B53EC112B03F0E6FD41EC100B65
:105800002F48784400EBC40090ED001B51EC100BC6
:1058100053EC112B03F0AEFF9DED061B53EC112B47
:1058200003F0A8FF41EC100B2648784400EBC400BD
:1058300090ED001B51EC100B53EC112B03F0C2FE4A
:1058400041EC100B002DA2BFBDEC068B02B070BD69
:1058500051EC100B03F0F2FA41EC100B01E70000E1
:10586000000010440000F07F182D4454FB21F93F44
:10587000182D4454FB21F9BF0000DC3F0000203EFE
:105880000000F33F00000000000000000000F03FB7
:105890000000E63F000000000000000000000040A3
:1058A0000080034000000000000000000000F83FFE
:1058B000000000000000F0BFA26C0000586C000067
:1058C000E26B00009A6B000070B56B4E2DED040B7F
:1058D0002DED028B82B0DDF81CC0DDE905235C42B2
:1058E0002CF000411C4341EAD474049D22F0004096
:1058F000B44205D86C422C4340EAD474B4420BD96C
:105900009DED061B9DED040B02B0BDEC028B04B0B7
:10591000BDE8704000F056B9ACF14054A4F17F648A
:105920001C430BD0022404EAAC7444EAD27405434D
:105930009FED538B9FED542B07D015E09DED040B8D
:1059400051EC100B00F0B8F942E0002C11BF012C13
:105950009DED040B02B0BDEC028B04BF04B070BD22
:10596000022C38D0032C3BD00B439FED491B9FEDFD
:105970004A0B0AD0B14218D1B04209D121F080417E
:1059800020F08040079105900FE0002A15DA10E022
:10599000434B7B44002C08BF93ED000B0DD0012C32
:1059A00010D0022C17D0032C1AD0B0421DD1002ADF
:1059B00003DAB0EE410AF0EE610A02B0BDEC028BF0
:1059C00004B070BD93ED000B51EC100B03F036FAF0
:1059D00041EC100BF1E7B0EE480AF0EE680AECE794
:1059E000B0EE420AF0EE620AE7E7401A00153C28E2
:1059F000C8BF8DED000B19DCBCF1000FBEBF10F16C
:105A00003C0F9FED290B8DED000B0FDB9DED060B81
:105A100053EC102B9DED040B51EC100B03F0F4FA3A
:105A200000F03EFE00F048F9CDE90001002C08BF6F
:105A30009DED000BC1D0012C10D0022C9FED1C0B52
:105A400053EC102B9DED000B51EC100B0DD003F01F
:105A500091FE53EC182B03F08DFEB9E7019880F00E
:105A6000004001909DED000BA7E703F083FE53EC8F
:105A7000182B03F0A7FDABE70000F07F000000004B
:105A8000182D4454FB210940182D4454FB2109C012
:105A9000182D4454FB21F9BF182D4454FB21F93F24
:105AA000CA6A0000000000000000000000000000C2
:105AB000075C143326A6A13C70B504462DED028B7D
:105AC0004D1E00EBC500B0EE408AF0EE608A90ED0E
:105AD000000B35F0060017D053EC182B51EC100BCF
