:020000040800F2
:10000000800900208901000889050008B70300085D
:100010008505000839020008871E0008000000005E
:10002000000000000000000000000000B90B000804
:100030003D02000800000000A10A0008810D000830
:10004000A3010008A3010008A3010008A301000800
:10005000A3010008A3010008A3010008A3010008F0
:10006000A3010008A3010008A3010008A3010008E0
:10007000A3010008A3010008A3010008A3010008D0
:10008000A3010008A3010008A3010008A3010008C0
:10009000A3010008A3010008A3010008A3010008B0
:1000A000A3010008A3010008A3010008A3010008A0
:1000B000E50D0008A3010008A3010008A301000842
:1000C000A3010008A3010008A3010008A301000880
:1000D000A3010008091100087D110008A301000810
:1000E000A3010008A3010008A301000800F002F822
:1000F00000F03AF80AA090E8000C82448344AAF188
:100100000107DA4501D100F02FF8AFF2090EBAE885
:100110000F0013F0010F18BFFB1A43F0010318473B
:10012000E840000008410000103A24BF78C878C1B8
:10013000FAD8520724BF30C830C144BF04680C60ED
:10014000704700000023002400250026103A28BF35
:1001500078C1FBD8520728BF30C148BF0B60704739
:100160001FB51FBD10B510BD00F033F81146FFF7E5
:10017000F7FF01F0DBFF00F051F803B4FFF7F2FFE7
:1001800003BC01F082FE000009488047094800478F
:10019000FEE7FEE7FEE7FEE7FEE7FEE7FEE7FEE737
:1001A000FEE7FEE704480549054A064B7047000094
:1001B000850D0008ED000008800300208009002064
:1001C0008005002080050020704770477047704709
:1001D0007047754600F02CF8AE4605006946534658
:1001E00020F00700854618B020B5FFF7DBFFBDE81B
:1001F00020404FF000064FF000074FF000084FF08E
:10020000000B21F00701AC46ACE8C009ACE8C0091E
:10021000ACE8C009ACE8C0098D46704710B504468B
:10022000AFF300802046BDE81040FFF7A6BF0000F6
:10023000004870471C03002000BFFEE7704700B570
:10024000034603E04FF47A7000F005F8181EA3F19E
:100250000103F7D100BD00EBC001C9004FF0E0225F
:100260005161002191610521116100BF4FF0E02132
:10027000096901F480310029F8D004214FF0E0220F
:10028000116170472DE9F04102460025002600204B
:1002900000230024002791F803C00CF00F0591F80B
:1002A00003C00CF0100CBCF1000F03D091F802C099
:1002B0004CEA050591F800C0BCF1000F31D014687C
:1002C00000202BE04FF0010C0CFA00F3B1F800C055
:1002D0000CEA03069E4220D183004FF00F0C0CFA6B
:1002E00003F7BC4305FA03FC4CEA040491F803C08D
:1002F000BCF1280F06D14FF0010C0CFA00FCC2F83B
:1003000014C00AE091F803C0BCF1480F05D14FF0CA
:10031000010C0CFA00FCC2F810C0401C0828D1D314
:100320001460B1F800C0BCF1FF0F34DD5468002048
:100330002EE000F1080C4FF0010808FA0CF3B1F8B8
:1003400000C00CEA03069E4221D183004FF00F0C3F
:100350000CFA03F7BC4305FA03FC4CEA040491F8D9
:1003600003C0BCF1280F05D100F1080C08FA0CF805
:10037000C2F8148091F803C0BCF1480F07D100F116
:10038000080C4FF0010808FA0CF8C2F81080401C65
:100390000828CED35460BDE8F0810246002093685F
:1003A0000B400BB1012000E0002070470AB1016151
:1003B00000E04161704700BFFEE7000010B5002477
:1003C00010215948FFF7E9FF68B91420FFF737FFFC
:1003D00000BF10215448FFF7E0FF0028F9D0142097
:1003E000FFF72DFF012420214F48FFF7D6FF68B902
:1003F0001420FFF724FF00BF20214B48FFF7CDFF5B
:100400000028F9D01420FFF71AFF022440214648A3
:10041000FFF7C3FF68B91420FFF711FF00BF4021A9
:100420004148FFF7BAFF0028F9D01420FFF707FF73
:10043000032480213C48FFF7B0FF68B91420FFF780
:10044000FEFE00BF80213848FFF7A7FF0028F9D043
:100450001420FFF7F4FE042401213348FFF79DFF29
:1004600068B91420FFF7EBFE00BF01212E48FFF70B
:1004700094FF0028F9D01420FFF7E1FE05240221A3
:100480002948FFF78AFF68B91420FFF7D8FE00BF9C
:1004900002212548FFF781FF0028F9D01420FFF73B
:1004A000CEFE06244FF480611F48FFF776FF70B937
:1004B0001420FFF7C4FE00BF4FF480611A48FFF715
:1004C0006CFF0028F8D01420FFF7B9FE07244FF482
:1004D00000611548FFF761FF70B91420FFF7AFFE08
:1004E00000BF4FF400611048FFF757FF0028F8D015
:1004F0001420FFF7A4FE08244FF480510A48FFF7A8
:100500004CFF70B91420FFF79AFE00BF4FF48051E2
:100510000548FFF742FF0028F8D01420FFF78FFEB0
:100520000924204610BD0000000C014008B501213F
:10053000082000F0C7FA48208DF80300F020ADF83D
:10054000000003208DF8020069460248FFF79AFE7A
:1005500008BD0000000C014008B50121082000F092
:10056000B1FA48208DF8030041F60340ADF80000D1
:1005700003208DF8020069460148FFF783FE08BD9D
:10058000000C014000BFFEE77047000070B500217D
:1005900000230F22C47804B3154C246804F4E064EB
:1005A000C4F5E064210AC1F10403CA40447804FAA6
:1005B00003F184781440214309010E4C0678A155BB
:1005C000047804F01F050124AC4005786D11AD00DE
:1005D00005F1E025C5F8004109E0047804F01F05A5
:1005E0000124AC40044D0678761145F8264070BDD4
:1005F0000CED00E000E400E080E100E0024901438E
:10060000024A1160704700000000FA050CED00E09E
:1006100070B500240EE00021204600F0F0F800251F
:1006200004E0002000F0AFF9681CC5B2802DF8DBB3
:10063000601CC4B2082CEEDB70BD000008B50121BF
:10064000082000F03FFA14208DF8030003208DF8F5
:1006500002004FF48070ADF8000069460A48FFF7C9
:1006600011FE4FF40070ADF8000069460648FFF730
:1006700009FE012211020448FFF798FE01225102EF
:100680000148FFF793FE08BD000C014070B5054618
:10069000002415E08020204100EA05024FF400719B
:1006A0000E48FFF783FE012211020C48FFF77EFE81
:1006B00000224FF480710948FFF778FE601CC4B235
:1006C000082CE7DB012211020448FFF76FFE00222D
:1006D0004FF480710148FFF769FE70BD000C0140C6
:1006E00010B5012251020A48FFF760FE01221102F3
:1006F0000748FFF75BFE00224FF400710448FFF744
:1007000055FE00224FF480710148FFF74FFE10BDE7
:10071000000C014010B500224FF400710648FFF7AD
:1007200045FE012211020448FFF740FE012251025A
:100730000148FFF73BFE10BD000C014070B50024DE
:1007400006E0002500E06D1CB5F57A7FFBD3641C44
:10075000B4F57A7FF5D3FFF771FFAE2000F003F90F
:10076000D52000F000F9802000F0FDF8A82000F06E
:10077000FAF83F2000F0F7F8D32000F0F4F800205A
:1007800000F0F1F8402000F0EEF8A12000F0EBF8C6
:10079000C82000F0E8F8DA2000F0E5F8122000F0B8
:1007A000E2F8812000F0DFF8CF2000F0DCF8D9205B
:1007B00000F0D9F8F12000F0D6F8DB2000F0D3F8F3
:1007C000302000F0D0F8A42000F0CDF8A62000F0F2
:1007D000CAF88D2000F0C7F8142000F0C4F8AF204C
:1007E00000F0C1F8FFF714FF70BD10B502460120FC
:1007F00000E050430B1EA1F10101FAD110BD70B50C
:1008000005460C4645F0B00000F0ADF8102141EA75
:10081000141000F0A8F804F00F0000F0A4F870BD68
:100820002DE9F04105460E461746721ED206110EFE
:100830006A1E5206100EFFF7E2FF002409E0A7F13E
:100840002001134A02EB0111085D00F09CF8601CC6
:10085000C4B2082CF3DB721ED206110E6A1E0123ED
:1008600003EB4202D0B2FFF7CAFF00240BE0A7F16E
:100870002001074A02EB011204F10801505C00F06C
:1008800082F8601CC4B2082CF1DBBDE8F0810000E6
:10089000163C00082DE9F04780460E4617461D46D7
:1008A000002415E0281B411E0A20FFF79EFFB7FB1E
:1008B000F0F00A21B0FBF1F201FB120000F1300967
:1008C0003019C1B24A464046FFF7AAFF601CC4B2C5
:1008D000AC42E7DBBDE8F0872DE9F047814688466A
:1008E00015461E46002D06DB2B2241464846FFF7E3
:1008F00097FF2F4605E02D2241464846FFF790FF1F
:100900006F42002417E0301B411E0A20FFF76DFFE5
:10091000B7FBF0F00A21B0FBF1F201FB120000F18D
:10092000300A08EB0400401CC1B252464846FFF7AB
:1009300077FF601CC4B2B442E5DBBDE8F0872DE967
:10094000F04107460E461546002407E02A5D30199F
:10095000C1B23846FFF764FF601CC4B2285D0028AE
:10096000F4D1BDE8F08110B50446FFF7B9FE782058
:10097000FFF78CFE0020FFF789FE2046FFF786FE7A
:10098000FFF7C8FE10BD10B50446FFF7A9FE78209A
:10099000FFF77CFE4020FFF779FE2046FFF776FE4A
:1009A000FFF7B8FE10BD000000B589B00121084670
:1009B00000F078F80121042000F084F818208DF868
:1009C00023000320ADF820008DF8220008A92B4851
:1009D000FFF758FC4FF0804000F092FA0020ADF88D
:1009E0001A00ADF8160044F61F60ADF81800472055
:1009F000ADF8140000208DF81C0005A94FF08040D0
:100A000000F030FB01A800F01FFB6020ADF80400EF
:100A10000020ADF80C000120ADF806000020ADF874
:100A20000A0001A94FF0804000F070FA01A94FF0D0
:100A3000804000F0B7FA0121880700F035FA012262
:100A40001146900700F053FA4FF4A060FFF7D6FD6F
:100A50001C208DF8000001208DF8030002208DF885
:100A6000010001208DF802006846FFF78FFD01218B
:100A7000880700F01FFA09B000BD0000000801401F
:100A800010B5044621464FF0804000F0E7FA10BD53
:100A900010B5044621464FF0804000F0E1FA10BD49
:100AA0007047000029B1064AD2690243044BDA615B
:100AB00004E0034AD2698243014BDA6170470000C7
:100AC0000010024029B1064A92690243044B9A6120
:100AD00004E0034A92698243014B9A617047000027
:100AE0000010024030B500210022002400232D4DCB
:100AF0006D6805F00C0121B1042905D0082923D126
:100B000005E0294D056022E0274D05601FE0254DD9
:100B10006D6805F47012234D6D6805F4803402256C
:100B200005EB92421CB9214D554305600BE01D4D6C
:100B30006D6805F400351DB11C4D5543056002E09C
:100B4000194D5543056002E0174D056000BF00BF19
:100B5000144D6D6805F0F0010909154D6B5C0568D1
:100B6000DD4045600F4D6D6805F4E061090A104DE8
:100B70006B5C4568DD4085600A4D6D6805F4605129
:100B8000C90A0B4D6B5C4568DD40C560054D6D685D
:100B900005F44041890B074D6B5CC568B5FBF3F567
:100BA000056130BD0010024000127A0000093D00CE
:100BB0000000002010000020704710B5FFF7F4FE81
:100BC00010BD00002DE9F04704461249204602F00E
:100BD0007BFF00D80F4C1049204602F075FE00D86C
:100BE0000D4C0E49204602F0EBFC81460C4902F008
:100BF00055FD80460B4902F09BFE07460A4902F06C
:100C0000DFFC064602F028FE85B22846FFF738FFD3
:100C1000BDE8F0870000B4420000B4C20000074302
:100C2000000087430000FA440000FA432DE9F04732
:100C3000044684F000441249204602F045FF00D8E3
:100C40000F4C1049204602F03FFE00D80D4C0E49D3
:100C5000204602F0B5FC81460C4902F01FFD80469B
:100C60000B4902F065FE07460A4902F0A9FC064658
:100C700002F0F2FD85B22846FFF70AFFBDE8F087D3
:100C800000003442000034C20000074300008743E4
:100C90000000FA440000FA4310B500F001F810BD5E
:100CA0000CB50020019000903348006840F480307B
:100CB0003149086000BF3048006800F400300090FF
:100CC0000198401C0190009818B90198B0F5A06FE8
:100CD000F1D12948006800F4003010B101200090E3
:100CE00001E0002000900098012843D123480068CB
:100CF00040F01000214908600846006820F0030019
:100D000008600846006840F0020008601A48406821
:100D1000194948600846406848600846406840F401
:100D2000806048600846406820F47C1048600846AF
:100D3000406840F4E81048600846006840F0807061
:100D4000086000BF0C48006800F000700028F9D06F
:100D50000948406820F00300074948600846406899
:100D600040F00200486000BF0348406800F00C00FB
:100D70000828F9D10CBD00000010024000200240FC
:100D80007047000010B51348006840F00100114999
:100D9000086008464068104908400E494860084607
:100DA00000680E4908400B4908600846006820F4B6
:100DB000802008600846406820F4FE0048604FF438
:100DC0001F008860FFF768FF4FF00060044908606B
:100DD00010BD0000001002400000FFF8FFFFF6FE0B
:100DE00008ED00E070B50121880700F06FF80128D8
:100DF0004AD1FFF7E3FA254908700846007818B190
:100E000008460078224908702148007802280DD150
:100E1000204903C902F0C2F80446FFF7D3FE1E4979
:100E200003C902F0BBF80446FFF700FF184800783A
:100E3000032819D10022194B164903C902F0E0F822
:100E4000054602F091F984B22046FFF719FE002210
:100E5000124B114903C902F0D3F8054602F084F998
:100E600084B22046FFF714FE09480078042807DB07
:100E70000B480068FFF7A6FE0A480068FFF7D6FE99
:100E80000121880700F013F870BD0000A8000020C1
:100E9000A90000207000002078000020007097401A
:100EA0005000002054000020CA4302827047CA4309
:100EB0000282704721B1028842F00102028004E000
:100EC00002884FF6FE731A400280704730B5024622
:100ED000002000230024158A05EA0103958905EA0C
:100EE000010413B10CB1012000E0002030BD1AB1A3
:100EF00083890B43838102E083898B43838170471D
:100F000001894FF6F87211400181704770B50024D5
:100F100000220023058C4FF6FE7635400584028CB6
:100F20008388048B4FF68F752C40B51E2C400D889E
:100F30002C43751E2A400D892A434D882A43144D9F
:100F4000A8420BD0134DA84208D0134DA84205D09B
:100F5000124DA84202D0124DA84213D14FF6F77598
:100F60002A404D892A434FF6FB752A408D882A4333
:100F70004FF6FF652B404FF6FF552B408D892B43D5
:100F8000CD892B4383800483CD888586028470BD00
:100F9000002C014000340140004001400044014069
:100FA0000048014070B5002400220023058C4FF654
:100FB000EF7635400584028C8388048B48F6FF75F4
:100FC0002C404FF6FF452C400D884FF6FF7606EA81
:100FD00005252C434FF6DF752A400D8906EA0515D5
:100FE0002A434D8806EA05152A43154DA84202D02A
:100FF000144DA8421DD14FF67F752A404D894FF6FA
:10100000FF7606EA05152A434FF6BF752A408D88FC
:1010100006EA05152A434FF6FF352B404FF2FF75C0
:101020002B408D8906EA85052B43CD8906EA850587
:101030002B4383800483CD880587028470BD000024
:10104000002C01400034014000210180418081805A
:10105000C180018141818181C18170478186704752
:1010600001877047002202881D4B98420ED01D4B0D
:1010700098420BD0B0F1804F08D01B4B984205D05E
:101080001A4B984202D01A4B984204D14FF68F73F4
:101090001A404B881A43174B984207D0164B984278
:1010A00004D04FF6FF431A40CB881A4302808B8846
:1010B00083850B8803850A4B98420BD0094B9842D5
:1010C00008D00E4B984205D00D4B984202D00D4BE4
:1010D000984201D10B7A0386012383827047000076
:1010E000002C014000340140000400400008004092
:1010F000000C00400010004000140040004001407F
:10110000004401400048014010B50821184800F093
:10111000ECFD58B3164800F0B1FEC4B21548007893
:10112000002018BB13480078002048B10A2C02D0D8
:10113000104908701AE00F4800780E49087015E051
:101140000D2C04D10B4800780A4908700EE00948BC
:10115000007809490C5407480078401C054908707C
:1011600008460078C72801DD0020087010BD000087
:1011700000380140180000208C01002010B540F21A
:101180002551FD4800F0BEFD00286ED040F22551EB
:10119000F94800F08FFDF84800F070FEF749F84A72
:1011A00012788854F6480078401CF5490870F348D6
:1011B00040796E2804D10020F2490860F2490860A5
:1011C000EF480078401EED49085C292805D1EC481D
:1011D0000078801E085C302803D0E9480078C828D1
:1011E0007ED1E648007828287BD1E4484078302832
:1011F00003DBE248407839280BDDE04840782D28B1
:10120000F2D1DE48807830286BDBDC4880783928E2
:1012100067DC0020DB490860DB4908600220DB490D
:10122000086004E0D9480068401CD8490860D348E9
:10123000D6490968405C302805DBD048D3490968A5
:10124000405C3928EEDDD1480068401CCF49086079
:10125000CA480968405C20287ED1C84840782D28BB
:1012600028D00120CA49086012E0E2E2C348C84918
:101270000968405C3038C349096801EB810100EB23
:101280004100C0490860C2480068401CC04908606D
:10129000BA48BF490968405C302805DBB748BC49FB
:1012A0000968405C3928E1DDB8480068401CB8494D
:1012B00008602EE00220B649086014E0AF48B44947
:1012C0000968405C3038AF49096801EB810100EBE7
:1012D0004100AC490860AE480068401CAC4901E0E0
:1012E0007DE078E00860A548A9490968405C30289D
:1012F00005DBA248A6490968405C3928DEDDA14823
:10130000006840429F490860A0480068401CA0490E
:1013100008609F4801689D480068401C814256D182
:1013200096489B490968405C2D2824D011E09348D9
:1013300097490968405C30389349096801EB81019D
:1013400000EB41009049086091480068401C9049BA
:1013500008608A488E4900E039E00968405C30281E
:1013600005DB86488A490968405C3928DFDD0020B2
:10137000874908602BE086480068401C8449086063
:1013800011E07E4882490968405C30387E4909682E
:1013900001EB810100EB41007B4908607C4800685B
:1013A000401C7B490860754879490968405C3028D1
:1013B00005DB724876490968405C3928E1DD7248EE
:1013C00000684042704908600020714908600020B0
:1013D0006B4908702DE2002069490870FAE76848F7
:1013E0000078401E6549085C292805D164480078CA
:1013F000801E085C312803D061480078C8287DD160
:101400005E48007828287AD15C484078302803DB91
:101410005A48407839280BDD584840782D28F2D1B9
:101420005648807830286ADB54488078392866DC52
:101430000020584908605849086002205349086054
:1014400004E052480068401C504908604B484F492E
:101450000968405C302805DB48484C490968405C15
:101460003928EEDD49480068401C48490860434877
:101470000968405C20287DD1404840782D2827D03D
:1014800001204349086011E03C4841490968405C3B
:1014900030384049096801EB810100EB41003D49CA
:1014A00008603B480068401C3949086033483849A7
:1014B0000968405C302805DB304835490968405CE4
:1014C0003928E1DD31480068401C314908602EE0D0
:1014D00002202F49086014E028482D490968405C23
:1014E00030382C49096801EB810100EB41002949A2
:1014F000086027480068401C254901E090E08BE027
:1015000008601E4822490968405C302805DB1B48FA
:101510001F490968405C3928DEDD1E4800684042EA
:101520001C49086019480068401C1949086018489F
:10153000016816480068401C814269D10F4814496F
:101540000968405C2D2837D011E00C481049096823
:10155000405C30381049096801EB810100EB410023
:101560000D4908600A480068401C094908600348A2
:10157000074913E04CE00000004400405402002002
:101580001900002024000020280000201C0000205A
:10159000200000202C000020300000200968405C62
:1015A000302805DBFD48FE490968405C3928CCDD60
:1015B0000020FB4908602BE0F9480068401CF8490E
:1015C000086011E0F548F6490968405C3038F54993
:1015D000096801EB810100EB4100F2490860F04825
:1015E0000068401CEE490860EC48ED490968405C21
:1015F000302805DBE948EA490968405C3928E1DD23
:10160000E84800684042E74908600020E449086073
:101610000020E54908703DE30020E349087039E304
:10162000E1480078401EDD49085C292805D1DE48E4
:101630000078801E085C322803D0DB480078C82878
:101640007ED1D648007828287BD1D44840783028ED
:1016500003DBD248407839280BDDD04840782D286C
:10166000F2D1CE48807830286BDBCC48807839289E
:1016700067DC0020CD490860CD4908600220CD49D3
:10168000086004E0CB480068401CCA490860C348B1
:10169000C8490968405C302805DBC048C54909686D
:1016A000405C3928EEDDC3480068401CC149086031
:1016B000BA480968405C20287ED1B84840782D2877
:1016C00027D00120B649086011E0B448B449096840
:1016D000405C3038B549096801EB810100EB4100FD
:1016E000B2490860AE480068401CAD490860AB488C
:1016F000AB490968405C302805DBA848A84909685F
:10170000405C3928E1DDAB480068401CA449086012
:101710002EE00220A249086011E0A048A049096813
:10172000405C3038A149096801EB810100EB4100C0
:101730009E4908609A480068401C9949086001E089
:101740007CE077E0954896490968405C302805DBE5
:10175000924893490968405C3928DEDD9348006867
:1017600040429249086093480068401C8C490860D8
:101770008B4801688F480068401C814256D18748D9
:1017800087490968405C2D2824D011E083488449AA
:101790000968405C30388649096801EB810100EB3B
:1017A0004100834908607E480068401C7C4908600D
:1017B0007A487B49096800E038E0405C302805DB66
:1017C000764877490968405C3928DFDD0020744994
:1017D00008602BE072480068401C7149086011E005
:1017E0006E486F490968405C30387149096801EBFF
:1017F000810100EB41006E49086069480068401CA7
:1018000067490860654866490968405C302805DB1F
:10181000624863490968405C3928E1DD6448006832
:1018200040426349086000205D49086000205E492D
:1018300008702FE200205C4908702BE25A480078BB
:10184000401E5649085C292805D157480078801E5B
:10185000085C332803D054480078C8287ED14F480C
:10186000007828287BD14D484078302803DB4B484E
:10187000407839280BDD494840782D28F2D1474877
:10188000807830286BDB45488078392867DC002079
:10189000494908604949086002204649086004E057
:1018A00044480068401C434908603C484149096875
:1018B000405C302805DB39483E490968405C3928DE
:1018C000EEDD3C480068401C3A490860334809682E
:1018D000405C202874D1314840782D2827D0012041
:1018E0002F49086011E02D482D490968405C3038C7
:1018F0003149096801EB810100EB41002E49086084
:1019000027480068401C2649086024482449096883
:10191000405C302805DB214821490968405C3928B2
:10192000E1DD24480068401C1D4908602EE00220CB
:101930001B49086011E0194819490968405C3038B2
:101940001D49096801EB810100EB41001A4908605B
:1019500013480068401C1249086001E08EE089E0ED
:101960000E480F490968405C302805DB0B480C49DC
:101970000968405C3928DEDD0F48006840420E49A6
:1019800008600C480068401C05490860044801686C
:1019900008480068401C814268D112E054020020CF
:1019A0002000002030000020190000203C00002012
:1019B000400000201C0000204400002048000020BF
:1019C00054E0B548B5490968405C2D2822D011E0A3
:1019D000B148B2490968405C3038B149096801EB47
:1019E000810100EB4100AE490860AC480068401C32
:1019F000AA490860A848A9490968405C302805DB65
:101A0000A548A6490968405C3928E1DD0020A349C2
:101A100008602BE0A1480068401CA049086011E064
:101A20009D489E490968405C30389D49096801EB32
:101A3000810100EB41009A49086098480068401C09
:101A400096490860944895490968405C302805DB50
:101A5000914892490968405C3928E1DD9048006866
:101A600040428F49086000208C49086000208D4961
:101A700008700FE100208B4908700BE1894800785D
:101A8000401E8549085C292805D186480078801EBB
:101A9000085C342803D083480078C828E9D17E4800
:101AA000007828287ED17C484078302803DB7A48AB
:101AB000407839280BDD784840782D2872D1764857
:101AC000807830286EDB7448807839286ADC002002
:101AD000754908607549086002207549086004E08E
:101AE00073480068401C724908606B487049096877
:101AF000405C302805DB68486D490968405C39283E
:101B0000EEDD6B480068401C69490860624809685E
:101B1000405C20287ED1604840782D2827D00120C5
:101B20005E49086011E05C485C490968405C3038F7
:101B30005D49096801EB810100EB41005A490860E9
:101B400056480068401C5549086053485349096885
:101B5000405C302805DB504850490968405C392812
:101B6000E1DD53480068401C4C4908602DE002202C
:101B70004A49086011E0484848490968405C3038E3
:101B80004949096801EB810100EB410046490860C1
:101B900042480068401C414908603F483F49096885
:101BA000405C00E073E0302805DB3B483B490968B6
:101BB000405C3928DFDD3C48006840423A49086013
:101BC0003B480068401C3549086034480168384883
:101BD0000068401C814256D12F4830490968405C5A
:101BE0002D2824D011E02C482C490968405C30385D
:101BF0002E49096801EB810100EB41002B49086087
:101C000026480068401C2549086023482349096884
:101C1000405C00E037E0302805DB1F481F490968B9
:101C2000405C3928DFDD00201C4908602BE01B48A0
:101C30000068401C1949086011E0174817490968F5
:101C4000405C30381949096801EB810100EB410023
:101C50001649086011480068401C104908600E4889
:101C60000E490968405C302805DB0B480B490968C0
:101C7000405C3928E1DD0D48006840420B490860AE
:101C800000200649086000200649087002E0002094
:101C90000449087010BD00005402002020000020FC
:101CA00048000020190000203400002038000020E7
:101CB0001C00002010B50022002340F66A14A14247
:101CC00000D100BF0A1201249440A3B2DC43048077
:101CD00010BD21B1828942F40052828104E08289E0
:101CE0004DF6FF731A408281704702460020B1F51D
:101CF000007F00D100BF13880B400BB1012000E032
:101D00000020704770B50246002400230025002003
:101D100040F66A16B14200D100BFC1F3421501F08E
:101D20001F03012606FA03F3012D02D196893340E1
:101D300006E0022D02D1168A334001E0968A334034
:101D40000C12012606FA04F41688344013B10CB1C3
:101D5000012000E0002070BDF0B5034600240026FD
:101D60000025002040F66A17B94200D100BF18468E
:101D7000C1F3421401F01F06012707FA06F5012CF2
:101D800001D10C3004E0022C01D1103000E01430FD
:101D90001AB107682F43076002E00768AF43076086
:101DA000F0BD00002DE9F04786B005460E46002440
:101DB000A24600BFA1460027B08900B100BF2F4650
:101DC0002C8A4CF6FF700440F08804432C82AC89C6
:101DD0004EF6F3100440B0883189084371890843F6
:101DE0000443AC81AC8A4FF6FF400440B089044301
:101DF000AC8201A8FEF776FE1F48874202D1DDF8CB
:101E000010A001E0DDF80CA0A88900F4004040B16A
:101E10000AEBCA0000EB0A1031684900B0FBF1F888
:101E200007E00AEBCA0000EB0A1031688900B0FB3A
:101E3000F1F86420B8FBF0F004012009642101FBF3
:101E40001089A88900F4004040B1322000EBC9009D
:101E5000B0FBF1F000F00700044308E0322000EB93
:101E600009106421B0FBF1F000F00F0004432C8155
:101E700006B0BDE8F08700000038014001468888C0
:101E8000C0F30800704700BFFEE700BF70470000C6
:101E900070B53B4800683B4908603B4800683B49D7
:101EA00008603B480068FEF78DFE3A480068FEF780
:101EB000BDFE4FF4FA70FEF7C2F93548006880F0B5
:101EC00000442046FEF77EFE32480068FEF7AEFE74
:101ED0004FF4FA70FEF7B3F92D48006880F0004522
:101EE0004FF07E51284601F06BFB0446FEF76AFE78
:101EF000254801684FF0804001F01AFD054625484D
:101F00000168284601F012FE0446FEF78FFE4FF4EA
:101F1000FA70FEF794F94FF080411D48006801F017
:101F20004FFB0446FEF74EFE174801684FF0804015
:101F300001F0FEFC054617480168284601F0F6FD51
:101F40000446FEF773FE4FF4FA70FEF778F9104876
:101F50000068FEF737FE0F480068FEF767FE4FF493
:101F6000FA70FEF76CF906480068FEF72BFE06488B
:101F70000068FEF75BFE00200749087070BD000096
:101F80009000002098000020940000209C00002079
:101F9000580000205C000020A900002010B55B481C
:101FA0000078052807D1042058490870584800686F
:101FB000401C5749086056480068032802DB00208F
:101FC000534908605248006838B95248006852497D
:101FD000086052480068524908604D48006801286E
:101FE00043D14A48007806280AD10420474908709E
:101FF0004FF07E514A48006801F0E2FA4849086013
:102000004248007807280AD10420404908704FF060
:102010007E514148006801F089FD3F4908603B4816
:10202000007808280AD10420384908704FF07E5102
:102030003B48006801F07AFD394908603348007870
:1020400009280AD10420314908704FF07E513248E6
:10205000006801F0B5FA304908602F4800682D4942
:1020600008602F4800682D49086029480068022848
:102070004BD12C480068284908602B480068284943
:1020800008602248007806280AD104201F490870F9
:102090004FF07E512248006801F092FA2049086012
:1020A0001A48007807280AD10420184908704FF010
:1020B0007E511948006801F039FD1749086013483E
:1020C000007808280AD10420104908704FF07E518A
:1020D0001348006801F02AFD114908600B48007898
:1020E00009280AD10420094908704FF07E510A4896
:1020F000006801F065FA0849086007480068094966
:102100000860074800680849086010BDA900002061
:102110006800002090000020500000209400002063
:1021200054000020580000205C0000204FF4A06004
:10213000FEF764FA4FF4165000F01EF94FF41650F3
:1021400000F0C8F8FEF7F2F9FEF706FAFEF7F6FA25
:10215000FEF733FD53A201210846FEF7F0FB52A221
:1021600001210220FEF7EBFB50A201210320FEF724
:10217000E6FB4FA201210420FEF7E1FB4DA20C215A
:102180000120FEF7DCFB4D48006801F049FB0446E6
:102190000323224607210120FEF79EFB48480068E2
:1021A00001F03EFB04460323224607210220FEF7EE
:1021B00093FB4448006801F033FB044603232246A6
:1021C00007211846FEF788FB3F48006801F028FB0E
:1021D00004460323224607210420FEF77DFB01234A
:1021E0003A480C2102680220FEF754FB334800688D
:1021F000FEF7E8FC32480068FEF718FD51E034486D
:102200000078012801D1FFF743FE31480078022809
:1022100001D100F001F92E480078032801D100F027
:102220007BFA2B480078042834DBFFF7B7FE2348FD
:10223000006801F0F5FA0446032322460721012035
:10224000FEF74AFB1E48006801F0EAFA0446032341
:10225000224607210220FEF73FFB1A48006801F0E2
:10226000DFFA04460323224607211846FEF734FB13
:102270001548006801F0D4FA0446032322460721DA
:102280000420FEF729FB012310480C2102680220DC
:10229000FEF700FB0E480078042802DA00200B4904
:1022A0000860ACE74F5800004F5900004F585800E5
:1022B0004F5959004D4F4445000000009000002048
:1022C00094000020580000205C00002068000020DE
:1022D000A900002010B586B0044601210420FEF7B5
:1022E000F1FB01214804FEF7DDFB18208DF81700F3
:1022F0000420ADF8140003208DF8160005A91C4831
:10230000FDF7C0FF04208DF817000820ADF8140079
:1023100005A91748FDF7B6FF01940020ADF810009D
:102320000C20ADF80E000020ADF80C00ADF80A004E
:10233000ADF8080001A90F48FFF734FD01210D4851
:10234000FFF7C7FC012240F225510A48FFF704FDC0
:1023500026208DF8000001208DF803008DF8010083
:102360008DF802006846FEF711F906B010BD0000B6
:10237000000801400044004010B586B00446012129
:1023800044F20400FEF79EFB4FF40070ADF8140019
:1023900003208DF8160018208DF8170005A91C4899
:1023A000FDF770FF4FF48060ADF8140004208DF845
:1023B000170005A91648FDF765FF25208DF80000D8
:1023C00003208DF801008DF8020001208DF8030034
:1023D0006846FEF7DBF801940020ADF80800ADF880
:1023E0000A00ADF80C00ADF810000C20ADF80E009E
:1023F00001A90848FFF7D6FC012240F22551054803
:10240000FFF7AAFC01210348FFF763FC06B010BDEB
:10241000000801400038014070B5A748006870B955
:10242000A648006801F0A0F8A54A03C2A5480068C4
:1024300001F09AF8A44A03C201209F490860A3480A
:10244000006838B9A2480068A2490968401AC01C4F
:10245000A14908609D480068012807D19C48006890
:102460009E490968401A0C389B49086097480068E3
:10247000022807D19A4800689A490968401A801FC3
:102480009949086091480068032807D1904800687E
:1024900090490968401A801D8F4908608B48006880
:1024A000042807D18E48006890490968401A001D29
:1024B0008D49086088480068502809DB00224FF0E9
:1024C00080437F4903C900F065FF7D4A03C215E0E0
:1024D0008148006800F075FE04460022844B00F03D
:1024E00017FF0BD88348006801F03EF80446744893
:1024F0000CC8204600F042FF714A03C276480068CB
:1025000010F1500F09DC00224FF080436C4903C9E1
:1025100000F076FD6A4A03C215E06F48006800F0DB
:1025200050FE04460022744B00F062FE0BD8714846
:10253000006801F019F8044661480CC8204600F014
:102540005FFD5F4A03C268480068322808DB00224A
:102550006A4B5D4903C900F01DFF5B4A03C215E0E9
:102560006148006800F02DFE04460022604B00F038
:10257000CFFE0BD86248006800F0F6FF04465248D0
:102580000CC8204600F0FAFE4F4A03C256480068C5
:1025900010F1320F08DC0022584B4B4903C900F000
:1025A0002FFD494A03C215E04F48006800F009FEBC
:1025B00004460022504B00F01BFE0BD85048006828
:1025C00000F0D2FF044640480CC8204600F018FD39
:1025D0003D4A03C200224B4B394903C900F098FE23
:1025E00004D800214748364AC2E900100022464B71
:1025F000334903C900F0FCFD03D800204249304AAA
:1026000003C20022414B304903C900F0F1FD04D858
:1026100000213E482C4AC2E9001000223C4B2A49C6
:1026200003C900F075FE04D800213948264AC2E9E2
:1026300000106420FDF703FE2748006800F0C1FD8C
:10264000044600222A4B00F0D3FD34D22248006811
:1026500000F0B7FD04460022274B00F059FE2AD2B5
:102660002148006800F0ADFD04460022204B00F038
:10267000BFFD20D21C48006800F0A3FD04460022E4
:102680001D4B00F045FE16D210480068401C0F4953
:1026900008600846006805280DDB002008601D4919
:1026A00008700549086005480068FEF78BFA054880
:1026B0000068FEF7BBFA70BDAC000020900000205F
:1026C00070000020940000207800002060000020AE
:1026D000240000202C000020B00000204400002036
:1026E0002800002048000020B40000203000002016
:1026F0000000044080000020000004C00000F03F03
:102700008400002000805640008056C0008046C0F3
:1027100000804640A90000202DE9F047FD480068F0
:10272000002878D1FC480068FC490968401A401C20
:10273000FB490860FB480068FB490968401A401CD7
:10274000FA490860F6480068502809DB00224FF07B
:102750008043F74903C900F01DFEF54A03C20FE0AC
:10276000EF48006804280BDBF248006800F0FCFE2C
:102770000446EF480CC8204600F000FEEC4A03C2B5
:10278000E748006810F1500F09DC00224FF0804349
:10279000E74903C900F034FCE54A03C210E0E04811
:1027A000006810F1040F0BDCE248006800F0DCFE6A
:1027B0000446DF480CC8204600F022FCDC4A03C275
:1027C000DA480068322808DB0022DB4BDB4903C90A
:1027D00000F016FCD94A03C20FE0D4480068042870
:1027E0000BDBD748006800F0BFFE0446D3480CC896
:1027F000204600F005FCD14A03C2CC48006810F125
:10280000320F09DC0022CC4BCC4903C900F0C2FDD9
:10281000CA4A03C211E030E0C448006810F1040F56
:102820000BDCC748006800F09FFE0446C3480CC894
:10283000204600F0A3FDC14A03C23220FDF7FFFC91
:10284000B7480068042818DAB548006810F1040F8A
:1028500013DDB648006804280FDAB448006810F1A8
:10286000040F0ADDAB480068401CAA49086008460E
:102870000068052801DB01200860A64800680128DF
:102880007ED1B0480068A5490968441AE11704EBF5
:102890009171881001F000F8AB490860AB480068FE
:1028A000A1490968441AE11704EB9171881000F0FE
:1028B000F3FFA749086000BF99480068092812DAA9
:1028C0009748006810F1090F0DDD98480068092845
:1028D00009DA9648006810F1090F04DD9D48006888
:1028E000401C9C4908609B48006800F0D5FF814669
:1028F00095480168484601F01BF80646874800687D
:1029000000F0CAFF8046314600F05AFE0546824874
:10291000006800F0C1FF0746294601F007F90446A8
:1029200000F07EFF7E4908608A48006800F0B4FF2E
:10293000814687480168484600F0FAFF06467A4813
:10294000006800F0A9FF8046314600F039FE0546D8
:102950007448006800F0A0FF0746294601F0E6F839
:10296000044600F05DFF714908606D480068092861
:102970000DDB7048006800F0F7FD04466C4800E08D
:1029800044E00CC8204600F0F9FC694A03C26448E0
:10299000006810F1090F0BDC6648006800F0E4FDE8
:1029A000044663480CC8204600F02AFB604A03C274
:1029B0005E48006809280BDB6148006800F0D4FD20
:1029C00004465E480CC8204600F01AFB5B4A03C26E
:1029D0005648006810F1090F0BDC5948006800F0F8
:1029E000C3FD044655480CC8204600F0C7FC534AB6
:1029F00003C22C20FDF723FC564800680428FFF68C
:102A00005BAF44480068401C424908604148006888
:102A100002287DD100204F4908604F48006849498D
:102A20000968441AE11704EB9171881000F034FF33
:102A3000454908604948006844490968441AE11753
:102A400004EB9171881000F027FF4149086000BF36
:102A500033480068092812DA3148006810F1090F7C
:102A60000DDD32480068092809DA3048006810F1A5
:102A7000090F04DD37480068401C364908603548B6
:102A8000006800F009FF81462F480168484600F0C1
:102A90004FFF06462B48006800F0FEFE8046314698
:102AA00000F08EFD05461C48006800F0F5FE074664
:102AB000294601F03BF8044600F0B2FE18490860D0
:102AC0002448006800F0E8FE814621480168484635
:102AD00000F02EFF06461D48006800F0DDFE80462F
:102AE000314600F06DFD05460E48006800F0D4FE4A
:102AF0000746294601F01AF8044600F091FE0B49FA
:102B0000086007480068092834DB0A48006827E0A5
:102B10006FE0000060000020240000202C00002056
:102B2000B00000202800002030000020B400002069
:102B300070000020880000200000F03F7800002096
:102B40008C0000203C000020A0000020400000205D
:102B5000A4000020B800002044000020480000200D
:102B600000F002FD0446F8480CC8204600F006FCC0
:102B7000F54A03C2F548006810F1090F0BDCF44870
:102B8000006800F0F1FC0446EF480CC8204600F055
:102B900037FAED4A03C2EF48006809280BDBEE481C
:102BA000006800F0E1FC0446EC480CC8204600F048
:102BB00027FAEA4A03C2E748006810F1090F0BDC64
:102BC000E548006800F0D0FC0446E4480CC8204604
:102BD00000F0D4FBE14A03C22C20FDF730FBE048B3
:102BE00000680428FFF634AFDE480068401CDD4969
:102BF0000860DC48006803287DD10020D8490860BF
:102C0000D9480068D9490968441AE11704EB917161
:102C1000881000F041FED6490860D6480068D649C1
:102C20000968441AE11704EB9171881000F034FE32
:102C3000D249086000BFC5480068092812DAC348B5
:102C4000006810F1090F0DDDC2480068092809DA93
:102C5000C048006810F1090F04DDC1480068401C3D
:102C6000BF490860BE48006800F016FE8146C048B3
:102C70000168484600F05CFE0646BC48006800F06B
:102C80000BFE8046314600F09BFC0546BC480068C0
:102C900000F002FE0746294600F048FF044600F017
:102CA000BFFDAA490860AE48006800F0F5FD814606
:102CB000B2480168484600F03BFE0646AE48006850
:102CC00000F0EAFD8046314600F07AFC0546AD484A
:102CD000006800F0E1FD0746294600F027FF0446A2
:102CE00000F09EFD9B4908609848006809280DDBAC
:102CF0009748006800E048E000F036FC044692483F
:102D00000CC8204600F03AFB8F4A03C28F48006887
:102D100010F1090F0BDC8E48006800F025FC04461A
:102D200089480CC8204600F06BF9874A03C28948DD
:102D3000006809280BDB8848006800F015FC044691
:102D400086480CC8204600F05BF9844A03C28148DB
:102D5000006810F1090F0BDC7F48006800F004FCEC
:102D600004467E480CC8204600F008FB7B4A03C29C
:102D70002C20FDF764FA7A4800680428FFF65BAF60
:102D800078480068401C7749086076480068042845
:102D90007DD10020724908607B480068724909684B
:102DA000441AE11704EB9171881000F075FD704929
:102DB0000860764800686F490968441AE11704EB17
:102DC0009171881000F068FD6C49086000BF5F4891
:102DD0000068092812DA5D48006810F1090F0DDD5E
:102DE0005C480068092809DA5A48006810F1090FA0
:102DF00004DD5B480068401C594908605848006879
:102E000000F04AFD81465A480168484600F090FDAE
:102E100006465548006800F03FFD8046314600F008
:102E2000CFFB05465648006800F036FD07462946A8
:102E300000F07CFE044600F0F3FC4449086048487A
:102E4000006800F029FD81464C480168484600F0C2
:102E50006FFD06464748006800F01EFD804631467B
:102E600000F0AEFB05464748006800F015FD074638
:102E7000294600F05BFE044600F0D2FC35490860AC
:102E80003248006809280DDB3148006800E048E05E
:102E900000F06AFB04462C480CC8204600F06EFA8D
:102EA000294A03C22948006810F1090F0BDC2848A1
:102EB000006800F059FB044623480CC8204600F087
:102EC0009FF8214A03C22348006809280BDB2248E7
:102ED000006800F049FB044620480CC8204600F07A
:102EE0008FF81E4A03C21B48006810F1090F0BDC63
:102EF0001948006800F038FB044618480CC8204602
:102F000000F03CFA154A03C22C20FDF798F914484A
:102F100000680528FFF65BAF12480068401C1149A5
:102F200008601048006805280CDB00200D49086087
:102F30001749087017480068FDF744FE16480068F6
:102F4000FDF774FEBDE8F08770000020B00000209F
:102F500088000020B40000208C00002078000020B1
:102F6000B800002060000020340000204400002051
:102F7000A00000203800002048000020A40000200D
:102F800024000020280000202C0000203000002019
:102F9000A9000020900000209400002021F00042B1
:102FA000A2F16052B2F5801F01F0004328BFD2F1B8
:102FB0007F6C0BD95FEA001C43EAC20242EB5070FF
:102FC00018BF704728BF20F001007047B2F5801F7E
:102FD000BCBF184670474FEA410C1CF5001F02D2D7
:102FE000084600F06CBD70B500F03EF900000089A5
:102FF000FFF7F6BF4FF00040A0F5800070470000DB
:1030000010B591EA030F48BF83F0004300F1CA8175
:10301000841A71EB030C05D2121943EB0C03001B4D
:1030200061EB0C01DFF824E14FEA1154A4EB135CCF
:103030001EEA430F18BF9EEA445F73D023EA0E03D3
:10304000DCF1200E21EA045143F4801332D322FA3A
:103050000CFE10EB0E0023FA0CFE41EB0E01CCF13E
:10306000200E03FA0EFE10EB0E0051F10001B1F537
:10307000801FCCF1200E32D201EB045112FA0EF275
:10308000BDE8104058BF7047401C38BF5FEA42029D
:1030900018BF7047002814BF20F0010041F1000163
:1030A0004FEA410313F5001F38BF7047A1F1C0413B
:1030B00000F028B9012A43EB0302ACF1200CDCF14B
:1030C0001F0E32BF4FF0000E23FA0CF310EB03007B
:1030D00041EB0451B4EB115FD0D0A1EB045101F5E9
:1030E000801149085FEA300001EB04510ED350F122
:1030F000000038BF12FA0EFE08D1BDE81040C9E743
:10310000401C38BF5FEA4202CAD1C3E7BDE81040A5
:103110004FEA410313F5001F38BF7047A1F1C041CA
:1031200000F0F0B89EEA445F08D011EA5E0FBDE8F7
:10313000104004BF01F0004100207047BDE810407E
:1031400070B500F091F800BF64FBBE3E0000E0FFE8
:10315000491058BFC1F140415B1058BFC3F1404313
:103160008B42EFF3008070474FEA1153A3F5806361
:10317000D3F11E03A8BFD3F1200C08DB4FF00042AF
:1031800042EAC12252EA505232FA03F07047094231
:103190000BD4102BC4BF0020704703F5787CBCF122
:1031A000FF3F05D04FF0FF3070474FF000007047F1
:1031B00070B500F059F800BF499224800020704794
:1031C000F0E710F0004248BF4042B0FA80F310FA36
:1031D00003F10AD0C3F11D0303F580634FEA4150A8
:1031E00002EB035202EBD12170474FF00000704711
:1031F00051EA030C17D41CF5801F58BFBCF5801F83
:1032000000F10680994218BF704708BF904270478E
:1032100007D711F5801F58BF13F5801F19D49942A5
:103220007047894270471CF5801F08D5BCF5801F88
:10323000F7D58B4218BF704708BF824270474FF4E2
:10324000001C1CEB410F38BF1CEB430F01D28B421B
:10325000704770B500F008F8922449004FF0005113
:103260004FF08053FFF774BF0EF1020E2EF0030EE5
:103270005EF8046B364205D4012A43EB030515F5CD
:10328000001F12D8012841EB010C1CF5001F0CD8BF
:103290000ED14FEAD17C15F5001F0CEB4C0C0CF154
:1032A000020C08BF4CEBD37C04E04FF0080C01E0AB
:1032B0004FEAD37C0CEB4C0526FA05F606F0070620
:1032C000B6F1040C06D20EEB860CBDE870404CF053
:1032D000010C6047DFE80CF0090B02024FF00041DF
:1032E0004FF00000A1F5002170BD194610460128DD
:1032F00051EB010418BFD4F5001484BF002001F085
:10330000004170BD0808A0F500114FEA3101704777
:1033100053EA010C17D41CF5801F58BFBCF5801F61
:1033200000F106808B4218BF704708BF8242704789
:1033300007D713F5801F58BF11F5801F19D48B4292
:1033400070479B4270471CF5801F08D5BCF5801F55
:10335000F7D5994218BF704708BF904270474FF4A5
:10336000001C1CEB430F38BF1CEB410F01D29942EC
:1033700070470FB40CBC03BCFFF76BBF91EA030F9F
:1033800010B581F000413FF543AE83F0004300F0FB
:1033900009B8000010B591EA030F48BF83F000435D
:1033A0003FF536AE841A71EB030C07D212198CF07C
:1033B000004C43EB0C03001B61EB0C01DFF8A4E1B4
:1033C0004FEA1154A4EB135C1EEA430F18BF9EEAA8
:1033D000445F00F0B08023EA6E03524221EA0451B8
:1033E000C3EB6E0338BF5B1EDCF1200E25D322FA3F
:1033F0000CFE10EB0E0043FA0CFE41EB0E01CCF17B
:10340000200E03FA0EFE10EB0E0051F10001CCF17C
:10341000200E29D412FA0EF201EB0451BDE810403F
:1034200058BF7047401C1CBFB2F1004F70470028C6
:103430000CBF491C20F00100704712EB020E43EB59
:10344000030218BF4FF0010E4EEA4202ACF1200C0D
:10345000DCF11E0E54D943FA0CFE10EB0E0051F1B4
:10346000FF31CCF11E0ED5D50EF1010E12FA0EFE73
:10347000404141EB010101EB445C5FEA5C5C10D927
:1034800010EBDE7001EB045138BFBEF1004FBDE818
:10349000104018BF704700280CBF491C20F00100E5
:1034A000704730D24FEAD42C11F5001124F4006497
:1034B0001BD0B1FA81F20B3AA41AA41ED2F1200358
:1034C000914030FA03F31943904001EBCC71002C8A
:1034D00001EB0451BDE81040A8BF704701F1C041A5
:1034E0004FF0000001F000417047B0FA80F310FA8D
:1034F00003F100D110BDE41A173C4805C90AE4E7FE
:1035000001EB045110BD491001EB0451BDE810401E
:103510004FEA300002E04FF0000170474A0008BF58
:103520000042F8D0B2F5001F28BF704701F00041FB
:103530004FF0000070479EEA445F07D011EA5E0F2B
:10354000BDE8104004BF002100207047BDE81040D6
:1035500070B5FFF789FE00BF40DFF63E83F0004103
:10356000104670470000E0FF43004FEAD30C4FEADB
:103570003C0C43401FBF40070CF1605113F0FE4F5D
:1035800070471CF0006F03D100200CF00041704721
:103590000CF0004343EA507010B540EACC0000F054
:1035A00048FA00BF000000924FEA0001FFF7AABEF0
:1035B0004FF000414FF00000A1F5002170470000DE
:1035C00090EA010F48BF81F0004100F1B682421A33
:1035D0003CBF801A89184FEAD0524FF07F4C1CEA4A
:1035E000410FA2EBD15318BF9CEA026F00F03B8061
:1035F0004FF0004C4CEA00204CEA012121FA03FC78
:1036000010EB0C0C1ED202F1FF325FEA1C2040EBE3
:10361000C25038BF70471CF07F0F4FEA400C18BFF4
:10362000BCF17F4F38BF7047C3F12003994008BFFA
:1036300020F00100BCF17F4F38BF7047A0F1C040BF
:1036400000F03DBA4FEA3C00000A40EBC25028BFF0
:103650001CF0FF0F4FEA400CE6D018BFBCF17F4FC3
:1036600038BF7047EAE79CEA026F05D010EA5C0FAA
:1036700008BF00F00040704710B500F0DAF900BF55
:1036800064FBBE3E401058BFC0F14040491058BFD7
:10369000C1F140418142EFF3008070474FF47F0C4D
:1036A0001CEAD0121EBF1CEAD11392EA0C0F93EA57
:1036B0000C0F00F0858090EA010F48BF42F4807241
:1036C00040F4000C41F400002CF07F4120F07F40DA
:1036D00000B58142A2EB03020FF2081CACEB504E86
:1036E000C0F100009EF800E04FEA4E0E00FB0EFC19
:1036F00038BF49004FEA2C1C02F5FA020CFB0EF30E
:103700004FEACE1E4FEA112C4FEAC1210EEB635E49
:1037100042EB22420EFB0CFC4FEA1C5300FB031150
:103720004FEA112C4FEA01310EFB0CFC4FEADC4C46
:1037300000FB0C11C14228BF09184CEB03335DF8A4
:1037400004EB10EB410143EBC250B2F57C0F38BFE4
:10375000704729D512F0F00F1CBF00F1C04000F0F7
:1037600000407047008182838485868788898B8C9E
:103770008D8E8F919293959697999A9C9D9FA0A2DA
:10378000A3A5A7A8AAACAEB0B2B3B5B7B9BCBEC02A
:10379000C2C5C7C9CCCED1D4D7D9DCDFE2E6E9ECCB
:1037A000F0F3F7FAFE0000004FEA400C0CF1807CC9
:1037B000BCF17E4F28BF7047B0F1C04000F07FB928
:1037C00090EA010F0CEAD11348BF42F480726245BF
:1037D00038BF634507D213F47F0F16D080EA01008B
:1037E00000F00040704710B500F023F9097EFC3E60
:1037F00000F005B880EA010000F00040704780EA60
:10380000010000F0004000F05AB912F47F0F04BF2D
:103810000248704780EA010000F051B90000C07F03
:1038200041000B0ED3F19E0208D950F400034FEA79
:10383000032323FA02F048BF4042704710B500F05E
:10384000F8F800BF49922480002070476FF00042D2
:1038500082EA200070470000C10DD1F19E0206DB14
:103860004FEA002343F0004323FA02F0704700427E
:1038700007D54FEA4001B1F1FE4F02D24FF00000F0
:10388000704710B500F0D5F84992248000207047A9
:103890006FEA20007047000010F0004148BF40422E
:1038A000B0FA80F310FA03F2C3F19D030BD051EA92
:1038B000C35101EB1220530638BF704700F10100DD
:1038C00008BF20F00100704750EA010C00F113809E
:1038D0001CF5000F58BFBCF5000F01D4884270479B
:1038E00007D710F5000F58BF11F5000F15D4884207
:1038F0007047894270471CF5000F04D5BCF5000FD6
:10390000F7D5814270474FF0807C1CEB400F38BFE9
:103910001CEB410F01D28142704710B500F089F8CD
:10392000922449004FF000504FF08051FFF7AABE9B
:103930004FF47F0C1CEAD0121EBF1CEAD11392EA8E
:103940000C0F93EA0C0F00F0478090EA010F48BF7C
:1039500042F480724FF0004C4CEA00204CEA012106
:1039600002EB0302A0FB0113A2F50002002918BF1D
:1039700043F001035B0028BF4FEA330342EB2242CE
:103980005FEA132C4CEBC2502EBFBCEB436FB2F579
:103990007C0F70474FEA036CBCF1004F08BF20F06A
:1039A0000100B2F57C0F38BF70470BD582F0FF02E3
:1039B00012F5803FC8BF704700F1C040D8BF00F08B
:1039C0000040704700F5000C5FEA4C0C48BF7047A0
:1039D000B0F1C04000F073B890EA010F0CEAD113C7
:1039E00048BF42F48072624538BF634504D280EA22
:1039F000010000F00040704710B500F01AF800BF59
:103A00008900013E00F007B800F009B85FEA410CF8
:103A10005FEA1C6C08D080EA010000F050B85FEA51
:103A2000400C5FEA1C6CF6D14FF00040A0F580001E
:103A300070470EF1020E2EF0030E5EF8044B244286
:103A400004D44FEA4102B2F17F4F11D84FEA40034C
:103A5000B3F17F4F0CD80ED14FEAD07CB2F17F4F3B
:103A60000CEB4C0C0CF1020C08BF4CEBD17C04E0CD
:103A70004FF0080C01E04FEAD17C0CEB4C0324FA28
:103A800003F404F00704B4F1040C06D20EEB840C2A
:103A9000BDE810404CF0010C6047DFE80CF007086F
:103AA00002024FF00040A0F5800010BD0846420021
:103AB00018BFD2F1807288BF00F0004010BDFF2116
:103AC00041EAD050C005704751EA000C00F1138064
:103AD0001CF5000F58BFBCF5000F01D481427047A0
:103AE00007D711F5000F58BF10F5000F15D481420C
:103AF0007047894270471CF5000F04D5BCF5000FD4
:103B0000F7D5884270474FF0807C1CEB410F38BFDF
:103B10001CEB400F01D28842704780EA010081EA25
:103B2000000180EA0100FFF7F8BE000090EA010FF3
:103B300048BF81F000413FF54AAD421A04D882F0F7
:103B40000042A0EB020011444FEAD0524FF07F4CEC
:103B50001CEA410FA2EBD15318BF9CEA026F4AD076
:103B60004FF0004C4CEA00204CEA012121FA03FC02
:103B7000B0EB0C0C0FD412F0FE0F36D05FEA4C0005
:103B80001DD5001240EBC25038BF70471CF03F0FEC
:103B900018BF70470BE0A2F101025FEA1C2040EB66
:103BA000C25038BF70471CF07F0F18BF7047C3F179
:103BB0002003994014BF401E20F001007047800888
:103BC0004FEA122308BF7047B0FA80FCA2EB0C0248
:103BD000CCF1280C60FA0CF093EA122F04BF00EB32
:103BE000C25070474FEAC3707047130A5FEADC1097
:103BF00008BF7047F6E79CEA026F04D010EA5C0F3A
:103C000008BF0020704710B5FFF713FF40DFF63EF6
:103C100081F000407047000000000000000000003C
:103C2000000000000000000000F80000000000009C
:103C300000333000000000100C06100C06000000DD
:103C400000000000000040C07840C0784000043F01
:103C500004043F040400007088FC083000000018D1
:103C600020FF211E0000F008F000E01800000021F5
:103C70001C031E211E0000F00888700000001E2199
:103C800023241927211010160E0000000000000048
:103C9000000000000000000000E018040200000026
:103CA00000071820400000020418E0000000004057
:103CB000201807000000404080F0804040000202D1
:103CC000010F01020200000000F0000000000101ED
:103CD000011F01010100000000000000000080B091
:103CE0007000000000000000000000000000000163
:103CF000010101010101000000000000000000308E
:103D00003000000000000000000080601804006027
:103D100018060100000000E010080810E000000F85
:103D2000102020100F00001010F8000000000020EC
:103D3000203F202000000070080808887000003034
:103D400028242221300000300888884830000018DC
:103D5000202020110E000000C02010F800000007F5
:103D60000424243F240000F808888808080000196B
:103D7000212020110E0000E0108888180000000F9C
:103D8000112020110E0000380808C8380800000073
:103D9000003F000000000070880808887000001CC8
:103DA000222121221C0000E010080810E000000081
:103DB000312222110F00000000C0C00000000000EE
:103DC0000030300000000000008000000000000013
:103DD000806000000000000080402010080000010A
:103DE00002040810200040404040404040000404CD
:103DF0000404040404000008102040800000002097
:103E0000100804020100007048080808F0000000D3
:103E1000003036010000C030C828E810E000071864
:103E2000272423140B000000C038E0000000203CD1
:103E300023020227382008F8888888700000203F75
:103E4000202020110E00C03008080808380007188C
:103E500020202010080008F808080810E000203F83
:103E6000202020100F0008F88888E8081000203F64
:103E700020202320180008F88888E8081000203F38
:103E8000200003000000C0300808083800000718B0
:103E90002020221E020008F808000008F808203F31
:103EA000210101213F20000808F808080000002037
:103EB000203F2020000000000808F8080800C0800B
:103EC00080807F00000008F888C028180800203F84
:103ED00020012638200008F8080000000000203FDC
:103EE00020202020300008F8F800F8F80800203FD3
:103EF000003F003F200008F830C00008F808203FCD
:103F0000200007183F00E01008080810E0000F101C
:103F1000202020100F0008F808080808F000203FB3
:103F2000210101010000E01008080810E0000F184E
:103F3000242438504F0008F8888888887000203F73
:103F40002000030C30200070880808083800003872
:103F5000202121221C00180808F808081800000079
:103F6000203F2000000008F808000008F808001FA3
:103F7000202020201F000878880000C83808000092
:103F800007380E010000F80800F80008F800033CAC
:103F90000700073C03000818688080681808203074
:103FA0002C03032C30200838C800C8380800000053
:103FB000203F2000000010080808C83808002038FA
:103FC000262120201800000000FE0202020000004E
:103FD000007F40404000000C30C0000000000000A6
:103FE00000010638C00000020202FE00000000408E
:103FF00040407F00000000000402020204000000B4
:1040000000000000000000000000000000008080B0
:104010008080808080800002020400000000000098
:104020000000000000000000808080800000001977
:10403000242222223F2008F8008080000000003F58
:10404000112020110E000000008080800000000E72
:10405000112020201100000000808088F800000E50
:10406000112020103F200000808080800000001F71
:10407000222222221300008080F0888888180020E5
:10408000203F202000000000808080808000006BA6
:1040900094949493600008F8008080800000203F92
:1040A000210000203F2000809898000000000020A0
:1040B000203F20200000000000809898000000C0F1
:1040C0008080807F000008F8000080808000203F12
:1040D00024022D302000000808F800000000002015
:1040E000203F202000008080808080808000203F52
:1040F00020003F20003F8080008080800000203F23
:10410000210000203F200000808080800000001FF0
:10411000202020201F00808000808000000080FF81
:10412000A12020110E000000008080808000000E81
:10413000112020A0FF8080808000808080002020CF
:104140003F2120000100000080808080800000333B
:10415000242424241900008080E0808000000000D6
:10416000001F202000008080000000808000001FD1
:10417000202020103F20808080000080808000016F
:104180000E300806010080800080008080800F30A3
:104190000C030C300F000080800080808000002025
:1041A000312E0E3120008080800000808080808150
:1041B0008E701806010000808080808080000021C1
:1041C000302C2221300000000000807C0202000020
:1041D0000000003F404000000000FF000000000021
:1041E0000000FF0000000002027C80000000004090
:1041F000403F00000000000601010202040400002C
:10420000000000000000000028420008000000201C
:10421000C400000028010008EC420008C40000208F
:10422000BC08000044010008000000000102030473
:104230000102030406070809020406080000000042
:10424000000000000000000000000000000000006E
:10425000000000000000000000000000000000005E
:10426000000000000000000000000000000000004E
:104270000000000000000000000000000000A0405E
:1042800000005041000090410000000000000000CC
:10429000000000000000000000000000000000001E
:1042A00000000000000014400000003F0000003F3C
:1042B0000000803F0000803F000000000000A040A0
:1042C000000000000000A04000000000000000000E
:1042D00000000000000000000000000000000000DE
:0C42E000000000000000000000000000D2
:04000005080000ED02
:00000001FF
